{"abi":[{"type":"constructor","inputs":[{"name":"_affiliate","type":"address","internalType":"address"},{"name":"_splitConfig","type":"address","internalType":"address"},{"name":"_payVault","type":"address","internalType":"address"},{"name":"_platformVault","type":"address","internalType":"address"}],"stateMutability":"nonpayable"},{"type":"function","name":"affiliate","inputs":[],"outputs":[{"name":"","type":"address","internalType":"address"}],"stateMutability":"view"},{"type":"function","name":"expectPayWithAmount","inputs":[{"name":"vault","type":"address","internalType":"address"},{"name":"amount","type":"uint256","internalType":"uint256"}],"outputs":[],"stateMutability":"nonpayable"},{"type":"function","name":"expectationsMet","inputs":[],"outputs":[{"name":"","type":"bool","internalType":"bool"}],"stateMutability":"view"},{"type":"function","name":"pay","inputs":[{"name":"vault","type":"address","internalType":"contract IERC4626"}],"outputs":[],"stateMutability":"nonpayable"},{"type":"function","name":"payVault","inputs":[],"outputs":[{"name":"","type":"address","internalType":"contract IERC4626"}],"stateMutability":"view"},{"type":"function","name":"payWithAmount","inputs":[{"name":"vault","type":"address","internalType":"contract IERC4626"},{"name":"amount","type":"uint256","internalType":"uint256"}],"outputs":[],"stateMutability":"nonpayable"},{"type":"function","name":"platformVault","inputs":[],"outputs":[{"name":"","type":"address","internalType":"contract IERC4626"}],"stateMutability":"view"},{"type":"function","name":"setMockMaxRedeem","inputs":[{"name":"amount","type":"uint256","internalType":"uint256"}],"outputs":[],"stateMutability":"nonpayable"},{"type":"function","name":"setPayVault","inputs":[{"name":"vault","type":"address","internalType":"address"}],"outputs":[],"stateMutability":"nonpayable"},{"type":"function","name":"splitConfig","inputs":[],"outputs":[{"name":"","type":"address","internalType":"contract IPartnerSplitConfig"}],"stateMutability":"view"},{"type":"event","name":"SetPayVault","inputs":[{"name":"payVault","type":"address","indexed":false,"internalType":"address"}],"anonymous":false},{"type":"error","name":"AlreadySet","inputs":[]},{"type":"error","name":"AssetMismatch","inputs":[]},{"type":"error","name":"SafeERC20FailedOperation","inputs":[{"name":"token","type":"address","internalType":"address"}]},{"type":"error","name":"UnauthorizedAffiliate","inputs":[]},{"type":"error","name":"ZeroAddress","inputs":[]}],"bytecode":{"object":"0x60e060405234801562000010575f80fd5b5060405162000c8d38038062000c8d833981016040819052620000339162000489565b838383836001600160a01b0384166200005f5760405163d92e233d60e01b815260040160405180910390fd5b6001600160a01b038316620000875760405163d92e233d60e01b815260040160405180910390fd5b6001600160a01b038216620000af5760405163d92e233d60e01b815260040160405180910390fd5b6001600160a01b038116620000d75760405163d92e233d60e01b815260040160405180910390fd5b6001600160a01b0380851660a0528316608052620000f5826200020d565b6001600160a01b0380821660c0525f54604080516338d52e0f60e01b8152905191909216916338d52e0f9160048083019260209291908290030181865afa15801562000143573d5f803e3d5ffd5b505050506040513d601f19601f82011682018060405250810190620001699190620004e3565b6001600160a01b031660c0516001600160a01b03166338d52e0f6040518163ffffffff1660e01b8152600401602060405180830381865afa158015620001b1573d5f803e3d5ffd5b505050506040513d601f19601f82011682018060405250810190620001d79190620004e3565b6001600160a01b031614620001ff576040516341e0808560e11b815260040160405180910390fd5b505050505050505062000506565b5f80546001600160a01b0319166001600160a01b0383169081178255604080516338d52e0f60e01b815290516338d52e0f916004808201926020929091908290030181865afa15801562000263573d5f803e3d5ffd5b505050506040513d601f19601f82011682018060405250810190620002899190620004e3565b9050620002a26001600160a01b038216835f19620002e2565b6040516001600160a01b03831681527ffd1fcbc1570662ef31c0592a7fd355558238e52e81d22cd3395aa3fdd680aec59060200160405180910390a15050565b604080516001600160a01b038416602482015260448082018490528251808303909101815260649091019091526020810180516001600160e01b0390811663095ea7b360e01b179091526200033c9085908390620003ad16565b620003a757604080516001600160a01b03851660248201525f6044808301919091528251808303909101815260649091019091526020810180516001600160e01b0390811663095ea7b360e01b179091526200039b918691620003f916565b620003a78482620003f9565b50505050565b5f805f8060205f8651602088015f8a5af192503d91505f519050828015620003ef57508115620003e15780600114620003ef565b5f866001600160a01b03163b115b9695505050505050565b5f8060205f8451602086015f885af18062000419576040513d5f823e3d81fd5b50505f513d91508115620004325780600114156200043f565b6001600160a01b0384163b155b15620003a757604051635274afe760e01b81526001600160a01b038516600482015260240160405180910390fd5b80516001600160a01b038116811462000484575f80fd5b919050565b5f805f80608085870312156200049d575f80fd5b620004a8856200046d565b9350620004b8602086016200046d565b9250620004c8604086016200046d565b9150620004d8606086016200046d565b905092959194509250565b5f60208284031215620004f4575f80fd5b620004ff826200046d565b9392505050565b60805160a05160c051610757620005365f395f60fd01525f818161012401526102b701525f60b901526107575ff3fe608060405234801561000f575f80fd5b506004361061009b575f3560e01c80635b8039e2116100635780635b8039e214610184578063a0b43d7a1461019a578063a4ac0196146101ad578063eaa1f57e146101c0578063ede6a80d146101d3575f80fd5b80630c11dedd1461009f57806316a1614b146100b457806320f094f8146100f857806345e05f431461011f578063489a31dc14610146575b5f80fd5b6100b26100ad3660046106a3565b6101e5565b005b6100db7f000000000000000000000000000000000000000000000000000000000000000081565b6040516001600160a01b0390911681526020015b60405180910390f35b6100db7f000000000000000000000000000000000000000000000000000000000000000081565b6100db7f000000000000000000000000000000000000000000000000000000000000000081565b6100b26101543660046106c5565b600180546001600160a01b0319166001600160a01b0393909316929092179091556002556003805460ff19169055565b60035460ff1660405190151581526020016100ef565b6100b26101a83660046106c5565b6101f4565b6100b26101bb3660046106a3565b6102ac565b6100b26101ce3660046106ef565b600455565b5f546100db906001600160a01b031681565b6101f1816004546101f4565b50565b6001546001600160a01b038381169116146102565760405162461bcd60e51b815260206004820152601860248201527f556e6578706563746564207661756c742061646472657373000000000000000060448201526064015b60405180910390fd5b600254811461029b5760405162461bcd60e51b8152602060048201526011602482015270155b995e1c1958dd195908185b5bdd5b9d607a1b604482015260640161024d565b50506003805460ff19166001179055565b336001600160a01b037f000000000000000000000000000000000000000000000000000000000000000016146102f557604051637e6c704d60e01b815260040160405180910390fd5b6001600160a01b03811661031c5760405163d92e233d60e01b815260040160405180910390fd5b5f546001600160a01b039081169082160361034a5760405163a741a04560e01b815260040160405180910390fd5b5f54604080516338d52e0f60e01b8152905183926001600160a01b0316916338d52e0f9160048083019260209291908290030181865afa158015610390573d5f803e3d5ffd5b505050506040513d601f19601f820116820180604052508101906103b49190610706565b6001600160a01b0316816001600160a01b03166338d52e0f6040518163ffffffff1660e01b8152600401602060405180830381865afa1580156103f9573d5f803e3d5ffd5b505050506040513d601f19601f8201168201806040525081019061041d9190610706565b6001600160a01b031614610444576040516341e0808560e11b815260040160405180910390fd5b61044d82610451565b5050565b5f80546001600160a01b0319166001600160a01b0383169081178255604080516338d52e0f60e01b815290516338d52e0f916004808201926020929091908290030181865afa1580156104a6573d5f803e3d5ffd5b505050506040513d601f19601f820116820180604052508101906104ca9190610706565b90506104e16001600160a01b038216835f19610521565b6040516001600160a01b03831681527ffd1fcbc1570662ef31c0592a7fd355558238e52e81d22cd3395aa3fdd680aec59060200160405180910390a15050565b604080516001600160a01b038416602482015260448082018490528251808303909101815260649091019091526020810180516001600160e01b031663095ea7b360e01b17905261057284826105da565b6105d457604080516001600160a01b03851660248201525f6044808301919091528251808303909101815260649091019091526020810180516001600160e01b031663095ea7b360e01b1790526105ca908590610623565b6105d48482610623565b50505050565b5f805f8060205f8651602088015f8a5af192503d91505f5190508280156106195750811561060b5780600114610619565b5f866001600160a01b03163b115b9695505050505050565b5f8060205f8451602086015f885af180610642576040513d5f823e3d81fd5b50505f513d91508115610659578060011415610666565b6001600160a01b0384163b155b156105d457604051635274afe760e01b81526001600160a01b038516600482015260240161024d565b6001600160a01b03811681146101f1575f80fd5b5f602082840312156106b3575f80fd5b81356106be8161068f565b9392505050565b5f80604083850312156106d6575f80fd5b82356106e18161068f565b946020939093013593505050565b5f602082840312156106ff575f80fd5b5035919050565b5f60208284031215610716575f80fd5b81516106be8161068f56fea26469706673582212206941ded5afbf8f60e8403caabcc0e18db2a94175ed5f052e8daa71dce2280f4464736f6c63430008150033","linkReferences":{}},"methodIdentifiers":{"affiliate()":"45e05f43","expectPayWithAmount(address,uint256)":"489a31dc","expectationsMet()":"5b8039e2","pay(address)":"0c11dedd","payVault()":"ede6a80d","payWithAmount(address,uint256)":"a0b43d7a","platformVault()":"20f094f8","setMockMaxRedeem(uint256)":"eaa1f57e","setPayVault(address)":"a4ac0196","splitConfig()":"16a1614b"},"id":149}