{"abi":[{"type":"function","name":"SPLIT_TOTAL","inputs":[],"outputs":[{"name":"","type":"uint256","internalType":"uint256"}],"stateMutability":"view"}],"bytecode":{"object":"0x60bf61004d600b8282823980515f1a607314610041577f4e487b71000000000000000000000000000000000000000000000000000000005f525f60045260245ffd5b305f52607381538281f3fe73000000000000000000000000000000000000000030146080604052600436106032575f3560e01c806349c73b6f146036575b5f80fd5b603c6050565b604051604791906072565b60405180910390f35b670de0b6b3a764000081565b5f819050919050565b606c81605c565b82525050565b5f60208201905060835f8301846065565b9291505056fea2646970667358221220aa6ebca78c9c835f6c05523cc372f23fe5a42b98aed072518d7b54cbca8653bb64736f6c63430008150033","linkReferences":{}},"methodIdentifiers":{"SPLIT_TOTAL()":"49c73b6f"},"id":132}