{"abi":[{"type":"function","name":"SPLIT_TOTAL","inputs":[],"outputs":[{"name":"","type":"uint256","internalType":"uint256"}],"stateMutability":"view"}],"bytecode":{"object":"0x608c610033600b8282823980515f1a607314602757634e487b7160e01b5f525f60045260245ffd5b305f52607381538281f3fe73000000000000000000000000000000000000000030146080604052600436106032575f3560e01c806349c73b6f146036575b5f80fd5b6044670de0b6b3a764000081565b60405190815260200160405180910390f3fea2646970667358221220e34102836b2e3d666b35be34084e9e7189365430c5806a04ffa733f7504ba3a664736f6c63430008150033","linkReferences":{}},"methodIdentifiers":{"SPLIT_TOTAL()":"49c73b6f"},"id":132}