{"abi":[{"type":"constructor","inputs":[{"name":"owner","type":"address","internalType":"address"},{"name":"vault","type":"address","internalType":"address"},{"name":"asset","type":"address","internalType":"address"},{"name":"_name","type":"string","internalType":"string"},{"name":"_symbol","type":"string","internalType":"string"},{"name":"_feeRecipient","type":"address","internalType":"address"},{"name":"_collections","type":"address","internalType":"address"},{"name":"_fee","type":"uint96","internalType":"uint96"}],"stateMutability":"nonpayable"},{"type":"function","name":"DECIMALS_OFFSET","inputs":[],"outputs":[{"name":"","type":"uint8","internalType":"uint8"}],"stateMutability":"view"},{"type":"function","name":"DOMAIN_SEPARATOR","inputs":[],"outputs":[{"name":"","type":"bytes32","internalType":"bytes32"}],"stateMutability":"view"},{"type":"function","name":"VAULT","inputs":[],"outputs":[{"name":"","type":"address","internalType":"contract IERC4626"}],"stateMutability":"view"},{"type":"function","name":"acceptOwnership","inputs":[],"outputs":[],"stateMutability":"nonpayable"},{"type":"function","name":"accrueFee","inputs":[],"outputs":[],"stateMutability":"nonpayable"},{"type":"function","name":"allowance","inputs":[{"name":"owner","type":"address","internalType":"address"},{"name":"spender","type":"address","internalType":"address"}],"outputs":[{"name":"","type":"uint256","internalType":"uint256"}],"stateMutability":"view"},{"type":"function","name":"approve","inputs":[{"name":"spender","type":"address","internalType":"address"},{"name":"value","type":"uint256","internalType":"uint256"}],"outputs":[{"name":"","type":"bool","internalType":"bool"}],"stateMutability":"nonpayable"},{"type":"function","name":"asset","inputs":[],"outputs":[{"name":"","type":"address","internalType":"address"}],"stateMutability":"view"},{"type":"function","name":"balanceOf","inputs":[{"name":"account","type":"address","internalType":"address"}],"outputs":[{"name":"","type":"uint256","internalType":"uint256"}],"stateMutability":"view"},{"type":"function","name":"collect","inputs":[{"name":"token","type":"address","internalType":"address"}],"outputs":[],"stateMutability":"nonpayable"},{"type":"function","name":"collections","inputs":[],"outputs":[{"name":"","type":"address","internalType":"address"}],"stateMutability":"view"},{"type":"function","name":"convertToAssets","inputs":[{"name":"shares","type":"uint256","internalType":"uint256"}],"outputs":[{"name":"","type":"uint256","internalType":"uint256"}],"stateMutability":"view"},{"type":"function","name":"convertToShares","inputs":[{"name":"assets","type":"uint256","internalType":"uint256"}],"outputs":[{"name":"","type":"uint256","internalType":"uint256"}],"stateMutability":"view"},{"type":"function","name":"decimals","inputs":[],"outputs":[{"name":"","type":"uint8","internalType":"uint8"}],"stateMutability":"view"},{"type":"function","name":"deposit","inputs":[{"name":"assets","type":"uint256","internalType":"uint256"},{"name":"receiver","type":"address","internalType":"address"}],"outputs":[{"name":"shares","type":"uint256","internalType":"uint256"}],"stateMutability":"nonpayable"},{"type":"function","name":"eip712Domain","inputs":[],"outputs":[{"name":"fields","type":"bytes1","internalType":"bytes1"},{"name":"name","type":"string","internalType":"string"},{"name":"version","type":"string","internalType":"string"},{"name":"chainId","type":"uint256","internalType":"uint256"},{"name":"verifyingContract","type":"address","internalType":"address"},{"name":"salt","type":"bytes32","internalType":"bytes32"},{"name":"extensions","type":"uint256[]","internalType":"uint256[]"}],"stateMutability":"view"},{"type":"function","name":"fee","inputs":[],"outputs":[{"name":"","type":"uint96","internalType":"uint96"}],"stateMutability":"view"},{"type":"function","name":"feeRecipient","inputs":[],"outputs":[{"name":"","type":"address","internalType":"address"}],"stateMutability":"view"},{"type":"function","name":"lastTotalAssets","inputs":[],"outputs":[{"name":"","type":"uint256","internalType":"uint256"}],"stateMutability":"view"},{"type":"function","name":"maxDeposit","inputs":[{"name":"","type":"address","internalType":"address"}],"outputs":[{"name":"","type":"uint256","internalType":"uint256"}],"stateMutability":"view"},{"type":"function","name":"maxMint","inputs":[{"name":"","type":"address","internalType":"address"}],"outputs":[{"name":"","type":"uint256","internalType":"uint256"}],"stateMutability":"view"},{"type":"function","name":"maxRedeem","inputs":[{"name":"owner","type":"address","internalType":"address"}],"outputs":[{"name":"","type":"uint256","internalType":"uint256"}],"stateMutability":"view"},{"type":"function","name":"maxWithdraw","inputs":[{"name":"owner","type":"address","internalType":"address"}],"outputs":[{"name":"assets","type":"uint256","internalType":"uint256"}],"stateMutability":"view"},{"type":"function","name":"mint","inputs":[{"name":"shares","type":"uint256","internalType":"uint256"},{"name":"receiver","type":"address","internalType":"address"}],"outputs":[{"name":"assets","type":"uint256","internalType":"uint256"}],"stateMutability":"nonpayable"},{"type":"function","name":"multicall","inputs":[{"name":"data","type":"bytes[]","internalType":"bytes[]"}],"outputs":[{"name":"results","type":"bytes[]","internalType":"bytes[]"}],"stateMutability":"nonpayable"},{"type":"function","name":"name","inputs":[],"outputs":[{"name":"","type":"string","internalType":"string"}],"stateMutability":"view"},{"type":"function","name":"nonces","inputs":[{"name":"owner","type":"address","internalType":"address"}],"outputs":[{"name":"","type":"uint256","internalType":"uint256"}],"stateMutability":"view"},{"type":"function","name":"owner","inputs":[],"outputs":[{"name":"","type":"address","internalType":"address"}],"stateMutability":"view"},{"type":"function","name":"pendingOwner","inputs":[],"outputs":[{"name":"","type":"address","internalType":"address"}],"stateMutability":"view"},{"type":"function","name":"permit","inputs":[{"name":"owner","type":"address","internalType":"address"},{"name":"spender","type":"address","internalType":"address"},{"name":"value","type":"uint256","internalType":"uint256"},{"name":"deadline","type":"uint256","internalType":"uint256"},{"name":"v","type":"uint8","internalType":"uint8"},{"name":"r","type":"bytes32","internalType":"bytes32"},{"name":"s","type":"bytes32","internalType":"bytes32"}],"outputs":[],"stateMutability":"nonpayable"},{"type":"function","name":"previewDeposit","inputs":[{"name":"assets","type":"uint256","internalType":"uint256"}],"outputs":[{"name":"","type":"uint256","internalType":"uint256"}],"stateMutability":"view"},{"type":"function","name":"previewMint","inputs":[{"name":"shares","type":"uint256","internalType":"uint256"}],"outputs":[{"name":"","type":"uint256","internalType":"uint256"}],"stateMutability":"view"},{"type":"function","name":"previewRedeem","inputs":[{"name":"shares","type":"uint256","internalType":"uint256"}],"outputs":[{"name":"","type":"uint256","internalType":"uint256"}],"stateMutability":"view"},{"type":"function","name":"previewWithdraw","inputs":[{"name":"assets","type":"uint256","internalType":"uint256"}],"outputs":[{"name":"","type":"uint256","internalType":"uint256"}],"stateMutability":"view"},{"type":"function","name":"redeem","inputs":[{"name":"shares","type":"uint256","internalType":"uint256"},{"name":"receiver","type":"address","internalType":"address"},{"name":"owner","type":"address","internalType":"address"}],"outputs":[{"name":"assets","type":"uint256","internalType":"uint256"}],"stateMutability":"nonpayable"},{"type":"function","name":"renounceOwnership","inputs":[],"outputs":[],"stateMutability":"nonpayable"},{"type":"function","name":"setCollections","inputs":[{"name":"newCollections","type":"address","internalType":"address"}],"outputs":[],"stateMutability":"nonpayable"},{"type":"function","name":"setFee","inputs":[{"name":"newFee","type":"uint256","internalType":"uint256"}],"outputs":[],"stateMutability":"nonpayable"},{"type":"function","name":"setFeeRecipient","inputs":[{"name":"newFeeRecipient","type":"address","internalType":"address"}],"outputs":[],"stateMutability":"nonpayable"},{"type":"function","name":"symbol","inputs":[],"outputs":[{"name":"","type":"string","internalType":"string"}],"stateMutability":"view"},{"type":"function","name":"totalAssets","inputs":[],"outputs":[{"name":"assets","type":"uint256","internalType":"uint256"}],"stateMutability":"view"},{"type":"function","name":"totalSupply","inputs":[],"outputs":[{"name":"","type":"uint256","internalType":"uint256"}],"stateMutability":"view"},{"type":"function","name":"transfer","inputs":[{"name":"to","type":"address","internalType":"address"},{"name":"value","type":"uint256","internalType":"uint256"}],"outputs":[{"name":"","type":"bool","internalType":"bool"}],"stateMutability":"nonpayable"},{"type":"function","name":"transferFrom","inputs":[{"name":"from","type":"address","internalType":"address"},{"name":"to","type":"address","internalType":"address"},{"name":"value","type":"uint256","internalType":"uint256"}],"outputs":[{"name":"","type":"bool","internalType":"bool"}],"stateMutability":"nonpayable"},{"type":"function","name":"transferOwnership","inputs":[{"name":"newOwner","type":"address","internalType":"address"}],"outputs":[],"stateMutability":"nonpayable"},{"type":"function","name":"withdraw","inputs":[{"name":"assets","type":"uint256","internalType":"uint256"},{"name":"receiver","type":"address","internalType":"address"},{"name":"owner","type":"address","internalType":"address"}],"outputs":[{"name":"shares","type":"uint256","internalType":"uint256"}],"stateMutability":"nonpayable"},{"type":"event","name":"AccrueInterest","inputs":[{"name":"newTotalAssets","type":"uint256","indexed":false,"internalType":"uint256"},{"name":"feeShares","type":"uint256","indexed":false,"internalType":"uint256"}],"anonymous":false},{"type":"event","name":"Approval","inputs":[{"name":"owner","type":"address","indexed":true,"internalType":"address"},{"name":"spender","type":"address","indexed":true,"internalType":"address"},{"name":"value","type":"uint256","indexed":false,"internalType":"uint256"}],"anonymous":false},{"type":"event","name":"Collect","inputs":[{"name":"caller","type":"address","indexed":true,"internalType":"address"},{"name":"token","type":"address","indexed":true,"internalType":"address"},{"name":"amount","type":"uint256","indexed":false,"internalType":"uint256"}],"anonymous":false},{"type":"event","name":"Deposit","inputs":[{"name":"sender","type":"address","indexed":true,"internalType":"address"},{"name":"owner","type":"address","indexed":true,"internalType":"address"},{"name":"assets","type":"uint256","indexed":false,"internalType":"uint256"},{"name":"shares","type":"uint256","indexed":false,"internalType":"uint256"}],"anonymous":false},{"type":"event","name":"EIP712DomainChanged","inputs":[],"anonymous":false},{"type":"event","name":"OwnershipTransferStarted","inputs":[{"name":"previousOwner","type":"address","indexed":true,"internalType":"address"},{"name":"newOwner","type":"address","indexed":true,"internalType":"address"}],"anonymous":false},{"type":"event","name":"OwnershipTransferred","inputs":[{"name":"previousOwner","type":"address","indexed":true,"internalType":"address"},{"name":"newOwner","type":"address","indexed":true,"internalType":"address"}],"anonymous":false},{"type":"event","name":"SetCollections","inputs":[{"name":"newCollections","type":"address","indexed":true,"internalType":"address"}],"anonymous":false},{"type":"event","name":"SetFee","inputs":[{"name":"caller","type":"address","indexed":true,"internalType":"address"},{"name":"newFee","type":"uint256","indexed":false,"internalType":"uint256"}],"anonymous":false},{"type":"event","name":"SetFeeRecipient","inputs":[{"name":"newFeeRecipient","type":"address","indexed":true,"internalType":"address"}],"anonymous":false},{"type":"event","name":"Transfer","inputs":[{"name":"from","type":"address","indexed":true,"internalType":"address"},{"name":"to","type":"address","indexed":true,"internalType":"address"},{"name":"value","type":"uint256","indexed":false,"internalType":"uint256"}],"anonymous":false},{"type":"event","name":"UpdateLastTotalAssets","inputs":[{"name":"updatedTotalAssets","type":"uint256","indexed":false,"internalType":"uint256"}],"anonymous":false},{"type":"event","name":"Withdraw","inputs":[{"name":"sender","type":"address","indexed":true,"internalType":"address"},{"name":"receiver","type":"address","indexed":true,"internalType":"address"},{"name":"owner","type":"address","indexed":true,"internalType":"address"},{"name":"assets","type":"uint256","indexed":false,"internalType":"uint256"},{"name":"shares","type":"uint256","indexed":false,"internalType":"uint256"}],"anonymous":false},{"type":"error","name":"AddressEmptyCode","inputs":[{"name":"target","type":"address","internalType":"address"}]},{"type":"error","name":"AlreadySet","inputs":[]},{"type":"error","name":"ECDSAInvalidSignature","inputs":[]},{"type":"error","name":"ECDSAInvalidSignatureLength","inputs":[{"name":"length","type":"uint256","internalType":"uint256"}]},{"type":"error","name":"ECDSAInvalidSignatureS","inputs":[{"name":"s","type":"bytes32","internalType":"bytes32"}]},{"type":"error","name":"ERC20InsufficientAllowance","inputs":[{"name":"spender","type":"address","internalType":"address"},{"name":"allowance","type":"uint256","internalType":"uint256"},{"name":"needed","type":"uint256","internalType":"uint256"}]},{"type":"error","name":"ERC20InsufficientBalance","inputs":[{"name":"sender","type":"address","internalType":"address"},{"name":"balance","type":"uint256","internalType":"uint256"},{"name":"needed","type":"uint256","internalType":"uint256"}]},{"type":"error","name":"ERC20InvalidApprover","inputs":[{"name":"approver","type":"address","internalType":"address"}]},{"type":"error","name":"ERC20InvalidReceiver","inputs":[{"name":"receiver","type":"address","internalType":"address"}]},{"type":"error","name":"ERC20InvalidSender","inputs":[{"name":"sender","type":"address","internalType":"address"}]},{"type":"error","name":"ERC20InvalidSpender","inputs":[{"name":"spender","type":"address","internalType":"address"}]},{"type":"error","name":"ERC2612ExpiredSignature","inputs":[{"name":"deadline","type":"uint256","internalType":"uint256"}]},{"type":"error","name":"ERC2612InvalidSigner","inputs":[{"name":"signer","type":"address","internalType":"address"},{"name":"owner","type":"address","internalType":"address"}]},{"type":"error","name":"ERC4626ExceededMaxDeposit","inputs":[{"name":"receiver","type":"address","internalType":"address"},{"name":"assets","type":"uint256","internalType":"uint256"},{"name":"max","type":"uint256","internalType":"uint256"}]},{"type":"error","name":"ERC4626ExceededMaxMint","inputs":[{"name":"receiver","type":"address","internalType":"address"},{"name":"shares","type":"uint256","internalType":"uint256"},{"name":"max","type":"uint256","internalType":"uint256"}]},{"type":"error","name":"ERC4626ExceededMaxRedeem","inputs":[{"name":"owner","type":"address","internalType":"address"},{"name":"shares","type":"uint256","internalType":"uint256"},{"name":"max","type":"uint256","internalType":"uint256"}]},{"type":"error","name":"ERC4626ExceededMaxWithdraw","inputs":[{"name":"owner","type":"address","internalType":"address"},{"name":"assets","type":"uint256","internalType":"uint256"},{"name":"max","type":"uint256","internalType":"uint256"}]},{"type":"error","name":"FailedCall","inputs":[]},{"type":"error","name":"InvalidAccountNonce","inputs":[{"name":"account","type":"address","internalType":"address"},{"name":"currentNonce","type":"uint256","internalType":"uint256"}]},{"type":"error","name":"InvalidShortString","inputs":[]},{"type":"error","name":"MaxFeeExceeded","inputs":[]},{"type":"error","name":"OwnableInvalidOwner","inputs":[{"name":"owner","type":"address","internalType":"address"}]},{"type":"error","name":"OwnableUnauthorizedAccount","inputs":[{"name":"account","type":"address","internalType":"address"}]},{"type":"error","name":"SafeERC20FailedOperation","inputs":[{"name":"token","type":"address","internalType":"address"}]},{"type":"error","name":"StringTooLong","inputs":[{"name":"str","type":"string","internalType":"string"}]},{"type":"error","name":"ZeroAddress","inputs":[]},{"type":"error","name":"ZeroFeeRecipient","inputs":[]}],"bytecode":{"object":"0x6101e060405234801562000011575f80fd5b50604051620033253803806200332583398101604081905262000034916200078b565b878580604051806040016040528060018152602001603160f81b8152508989898160039081620000659190620008fa565b506004620000748282620008fa565b5050505f806200008a836200036360201b60201c565b91509150816200009c5760126200009e565b805b60ff1660a05250506001600160a01b0316608052620000bf82600562000442565b61016052620000d081600662000442565b61018052815160208084019190912061012052815190820120610140524660e0526200015f6101205161014051604080517f8b73c3c69bb8fe3d512ecc4cf759cc79239f7b179b0ffacaa9a75d522b39400f60208201529081019290925260608201524660808201523060a08201525f9060c00160405160208183030381529060405280519060200120905090565b60c05250503061010052506001600160a01b0381166200019957604051631e4fbdf760e01b81525f60048201526024015b60405180910390fd5b620001a4816200047a565b506001600160a01b038716620001cd5760405163d92e233d60e01b815260040160405180910390fd5b6001600160a01b03831615620001f957600a80546001600160a01b0319166001600160a01b0385161790555b6001600160a01b038216156200022557600b80546001600160a01b0319166001600160a01b0384161790555b6706f05b59d3b20000816001600160601b03161115620002585760405163f4df6ae560e01b815260040160405180910390fd5b6001600160601b038116158015906200027857506001600160a01b038316155b1562000297576040516333fe7c6560e21b815260040160405180910390fd5b600980546001600160601b038316600160a01b026001600160a01b03918216179091558781166101a0526040805163313ce56760e01b81529051620003379289169163313ce5679160048083019260209291908290030181865afa15801562000302573d5f803e3d5ffd5b505050506040513d601f19601f82011682018060405250810190620003289190620009c2565b60129060ff1680821191030290565b60ff166101c052620003556001600160a01b038716885f1962000498565b505050505050505062000a78565b60408051600481526024810182526020810180516001600160e01b031663313ce56760e01b17905290515f918291829182916001600160a01b03871691620003ab91620009eb565b5f60405180830381855afa9150503d805f8114620003e5576040519150601f19603f3d011682016040523d82523d5f602084013e620003ea565b606091505b5091509150818015620003ff57506020815110155b1562000436575f818060200190518101906200041c919062000a08565b905060ff811162000434576001969095509350505050565b505b505f9485945092505050565b5f6020835110156200046157620004598362000563565b905062000474565b816200046e8482620008fa565b5060ff90505b92915050565b600980546001600160a01b03191690556200049581620005a5565b50565b604080516001600160a01b038416602482015260448082018490528251808303909101815260649091019091526020810180516001600160e01b0390811663095ea7b360e01b17909152620004f29085908390620005f616565b6200055d57604080516001600160a01b03851660248201525f6044808301919091528251808303909101815260649091019091526020810180516001600160e01b0390811663095ea7b360e01b17909152620005519186916200064216565b6200055d848262000642565b50505050565b5f80829050601f8151111562000590578260405163305a27a960e01b815260040162000190919062000a20565b80516200059d8262000a54565b179392505050565b600880546001600160a01b038381166001600160a01b0319831681179093556040519116919082907f8be0079c531659141344cd1fd0a4f28419497f9722a3daafe3b4186f6b6457e0905f90a35050565b5f805f8060205f8651602088015f8a5af192503d91505f51905082801562000638575081156200062a578060011462000638565b5f866001600160a01b03163b115b9695505050505050565b5f8060205f8451602086015f885af18062000662576040513d5f823e3d81fd5b50505f513d915081156200067b57806001141562000688565b6001600160a01b0384163b155b156200055d57604051635274afe760e01b81526001600160a01b038516600482015260240162000190565b80516001600160a01b0381168114620006ca575f80fd5b919050565b634e487b7160e01b5f52604160045260245ffd5b5f5b83811015620006ff578181015183820152602001620006e5565b50505f910152565b5f82601f83011262000717575f80fd5b81516001600160401b0380821115620007345762000734620006cf565b604051601f8301601f19908116603f011681019082821181831017156200075f576200075f620006cf565b8160405283815286602085880101111562000778575f80fd5b62000638846020830160208901620006e3565b5f805f805f805f80610100898b031215620007a4575f80fd5b620007af89620006b3565b9750620007bf60208a01620006b3565b9650620007cf60408a01620006b3565b60608a01519096506001600160401b0380821115620007ec575f80fd5b620007fa8c838d0162000707565b965060808b015191508082111562000810575f80fd5b506200081f8b828c0162000707565b9450506200083060a08a01620006b3565b92506200084060c08a01620006b3565b60e08a01519092506001600160601b03811681146200085d575f80fd5b809150509295985092959890939650565b600181811c908216806200088357607f821691505b602082108103620008a257634e487b7160e01b5f52602260045260245ffd5b50919050565b601f821115620008f5575f81815260208120601f850160051c81016020861015620008d05750805b601f850160051c820191505b81811015620008f157828155600101620008dc565b5050505b505050565b81516001600160401b03811115620009165762000916620006cf565b6200092e816200092784546200086e565b84620008a8565b602080601f83116001811462000964575f84156200094c5750858301515b5f19600386901b1c1916600185901b178555620008f1565b5f85815260208120601f198616915b82811015620009945788860151825594840194600190910190840162000973565b5085821015620009b257878501515f19600388901b60f8161c191681555b5050505050600190811b01905550565b5f60208284031215620009d3575f80fd5b815160ff81168114620009e4575f80fd5b9392505050565b5f8251620009fe818460208701620006e3565b9190910192915050565b5f6020828403121562000a19575f80fd5b5051919050565b602081525f825180602084015262000a40816040850160208701620006e3565b601f01601f19169190910160400192915050565b80516020808301519190811015620008a2575f1960209190910360031b1b16919050565b60805160a05160c05160e05161010051610120516101405161016051610180516101a0516101c0516127ed62000b385f395f81816104d001528181611181015281816113da015261155101525f81816103a201528181610670015281816113060152818161144601528181611651015261174d01525f61151701525f6114ea01525f61129f01525f61127701525f6111d201525f6111fc01525f61122601525f6111a201525f818161035201528181611ba00152611da801526127ed5ff3fe608060405234801561000f575f80fd5b5060043610610281575f3560e01c80638da5cb5b11610156578063c6e6f592116100ca578063e30c397811610084578063e30c3978146105fc578063e562dfd61461060d578063e74b981b14610620578063ef8b30f714610546578063f07cef3e14610633578063f2fde38b14610646575f80fd5b8063c6e6f59214610546578063ce96cb7714610559578063d505accf1461056c578063d905777e1461057f578063dd62ed3e14610592578063ddca3f43146105ca575f80fd5b8063aea70acc1161011b578063aea70acc146104cb578063b26cc394146104f2578063b3d7f6b9146104fa578063b460af941461050d578063ba08765214610520578063c63d75b614610533575f80fd5b80638da5cb5b1461046c57806394bf804d1461047d57806395d89b4114610490578063a9059cbb14610498578063ac9650d8146104ab575f80fd5b8063402d267d116101f85780636e553f65116101b25780636e553f65146103f357806370a0823114610406578063715018a61461042e57806379ba5097146104365780637ecebe001461043e57806384b0196e14610451575f80fd5b8063402d267d1461038a578063411557d11461039d57806346904840146103c45780634cdad506146102ca578063568efc07146103d757806369fe0e2d146103e0575f80fd5b80630a28a477116102495780630a28a4771461030057806318160ddd1461031357806323b872dd1461031b578063313ce5671461032e5780633644e5151461034857806338d52e0f14610350575f80fd5b806301e1d1141461028557806306ec16f8146102a057806306fdde03146102b557806307a2d13a146102ca578063095ea7b3146102dd575b5f80fd5b61028d610659565b6040519081526020015b60405180910390f35b6102b36102ae3660046121bd565b61074b565b005b6102bd61083d565b6040516102979190612223565b61028d6102d8366004612235565b6108cd565b6102f06102eb36600461224c565b6108de565b6040519015158152602001610297565b61028d61030e366004612235565b6108f5565b60025461028d565b6102f0610329366004612274565b610901565b610336610926565b60405160ff9091168152602001610297565b61028d61092f565b7f00000000000000000000000000000000000000000000000000000000000000005b6040516001600160a01b039091168152602001610297565b61028d6103983660046121bd565b610938565b6103727f000000000000000000000000000000000000000000000000000000000000000081565b600a54610372906001600160a01b031681565b61028d600c5481565b6102b36103ee366004612235565b610941565b61028d6104013660046122ad565b610a59565b61028d6104143660046121bd565b6001600160a01b03165f9081526020819052604090205490565b6102b3610a93565b6102b3610aa6565b61028d61044c3660046121bd565b610aef565b610459610b0c565b60405161029797969594939291906122d7565b6008546001600160a01b0316610372565b61028d61048b3660046122ad565b610b4e565b6102bd610b82565b6102f06104a636600461224c565b610b91565b6104be6104b936600461236b565b610b9e565b60405161029791906123da565b6103367f000000000000000000000000000000000000000000000000000000000000000081565b6102b3610c8f565b61028d610508366004612235565b610c9f565b61028d61051b36600461243a565b610cab565b61028d61052e36600461243a565b610cf2565b61028d6105413660046121bd565b610d30565b61028d610554366004612235565b610d46565b61028d6105673660046121bd565b610d51565b6102b361057a366004612473565b610d64565b61028d61058d3660046121bd565b610e9a565b61028d6105a03660046124e0565b6001600160a01b039182165f90815260016020908152604080832093909416825291909152205490565b6009546105e490600160a01b90046001600160601b031681565b6040516001600160601b039091168152602001610297565b6009546001600160a01b0316610372565b600b54610372906001600160a01b031681565b6102b361062e3660046121bd565b610ec2565b6102b36106413660046121bd565b610f13565b6102b36106543660046121bd565b610f64565b6040516370a0823160e01b81523060048201525f907f00000000000000000000000000000000000000000000000000000000000000006001600160a01b0316906307a2d13a9082906370a0823190602401602060405180830381865afa1580156106c5573d5f803e3d5ffd5b505050506040513d601f19601f820116820180604052508101906106e99190612508565b6040518263ffffffff1660e01b815260040161070791815260200190565b602060405180830381865afa158015610722573d5f803e3d5ffd5b505050506040513d601f19601f820116820180604052508101906107469190612508565b905090565b600b546001600160a01b03166107745760405163d92e233d60e01b815260040160405180910390fd5b6040516370a0823160e01b81523060048201525f906001600160a01b038316906370a0823190602401602060405180830381865afa1580156107b8573d5f803e3d5ffd5b505050506040513d601f19601f820116820180604052508101906107dc9190612508565b600b549091506107f9906001600160a01b03848116911683610fd5565b6040518181526001600160a01b0383169033907f1314fd112a381beea61539dbd21ec04afcff2662ac7d1b83273aade1f53d1b979060200160405180910390a35050565b60606003805461084c9061251f565b80601f01602080910402602001604051908101604052809291908181526020018280546108789061251f565b80156108c35780601f1061089a576101008083540402835291602001916108c3565b820191905f5260205f20905b8154815290600101906020018083116108a657829003601f168201915b5050505050905090565b5f6108d8825f611039565b92915050565b5f336108eb818585611067565b5060019392505050565b5f6108d8826001611074565b5f3361090e8582856110a2565b61091985858561111e565b60019150505b9392505050565b5f61074661117b565b5f6107466111c6565b5f6108d86112ef565b61094961133d565b600954600160a01b90046001600160601b0316810361097b5760405163a741a04560e01b815260040160405180910390fd5b6706f05b59d3b200008111156109a45760405163f4df6ae560e01b815260040160405180910390fd5b80158015906109bc5750600a546001600160a01b0316155b156109da576040516333fe7c6560e21b815260040160405180910390fd5b6109e2610c8f565b600980546001600160a01b0316600160a01b6001600160601b0384160217905533600954604051600160a01b9091046001600160601b031681526001600160a01b0391909116907f01fe2943baee27f47add82886c2200f910c749c461c9b63c5fe83901a53bdb499060200160405180910390a250565b5f80610a6361136a565b600c8190559050610a7e84610a7760025490565b835f6113d1565b9150610a8c3384868561141e565b5092915050565b610a9b61133d565b610aa45f6114ca565b565b60095433906001600160a01b03168114610ae35760405163118cdaa760e01b81526001600160a01b03821660048201526024015b60405180910390fd5b610aec816114ca565b50565b6001600160a01b0381165f908152600760205260408120546108d8565b5f6060805f805f6060610b1d6114e3565b610b25611510565b604080515f80825260208201909252600f60f81b9b939a50919850469750309650945092509050565b5f80610b5861136a565b600c8190559050610b7484610b6c60025490565b83600161153d565b9150610a8c3384848761141e565b60606004805461084c9061251f565b5f336108eb81858561111e565b604080515f8152602081019091526060908267ffffffffffffffff811115610bc857610bc8612557565b604051908082528060200260200182016040528015610bfb57816020015b6060815260200190600190039081610be65790505b5091505f5b83811015610c8757610c5730868684818110610c1e57610c1e612592565b9050602002810190610c3091906125a6565b85604051602001610c43939291906125f0565b604051602081830303815290604052611581565b838281518110610c6957610c69612592565b60200260200101819052508080610c7f90612615565b915050610c00565b505092915050565b610aa4610c9a61136a565b6115ea565b5f6108d8826001611039565b5f80610cb561136a565b9050610ccc85610cc460025490565b8360016113d1565b9150610cdd858203868311026115ea565b610cea338585888661162e565b509392505050565b5f80610cfc61136a565b9050610d1285610d0b60025490565b835f61153d565b9150610d23828203838311026115ea565b610cea338585858961162e565b5f80610d3a6112ef565b905061091f815f611074565b5f6108d8825f611074565b5f610d5b826116d8565b50909392505050565b83421115610d885760405163313c898160e11b815260048101859052602401610ada565b5f7f6e71edae12b1b97f4d1f60370fef10105fa2faae0126114a169c64845d6126c9888888610dd38c6001600160a01b03165f90815260076020526040902080546001810190915590565b6040805160208101969096526001600160a01b0394851690860152929091166060840152608083015260a082015260c0810186905260e0016040516020818303038152906040528051906020012090505f610e2d826117cb565b90505f610e3c828787876117f7565b9050896001600160a01b0316816001600160a01b031614610e83576040516325c0072360e11b81526001600160a01b0380831660048301528b166024820152604401610ada565b610e8e8a8a8a611067565b50505050505050505050565b5f805f80610ea7856116d8565b925092509250610eb98383835f6113d1565b95945050505050565b610eca61133d565b600a80546001600160a01b0319166001600160a01b0383169081179091556040517f2e979f80fe4d43055c584cf4a8467c55875ea36728fc37176c05acd784eb7a73905f90a250565b610f1b61133d565b600b80546001600160a01b0319166001600160a01b0383169081179091556040517fbf4da31489bf7d607626c05856478443f1ecd2ca7b005fe2f83a45fbd9fe1ee7905f90a250565b610f6c61133d565b600980546001600160a01b0383166001600160a01b03199091168117909155610f9d6008546001600160a01b031690565b6001600160a01b03167f38d16b8cac22d99fc7c124b9cd0de2d3fa1faef420bfe791d8c362d765e2270060405160405180910390a350565b6040516001600160a01b0383811660248301526044820183905261103491859182169063a9059cbb906064015b604051602081830303815290604052915060e01b6020820180516001600160e01b038381831617835250505050611823565b505050565b5f805f61104461188f565b91509150610eb9858361105660025490565b611060919061262d565b838761153d565b6110348383836001611929565b5f805f61107f61188f565b91509150610eb9858361109160025490565b61109b919061262d565b83876113d1565b6001600160a01b038381165f908152600160209081526040808320938616835292905220545f19811015611118578181101561110a57604051637dc7a0d960e11b81526001600160a01b03841660048201526024810182905260448101839052606401610ada565b61111884848484035f611929565b50505050565b6001600160a01b03831661114757604051634b637e8f60e11b81525f6004820152602401610ada565b6001600160a01b0382166111705760405163ec442f0560e01b81525f6004820152602401610ada565b6110348383836119fb565b5f6107467f00000000000000000000000000000000000000000000000000000000000000007f0000000000000000000000000000000000000000000000000000000000000000612640565b5f306001600160a01b037f00000000000000000000000000000000000000000000000000000000000000001614801561121e57507f000000000000000000000000000000000000000000000000000000000000000046145b1561124857507f000000000000000000000000000000000000000000000000000000000000000090565b610746604080517f8b73c3c69bb8fe3d512ecc4cf759cc79239f7b179b0ffacaa9a75d522b39400f60208201527f0000000000000000000000000000000000000000000000000000000000000000918101919091527f000000000000000000000000000000000000000000000000000000000000000060608201524660808201523060a08201525f9060c00160405160208183030381529060405280519060200120905090565b60405163402d267d60e01b81523060048201525f907f00000000000000000000000000000000000000000000000000000000000000006001600160a01b03169063402d267d90602401610707565b6008546001600160a01b03163314610aa45760405163118cdaa760e01b8152336004820152602401610ada565b5f8061137461188f565b92509050801561139457600a54611394906001600160a01b031682611b21565b60408051838152602081018390527ff66f28b40975dbb933913542c7e6a0f50a1d0f20aa74ea6e0efe65ab616323ec910160405180910390a15090565b5f610eb96114007f0000000000000000000000000000000000000000000000000000000000000000600a612739565b61140a908661262d565b61141585600161262d565b87919085611b59565b61142a84848484611b9b565b604051636e553f6560e01b8152600481018390523060248201527f00000000000000000000000000000000000000000000000000000000000000006001600160a01b031690636e553f65906044016020604051808303815f875af1158015611494573d5f803e3d5ffd5b505050506040513d601f19601f820116820180604052508101906114b89190612508565b5061111882600c54610c9a919061262d565b600980546001600160a01b0319169055610aec81611c1f565b60606107467f00000000000000000000000000000000000000000000000000000000000000006005611c70565b60606107467f00000000000000000000000000000000000000000000000000000000000000006006611c70565b5f610eb961154c84600161262d565b6115777f0000000000000000000000000000000000000000000000000000000000000000600a612739565b611415908761262d565b60605f80846001600160a01b03168460405161159d9190612747565b5f60405180830381855af49150503d805f81146115d5576040519150601f19603f3d011682016040523d82523d5f602084013e6115da565b606091505b5091509150610eb9858383611d19565b600c8190556040518181527f15c027cc4fd826d986cad358803439f7326d3aa4ed969ff90dbee4bc150f68e99060200160405180910390a150565b80821191030290565b604051632d182be560e21b815260048101839052306024820181905260448201527f00000000000000000000000000000000000000000000000000000000000000006001600160a01b03169063b460af94906064016020604051808303815f875af115801561169f573d5f803e3d5ffd5b505050506040513d601f19601f820116820180604052508101906116c39190612508565b506116d18585858585611d75565b5050505050565b5f805f806116e461188f565b92509050806116f260025490565b6116fc919061262d565b925061172761171f866001600160a01b03165f9081526020819052604090205490565b84845f61153d565b60405163ce96cb7760e01b81523060048201529094506117c19085906001600160a01b037f0000000000000000000000000000000000000000000000000000000000000000169063ce96cb7790602401602060405180830381865afa158015611792573d5f803e3d5ffd5b505050506040513d601f19601f820116820180604052508101906117b69190612508565b808218908211021890565b9350509193909250565b5f6108d86117d76111c6565b8360405161190160f01b8152600281019290925260228201526042902090565b5f805f8061180788888888611e35565b9250925092506118178282611efd565b50909695505050505050565b5f8060205f8451602086015f885af180611842576040513d5f823e3d81fd5b50505f513d91508115611859578060011415611866565b6001600160a01b0384163b155b1561111857604051635274afe760e01b81526001600160a01b0385166004820152602401610ada565b5f80611899610659565b90505f6118b1600c548361162590919063ffffffff16565b905080158015906118d35750600954600160a01b90046001600160601b031615155b15611924576009545f90611901908390600160a01b90046001600160601b0316670de0b6b3a7640000611fb5565b90506119208161191060025490565b61191a848761257f565b5f6113d1565b9350505b509091565b6001600160a01b0384166119525760405163e602df0560e01b81525f6004820152602401610ada565b6001600160a01b03831661197b57604051634a1406b160e11b81525f6004820152602401610ada565b6001600160a01b038085165f908152600160209081526040808320938716835292905220829055801561111857826001600160a01b0316846001600160a01b03167f8c5be1e5ebec7d5bd14f71427d1e84f3dd0314c0f7b2291e5b200ac8c7c3b925846040516119ed91815260200190565b60405180910390a350505050565b6001600160a01b038316611a25578060025f828254611a1a919061262d565b90915550611a959050565b6001600160a01b0383165f9081526020819052604090205481811015611a775760405163391434e360e21b81526001600160a01b03851660048201526024810182905260448101839052606401610ada565b6001600160a01b0384165f9081526020819052604090209082900390555b6001600160a01b038216611ab157600280548290039055611acf565b6001600160a01b0382165f9081526020819052604090208054820190555b816001600160a01b0316836001600160a01b03167fddf252ad1be2c89b69c2b068fc378daa952ba7f163c4a11628f55a4df523b3ef83604051611b1491815260200190565b60405180910390a3505050565b6001600160a01b038216611b4a5760405163ec442f0560e01b81525f6004820152602401610ada565b611b555f83836119fb565b5050565b5f611b86611b668361206b565b8015611b8157505f8480611b7c57611b7c612762565b868809115b151590565b611b91868686611fb5565b610eb9919061262d565b611bc77f0000000000000000000000000000000000000000000000000000000000000000853085612097565b611bd18382611b21565b826001600160a01b0316846001600160a01b03167fdcbc1c05240f31ff3ad067ef1ee35ce4997762752e3a095284754544f4c709d784846040516119ed929190918252602082015260400190565b600880546001600160a01b038381166001600160a01b0319831681179093556040519116919082907f8be0079c531659141344cd1fd0a4f28419497f9722a3daafe3b4186f6b6457e0905f90a35050565b606060ff8314611c8a57611c83836120d0565b90506108d8565b818054611c969061251f565b80601f0160208091040260200160405190810160405280929190818152602001828054611cc29061251f565b8015611d0d5780601f10611ce457610100808354040283529160200191611d0d565b820191905f5260205f20905b815481529060010190602001808311611cf057829003601f168201915b505050505090506108d8565b606082611d2e57611d298261210d565b61091f565b8151158015611d4557506001600160a01b0384163b155b15611d6e57604051639996b31560e01b81526001600160a01b0385166004820152602401610ada565b508061091f565b826001600160a01b0316856001600160a01b031614611d9957611d998386836110a2565b611da38382612136565b611dce7f00000000000000000000000000000000000000000000000000000000000000008584610fd5565b826001600160a01b0316846001600160a01b0316866001600160a01b03167ffbde797d201c681b91056529119e0b02407c7bb96a4a2c75c01fc9667232c8db8585604051611e26929190918252602082015260400190565b60405180910390a45050505050565b5f80807f7fffffffffffffffffffffffffffffff5d576e7357a4501ddfe92f46681b20a0841115611e6e57505f91506003905082611ef3565b604080515f808252602082018084528a905260ff891692820192909252606081018790526080810186905260019060a0016020604051602081039080840390855afa158015611ebf573d5f803e3d5ffd5b5050604051601f1901519150506001600160a01b038116611eea57505f925060019150829050611ef3565b92505f91508190505b9450945094915050565b5f826003811115611f1057611f10612776565b03611f19575050565b6001826003811115611f2d57611f2d612776565b03611f4b5760405163f645eedf60e01b815260040160405180910390fd5b6002826003811115611f5f57611f5f612776565b03611f805760405163fce698f760e01b815260048101829052602401610ada565b6003826003811115611f9457611f94612776565b03611b55576040516335e2f38360e21b815260048101829052602401610ada565b5f838302815f1985870982811083820303915050805f03611fe957838281611fdf57611fdf612762565b049250505061091f565b80841161200057612000600385150260111861216a565b5f848688095f868103871696879004966002600389028118808a02820302808a02820302808a02820302808a02820302808a02820302808a02909103029181900381900460010186841190950394909402919094039290920491909117919091029150509392505050565b5f600282600381111561208057612080612776565b61208a919061278a565b60ff166001149050919050565b6040516001600160a01b0384811660248301528381166044830152606482018390526111189186918216906323b872dd90608401611002565b60605f6120dc8361217b565b6040805160208082528183019092529192505f91906020820181803683375050509182525060208101929092525090565b80511561211d5780518082602001fd5b60405163d6bda27560e01b815260040160405180910390fd5b6001600160a01b03821661215f57604051634b637e8f60e11b81525f6004820152602401610ada565b611b55825f836119fb565b634e487b715f52806020526024601cfd5b5f60ff8216601f8111156108d857604051632cd44ac360e21b815260040160405180910390fd5b80356001600160a01b03811681146121b8575f80fd5b919050565b5f602082840312156121cd575f80fd5b61091f826121a2565b5f5b838110156121f05781810151838201526020016121d8565b50505f910152565b5f815180845261220f8160208601602086016121d6565b601f01601f19169290920160200192915050565b602081525f61091f60208301846121f8565b5f60208284031215612245575f80fd5b5035919050565b5f806040838503121561225d575f80fd5b612266836121a2565b946020939093013593505050565b5f805f60608486031215612286575f80fd5b61228f846121a2565b925061229d602085016121a2565b9150604084013590509250925092565b5f80604083850312156122be575f80fd5b823591506122ce602084016121a2565b90509250929050565b60ff60f81b881681525f602060e0818401526122f660e084018a6121f8565b8381036040850152612308818a6121f8565b606085018990526001600160a01b038816608086015260a0850187905284810360c086015285518082528387019250908301905f5b818110156123595783518352928401929184019160010161233d565b50909c9b505050505050505050505050565b5f806020838503121561237c575f80fd5b823567ffffffffffffffff80821115612393575f80fd5b818501915085601f8301126123a6575f80fd5b8135818111156123b4575f80fd5b8660208260051b85010111156123c8575f80fd5b60209290920196919550909350505050565b5f602080830181845280855180835260408601915060408160051b87010192508387015f5b8281101561242d57603f1988860301845261241b8583516121f8565b945092850192908501906001016123ff565b5092979650505050505050565b5f805f6060848603121561244c575f80fd5b8335925061245c602085016121a2565b915061246a604085016121a2565b90509250925092565b5f805f805f805f60e0888a031215612489575f80fd5b612492886121a2565b96506124a0602089016121a2565b95506040880135945060608801359350608088013560ff811681146124c3575f80fd5b9699959850939692959460a0840135945060c09093013592915050565b5f80604083850312156124f1575f80fd5b6124fa836121a2565b91506122ce602084016121a2565b5f60208284031215612518575f80fd5b5051919050565b600181811c9082168061253357607f821691505b60208210810361255157634e487b7160e01b5f52602260045260245ffd5b50919050565b634e487b7160e01b5f52604160045260245ffd5b634e487b7160e01b5f52601160045260245ffd5b818103818111156108d8576108d861256b565b634e487b7160e01b5f52603260045260245ffd5b5f808335601e198436030181126125bb575f80fd5b83018035915067ffffffffffffffff8211156125d5575f80fd5b6020019150368190038213156125e9575f80fd5b9250929050565b828482375f8382015f8152835161260b8183602088016121d6565b0195945050505050565b5f600182016126265761262661256b565b5060010190565b808201808211156108d8576108d861256b565b60ff81811683821601908111156108d8576108d861256b565b600181815b8085111561269357815f19048211156126795761267961256b565b8085161561268657918102915b93841c939080029061265e565b509250929050565b5f826126a9575060016108d8565b816126b557505f6108d8565b81600181146126cb57600281146126d5576126f1565b60019150506108d8565b60ff8411156126e6576126e661256b565b50506001821b6108d8565b5060208310610133831016604e8410600b8410161715612714575081810a6108d8565b61271e8383612659565b805f19048211156127315761273161256b565b029392505050565b5f61091f60ff84168361269b565b5f82516127588184602087016121d6565b9190910192915050565b634e487b7160e01b5f52601260045260245ffd5b634e487b7160e01b5f52602160045260245ffd5b5f60ff8316806127a857634e487b7160e01b5f52601260045260245ffd5b8060ff8416069150509291505056fea2646970667358221220ddca081c9170e1da1e1ae31bad6995a924d486980aeb15ee460d45ff35b25ffd64736f6c63430008150033","linkReferences":{}},"methodIdentifiers":{"DECIMALS_OFFSET()":"aea70acc","DOMAIN_SEPARATOR()":"3644e515","VAULT()":"411557d1","acceptOwnership()":"79ba5097","accrueFee()":"b26cc394","allowance(address,address)":"dd62ed3e","approve(address,uint256)":"095ea7b3","asset()":"38d52e0f","balanceOf(address)":"70a08231","collect(address)":"06ec16f8","collections()":"e562dfd6","convertToAssets(uint256)":"07a2d13a","convertToShares(uint256)":"c6e6f592","decimals()":"313ce567","deposit(uint256,address)":"6e553f65","eip712Domain()":"84b0196e","fee()":"ddca3f43","feeRecipient()":"46904840","lastTotalAssets()":"568efc07","maxDeposit(address)":"402d267d","maxMint(address)":"c63d75b6","maxRedeem(address)":"d905777e","maxWithdraw(address)":"ce96cb77","mint(uint256,address)":"94bf804d","multicall(bytes[])":"ac9650d8","name()":"06fdde03","nonces(address)":"7ecebe00","owner()":"8da5cb5b","pendingOwner()":"e30c3978","permit(address,address,uint256,uint256,uint8,bytes32,bytes32)":"d505accf","previewDeposit(uint256)":"ef8b30f7","previewMint(uint256)":"b3d7f6b9","previewRedeem(uint256)":"4cdad506","previewWithdraw(uint256)":"0a28a477","redeem(uint256,address,address)":"ba087652","renounceOwnership()":"715018a6","setCollections(address)":"f07cef3e","setFee(uint256)":"69fe0e2d","setFeeRecipient(address)":"e74b981b","symbol()":"95d89b41","totalAssets()":"01e1d114","totalSupply()":"18160ddd","transfer(address,uint256)":"a9059cbb","transferFrom(address,address,uint256)":"23b872dd","transferOwnership(address)":"f2fde38b","withdraw(uint256,address,address)":"b460af94"},"id":99}