{"abi":[{"type":"constructor","inputs":[{"name":"owner","type":"address","internalType":"address"},{"name":"vault","type":"address","internalType":"address"},{"name":"asset","type":"address","internalType":"address"},{"name":"_name","type":"string","internalType":"string"},{"name":"_symbol","type":"string","internalType":"string"},{"name":"_feeRecipient","type":"address","internalType":"address"},{"name":"_collections","type":"address","internalType":"address"},{"name":"_fee","type":"uint96","internalType":"uint96"}],"stateMutability":"nonpayable"},{"type":"function","name":"DECIMALS_OFFSET","inputs":[],"outputs":[{"name":"","type":"uint8","internalType":"uint8"}],"stateMutability":"view"},{"type":"function","name":"DOMAIN_SEPARATOR","inputs":[],"outputs":[{"name":"","type":"bytes32","internalType":"bytes32"}],"stateMutability":"view"},{"type":"function","name":"VAULT","inputs":[],"outputs":[{"name":"","type":"address","internalType":"contract IERC4626"}],"stateMutability":"view"},{"type":"function","name":"acceptOwnership","inputs":[],"outputs":[],"stateMutability":"nonpayable"},{"type":"function","name":"accrueFee","inputs":[],"outputs":[],"stateMutability":"nonpayable"},{"type":"function","name":"allowance","inputs":[{"name":"owner","type":"address","internalType":"address"},{"name":"spender","type":"address","internalType":"address"}],"outputs":[{"name":"","type":"uint256","internalType":"uint256"}],"stateMutability":"view"},{"type":"function","name":"approve","inputs":[{"name":"spender","type":"address","internalType":"address"},{"name":"value","type":"uint256","internalType":"uint256"}],"outputs":[{"name":"","type":"bool","internalType":"bool"}],"stateMutability":"nonpayable"},{"type":"function","name":"asset","inputs":[],"outputs":[{"name":"","type":"address","internalType":"address"}],"stateMutability":"view"},{"type":"function","name":"balanceOf","inputs":[{"name":"account","type":"address","internalType":"address"}],"outputs":[{"name":"","type":"uint256","internalType":"uint256"}],"stateMutability":"view"},{"type":"function","name":"collect","inputs":[{"name":"token","type":"address","internalType":"address"}],"outputs":[],"stateMutability":"nonpayable"},{"type":"function","name":"collections","inputs":[],"outputs":[{"name":"","type":"address","internalType":"address"}],"stateMutability":"view"},{"type":"function","name":"convertToAssets","inputs":[{"name":"shares","type":"uint256","internalType":"uint256"}],"outputs":[{"name":"","type":"uint256","internalType":"uint256"}],"stateMutability":"view"},{"type":"function","name":"convertToShares","inputs":[{"name":"assets","type":"uint256","internalType":"uint256"}],"outputs":[{"name":"","type":"uint256","internalType":"uint256"}],"stateMutability":"view"},{"type":"function","name":"decimals","inputs":[],"outputs":[{"name":"","type":"uint8","internalType":"uint8"}],"stateMutability":"view"},{"type":"function","name":"deposit","inputs":[{"name":"assets","type":"uint256","internalType":"uint256"},{"name":"receiver","type":"address","internalType":"address"}],"outputs":[{"name":"shares","type":"uint256","internalType":"uint256"}],"stateMutability":"nonpayable"},{"type":"function","name":"eip712Domain","inputs":[],"outputs":[{"name":"fields","type":"bytes1","internalType":"bytes1"},{"name":"name","type":"string","internalType":"string"},{"name":"version","type":"string","internalType":"string"},{"name":"chainId","type":"uint256","internalType":"uint256"},{"name":"verifyingContract","type":"address","internalType":"address"},{"name":"salt","type":"bytes32","internalType":"bytes32"},{"name":"extensions","type":"uint256[]","internalType":"uint256[]"}],"stateMutability":"view"},{"type":"function","name":"fee","inputs":[],"outputs":[{"name":"","type":"uint96","internalType":"uint96"}],"stateMutability":"view"},{"type":"function","name":"feeRecipient","inputs":[],"outputs":[{"name":"","type":"address","internalType":"address"}],"stateMutability":"view"},{"type":"function","name":"lastTotalAssets","inputs":[],"outputs":[{"name":"","type":"uint256","internalType":"uint256"}],"stateMutability":"view"},{"type":"function","name":"maxDeposit","inputs":[{"name":"","type":"address","internalType":"address"}],"outputs":[{"name":"","type":"uint256","internalType":"uint256"}],"stateMutability":"view"},{"type":"function","name":"maxMint","inputs":[{"name":"","type":"address","internalType":"address"}],"outputs":[{"name":"","type":"uint256","internalType":"uint256"}],"stateMutability":"view"},{"type":"function","name":"maxRedeem","inputs":[{"name":"owner","type":"address","internalType":"address"}],"outputs":[{"name":"","type":"uint256","internalType":"uint256"}],"stateMutability":"view"},{"type":"function","name":"maxWithdraw","inputs":[{"name":"owner","type":"address","internalType":"address"}],"outputs":[{"name":"assets","type":"uint256","internalType":"uint256"}],"stateMutability":"view"},{"type":"function","name":"mint","inputs":[{"name":"shares","type":"uint256","internalType":"uint256"},{"name":"receiver","type":"address","internalType":"address"}],"outputs":[{"name":"assets","type":"uint256","internalType":"uint256"}],"stateMutability":"nonpayable"},{"type":"function","name":"multicall","inputs":[{"name":"data","type":"bytes[]","internalType":"bytes[]"}],"outputs":[{"name":"results","type":"bytes[]","internalType":"bytes[]"}],"stateMutability":"nonpayable"},{"type":"function","name":"name","inputs":[],"outputs":[{"name":"","type":"string","internalType":"string"}],"stateMutability":"view"},{"type":"function","name":"nonces","inputs":[{"name":"owner","type":"address","internalType":"address"}],"outputs":[{"name":"","type":"uint256","internalType":"uint256"}],"stateMutability":"view"},{"type":"function","name":"owner","inputs":[],"outputs":[{"name":"","type":"address","internalType":"address"}],"stateMutability":"view"},{"type":"function","name":"pendingOwner","inputs":[],"outputs":[{"name":"","type":"address","internalType":"address"}],"stateMutability":"view"},{"type":"function","name":"permit","inputs":[{"name":"owner","type":"address","internalType":"address"},{"name":"spender","type":"address","internalType":"address"},{"name":"value","type":"uint256","internalType":"uint256"},{"name":"deadline","type":"uint256","internalType":"uint256"},{"name":"v","type":"uint8","internalType":"uint8"},{"name":"r","type":"bytes32","internalType":"bytes32"},{"name":"s","type":"bytes32","internalType":"bytes32"}],"outputs":[],"stateMutability":"nonpayable"},{"type":"function","name":"previewDeposit","inputs":[{"name":"assets","type":"uint256","internalType":"uint256"}],"outputs":[{"name":"","type":"uint256","internalType":"uint256"}],"stateMutability":"view"},{"type":"function","name":"previewMint","inputs":[{"name":"shares","type":"uint256","internalType":"uint256"}],"outputs":[{"name":"","type":"uint256","internalType":"uint256"}],"stateMutability":"view"},{"type":"function","name":"previewRedeem","inputs":[{"name":"shares","type":"uint256","internalType":"uint256"}],"outputs":[{"name":"","type":"uint256","internalType":"uint256"}],"stateMutability":"view"},{"type":"function","name":"previewWithdraw","inputs":[{"name":"assets","type":"uint256","internalType":"uint256"}],"outputs":[{"name":"","type":"uint256","internalType":"uint256"}],"stateMutability":"view"},{"type":"function","name":"redeem","inputs":[{"name":"shares","type":"uint256","internalType":"uint256"},{"name":"receiver","type":"address","internalType":"address"},{"name":"owner","type":"address","internalType":"address"}],"outputs":[{"name":"assets","type":"uint256","internalType":"uint256"}],"stateMutability":"nonpayable"},{"type":"function","name":"renounceOwnership","inputs":[],"outputs":[],"stateMutability":"nonpayable"},{"type":"function","name":"setCollections","inputs":[{"name":"newCollections","type":"address","internalType":"address"}],"outputs":[],"stateMutability":"nonpayable"},{"type":"function","name":"setFee","inputs":[{"name":"newFee","type":"uint256","internalType":"uint256"}],"outputs":[],"stateMutability":"nonpayable"},{"type":"function","name":"setFeeRecipient","inputs":[{"name":"newFeeRecipient","type":"address","internalType":"address"}],"outputs":[],"stateMutability":"nonpayable"},{"type":"function","name":"symbol","inputs":[],"outputs":[{"name":"","type":"string","internalType":"string"}],"stateMutability":"view"},{"type":"function","name":"totalAssets","inputs":[],"outputs":[{"name":"assets","type":"uint256","internalType":"uint256"}],"stateMutability":"view"},{"type":"function","name":"totalSupply","inputs":[],"outputs":[{"name":"","type":"uint256","internalType":"uint256"}],"stateMutability":"view"},{"type":"function","name":"transfer","inputs":[{"name":"to","type":"address","internalType":"address"},{"name":"value","type":"uint256","internalType":"uint256"}],"outputs":[{"name":"","type":"bool","internalType":"bool"}],"stateMutability":"nonpayable"},{"type":"function","name":"transferFrom","inputs":[{"name":"from","type":"address","internalType":"address"},{"name":"to","type":"address","internalType":"address"},{"name":"value","type":"uint256","internalType":"uint256"}],"outputs":[{"name":"","type":"bool","internalType":"bool"}],"stateMutability":"nonpayable"},{"type":"function","name":"transferOwnership","inputs":[{"name":"newOwner","type":"address","internalType":"address"}],"outputs":[],"stateMutability":"nonpayable"},{"type":"function","name":"withdraw","inputs":[{"name":"assets","type":"uint256","internalType":"uint256"},{"name":"receiver","type":"address","internalType":"address"},{"name":"owner","type":"address","internalType":"address"}],"outputs":[{"name":"shares","type":"uint256","internalType":"uint256"}],"stateMutability":"nonpayable"},{"type":"event","name":"AccrueInterest","inputs":[{"name":"newTotalAssets","type":"uint256","indexed":false,"internalType":"uint256"},{"name":"feeShares","type":"uint256","indexed":false,"internalType":"uint256"}],"anonymous":false},{"type":"event","name":"Approval","inputs":[{"name":"owner","type":"address","indexed":true,"internalType":"address"},{"name":"spender","type":"address","indexed":true,"internalType":"address"},{"name":"value","type":"uint256","indexed":false,"internalType":"uint256"}],"anonymous":false},{"type":"event","name":"Collect","inputs":[{"name":"caller","type":"address","indexed":true,"internalType":"address"},{"name":"token","type":"address","indexed":true,"internalType":"address"},{"name":"amount","type":"uint256","indexed":false,"internalType":"uint256"}],"anonymous":false},{"type":"event","name":"Deposit","inputs":[{"name":"sender","type":"address","indexed":true,"internalType":"address"},{"name":"owner","type":"address","indexed":true,"internalType":"address"},{"name":"assets","type":"uint256","indexed":false,"internalType":"uint256"},{"name":"shares","type":"uint256","indexed":false,"internalType":"uint256"}],"anonymous":false},{"type":"event","name":"EIP712DomainChanged","inputs":[],"anonymous":false},{"type":"event","name":"OwnershipTransferStarted","inputs":[{"name":"previousOwner","type":"address","indexed":true,"internalType":"address"},{"name":"newOwner","type":"address","indexed":true,"internalType":"address"}],"anonymous":false},{"type":"event","name":"OwnershipTransferred","inputs":[{"name":"previousOwner","type":"address","indexed":true,"internalType":"address"},{"name":"newOwner","type":"address","indexed":true,"internalType":"address"}],"anonymous":false},{"type":"event","name":"SetCollections","inputs":[{"name":"newCollections","type":"address","indexed":true,"internalType":"address"}],"anonymous":false},{"type":"event","name":"SetFee","inputs":[{"name":"caller","type":"address","indexed":true,"internalType":"address"},{"name":"newFee","type":"uint256","indexed":false,"internalType":"uint256"}],"anonymous":false},{"type":"event","name":"SetFeeRecipient","inputs":[{"name":"newFeeRecipient","type":"address","indexed":true,"internalType":"address"}],"anonymous":false},{"type":"event","name":"Transfer","inputs":[{"name":"from","type":"address","indexed":true,"internalType":"address"},{"name":"to","type":"address","indexed":true,"internalType":"address"},{"name":"value","type":"uint256","indexed":false,"internalType":"uint256"}],"anonymous":false},{"type":"event","name":"UpdateLastTotalAssets","inputs":[{"name":"updatedTotalAssets","type":"uint256","indexed":false,"internalType":"uint256"}],"anonymous":false},{"type":"event","name":"Withdraw","inputs":[{"name":"sender","type":"address","indexed":true,"internalType":"address"},{"name":"receiver","type":"address","indexed":true,"internalType":"address"},{"name":"owner","type":"address","indexed":true,"internalType":"address"},{"name":"assets","type":"uint256","indexed":false,"internalType":"uint256"},{"name":"shares","type":"uint256","indexed":false,"internalType":"uint256"}],"anonymous":false},{"type":"error","name":"AddressEmptyCode","inputs":[{"name":"target","type":"address","internalType":"address"}]},{"type":"error","name":"AlreadySet","inputs":[]},{"type":"error","name":"ECDSAInvalidSignature","inputs":[]},{"type":"error","name":"ECDSAInvalidSignatureLength","inputs":[{"name":"length","type":"uint256","internalType":"uint256"}]},{"type":"error","name":"ECDSAInvalidSignatureS","inputs":[{"name":"s","type":"bytes32","internalType":"bytes32"}]},{"type":"error","name":"ERC20InsufficientAllowance","inputs":[{"name":"spender","type":"address","internalType":"address"},{"name":"allowance","type":"uint256","internalType":"uint256"},{"name":"needed","type":"uint256","internalType":"uint256"}]},{"type":"error","name":"ERC20InsufficientBalance","inputs":[{"name":"sender","type":"address","internalType":"address"},{"name":"balance","type":"uint256","internalType":"uint256"},{"name":"needed","type":"uint256","internalType":"uint256"}]},{"type":"error","name":"ERC20InvalidApprover","inputs":[{"name":"approver","type":"address","internalType":"address"}]},{"type":"error","name":"ERC20InvalidReceiver","inputs":[{"name":"receiver","type":"address","internalType":"address"}]},{"type":"error","name":"ERC20InvalidSender","inputs":[{"name":"sender","type":"address","internalType":"address"}]},{"type":"error","name":"ERC20InvalidSpender","inputs":[{"name":"spender","type":"address","internalType":"address"}]},{"type":"error","name":"ERC2612ExpiredSignature","inputs":[{"name":"deadline","type":"uint256","internalType":"uint256"}]},{"type":"error","name":"ERC2612InvalidSigner","inputs":[{"name":"signer","type":"address","internalType":"address"},{"name":"owner","type":"address","internalType":"address"}]},{"type":"error","name":"ERC4626ExceededMaxDeposit","inputs":[{"name":"receiver","type":"address","internalType":"address"},{"name":"assets","type":"uint256","internalType":"uint256"},{"name":"max","type":"uint256","internalType":"uint256"}]},{"type":"error","name":"ERC4626ExceededMaxMint","inputs":[{"name":"receiver","type":"address","internalType":"address"},{"name":"shares","type":"uint256","internalType":"uint256"},{"name":"max","type":"uint256","internalType":"uint256"}]},{"type":"error","name":"ERC4626ExceededMaxRedeem","inputs":[{"name":"owner","type":"address","internalType":"address"},{"name":"shares","type":"uint256","internalType":"uint256"},{"name":"max","type":"uint256","internalType":"uint256"}]},{"type":"error","name":"ERC4626ExceededMaxWithdraw","inputs":[{"name":"owner","type":"address","internalType":"address"},{"name":"assets","type":"uint256","internalType":"uint256"},{"name":"max","type":"uint256","internalType":"uint256"}]},{"type":"error","name":"FailedCall","inputs":[]},{"type":"error","name":"InvalidAccountNonce","inputs":[{"name":"account","type":"address","internalType":"address"},{"name":"currentNonce","type":"uint256","internalType":"uint256"}]},{"type":"error","name":"InvalidShortString","inputs":[]},{"type":"error","name":"MaxFeeExceeded","inputs":[]},{"type":"error","name":"OwnableInvalidOwner","inputs":[{"name":"owner","type":"address","internalType":"address"}]},{"type":"error","name":"OwnableUnauthorizedAccount","inputs":[{"name":"account","type":"address","internalType":"address"}]},{"type":"error","name":"SafeERC20FailedOperation","inputs":[{"name":"token","type":"address","internalType":"address"}]},{"type":"error","name":"StringTooLong","inputs":[{"name":"str","type":"string","internalType":"string"}]},{"type":"error","name":"ZeroAddress","inputs":[]},{"type":"error","name":"ZeroFeeRecipient","inputs":[]}],"bytecode":{"object":"0x6101e060405234801562000011575f80fd5b5060405162005b5538038062005b55833981810160405281019062000037919062000d4c565b8785806040518060400160405280600181526020017f3100000000000000000000000000000000000000000000000000000000000000815250898989816003908162000084919062001085565b50806004908162000096919062001085565b5050505f80620000ac83620005b660201b60201c565b9150915081620000be576012620000c0565b805b60ff1660a08160ff16815250508273ffffffffffffffffffffffffffffffffffffffff1660808173ffffffffffffffffffffffffffffffffffffffff16815250505050506200011a600583620006c960201b90919060201c565b610160818152505062000138600682620006c960201b90919060201c565b610180818152505081805190602001206101208181525050808051906020012061014081815250504660e08181525050620001786200071e60201b60201c565b60c081815250503073ffffffffffffffffffffffffffffffffffffffff166101008173ffffffffffffffffffffffffffffffffffffffff16815250505050505f73ffffffffffffffffffffffffffffffffffffffff168173ffffffffffffffffffffffffffffffffffffffff16036200022a575f6040517f1e4fbdf70000000000000000000000000000000000000000000000000000000081526004016200022191906200117a565b60405180910390fd5b6200023b816200077b60201b60201c565b505f73ffffffffffffffffffffffffffffffffffffffff168773ffffffffffffffffffffffffffffffffffffffff1603620002a2576040517fd92e233d00000000000000000000000000000000000000000000000000000000815260040160405180910390fd5b5f73ffffffffffffffffffffffffffffffffffffffff168373ffffffffffffffffffffffffffffffffffffffff1614620003175782600a5f6101000a81548173ffffffffffffffffffffffffffffffffffffffff021916908373ffffffffffffffffffffffffffffffffffffffff1602179055505b5f73ffffffffffffffffffffffffffffffffffffffff168273ffffffffffffffffffffffffffffffffffffffff16146200038c5781600b5f6101000a81548173ffffffffffffffffffffffffffffffffffffffff021916908373ffffffffffffffffffffffffffffffffffffffff1602179055505b6706f05b59d3b20000816bffffffffffffffffffffffff161115620003dd576040517ff4df6ae500000000000000000000000000000000000000000000000000000000815260040160405180910390fd5b5f816bffffffffffffffffffffffff16141580156200042757505f73ffffffffffffffffffffffffffffffffffffffff168373ffffffffffffffffffffffffffffffffffffffff16145b156200045f576040517fcff9f19400000000000000000000000000000000000000000000000000000000815260040160405180910390fd5b80600960146101000a8154816bffffffffffffffffffffffff02191690836bffffffffffffffffffffffff1602179055508673ffffffffffffffffffffffffffffffffffffffff166101a08173ffffffffffffffffffffffffffffffffffffffff16815250506200054d8673ffffffffffffffffffffffffffffffffffffffff1663313ce5676040518163ffffffff1660e01b8152600401602060405180830381865afa15801562000513573d5f803e3d5ffd5b505050506040513d601f19601f82011682018060405250810190620005399190620011d0565b60ff166012620007b360201b90919060201c565b60ff166101c08160ff1681525050620005a8877fffffffffffffffffffffffffffffffffffffffffffffffffffffffffffffffff8873ffffffffffffffffffffffffffffffffffffffff16620007c360201b9092919060201c565b5050505050505050620014e4565b5f805f808473ffffffffffffffffffffffffffffffffffffffff1660405160240160405160208183030381529060405263313ce56760e01b6020820180517bffffffffffffffffffffffffffffffffffffffffffffffffffffffff83818316178352505050506040516200062b91906200124a565b5f60405180830381855afa9150503d805f811462000665576040519150601f19603f3d011682016040523d82523d5f602084013e6200066a565b606091505b50915091508180156200067f57506020815110155b15620006bb575f818060200190518101906200069c919062001291565b905060ff80168111620006b95760018194509450505050620006c4565b505b5f809350935050505b915091565b5f602083511015620006ee57620006e683620008ed60201b60201c565b905062000718565b8262000700836200095760201b60201c565b5f01908162000710919062001085565b5060ff5f1b90505b92915050565b5f7f8b73c3c69bb8fe3d512ecc4cf759cc79239f7b179b0ffacaa9a75d522b39400f6101205161014051463060405160200162000760959493929190620012ec565b60405160208183030381529060405280519060200120905090565b60095f6101000a81549073ffffffffffffffffffffffffffffffffffffffff0219169055620007b0816200096060201b60201c565b50565b5f81830382841102905092915050565b5f8373ffffffffffffffffffffffffffffffffffffffff1663095ea7b38484604051602401620007f592919062001347565b604051602081830303815290604052915060e01b6020820180517bffffffffffffffffffffffffffffffffffffffffffffffffffffffff838183161783525050505090506200084b848262000a2360201b60201c565b620008e757620008d4848573ffffffffffffffffffffffffffffffffffffffff1663095ea7b3865f60405160240162000886929190620013b3565b604051602081830303815290604052915060e01b6020820180517bffffffffffffffffffffffffffffffffffffffffffffffffffffffff838183161783525050505062000a7f60201b60201c565b620008e6848262000a7f60201b60201c565b5b50505050565b5f80829050601f815111156200093c57826040517f305a27a90000000000000000000000000000000000000000000000000000000081526004016200093391906200142e565b60405180910390fd5b8051816200094a9062001475565b5f1c175f1b915050919050565b5f819050919050565b5f60085f9054906101000a900473ffffffffffffffffffffffffffffffffffffffff1690508160085f6101000a81548173ffffffffffffffffffffffffffffffffffffffff021916908373ffffffffffffffffffffffffffffffffffffffff1602179055508173ffffffffffffffffffffffffffffffffffffffff168173ffffffffffffffffffffffffffffffffffffffff167f8be0079c531659141344cd1fd0a4f28419497f9722a3daafe3b4186f6b6457e060405160405180910390a35050565b5f805f8060205f8651602088015f8a5af192503d91505f51905082801562000a7457505f821462000a58576001811462000a73565b5f8673ffffffffffffffffffffffffffffffffffffffff163b115b5b935050505092915050565b5f8060205f8451602086015f885af18062000a9f576040513d5f823e3d81fd5b3d92505f519150505f821462000aba57600181141562000ad5565b5f8473ffffffffffffffffffffffffffffffffffffffff163b145b1562000b1a57836040517f5274afe700000000000000000000000000000000000000000000000000000000815260040162000b1191906200117a565b60405180910390fd5b50505050565b5f604051905090565b5f80fd5b5f80fd5b5f73ffffffffffffffffffffffffffffffffffffffff82169050919050565b5f62000b5c8262000b31565b9050919050565b62000b6e8162000b50565b811462000b79575f80fd5b50565b5f8151905062000b8c8162000b63565b92915050565b5f80fd5b5f80fd5b5f601f19601f8301169050919050565b7f4e487b71000000000000000000000000000000000000000000000000000000005f52604160045260245ffd5b62000be28262000b9a565b810181811067ffffffffffffffff8211171562000c045762000c0362000baa565b5b80604052505050565b5f62000c1862000b20565b905062000c26828262000bd7565b919050565b5f67ffffffffffffffff82111562000c485762000c4762000baa565b5b62000c538262000b9a565b9050602081019050919050565b5f5b8381101562000c7f57808201518184015260208101905062000c62565b5f8484015250505050565b5f62000ca062000c9a8462000c2b565b62000c0d565b90508281526020810184848401111562000cbf5762000cbe62000b96565b5b62000ccc84828562000c60565b509392505050565b5f82601f83011262000ceb5762000cea62000b92565b5b815162000cfd84826020860162000c8a565b91505092915050565b5f6bffffffffffffffffffffffff82169050919050565b62000d288162000d06565b811462000d33575f80fd5b50565b5f8151905062000d468162000d1d565b92915050565b5f805f805f805f80610100898b03121562000d6c5762000d6b62000b29565b5b5f62000d7b8b828c0162000b7c565b985050602062000d8e8b828c0162000b7c565b975050604062000da18b828c0162000b7c565b965050606089015167ffffffffffffffff81111562000dc55762000dc462000b2d565b5b62000dd38b828c0162000cd4565b955050608089015167ffffffffffffffff81111562000df75762000df662000b2d565b5b62000e058b828c0162000cd4565b94505060a062000e188b828c0162000b7c565b93505060c062000e2b8b828c0162000b7c565b92505060e062000e3e8b828c0162000d36565b9150509295985092959890939650565b5f81519050919050565b7f4e487b71000000000000000000000000000000000000000000000000000000005f52602260045260245ffd5b5f600282049050600182168062000e9d57607f821691505b60208210810362000eb35762000eb262000e58565b5b50919050565b5f819050815f5260205f209050919050565b5f6020601f8301049050919050565b5f82821b905092915050565b5f6008830262000f177fffffffffffffffffffffffffffffffffffffffffffffffffffffffffffffffff8262000eda565b62000f23868362000eda565b95508019841693508086168417925050509392505050565b5f819050919050565b5f819050919050565b5f62000f6d62000f6762000f618462000f3b565b62000f44565b62000f3b565b9050919050565b5f819050919050565b62000f888362000f4d565b62000fa062000f978262000f74565b84845462000ee6565b825550505050565b5f90565b62000fb662000fa8565b62000fc381848462000f7d565b505050565b5b8181101562000fea5762000fde5f8262000fac565b60018101905062000fc9565b5050565b601f8211156200103957620010038162000eb9565b6200100e8462000ecb565b810160208510156200101e578190505b620010366200102d8562000ecb565b83018262000fc8565b50505b505050565b5f82821c905092915050565b5f6200105b5f19846008026200103e565b1980831691505092915050565b5f6200107583836200104a565b9150826002028217905092915050565b620010908262000e4e565b67ffffffffffffffff811115620010ac57620010ab62000baa565b5b620010b8825462000e85565b620010c582828562000fee565b5f60209050601f831160018114620010fb575f8415620010e6578287015190505b620010f2858262001068565b86555062001161565b601f1984166200110b8662000eb9565b5f5b8281101562001134578489015182556001820191506020850194506020810190506200110d565b8683101562001154578489015162001150601f8916826200104a565b8355505b6001600288020188555050505b505050505050565b620011748162000b50565b82525050565b5f6020820190506200118f5f83018462001169565b92915050565b5f60ff82169050919050565b620011ac8162001195565b8114620011b7575f80fd5b50565b5f81519050620011ca81620011a1565b92915050565b5f60208284031215620011e857620011e762000b29565b5b5f620011f784828501620011ba565b91505092915050565b5f81519050919050565b5f81905092915050565b5f620012208262001200565b6200122c81856200120a565b93506200123e81856020860162000c60565b80840191505092915050565b5f62001257828462001214565b915081905092915050565b6200126d8162000f3b565b811462001278575f80fd5b50565b5f815190506200128b8162001262565b92915050565b5f60208284031215620012a957620012a862000b29565b5b5f620012b8848285016200127b565b91505092915050565b5f819050919050565b620012d581620012c1565b82525050565b620012e68162000f3b565b82525050565b5f60a082019050620013015f830188620012ca565b620013106020830187620012ca565b6200131f6040830186620012ca565b6200132e6060830185620012db565b6200133d608083018462001169565b9695505050505050565b5f6040820190506200135c5f83018562001169565b6200136b6020830184620012db565b9392505050565b5f819050919050565b5f6200139b620013956200138f8462001372565b62000f44565b62000f3b565b9050919050565b620013ad816200137b565b82525050565b5f604082019050620013c85f83018562001169565b620013d76020830184620013a2565b9392505050565b5f82825260208201905092915050565b5f620013fa8262000e4e565b620014068185620013de565b93506200141881856020860162000c60565b620014238162000b9a565b840191505092915050565b5f6020820190508181035f830152620014488184620013ee565b905092915050565b5f819050602082019050919050565b5f6200146c8251620012c1565b80915050919050565b5f620014818262001200565b826200148d8462001450565b90506200149a816200145f565b92506020821015620014dd57620014d87fffffffffffffffffffffffffffffffffffffffffffffffffffffffffffffffff8360200360080262000eda565b831692505b5050919050565b60805160a05160c05160e05161010051610120516101405161016051610180516101a0516101c0516145b86200159d5f395f81816114a601526129e101525f818161092b0152818161096701528181610d7d01528181611d9401528181611f9201528181612257015261234c01525f61210201525f6120c701525f612a4a01525f612a2901525f611cde01525f611d3401525f611d5d01525f611cad01525f8181610d4701528181612b6b0152612e5401526145b85ff3fe608060405234801561000f575f80fd5b5060043610610288575f3560e01c80638da5cb5b1161015a578063c6e6f592116100cc578063e30c397811610085578063e30c397814610868578063e562dfd614610886578063e74b981b146108a4578063ef8b30f7146108c0578063f07cef3e146108f0578063f2fde38b1461090c57610288565b8063c6e6f5921461076e578063ce96cb771461079e578063d505accf146107ce578063d905777e146107ea578063dd62ed3e1461081a578063ddca3f431461084a57610288565b8063aea70acc1161011e578063aea70acc14610686578063b26cc394146106a4578063b3d7f6b9146106ae578063b460af94146106de578063ba0876521461070e578063c63d75b61461073e57610288565b80638da5cb5b146105ba57806394bf804d146105d857806395d89b4114610608578063a9059cbb14610626578063ac9650d81461065657610288565b8063402d267d116101fe5780636e553f65116101b75780636e553f65146104f257806370a0823114610522578063715018a61461055257806379ba50971461055c5780637ecebe001461056657806384b0196e1461059657610288565b8063402d267d1461041c578063411557d11461044c578063469048401461046a5780634cdad50614610488578063568efc07146104b857806369fe0e2d146104d657610288565b80630a28a477116102505780630a28a4771461034457806318160ddd1461037457806323b872dd14610392578063313ce567146103c25780633644e515146103e057806338d52e0f146103fe57610288565b806301e1d1141461028c57806306ec16f8146102aa57806306fdde03146102c657806307a2d13a146102e4578063095ea7b314610314575b5f80fd5b610294610928565b6040516102a191906134fe565b60405180910390f35b6102c460048036038101906102bf9190613579565b610a5d565b005b6102ce610c1a565b6040516102db919061362e565b60405180910390f35b6102fe60048036038101906102f99190613678565b610caa565b60405161030b91906134fe565b60405180910390f35b61032e600480360381019061032991906136a3565b610cbc565b60405161033b91906136fb565b60405180910390f35b61035e60048036038101906103599190613678565b610cde565b60405161036b91906134fe565b60405180910390f35b61037c610cf1565b60405161038991906134fe565b60405180910390f35b6103ac60048036038101906103a79190613714565b610cfa565b6040516103b991906136fb565b60405180910390f35b6103ca610d28565b6040516103d7919061377f565b60405180910390f35b6103e8610d36565b6040516103f591906137b0565b60405180910390f35b610406610d44565b60405161041391906137d8565b60405180910390f35b61043660048036038101906104319190613579565b610d6b565b60405161044391906134fe565b60405180910390f35b610454610d7b565b604051610461919061384c565b60405180910390f35b610472610d9f565b60405161047f91906137d8565b60405180910390f35b6104a2600480360381019061049d9190613678565b610dc4565b6040516104af91906134fe565b60405180910390f35b6104c0610dd6565b6040516104cd91906134fe565b60405180910390f35b6104f060048036038101906104eb9190613678565b610ddc565b005b61050c60048036038101906105079190613865565b610fc5565b60405161051991906134fe565b60405180910390f35b61053c60048036038101906105379190613579565b611007565b60405161054991906134fe565b60405180910390f35b61055a61104c565b005b61056461105f565b005b610580600480360381019061057b9190613579565b6110ed565b60405161058d91906134fe565b60405180910390f35b61059e6110fe565b6040516105b19796959493929190613994565b60405180910390f35b6105c26111a3565b6040516105cf91906137d8565b60405180910390f35b6105f260048036038101906105ed9190613865565b6111cb565b6040516105ff91906134fe565b60405180910390f35b61061061120e565b60405161061d919061362e565b60405180910390f35b610640600480360381019061063b91906136a3565b61129e565b60405161064d91906136fb565b60405180910390f35b610670600480360381019061066b9190613a77565b6112c0565b60405161067d9190613bcf565b60405180910390f35b61068e6114a4565b60405161069b919061377f565b60405180910390f35b6106ac6114c8565b005b6106c860048036038101906106c39190613678565b6114da565b6040516106d591906134fe565b60405180910390f35b6106f860048036038101906106f39190613bef565b6114ed565b60405161070591906134fe565b60405180910390f35b61072860048036038101906107239190613bef565b611546565b60405161073591906134fe565b60405180910390f35b61075860048036038101906107539190613579565b61159e565b60405161076591906134fe565b60405180910390f35b61078860048036038101906107839190613678565b6115bc565b60405161079591906134fe565b60405180910390f35b6107b860048036038101906107b39190613579565b6115ce565b6040516107c591906134fe565b60405180910390f35b6107e860048036038101906107e39190613c93565b6115e4565b005b61080460048036038101906107ff9190613579565b611729565b60405161081191906134fe565b60405180910390f35b610834600480360381019061082f9190613d30565b611752565b60405161084191906134fe565b60405180910390f35b6108526117d4565b60405161085f9190613d94565b60405180910390f35b6108706117f2565b60405161087d91906137d8565b60405180910390f35b61088e61181a565b60405161089b91906137d8565b60405180910390f35b6108be60048036038101906108b99190613579565b61183f565b005b6108da60048036038101906108d59190613678565b6118cd565b6040516108e791906134fe565b60405180910390f35b61090a60048036038101906109059190613579565b6118df565b005b61092660048036038101906109219190613579565b61196d565b005b5f7f000000000000000000000000000000000000000000000000000000000000000073ffffffffffffffffffffffffffffffffffffffff166307a2d13a7f000000000000000000000000000000000000000000000000000000000000000073ffffffffffffffffffffffffffffffffffffffff166370a08231306040518263ffffffff1660e01b81526004016109be91906137d8565b602060405180830381865afa1580156109d9573d5f803e3d5ffd5b505050506040513d601f19601f820116820180604052508101906109fd9190613dc1565b6040518263ffffffff1660e01b8152600401610a1991906134fe565b602060405180830381865afa158015610a34573d5f803e3d5ffd5b505050506040513d601f19601f82011682018060405250810190610a589190613dc1565b905090565b5f73ffffffffffffffffffffffffffffffffffffffff16600b5f9054906101000a900473ffffffffffffffffffffffffffffffffffffffff1673ffffffffffffffffffffffffffffffffffffffff1603610ae3576040517fd92e233d00000000000000000000000000000000000000000000000000000000815260040160405180910390fd5b5f8173ffffffffffffffffffffffffffffffffffffffff166370a08231306040518263ffffffff1660e01b8152600401610b1d91906137d8565b602060405180830381865afa158015610b38573d5f803e3d5ffd5b505050506040513d601f19601f82011682018060405250810190610b5c9190613dc1565b9050610baa600b5f9054906101000a900473ffffffffffffffffffffffffffffffffffffffff16828473ffffffffffffffffffffffffffffffffffffffff16611a199092919063ffffffff16565b8173ffffffffffffffffffffffffffffffffffffffff16610bc9611a98565b73ffffffffffffffffffffffffffffffffffffffff167f1314fd112a381beea61539dbd21ec04afcff2662ac7d1b83273aade1f53d1b9783604051610c0e91906134fe565b60405180910390a35050565b606060038054610c2990613e19565b80601f0160208091040260200160405190810160405280929190818152602001828054610c5590613e19565b8015610ca05780601f10610c7757610100808354040283529160200191610ca0565b820191905f5260205f20905b815481529060010190602001808311610c8357829003601f168201915b5050505050905090565b5f610cb5825f611a9f565b9050919050565b5f80610cc6611a98565b9050610cd3818585611ad6565b600191505092915050565b5f610cea826001611ae8565b9050919050565b5f600254905090565b5f80610d04611a98565b9050610d11858285611b1f565b610d1c858585611bb2565b60019150509392505050565b5f610d31611ca2565b905090565b5f610d3f611cdb565b905090565b5f7f0000000000000000000000000000000000000000000000000000000000000000905090565b5f610d74611d91565b9050919050565b7f000000000000000000000000000000000000000000000000000000000000000081565b600a5f9054906101000a900473ffffffffffffffffffffffffffffffffffffffff1681565b5f610dcf825f611a9f565b9050919050565b600c5481565b610de4611e2f565b600960149054906101000a90046bffffffffffffffffffffffff166bffffffffffffffffffffffff168103610e45576040517fa741a04500000000000000000000000000000000000000000000000000000000815260040160405180910390fd5b6706f05b59d3b20000811115610e87576040517ff4df6ae500000000000000000000000000000000000000000000000000000000815260040160405180910390fd5b5f8114158015610ee357505f73ffffffffffffffffffffffffffffffffffffffff16600a5f9054906101000a900473ffffffffffffffffffffffffffffffffffffffff1673ffffffffffffffffffffffffffffffffffffffff16145b15610f1a576040517fcff9f19400000000000000000000000000000000000000000000000000000000815260040160405180910390fd5b610f226114c8565b80600960146101000a8154816bffffffffffffffffffffffff02191690836bffffffffffffffffffffffff160217905550610f5b611a98565b73ffffffffffffffffffffffffffffffffffffffff167f01fe2943baee27f47add82886c2200f910c749c461c9b63c5fe83901a53bdb49600960149054906101000a90046bffffffffffffffffffffffff16604051610fba9190613e79565b60405180910390a250565b5f80610fcf611eb6565b905080600c81905550610feb84610fe4610cf1565b835f611f38565b9150611000610ff8611a98565b848685611f84565b5092915050565b5f805f8373ffffffffffffffffffffffffffffffffffffffff1673ffffffffffffffffffffffffffffffffffffffff1681526020019081526020015f20549050919050565b611054611e2f565b61105d5f612048565b565b5f611068611a98565b90508073ffffffffffffffffffffffffffffffffffffffff166110896117f2565b73ffffffffffffffffffffffffffffffffffffffff16146110e157806040517f118cdaa70000000000000000000000000000000000000000000000000000000081526004016110d891906137d8565b60405180910390fd5b6110ea81612048565b50565b5f6110f782612078565b9050919050565b5f6060805f805f606061110f6120be565b6111176120f9565b46305f801b5f67ffffffffffffffff81111561113657611135613e92565b5b6040519080825280602002602001820160405280156111645781602001602082028036833780820191505090505b507f0f00000000000000000000000000000000000000000000000000000000000000959493929190965096509650965096509650965090919293949596565b5f60085f9054906101000a900473ffffffffffffffffffffffffffffffffffffffff16905090565b5f806111d5611eb6565b905080600c819055506111f2846111ea610cf1565b836001612134565b91506112076111ff611a98565b848487611f84565b5092915050565b60606004805461121d90613e19565b80601f016020809104026020016040519081016040528092919081815260200182805461124990613e19565b80156112945780601f1061126b57610100808354040283529160200191611294565b820191905f5260205f20905b81548152906001019060200180831161127757829003601f168201915b5050505050905090565b5f806112a8611a98565b90506112b5818585611bb2565b600191505092915050565b60605f6112cb611a98565b73ffffffffffffffffffffffffffffffffffffffff163373ffffffffffffffffffffffffffffffffffffffff161461136b575f36611307612180565b5f3690506113159190613eec565b90809261132493929190613f27565b8080601f0160208091040260200160405190810160405280939291908181526020018383808284375f81840152601f19601f820116905080830192505050505050506113b9565b5f67ffffffffffffffff81111561138557611384613e92565b5b6040519080825280601f01601f1916602001820160405280156113b75781602001600182028036833780820191505090505b505b90508383905067ffffffffffffffff8111156113d8576113d7613e92565b5b60405190808252806020026020018201604052801561140b57816020015b60608152602001906001900390816113f65790505b5091505f5b8484905081101561149c5761146b3086868481811061143257611431613f61565b5b90506020028101906114449190613f9a565b8560405160200161145793929190614068565b604051602081830303815290604052612184565b83828151811061147e5761147d613f61565b5b602002602001018190525080806114949061408d565b915050611410565b505092915050565b7f000000000000000000000000000000000000000000000000000000000000000081565b6114d86114d3611eb6565b612204565b565b5f6114e6826001611a9f565b9050919050565b5f806114f7611eb6565b905061150d85611505610cf1565b836001611f38565b915061152a611525868361224590919063ffffffff16565b612204565b61153e611535611a98565b85858886612255565b509392505050565b5f80611550611eb6565b90506115658561155e610cf1565b835f612134565b915061158261157d838361224590919063ffffffff16565b612204565b61159661158d611a98565b85858589612255565b509392505050565b5f806115a8611d91565b90506115b4815f611ae8565b915050919050565b5f6115c7825f611ae8565b9050919050565b5f6115d882612307565b90505080915050919050565b8342111561162957836040517f6279130200000000000000000000000000000000000000000000000000000000815260040161162091906134fe565b60405180910390fd5b5f7f6e71edae12b1b97f4d1f60370fef10105fa2faae0126114a169c64845d6126c98888886116578c6123f1565b8960405160200161166d969594939291906140d4565b6040516020818303038152906040528051906020012090505f61168f82612444565b90505f61169e8287878761245d565b90508973ffffffffffffffffffffffffffffffffffffffff168173ffffffffffffffffffffffffffffffffffffffff161461171257808a6040517f4b800e46000000000000000000000000000000000000000000000000000000008152600401611709929190614133565b60405180910390fd5b61171d8a8a8a611ad6565b50505050505050505050565b5f805f8061173685612307565b9250925092506117488383835f611f38565b9350505050919050565b5f60015f8473ffffffffffffffffffffffffffffffffffffffff1673ffffffffffffffffffffffffffffffffffffffff1681526020019081526020015f205f8373ffffffffffffffffffffffffffffffffffffffff1673ffffffffffffffffffffffffffffffffffffffff1681526020019081526020015f2054905092915050565b600960149054906101000a90046bffffffffffffffffffffffff1681565b5f60095f9054906101000a900473ffffffffffffffffffffffffffffffffffffffff16905090565b600b5f9054906101000a900473ffffffffffffffffffffffffffffffffffffffff1681565b611847611e2f565b80600a5f6101000a81548173ffffffffffffffffffffffffffffffffffffffff021916908373ffffffffffffffffffffffffffffffffffffffff1602179055508073ffffffffffffffffffffffffffffffffffffffff167f2e979f80fe4d43055c584cf4a8467c55875ea36728fc37176c05acd784eb7a7360405160405180910390a250565b5f6118d8825f611ae8565b9050919050565b6118e7611e2f565b80600b5f6101000a81548173ffffffffffffffffffffffffffffffffffffffff021916908373ffffffffffffffffffffffffffffffffffffffff1602179055508073ffffffffffffffffffffffffffffffffffffffff167fbf4da31489bf7d607626c05856478443f1ecd2ca7b005fe2f83a45fbd9fe1ee760405160405180910390a250565b611975611e2f565b8060095f6101000a81548173ffffffffffffffffffffffffffffffffffffffff021916908373ffffffffffffffffffffffffffffffffffffffff1602179055508073ffffffffffffffffffffffffffffffffffffffff166119d46111a3565b73ffffffffffffffffffffffffffffffffffffffff167f38d16b8cac22d99fc7c124b9cd0de2d3fa1faef420bfe791d8c362d765e2270060405160405180910390a350565b611a93838473ffffffffffffffffffffffffffffffffffffffff1663a9059cbb8585604051602401611a4c92919061415a565b604051602081830303815290604052915060e01b6020820180517bffffffffffffffffffffffffffffffffffffffffffffffffffffffff838183161783525050505061248b565b505050565b5f33905090565b5f805f611aaa612526565b91509150611acc8583611abb610cf1565b611ac59190614181565b8387612134565b9250505092915050565b611ae383838360016125f6565b505050565b5f805f611af3612526565b91509150611b158583611b04610cf1565b611b0e9190614181565b8387611f38565b9250505092915050565b5f611b2a8484611752565b90507fffffffffffffffffffffffffffffffffffffffffffffffffffffffffffffffff811015611bac5781811015611b9d578281836040517ffb8f41b2000000000000000000000000000000000000000000000000000000008152600401611b94939291906141b4565b60405180910390fd5b611bab84848484035f6125f6565b5b50505050565b5f73ffffffffffffffffffffffffffffffffffffffff168373ffffffffffffffffffffffffffffffffffffffff1603611c22575f6040517f96c6fd1e000000000000000000000000000000000000000000000000000000008152600401611c1991906137d8565b60405180910390fd5b5f73ffffffffffffffffffffffffffffffffffffffff168273ffffffffffffffffffffffffffffffffffffffff1603611c92575f6040517fec442f05000000000000000000000000000000000000000000000000000000008152600401611c8991906137d8565b60405180910390fd5b611c9d8383836127c5565b505050565b5f611cab6129de565b7f0000000000000000000000000000000000000000000000000000000000000000611cd691906141e9565b905090565b5f7f000000000000000000000000000000000000000000000000000000000000000073ffffffffffffffffffffffffffffffffffffffff163073ffffffffffffffffffffffffffffffffffffffff16148015611d5657507f000000000000000000000000000000000000000000000000000000000000000046145b15611d83577f00000000000000000000000000000000000000000000000000000000000000009050611d8e565b611d8b612a05565b90505b90565b5f7f000000000000000000000000000000000000000000000000000000000000000073ffffffffffffffffffffffffffffffffffffffff1663402d267d306040518263ffffffff1660e01b8152600401611deb91906137d8565b602060405180830381865afa158015611e06573d5f803e3d5ffd5b505050506040513d601f19601f82011682018060405250810190611e2a9190613dc1565b905090565b611e37611a98565b73ffffffffffffffffffffffffffffffffffffffff16611e556111a3565b73ffffffffffffffffffffffffffffffffffffffff1614611eb457611e78611a98565b6040517f118cdaa7000000000000000000000000000000000000000000000000000000008152600401611eab91906137d8565b60405180910390fd5b565b5f80611ec0612526565b80935081925050505f8114611efb57611efa600a5f9054906101000a900473ffffffffffffffffffffffffffffffffffffffff1682612a9a565b5b7ff66f28b40975dbb933913542c7e6a0f50a1d0f20aa74ea6e0efe65ab616323ec8282604051611f2c92919061421d565b60405180910390a15090565b5f611f7a611f446129de565b600a611f509190614373565b85611f5b9190614181565b600185611f689190614181565b8488612b19909392919063ffffffff16565b9050949350505050565b611f9084848484612b66565b7f000000000000000000000000000000000000000000000000000000000000000073ffffffffffffffffffffffffffffffffffffffff16636e553f6583306040518363ffffffff1660e01b8152600401611feb9291906143bd565b6020604051808303815f875af1158015612007573d5f803e3d5ffd5b505050506040513d601f19601f8201168201806040525081019061202b9190613dc1565b5061204282600c5461203d9190614181565b612204565b50505050565b60095f6101000a81549073ffffffffffffffffffffffffffffffffffffffff021916905561207581612c09565b50565b5f60075f8373ffffffffffffffffffffffffffffffffffffffff1673ffffffffffffffffffffffffffffffffffffffff1681526020019081526020015f20549050919050565b60606120f460057f0000000000000000000000000000000000000000000000000000000000000000612ccc90919063ffffffff16565b905090565b606061212f60067f0000000000000000000000000000000000000000000000000000000000000000612ccc90919063ffffffff16565b905090565b5f6121766001846121459190614181565b61214d6129de565b600a6121599190614373565b866121649190614181565b8488612b19909392919063ffffffff16565b9050949350505050565b5f90565b60605f808473ffffffffffffffffffffffffffffffffffffffff16846040516121ad91906143e4565b5f60405180830381855af49150503d805f81146121e5576040519150601f19603f3d011682016040523d82523d5f602084013e6121ea565b606091505b50915091506121fa858383612d79565b9250505092915050565b80600c819055507f15c027cc4fd826d986cad358803439f7326d3aa4ed969ff90dbee4bc150f68e98160405161223a91906134fe565b60405180910390a150565b5f81830382841102905092915050565b7f000000000000000000000000000000000000000000000000000000000000000073ffffffffffffffffffffffffffffffffffffffff1663b460af948330306040518463ffffffff1660e01b81526004016122b2939291906143fa565b6020604051808303815f875af11580156122ce573d5f803e3d5ffd5b505050506040513d601f19601f820116820180604052508101906122f29190613dc1565b506123008585858585612e06565b5050505050565b5f805f80612313612526565b809350819250505080612324610cf1565b61232e9190614181565b925061234461233c86611007565b84845f612134565b93506123e7847f000000000000000000000000000000000000000000000000000000000000000073ffffffffffffffffffffffffffffffffffffffff1663ce96cb77306040518263ffffffff1660e01b81526004016123a391906137d8565b602060405180830381865afa1580156123be573d5f803e3d5ffd5b505050506040513d601f19601f820116820180604052508101906123e29190613dc1565b612eff565b9350509193909250565b5f60075f8373ffffffffffffffffffffffffffffffffffffffff1673ffffffffffffffffffffffffffffffffffffffff1681526020019081526020015f205f815480929190600101919050559050919050565b5f612456612450611cdb565b83612f11565b9050919050565b5f805f8061246d88888888612f51565b92509250925061247d8282613038565b829350505050949350505050565b5f8060205f8451602086015f885af1806124aa576040513d5f823e3d81fd5b3d92505f519150505f82146124c35760018114156124de565b5f8473ffffffffffffffffffffffffffffffffffffffff163b145b1561252057836040517f5274afe700000000000000000000000000000000000000000000000000000000815260040161251791906137d8565b60405180910390fd5b50505050565b5f80612530610928565b90505f612548600c548361224590919063ffffffff16565b90505f811415801561258257505f600960149054906101000a90046bffffffffffffffffffffffff166bffffffffffffffffffffffff1614155b156125f1575f6125cd600960149054906101000a90046bffffffffffffffffffffffff166bffffffffffffffffffffffff16670de0b6b3a76400008461319a9092919063ffffffff16565b90506125ed816125db610cf1565b83866125e79190613eec565b5f611f38565b9350505b509091565b5f73ffffffffffffffffffffffffffffffffffffffff168473ffffffffffffffffffffffffffffffffffffffff1603612666575f6040517fe602df0500000000000000000000000000000000000000000000000000000000815260040161265d91906137d8565b60405180910390fd5b5f73ffffffffffffffffffffffffffffffffffffffff168373ffffffffffffffffffffffffffffffffffffffff16036126d6575f6040517f94280d620000000000000000000000000000000000000000000000000000000081526004016126cd91906137d8565b60405180910390fd5b8160015f8673ffffffffffffffffffffffffffffffffffffffff1673ffffffffffffffffffffffffffffffffffffffff1681526020019081526020015f205f8573ffffffffffffffffffffffffffffffffffffffff1673ffffffffffffffffffffffffffffffffffffffff1681526020019081526020015f208190555080156127bf578273ffffffffffffffffffffffffffffffffffffffff168473ffffffffffffffffffffffffffffffffffffffff167f8c5be1e5ebec7d5bd14f71427d1e84f3dd0314c0f7b2291e5b200ac8c7c3b925846040516127b691906134fe565b60405180910390a35b50505050565b5f73ffffffffffffffffffffffffffffffffffffffff168373ffffffffffffffffffffffffffffffffffffffff1603612815578060025f8282546128099190614181565b925050819055506128e3565b5f805f8573ffffffffffffffffffffffffffffffffffffffff1673ffffffffffffffffffffffffffffffffffffffff1681526020019081526020015f205490508181101561289e578381836040517fe450d38c000000000000000000000000000000000000000000000000000000008152600401612895939291906141b4565b60405180910390fd5b8181035f808673ffffffffffffffffffffffffffffffffffffffff1673ffffffffffffffffffffffffffffffffffffffff1681526020019081526020015f2081905550505b5f73ffffffffffffffffffffffffffffffffffffffff168273ffffffffffffffffffffffffffffffffffffffff160361292a578060025f8282540392505081905550612974565b805f808473ffffffffffffffffffffffffffffffffffffffff1673ffffffffffffffffffffffffffffffffffffffff1681526020019081526020015f205f82825401925050819055505b8173ffffffffffffffffffffffffffffffffffffffff168373ffffffffffffffffffffffffffffffffffffffff167fddf252ad1be2c89b69c2b068fc378daa952ba7f163c4a11628f55a4df523b3ef836040516129d191906134fe565b60405180910390a3505050565b5f7f0000000000000000000000000000000000000000000000000000000000000000905090565b5f7f8b73c3c69bb8fe3d512ecc4cf759cc79239f7b179b0ffacaa9a75d522b39400f7f00000000000000000000000000000000000000000000000000000000000000007f00000000000000000000000000000000000000000000000000000000000000004630604051602001612a7f95949392919061442f565b60405160208183030381529060405280519060200120905090565b5f73ffffffffffffffffffffffffffffffffffffffff168273ffffffffffffffffffffffffffffffffffffffff1603612b0a575f6040517fec442f05000000000000000000000000000000000000000000000000000000008152600401612b0191906137d8565b60405180910390fd5b612b155f83836127c5565b5050565b5f612b47612b268361327f565b8015612b4257505f8480612b3d57612b3c614480565b5b868809115b6132ac565b612b5286868661319a565b612b5c9190614181565b9050949350505050565b612b927f00000000000000000000000000000000000000000000000000000000000000008530856132b7565b612b9c8382612a9a565b8273ffffffffffffffffffffffffffffffffffffffff168473ffffffffffffffffffffffffffffffffffffffff167fdcbc1c05240f31ff3ad067ef1ee35ce4997762752e3a095284754544f4c709d78484604051612bfb92919061421d565b60405180910390a350505050565b5f60085f9054906101000a900473ffffffffffffffffffffffffffffffffffffffff1690508160085f6101000a81548173ffffffffffffffffffffffffffffffffffffffff021916908373ffffffffffffffffffffffffffffffffffffffff1602179055508173ffffffffffffffffffffffffffffffffffffffff168173ffffffffffffffffffffffffffffffffffffffff167f8be0079c531659141344cd1fd0a4f28419497f9722a3daafe3b4186f6b6457e060405160405180910390a35050565b606060ff5f1b8314612ce857612ce183613339565b9050612d73565b818054612cf490613e19565b80601f0160208091040260200160405190810160405280929190818152602001828054612d2090613e19565b8015612d6b5780601f10612d4257610100808354040283529160200191612d6b565b820191905f5260205f20905b815481529060010190602001808311612d4e57829003601f168201915b505050505090505b92915050565b606082612d8e57612d89826133ab565b612dfe565b5f8251148015612db457505f8473ffffffffffffffffffffffffffffffffffffffff163b145b15612df657836040517f9996b315000000000000000000000000000000000000000000000000000000008152600401612ded91906137d8565b60405180910390fd5b819050612dff565b5b9392505050565b8273ffffffffffffffffffffffffffffffffffffffff168573ffffffffffffffffffffffffffffffffffffffff1614612e4557612e44838683611b1f565b5b612e4f83826133ef565b612e7a7f00000000000000000000000000000000000000000000000000000000000000008584611a19565b8273ffffffffffffffffffffffffffffffffffffffff168473ffffffffffffffffffffffffffffffffffffffff168673ffffffffffffffffffffffffffffffffffffffff167ffbde797d201c681b91056529119e0b02407c7bb96a4a2c75c01fc9667232c8db8585604051612ef092919061421d565b60405180910390a45050505050565b5f828210828418028318905092915050565b5f6040517f190100000000000000000000000000000000000000000000000000000000000081528360028201528260228201526042812091505092915050565b5f805f7f7fffffffffffffffffffffffffffffff5d576e7357a4501ddfe92f46681b20a0845f1c1115612f8d575f60038592509250925061302e565b5f6001888888886040515f8152602001604052604051612fb094939291906144ad565b6020604051602081039080840390855afa158015612fd0573d5f803e3d5ffd5b5050506020604051035190505f73ffffffffffffffffffffffffffffffffffffffff168173ffffffffffffffffffffffffffffffffffffffff1603613021575f60015f801b9350935093505061302e565b805f805f1b935093509350505b9450945094915050565b5f600381111561304b5761304a6144f0565b5b82600381111561305e5761305d6144f0565b5b03156131965760016003811115613078576130776144f0565b5b82600381111561308b5761308a6144f0565b5b036130c2576040517ff645eedf00000000000000000000000000000000000000000000000000000000815260040160405180910390fd5b600260038111156130d6576130d56144f0565b5b8260038111156130e9576130e86144f0565b5b0361312d57805f1c6040517ffce698f700000000000000000000000000000000000000000000000000000000815260040161312491906134fe565b60405180910390fd5b6003808111156131405761313f6144f0565b5b826003811115613153576131526144f0565b5b0361319557806040517fd78bce0c00000000000000000000000000000000000000000000000000000000815260040161318c91906137b0565b60405180910390fd5b5b5050565b5f8083850290505f8019858709828110838203039150505f81036131d2578382816131c8576131c7614480565b5b0492505050613278565b8084116131f1576131f06131eb5f86146012601161346e565b613487565b5b5f8486880990508281118203915080830392505f855f038616905080860495508084049350600181825f0304019050808302841793505f600287600302189050808702600203810290508087026002038102905080870260020381029050808702600203810290508087026002038102905080870260020381029050808502955050505050505b9392505050565b5f60016002836003811115613297576132966144f0565b5b6132a1919061451d565b60ff16149050919050565b5f8115159050919050565b613333848573ffffffffffffffffffffffffffffffffffffffff166323b872dd8686866040516024016132ec9392919061454d565b604051602081830303815290604052915060e01b6020820180517bffffffffffffffffffffffffffffffffffffffffffffffffffffffff838183161783525050505061248b565b50505050565b60605f61334583613498565b90505f602067ffffffffffffffff81111561336357613362613e92565b5b6040519080825280601f01601f1916602001820160405280156133955781602001600182028036833780820191505090505b5090508181528360208201528092505050919050565b5f815111156133bd5780518082602001fd5b6040517fd6bda27500000000000000000000000000000000000000000000000000000000815260040160405180910390fd5b5f73ffffffffffffffffffffffffffffffffffffffff168273ffffffffffffffffffffffffffffffffffffffff160361345f575f6040517f96c6fd1e00000000000000000000000000000000000000000000000000000000815260040161345691906137d8565b60405180910390fd5b61346a825f836127c5565b5050565b5f613478846132ac565b82841802821890509392505050565b634e487b715f52806020526024601cfd5b5f8060ff835f1c169050601f8111156134dd576040517fb3512b0c00000000000000000000000000000000000000000000000000000000815260040160405180910390fd5b80915050919050565b5f819050919050565b6134f8816134e6565b82525050565b5f6020820190506135115f8301846134ef565b92915050565b5f80fd5b5f80fd5b5f73ffffffffffffffffffffffffffffffffffffffff82169050919050565b5f6135488261351f565b9050919050565b6135588161353e565b8114613562575f80fd5b50565b5f813590506135738161354f565b92915050565b5f6020828403121561358e5761358d613517565b5b5f61359b84828501613565565b91505092915050565b5f81519050919050565b5f82825260208201905092915050565b5f5b838110156135db5780820151818401526020810190506135c0565b5f8484015250505050565b5f601f19601f8301169050919050565b5f613600826135a4565b61360a81856135ae565b935061361a8185602086016135be565b613623816135e6565b840191505092915050565b5f6020820190508181035f83015261364681846135f6565b905092915050565b613657816134e6565b8114613661575f80fd5b50565b5f813590506136728161364e565b92915050565b5f6020828403121561368d5761368c613517565b5b5f61369a84828501613664565b91505092915050565b5f80604083850312156136b9576136b8613517565b5b5f6136c685828601613565565b92505060206136d785828601613664565b9150509250929050565b5f8115159050919050565b6136f5816136e1565b82525050565b5f60208201905061370e5f8301846136ec565b92915050565b5f805f6060848603121561372b5761372a613517565b5b5f61373886828701613565565b935050602061374986828701613565565b925050604061375a86828701613664565b9150509250925092565b5f60ff82169050919050565b61377981613764565b82525050565b5f6020820190506137925f830184613770565b92915050565b5f819050919050565b6137aa81613798565b82525050565b5f6020820190506137c35f8301846137a1565b92915050565b6137d28161353e565b82525050565b5f6020820190506137eb5f8301846137c9565b92915050565b5f819050919050565b5f61381461380f61380a8461351f565b6137f1565b61351f565b9050919050565b5f613825826137fa565b9050919050565b5f6138368261381b565b9050919050565b6138468161382c565b82525050565b5f60208201905061385f5f83018461383d565b92915050565b5f806040838503121561387b5761387a613517565b5b5f61388885828601613664565b925050602061389985828601613565565b9150509250929050565b5f7fff0000000000000000000000000000000000000000000000000000000000000082169050919050565b6138d7816138a3565b82525050565b5f81519050919050565b5f82825260208201905092915050565b5f819050602082019050919050565b61390f816134e6565b82525050565b5f6139208383613906565b60208301905092915050565b5f602082019050919050565b5f613942826138dd565b61394c81856138e7565b9350613957836138f7565b805f5b8381101561398757815161396e8882613915565b97506139798361392c565b92505060018101905061395a565b5085935050505092915050565b5f60e0820190506139a75f83018a6138ce565b81810360208301526139b981896135f6565b905081810360408301526139cd81886135f6565b90506139dc60608301876134ef565b6139e960808301866137c9565b6139f660a08301856137a1565b81810360c0830152613a088184613938565b905098975050505050505050565b5f80fd5b5f80fd5b5f80fd5b5f8083601f840112613a3757613a36613a16565b5b8235905067ffffffffffffffff811115613a5457613a53613a1a565b5b602083019150836020820283011115613a7057613a6f613a1e565b5b9250929050565b5f8060208385031215613a8d57613a8c613517565b5b5f83013567ffffffffffffffff811115613aaa57613aa961351b565b5b613ab685828601613a22565b92509250509250929050565b5f81519050919050565b5f82825260208201905092915050565b5f819050602082019050919050565b5f81519050919050565b5f82825260208201905092915050565b5f613b0f82613aeb565b613b198185613af5565b9350613b298185602086016135be565b613b32816135e6565b840191505092915050565b5f613b488383613b05565b905092915050565b5f602082019050919050565b5f613b6682613ac2565b613b708185613acc565b935083602082028501613b8285613adc565b805f5b85811015613bbd5784840389528151613b9e8582613b3d565b9450613ba983613b50565b925060208a01995050600181019050613b85565b50829750879550505050505092915050565b5f6020820190508181035f830152613be78184613b5c565b905092915050565b5f805f60608486031215613c0657613c05613517565b5b5f613c1386828701613664565b9350506020613c2486828701613565565b9250506040613c3586828701613565565b9150509250925092565b613c4881613764565b8114613c52575f80fd5b50565b5f81359050613c6381613c3f565b92915050565b613c7281613798565b8114613c7c575f80fd5b50565b5f81359050613c8d81613c69565b92915050565b5f805f805f805f60e0888a031215613cae57613cad613517565b5b5f613cbb8a828b01613565565b9750506020613ccc8a828b01613565565b9650506040613cdd8a828b01613664565b9550506060613cee8a828b01613664565b9450506080613cff8a828b01613c55565b93505060a0613d108a828b01613c7f565b92505060c0613d218a828b01613c7f565b91505092959891949750929550565b5f8060408385031215613d4657613d45613517565b5b5f613d5385828601613565565b9250506020613d6485828601613565565b9150509250929050565b5f6bffffffffffffffffffffffff82169050919050565b613d8e81613d6e565b82525050565b5f602082019050613da75f830184613d85565b92915050565b5f81519050613dbb8161364e565b92915050565b5f60208284031215613dd657613dd5613517565b5b5f613de384828501613dad565b91505092915050565b7f4e487b71000000000000000000000000000000000000000000000000000000005f52602260045260245ffd5b5f6002820490506001821680613e3057607f821691505b602082108103613e4357613e42613dec565b5b50919050565b5f613e63613e5e613e5984613d6e565b6137f1565b6134e6565b9050919050565b613e7381613e49565b82525050565b5f602082019050613e8c5f830184613e6a565b92915050565b7f4e487b71000000000000000000000000000000000000000000000000000000005f52604160045260245ffd5b7f4e487b71000000000000000000000000000000000000000000000000000000005f52601160045260245ffd5b5f613ef6826134e6565b9150613f01836134e6565b9250828203905081811115613f1957613f18613ebf565b5b92915050565b5f80fd5b5f80fd5b5f8085851115613f3a57613f39613f1f565b5b83861115613f4b57613f4a613f23565b5b6001850283019150848603905094509492505050565b7f4e487b71000000000000000000000000000000000000000000000000000000005f52603260045260245ffd5b5f80fd5b5f80fd5b5f80fd5b5f8083356001602003843603038112613fb657613fb5613f8e565b5b80840192508235915067ffffffffffffffff821115613fd857613fd7613f92565b5b602083019250600182023603831315613ff457613ff3613f96565b5b509250929050565b5f81905092915050565b828183375f83830152505050565b5f61401f8385613ffc565b935061402c838584614006565b82840190509392505050565b5f61404282613aeb565b61404c8185613ffc565b935061405c8185602086016135be565b80840191505092915050565b5f614074828587614014565b91506140808284614038565b9150819050949350505050565b5f614097826134e6565b91507fffffffffffffffffffffffffffffffffffffffffffffffffffffffffffffffff82036140c9576140c8613ebf565b5b600182019050919050565b5f60c0820190506140e75f8301896137a1565b6140f460208301886137c9565b61410160408301876137c9565b61410e60608301866134ef565b61411b60808301856134ef565b61412860a08301846134ef565b979650505050505050565b5f6040820190506141465f8301856137c9565b61415360208301846137c9565b9392505050565b5f60408201905061416d5f8301856137c9565b61417a60208301846134ef565b9392505050565b5f61418b826134e6565b9150614196836134e6565b92508282019050808211156141ae576141ad613ebf565b5b92915050565b5f6060820190506141c75f8301866137c9565b6141d460208301856134ef565b6141e160408301846134ef565b949350505050565b5f6141f382613764565b91506141fe83613764565b9250828201905060ff81111561421757614216613ebf565b5b92915050565b5f6040820190506142305f8301856134ef565b61423d60208301846134ef565b9392505050565b5f8160011c9050919050565b5f808291508390505b60018511156142995780860481111561427557614274613ebf565b5b60018516156142845780820291505b808102905061429285614244565b9450614259565b94509492505050565b5f826142b1576001905061436c565b816142be575f905061436c565b81600181146142d457600281146142de5761430d565b600191505061436c565b60ff8411156142f0576142ef613ebf565b5b8360020a91508482111561430757614306613ebf565b5b5061436c565b5060208310610133831016604e8410600b84101617156143425782820a90508381111561433d5761433c613ebf565b5b61436c565b61434f8484846001614250565b9250905081840481111561436657614365613ebf565b5b81810290505b9392505050565b5f61437d826134e6565b915061438883613764565b92506143b57fffffffffffffffffffffffffffffffffffffffffffffffffffffffffffffffff84846142a2565b905092915050565b5f6040820190506143d05f8301856134ef565b6143dd60208301846137c9565b9392505050565b5f6143ef8284614038565b915081905092915050565b5f60608201905061440d5f8301866134ef565b61441a60208301856137c9565b61442760408301846137c9565b949350505050565b5f60a0820190506144425f8301886137a1565b61444f60208301876137a1565b61445c60408301866137a1565b61446960608301856134ef565b61447660808301846137c9565b9695505050505050565b7f4e487b71000000000000000000000000000000000000000000000000000000005f52601260045260245ffd5b5f6080820190506144c05f8301876137a1565b6144cd6020830186613770565b6144da60408301856137a1565b6144e760608301846137a1565b95945050505050565b7f4e487b71000000000000000000000000000000000000000000000000000000005f52602160045260245ffd5b5f61452782613764565b915061453283613764565b92508261454257614541614480565b5b828206905092915050565b5f6060820190506145605f8301866137c9565b61456d60208301856137c9565b61457a60408301846134ef565b94935050505056fea26469706673582212208e3ba491fcc28c6433963e19e37f5bf7a7acc01f496de699bc90a4216481eb9964736f6c63430008150033","linkReferences":{}},"methodIdentifiers":{"DECIMALS_OFFSET()":"aea70acc","DOMAIN_SEPARATOR()":"3644e515","VAULT()":"411557d1","acceptOwnership()":"79ba5097","accrueFee()":"b26cc394","allowance(address,address)":"dd62ed3e","approve(address,uint256)":"095ea7b3","asset()":"38d52e0f","balanceOf(address)":"70a08231","collect(address)":"06ec16f8","collections()":"e562dfd6","convertToAssets(uint256)":"07a2d13a","convertToShares(uint256)":"c6e6f592","decimals()":"313ce567","deposit(uint256,address)":"6e553f65","eip712Domain()":"84b0196e","fee()":"ddca3f43","feeRecipient()":"46904840","lastTotalAssets()":"568efc07","maxDeposit(address)":"402d267d","maxMint(address)":"c63d75b6","maxRedeem(address)":"d905777e","maxWithdraw(address)":"ce96cb77","mint(uint256,address)":"94bf804d","multicall(bytes[])":"ac9650d8","name()":"06fdde03","nonces(address)":"7ecebe00","owner()":"8da5cb5b","pendingOwner()":"e30c3978","permit(address,address,uint256,uint256,uint8,bytes32,bytes32)":"d505accf","previewDeposit(uint256)":"ef8b30f7","previewMint(uint256)":"b3d7f6b9","previewRedeem(uint256)":"4cdad506","previewWithdraw(uint256)":"0a28a477","redeem(uint256,address,address)":"ba087652","renounceOwnership()":"715018a6","setCollections(address)":"f07cef3e","setFee(uint256)":"69fe0e2d","setFeeRecipient(address)":"e74b981b","symbol()":"95d89b41","totalAssets()":"01e1d114","totalSupply()":"18160ddd","transfer(address,uint256)":"a9059cbb","transferFrom(address,address,uint256)":"23b872dd","transferOwnership(address)":"f2fde38b","withdraw(uint256,address,address)":"b460af94"},"id":99}