{"abi":[{"type":"constructor","inputs":[{"name":"_platform","type":"address","internalType":"address"},{"name":"owner","type":"address","internalType":"address"},{"name":"vault","type":"address","internalType":"address"},{"name":"asset","type":"address","internalType":"address"},{"name":"_name","type":"string","internalType":"string"},{"name":"_symbol","type":"string","internalType":"string"},{"name":"_feeRecipient","type":"address","internalType":"address"},{"name":"_collections","type":"address","internalType":"address"},{"name":"_fee","type":"uint96","internalType":"uint96"}],"stateMutability":"nonpayable"},{"type":"function","name":"DECIMALS_OFFSET","inputs":[],"outputs":[{"name":"","type":"uint8","internalType":"uint8"}],"stateMutability":"view"},{"type":"function","name":"DOMAIN_SEPARATOR","inputs":[],"outputs":[{"name":"","type":"bytes32","internalType":"bytes32"}],"stateMutability":"view"},{"type":"function","name":"VAULT","inputs":[],"outputs":[{"name":"","type":"address","internalType":"contract IERC4626"}],"stateMutability":"view"},{"type":"function","name":"acceptOwnership","inputs":[],"outputs":[],"stateMutability":"nonpayable"},{"type":"function","name":"accrueFee","inputs":[],"outputs":[],"stateMutability":"nonpayable"},{"type":"function","name":"allowance","inputs":[{"name":"owner","type":"address","internalType":"address"},{"name":"spender","type":"address","internalType":"address"}],"outputs":[{"name":"","type":"uint256","internalType":"uint256"}],"stateMutability":"view"},{"type":"function","name":"approve","inputs":[{"name":"spender","type":"address","internalType":"address"},{"name":"value","type":"uint256","internalType":"uint256"}],"outputs":[{"name":"","type":"bool","internalType":"bool"}],"stateMutability":"nonpayable"},{"type":"function","name":"asset","inputs":[],"outputs":[{"name":"","type":"address","internalType":"address"}],"stateMutability":"view"},{"type":"function","name":"balanceOf","inputs":[{"name":"account","type":"address","internalType":"address"}],"outputs":[{"name":"","type":"uint256","internalType":"uint256"}],"stateMutability":"view"},{"type":"function","name":"collect","inputs":[{"name":"token","type":"address","internalType":"address"}],"outputs":[],"stateMutability":"nonpayable"},{"type":"function","name":"collections","inputs":[],"outputs":[{"name":"","type":"address","internalType":"address"}],"stateMutability":"view"},{"type":"function","name":"convertToAssets","inputs":[{"name":"shares","type":"uint256","internalType":"uint256"}],"outputs":[{"name":"","type":"uint256","internalType":"uint256"}],"stateMutability":"view"},{"type":"function","name":"convertToShares","inputs":[{"name":"assets","type":"uint256","internalType":"uint256"}],"outputs":[{"name":"","type":"uint256","internalType":"uint256"}],"stateMutability":"view"},{"type":"function","name":"decimals","inputs":[],"outputs":[{"name":"","type":"uint8","internalType":"uint8"}],"stateMutability":"view"},{"type":"function","name":"deposit","inputs":[{"name":"assets","type":"uint256","internalType":"uint256"},{"name":"receiver","type":"address","internalType":"address"}],"outputs":[{"name":"shares","type":"uint256","internalType":"uint256"}],"stateMutability":"nonpayable"},{"type":"function","name":"eip712Domain","inputs":[],"outputs":[{"name":"fields","type":"bytes1","internalType":"bytes1"},{"name":"name","type":"string","internalType":"string"},{"name":"version","type":"string","internalType":"string"},{"name":"chainId","type":"uint256","internalType":"uint256"},{"name":"verifyingContract","type":"address","internalType":"address"},{"name":"salt","type":"bytes32","internalType":"bytes32"},{"name":"extensions","type":"uint256[]","internalType":"uint256[]"}],"stateMutability":"view"},{"type":"function","name":"fee","inputs":[],"outputs":[{"name":"","type":"uint96","internalType":"uint96"}],"stateMutability":"view"},{"type":"function","name":"feeRecipient","inputs":[],"outputs":[{"name":"","type":"address","internalType":"address"}],"stateMutability":"view"},{"type":"function","name":"lastTotalAssets","inputs":[],"outputs":[{"name":"","type":"uint256","internalType":"uint256"}],"stateMutability":"view"},{"type":"function","name":"maxDeposit","inputs":[{"name":"","type":"address","internalType":"address"}],"outputs":[{"name":"","type":"uint256","internalType":"uint256"}],"stateMutability":"view"},{"type":"function","name":"maxMint","inputs":[{"name":"","type":"address","internalType":"address"}],"outputs":[{"name":"","type":"uint256","internalType":"uint256"}],"stateMutability":"view"},{"type":"function","name":"maxRedeem","inputs":[{"name":"owner","type":"address","internalType":"address"}],"outputs":[{"name":"","type":"uint256","internalType":"uint256"}],"stateMutability":"view"},{"type":"function","name":"maxWithdraw","inputs":[{"name":"owner","type":"address","internalType":"address"}],"outputs":[{"name":"assets","type":"uint256","internalType":"uint256"}],"stateMutability":"view"},{"type":"function","name":"mint","inputs":[{"name":"shares","type":"uint256","internalType":"uint256"},{"name":"receiver","type":"address","internalType":"address"}],"outputs":[{"name":"assets","type":"uint256","internalType":"uint256"}],"stateMutability":"nonpayable"},{"type":"function","name":"multicall","inputs":[{"name":"data","type":"bytes[]","internalType":"bytes[]"}],"outputs":[{"name":"results","type":"bytes[]","internalType":"bytes[]"}],"stateMutability":"nonpayable"},{"type":"function","name":"name","inputs":[],"outputs":[{"name":"","type":"string","internalType":"string"}],"stateMutability":"view"},{"type":"function","name":"nonces","inputs":[{"name":"owner","type":"address","internalType":"address"}],"outputs":[{"name":"","type":"uint256","internalType":"uint256"}],"stateMutability":"view"},{"type":"function","name":"owner","inputs":[],"outputs":[{"name":"","type":"address","internalType":"address"}],"stateMutability":"view"},{"type":"function","name":"pendingOwner","inputs":[],"outputs":[{"name":"","type":"address","internalType":"address"}],"stateMutability":"view"},{"type":"function","name":"permit","inputs":[{"name":"owner","type":"address","internalType":"address"},{"name":"spender","type":"address","internalType":"address"},{"name":"value","type":"uint256","internalType":"uint256"},{"name":"deadline","type":"uint256","internalType":"uint256"},{"name":"v","type":"uint8","internalType":"uint8"},{"name":"r","type":"bytes32","internalType":"bytes32"},{"name":"s","type":"bytes32","internalType":"bytes32"}],"outputs":[],"stateMutability":"nonpayable"},{"type":"function","name":"platform","inputs":[],"outputs":[{"name":"","type":"address","internalType":"address"}],"stateMutability":"view"},{"type":"function","name":"previewDeposit","inputs":[{"name":"assets","type":"uint256","internalType":"uint256"}],"outputs":[{"name":"","type":"uint256","internalType":"uint256"}],"stateMutability":"view"},{"type":"function","name":"previewMint","inputs":[{"name":"shares","type":"uint256","internalType":"uint256"}],"outputs":[{"name":"","type":"uint256","internalType":"uint256"}],"stateMutability":"view"},{"type":"function","name":"previewRedeem","inputs":[{"name":"shares","type":"uint256","internalType":"uint256"}],"outputs":[{"name":"","type":"uint256","internalType":"uint256"}],"stateMutability":"view"},{"type":"function","name":"previewWithdraw","inputs":[{"name":"assets","type":"uint256","internalType":"uint256"}],"outputs":[{"name":"","type":"uint256","internalType":"uint256"}],"stateMutability":"view"},{"type":"function","name":"redeem","inputs":[{"name":"shares","type":"uint256","internalType":"uint256"},{"name":"receiver","type":"address","internalType":"address"},{"name":"owner","type":"address","internalType":"address"}],"outputs":[{"name":"assets","type":"uint256","internalType":"uint256"}],"stateMutability":"nonpayable"},{"type":"function","name":"renounceOwnership","inputs":[],"outputs":[],"stateMutability":"nonpayable"},{"type":"function","name":"setCollections","inputs":[{"name":"newCollections","type":"address","internalType":"address"}],"outputs":[],"stateMutability":"nonpayable"},{"type":"function","name":"setFee","inputs":[{"name":"newFee","type":"uint256","internalType":"uint256"}],"outputs":[],"stateMutability":"nonpayable"},{"type":"function","name":"setFeeRecipient","inputs":[{"name":"newFeeRecipient","type":"address","internalType":"address"}],"outputs":[],"stateMutability":"nonpayable"},{"type":"function","name":"setPlatform","inputs":[{"name":"newPlatform","type":"address","internalType":"address"}],"outputs":[],"stateMutability":"nonpayable"},{"type":"function","name":"symbol","inputs":[],"outputs":[{"name":"","type":"string","internalType":"string"}],"stateMutability":"view"},{"type":"function","name":"totalAssets","inputs":[],"outputs":[{"name":"assets","type":"uint256","internalType":"uint256"}],"stateMutability":"view"},{"type":"function","name":"totalSupply","inputs":[],"outputs":[{"name":"","type":"uint256","internalType":"uint256"}],"stateMutability":"view"},{"type":"function","name":"transfer","inputs":[{"name":"to","type":"address","internalType":"address"},{"name":"value","type":"uint256","internalType":"uint256"}],"outputs":[{"name":"","type":"bool","internalType":"bool"}],"stateMutability":"nonpayable"},{"type":"function","name":"transferFrom","inputs":[{"name":"from","type":"address","internalType":"address"},{"name":"to","type":"address","internalType":"address"},{"name":"value","type":"uint256","internalType":"uint256"}],"outputs":[{"name":"","type":"bool","internalType":"bool"}],"stateMutability":"nonpayable"},{"type":"function","name":"transferOwnership","inputs":[{"name":"newOwner","type":"address","internalType":"address"}],"outputs":[],"stateMutability":"nonpayable"},{"type":"function","name":"withdraw","inputs":[{"name":"assets","type":"uint256","internalType":"uint256"},{"name":"receiver","type":"address","internalType":"address"},{"name":"owner","type":"address","internalType":"address"}],"outputs":[{"name":"shares","type":"uint256","internalType":"uint256"}],"stateMutability":"nonpayable"},{"type":"event","name":"AccrueInterest","inputs":[{"name":"newTotalAssets","type":"uint256","indexed":false,"internalType":"uint256"},{"name":"feeShares","type":"uint256","indexed":false,"internalType":"uint256"}],"anonymous":false},{"type":"event","name":"Approval","inputs":[{"name":"owner","type":"address","indexed":true,"internalType":"address"},{"name":"spender","type":"address","indexed":true,"internalType":"address"},{"name":"value","type":"uint256","indexed":false,"internalType":"uint256"}],"anonymous":false},{"type":"event","name":"Collect","inputs":[{"name":"caller","type":"address","indexed":true,"internalType":"address"},{"name":"token","type":"address","indexed":true,"internalType":"address"},{"name":"amount","type":"uint256","indexed":false,"internalType":"uint256"}],"anonymous":false},{"type":"event","name":"Deposit","inputs":[{"name":"sender","type":"address","indexed":true,"internalType":"address"},{"name":"owner","type":"address","indexed":true,"internalType":"address"},{"name":"assets","type":"uint256","indexed":false,"internalType":"uint256"},{"name":"shares","type":"uint256","indexed":false,"internalType":"uint256"}],"anonymous":false},{"type":"event","name":"EIP712DomainChanged","inputs":[],"anonymous":false},{"type":"event","name":"OwnershipTransferStarted","inputs":[{"name":"previousOwner","type":"address","indexed":true,"internalType":"address"},{"name":"newOwner","type":"address","indexed":true,"internalType":"address"}],"anonymous":false},{"type":"event","name":"OwnershipTransferred","inputs":[{"name":"previousOwner","type":"address","indexed":true,"internalType":"address"},{"name":"newOwner","type":"address","indexed":true,"internalType":"address"}],"anonymous":false},{"type":"event","name":"SetCollections","inputs":[{"name":"newCollections","type":"address","indexed":true,"internalType":"address"}],"anonymous":false},{"type":"event","name":"SetFee","inputs":[{"name":"caller","type":"address","indexed":true,"internalType":"address"},{"name":"newFee","type":"uint256","indexed":false,"internalType":"uint256"}],"anonymous":false},{"type":"event","name":"SetFeeRecipient","inputs":[{"name":"newFeeRecipient","type":"address","indexed":true,"internalType":"address"}],"anonymous":false},{"type":"event","name":"SetPlatform","inputs":[{"name":"newPlatform","type":"address","indexed":true,"internalType":"address"}],"anonymous":false},{"type":"event","name":"Transfer","inputs":[{"name":"from","type":"address","indexed":true,"internalType":"address"},{"name":"to","type":"address","indexed":true,"internalType":"address"},{"name":"value","type":"uint256","indexed":false,"internalType":"uint256"}],"anonymous":false},{"type":"event","name":"UpdateLastTotalAssets","inputs":[{"name":"updatedTotalAssets","type":"uint256","indexed":false,"internalType":"uint256"}],"anonymous":false},{"type":"event","name":"Withdraw","inputs":[{"name":"sender","type":"address","indexed":true,"internalType":"address"},{"name":"receiver","type":"address","indexed":true,"internalType":"address"},{"name":"owner","type":"address","indexed":true,"internalType":"address"},{"name":"assets","type":"uint256","indexed":false,"internalType":"uint256"},{"name":"shares","type":"uint256","indexed":false,"internalType":"uint256"}],"anonymous":false},{"type":"error","name":"AddressEmptyCode","inputs":[{"name":"target","type":"address","internalType":"address"}]},{"type":"error","name":"AlreadySet","inputs":[]},{"type":"error","name":"ECDSAInvalidSignature","inputs":[]},{"type":"error","name":"ECDSAInvalidSignatureLength","inputs":[{"name":"length","type":"uint256","internalType":"uint256"}]},{"type":"error","name":"ECDSAInvalidSignatureS","inputs":[{"name":"s","type":"bytes32","internalType":"bytes32"}]},{"type":"error","name":"ERC20InsufficientAllowance","inputs":[{"name":"spender","type":"address","internalType":"address"},{"name":"allowance","type":"uint256","internalType":"uint256"},{"name":"needed","type":"uint256","internalType":"uint256"}]},{"type":"error","name":"ERC20InsufficientBalance","inputs":[{"name":"sender","type":"address","internalType":"address"},{"name":"balance","type":"uint256","internalType":"uint256"},{"name":"needed","type":"uint256","internalType":"uint256"}]},{"type":"error","name":"ERC20InvalidApprover","inputs":[{"name":"approver","type":"address","internalType":"address"}]},{"type":"error","name":"ERC20InvalidReceiver","inputs":[{"name":"receiver","type":"address","internalType":"address"}]},{"type":"error","name":"ERC20InvalidSender","inputs":[{"name":"sender","type":"address","internalType":"address"}]},{"type":"error","name":"ERC20InvalidSpender","inputs":[{"name":"spender","type":"address","internalType":"address"}]},{"type":"error","name":"ERC2612ExpiredSignature","inputs":[{"name":"deadline","type":"uint256","internalType":"uint256"}]},{"type":"error","name":"ERC2612InvalidSigner","inputs":[{"name":"signer","type":"address","internalType":"address"},{"name":"owner","type":"address","internalType":"address"}]},{"type":"error","name":"ERC4626ExceededMaxDeposit","inputs":[{"name":"receiver","type":"address","internalType":"address"},{"name":"assets","type":"uint256","internalType":"uint256"},{"name":"max","type":"uint256","internalType":"uint256"}]},{"type":"error","name":"ERC4626ExceededMaxMint","inputs":[{"name":"receiver","type":"address","internalType":"address"},{"name":"shares","type":"uint256","internalType":"uint256"},{"name":"max","type":"uint256","internalType":"uint256"}]},{"type":"error","name":"ERC4626ExceededMaxRedeem","inputs":[{"name":"owner","type":"address","internalType":"address"},{"name":"shares","type":"uint256","internalType":"uint256"},{"name":"max","type":"uint256","internalType":"uint256"}]},{"type":"error","name":"ERC4626ExceededMaxWithdraw","inputs":[{"name":"owner","type":"address","internalType":"address"},{"name":"assets","type":"uint256","internalType":"uint256"},{"name":"max","type":"uint256","internalType":"uint256"}]},{"type":"error","name":"FailedCall","inputs":[]},{"type":"error","name":"InvalidAccountNonce","inputs":[{"name":"account","type":"address","internalType":"address"},{"name":"currentNonce","type":"uint256","internalType":"uint256"}]},{"type":"error","name":"InvalidShortString","inputs":[]},{"type":"error","name":"MaxFeeExceeded","inputs":[]},{"type":"error","name":"OwnableInvalidOwner","inputs":[{"name":"owner","type":"address","internalType":"address"}]},{"type":"error","name":"OwnableUnauthorizedAccount","inputs":[{"name":"account","type":"address","internalType":"address"}]},{"type":"error","name":"SafeERC20FailedOperation","inputs":[{"name":"token","type":"address","internalType":"address"}]},{"type":"error","name":"StringTooLong","inputs":[{"name":"str","type":"string","internalType":"string"}]},{"type":"error","name":"UnauthorizedPlatform","inputs":[]},{"type":"error","name":"ZeroAddress","inputs":[]},{"type":"error","name":"ZeroFeeRecipient","inputs":[]}],"bytecode":{"object":"0x6101e060405234801562000011575f80fd5b50604051620060fd380380620060fd833981810160405281019062000037919062000f17565b888886806040518060400160405280600181526020017f31000000000000000000000000000000000000000000000000000000000000008152508a8a8a816003908162000085919062001265565b50806004908162000097919062001265565b5050505f80620000ad836200063060201b60201c565b9150915081620000bf576012620000c1565b805b60ff1660a08160ff16815250508273ffffffffffffffffffffffffffffffffffffffff1660808173ffffffffffffffffffffffffffffffffffffffff16815250505050506200011b6005836200074360201b90919060201c565b6101608181525050620001396006826200074360201b90919060201c565b610180818152505081805190602001206101208181525050808051906020012061014081815250504660e08181525050620001796200079860201b60201c565b60c081815250503073ffffffffffffffffffffffffffffffffffffffff166101008173ffffffffffffffffffffffffffffffffffffffff16815250505050505f73ffffffffffffffffffffffffffffffffffffffff168173ffffffffffffffffffffffffffffffffffffffff16036200022b575f6040517f1e4fbdf70000000000000000000000000000000000000000000000000000000081526004016200022291906200135a565b60405180910390fd5b6200023c81620007f560201b60201c565b505f73ffffffffffffffffffffffffffffffffffffffff168173ffffffffffffffffffffffffffffffffffffffff1603620002a3576040517fd92e233d00000000000000000000000000000000000000000000000000000000815260040160405180910390fd5b620002b481620008b860201b60201c565b505f73ffffffffffffffffffffffffffffffffffffffff168773ffffffffffffffffffffffffffffffffffffffff16036200031b576040517fd92e233d00000000000000000000000000000000000000000000000000000000815260040160405180910390fd5b5f73ffffffffffffffffffffffffffffffffffffffff168373ffffffffffffffffffffffffffffffffffffffff1614620003905782600b5f6101000a81548173ffffffffffffffffffffffffffffffffffffffff021916908373ffffffffffffffffffffffffffffffffffffffff1602179055505b5f73ffffffffffffffffffffffffffffffffffffffff168273ffffffffffffffffffffffffffffffffffffffff1614620004055781600c5f6101000a81548173ffffffffffffffffffffffffffffffffffffffff021916908373ffffffffffffffffffffffffffffffffffffffff1602179055505b6706f05b59d3b20000816bffffffffffffffffffffffff16111562000456576040517ff4df6ae500000000000000000000000000000000000000000000000000000000815260040160405180910390fd5b5f816bffffffffffffffffffffffff1614158015620004a057505f73ffffffffffffffffffffffffffffffffffffffff168373ffffffffffffffffffffffffffffffffffffffff16145b15620004d8576040517fcff9f19400000000000000000000000000000000000000000000000000000000815260040160405180910390fd5b80600a60146101000a8154816bffffffffffffffffffffffff02191690836bffffffffffffffffffffffff1602179055508673ffffffffffffffffffffffffffffffffffffffff166101a08173ffffffffffffffffffffffffffffffffffffffff1681525050620005c68673ffffffffffffffffffffffffffffffffffffffff1663313ce5676040518163ffffffff1660e01b8152600401602060405180830381865afa1580156200058c573d5f803e3d5ffd5b505050506040513d601f19601f82011682018060405250810190620005b29190620013b0565b60ff16601262000a1960201b90919060201c565b60ff166101c08160ff168152505062000621877fffffffffffffffffffffffffffffffffffffffffffffffffffffffffffffffff8873ffffffffffffffffffffffffffffffffffffffff1662000a2960201b9092919060201c565b505050505050505050620016c4565b5f805f808473ffffffffffffffffffffffffffffffffffffffff1660405160240160405160208183030381529060405263313ce56760e01b6020820180517bffffffffffffffffffffffffffffffffffffffffffffffffffffffff8381831617835250505050604051620006a591906200142a565b5f60405180830381855afa9150503d805f8114620006df576040519150601f19603f3d011682016040523d82523d5f602084013e620006e4565b606091505b5091509150818015620006f957506020815110155b1562000735575f8180602001905181019062000716919062001471565b905060ff801681116200073357600181945094505050506200073e565b505b5f809350935050505b915091565b5f6020835110156200076857620007608362000b5360201b60201c565b905062000792565b826200077a8362000bbd60201b60201c565b5f0190816200078a919062001265565b5060ff5f1b90505b92915050565b5f7f8b73c3c69bb8fe3d512ecc4cf759cc79239f7b179b0ffacaa9a75d522b39400f61012051610140514630604051602001620007da959493929190620014cc565b60405160208183030381529060405280519060200120905090565b5f60085f9054906101000a900473ffffffffffffffffffffffffffffffffffffffff1690508160085f6101000a81548173ffffffffffffffffffffffffffffffffffffffff021916908373ffffffffffffffffffffffffffffffffffffffff1602179055508173ffffffffffffffffffffffffffffffffffffffff168173ffffffffffffffffffffffffffffffffffffffff167f8be0079c531659141344cd1fd0a4f28419497f9722a3daafe3b4186f6b6457e060405160405180910390a35050565b620008c862000bc660201b60201c565b73ffffffffffffffffffffffffffffffffffffffff168173ffffffffffffffffffffffffffffffffffffffff16036200092d576040517fa741a04500000000000000000000000000000000000000000000000000000000815260040160405180910390fd5b5f73ffffffffffffffffffffffffffffffffffffffff168173ffffffffffffffffffffffffffffffffffffffff160362000993576040517fd92e233d00000000000000000000000000000000000000000000000000000000815260040160405180910390fd5b80600a5f6101000a81548173ffffffffffffffffffffffffffffffffffffffff021916908373ffffffffffffffffffffffffffffffffffffffff1602179055508073ffffffffffffffffffffffffffffffffffffffff167fe43176ad83b85c7f6487987d0f13cbdc9e4a7010bfbf3148a181d1247e12067f60405160405180910390a250565b5f81830382841102905092915050565b5f8373ffffffffffffffffffffffffffffffffffffffff1663095ea7b3848460405160240162000a5b92919062001527565b604051602081830303815290604052915060e01b6020820180517bffffffffffffffffffffffffffffffffffffffffffffffffffffffff8381831617835250505050905062000ab1848262000bee60201b60201c565b62000b4d5762000b3a848573ffffffffffffffffffffffffffffffffffffffff1663095ea7b3865f60405160240162000aec92919062001593565b604051602081830303815290604052915060e01b6020820180517bffffffffffffffffffffffffffffffffffffffffffffffffffffffff838183161783525050505062000c4a60201b60201c565b62000b4c848262000c4a60201b60201c565b5b50505050565b5f80829050601f8151111562000ba257826040517f305a27a900000000000000000000000000000000000000000000000000000000815260040162000b9991906200160e565b60405180910390fd5b80518162000bb09062001655565b5f1c175f1b915050919050565b5f819050919050565b5f600a5f9054906101000a900473ffffffffffffffffffffffffffffffffffffffff16905090565b5f805f8060205f8651602088015f8a5af192503d91505f51905082801562000c3f57505f821462000c23576001811462000c3e565b5f8673ffffffffffffffffffffffffffffffffffffffff163b115b5b935050505092915050565b5f8060205f8451602086015f885af18062000c6a576040513d5f823e3d81fd5b3d92505f519150505f821462000c8557600181141562000ca0565b5f8473ffffffffffffffffffffffffffffffffffffffff163b145b1562000ce557836040517f5274afe700000000000000000000000000000000000000000000000000000000815260040162000cdc91906200135a565b60405180910390fd5b50505050565b5f604051905090565b5f80fd5b5f80fd5b5f73ffffffffffffffffffffffffffffffffffffffff82169050919050565b5f62000d278262000cfc565b9050919050565b62000d398162000d1b565b811462000d44575f80fd5b50565b5f8151905062000d578162000d2e565b92915050565b5f80fd5b5f80fd5b5f601f19601f8301169050919050565b7f4e487b71000000000000000000000000000000000000000000000000000000005f52604160045260245ffd5b62000dad8262000d65565b810181811067ffffffffffffffff8211171562000dcf5762000dce62000d75565b5b80604052505050565b5f62000de362000ceb565b905062000df1828262000da2565b919050565b5f67ffffffffffffffff82111562000e135762000e1262000d75565b5b62000e1e8262000d65565b9050602081019050919050565b5f5b8381101562000e4a57808201518184015260208101905062000e2d565b5f8484015250505050565b5f62000e6b62000e658462000df6565b62000dd8565b90508281526020810184848401111562000e8a5762000e8962000d61565b5b62000e9784828562000e2b565b509392505050565b5f82601f83011262000eb65762000eb562000d5d565b5b815162000ec884826020860162000e55565b91505092915050565b5f6bffffffffffffffffffffffff82169050919050565b62000ef38162000ed1565b811462000efe575f80fd5b50565b5f8151905062000f118162000ee8565b92915050565b5f805f805f805f805f6101208a8c03121562000f385762000f3762000cf4565b5b5f62000f478c828d0162000d47565b995050602062000f5a8c828d0162000d47565b985050604062000f6d8c828d0162000d47565b975050606062000f808c828d0162000d47565b96505060808a015167ffffffffffffffff81111562000fa45762000fa362000cf8565b5b62000fb28c828d0162000e9f565b95505060a08a015167ffffffffffffffff81111562000fd65762000fd562000cf8565b5b62000fe48c828d0162000e9f565b94505060c062000ff78c828d0162000d47565b93505060e06200100a8c828d0162000d47565b9250506101006200101e8c828d0162000f01565b9150509295985092959850929598565b5f81519050919050565b7f4e487b71000000000000000000000000000000000000000000000000000000005f52602260045260245ffd5b5f60028204905060018216806200107d57607f821691505b60208210810362001093576200109262001038565b5b50919050565b5f819050815f5260205f209050919050565b5f6020601f8301049050919050565b5f82821b905092915050565b5f60088302620010f77fffffffffffffffffffffffffffffffffffffffffffffffffffffffffffffffff82620010ba565b620011038683620010ba565b95508019841693508086168417925050509392505050565b5f819050919050565b5f819050919050565b5f6200114d6200114762001141846200111b565b62001124565b6200111b565b9050919050565b5f819050919050565b62001168836200112d565b62001180620011778262001154565b848454620010c6565b825550505050565b5f90565b6200119662001188565b620011a38184846200115d565b505050565b5b81811015620011ca57620011be5f826200118c565b600181019050620011a9565b5050565b601f8211156200121957620011e38162001099565b620011ee84620010ab565b81016020851015620011fe578190505b620012166200120d85620010ab565b830182620011a8565b50505b505050565b5f82821c905092915050565b5f6200123b5f19846008026200121e565b1980831691505092915050565b5f6200125583836200122a565b9150826002028217905092915050565b62001270826200102e565b67ffffffffffffffff8111156200128c576200128b62000d75565b5b62001298825462001065565b620012a5828285620011ce565b5f60209050601f831160018114620012db575f8415620012c6578287015190505b620012d2858262001248565b86555062001341565b601f198416620012eb8662001099565b5f5b828110156200131457848901518255600182019150602085019450602081019050620012ed565b8683101562001334578489015162001330601f8916826200122a565b8355505b6001600288020188555050505b505050505050565b620013548162000d1b565b82525050565b5f6020820190506200136f5f83018462001349565b92915050565b5f60ff82169050919050565b6200138c8162001375565b811462001397575f80fd5b50565b5f81519050620013aa8162001381565b92915050565b5f60208284031215620013c857620013c762000cf4565b5b5f620013d7848285016200139a565b91505092915050565b5f81519050919050565b5f81905092915050565b5f6200140082620013e0565b6200140c8185620013ea565b93506200141e81856020860162000e2b565b80840191505092915050565b5f620014378284620013f4565b915081905092915050565b6200144d816200111b565b811462001458575f80fd5b50565b5f815190506200146b8162001442565b92915050565b5f6020828403121562001489576200148862000cf4565b5b5f62001498848285016200145b565b91505092915050565b5f819050919050565b620014b581620014a1565b82525050565b620014c6816200111b565b82525050565b5f60a082019050620014e15f830188620014aa565b620014f06020830187620014aa565b620014ff6040830186620014aa565b6200150e6060830185620014bb565b6200151d608083018462001349565b9695505050505050565b5f6040820190506200153c5f83018562001349565b6200154b6020830184620014bb565b9392505050565b5f819050919050565b5f6200157b620015756200156f8462001552565b62001124565b6200111b565b9050919050565b6200158d816200155b565b82525050565b5f604082019050620015a85f83018562001349565b620015b7602083018462001582565b9392505050565b5f82825260208201905092915050565b5f620015da826200102e565b620015e68185620015be565b9350620015f881856020860162000e2b565b620016038162000d65565b840191505092915050565b5f6020820190508181035f830152620016288184620015ce565b905092915050565b5f819050602082019050919050565b5f6200164c8251620014a1565b80915050919050565b5f6200166182620013e0565b826200166d8462001630565b90506200167a816200163f565b92506020821015620016bd57620016b87fffffffffffffffffffffffffffffffffffffffffffffffffffffffffffffffff83602003600802620010ba565b831692505b5050919050565b60805160a05160c05160e05161010051610120516101405161016051610180516101a0516101c0516149806200177d5f395f81816116700152612e6c01525f818161097b015281816109b701528181610dcd015281816120350152818161238a015281816126e201526127d701525f61258d01525f61255201525f612ed501525f612eb401525f611f7f01525f611fd501525f611ffe01525f611f4e01525f8181610d9701528181612ff6015261321c01526149805ff3fe608060405234801561000f575f80fd5b506004361061029e575f3560e01c806384b0196e11610165578063c6e6f592116100cc578063e30c397811610085578063e30c3978146108b8578063e562dfd6146108d6578063e74b981b146108f4578063ef8b30f714610910578063f07cef3e14610940578063f2fde38b1461095c5761029e565b8063c6e6f592146107be578063ce96cb77146107ee578063d505accf1461081e578063d905777e1461083a578063dd62ed3e1461086a578063ddca3f431461089a5761029e565b8063aea70acc1161011e578063aea70acc146106d6578063b26cc394146106f4578063b3d7f6b9146106fe578063b460af941461072e578063ba0876521461075e578063c63d75b61461078e5761029e565b806384b0196e146105e65780638da5cb5b1461060a57806394bf804d1461062857806395d89b4114610658578063a9059cbb14610676578063ac9650d8146106a65761029e565b8063411557d11161020957806369fe0e2d116101c257806369fe0e2d146105265780636e553f651461054257806370a0823114610572578063715018a6146105a257806379ba5097146105ac5780637ecebe00146105b65761029e565b8063411557d11461046257806346904840146104805780634bde38c81461049e5780634cdad506146104bc578063568efc07146104ec5780636945c5ea1461050a5761029e565b806318160ddd1161025b57806318160ddd1461038a57806323b872dd146103a8578063313ce567146103d85780633644e515146103f657806338d52e0f14610414578063402d267d146104325761029e565b806301e1d114146102a257806306ec16f8146102c057806306fdde03146102dc57806307a2d13a146102fa578063095ea7b31461032a5780630a28a4771461035a575b5f80fd5b6102aa610978565b6040516102b791906138c6565b60405180910390f35b6102da60048036038101906102d59190613941565b610aad565b005b6102e4610c6a565b6040516102f191906139f6565b60405180910390f35b610314600480360381019061030f9190613a40565b610cfa565b60405161032191906138c6565b60405180910390f35b610344600480360381019061033f9190613a6b565b610d0c565b6040516103519190613ac3565b60405180910390f35b610374600480360381019061036f9190613a40565b610d2e565b60405161038191906138c6565b60405180910390f35b610392610d41565b60405161039f91906138c6565b60405180910390f35b6103c260048036038101906103bd9190613adc565b610d4a565b6040516103cf9190613ac3565b60405180910390f35b6103e0610d78565b6040516103ed9190613b47565b60405180910390f35b6103fe610d86565b60405161040b9190613b78565b60405180910390f35b61041c610d94565b6040516104299190613ba0565b60405180910390f35b61044c60048036038101906104479190613941565b610dbb565b60405161045991906138c6565b60405180910390f35b61046a610dcb565b6040516104779190613c14565b60405180910390f35b610488610def565b6040516104959190613ba0565b60405180910390f35b6104a6610e14565b6040516104b39190613ba0565b60405180910390f35b6104d660048036038101906104d19190613a40565b610e3c565b6040516104e391906138c6565b60405180910390f35b6104f4610e4e565b60405161050191906138c6565b60405180910390f35b610524600480360381019061051f9190613941565b610e54565b005b610540600480360381019061053b9190613a40565b610f82565b005b61055c60048036038101906105579190613c2d565b61116b565b60405161056991906138c6565b60405180910390f35b61058c60048036038101906105879190613941565b6111ad565b60405161059991906138c6565b60405180910390f35b6105aa6111f2565b005b6105b4611205565b005b6105d060048036038101906105cb9190613941565b6112b7565b6040516105dd91906138c6565b60405180910390f35b6105ee6112c8565b6040516106019796959493929190613d5c565b60405180910390f35b61061261136d565b60405161061f9190613ba0565b60405180910390f35b610642600480360381019061063d9190613c2d565b611395565b60405161064f91906138c6565b60405180910390f35b6106606113d8565b60405161066d91906139f6565b60405180910390f35b610690600480360381019061068b9190613a6b565b611468565b60405161069d9190613ac3565b60405180910390f35b6106c060048036038101906106bb9190613e3f565b61148a565b6040516106cd9190613f97565b60405180910390f35b6106de61166e565b6040516106eb9190613b47565b60405180910390f35b6106fc611692565b005b61071860048036038101906107139190613a40565b6116a4565b60405161072591906138c6565b60405180910390f35b61074860048036038101906107439190613fb7565b6116b7565b60405161075591906138c6565b60405180910390f35b61077860048036038101906107739190613fb7565b611710565b60405161078591906138c6565b60405180910390f35b6107a860048036038101906107a39190613941565b611768565b6040516107b591906138c6565b60405180910390f35b6107d860048036038101906107d39190613a40565b611786565b6040516107e591906138c6565b60405180910390f35b61080860048036038101906108039190613941565b611798565b60405161081591906138c6565b60405180910390f35b6108386004803603810190610833919061405b565b6117ae565b005b610854600480360381019061084f9190613941565b6118f3565b60405161086191906138c6565b60405180910390f35b610884600480360381019061087f91906140f8565b61191c565b60405161089191906138c6565b60405180910390f35b6108a261199e565b6040516108af919061415c565b60405180910390f35b6108c06119bc565b6040516108cd9190613ba0565b60405180910390f35b6108de6119e4565b6040516108eb9190613ba0565b60405180910390f35b61090e60048036038101906109099190613941565b611a09565b005b61092a60048036038101906109259190613a40565b611a97565b60405161093791906138c6565b60405180910390f35b61095a60048036038101906109559190613941565b611aa9565b005b61097660048036038101906109719190613941565b611b37565b005b5f7f000000000000000000000000000000000000000000000000000000000000000073ffffffffffffffffffffffffffffffffffffffff166307a2d13a7f000000000000000000000000000000000000000000000000000000000000000073ffffffffffffffffffffffffffffffffffffffff166370a08231306040518263ffffffff1660e01b8152600401610a0e9190613ba0565b602060405180830381865afa158015610a29573d5f803e3d5ffd5b505050506040513d601f19601f82011682018060405250810190610a4d9190614189565b6040518263ffffffff1660e01b8152600401610a6991906138c6565b602060405180830381865afa158015610a84573d5f803e3d5ffd5b505050506040513d601f19601f82011682018060405250810190610aa89190614189565b905090565b5f73ffffffffffffffffffffffffffffffffffffffff16600c5f9054906101000a900473ffffffffffffffffffffffffffffffffffffffff1673ffffffffffffffffffffffffffffffffffffffff1603610b33576040517fd92e233d00000000000000000000000000000000000000000000000000000000815260040160405180910390fd5b5f8173ffffffffffffffffffffffffffffffffffffffff166370a08231306040518263ffffffff1660e01b8152600401610b6d9190613ba0565b602060405180830381865afa158015610b88573d5f803e3d5ffd5b505050506040513d601f19601f82011682018060405250810190610bac9190614189565b9050610bfa600c5f9054906101000a900473ffffffffffffffffffffffffffffffffffffffff16828473ffffffffffffffffffffffffffffffffffffffff16611cba9092919063ffffffff16565b8173ffffffffffffffffffffffffffffffffffffffff16610c19611d39565b73ffffffffffffffffffffffffffffffffffffffff167f1314fd112a381beea61539dbd21ec04afcff2662ac7d1b83273aade1f53d1b9783604051610c5e91906138c6565b60405180910390a35050565b606060038054610c79906141e1565b80601f0160208091040260200160405190810160405280929190818152602001828054610ca5906141e1565b8015610cf05780601f10610cc757610100808354040283529160200191610cf0565b820191905f5260205f20905b815481529060010190602001808311610cd357829003601f168201915b5050505050905090565b5f610d05825f611d40565b9050919050565b5f80610d16611d39565b9050610d23818585611d77565b600191505092915050565b5f610d3a826001611d89565b9050919050565b5f600254905090565b5f80610d54611d39565b9050610d61858285611dc0565b610d6c858585611e53565b60019150509392505050565b5f610d81611f43565b905090565b5f610d8f611f7c565b905090565b5f7f0000000000000000000000000000000000000000000000000000000000000000905090565b5f610dc4612032565b9050919050565b7f000000000000000000000000000000000000000000000000000000000000000081565b600b5f9054906101000a900473ffffffffffffffffffffffffffffffffffffffff1681565b5f600a5f9054906101000a900473ffffffffffffffffffffffffffffffffffffffff16905090565b5f610e47825f611d40565b9050919050565b600d5481565b610e5c610e14565b73ffffffffffffffffffffffffffffffffffffffff16610e7a611d39565b73ffffffffffffffffffffffffffffffffffffffff1614610ec7576040517f5f06a31e00000000000000000000000000000000000000000000000000000000815260040160405180910390fd5b610ecf610e14565b73ffffffffffffffffffffffffffffffffffffffff168173ffffffffffffffffffffffffffffffffffffffff1603610f33576040517fa741a04500000000000000000000000000000000000000000000000000000000815260040160405180910390fd5b610f3c816120d0565b8073ffffffffffffffffffffffffffffffffffffffff167fe43176ad83b85c7f6487987d0f13cbdc9e4a7010bfbf3148a181d1247e12067f60405160405180910390a250565b610f8a612227565b600a60149054906101000a90046bffffffffffffffffffffffff166bffffffffffffffffffffffff168103610feb576040517fa741a04500000000000000000000000000000000000000000000000000000000815260040160405180910390fd5b6706f05b59d3b2000081111561102d576040517ff4df6ae500000000000000000000000000000000000000000000000000000000815260040160405180910390fd5b5f811415801561108957505f73ffffffffffffffffffffffffffffffffffffffff16600b5f9054906101000a900473ffffffffffffffffffffffffffffffffffffffff1673ffffffffffffffffffffffffffffffffffffffff16145b156110c0576040517fcff9f19400000000000000000000000000000000000000000000000000000000815260040160405180910390fd5b6110c8611692565b80600a60146101000a8154816bffffffffffffffffffffffff02191690836bffffffffffffffffffffffff160217905550611101611d39565b73ffffffffffffffffffffffffffffffffffffffff167f01fe2943baee27f47add82886c2200f910c749c461c9b63c5fe83901a53bdb49600a60149054906101000a90046bffffffffffffffffffffffff166040516111609190614241565b60405180910390a250565b5f806111756122ae565b905080600d819055506111918461118a610d41565b835f612330565b91506111a661119e611d39565b84868561237c565b5092915050565b5f805f8373ffffffffffffffffffffffffffffffffffffffff1673ffffffffffffffffffffffffffffffffffffffff1681526020019081526020015f20549050919050565b6111fa612227565b6112035f612440565b565b5f61120e611d39565b90508073ffffffffffffffffffffffffffffffffffffffff1661122f6119bc565b73ffffffffffffffffffffffffffffffffffffffff161461128757806040517f118cdaa700000000000000000000000000000000000000000000000000000000815260040161127e9190613ba0565b60405180910390fd5b60095f6101000a81549073ffffffffffffffffffffffffffffffffffffffff02191690556112b481612440565b50565b5f6112c182612503565b9050919050565b5f6060805f805f60606112d9612549565b6112e1612584565b46305f801b5f67ffffffffffffffff811115611300576112ff61425a565b5b60405190808252806020026020018201604052801561132e5781602001602082028036833780820191505090505b507f0f00000000000000000000000000000000000000000000000000000000000000959493929190965096509650965096509650965090919293949596565b5f60085f9054906101000a900473ffffffffffffffffffffffffffffffffffffffff16905090565b5f8061139f6122ae565b905080600d819055506113bc846113b4610d41565b8360016125bf565b91506113d16113c9611d39565b84848761237c565b5092915050565b6060600480546113e7906141e1565b80601f0160208091040260200160405190810160405280929190818152602001828054611413906141e1565b801561145e5780601f106114355761010080835404028352916020019161145e565b820191905f5260205f20905b81548152906001019060200180831161144157829003601f168201915b5050505050905090565b5f80611472611d39565b905061147f818585611e53565b600191505092915050565b60605f611495611d39565b73ffffffffffffffffffffffffffffffffffffffff163373ffffffffffffffffffffffffffffffffffffffff1614611535575f366114d161260b565b5f3690506114df91906142b4565b9080926114ee939291906142ef565b8080601f0160208091040260200160405190810160405280939291908181526020018383808284375f81840152601f19601f82011690508083019250505050505050611583565b5f67ffffffffffffffff81111561154f5761154e61425a565b5b6040519080825280601f01601f1916602001820160405280156115815781602001600182028036833780820191505090505b505b90508383905067ffffffffffffffff8111156115a2576115a161425a565b5b6040519080825280602002602001820160405280156115d557816020015b60608152602001906001900390816115c05790505b5091505f5b8484905081101561166657611635308686848181106115fc576115fb614329565b5b905060200281019061160e9190614362565b8560405160200161162193929190614430565b60405160208183030381529060405261260f565b83828151811061164857611647614329565b5b6020026020010181905250808061165e90614455565b9150506115da565b505092915050565b7f000000000000000000000000000000000000000000000000000000000000000081565b6116a261169d6122ae565b61268f565b565b5f6116b0826001611d40565b9050919050565b5f806116c16122ae565b90506116d7856116cf610d41565b836001612330565b91506116f46116ef86836126d090919063ffffffff16565b61268f565b6117086116ff611d39565b858588866126e0565b509392505050565b5f8061171a6122ae565b905061172f85611728610d41565b835f6125bf565b915061174c61174783836126d090919063ffffffff16565b61268f565b611760611757611d39565b858585896126e0565b509392505050565b5f80611772612032565b905061177e815f611d89565b915050919050565b5f611791825f611d89565b9050919050565b5f6117a282612792565b90505080915050919050565b834211156117f357836040517f627913020000000000000000000000000000000000000000000000000000000081526004016117ea91906138c6565b60405180910390fd5b5f7f6e71edae12b1b97f4d1f60370fef10105fa2faae0126114a169c64845d6126c98888886118218c61287c565b896040516020016118379695949392919061449c565b6040516020818303038152906040528051906020012090505f611859826128cf565b90505f611868828787876128e8565b90508973ffffffffffffffffffffffffffffffffffffffff168173ffffffffffffffffffffffffffffffffffffffff16146118dc57808a6040517f4b800e460000000000000000000000000000000000000000000000000000000081526004016118d39291906144fb565b60405180910390fd5b6118e78a8a8a611d77565b50505050505050505050565b5f805f8061190085612792565b9250925092506119128383835f612330565b9350505050919050565b5f60015f8473ffffffffffffffffffffffffffffffffffffffff1673ffffffffffffffffffffffffffffffffffffffff1681526020019081526020015f205f8373ffffffffffffffffffffffffffffffffffffffff1673ffffffffffffffffffffffffffffffffffffffff1681526020019081526020015f2054905092915050565b600a60149054906101000a90046bffffffffffffffffffffffff1681565b5f60095f9054906101000a900473ffffffffffffffffffffffffffffffffffffffff16905090565b600c5f9054906101000a900473ffffffffffffffffffffffffffffffffffffffff1681565b611a11612227565b80600b5f6101000a81548173ffffffffffffffffffffffffffffffffffffffff021916908373ffffffffffffffffffffffffffffffffffffffff1602179055508073ffffffffffffffffffffffffffffffffffffffff167f2e979f80fe4d43055c584cf4a8467c55875ea36728fc37176c05acd784eb7a7360405160405180910390a250565b5f611aa2825f611d89565b9050919050565b611ab1612227565b80600c5f6101000a81548173ffffffffffffffffffffffffffffffffffffffff021916908373ffffffffffffffffffffffffffffffffffffffff1602179055508073ffffffffffffffffffffffffffffffffffffffff167fbf4da31489bf7d607626c05856478443f1ecd2ca7b005fe2f83a45fbd9fe1ee760405160405180910390a250565b611b3f610e14565b73ffffffffffffffffffffffffffffffffffffffff16611b5d611d39565b73ffffffffffffffffffffffffffffffffffffffff1614611baa576040517f5f06a31e00000000000000000000000000000000000000000000000000000000815260040160405180910390fd5b611bb261136d565b73ffffffffffffffffffffffffffffffffffffffff168173ffffffffffffffffffffffffffffffffffffffff1603611c16576040517fa741a04500000000000000000000000000000000000000000000000000000000815260040160405180910390fd5b8060095f6101000a81548173ffffffffffffffffffffffffffffffffffffffff021916908373ffffffffffffffffffffffffffffffffffffffff1602179055508073ffffffffffffffffffffffffffffffffffffffff16611c7561136d565b73ffffffffffffffffffffffffffffffffffffffff167f38d16b8cac22d99fc7c124b9cd0de2d3fa1faef420bfe791d8c362d765e2270060405160405180910390a350565b611d34838473ffffffffffffffffffffffffffffffffffffffff1663a9059cbb8585604051602401611ced929190614522565b604051602081830303815290604052915060e01b6020820180517bffffffffffffffffffffffffffffffffffffffffffffffffffffffff8381831617835250505050612916565b505050565b5f33905090565b5f805f611d4b6129b1565b91509150611d6d8583611d5c610d41565b611d669190614549565b83876125bf565b9250505092915050565b611d848383836001612a81565b505050565b5f805f611d946129b1565b91509150611db68583611da5610d41565b611daf9190614549565b8387612330565b9250505092915050565b5f611dcb848461191c565b90507fffffffffffffffffffffffffffffffffffffffffffffffffffffffffffffffff811015611e4d5781811015611e3e578281836040517ffb8f41b2000000000000000000000000000000000000000000000000000000008152600401611e359392919061457c565b60405180910390fd5b611e4c84848484035f612a81565b5b50505050565b5f73ffffffffffffffffffffffffffffffffffffffff168373ffffffffffffffffffffffffffffffffffffffff1603611ec3575f6040517f96c6fd1e000000000000000000000000000000000000000000000000000000008152600401611eba9190613ba0565b60405180910390fd5b5f73ffffffffffffffffffffffffffffffffffffffff168273ffffffffffffffffffffffffffffffffffffffff1603611f33575f6040517fec442f05000000000000000000000000000000000000000000000000000000008152600401611f2a9190613ba0565b60405180910390fd5b611f3e838383612c50565b505050565b5f611f4c612e69565b7f0000000000000000000000000000000000000000000000000000000000000000611f7791906145b1565b905090565b5f7f000000000000000000000000000000000000000000000000000000000000000073ffffffffffffffffffffffffffffffffffffffff163073ffffffffffffffffffffffffffffffffffffffff16148015611ff757507f000000000000000000000000000000000000000000000000000000000000000046145b15612024577f0000000000000000000000000000000000000000000000000000000000000000905061202f565b61202c612e90565b90505b90565b5f7f000000000000000000000000000000000000000000000000000000000000000073ffffffffffffffffffffffffffffffffffffffff1663402d267d306040518263ffffffff1660e01b815260040161208c9190613ba0565b602060405180830381865afa1580156120a7573d5f803e3d5ffd5b505050506040513d601f19601f820116820180604052508101906120cb9190614189565b905090565b6120d8610e14565b73ffffffffffffffffffffffffffffffffffffffff168173ffffffffffffffffffffffffffffffffffffffff160361213c576040517fa741a04500000000000000000000000000000000000000000000000000000000815260040160405180910390fd5b5f73ffffffffffffffffffffffffffffffffffffffff168173ffffffffffffffffffffffffffffffffffffffff16036121a1576040517fd92e233d00000000000000000000000000000000000000000000000000000000815260040160405180910390fd5b80600a5f6101000a81548173ffffffffffffffffffffffffffffffffffffffff021916908373ffffffffffffffffffffffffffffffffffffffff1602179055508073ffffffffffffffffffffffffffffffffffffffff167fe43176ad83b85c7f6487987d0f13cbdc9e4a7010bfbf3148a181d1247e12067f60405160405180910390a250565b61222f611d39565b73ffffffffffffffffffffffffffffffffffffffff1661224d61136d565b73ffffffffffffffffffffffffffffffffffffffff16146122ac57612270611d39565b6040517f118cdaa70000000000000000000000000000000000000000000000000000000081526004016122a39190613ba0565b60405180910390fd5b565b5f806122b86129b1565b80935081925050505f81146122f3576122f2600b5f9054906101000a900473ffffffffffffffffffffffffffffffffffffffff1682612f25565b5b7ff66f28b40975dbb933913542c7e6a0f50a1d0f20aa74ea6e0efe65ab616323ec82826040516123249291906145e5565b60405180910390a15090565b5f61237261233c612e69565b600a612348919061473b565b856123539190614549565b6001856123609190614549565b8488612fa4909392919063ffffffff16565b9050949350505050565b61238884848484612ff1565b7f000000000000000000000000000000000000000000000000000000000000000073ffffffffffffffffffffffffffffffffffffffff16636e553f6583306040518363ffffffff1660e01b81526004016123e3929190614785565b6020604051808303815f875af11580156123ff573d5f803e3d5ffd5b505050506040513d601f19601f820116820180604052508101906124239190614189565b5061243a82600d546124359190614549565b61268f565b50505050565b5f60085f9054906101000a900473ffffffffffffffffffffffffffffffffffffffff1690508160085f6101000a81548173ffffffffffffffffffffffffffffffffffffffff021916908373ffffffffffffffffffffffffffffffffffffffff1602179055508173ffffffffffffffffffffffffffffffffffffffff168173ffffffffffffffffffffffffffffffffffffffff167f8be0079c531659141344cd1fd0a4f28419497f9722a3daafe3b4186f6b6457e060405160405180910390a35050565b5f60075f8373ffffffffffffffffffffffffffffffffffffffff1673ffffffffffffffffffffffffffffffffffffffff1681526020019081526020015f20549050919050565b606061257f60057f000000000000000000000000000000000000000000000000000000000000000061309490919063ffffffff16565b905090565b60606125ba60067f000000000000000000000000000000000000000000000000000000000000000061309490919063ffffffff16565b905090565b5f6126016001846125d09190614549565b6125d8612e69565b600a6125e4919061473b565b866125ef9190614549565b8488612fa4909392919063ffffffff16565b9050949350505050565b5f90565b60605f808473ffffffffffffffffffffffffffffffffffffffff168460405161263891906147ac565b5f60405180830381855af49150503d805f8114612670576040519150601f19603f3d011682016040523d82523d5f602084013e612675565b606091505b5091509150612685858383613141565b9250505092915050565b80600d819055507f15c027cc4fd826d986cad358803439f7326d3aa4ed969ff90dbee4bc150f68e9816040516126c591906138c6565b60405180910390a150565b5f81830382841102905092915050565b7f000000000000000000000000000000000000000000000000000000000000000073ffffffffffffffffffffffffffffffffffffffff1663b460af948330306040518463ffffffff1660e01b815260040161273d939291906147c2565b6020604051808303815f875af1158015612759573d5f803e3d5ffd5b505050506040513d601f19601f8201168201806040525081019061277d9190614189565b5061278b85858585856131ce565b5050505050565b5f805f8061279e6129b1565b8093508192505050806127af610d41565b6127b99190614549565b92506127cf6127c7866111ad565b84845f6125bf565b9350612872847f000000000000000000000000000000000000000000000000000000000000000073ffffffffffffffffffffffffffffffffffffffff1663ce96cb77306040518263ffffffff1660e01b815260040161282e9190613ba0565b602060405180830381865afa158015612849573d5f803e3d5ffd5b505050506040513d601f19601f8201168201806040525081019061286d9190614189565b6132c7565b9350509193909250565b5f60075f8373ffffffffffffffffffffffffffffffffffffffff1673ffffffffffffffffffffffffffffffffffffffff1681526020019081526020015f205f815480929190600101919050559050919050565b5f6128e16128db611f7c565b836132d9565b9050919050565b5f805f806128f888888888613319565b9250925092506129088282613400565b829350505050949350505050565b5f8060205f8451602086015f885af180612935576040513d5f823e3d81fd5b3d92505f519150505f821461294e576001811415612969565b5f8473ffffffffffffffffffffffffffffffffffffffff163b145b156129ab57836040517f5274afe70000000000000000000000000000000000000000000000000000000081526004016129a29190613ba0565b60405180910390fd5b50505050565b5f806129bb610978565b90505f6129d3600d54836126d090919063ffffffff16565b90505f8114158015612a0d57505f600a60149054906101000a90046bffffffffffffffffffffffff166bffffffffffffffffffffffff1614155b15612a7c575f612a58600a60149054906101000a90046bffffffffffffffffffffffff166bffffffffffffffffffffffff16670de0b6b3a7640000846135629092919063ffffffff16565b9050612a7881612a66610d41565b8386612a7291906142b4565b5f612330565b9350505b509091565b5f73ffffffffffffffffffffffffffffffffffffffff168473ffffffffffffffffffffffffffffffffffffffff1603612af1575f6040517fe602df05000000000000000000000000000000000000000000000000000000008152600401612ae89190613ba0565b60405180910390fd5b5f73ffffffffffffffffffffffffffffffffffffffff168373ffffffffffffffffffffffffffffffffffffffff1603612b61575f6040517f94280d62000000000000000000000000000000000000000000000000000000008152600401612b589190613ba0565b60405180910390fd5b8160015f8673ffffffffffffffffffffffffffffffffffffffff1673ffffffffffffffffffffffffffffffffffffffff1681526020019081526020015f205f8573ffffffffffffffffffffffffffffffffffffffff1673ffffffffffffffffffffffffffffffffffffffff1681526020019081526020015f20819055508015612c4a578273ffffffffffffffffffffffffffffffffffffffff168473ffffffffffffffffffffffffffffffffffffffff167f8c5be1e5ebec7d5bd14f71427d1e84f3dd0314c0f7b2291e5b200ac8c7c3b92584604051612c4191906138c6565b60405180910390a35b50505050565b5f73ffffffffffffffffffffffffffffffffffffffff168373ffffffffffffffffffffffffffffffffffffffff1603612ca0578060025f828254612c949190614549565b92505081905550612d6e565b5f805f8573ffffffffffffffffffffffffffffffffffffffff1673ffffffffffffffffffffffffffffffffffffffff1681526020019081526020015f2054905081811015612d29578381836040517fe450d38c000000000000000000000000000000000000000000000000000000008152600401612d209392919061457c565b60405180910390fd5b8181035f808673ffffffffffffffffffffffffffffffffffffffff1673ffffffffffffffffffffffffffffffffffffffff1681526020019081526020015f2081905550505b5f73ffffffffffffffffffffffffffffffffffffffff168273ffffffffffffffffffffffffffffffffffffffff1603612db5578060025f8282540392505081905550612dff565b805f808473ffffffffffffffffffffffffffffffffffffffff1673ffffffffffffffffffffffffffffffffffffffff1681526020019081526020015f205f82825401925050819055505b8173ffffffffffffffffffffffffffffffffffffffff168373ffffffffffffffffffffffffffffffffffffffff167fddf252ad1be2c89b69c2b068fc378daa952ba7f163c4a11628f55a4df523b3ef83604051612e5c91906138c6565b60405180910390a3505050565b5f7f0000000000000000000000000000000000000000000000000000000000000000905090565b5f7f8b73c3c69bb8fe3d512ecc4cf759cc79239f7b179b0ffacaa9a75d522b39400f7f00000000000000000000000000000000000000000000000000000000000000007f00000000000000000000000000000000000000000000000000000000000000004630604051602001612f0a9594939291906147f7565b60405160208183030381529060405280519060200120905090565b5f73ffffffffffffffffffffffffffffffffffffffff168273ffffffffffffffffffffffffffffffffffffffff1603612f95575f6040517fec442f05000000000000000000000000000000000000000000000000000000008152600401612f8c9190613ba0565b60405180910390fd5b612fa05f8383612c50565b5050565b5f612fd2612fb183613647565b8015612fcd57505f8480612fc857612fc7614848565b5b868809115b613674565b612fdd868686613562565b612fe79190614549565b9050949350505050565b61301d7f000000000000000000000000000000000000000000000000000000000000000085308561367f565b6130278382612f25565b8273ffffffffffffffffffffffffffffffffffffffff168473ffffffffffffffffffffffffffffffffffffffff167fdcbc1c05240f31ff3ad067ef1ee35ce4997762752e3a095284754544f4c709d784846040516130869291906145e5565b60405180910390a350505050565b606060ff5f1b83146130b0576130a983613701565b905061313b565b8180546130bc906141e1565b80601f01602080910402602001604051908101604052809291908181526020018280546130e8906141e1565b80156131335780601f1061310a57610100808354040283529160200191613133565b820191905f5260205f20905b81548152906001019060200180831161311657829003601f168201915b505050505090505b92915050565b6060826131565761315182613773565b6131c6565b5f825114801561317c57505f8473ffffffffffffffffffffffffffffffffffffffff163b145b156131be57836040517f9996b3150000000000000000000000000000000000000000000000000000000081526004016131b59190613ba0565b60405180910390fd5b8190506131c7565b5b9392505050565b8273ffffffffffffffffffffffffffffffffffffffff168573ffffffffffffffffffffffffffffffffffffffff161461320d5761320c838683611dc0565b5b61321783826137b7565b6132427f00000000000000000000000000000000000000000000000000000000000000008584611cba565b8273ffffffffffffffffffffffffffffffffffffffff168473ffffffffffffffffffffffffffffffffffffffff168673ffffffffffffffffffffffffffffffffffffffff167ffbde797d201c681b91056529119e0b02407c7bb96a4a2c75c01fc9667232c8db85856040516132b89291906145e5565b60405180910390a45050505050565b5f828210828418028318905092915050565b5f6040517f190100000000000000000000000000000000000000000000000000000000000081528360028201528260228201526042812091505092915050565b5f805f7f7fffffffffffffffffffffffffffffff5d576e7357a4501ddfe92f46681b20a0845f1c1115613355575f6003859250925092506133f6565b5f6001888888886040515f81526020016040526040516133789493929190614875565b6020604051602081039080840390855afa158015613398573d5f803e3d5ffd5b5050506020604051035190505f73ffffffffffffffffffffffffffffffffffffffff168173ffffffffffffffffffffffffffffffffffffffff16036133e9575f60015f801b935093509350506133f6565b805f805f1b935093509350505b9450945094915050565b5f6003811115613413576134126148b8565b5b826003811115613426576134256148b8565b5b031561355e57600160038111156134405761343f6148b8565b5b826003811115613453576134526148b8565b5b0361348a576040517ff645eedf00000000000000000000000000000000000000000000000000000000815260040160405180910390fd5b6002600381111561349e5761349d6148b8565b5b8260038111156134b1576134b06148b8565b5b036134f557805f1c6040517ffce698f70000000000000000000000000000000000000000000000000000000081526004016134ec91906138c6565b60405180910390fd5b600380811115613508576135076148b8565b5b82600381111561351b5761351a6148b8565b5b0361355d57806040517fd78bce0c0000000000000000000000000000000000000000000000000000000081526004016135549190613b78565b60405180910390fd5b5b5050565b5f8083850290505f8019858709828110838203039150505f810361359a578382816135905761358f614848565b5b0492505050613640565b8084116135b9576135b86135b35f861460126011613836565b61384f565b5b5f8486880990508281118203915080830392505f855f038616905080860495508084049350600181825f0304019050808302841793505f600287600302189050808702600203810290508087026002038102905080870260020381029050808702600203810290508087026002038102905080870260020381029050808502955050505050505b9392505050565b5f6001600283600381111561365f5761365e6148b8565b5b61366991906148e5565b60ff16149050919050565b5f8115159050919050565b6136fb848573ffffffffffffffffffffffffffffffffffffffff166323b872dd8686866040516024016136b493929190614915565b604051602081830303815290604052915060e01b6020820180517bffffffffffffffffffffffffffffffffffffffffffffffffffffffff8381831617835250505050612916565b50505050565b60605f61370d83613860565b90505f602067ffffffffffffffff81111561372b5761372a61425a565b5b6040519080825280601f01601f19166020018201604052801561375d5781602001600182028036833780820191505090505b5090508181528360208201528092505050919050565b5f815111156137855780518082602001fd5b6040517fd6bda27500000000000000000000000000000000000000000000000000000000815260040160405180910390fd5b5f73ffffffffffffffffffffffffffffffffffffffff168273ffffffffffffffffffffffffffffffffffffffff1603613827575f6040517f96c6fd1e00000000000000000000000000000000000000000000000000000000815260040161381e9190613ba0565b60405180910390fd5b613832825f83612c50565b5050565b5f61384084613674565b82841802821890509392505050565b634e487b715f52806020526024601cfd5b5f8060ff835f1c169050601f8111156138a5576040517fb3512b0c00000000000000000000000000000000000000000000000000000000815260040160405180910390fd5b80915050919050565b5f819050919050565b6138c0816138ae565b82525050565b5f6020820190506138d95f8301846138b7565b92915050565b5f80fd5b5f80fd5b5f73ffffffffffffffffffffffffffffffffffffffff82169050919050565b5f613910826138e7565b9050919050565b61392081613906565b811461392a575f80fd5b50565b5f8135905061393b81613917565b92915050565b5f60208284031215613956576139556138df565b5b5f6139638482850161392d565b91505092915050565b5f81519050919050565b5f82825260208201905092915050565b5f5b838110156139a3578082015181840152602081019050613988565b5f8484015250505050565b5f601f19601f8301169050919050565b5f6139c88261396c565b6139d28185613976565b93506139e2818560208601613986565b6139eb816139ae565b840191505092915050565b5f6020820190508181035f830152613a0e81846139be565b905092915050565b613a1f816138ae565b8114613a29575f80fd5b50565b5f81359050613a3a81613a16565b92915050565b5f60208284031215613a5557613a546138df565b5b5f613a6284828501613a2c565b91505092915050565b5f8060408385031215613a8157613a806138df565b5b5f613a8e8582860161392d565b9250506020613a9f85828601613a2c565b9150509250929050565b5f8115159050919050565b613abd81613aa9565b82525050565b5f602082019050613ad65f830184613ab4565b92915050565b5f805f60608486031215613af357613af26138df565b5b5f613b008682870161392d565b9350506020613b118682870161392d565b9250506040613b2286828701613a2c565b9150509250925092565b5f60ff82169050919050565b613b4181613b2c565b82525050565b5f602082019050613b5a5f830184613b38565b92915050565b5f819050919050565b613b7281613b60565b82525050565b5f602082019050613b8b5f830184613b69565b92915050565b613b9a81613906565b82525050565b5f602082019050613bb35f830184613b91565b92915050565b5f819050919050565b5f613bdc613bd7613bd2846138e7565b613bb9565b6138e7565b9050919050565b5f613bed82613bc2565b9050919050565b5f613bfe82613be3565b9050919050565b613c0e81613bf4565b82525050565b5f602082019050613c275f830184613c05565b92915050565b5f8060408385031215613c4357613c426138df565b5b5f613c5085828601613a2c565b9250506020613c618582860161392d565b9150509250929050565b5f7fff0000000000000000000000000000000000000000000000000000000000000082169050919050565b613c9f81613c6b565b82525050565b5f81519050919050565b5f82825260208201905092915050565b5f819050602082019050919050565b613cd7816138ae565b82525050565b5f613ce88383613cce565b60208301905092915050565b5f602082019050919050565b5f613d0a82613ca5565b613d148185613caf565b9350613d1f83613cbf565b805f5b83811015613d4f578151613d368882613cdd565b9750613d4183613cf4565b925050600181019050613d22565b5085935050505092915050565b5f60e082019050613d6f5f83018a613c96565b8181036020830152613d8181896139be565b90508181036040830152613d9581886139be565b9050613da460608301876138b7565b613db16080830186613b91565b613dbe60a0830185613b69565b81810360c0830152613dd08184613d00565b905098975050505050505050565b5f80fd5b5f80fd5b5f80fd5b5f8083601f840112613dff57613dfe613dde565b5b8235905067ffffffffffffffff811115613e1c57613e1b613de2565b5b602083019150836020820283011115613e3857613e37613de6565b5b9250929050565b5f8060208385031215613e5557613e546138df565b5b5f83013567ffffffffffffffff811115613e7257613e716138e3565b5b613e7e85828601613dea565b92509250509250929050565b5f81519050919050565b5f82825260208201905092915050565b5f819050602082019050919050565b5f81519050919050565b5f82825260208201905092915050565b5f613ed782613eb3565b613ee18185613ebd565b9350613ef1818560208601613986565b613efa816139ae565b840191505092915050565b5f613f108383613ecd565b905092915050565b5f602082019050919050565b5f613f2e82613e8a565b613f388185613e94565b935083602082028501613f4a85613ea4565b805f5b85811015613f855784840389528151613f668582613f05565b9450613f7183613f18565b925060208a01995050600181019050613f4d565b50829750879550505050505092915050565b5f6020820190508181035f830152613faf8184613f24565b905092915050565b5f805f60608486031215613fce57613fcd6138df565b5b5f613fdb86828701613a2c565b9350506020613fec8682870161392d565b9250506040613ffd8682870161392d565b9150509250925092565b61401081613b2c565b811461401a575f80fd5b50565b5f8135905061402b81614007565b92915050565b61403a81613b60565b8114614044575f80fd5b50565b5f8135905061405581614031565b92915050565b5f805f805f805f60e0888a031215614076576140756138df565b5b5f6140838a828b0161392d565b97505060206140948a828b0161392d565b96505060406140a58a828b01613a2c565b95505060606140b68a828b01613a2c565b94505060806140c78a828b0161401d565b93505060a06140d88a828b01614047565b92505060c06140e98a828b01614047565b91505092959891949750929550565b5f806040838503121561410e5761410d6138df565b5b5f61411b8582860161392d565b925050602061412c8582860161392d565b9150509250929050565b5f6bffffffffffffffffffffffff82169050919050565b61415681614136565b82525050565b5f60208201905061416f5f83018461414d565b92915050565b5f8151905061418381613a16565b92915050565b5f6020828403121561419e5761419d6138df565b5b5f6141ab84828501614175565b91505092915050565b7f4e487b71000000000000000000000000000000000000000000000000000000005f52602260045260245ffd5b5f60028204905060018216806141f857607f821691505b60208210810361420b5761420a6141b4565b5b50919050565b5f61422b61422661422184614136565b613bb9565b6138ae565b9050919050565b61423b81614211565b82525050565b5f6020820190506142545f830184614232565b92915050565b7f4e487b71000000000000000000000000000000000000000000000000000000005f52604160045260245ffd5b7f4e487b71000000000000000000000000000000000000000000000000000000005f52601160045260245ffd5b5f6142be826138ae565b91506142c9836138ae565b92508282039050818111156142e1576142e0614287565b5b92915050565b5f80fd5b5f80fd5b5f8085851115614302576143016142e7565b5b83861115614313576143126142eb565b5b6001850283019150848603905094509492505050565b7f4e487b71000000000000000000000000000000000000000000000000000000005f52603260045260245ffd5b5f80fd5b5f80fd5b5f80fd5b5f808335600160200384360303811261437e5761437d614356565b5b80840192508235915067ffffffffffffffff8211156143a05761439f61435a565b5b6020830192506001820236038313156143bc576143bb61435e565b5b509250929050565b5f81905092915050565b828183375f83830152505050565b5f6143e783856143c4565b93506143f48385846143ce565b82840190509392505050565b5f61440a82613eb3565b61441481856143c4565b9350614424818560208601613986565b80840191505092915050565b5f61443c8285876143dc565b91506144488284614400565b9150819050949350505050565b5f61445f826138ae565b91507fffffffffffffffffffffffffffffffffffffffffffffffffffffffffffffffff820361449157614490614287565b5b600182019050919050565b5f60c0820190506144af5f830189613b69565b6144bc6020830188613b91565b6144c96040830187613b91565b6144d660608301866138b7565b6144e360808301856138b7565b6144f060a08301846138b7565b979650505050505050565b5f60408201905061450e5f830185613b91565b61451b6020830184613b91565b9392505050565b5f6040820190506145355f830185613b91565b61454260208301846138b7565b9392505050565b5f614553826138ae565b915061455e836138ae565b925082820190508082111561457657614575614287565b5b92915050565b5f60608201905061458f5f830186613b91565b61459c60208301856138b7565b6145a960408301846138b7565b949350505050565b5f6145bb82613b2c565b91506145c683613b2c565b9250828201905060ff8111156145df576145de614287565b5b92915050565b5f6040820190506145f85f8301856138b7565b61460560208301846138b7565b9392505050565b5f8160011c9050919050565b5f808291508390505b60018511156146615780860481111561463d5761463c614287565b5b600185161561464c5780820291505b808102905061465a8561460c565b9450614621565b94509492505050565b5f826146795760019050614734565b81614686575f9050614734565b816001811461469c57600281146146a6576146d5565b6001915050614734565b60ff8411156146b8576146b7614287565b5b8360020a9150848211156146cf576146ce614287565b5b50614734565b5060208310610133831016604e8410600b841016171561470a5782820a90508381111561470557614704614287565b5b614734565b6147178484846001614618565b9250905081840481111561472e5761472d614287565b5b81810290505b9392505050565b5f614745826138ae565b915061475083613b2c565b925061477d7fffffffffffffffffffffffffffffffffffffffffffffffffffffffffffffffff848461466a565b905092915050565b5f6040820190506147985f8301856138b7565b6147a56020830184613b91565b9392505050565b5f6147b78284614400565b915081905092915050565b5f6060820190506147d55f8301866138b7565b6147e26020830185613b91565b6147ef6040830184613b91565b949350505050565b5f60a08201905061480a5f830188613b69565b6148176020830187613b69565b6148246040830186613b69565b61483160608301856138b7565b61483e6080830184613b91565b9695505050505050565b7f4e487b71000000000000000000000000000000000000000000000000000000005f52601260045260245ffd5b5f6080820190506148885f830187613b69565b6148956020830186613b38565b6148a26040830185613b69565b6148af6060830184613b69565b95945050505050565b7f4e487b71000000000000000000000000000000000000000000000000000000005f52602160045260245ffd5b5f6148ef82613b2c565b91506148fa83613b2c565b92508261490a57614909614848565b5b828206905092915050565b5f6060820190506149285f830186613b91565b6149356020830185613b91565b61494260408301846138b7565b94935050505056fea2646970667358221220329725882b7616c22da7eaeb0599174b799c486655fa99bd4466ce9c1af9b1f464736f6c63430008150033","linkReferences":{}},"methodIdentifiers":{"DECIMALS_OFFSET()":"aea70acc","DOMAIN_SEPARATOR()":"3644e515","VAULT()":"411557d1","acceptOwnership()":"79ba5097","accrueFee()":"b26cc394","allowance(address,address)":"dd62ed3e","approve(address,uint256)":"095ea7b3","asset()":"38d52e0f","balanceOf(address)":"70a08231","collect(address)":"06ec16f8","collections()":"e562dfd6","convertToAssets(uint256)":"07a2d13a","convertToShares(uint256)":"c6e6f592","decimals()":"313ce567","deposit(uint256,address)":"6e553f65","eip712Domain()":"84b0196e","fee()":"ddca3f43","feeRecipient()":"46904840","lastTotalAssets()":"568efc07","maxDeposit(address)":"402d267d","maxMint(address)":"c63d75b6","maxRedeem(address)":"d905777e","maxWithdraw(address)":"ce96cb77","mint(uint256,address)":"94bf804d","multicall(bytes[])":"ac9650d8","name()":"06fdde03","nonces(address)":"7ecebe00","owner()":"8da5cb5b","pendingOwner()":"e30c3978","permit(address,address,uint256,uint256,uint8,bytes32,bytes32)":"d505accf","platform()":"4bde38c8","previewDeposit(uint256)":"ef8b30f7","previewMint(uint256)":"b3d7f6b9","previewRedeem(uint256)":"4cdad506","previewWithdraw(uint256)":"0a28a477","redeem(uint256,address,address)":"ba087652","renounceOwnership()":"715018a6","setCollections(address)":"f07cef3e","setFee(uint256)":"69fe0e2d","setFeeRecipient(address)":"e74b981b","setPlatform(address)":"6945c5ea","symbol()":"95d89b41","totalAssets()":"01e1d114","totalSupply()":"18160ddd","transfer(address,uint256)":"a9059cbb","transferFrom(address,address,uint256)":"23b872dd","transferOwnership(address)":"f2fde38b","withdraw(uint256,address,address)":"b460af94"},"id":122}