{"abi":[{"type":"constructor","inputs":[{"name":"_asset","type":"address","internalType":"contract IERC20"},{"name":"_name","type":"string","internalType":"string"},{"name":"_symbol","type":"string","internalType":"string"}],"stateMutability":"nonpayable"},{"type":"function","name":"allowance","inputs":[{"name":"owner","type":"address","internalType":"address"},{"name":"spender","type":"address","internalType":"address"}],"outputs":[{"name":"","type":"uint256","internalType":"uint256"}],"stateMutability":"view"},{"type":"function","name":"approve","inputs":[{"name":"spender","type":"address","internalType":"address"},{"name":"value","type":"uint256","internalType":"uint256"}],"outputs":[{"name":"","type":"bool","internalType":"bool"}],"stateMutability":"nonpayable"},{"type":"function","name":"asset","inputs":[],"outputs":[{"name":"","type":"address","internalType":"address"}],"stateMutability":"view"},{"type":"function","name":"balanceOf","inputs":[{"name":"account","type":"address","internalType":"address"}],"outputs":[{"name":"","type":"uint256","internalType":"uint256"}],"stateMutability":"view"},{"type":"function","name":"convertToAssets","inputs":[{"name":"shares","type":"uint256","internalType":"uint256"}],"outputs":[{"name":"","type":"uint256","internalType":"uint256"}],"stateMutability":"view"},{"type":"function","name":"convertToShares","inputs":[{"name":"assets","type":"uint256","internalType":"uint256"}],"outputs":[{"name":"","type":"uint256","internalType":"uint256"}],"stateMutability":"view"},{"type":"function","name":"decimals","inputs":[],"outputs":[{"name":"","type":"uint8","internalType":"uint8"}],"stateMutability":"view"},{"type":"function","name":"deposit","inputs":[{"name":"assets","type":"uint256","internalType":"uint256"},{"name":"receiver","type":"address","internalType":"address"}],"outputs":[{"name":"","type":"uint256","internalType":"uint256"}],"stateMutability":"nonpayable"},{"type":"function","name":"maxDeposit","inputs":[{"name":"","type":"address","internalType":"address"}],"outputs":[{"name":"","type":"uint256","internalType":"uint256"}],"stateMutability":"view"},{"type":"function","name":"maxMint","inputs":[{"name":"","type":"address","internalType":"address"}],"outputs":[{"name":"","type":"uint256","internalType":"uint256"}],"stateMutability":"view"},{"type":"function","name":"maxRedeem","inputs":[{"name":"owner","type":"address","internalType":"address"}],"outputs":[{"name":"","type":"uint256","internalType":"uint256"}],"stateMutability":"view"},{"type":"function","name":"maxWithdraw","inputs":[{"name":"owner","type":"address","internalType":"address"}],"outputs":[{"name":"","type":"uint256","internalType":"uint256"}],"stateMutability":"view"},{"type":"function","name":"mint","inputs":[{"name":"shares","type":"uint256","internalType":"uint256"},{"name":"receiver","type":"address","internalType":"address"}],"outputs":[{"name":"","type":"uint256","internalType":"uint256"}],"stateMutability":"nonpayable"},{"type":"function","name":"name","inputs":[],"outputs":[{"name":"","type":"string","internalType":"string"}],"stateMutability":"view"},{"type":"function","name":"previewDeposit","inputs":[{"name":"assets","type":"uint256","internalType":"uint256"}],"outputs":[{"name":"","type":"uint256","internalType":"uint256"}],"stateMutability":"view"},{"type":"function","name":"previewMint","inputs":[{"name":"shares","type":"uint256","internalType":"uint256"}],"outputs":[{"name":"","type":"uint256","internalType":"uint256"}],"stateMutability":"view"},{"type":"function","name":"previewRedeem","inputs":[{"name":"shares","type":"uint256","internalType":"uint256"}],"outputs":[{"name":"","type":"uint256","internalType":"uint256"}],"stateMutability":"view"},{"type":"function","name":"previewWithdraw","inputs":[{"name":"assets","type":"uint256","internalType":"uint256"}],"outputs":[{"name":"","type":"uint256","internalType":"uint256"}],"stateMutability":"view"},{"type":"function","name":"redeem","inputs":[{"name":"shares","type":"uint256","internalType":"uint256"},{"name":"receiver","type":"address","internalType":"address"},{"name":"owner","type":"address","internalType":"address"}],"outputs":[{"name":"","type":"uint256","internalType":"uint256"}],"stateMutability":"nonpayable"},{"type":"function","name":"symbol","inputs":[],"outputs":[{"name":"","type":"string","internalType":"string"}],"stateMutability":"view"},{"type":"function","name":"totalAssets","inputs":[],"outputs":[{"name":"","type":"uint256","internalType":"uint256"}],"stateMutability":"view"},{"type":"function","name":"totalSupply","inputs":[],"outputs":[{"name":"","type":"uint256","internalType":"uint256"}],"stateMutability":"view"},{"type":"function","name":"transfer","inputs":[{"name":"to","type":"address","internalType":"address"},{"name":"value","type":"uint256","internalType":"uint256"}],"outputs":[{"name":"","type":"bool","internalType":"bool"}],"stateMutability":"nonpayable"},{"type":"function","name":"transferFrom","inputs":[{"name":"from","type":"address","internalType":"address"},{"name":"to","type":"address","internalType":"address"},{"name":"value","type":"uint256","internalType":"uint256"}],"outputs":[{"name":"","type":"bool","internalType":"bool"}],"stateMutability":"nonpayable"},{"type":"function","name":"withdraw","inputs":[{"name":"assets","type":"uint256","internalType":"uint256"},{"name":"receiver","type":"address","internalType":"address"},{"name":"owner","type":"address","internalType":"address"}],"outputs":[{"name":"","type":"uint256","internalType":"uint256"}],"stateMutability":"nonpayable"},{"type":"event","name":"Approval","inputs":[{"name":"owner","type":"address","indexed":true,"internalType":"address"},{"name":"spender","type":"address","indexed":true,"internalType":"address"},{"name":"value","type":"uint256","indexed":false,"internalType":"uint256"}],"anonymous":false},{"type":"event","name":"Deposit","inputs":[{"name":"sender","type":"address","indexed":true,"internalType":"address"},{"name":"owner","type":"address","indexed":true,"internalType":"address"},{"name":"assets","type":"uint256","indexed":false,"internalType":"uint256"},{"name":"shares","type":"uint256","indexed":false,"internalType":"uint256"}],"anonymous":false},{"type":"event","name":"Transfer","inputs":[{"name":"from","type":"address","indexed":true,"internalType":"address"},{"name":"to","type":"address","indexed":true,"internalType":"address"},{"name":"value","type":"uint256","indexed":false,"internalType":"uint256"}],"anonymous":false},{"type":"event","name":"Withdraw","inputs":[{"name":"sender","type":"address","indexed":true,"internalType":"address"},{"name":"receiver","type":"address","indexed":true,"internalType":"address"},{"name":"owner","type":"address","indexed":true,"internalType":"address"},{"name":"assets","type":"uint256","indexed":false,"internalType":"uint256"},{"name":"shares","type":"uint256","indexed":false,"internalType":"uint256"}],"anonymous":false},{"type":"error","name":"ERC20InsufficientAllowance","inputs":[{"name":"spender","type":"address","internalType":"address"},{"name":"allowance","type":"uint256","internalType":"uint256"},{"name":"needed","type":"uint256","internalType":"uint256"}]},{"type":"error","name":"ERC20InsufficientBalance","inputs":[{"name":"sender","type":"address","internalType":"address"},{"name":"balance","type":"uint256","internalType":"uint256"},{"name":"needed","type":"uint256","internalType":"uint256"}]},{"type":"error","name":"ERC20InvalidApprover","inputs":[{"name":"approver","type":"address","internalType":"address"}]},{"type":"error","name":"ERC20InvalidReceiver","inputs":[{"name":"receiver","type":"address","internalType":"address"}]},{"type":"error","name":"ERC20InvalidSender","inputs":[{"name":"sender","type":"address","internalType":"address"}]},{"type":"error","name":"ERC20InvalidSpender","inputs":[{"name":"spender","type":"address","internalType":"address"}]},{"type":"error","name":"ERC4626ExceededMaxDeposit","inputs":[{"name":"receiver","type":"address","internalType":"address"},{"name":"assets","type":"uint256","internalType":"uint256"},{"name":"max","type":"uint256","internalType":"uint256"}]},{"type":"error","name":"ERC4626ExceededMaxMint","inputs":[{"name":"receiver","type":"address","internalType":"address"},{"name":"shares","type":"uint256","internalType":"uint256"},{"name":"max","type":"uint256","internalType":"uint256"}]},{"type":"error","name":"ERC4626ExceededMaxRedeem","inputs":[{"name":"owner","type":"address","internalType":"address"},{"name":"shares","type":"uint256","internalType":"uint256"},{"name":"max","type":"uint256","internalType":"uint256"}]},{"type":"error","name":"ERC4626ExceededMaxWithdraw","inputs":[{"name":"owner","type":"address","internalType":"address"},{"name":"assets","type":"uint256","internalType":"uint256"},{"name":"max","type":"uint256","internalType":"uint256"}]},{"type":"error","name":"SafeERC20FailedOperation","inputs":[{"name":"token","type":"address","internalType":"address"}]}],"bytecode":{"object":"0x60c060405234801562000010575f80fd5b5060405162002856380380620028568339818101604052810190620000369190620003df565b82828281600390816200004a9190620006ad565b5080600490816200005c9190620006ad565b5050505f806200007283620000d360201b60201c565b91509150816200008457601262000086565b805b60ff1660a08160ff16815250508273ffffffffffffffffffffffffffffffffffffffff1660808173ffffffffffffffffffffffffffffffffffffffff168152505050505050505062000852565b5f805f808473ffffffffffffffffffffffffffffffffffffffff1660405160240160405160208183030381529060405263313ce56760e01b6020820180517bffffffffffffffffffffffffffffffffffffffffffffffffffffffff8381831617835250505050604051620001489190620007db565b5f60405180830381855afa9150503d805f811462000182576040519150601f19603f3d011682016040523d82523d5f602084013e62000187565b606091505b50915091508180156200019c57506020815110155b15620001d8575f81806020019051810190620001b9919062000822565b905060ff80168111620001d65760018194509450505050620001e1565b505b5f809350935050505b915091565b5f604051905090565b5f80fd5b5f80fd5b5f73ffffffffffffffffffffffffffffffffffffffff82169050919050565b5f6200022282620001f7565b9050919050565b5f620002358262000216565b9050919050565b620002478162000229565b811462000252575f80fd5b50565b5f8151905062000265816200023c565b92915050565b5f80fd5b5f80fd5b5f601f19601f8301169050919050565b7f4e487b71000000000000000000000000000000000000000000000000000000005f52604160045260245ffd5b620002bb8262000273565b810181811067ffffffffffffffff82111715620002dd57620002dc62000283565b5b80604052505050565b5f620002f1620001e6565b9050620002ff8282620002b0565b919050565b5f67ffffffffffffffff82111562000321576200032062000283565b5b6200032c8262000273565b9050602081019050919050565b5f5b83811015620003585780820151818401526020810190506200033b565b5f8484015250505050565b5f62000379620003738462000304565b620002e6565b9050828152602081018484840111156200039857620003976200026f565b5b620003a584828562000339565b509392505050565b5f82601f830112620003c457620003c36200026b565b5b8151620003d684826020860162000363565b91505092915050565b5f805f60608486031215620003f957620003f8620001ef565b5b5f620004088682870162000255565b935050602084015167ffffffffffffffff8111156200042c576200042b620001f3565b5b6200043a86828701620003ad565b925050604084015167ffffffffffffffff8111156200045e576200045d620001f3565b5b6200046c86828701620003ad565b9150509250925092565b5f81519050919050565b7f4e487b71000000000000000000000000000000000000000000000000000000005f52602260045260245ffd5b5f6002820490506001821680620004c557607f821691505b602082108103620004db57620004da62000480565b5b50919050565b5f819050815f5260205f209050919050565b5f6020601f8301049050919050565b5f82821b905092915050565b5f600883026200053f7fffffffffffffffffffffffffffffffffffffffffffffffffffffffffffffffff8262000502565b6200054b868362000502565b95508019841693508086168417925050509392505050565b5f819050919050565b5f819050919050565b5f620005956200058f620005898462000563565b6200056c565b62000563565b9050919050565b5f819050919050565b620005b08362000575565b620005c8620005bf826200059c565b8484546200050e565b825550505050565b5f90565b620005de620005d0565b620005eb818484620005a5565b505050565b5b818110156200061257620006065f82620005d4565b600181019050620005f1565b5050565b601f82111562000661576200062b81620004e1565b6200063684620004f3565b8101602085101562000646578190505b6200065e6200065585620004f3565b830182620005f0565b50505b505050565b5f82821c905092915050565b5f620006835f198460080262000666565b1980831691505092915050565b5f6200069d838362000672565b9150826002028217905092915050565b620006b88262000476565b67ffffffffffffffff811115620006d457620006d362000283565b5b620006e08254620004ad565b620006ed82828562000616565b5f60209050601f83116001811462000723575f84156200070e578287015190505b6200071a858262000690565b86555062000789565b601f1984166200073386620004e1565b5f5b828110156200075c5784890151825560018201915060208501945060208101905062000735565b868310156200077c578489015162000778601f89168262000672565b8355505b6001600288020188555050505b505050505050565b5f81519050919050565b5f81905092915050565b5f620007b18262000791565b620007bd81856200079b565b9350620007cf81856020860162000339565b80840191505092915050565b5f620007e88284620007a5565b915081905092915050565b620007fe8162000563565b811462000809575f80fd5b50565b5f815190506200081c81620007f3565b92915050565b5f602082840312156200083a5762000839620001ef565b5b5f62000849848285016200080c565b91505092915050565b60805160a051611fcd620008895f395f61077001525f81816105bc015281816107a101528181610e5d0152610f490152611fcd5ff3fe608060405234801561000f575f80fd5b5060043610610171575f3560e01c806370a08231116100dc578063ba08765211610095578063ce96cb771161006f578063ce96cb77146104f9578063d905777e14610529578063dd62ed3e14610559578063ef8b30f71461058957610171565b8063ba08765214610469578063c63d75b614610499578063c6e6f592146104c957610171565b806370a082311461035b57806394bf804d1461038b57806395d89b41146103bb578063a9059cbb146103d9578063b3d7f6b914610409578063b460af941461043957610171565b806323b872dd1161012e57806323b872dd1461025f578063313ce5671461028f57806338d52e0f146102ad578063402d267d146102cb5780634cdad506146102fb5780636e553f651461032b57610171565b806301e1d1141461017557806306fdde031461019357806307a2d13a146101b1578063095ea7b3146101e15780630a28a4771461021157806318160ddd14610241575b5f80fd5b61017d6105b9565b60405161018a9190611822565b60405180910390f35b61019b610657565b6040516101a891906118c5565b60405180910390f35b6101cb60048036038101906101c69190611913565b6106e7565b6040516101d89190611822565b60405180910390f35b6101fb60048036038101906101f69190611998565b6106f9565b60405161020891906119f0565b60405180910390f35b61022b60048036038101906102269190611913565b61071b565b6040516102389190611822565b60405180910390f35b61024961072e565b6040516102569190611822565b60405180910390f35b61027960048036038101906102749190611a09565b610737565b60405161028691906119f0565b60405180910390f35b610297610765565b6040516102a49190611a74565b60405180910390f35b6102b561079e565b6040516102c29190611a9c565b60405180910390f35b6102e560048036038101906102e09190611ab5565b6107c5565b6040516102f29190611822565b60405180910390f35b61031560048036038101906103109190611913565b6107ee565b6040516103229190611822565b60405180910390f35b61034560048036038101906103409190611ae0565b610800565b6040516103529190611822565b60405180910390f35b61037560048036038101906103709190611ab5565b610880565b6040516103829190611822565b60405180910390f35b6103a560048036038101906103a09190611ae0565b6108c5565b6040516103b29190611822565b60405180910390f35b6103c3610945565b6040516103d091906118c5565b60405180910390f35b6103f360048036038101906103ee9190611998565b6109d5565b60405161040091906119f0565b60405180910390f35b610423600480360381019061041e9190611913565b6109f7565b6040516104309190611822565b60405180910390f35b610453600480360381019061044e9190611b1e565b610a0a565b6040516104609190611822565b60405180910390f35b610483600480360381019061047e9190611b1e565b610a8c565b6040516104909190611822565b60405180910390f35b6104b360048036038101906104ae9190611ab5565b610b0e565b6040516104c09190611822565b60405180910390f35b6104e360048036038101906104de9190611913565b610b37565b6040516104f09190611822565b60405180910390f35b610513600480360381019061050e9190611ab5565b610b49565b6040516105209190611822565b60405180910390f35b610543600480360381019061053e9190611ab5565b610b63565b6040516105509190611822565b60405180910390f35b610573600480360381019061056e9190611b6e565b610b74565b6040516105809190611822565b60405180910390f35b6105a3600480360381019061059e9190611913565b610bf6565b6040516105b09190611822565b60405180910390f35b5f7f000000000000000000000000000000000000000000000000000000000000000073ffffffffffffffffffffffffffffffffffffffff166370a08231306040518263ffffffff1660e01b81526004016106139190611a9c565b602060405180830381865afa15801561062e573d5f803e3d5ffd5b505050506040513d601f19601f820116820180604052508101906106529190611bc0565b905090565b60606003805461066690611c18565b80601f016020809104026020016040519081016040528092919081815260200182805461069290611c18565b80156106dd5780601f106106b4576101008083540402835291602001916106dd565b820191905f5260205f20905b8154815290600101906020018083116106c057829003601f168201915b5050505050905090565b5f6106f2825f610c08565b9050919050565b5f80610703610c60565b9050610710818585610c67565b600191505092915050565b5f610727826001610c79565b9050919050565b5f600254905090565b5f80610741610c60565b905061074e858285610cd1565b610759858585610d64565b60019150509392505050565b5f61076e610e54565b7f00000000000000000000000000000000000000000000000000000000000000006107999190611c75565b905090565b5f7f0000000000000000000000000000000000000000000000000000000000000000905090565b5f7fffffffffffffffffffffffffffffffffffffffffffffffffffffffffffffffff9050919050565b5f6107f9825f610c08565b9050919050565b5f8061080b836107c5565b905080841115610856578284826040517f79012fb200000000000000000000000000000000000000000000000000000000815260040161084d93929190611ca9565b60405180910390fd5b5f61086085610bf6565b905061087561086d610c60565b858784610e58565b809250505092915050565b5f805f8373ffffffffffffffffffffffffffffffffffffffff1673ffffffffffffffffffffffffffffffffffffffff1681526020019081526020015f20549050919050565b5f806108d083610b0e565b90508084111561091b578284826040517f284ff66700000000000000000000000000000000000000000000000000000000815260040161091293929190611ca9565b60405180910390fd5b5f610925856109f7565b905061093a610932610c60565b858388610e58565b809250505092915050565b60606004805461095490611c18565b80601f016020809104026020016040519081016040528092919081815260200182805461098090611c18565b80156109cb5780601f106109a2576101008083540402835291602001916109cb565b820191905f5260205f20905b8154815290600101906020018083116109ae57829003601f168201915b5050505050905090565b5f806109df610c60565b90506109ec818585610d64565b600191505092915050565b5f610a03826001610c08565b9050919050565b5f80610a1583610b49565b905080851115610a60578285826040517ffe9cceec000000000000000000000000000000000000000000000000000000008152600401610a5793929190611ca9565b60405180910390fd5b5f610a6a8661071b565b9050610a80610a77610c60565b86868985610efb565b80925050509392505050565b5f80610a9783610b63565b905080851115610ae2578285826040517fb94abeec000000000000000000000000000000000000000000000000000000008152600401610ad993929190611ca9565b60405180910390fd5b5f610aec866107ee565b9050610b02610af9610c60565b8686848a610efb565b80925050509392505050565b5f7fffffffffffffffffffffffffffffffffffffffffffffffffffffffffffffffff9050919050565b5f610b42825f610c79565b9050919050565b5f610b5c610b5683610880565b5f610c08565b9050919050565b5f610b6d82610880565b9050919050565b5f60015f8473ffffffffffffffffffffffffffffffffffffffff1673ffffffffffffffffffffffffffffffffffffffff1681526020019081526020015f205f8373ffffffffffffffffffffffffffffffffffffffff1673ffffffffffffffffffffffffffffffffffffffff1681526020019081526020015f2054905092915050565b5f610c01825f610c79565b9050919050565b5f610c586001610c166105b9565b610c209190611cde565b610c28610e54565b600a610c349190611e40565b610c3c61072e565b610c469190611cde565b8486610ff4909392919063ffffffff16565b905092915050565b5f33905090565b610c748383836001611041565b505050565b5f610cc9610c85610e54565b600a610c919190611e40565b610c9961072e565b610ca39190611cde565b6001610cad6105b9565b610cb79190611cde565b8486610ff4909392919063ffffffff16565b905092915050565b5f610cdc8484610b74565b90507fffffffffffffffffffffffffffffffffffffffffffffffffffffffffffffffff811015610d5e5781811015610d4f578281836040517ffb8f41b2000000000000000000000000000000000000000000000000000000008152600401610d4693929190611ca9565b60405180910390fd5b610d5d84848484035f611041565b5b50505050565b5f73ffffffffffffffffffffffffffffffffffffffff168373ffffffffffffffffffffffffffffffffffffffff1603610dd4575f6040517f96c6fd1e000000000000000000000000000000000000000000000000000000008152600401610dcb9190611a9c565b60405180910390fd5b5f73ffffffffffffffffffffffffffffffffffffffff168273ffffffffffffffffffffffffffffffffffffffff1603610e44575f6040517fec442f05000000000000000000000000000000000000000000000000000000008152600401610e3b9190611a9c565b60405180910390fd5b610e4f838383611210565b505050565b5f90565b610e847f0000000000000000000000000000000000000000000000000000000000000000853085611429565b610e8e83826114ab565b8273ffffffffffffffffffffffffffffffffffffffff168473ffffffffffffffffffffffffffffffffffffffff167fdcbc1c05240f31ff3ad067ef1ee35ce4997762752e3a095284754544f4c709d78484604051610eed929190611e8a565b60405180910390a350505050565b8273ffffffffffffffffffffffffffffffffffffffff168573ffffffffffffffffffffffffffffffffffffffff1614610f3a57610f39838683610cd1565b5b610f44838261152a565b610f6f7f000000000000000000000000000000000000000000000000000000000000000085846115a9565b8273ffffffffffffffffffffffffffffffffffffffff168473ffffffffffffffffffffffffffffffffffffffff168673ffffffffffffffffffffffffffffffffffffffff167ffbde797d201c681b91056529119e0b02407c7bb96a4a2c75c01fc9667232c8db8585604051610fe5929190611e8a565b60405180910390a45050505050565b5f61102261100183611628565b801561101d57505f848061101857611017611eb1565b5b868809115b611655565b61102d868686611660565b6110379190611cde565b9050949350505050565b5f73ffffffffffffffffffffffffffffffffffffffff168473ffffffffffffffffffffffffffffffffffffffff16036110b1575f6040517fe602df050000000000000000000000000000000000000000000000000000000081526004016110a89190611a9c565b60405180910390fd5b5f73ffffffffffffffffffffffffffffffffffffffff168373ffffffffffffffffffffffffffffffffffffffff1603611121575f6040517f94280d620000000000000000000000000000000000000000000000000000000081526004016111189190611a9c565b60405180910390fd5b8160015f8673ffffffffffffffffffffffffffffffffffffffff1673ffffffffffffffffffffffffffffffffffffffff1681526020019081526020015f205f8573ffffffffffffffffffffffffffffffffffffffff1673ffffffffffffffffffffffffffffffffffffffff1681526020019081526020015f2081905550801561120a578273ffffffffffffffffffffffffffffffffffffffff168473ffffffffffffffffffffffffffffffffffffffff167f8c5be1e5ebec7d5bd14f71427d1e84f3dd0314c0f7b2291e5b200ac8c7c3b925846040516112019190611822565b60405180910390a35b50505050565b5f73ffffffffffffffffffffffffffffffffffffffff168373ffffffffffffffffffffffffffffffffffffffff1603611260578060025f8282546112549190611cde565b9250508190555061132e565b5f805f8573ffffffffffffffffffffffffffffffffffffffff1673ffffffffffffffffffffffffffffffffffffffff1681526020019081526020015f20549050818110156112e9578381836040517fe450d38c0000000000000000000000000000000000000000000000000000000081526004016112e093929190611ca9565b60405180910390fd5b8181035f808673ffffffffffffffffffffffffffffffffffffffff1673ffffffffffffffffffffffffffffffffffffffff1681526020019081526020015f2081905550505b5f73ffffffffffffffffffffffffffffffffffffffff168273ffffffffffffffffffffffffffffffffffffffff1603611375578060025f82825403925050819055506113bf565b805f808473ffffffffffffffffffffffffffffffffffffffff1673ffffffffffffffffffffffffffffffffffffffff1681526020019081526020015f205f82825401925050819055505b8173ffffffffffffffffffffffffffffffffffffffff168373ffffffffffffffffffffffffffffffffffffffff167fddf252ad1be2c89b69c2b068fc378daa952ba7f163c4a11628f55a4df523b3ef8360405161141c9190611822565b60405180910390a3505050565b6114a5848573ffffffffffffffffffffffffffffffffffffffff166323b872dd86868660405160240161145e93929190611ede565b604051602081830303815290604052915060e01b6020820180517bffffffffffffffffffffffffffffffffffffffffffffffffffffffff8381831617835250505050611745565b50505050565b5f73ffffffffffffffffffffffffffffffffffffffff168273ffffffffffffffffffffffffffffffffffffffff160361151b575f6040517fec442f050000000000000000000000000000000000000000000000000000000081526004016115129190611a9c565b60405180910390fd5b6115265f8383611210565b5050565b5f73ffffffffffffffffffffffffffffffffffffffff168273ffffffffffffffffffffffffffffffffffffffff160361159a575f6040517f96c6fd1e0000000000000000000000000000000000000000000000000000000081526004016115919190611a9c565b60405180910390fd5b6115a5825f83611210565b5050565b611623838473ffffffffffffffffffffffffffffffffffffffff1663a9059cbb85856040516024016115dc929190611f13565b604051602081830303815290604052915060e01b6020820180517bffffffffffffffffffffffffffffffffffffffffffffffffffffffff8381831617835250505050611745565b505050565b5f600160028360038111156116405761163f611f3a565b5b61164a9190611f67565b60ff16149050919050565b5f8115159050919050565b5f8083850290505f8019858709828110838203039150505f81036116985783828161168e5761168d611eb1565b5b049250505061173e565b8084116116b7576116b66116b15f8614601260116117e0565b6117f9565b5b5f8486880990508281118203915080830392505f855f038616905080860495508084049350600181825f0304019050808302841793505f600287600302189050808702600203810290508087026002038102905080870260020381029050808702600203810290508087026002038102905080870260020381029050808502955050505050505b9392505050565b5f8060205f8451602086015f885af180611764576040513d5f823e3d81fd5b3d92505f519150505f821461177d576001811415611798565b5f8473ffffffffffffffffffffffffffffffffffffffff163b145b156117da57836040517f5274afe70000000000000000000000000000000000000000000000000000000081526004016117d19190611a9c565b60405180910390fd5b50505050565b5f6117ea84611655565b82841802821890509392505050565b634e487b715f52806020526024601cfd5b5f819050919050565b61181c8161180a565b82525050565b5f6020820190506118355f830184611813565b92915050565b5f81519050919050565b5f82825260208201905092915050565b5f5b83811015611872578082015181840152602081019050611857565b5f8484015250505050565b5f601f19601f8301169050919050565b5f6118978261183b565b6118a18185611845565b93506118b1818560208601611855565b6118ba8161187d565b840191505092915050565b5f6020820190508181035f8301526118dd818461188d565b905092915050565b5f80fd5b6118f28161180a565b81146118fc575f80fd5b50565b5f8135905061190d816118e9565b92915050565b5f60208284031215611928576119276118e5565b5b5f611935848285016118ff565b91505092915050565b5f73ffffffffffffffffffffffffffffffffffffffff82169050919050565b5f6119678261193e565b9050919050565b6119778161195d565b8114611981575f80fd5b50565b5f813590506119928161196e565b92915050565b5f80604083850312156119ae576119ad6118e5565b5b5f6119bb85828601611984565b92505060206119cc858286016118ff565b9150509250929050565b5f8115159050919050565b6119ea816119d6565b82525050565b5f602082019050611a035f8301846119e1565b92915050565b5f805f60608486031215611a2057611a1f6118e5565b5b5f611a2d86828701611984565b9350506020611a3e86828701611984565b9250506040611a4f868287016118ff565b9150509250925092565b5f60ff82169050919050565b611a6e81611a59565b82525050565b5f602082019050611a875f830184611a65565b92915050565b611a968161195d565b82525050565b5f602082019050611aaf5f830184611a8d565b92915050565b5f60208284031215611aca57611ac96118e5565b5b5f611ad784828501611984565b91505092915050565b5f8060408385031215611af657611af56118e5565b5b5f611b03858286016118ff565b9250506020611b1485828601611984565b9150509250929050565b5f805f60608486031215611b3557611b346118e5565b5b5f611b42868287016118ff565b9350506020611b5386828701611984565b9250506040611b6486828701611984565b9150509250925092565b5f8060408385031215611b8457611b836118e5565b5b5f611b9185828601611984565b9250506020611ba285828601611984565b9150509250929050565b5f81519050611bba816118e9565b92915050565b5f60208284031215611bd557611bd46118e5565b5b5f611be284828501611bac565b91505092915050565b7f4e487b71000000000000000000000000000000000000000000000000000000005f52602260045260245ffd5b5f6002820490506001821680611c2f57607f821691505b602082108103611c4257611c41611beb565b5b50919050565b7f4e487b71000000000000000000000000000000000000000000000000000000005f52601160045260245ffd5b5f611c7f82611a59565b9150611c8a83611a59565b9250828201905060ff811115611ca357611ca2611c48565b5b92915050565b5f606082019050611cbc5f830186611a8d565b611cc96020830185611813565b611cd66040830184611813565b949350505050565b5f611ce88261180a565b9150611cf38361180a565b9250828201905080821115611d0b57611d0a611c48565b5b92915050565b5f8160011c9050919050565b5f808291508390505b6001851115611d6657808604811115611d4257611d41611c48565b5b6001851615611d515780820291505b8081029050611d5f85611d11565b9450611d26565b94509492505050565b5f82611d7e5760019050611e39565b81611d8b575f9050611e39565b8160018114611da15760028114611dab57611dda565b6001915050611e39565b60ff841115611dbd57611dbc611c48565b5b8360020a915084821115611dd457611dd3611c48565b5b50611e39565b5060208310610133831016604e8410600b8410161715611e0f5782820a905083811115611e0a57611e09611c48565b5b611e39565b611e1c8484846001611d1d565b92509050818404811115611e3357611e32611c48565b5b81810290505b9392505050565b5f611e4a8261180a565b9150611e5583611a59565b9250611e827fffffffffffffffffffffffffffffffffffffffffffffffffffffffffffffffff8484611d6f565b905092915050565b5f604082019050611e9d5f830185611813565b611eaa6020830184611813565b9392505050565b7f4e487b71000000000000000000000000000000000000000000000000000000005f52601260045260245ffd5b5f606082019050611ef15f830186611a8d565b611efe6020830185611a8d565b611f0b6040830184611813565b949350505050565b5f604082019050611f265f830185611a8d565b611f336020830184611813565b9392505050565b7f4e487b71000000000000000000000000000000000000000000000000000000005f52602160045260245ffd5b5f611f7182611a59565b9150611f7c83611a59565b925082611f8c57611f8b611eb1565b5b82820690509291505056fea26469706673582212203a9e5cf9bd1357b0fa44e7e29886ba9fce6c3725b096303a159b8a1da806817564736f6c63430008150033","linkReferences":{}},"methodIdentifiers":{"allowance(address,address)":"dd62ed3e","approve(address,uint256)":"095ea7b3","asset()":"38d52e0f","balanceOf(address)":"70a08231","convertToAssets(uint256)":"07a2d13a","convertToShares(uint256)":"c6e6f592","decimals()":"313ce567","deposit(uint256,address)":"6e553f65","maxDeposit(address)":"402d267d","maxMint(address)":"c63d75b6","maxRedeem(address)":"d905777e","maxWithdraw(address)":"ce96cb77","mint(uint256,address)":"94bf804d","name()":"06fdde03","previewDeposit(uint256)":"ef8b30f7","previewMint(uint256)":"b3d7f6b9","previewRedeem(uint256)":"4cdad506","previewWithdraw(uint256)":"0a28a477","redeem(uint256,address,address)":"ba087652","symbol()":"95d89b41","totalAssets()":"01e1d114","totalSupply()":"18160ddd","transfer(address,uint256)":"a9059cbb","transferFrom(address,address,uint256)":"23b872dd","withdraw(uint256,address,address)":"b460af94"},"id":143}