{"abi":[{"type":"constructor","inputs":[{"name":"_asset","type":"address","internalType":"contract IERC20"},{"name":"_name","type":"string","internalType":"string"},{"name":"_symbol","type":"string","internalType":"string"}],"stateMutability":"nonpayable"},{"type":"function","name":"allowance","inputs":[{"name":"owner","type":"address","internalType":"address"},{"name":"spender","type":"address","internalType":"address"}],"outputs":[{"name":"","type":"uint256","internalType":"uint256"}],"stateMutability":"view"},{"type":"function","name":"approve","inputs":[{"name":"spender","type":"address","internalType":"address"},{"name":"value","type":"uint256","internalType":"uint256"}],"outputs":[{"name":"","type":"bool","internalType":"bool"}],"stateMutability":"nonpayable"},{"type":"function","name":"asset","inputs":[],"outputs":[{"name":"","type":"address","internalType":"address"}],"stateMutability":"view"},{"type":"function","name":"balanceOf","inputs":[{"name":"account","type":"address","internalType":"address"}],"outputs":[{"name":"","type":"uint256","internalType":"uint256"}],"stateMutability":"view"},{"type":"function","name":"convertToAssets","inputs":[{"name":"shares","type":"uint256","internalType":"uint256"}],"outputs":[{"name":"","type":"uint256","internalType":"uint256"}],"stateMutability":"view"},{"type":"function","name":"convertToShares","inputs":[{"name":"assets","type":"uint256","internalType":"uint256"}],"outputs":[{"name":"","type":"uint256","internalType":"uint256"}],"stateMutability":"view"},{"type":"function","name":"decimals","inputs":[],"outputs":[{"name":"","type":"uint8","internalType":"uint8"}],"stateMutability":"view"},{"type":"function","name":"deposit","inputs":[{"name":"assets","type":"uint256","internalType":"uint256"},{"name":"receiver","type":"address","internalType":"address"}],"outputs":[{"name":"","type":"uint256","internalType":"uint256"}],"stateMutability":"nonpayable"},{"type":"function","name":"maxDeposit","inputs":[{"name":"","type":"address","internalType":"address"}],"outputs":[{"name":"","type":"uint256","internalType":"uint256"}],"stateMutability":"view"},{"type":"function","name":"maxMint","inputs":[{"name":"","type":"address","internalType":"address"}],"outputs":[{"name":"","type":"uint256","internalType":"uint256"}],"stateMutability":"view"},{"type":"function","name":"maxRedeem","inputs":[{"name":"owner","type":"address","internalType":"address"}],"outputs":[{"name":"","type":"uint256","internalType":"uint256"}],"stateMutability":"view"},{"type":"function","name":"maxWithdraw","inputs":[{"name":"owner","type":"address","internalType":"address"}],"outputs":[{"name":"","type":"uint256","internalType":"uint256"}],"stateMutability":"view"},{"type":"function","name":"mint","inputs":[{"name":"shares","type":"uint256","internalType":"uint256"},{"name":"receiver","type":"address","internalType":"address"}],"outputs":[{"name":"","type":"uint256","internalType":"uint256"}],"stateMutability":"nonpayable"},{"type":"function","name":"name","inputs":[],"outputs":[{"name":"","type":"string","internalType":"string"}],"stateMutability":"view"},{"type":"function","name":"previewDeposit","inputs":[{"name":"assets","type":"uint256","internalType":"uint256"}],"outputs":[{"name":"","type":"uint256","internalType":"uint256"}],"stateMutability":"view"},{"type":"function","name":"previewMint","inputs":[{"name":"shares","type":"uint256","internalType":"uint256"}],"outputs":[{"name":"","type":"uint256","internalType":"uint256"}],"stateMutability":"view"},{"type":"function","name":"previewRedeem","inputs":[{"name":"shares","type":"uint256","internalType":"uint256"}],"outputs":[{"name":"","type":"uint256","internalType":"uint256"}],"stateMutability":"view"},{"type":"function","name":"previewWithdraw","inputs":[{"name":"assets","type":"uint256","internalType":"uint256"}],"outputs":[{"name":"","type":"uint256","internalType":"uint256"}],"stateMutability":"view"},{"type":"function","name":"redeem","inputs":[{"name":"shares","type":"uint256","internalType":"uint256"},{"name":"receiver","type":"address","internalType":"address"},{"name":"owner","type":"address","internalType":"address"}],"outputs":[{"name":"","type":"uint256","internalType":"uint256"}],"stateMutability":"nonpayable"},{"type":"function","name":"symbol","inputs":[],"outputs":[{"name":"","type":"string","internalType":"string"}],"stateMutability":"view"},{"type":"function","name":"totalAssets","inputs":[],"outputs":[{"name":"","type":"uint256","internalType":"uint256"}],"stateMutability":"view"},{"type":"function","name":"totalSupply","inputs":[],"outputs":[{"name":"","type":"uint256","internalType":"uint256"}],"stateMutability":"view"},{"type":"function","name":"transfer","inputs":[{"name":"to","type":"address","internalType":"address"},{"name":"value","type":"uint256","internalType":"uint256"}],"outputs":[{"name":"","type":"bool","internalType":"bool"}],"stateMutability":"nonpayable"},{"type":"function","name":"transferFrom","inputs":[{"name":"from","type":"address","internalType":"address"},{"name":"to","type":"address","internalType":"address"},{"name":"value","type":"uint256","internalType":"uint256"}],"outputs":[{"name":"","type":"bool","internalType":"bool"}],"stateMutability":"nonpayable"},{"type":"function","name":"withdraw","inputs":[{"name":"assets","type":"uint256","internalType":"uint256"},{"name":"receiver","type":"address","internalType":"address"},{"name":"owner","type":"address","internalType":"address"}],"outputs":[{"name":"","type":"uint256","internalType":"uint256"}],"stateMutability":"nonpayable"},{"type":"event","name":"Approval","inputs":[{"name":"owner","type":"address","indexed":true,"internalType":"address"},{"name":"spender","type":"address","indexed":true,"internalType":"address"},{"name":"value","type":"uint256","indexed":false,"internalType":"uint256"}],"anonymous":false},{"type":"event","name":"Deposit","inputs":[{"name":"sender","type":"address","indexed":true,"internalType":"address"},{"name":"owner","type":"address","indexed":true,"internalType":"address"},{"name":"assets","type":"uint256","indexed":false,"internalType":"uint256"},{"name":"shares","type":"uint256","indexed":false,"internalType":"uint256"}],"anonymous":false},{"type":"event","name":"Transfer","inputs":[{"name":"from","type":"address","indexed":true,"internalType":"address"},{"name":"to","type":"address","indexed":true,"internalType":"address"},{"name":"value","type":"uint256","indexed":false,"internalType":"uint256"}],"anonymous":false},{"type":"event","name":"Withdraw","inputs":[{"name":"sender","type":"address","indexed":true,"internalType":"address"},{"name":"receiver","type":"address","indexed":true,"internalType":"address"},{"name":"owner","type":"address","indexed":true,"internalType":"address"},{"name":"assets","type":"uint256","indexed":false,"internalType":"uint256"},{"name":"shares","type":"uint256","indexed":false,"internalType":"uint256"}],"anonymous":false},{"type":"error","name":"ERC20InsufficientAllowance","inputs":[{"name":"spender","type":"address","internalType":"address"},{"name":"allowance","type":"uint256","internalType":"uint256"},{"name":"needed","type":"uint256","internalType":"uint256"}]},{"type":"error","name":"ERC20InsufficientBalance","inputs":[{"name":"sender","type":"address","internalType":"address"},{"name":"balance","type":"uint256","internalType":"uint256"},{"name":"needed","type":"uint256","internalType":"uint256"}]},{"type":"error","name":"ERC20InvalidApprover","inputs":[{"name":"approver","type":"address","internalType":"address"}]},{"type":"error","name":"ERC20InvalidReceiver","inputs":[{"name":"receiver","type":"address","internalType":"address"}]},{"type":"error","name":"ERC20InvalidSender","inputs":[{"name":"sender","type":"address","internalType":"address"}]},{"type":"error","name":"ERC20InvalidSpender","inputs":[{"name":"spender","type":"address","internalType":"address"}]},{"type":"error","name":"ERC4626ExceededMaxDeposit","inputs":[{"name":"receiver","type":"address","internalType":"address"},{"name":"assets","type":"uint256","internalType":"uint256"},{"name":"max","type":"uint256","internalType":"uint256"}]},{"type":"error","name":"ERC4626ExceededMaxMint","inputs":[{"name":"receiver","type":"address","internalType":"address"},{"name":"shares","type":"uint256","internalType":"uint256"},{"name":"max","type":"uint256","internalType":"uint256"}]},{"type":"error","name":"ERC4626ExceededMaxRedeem","inputs":[{"name":"owner","type":"address","internalType":"address"},{"name":"shares","type":"uint256","internalType":"uint256"},{"name":"max","type":"uint256","internalType":"uint256"}]},{"type":"error","name":"ERC4626ExceededMaxWithdraw","inputs":[{"name":"owner","type":"address","internalType":"address"},{"name":"assets","type":"uint256","internalType":"uint256"},{"name":"max","type":"uint256","internalType":"uint256"}]},{"type":"error","name":"SafeERC20FailedOperation","inputs":[{"name":"token","type":"address","internalType":"address"}]}],"bytecode":{"object":"0x60c060405234801562000010575f80fd5b50604051620015bb380380620015bb833981016040819052620000339162000240565b828282600362000044838262000350565b50600462000053828262000350565b5050505f8062000069836200009b60201b60201c565b91509150816200007b5760126200007d565b805b60ff1660a05250506001600160a01b0316608052506200044d915050565b60408051600481526024810182526020810180516001600160e01b031663313ce56760e01b17905290515f918291829182916001600160a01b03871691620000e39162000418565b5f60405180830381855afa9150503d805f81146200011d576040519150601f19603f3d011682016040523d82523d5f602084013e62000122565b606091505b50915091508180156200013757506020815110155b156200016e575f8180602001905181019062000154919062000435565b905060ff81116200016c576001969095509350505050565b505b505f9485945092505050565b634e487b7160e01b5f52604160045260245ffd5b5f5b83811015620001aa57818101518382015260200162000190565b50505f910152565b5f82601f830112620001c2575f80fd5b81516001600160401b0380821115620001df57620001df6200017a565b604051601f8301601f19908116603f011681019082821181831017156200020a576200020a6200017a565b8160405283815286602085880101111562000223575f80fd5b620002368460208301602089016200018e565b9695505050505050565b5f805f6060848603121562000253575f80fd5b83516001600160a01b03811681146200026a575f80fd5b60208501519093506001600160401b038082111562000287575f80fd5b6200029587838801620001b2565b93506040860151915080821115620002ab575f80fd5b50620002ba86828701620001b2565b9150509250925092565b600181811c90821680620002d957607f821691505b602082108103620002f857634e487b7160e01b5f52602260045260245ffd5b50919050565b601f8211156200034b575f81815260208120601f850160051c81016020861015620003265750805b601f850160051c820191505b81811015620003475782815560010162000332565b5050505b505050565b81516001600160401b038111156200036c576200036c6200017a565b62000384816200037d8454620002c4565b84620002fe565b602080601f831160018114620003ba575f8415620003a25750858301515b5f19600386901b1c1916600185901b17855562000347565b5f85815260208120601f198616915b82811015620003ea57888601518255948401946001909101908401620003c9565b50858210156200040857878501515f19600388901b60f8161c191681555b5050505050600190811b01905550565b5f82516200042b8184602087016200018e565b9190910192915050565b5f6020828403121562000446575f80fd5b5051919050565b60805160a051611137620004845f395f6104fa01525f818161022c01528181610394015281816107c3015261088301526111375ff3fe608060405234801561000f575f80fd5b506004361061016d575f3560e01c806370a08231116100d9578063ba08765211610093578063ce96cb771161006e578063ce96cb771461031f578063d905777e14610332578063dd62ed3e14610345578063ef8b30f71461030c575f80fd5b8063ba087652146102f9578063c63d75b614610256578063c6e6f5921461030c575f80fd5b806370a082311461027d57806394bf804d146102a557806395d89b41146102b8578063a9059cbb146102c0578063b3d7f6b9146102d3578063b460af94146102e6575f80fd5b806323b872dd1161012a57806323b872dd146101f2578063313ce5671461020557806338d52e0f1461021f578063402d267d146102565780634cdad506146101a15780636e553f651461026a575f80fd5b806301e1d1141461017157806306fdde031461018c57806307a2d13a146101a1578063095ea7b3146101b45780630a28a477146101d757806318160ddd146101ea575b5f80fd5b61017961037d565b6040519081526020015b60405180910390f35b61019461040a565b6040516101839190610d8c565b6101796101af366004610dd7565b61049a565b6101c76101c2366004610e09565b6104ab565b6040519015158152602001610183565b6101796101e5366004610dd7565b6104c2565b600254610179565b6101c7610200366004610e31565b6104ce565b61020d6104f3565b60405160ff9091168152602001610183565b6040516001600160a01b037f0000000000000000000000000000000000000000000000000000000000000000168152602001610183565b610179610264366004610e6a565b505f1990565b610179610278366004610e83565b61051e565b61017961028b366004610e6a565b6001600160a01b03165f9081526020819052604090205490565b6101796102b3366004610e83565b61054f565b61019461056a565b6101c76102ce366004610e09565b610579565b6101796102e1366004610dd7565b610586565b6101796102f4366004610ead565b610592565b610179610307366004610ead565b6105e8565b61017961031a366004610dd7565b610635565b61017961032d366004610e6a565b610640565b610179610340366004610e6a565b610662565b610179610353366004610ee6565b6001600160a01b039182165f90815260016020908152604080832093909416825291909152205490565b6040516370a0823160e01b81523060048201525f907f00000000000000000000000000000000000000000000000000000000000000006001600160a01b0316906370a0823190602401602060405180830381865afa1580156103e1573d5f803e3d5ffd5b505050506040513d601f19601f820116820180604052508101906104059190610f0e565b905090565b60606003805461041990610f25565b80601f016020809104026020016040519081016040528092919081815260200182805461044590610f25565b80156104905780601f1061046757610100808354040283529160200191610490565b820191905f5260205f20905b81548152906001019060200180831161047357829003601f168201915b5050505050905090565b5f6104a5825f61067f565b92915050565b5f336104b88185856106b7565b5060019392505050565b5f6104a58260016106c9565b5f336104db8582856106f8565b6104e6858585610761565b60019150505b9392505050565b5f610405817f0000000000000000000000000000000000000000000000000000000000000000610f71565b5f5f1961052f565b60405180910390fd5b5f61053985610635565b9050610547338587846107be565b949350505050565b5f5f195f61055c85610586565b9050610547338583886107be565b60606004805461041990610f25565b5f336104b8818585610761565b5f6104a582600161067f565b5f8061059d83610640565b9050808511156105c657828582604051633fa733bb60e21b815260040161052693929190610f8a565b5f6105d0866104c2565b90506105df3386868985610850565b95945050505050565b5f806105f383610662565b90508085111561061c57828582604051632e52afbb60e21b815260040161052693929190610f8a565b5f6106268661049a565b90506105df338686848a610850565b5f6104a5825f6106c9565b6001600160a01b0381165f908152602081905260408120546104a5905f61067f565b6001600160a01b0381165f908152602081905260408120546104a5565b5f6104ec61068b61037d565b610696906001610fab565b6106a15f600a61109e565b6002546106ae9190610fab565b85919085610910565b6106c48383836001610952565b505050565b5f6104ec6106d882600a61109e565b6002546106e59190610fab565b6106ed61037d565b6106ae906001610fab565b6001600160a01b038381165f908152600160209081526040808320938616835292905220545f1981101561075b578181101561074d57828183604051637dc7a0d960e11b815260040161052693929190610f8a565b61075b84848484035f610952565b50505050565b6001600160a01b03831661078a57604051634b637e8f60e11b81525f6004820152602401610526565b6001600160a01b0382166107b35760405163ec442f0560e01b81525f6004820152602401610526565b6106c4838383610a16565b6107ea7f0000000000000000000000000000000000000000000000000000000000000000853085610b29565b6107f48382610b90565b826001600160a01b0316846001600160a01b03167fdcbc1c05240f31ff3ad067ef1ee35ce4997762752e3a095284754544f4c709d78484604051610842929190918252602082015260400190565b60405180910390a350505050565b826001600160a01b0316856001600160a01b031614610874576108748386836106f8565b61087e8382610bc8565b6108a97f00000000000000000000000000000000000000000000000000000000000000008584610bfc565b826001600160a01b0316846001600160a01b0316866001600160a01b03167ffbde797d201c681b91056529119e0b02407c7bb96a4a2c75c01fc9667232c8db8585604051610901929190918252602082015260400190565b60405180910390a45050505050565b5f61093d61091d83610c2d565b801561093857505f8480610933576109336110ac565b868809115b151590565b610948868686610c59565b6105df9190610fab565b6001600160a01b03841661097b5760405163e602df0560e01b81525f6004820152602401610526565b6001600160a01b0383166109a457604051634a1406b160e11b81525f6004820152602401610526565b6001600160a01b038085165f908152600160209081526040808320938716835292905220829055801561075b57826001600160a01b0316846001600160a01b03167f8c5be1e5ebec7d5bd14f71427d1e84f3dd0314c0f7b2291e5b200ac8c7c3b9258460405161084291815260200190565b6001600160a01b038316610a40578060025f828254610a359190610fab565b90915550610a9d9050565b6001600160a01b0383165f9081526020819052604090205481811015610a7f5783818360405163391434e360e21b815260040161052693929190610f8a565b6001600160a01b0384165f9081526020819052604090209082900390555b6001600160a01b038216610ab957600280548290039055610ad7565b6001600160a01b0382165f9081526020819052604090208054820190555b816001600160a01b0316836001600160a01b03167fddf252ad1be2c89b69c2b068fc378daa952ba7f163c4a11628f55a4df523b3ef83604051610b1c91815260200190565b60405180910390a3505050565b6040516001600160a01b03848116602483015283811660448301526064820183905261075b9186918216906323b872dd906084015b604051602081830303815290604052915060e01b6020820180516001600160e01b038381831617835250505050610d0f565b6001600160a01b038216610bb95760405163ec442f0560e01b81525f6004820152602401610526565b610bc45f8383610a16565b5050565b6001600160a01b038216610bf157604051634b637e8f60e11b81525f6004820152602401610526565b610bc4825f83610a16565b6040516001600160a01b038381166024830152604482018390526106c491859182169063a9059cbb90606401610b5e565b5f6002826003811115610c4257610c426110c0565b610c4c91906110d4565b60ff166001149050919050565b5f838302815f1985870982811083820303915050805f03610c8d57838281610c8357610c836110ac565b04925050506104ec565b808411610ca457610ca46003851502601118610d7b565b5f848688095f868103871696879004966002600389028118808a02820302808a02820302808a02820302808a02820302808a02820302808a02909103029181900381900460010186841190950394909402919094039290920491909117919091029150509392505050565b5f8060205f8451602086015f885af180610d2e576040513d5f823e3d81fd5b50505f513d91508115610d45578060011415610d52565b6001600160a01b0384163b155b1561075b57604051635274afe760e01b81526001600160a01b0385166004820152602401610526565b634e487b715f52806020526024601cfd5b5f6020808352835180828501525f5b81811015610db757858101830151858201604001528201610d9b565b505f604082860101526040601f19601f8301168501019250505092915050565b5f60208284031215610de7575f80fd5b5035919050565b80356001600160a01b0381168114610e04575f80fd5b919050565b5f8060408385031215610e1a575f80fd5b610e2383610dee565b946020939093013593505050565b5f805f60608486031215610e43575f80fd5b610e4c84610dee565b9250610e5a60208501610dee565b9150604084013590509250925092565b5f60208284031215610e7a575f80fd5b6104ec82610dee565b5f8060408385031215610e94575f80fd5b82359150610ea460208401610dee565b90509250929050565b5f805f60608486031215610ebf575f80fd5b83359250610ecf60208501610dee565b9150610edd60408501610dee565b90509250925092565b5f8060408385031215610ef7575f80fd5b610f0083610dee565b9150610ea460208401610dee565b5f60208284031215610f1e575f80fd5b5051919050565b600181811c90821680610f3957607f821691505b602082108103610f5757634e487b7160e01b5f52602260045260245ffd5b50919050565b634e487b7160e01b5f52601160045260245ffd5b60ff81811683821601908111156104a5576104a5610f5d565b6001600160a01b039390931683526020830191909152604082015260600190565b808201808211156104a5576104a5610f5d565b600181815b80851115610ff857815f1904821115610fde57610fde610f5d565b80851615610feb57918102915b93841c9390800290610fc3565b509250929050565b5f8261100e575060016104a5565b8161101a57505f6104a5565b8160018114611030576002811461103a57611056565b60019150506104a5565b60ff84111561104b5761104b610f5d565b50506001821b6104a5565b5060208310610133831016604e8410600b8410161715611079575081810a6104a5565b6110838383610fbe565b805f190482111561109657611096610f5d565b029392505050565b5f6104ec60ff841683611000565b634e487b7160e01b5f52601260045260245ffd5b634e487b7160e01b5f52602160045260245ffd5b5f60ff8316806110f257634e487b7160e01b5f52601260045260245ffd5b8060ff8416069150509291505056fea26469706673582212201816df7e7bf70aec40e9def9dca80b30be69cd7e519ee2faacacbc99e14ac70a64736f6c63430008150033","linkReferences":{}},"methodIdentifiers":{"allowance(address,address)":"dd62ed3e","approve(address,uint256)":"095ea7b3","asset()":"38d52e0f","balanceOf(address)":"70a08231","convertToAssets(uint256)":"07a2d13a","convertToShares(uint256)":"c6e6f592","decimals()":"313ce567","deposit(uint256,address)":"6e553f65","maxDeposit(address)":"402d267d","maxMint(address)":"c63d75b6","maxRedeem(address)":"d905777e","maxWithdraw(address)":"ce96cb77","mint(uint256,address)":"94bf804d","name()":"06fdde03","previewDeposit(uint256)":"ef8b30f7","previewMint(uint256)":"b3d7f6b9","previewRedeem(uint256)":"4cdad506","previewWithdraw(uint256)":"0a28a477","redeem(uint256,address,address)":"ba087652","symbol()":"95d89b41","totalAssets()":"01e1d114","totalSupply()":"18160ddd","transfer(address,uint256)":"a9059cbb","transferFrom(address,address,uint256)":"23b872dd","withdraw(uint256,address,address)":"b460af94"},"id":146}