{"abi":[{"type":"function","name":"apr","inputs":[],"outputs":[{"name":"","type":"uint256","internalType":"uint256"}],"stateMutability":"view"},{"type":"function","name":"borrowRate","inputs":[{"name":"marketParams","type":"tuple","internalType":"struct MarketParams","components":[{"name":"loanToken","type":"address","internalType":"address"},{"name":"collateralToken","type":"address","internalType":"address"},{"name":"oracle","type":"address","internalType":"address"},{"name":"irm","type":"address","internalType":"address"},{"name":"lltv","type":"uint256","internalType":"uint256"}]},{"name":"market","type":"tuple","internalType":"struct Market","components":[{"name":"totalSupplyAssets","type":"uint128","internalType":"uint128"},{"name":"totalSupplyShares","type":"uint128","internalType":"uint128"},{"name":"totalBorrowAssets","type":"uint128","internalType":"uint128"},{"name":"totalBorrowShares","type":"uint128","internalType":"uint128"},{"name":"lastUpdate","type":"uint128","internalType":"uint128"},{"name":"fee","type":"uint128","internalType":"uint128"}]}],"outputs":[{"name":"","type":"uint256","internalType":"uint256"}],"stateMutability":"view"},{"type":"function","name":"borrowRateView","inputs":[{"name":"","type":"tuple","internalType":"struct MarketParams","components":[{"name":"loanToken","type":"address","internalType":"address"},{"name":"collateralToken","type":"address","internalType":"address"},{"name":"oracle","type":"address","internalType":"address"},{"name":"irm","type":"address","internalType":"address"},{"name":"lltv","type":"uint256","internalType":"uint256"}]},{"name":"","type":"tuple","internalType":"struct Market","components":[{"name":"totalSupplyAssets","type":"uint128","internalType":"uint128"},{"name":"totalSupplyShares","type":"uint128","internalType":"uint128"},{"name":"totalBorrowAssets","type":"uint128","internalType":"uint128"},{"name":"totalBorrowShares","type":"uint128","internalType":"uint128"},{"name":"lastUpdate","type":"uint128","internalType":"uint128"},{"name":"fee","type":"uint128","internalType":"uint128"}]}],"outputs":[{"name":"","type":"uint256","internalType":"uint256"}],"stateMutability":"view"},{"type":"function","name":"setApr","inputs":[{"name":"newApr","type":"uint256","internalType":"uint256"}],"outputs":[],"stateMutability":"nonpayable"}],"bytecode":{"object":"0x608060405234801561000f575f80fd5b506104d98061001d5f395ff3fe608060405234801561000f575f80fd5b506004361061004a575f3560e01c806357ded9c91461004e57806359cee29c1461006c5780638c00bf6b146100885780639451fed4146100b8575b5f80fd5b6100566100e8565b604051610063919061013b565b60405180910390f35b6100866004803603810190610081919061018b565b6100ed565b005b6100a2600480360381019061009d9190610407565b6100f6565b6040516100af919061013b565b60405180910390f35b6100d260048036038101906100cd9190610407565b610110565b6040516100df919061013b565b60405180910390f35b5f5481565b805f8190555050565b5f6301e133805f546101089190610473565b905092915050565b5f61011b83836100f6565b905092915050565b5f819050919050565b61013581610123565b82525050565b5f60208201905061014e5f83018461012c565b92915050565b5f604051905090565b5f80fd5b61016a81610123565b8114610174575f80fd5b50565b5f8135905061018581610161565b92915050565b5f602082840312156101a05761019f61015d565b5b5f6101ad84828501610177565b91505092915050565b5f80fd5b5f601f19601f8301169050919050565b7f4e487b71000000000000000000000000000000000000000000000000000000005f52604160045260245ffd5b610200826101ba565b810181811067ffffffffffffffff8211171561021f5761021e6101ca565b5b80604052505050565b5f610231610154565b905061023d82826101f7565b919050565b5f73ffffffffffffffffffffffffffffffffffffffff82169050919050565b5f61026b82610242565b9050919050565b61027b81610261565b8114610285575f80fd5b50565b5f8135905061029681610272565b92915050565b5f60a082840312156102b1576102b06101b6565b5b6102bb60a0610228565b90505f6102ca84828501610288565b5f8301525060206102dd84828501610288565b60208301525060406102f184828501610288565b604083015250606061030584828501610288565b606083015250608061031984828501610177565b60808301525092915050565b5f6fffffffffffffffffffffffffffffffff82169050919050565b61034981610325565b8114610353575f80fd5b50565b5f8135905061036481610340565b92915050565b5f60c0828403121561037f5761037e6101b6565b5b61038960c0610228565b90505f61039884828501610356565b5f8301525060206103ab84828501610356565b60208301525060406103bf84828501610356565b60408301525060606103d384828501610356565b60608301525060806103e784828501610356565b60808301525060a06103fb84828501610356565b60a08301525092915050565b5f80610160838503121561041e5761041d61015d565b5b5f61042b8582860161029c565b92505060a061043c8582860161036a565b9150509250929050565b7f4e487b71000000000000000000000000000000000000000000000000000000005f52601260045260245ffd5b5f61047d82610123565b915061048883610123565b92508261049857610497610446565b5b82820490509291505056fea26469706673582212201fdbf94fd193d08967a7d6e016b41408131f78bc50e60ae92d8a501812aab9b564736f6c63430008150033","linkReferences":{}},"methodIdentifiers":{"apr()":"57ded9c9","borrowRate((address,address,address,address,uint256),(uint128,uint128,uint128,uint128,uint128,uint128))":"9451fed4","borrowRateView((address,address,address,address,uint256),(uint128,uint128,uint128,uint128,uint128,uint128))":"8c00bf6b","setApr(uint256)":"59cee29c"},"id":86}