{"abi":[{"type":"function","name":"apr","inputs":[],"outputs":[{"name":"","type":"uint256","internalType":"uint256"}],"stateMutability":"view"},{"type":"function","name":"borrowRate","inputs":[{"name":"marketParams","type":"tuple","internalType":"struct MarketParams","components":[{"name":"loanToken","type":"address","internalType":"address"},{"name":"collateralToken","type":"address","internalType":"address"},{"name":"oracle","type":"address","internalType":"address"},{"name":"irm","type":"address","internalType":"address"},{"name":"lltv","type":"uint256","internalType":"uint256"}]},{"name":"market","type":"tuple","internalType":"struct Market","components":[{"name":"totalSupplyAssets","type":"uint128","internalType":"uint128"},{"name":"totalSupplyShares","type":"uint128","internalType":"uint128"},{"name":"totalBorrowAssets","type":"uint128","internalType":"uint128"},{"name":"totalBorrowShares","type":"uint128","internalType":"uint128"},{"name":"lastUpdate","type":"uint128","internalType":"uint128"},{"name":"fee","type":"uint128","internalType":"uint128"}]}],"outputs":[{"name":"","type":"uint256","internalType":"uint256"}],"stateMutability":"view"},{"type":"function","name":"borrowRateView","inputs":[{"name":"","type":"tuple","internalType":"struct MarketParams","components":[{"name":"loanToken","type":"address","internalType":"address"},{"name":"collateralToken","type":"address","internalType":"address"},{"name":"oracle","type":"address","internalType":"address"},{"name":"irm","type":"address","internalType":"address"},{"name":"lltv","type":"uint256","internalType":"uint256"}]},{"name":"","type":"tuple","internalType":"struct Market","components":[{"name":"totalSupplyAssets","type":"uint128","internalType":"uint128"},{"name":"totalSupplyShares","type":"uint128","internalType":"uint128"},{"name":"totalBorrowAssets","type":"uint128","internalType":"uint128"},{"name":"totalBorrowShares","type":"uint128","internalType":"uint128"},{"name":"lastUpdate","type":"uint128","internalType":"uint128"},{"name":"fee","type":"uint128","internalType":"uint128"}]}],"outputs":[{"name":"","type":"uint256","internalType":"uint256"}],"stateMutability":"view"},{"type":"function","name":"setApr","inputs":[{"name":"newApr","type":"uint256","internalType":"uint256"}],"outputs":[],"stateMutability":"nonpayable"}],"bytecode":{"object":"0x608060405234801561000f575f80fd5b506102cd8061001d5f395ff3fe608060405234801561000f575f80fd5b506004361061004a575f3560e01c806357ded9c91461004e57806359cee29c146100685780638c00bf6b1461007c5780639451fed41461008f575b5f80fd5b6100565f5481565b60405190815260200160405180910390f35b61007a6100763660046100c6565b5f55565b005b61005661008a36600461017b565b6100a2565b61005661009d36600461017b565b6100bb565b5f6301e133805f546100b49190610278565b9392505050565b5f6100b483836100a2565b5f602082840312156100d6575f80fd5b5035919050565b60405160a0810167ffffffffffffffff8111828210171561010c57634e487b7160e01b5f52604160045260245ffd5b60405290565b60405160c0810167ffffffffffffffff8111828210171561010c57634e487b7160e01b5f52604160045260245ffd5b80356001600160a01b0381168114610157575f80fd5b919050565b80356fffffffffffffffffffffffffffffffff81168114610157575f80fd5b5f8082840361016081121561018e575f80fd5b60a081121561019b575f80fd5b6101a36100dd565b6101ac85610141565b81526101ba60208601610141565b60208201526101cb60408601610141565b60408201526101dc60608601610141565b606082015260808581013590820152925060c0609f19820112156101fe575f80fd5b50610207610112565b61021360a0850161015c565b815261022160c0850161015c565b602082015261023260e0850161015c565b6040820152610244610100850161015c565b6060820152610256610120850161015c565b6080820152610268610140850161015c565b60a0820152809150509250929050565b5f8261029257634e487b7160e01b5f52601260045260245ffd5b50049056fea26469706673582212205858e07b6687953ad72471961ab0260d182755f49ea72c82d309c0c99c65d07d64736f6c63430008150033","linkReferences":{}},"methodIdentifiers":{"apr()":"57ded9c9","borrowRate((address,address,address,address,uint256),(uint128,uint128,uint128,uint128,uint128,uint128))":"9451fed4","borrowRateView((address,address,address,address,uint256),(uint128,uint128,uint128,uint128,uint128,uint128))":"8c00bf6b","setApr(uint256)":"59cee29c"},"id":62}