{"abi":[{"type":"function","name":"price","inputs":[],"outputs":[{"name":"","type":"uint256","internalType":"uint256"}],"stateMutability":"view"},{"type":"function","name":"setPrice","inputs":[{"name":"newPrice","type":"uint256","internalType":"uint256"}],"outputs":[],"stateMutability":"nonpayable"}],"bytecode":{"object":"0x6080604052348015600e575f80fd5b5060aa8061001b5f395ff3fe6080604052348015600e575f80fd5b50600436106030575f3560e01c806391b7f5ed146034578063a035b1fe146045575b5f80fd5b6043603f366004605e565b5f55565b005b604c5f5481565b60405190815260200160405180910390f35b5f60208284031215606d575f80fd5b503591905056fea264697066735822122094febda175bc5d11313d3ffccc53082421cd1c629dcb2fcf7265fb8210b6d38564736f6c63430008150033","linkReferences":{}},"methodIdentifiers":{"price()":"a035b1fe","setPrice(uint256)":"91b7f5ed"},"id":64}