{"abi":[{"type":"constructor","inputs":[{"name":"owner","type":"address","internalType":"address"},{"name":"morpho","type":"address","internalType":"address"},{"name":"initialTimelock","type":"uint256","internalType":"uint256"},{"name":"_asset","type":"address","internalType":"address"},{"name":"_name","type":"string","internalType":"string"},{"name":"_symbol","type":"string","internalType":"string"}],"stateMutability":"nonpayable"},{"type":"function","name":"DECIMALS_OFFSET","inputs":[],"outputs":[{"name":"","type":"uint8","internalType":"uint8"}],"stateMutability":"view"},{"type":"function","name":"DOMAIN_SEPARATOR","inputs":[],"outputs":[{"name":"","type":"bytes32","internalType":"bytes32"}],"stateMutability":"view"},{"type":"function","name":"MORPHO","inputs":[],"outputs":[{"name":"","type":"address","internalType":"contract IMorpho"}],"stateMutability":"view"},{"type":"function","name":"acceptCap","inputs":[{"name":"marketParams","type":"tuple","internalType":"struct MarketParams","components":[{"name":"loanToken","type":"address","internalType":"address"},{"name":"collateralToken","type":"address","internalType":"address"},{"name":"oracle","type":"address","internalType":"address"},{"name":"irm","type":"address","internalType":"address"},{"name":"lltv","type":"uint256","internalType":"uint256"}]}],"outputs":[],"stateMutability":"nonpayable"},{"type":"function","name":"acceptGuardian","inputs":[],"outputs":[],"stateMutability":"nonpayable"},{"type":"function","name":"acceptOwnership","inputs":[],"outputs":[],"stateMutability":"nonpayable"},{"type":"function","name":"acceptTimelock","inputs":[],"outputs":[],"stateMutability":"nonpayable"},{"type":"function","name":"allowance","inputs":[{"name":"owner","type":"address","internalType":"address"},{"name":"spender","type":"address","internalType":"address"}],"outputs":[{"name":"","type":"uint256","internalType":"uint256"}],"stateMutability":"view"},{"type":"function","name":"approve","inputs":[{"name":"spender","type":"address","internalType":"address"},{"name":"value","type":"uint256","internalType":"uint256"}],"outputs":[{"name":"","type":"bool","internalType":"bool"}],"stateMutability":"nonpayable"},{"type":"function","name":"asset","inputs":[],"outputs":[{"name":"","type":"address","internalType":"address"}],"stateMutability":"view"},{"type":"function","name":"balanceOf","inputs":[{"name":"account","type":"address","internalType":"address"}],"outputs":[{"name":"","type":"uint256","internalType":"uint256"}],"stateMutability":"view"},{"type":"function","name":"config","inputs":[{"name":"","type":"bytes32","internalType":"Id"}],"outputs":[{"name":"cap","type":"uint184","internalType":"uint184"},{"name":"enabled","type":"bool","internalType":"bool"},{"name":"removableAt","type":"uint64","internalType":"uint64"}],"stateMutability":"view"},{"type":"function","name":"convertToAssets","inputs":[{"name":"shares","type":"uint256","internalType":"uint256"}],"outputs":[{"name":"","type":"uint256","internalType":"uint256"}],"stateMutability":"view"},{"type":"function","name":"convertToShares","inputs":[{"name":"assets","type":"uint256","internalType":"uint256"}],"outputs":[{"name":"","type":"uint256","internalType":"uint256"}],"stateMutability":"view"},{"type":"function","name":"curator","inputs":[],"outputs":[{"name":"","type":"address","internalType":"address"}],"stateMutability":"view"},{"type":"function","name":"decimals","inputs":[],"outputs":[{"name":"","type":"uint8","internalType":"uint8"}],"stateMutability":"view"},{"type":"function","name":"deposit","inputs":[{"name":"assets","type":"uint256","internalType":"uint256"},{"name":"receiver","type":"address","internalType":"address"}],"outputs":[{"name":"shares","type":"uint256","internalType":"uint256"}],"stateMutability":"nonpayable"},{"type":"function","name":"eip712Domain","inputs":[],"outputs":[{"name":"fields","type":"bytes1","internalType":"bytes1"},{"name":"name","type":"string","internalType":"string"},{"name":"version","type":"string","internalType":"string"},{"name":"chainId","type":"uint256","internalType":"uint256"},{"name":"verifyingContract","type":"address","internalType":"address"},{"name":"salt","type":"bytes32","internalType":"bytes32"},{"name":"extensions","type":"uint256[]","internalType":"uint256[]"}],"stateMutability":"view"},{"type":"function","name":"fee","inputs":[],"outputs":[{"name":"","type":"uint96","internalType":"uint96"}],"stateMutability":"view"},{"type":"function","name":"feeRecipient","inputs":[],"outputs":[{"name":"","type":"address","internalType":"address"}],"stateMutability":"view"},{"type":"function","name":"guardian","inputs":[],"outputs":[{"name":"","type":"address","internalType":"address"}],"stateMutability":"view"},{"type":"function","name":"isAllocator","inputs":[{"name":"","type":"address","internalType":"address"}],"outputs":[{"name":"","type":"bool","internalType":"bool"}],"stateMutability":"view"},{"type":"function","name":"lastTotalAssets","inputs":[],"outputs":[{"name":"","type":"uint256","internalType":"uint256"}],"stateMutability":"view"},{"type":"function","name":"maxDeposit","inputs":[{"name":"","type":"address","internalType":"address"}],"outputs":[{"name":"","type":"uint256","internalType":"uint256"}],"stateMutability":"view"},{"type":"function","name":"maxMint","inputs":[{"name":"","type":"address","internalType":"address"}],"outputs":[{"name":"","type":"uint256","internalType":"uint256"}],"stateMutability":"view"},{"type":"function","name":"maxRedeem","inputs":[{"name":"owner","type":"address","internalType":"address"}],"outputs":[{"name":"","type":"uint256","internalType":"uint256"}],"stateMutability":"view"},{"type":"function","name":"maxWithdraw","inputs":[{"name":"owner","type":"address","internalType":"address"}],"outputs":[{"name":"assets","type":"uint256","internalType":"uint256"}],"stateMutability":"view"},{"type":"function","name":"mint","inputs":[{"name":"shares","type":"uint256","internalType":"uint256"},{"name":"receiver","type":"address","internalType":"address"}],"outputs":[{"name":"assets","type":"uint256","internalType":"uint256"}],"stateMutability":"nonpayable"},{"type":"function","name":"multicall","inputs":[{"name":"data","type":"bytes[]","internalType":"bytes[]"}],"outputs":[{"name":"results","type":"bytes[]","internalType":"bytes[]"}],"stateMutability":"nonpayable"},{"type":"function","name":"name","inputs":[],"outputs":[{"name":"","type":"string","internalType":"string"}],"stateMutability":"view"},{"type":"function","name":"nonces","inputs":[{"name":"owner","type":"address","internalType":"address"}],"outputs":[{"name":"","type":"uint256","internalType":"uint256"}],"stateMutability":"view"},{"type":"function","name":"owner","inputs":[],"outputs":[{"name":"","type":"address","internalType":"address"}],"stateMutability":"view"},{"type":"function","name":"pendingCap","inputs":[{"name":"","type":"bytes32","internalType":"Id"}],"outputs":[{"name":"value","type":"uint192","internalType":"uint192"},{"name":"validAt","type":"uint64","internalType":"uint64"}],"stateMutability":"view"},{"type":"function","name":"pendingGuardian","inputs":[],"outputs":[{"name":"value","type":"address","internalType":"address"},{"name":"validAt","type":"uint64","internalType":"uint64"}],"stateMutability":"view"},{"type":"function","name":"pendingOwner","inputs":[],"outputs":[{"name":"","type":"address","internalType":"address"}],"stateMutability":"view"},{"type":"function","name":"pendingTimelock","inputs":[],"outputs":[{"name":"value","type":"uint192","internalType":"uint192"},{"name":"validAt","type":"uint64","internalType":"uint64"}],"stateMutability":"view"},{"type":"function","name":"permit","inputs":[{"name":"owner","type":"address","internalType":"address"},{"name":"spender","type":"address","internalType":"address"},{"name":"value","type":"uint256","internalType":"uint256"},{"name":"deadline","type":"uint256","internalType":"uint256"},{"name":"v","type":"uint8","internalType":"uint8"},{"name":"r","type":"bytes32","internalType":"bytes32"},{"name":"s","type":"bytes32","internalType":"bytes32"}],"outputs":[],"stateMutability":"nonpayable"},{"type":"function","name":"previewDeposit","inputs":[{"name":"assets","type":"uint256","internalType":"uint256"}],"outputs":[{"name":"","type":"uint256","internalType":"uint256"}],"stateMutability":"view"},{"type":"function","name":"previewMint","inputs":[{"name":"shares","type":"uint256","internalType":"uint256"}],"outputs":[{"name":"","type":"uint256","internalType":"uint256"}],"stateMutability":"view"},{"type":"function","name":"previewRedeem","inputs":[{"name":"shares","type":"uint256","internalType":"uint256"}],"outputs":[{"name":"","type":"uint256","internalType":"uint256"}],"stateMutability":"view"},{"type":"function","name":"previewWithdraw","inputs":[{"name":"assets","type":"uint256","internalType":"uint256"}],"outputs":[{"name":"","type":"uint256","internalType":"uint256"}],"stateMutability":"view"},{"type":"function","name":"reallocate","inputs":[{"name":"allocations","type":"tuple[]","internalType":"struct MarketAllocation[]","components":[{"name":"marketParams","type":"tuple","internalType":"struct MarketParams","components":[{"name":"loanToken","type":"address","internalType":"address"},{"name":"collateralToken","type":"address","internalType":"address"},{"name":"oracle","type":"address","internalType":"address"},{"name":"irm","type":"address","internalType":"address"},{"name":"lltv","type":"uint256","internalType":"uint256"}]},{"name":"assets","type":"uint256","internalType":"uint256"}]}],"outputs":[],"stateMutability":"nonpayable"},{"type":"function","name":"redeem","inputs":[{"name":"shares","type":"uint256","internalType":"uint256"},{"name":"receiver","type":"address","internalType":"address"},{"name":"owner","type":"address","internalType":"address"}],"outputs":[{"name":"assets","type":"uint256","internalType":"uint256"}],"stateMutability":"nonpayable"},{"type":"function","name":"renounceOwnership","inputs":[],"outputs":[],"stateMutability":"nonpayable"},{"type":"function","name":"revokePendingCap","inputs":[{"name":"id","type":"bytes32","internalType":"Id"}],"outputs":[],"stateMutability":"nonpayable"},{"type":"function","name":"revokePendingGuardian","inputs":[],"outputs":[],"stateMutability":"nonpayable"},{"type":"function","name":"revokePendingMarketRemoval","inputs":[{"name":"id","type":"bytes32","internalType":"Id"}],"outputs":[],"stateMutability":"nonpayable"},{"type":"function","name":"revokePendingTimelock","inputs":[],"outputs":[],"stateMutability":"nonpayable"},{"type":"function","name":"setCurator","inputs":[{"name":"newCurator","type":"address","internalType":"address"}],"outputs":[],"stateMutability":"nonpayable"},{"type":"function","name":"setFee","inputs":[{"name":"newFee","type":"uint256","internalType":"uint256"}],"outputs":[],"stateMutability":"nonpayable"},{"type":"function","name":"setFeeRecipient","inputs":[{"name":"newFeeRecipient","type":"address","internalType":"address"}],"outputs":[],"stateMutability":"nonpayable"},{"type":"function","name":"setIsAllocator","inputs":[{"name":"newAllocator","type":"address","internalType":"address"},{"name":"newIsAllocator","type":"bool","internalType":"bool"}],"outputs":[],"stateMutability":"nonpayable"},{"type":"function","name":"setSkimRecipient","inputs":[{"name":"newSkimRecipient","type":"address","internalType":"address"}],"outputs":[],"stateMutability":"nonpayable"},{"type":"function","name":"setSupplyQueue","inputs":[{"name":"newSupplyQueue","type":"bytes32[]","internalType":"Id[]"}],"outputs":[],"stateMutability":"nonpayable"},{"type":"function","name":"skim","inputs":[{"name":"token","type":"address","internalType":"address"}],"outputs":[],"stateMutability":"nonpayable"},{"type":"function","name":"skimRecipient","inputs":[],"outputs":[{"name":"","type":"address","internalType":"address"}],"stateMutability":"view"},{"type":"function","name":"submitCap","inputs":[{"name":"marketParams","type":"tuple","internalType":"struct MarketParams","components":[{"name":"loanToken","type":"address","internalType":"address"},{"name":"collateralToken","type":"address","internalType":"address"},{"name":"oracle","type":"address","internalType":"address"},{"name":"irm","type":"address","internalType":"address"},{"name":"lltv","type":"uint256","internalType":"uint256"}]},{"name":"newSupplyCap","type":"uint256","internalType":"uint256"}],"outputs":[],"stateMutability":"nonpayable"},{"type":"function","name":"submitGuardian","inputs":[{"name":"newGuardian","type":"address","internalType":"address"}],"outputs":[],"stateMutability":"nonpayable"},{"type":"function","name":"submitMarketRemoval","inputs":[{"name":"marketParams","type":"tuple","internalType":"struct MarketParams","components":[{"name":"loanToken","type":"address","internalType":"address"},{"name":"collateralToken","type":"address","internalType":"address"},{"name":"oracle","type":"address","internalType":"address"},{"name":"irm","type":"address","internalType":"address"},{"name":"lltv","type":"uint256","internalType":"uint256"}]}],"outputs":[],"stateMutability":"nonpayable"},{"type":"function","name":"submitTimelock","inputs":[{"name":"newTimelock","type":"uint256","internalType":"uint256"}],"outputs":[],"stateMutability":"nonpayable"},{"type":"function","name":"supplyQueue","inputs":[{"name":"","type":"uint256","internalType":"uint256"}],"outputs":[{"name":"","type":"bytes32","internalType":"Id"}],"stateMutability":"view"},{"type":"function","name":"supplyQueueLength","inputs":[],"outputs":[{"name":"","type":"uint256","internalType":"uint256"}],"stateMutability":"view"},{"type":"function","name":"symbol","inputs":[],"outputs":[{"name":"","type":"string","internalType":"string"}],"stateMutability":"view"},{"type":"function","name":"timelock","inputs":[],"outputs":[{"name":"","type":"uint256","internalType":"uint256"}],"stateMutability":"view"},{"type":"function","name":"totalAssets","inputs":[],"outputs":[{"name":"assets","type":"uint256","internalType":"uint256"}],"stateMutability":"view"},{"type":"function","name":"totalSupply","inputs":[],"outputs":[{"name":"","type":"uint256","internalType":"uint256"}],"stateMutability":"view"},{"type":"function","name":"transfer","inputs":[{"name":"to","type":"address","internalType":"address"},{"name":"value","type":"uint256","internalType":"uint256"}],"outputs":[{"name":"","type":"bool","internalType":"bool"}],"stateMutability":"nonpayable"},{"type":"function","name":"transferFrom","inputs":[{"name":"from","type":"address","internalType":"address"},{"name":"to","type":"address","internalType":"address"},{"name":"value","type":"uint256","internalType":"uint256"}],"outputs":[{"name":"","type":"bool","internalType":"bool"}],"stateMutability":"nonpayable"},{"type":"function","name":"transferOwnership","inputs":[{"name":"newOwner","type":"address","internalType":"address"}],"outputs":[],"stateMutability":"nonpayable"},{"type":"function","name":"updateWithdrawQueue","inputs":[{"name":"indexes","type":"uint256[]","internalType":"uint256[]"}],"outputs":[],"stateMutability":"nonpayable"},{"type":"function","name":"withdraw","inputs":[{"name":"assets","type":"uint256","internalType":"uint256"},{"name":"receiver","type":"address","internalType":"address"},{"name":"owner","type":"address","internalType":"address"}],"outputs":[{"name":"shares","type":"uint256","internalType":"uint256"}],"stateMutability":"nonpayable"},{"type":"function","name":"withdrawQueue","inputs":[{"name":"","type":"uint256","internalType":"uint256"}],"outputs":[{"name":"","type":"bytes32","internalType":"Id"}],"stateMutability":"view"},{"type":"function","name":"withdrawQueueLength","inputs":[],"outputs":[{"name":"","type":"uint256","internalType":"uint256"}],"stateMutability":"view"},{"type":"event","name":"AccrueInterest","inputs":[{"name":"newTotalAssets","type":"uint256","indexed":false,"internalType":"uint256"},{"name":"feeShares","type":"uint256","indexed":false,"internalType":"uint256"}],"anonymous":false},{"type":"event","name":"Approval","inputs":[{"name":"owner","type":"address","indexed":true,"internalType":"address"},{"name":"spender","type":"address","indexed":true,"internalType":"address"},{"name":"value","type":"uint256","indexed":false,"internalType":"uint256"}],"anonymous":false},{"type":"event","name":"Deposit","inputs":[{"name":"sender","type":"address","indexed":true,"internalType":"address"},{"name":"owner","type":"address","indexed":true,"internalType":"address"},{"name":"assets","type":"uint256","indexed":false,"internalType":"uint256"},{"name":"shares","type":"uint256","indexed":false,"internalType":"uint256"}],"anonymous":false},{"type":"event","name":"EIP712DomainChanged","inputs":[],"anonymous":false},{"type":"event","name":"OwnershipTransferStarted","inputs":[{"name":"previousOwner","type":"address","indexed":true,"internalType":"address"},{"name":"newOwner","type":"address","indexed":true,"internalType":"address"}],"anonymous":false},{"type":"event","name":"OwnershipTransferred","inputs":[{"name":"previousOwner","type":"address","indexed":true,"internalType":"address"},{"name":"newOwner","type":"address","indexed":true,"internalType":"address"}],"anonymous":false},{"type":"event","name":"ReallocateSupply","inputs":[{"name":"caller","type":"address","indexed":true,"internalType":"address"},{"name":"id","type":"bytes32","indexed":true,"internalType":"Id"},{"name":"suppliedAssets","type":"uint256","indexed":false,"internalType":"uint256"},{"name":"suppliedShares","type":"uint256","indexed":false,"internalType":"uint256"}],"anonymous":false},{"type":"event","name":"ReallocateWithdraw","inputs":[{"name":"caller","type":"address","indexed":true,"internalType":"address"},{"name":"id","type":"bytes32","indexed":true,"internalType":"Id"},{"name":"withdrawnAssets","type":"uint256","indexed":false,"internalType":"uint256"},{"name":"withdrawnShares","type":"uint256","indexed":false,"internalType":"uint256"}],"anonymous":false},{"type":"event","name":"RevokePendingCap","inputs":[{"name":"caller","type":"address","indexed":true,"internalType":"address"},{"name":"id","type":"bytes32","indexed":true,"internalType":"Id"}],"anonymous":false},{"type":"event","name":"RevokePendingGuardian","inputs":[{"name":"caller","type":"address","indexed":true,"internalType":"address"}],"anonymous":false},{"type":"event","name":"RevokePendingMarketRemoval","inputs":[{"name":"caller","type":"address","indexed":true,"internalType":"address"},{"name":"id","type":"bytes32","indexed":true,"internalType":"Id"}],"anonymous":false},{"type":"event","name":"RevokePendingTimelock","inputs":[{"name":"caller","type":"address","indexed":true,"internalType":"address"}],"anonymous":false},{"type":"event","name":"SetCap","inputs":[{"name":"caller","type":"address","indexed":true,"internalType":"address"},{"name":"id","type":"bytes32","indexed":true,"internalType":"Id"},{"name":"cap","type":"uint256","indexed":false,"internalType":"uint256"}],"anonymous":false},{"type":"event","name":"SetCurator","inputs":[{"name":"newCurator","type":"address","indexed":true,"internalType":"address"}],"anonymous":false},{"type":"event","name":"SetFee","inputs":[{"name":"caller","type":"address","indexed":true,"internalType":"address"},{"name":"newFee","type":"uint256","indexed":false,"internalType":"uint256"}],"anonymous":false},{"type":"event","name":"SetFeeRecipient","inputs":[{"name":"newFeeRecipient","type":"address","indexed":true,"internalType":"address"}],"anonymous":false},{"type":"event","name":"SetGuardian","inputs":[{"name":"caller","type":"address","indexed":true,"internalType":"address"},{"name":"guardian","type":"address","indexed":true,"internalType":"address"}],"anonymous":false},{"type":"event","name":"SetIsAllocator","inputs":[{"name":"allocator","type":"address","indexed":true,"internalType":"address"},{"name":"isAllocator","type":"bool","indexed":false,"internalType":"bool"}],"anonymous":false},{"type":"event","name":"SetSkimRecipient","inputs":[{"name":"newSkimRecipient","type":"address","indexed":true,"internalType":"address"}],"anonymous":false},{"type":"event","name":"SetSupplyQueue","inputs":[{"name":"caller","type":"address","indexed":true,"internalType":"address"},{"name":"newSupplyQueue","type":"bytes32[]","indexed":false,"internalType":"Id[]"}],"anonymous":false},{"type":"event","name":"SetTimelock","inputs":[{"name":"caller","type":"address","indexed":true,"internalType":"address"},{"name":"newTimelock","type":"uint256","indexed":false,"internalType":"uint256"}],"anonymous":false},{"type":"event","name":"SetWithdrawQueue","inputs":[{"name":"caller","type":"address","indexed":true,"internalType":"address"},{"name":"newWithdrawQueue","type":"bytes32[]","indexed":false,"internalType":"Id[]"}],"anonymous":false},{"type":"event","name":"Skim","inputs":[{"name":"caller","type":"address","indexed":true,"internalType":"address"},{"name":"token","type":"address","indexed":true,"internalType":"address"},{"name":"amount","type":"uint256","indexed":false,"internalType":"uint256"}],"anonymous":false},{"type":"event","name":"SubmitCap","inputs":[{"name":"caller","type":"address","indexed":true,"internalType":"address"},{"name":"id","type":"bytes32","indexed":true,"internalType":"Id"},{"name":"cap","type":"uint256","indexed":false,"internalType":"uint256"}],"anonymous":false},{"type":"event","name":"SubmitGuardian","inputs":[{"name":"newGuardian","type":"address","indexed":true,"internalType":"address"}],"anonymous":false},{"type":"event","name":"SubmitMarketRemoval","inputs":[{"name":"caller","type":"address","indexed":true,"internalType":"address"},{"name":"id","type":"bytes32","indexed":true,"internalType":"Id"}],"anonymous":false},{"type":"event","name":"SubmitTimelock","inputs":[{"name":"newTimelock","type":"uint256","indexed":false,"internalType":"uint256"}],"anonymous":false},{"type":"event","name":"Transfer","inputs":[{"name":"from","type":"address","indexed":true,"internalType":"address"},{"name":"to","type":"address","indexed":true,"internalType":"address"},{"name":"value","type":"uint256","indexed":false,"internalType":"uint256"}],"anonymous":false},{"type":"event","name":"UpdateLastTotalAssets","inputs":[{"name":"updatedTotalAssets","type":"uint256","indexed":false,"internalType":"uint256"}],"anonymous":false},{"type":"event","name":"Withdraw","inputs":[{"name":"sender","type":"address","indexed":true,"internalType":"address"},{"name":"receiver","type":"address","indexed":true,"internalType":"address"},{"name":"owner","type":"address","indexed":true,"internalType":"address"},{"name":"assets","type":"uint256","indexed":false,"internalType":"uint256"},{"name":"shares","type":"uint256","indexed":false,"internalType":"uint256"}],"anonymous":false},{"type":"error","name":"AboveMaxTimelock","inputs":[]},{"type":"error","name":"AddressEmptyCode","inputs":[{"name":"target","type":"address","internalType":"address"}]},{"type":"error","name":"AddressInsufficientBalance","inputs":[{"name":"account","type":"address","internalType":"address"}]},{"type":"error","name":"AllCapsReached","inputs":[]},{"type":"error","name":"AlreadyPending","inputs":[]},{"type":"error","name":"AlreadySet","inputs":[]},{"type":"error","name":"BelowMinTimelock","inputs":[]},{"type":"error","name":"DuplicateMarket","inputs":[{"name":"id","type":"bytes32","internalType":"Id"}]},{"type":"error","name":"ECDSAInvalidSignature","inputs":[]},{"type":"error","name":"ECDSAInvalidSignatureLength","inputs":[{"name":"length","type":"uint256","internalType":"uint256"}]},{"type":"error","name":"ECDSAInvalidSignatureS","inputs":[{"name":"s","type":"bytes32","internalType":"bytes32"}]},{"type":"error","name":"ERC20InsufficientAllowance","inputs":[{"name":"spender","type":"address","internalType":"address"},{"name":"allowance","type":"uint256","internalType":"uint256"},{"name":"needed","type":"uint256","internalType":"uint256"}]},{"type":"error","name":"ERC20InsufficientBalance","inputs":[{"name":"sender","type":"address","internalType":"address"},{"name":"balance","type":"uint256","internalType":"uint256"},{"name":"needed","type":"uint256","internalType":"uint256"}]},{"type":"error","name":"ERC20InvalidApprover","inputs":[{"name":"approver","type":"address","internalType":"address"}]},{"type":"error","name":"ERC20InvalidReceiver","inputs":[{"name":"receiver","type":"address","internalType":"address"}]},{"type":"error","name":"ERC20InvalidSender","inputs":[{"name":"sender","type":"address","internalType":"address"}]},{"type":"error","name":"ERC20InvalidSpender","inputs":[{"name":"spender","type":"address","internalType":"address"}]},{"type":"error","name":"ERC2612ExpiredSignature","inputs":[{"name":"deadline","type":"uint256","internalType":"uint256"}]},{"type":"error","name":"ERC2612InvalidSigner","inputs":[{"name":"signer","type":"address","internalType":"address"},{"name":"owner","type":"address","internalType":"address"}]},{"type":"error","name":"ERC4626ExceededMaxDeposit","inputs":[{"name":"receiver","type":"address","internalType":"address"},{"name":"assets","type":"uint256","internalType":"uint256"},{"name":"max","type":"uint256","internalType":"uint256"}]},{"type":"error","name":"ERC4626ExceededMaxMint","inputs":[{"name":"receiver","type":"address","internalType":"address"},{"name":"shares","type":"uint256","internalType":"uint256"},{"name":"max","type":"uint256","internalType":"uint256"}]},{"type":"error","name":"ERC4626ExceededMaxRedeem","inputs":[{"name":"owner","type":"address","internalType":"address"},{"name":"shares","type":"uint256","internalType":"uint256"},{"name":"max","type":"uint256","internalType":"uint256"}]},{"type":"error","name":"ERC4626ExceededMaxWithdraw","inputs":[{"name":"owner","type":"address","internalType":"address"},{"name":"assets","type":"uint256","internalType":"uint256"},{"name":"max","type":"uint256","internalType":"uint256"}]},{"type":"error","name":"FailedInnerCall","inputs":[]},{"type":"error","name":"InconsistentAsset","inputs":[{"name":"id","type":"bytes32","internalType":"Id"}]},{"type":"error","name":"InconsistentReallocation","inputs":[]},{"type":"error","name":"InvalidAccountNonce","inputs":[{"name":"account","type":"address","internalType":"address"},{"name":"currentNonce","type":"uint256","internalType":"uint256"}]},{"type":"error","name":"InvalidMarketRemovalNonZeroCap","inputs":[{"name":"id","type":"bytes32","internalType":"Id"}]},{"type":"error","name":"InvalidMarketRemovalNonZeroSupply","inputs":[{"name":"id","type":"bytes32","internalType":"Id"}]},{"type":"error","name":"InvalidMarketRemovalTimelockNotElapsed","inputs":[{"name":"id","type":"bytes32","internalType":"Id"}]},{"type":"error","name":"InvalidShortString","inputs":[]},{"type":"error","name":"MarketNotCreated","inputs":[]},{"type":"error","name":"MarketNotEnabled","inputs":[{"name":"id","type":"bytes32","internalType":"Id"}]},{"type":"error","name":"MathOverflowedMulDiv","inputs":[]},{"type":"error","name":"MaxFeeExceeded","inputs":[]},{"type":"error","name":"MaxQueueLengthExceeded","inputs":[]},{"type":"error","name":"NoPendingValue","inputs":[]},{"type":"error","name":"NonZeroCap","inputs":[]},{"type":"error","name":"NotAllocatorRole","inputs":[]},{"type":"error","name":"NotCuratorNorGuardianRole","inputs":[]},{"type":"error","name":"NotCuratorRole","inputs":[]},{"type":"error","name":"NotEnoughLiquidity","inputs":[]},{"type":"error","name":"NotGuardianRole","inputs":[]},{"type":"error","name":"OwnableInvalidOwner","inputs":[{"name":"owner","type":"address","internalType":"address"}]},{"type":"error","name":"OwnableUnauthorizedAccount","inputs":[{"name":"account","type":"address","internalType":"address"}]},{"type":"error","name":"PendingCap","inputs":[{"name":"id","type":"bytes32","internalType":"Id"}]},{"type":"error","name":"PendingRemoval","inputs":[]},{"type":"error","name":"SafeCastOverflowedUintDowncast","inputs":[{"name":"bits","type":"uint8","internalType":"uint8"},{"name":"value","type":"uint256","internalType":"uint256"}]},{"type":"error","name":"SafeERC20FailedOperation","inputs":[{"name":"token","type":"address","internalType":"address"}]},{"type":"error","name":"StringTooLong","inputs":[{"name":"str","type":"string","internalType":"string"}]},{"type":"error","name":"SupplyCapExceeded","inputs":[{"name":"id","type":"bytes32","internalType":"Id"}]},{"type":"error","name":"TimelockNotElapsed","inputs":[]},{"type":"error","name":"UnauthorizedMarket","inputs":[{"name":"id","type":"bytes32","internalType":"Id"}]},{"type":"error","name":"ZeroAddress","inputs":[]},{"type":"error","name":"ZeroFeeRecipient","inputs":[]}],"bytecode":{"object":"0x6101e060405234801562000011575f80fd5b506040516200b2f43803806200b2f4833981810160405281019062000037919062000ee5565b8582806040518060400160405280600181526020017f31000000000000000000000000000000000000000000000000000000000000008152508686868160039081620000849190620011e9565b508060049081620000969190620011e9565b5050505f80620000ac83620003e860201b60201c565b9150915081620000be576012620000c0565b805b60ff1660a08160ff16815250508273ffffffffffffffffffffffffffffffffffffffff1660808173ffffffffffffffffffffffffffffffffffffffff16815250505050506200011a600583620004fb60201b90919060201c565b610160818152505062000138600682620004fb60201b90919060201c565b610180818152505081805190602001206101208181525050808051906020012061014081815250504660e08181525050620001786200055060201b60201c565b60c081815250503073ffffffffffffffffffffffffffffffffffffffff166101008173ffffffffffffffffffffffffffffffffffffffff16815250505050505f73ffffffffffffffffffffffffffffffffffffffff168173ffffffffffffffffffffffffffffffffffffffff16036200022a575f6040517f1e4fbdf7000000000000000000000000000000000000000000000000000000008152600401620002219190620012de565b60405180910390fd5b6200023b81620005ad60201b60201c565b505f73ffffffffffffffffffffffffffffffffffffffff168573ffffffffffffffffffffffffffffffffffffffff1603620002a2576040517fd92e233d00000000000000000000000000000000000000000000000000000000815260040160405180910390fd5b8473ffffffffffffffffffffffffffffffffffffffff166101a08173ffffffffffffffffffffffffffffffffffffffff16815250506200035f8373ffffffffffffffffffffffffffffffffffffffff1663313ce5676040518163ffffffff1660e01b8152600401602060405180830381865afa15801562000325573d5f803e3d5ffd5b505050506040513d601f19601f820116820180604052508101906200034b919062001334565b60ff166012620005e560201b90919060201c565b60ff166101c08160ff16815250506200037e84620005f560201b60201c565b6200038f846200067460201b60201c565b620003dc857fffffffffffffffffffffffffffffffffffffffffffffffffffffffffffffffff8573ffffffffffffffffffffffffffffffffffffffff166200072560201b9092919060201c565b5050505050506200169e565b5f805f808473ffffffffffffffffffffffffffffffffffffffff1660405160240160405160208183030381529060405263313ce56760e01b6020820180517bffffffffffffffffffffffffffffffffffffffffffffffffffffffff83818316178352505050506040516200045d9190620013ae565b5f60405180830381855afa9150503d805f811462000497576040519150601f19603f3d011682016040523d82523d5f602084013e6200049c565b606091505b5091509150818015620004b157506020815110155b15620004ed575f81806020019051810190620004ce9190620013c6565b905060ff80168111620004eb5760018194509450505050620004f6565b505b5f809350935050505b915091565b5f602083511015620005205762000518836200084f60201b60201c565b90506200054a565b826200053283620008b960201b60201c565b5f019081620005429190620011e9565b5060ff5f1b90505b92915050565b5f7f8b73c3c69bb8fe3d512ecc4cf759cc79239f7b179b0ffacaa9a75d522b39400f610120516101405146306040516020016200059295949392919062001421565b60405160208183030381529060405280519060200120905090565b60095f6101000a81549073ffffffffffffffffffffffffffffffffffffffff0219169055620005e281620008c260201b60201c565b50565b5f81830382841102905092915050565b6212750081111562000633576040517f46fedb5700000000000000000000000000000000000000000000000000000000815260040160405180910390fd5b6201518081101562000671576040517f342b27be00000000000000000000000000000000000000000000000000000000815260040160405180910390fd5b50565b80600e819055506200068b6200098560201b60201c565b73ffffffffffffffffffffffffffffffffffffffff167fd28e9b90ee9b37c5936ff84392d71f29ff18117d7e76bcee60615262a90a3f7582604051620006d291906200147c565b60405180910390a260115f8082015f6101000a81549077ffffffffffffffffffffffffffffffffffffffffffffffff02191690555f820160186101000a81549067ffffffffffffffff0219169055505050565b5f8373ffffffffffffffffffffffffffffffffffffffff1663095ea7b384846040516024016200075792919062001497565b604051602081830303815290604052915060e01b6020820180517bffffffffffffffffffffffffffffffffffffffffffffffffffffffff83818316178352505050509050620007ad84826200098c60201b60201c565b620008495762000836848573ffffffffffffffffffffffffffffffffffffffff1663095ea7b3865f604051602401620007e892919062001503565b604051602081830303815290604052915060e01b6020820180517bffffffffffffffffffffffffffffffffffffffffffffffffffffffff838183161783525050505062000a5460201b60201c565b62000848848262000a5460201b60201c565b5b50505050565b5f80829050601f815111156200089e57826040517f305a27a90000000000000000000000000000000000000000000000000000000081526004016200089591906200157e565b60405180910390fd5b805181620008ac90620015c5565b5f1c175f1b915050919050565b5f819050919050565b5f60085f9054906101000a900473ffffffffffffffffffffffffffffffffffffffff1690508160085f6101000a81548173ffffffffffffffffffffffffffffffffffffffff021916908373ffffffffffffffffffffffffffffffffffffffff1602179055508173ffffffffffffffffffffffffffffffffffffffff168173ffffffffffffffffffffffffffffffffffffffff167f8be0079c531659141344cd1fd0a4f28419497f9722a3daafe3b4186f6b6457e060405160405180910390a35050565b5f33905090565b5f805f8473ffffffffffffffffffffffffffffffffffffffff1684604051620009b69190620013ae565b5f604051808303815f865af19150503d805f8114620009f1576040519150601f19603f3d011682016040523d82523d5f602084013e620009f6565b606091505b509150915081801562000a2757505f8151148062000a2657508080602001905181019062000a2591906200166e565b5b5b801562000a4a57505f8573ffffffffffffffffffffffffffffffffffffffff163b115b9250505092915050565b5f62000a80828473ffffffffffffffffffffffffffffffffffffffff1662000af160201b90919060201c565b90505f81511415801562000aa757508080602001905181019062000aa591906200166e565b155b1562000aec57826040517f5274afe700000000000000000000000000000000000000000000000000000000815260040162000ae39190620012de565b60405180910390fd5b505050565b606062000b0683835f62000b0e60201b60201c565b905092915050565b60608147101562000b5857306040517fcd78605900000000000000000000000000000000000000000000000000000000815260040162000b4f9190620012de565b60405180910390fd5b5f808573ffffffffffffffffffffffffffffffffffffffff16848660405162000b829190620013ae565b5f6040518083038185875af1925050503d805f811462000bbe576040519150601f19603f3d011682016040523d82523d5f602084013e62000bc3565b606091505b509150915062000bdb86838362000be660201b60201c565b925050509392505050565b60608262000c055762000bff8262000c8260201b60201c565b62000c7a565b5f825114801562000c2c57505f8473ffffffffffffffffffffffffffffffffffffffff163b145b1562000c7157836040517f9996b31500000000000000000000000000000000000000000000000000000000815260040162000c689190620012de565b60405180910390fd5b81905062000c7b565b5b9392505050565b5f8151111562000c955780518082602001fd5b6040517f1425ea4200000000000000000000000000000000000000000000000000000000815260040160405180910390fd5b5f604051905090565b5f80fd5b5f80fd5b5f73ffffffffffffffffffffffffffffffffffffffff82169050919050565b5f62000d038262000cd8565b9050919050565b62000d158162000cf7565b811462000d20575f80fd5b50565b5f8151905062000d338162000d0a565b92915050565b5f819050919050565b62000d4d8162000d39565b811462000d58575f80fd5b50565b5f8151905062000d6b8162000d42565b92915050565b5f80fd5b5f80fd5b5f601f19601f8301169050919050565b7f4e487b71000000000000000000000000000000000000000000000000000000005f52604160045260245ffd5b62000dc18262000d79565b810181811067ffffffffffffffff8211171562000de35762000de262000d89565b5b80604052505050565b5f62000df762000cc7565b905062000e05828262000db6565b919050565b5f67ffffffffffffffff82111562000e275762000e2662000d89565b5b62000e328262000d79565b9050602081019050919050565b5f5b8381101562000e5e57808201518184015260208101905062000e41565b5f8484015250505050565b5f62000e7f62000e798462000e0a565b62000dec565b90508281526020810184848401111562000e9e5762000e9d62000d75565b5b62000eab84828562000e3f565b509392505050565b5f82601f83011262000eca5762000ec962000d71565b5b815162000edc84826020860162000e69565b91505092915050565b5f805f805f8060c0878903121562000f025762000f0162000cd0565b5b5f62000f1189828a0162000d23565b965050602062000f2489828a0162000d23565b955050604062000f3789828a0162000d5b565b945050606062000f4a89828a0162000d23565b935050608087015167ffffffffffffffff81111562000f6e5762000f6d62000cd4565b5b62000f7c89828a0162000eb3565b92505060a087015167ffffffffffffffff81111562000fa05762000f9f62000cd4565b5b62000fae89828a0162000eb3565b9150509295509295509295565b5f81519050919050565b7f4e487b71000000000000000000000000000000000000000000000000000000005f52602260045260245ffd5b5f60028204905060018216806200100a57607f821691505b60208210810362001020576200101f62000fc5565b5b50919050565b5f819050815f5260205f209050919050565b5f6020601f8301049050919050565b5f82821b905092915050565b5f60088302620010847fffffffffffffffffffffffffffffffffffffffffffffffffffffffffffffffff8262001047565b62001090868362001047565b95508019841693508086168417925050509392505050565b5f819050919050565b5f620010d1620010cb620010c58462000d39565b620010a8565b62000d39565b9050919050565b5f819050919050565b620010ec83620010b1565b62001104620010fb82620010d8565b84845462001053565b825550505050565b5f90565b6200111a6200110c565b62001127818484620010e1565b505050565b5b818110156200114e57620011425f8262001110565b6001810190506200112d565b5050565b601f8211156200119d57620011678162001026565b620011728462001038565b8101602085101562001182578190505b6200119a620011918562001038565b8301826200112c565b50505b505050565b5f82821c905092915050565b5f620011bf5f1984600802620011a2565b1980831691505092915050565b5f620011d98383620011ae565b9150826002028217905092915050565b620011f48262000fbb565b67ffffffffffffffff81111562001210576200120f62000d89565b5b6200121c825462000ff2565b6200122982828562001152565b5f60209050601f8311600181146200125f575f84156200124a578287015190505b620012568582620011cc565b865550620012c5565b601f1984166200126f8662001026565b5f5b82811015620012985784890151825560018201915060208501945060208101905062001271565b86831015620012b85784890151620012b4601f891682620011ae565b8355505b6001600288020188555050505b505050505050565b620012d88162000cf7565b82525050565b5f602082019050620012f35f830184620012cd565b92915050565b5f60ff82169050919050565b6200131081620012f9565b81146200131b575f80fd5b50565b5f815190506200132e8162001305565b92915050565b5f602082840312156200134c576200134b62000cd0565b5b5f6200135b848285016200131e565b91505092915050565b5f81519050919050565b5f81905092915050565b5f620013848262001364565b6200139081856200136e565b9350620013a281856020860162000e3f565b80840191505092915050565b5f620013bb828462001378565b915081905092915050565b5f60208284031215620013de57620013dd62000cd0565b5b5f620013ed8482850162000d5b565b91505092915050565b5f819050919050565b6200140a81620013f6565b82525050565b6200141b8162000d39565b82525050565b5f60a082019050620014365f830188620013ff565b620014456020830187620013ff565b620014546040830186620013ff565b62001463606083018562001410565b620014726080830184620012cd565b9695505050505050565b5f602082019050620014915f83018462001410565b92915050565b5f604082019050620014ac5f830185620012cd565b620014bb602083018462001410565b9392505050565b5f819050919050565b5f620014eb620014e5620014df84620014c2565b620010a8565b62000d39565b9050919050565b620014fd81620014cb565b82525050565b5f604082019050620015185f830185620012cd565b620015276020830184620014f2565b9392505050565b5f82825260208201905092915050565b5f6200154a8262000fbb565b6200155681856200152e565b93506200156881856020860162000e3f565b620015738162000d79565b840191505092915050565b5f6020820190508181035f8301526200159881846200153e565b905092915050565b5f819050602082019050919050565b5f620015bc8251620013f6565b80915050919050565b5f620015d18262001364565b82620015dd84620015a0565b9050620015ea81620015af565b925060208210156200162d57620016287fffffffffffffffffffffffffffffffffffffffffffffffffffffffffffffffff8360200360080262001047565b831692505b5050919050565b5f8115159050919050565b6200164a8162001634565b811462001655575f80fd5b50565b5f8151905062001668816200163f565b92915050565b5f6020828403121562001686576200168562000cd0565b5b5f620016958482850162001658565b91505092915050565b60805160a05160c05160e05161010051610120516101405161016051610180516101a0516101c051619b3b620017b95f395f8181613953015261623901525f8181610e4101528181611734015281816118b501528181611f6f01528181612a9b01528181612d070152818161455b01528181614bf901528181614ef801528181614f4e01528181615343015281816153c90152818161546801528181616663015281816166ea0152818161678a0152818161683c01528181616beb01528181616ed301528181616f2201526176be01525f61559101525f61555601525f6162a201525f61628101525f61493301525f61498901525f6149b201525f61490201525f818161170e015281816165280152616d4f0152619b3b5ff3fe608060405234801561000f575f80fd5b5060043610610431575f3560e01c80637cc4d9a111610234578063ba08765211610139578063d905777e116100c1578063e74b981b11610085578063e74b981b14610d52578063e90956cf14610d6e578063ef8b30f714610d8a578063f2fde38b14610dba578063f7d1852114610dd657610431565b8063d905777e14610c98578063dd62ed3e14610cc8578063ddca3f4314610cf8578063e30c397814610d16578063e66f53b714610d3457610431565b8063c9649aa911610108578063c9649aa914610bf2578063cc718f7614610bfc578063ce96cb7714610c2e578063d33219b414610c5e578063d505accf14610c7c57610431565b8063ba08765214610b46578063bc25cf7714610b76578063c63d75b614610b92578063c6e6f59214610bc257610431565b8063a17b3130116101bc578063ac9650d81161018b578063ac9650d814610a7c578063aea70acc14610aac578063b192a84a14610aca578063b3d7f6b914610ae6578063b460af9414610b1657610431565b8063a17b3130146109f3578063a31be5d614610a11578063a5f31d6114610a42578063a9059cbb14610a4c57610431565b80638a2c7b39116102035780638a2c7b39146109615780638da5cb5b1461096b57806394bf804d1461098957806395d89b41146109b95780639d6b4a45146109d757610431565b80637cc4d9a1146108d25780637ecebe00146108f157806384755b5f1461092157806384b0196e1461093d57610431565b8063402d267d1161033a57806369fe0e2d116102c2578063715018a611610291578063715018a6146108675780637224a512146108715780637299aa311461088d578063762c31ba146108a957806379ba5097146108c857610431565b806369fe0e2d146107cf5780636e553f65146107eb5780636fda38681461081b57806370a082311461083757610431565b80634b998de5116103095780634b998de5146107055780634cdad506146107215780634dedf20e14610751578063568efc071461078157806362518ddf1461079f57610431565b8063402d267d1461067d57806341b67833146106ad578063452a9320146106c957806346904840146106e757610431565b80632acc56f9116103bd5780633644e5151161038c5780633644e515146105e9578063388af5b51461060757806338d52e0f146106255780633acb5624146106435780633b24c2bf1461066157610431565b80632acc56f9146105755780632b30997b14610591578063313ce567146105ad57806333f91ebb146105cb57610431565b80630a28a477116104045780630a28a477146104d1578063102f7b6c1461050157806318160ddd1461051d5780631ecca77c1461053b57806323b872dd1461054557610431565b806301e1d1141461043557806306fdde031461045357806307a2d13a14610471578063095ea7b3146104a1575b5f80fd5b61043d610e06565b60405161044a9190617ae6565b60405180910390f35b61045b610ea7565b6040516104689190617b89565b60405180910390f35b61048b60048036038101906104869190617be4565b610f37565b6040516104989190617ae6565b60405180910390f35b6104bb60048036038101906104b69190617c69565b610f49565b6040516104c89190617cc1565b60405180910390f35b6104eb60048036038101906104e69190617be4565b610f6b565b6040516104f89190617ae6565b60405180910390f35b61051b60048036038101906105169190617d0d565b610f7e565b005b610525611158565b6040516105329190617ae6565b60405180910390f35b610543611161565b005b61055f600480360381019061055a9190617d38565b6112c6565b60405161056c9190617cc1565b60405180910390f35b61058f600480360381019061058a9190617de9565b6112f4565b005b6105ab60048036038101906105a69190617e34565b6115aa565b005b6105b56116be565b6040516105c29190617e7a565b60405180910390f35b6105d36116cc565b6040516105e09190617ae6565b60405180910390f35b6105f16116d8565b6040516105fe9190617ea2565b60405180910390f35b61060f6116e6565b60405161061c9190617eca565b60405180910390f35b61062d61170b565b60405161063a9190617eca565b60405180910390f35b61064b611732565b6040516106589190617f3e565b60405180910390f35b61067b6004803603810190610676919061805c565b611756565b005b61069760048036038101906106929190617e34565b611b3b565b6040516106a49190617ae6565b60405180910390f35b6106c760048036038101906106c291906180ef565b611b4b565b005b6106d1612196565b6040516106de9190617eca565b60405180910390f35b6106ef6121bb565b6040516106fc9190617eca565b60405180910390f35b61071f600480360381019061071a9190617d0d565b6121e1565b005b61073b60048036038101906107369190617be4565b61238e565b6040516107489190617ae6565b60405180910390f35b61076b60048036038101906107669190617e34565b6123a0565b6040516107789190617cc1565b60405180910390f35b6107896123bd565b6040516107969190617ae6565b60405180910390f35b6107b960048036038101906107b49190617be4565b6123c3565b6040516107c6919061815a565b60405180910390f35b6107e960048036038101906107e49190617be4565b6123e3565b005b61080560048036038101906108009190618173565b6125d2565b6040516108129190617ae6565b60405180910390f35b610835600480360381019061083091906181b1565b612614565b005b610851600480360381019061084c9190617e34565b612713565b60405161085e9190617ae6565b60405180910390f35b61086f612758565b005b61088b60048036038101906108869190617be4565b61276b565b005b6108a760048036038101906108a29190618231565b61287d565b005b6108b1612e6b565b6040516108bf92919061829e565b60405180910390f35b6108d0612eae565b005b6108da612f3c565b6040516108e89291906182f7565b60405180910390f35b61090b60048036038101906109069190617e34565b612f83565b6040516109189190617ae6565b60405180910390f35b61093b600480360381019061093691906181b1565b612f94565b005b6109456132d1565b604051610958979695949392919061840f565b60405180910390f35b610969613376565b005b610973613459565b6040516109809190617eca565b60405180910390f35b6109a3600480360381019061099e9190618173565b613481565b6040516109b09190617ae6565b60405180910390f35b6109c16134c4565b6040516109ce9190617b89565b60405180910390f35b6109f160048036038101906109ec9190617e34565b613554565b005b6109fb6136fe565b604051610a089190617ae6565b60405180910390f35b610a2b6004803603810190610a269190617d0d565b61370a565b604051610a399291906182f7565b60405180910390f35b610a4a613760565b005b610a666004803603810190610a619190617c69565b613825565b604051610a739190617cc1565b60405180910390f35b610a966004803603810190610a9191906184e6565b613847565b604051610aa3919061863e565b60405180910390f35b610ab4613951565b604051610ac19190617e7a565b60405180910390f35b610ae46004803603810190610adf9190618688565b613975565b005b610b006004803603810190610afb9190617be4565b613aa9565b604051610b0d9190617ae6565b60405180910390f35b610b306004803603810190610b2b91906186c6565b613abc565b604051610b3d9190617ae6565b60405180910390f35b610b606004803603810190610b5b91906186c6565b613b15565b604051610b6d9190617ae6565b60405180910390f35b610b906004803603810190610b8b9190617e34565b613b6d565b005b610bac6004803603810190610ba79190617e34565b613d2a565b604051610bb99190617ae6565b60405180910390f35b610bdc6004803603810190610bd79190617be4565b613d48565b604051610be99190617ae6565b60405180910390f35b610bfa613d5a565b005b610c166004803603810190610c119190617d0d565b613ec3565b604051610c2593929190618747565b60405180910390f35b610c486004803603810190610c439190617e34565b613f2a565b604051610c559190617ae6565b60405180910390f35b610c66613f40565b604051610c739190617ae6565b60405180910390f35b610c966004803603810190610c9191906187d0565b613f46565b005b610cb26004803603810190610cad9190617e34565b61408b565b604051610cbf9190617ae6565b60405180910390f35b610ce26004803603810190610cdd919061886d565b6140b4565b604051610cef9190617ae6565b60405180910390f35b610d00614136565b604051610d0d91906188d1565b60405180910390f35b610d1e614153565b604051610d2b9190617eca565b60405180910390f35b610d3c61417b565b604051610d499190617eca565b60405180910390f35b610d6c6004803603810190610d679190617e34565b6141a0565b005b610d886004803603810190610d839190617e34565b61435f565b005b610da46004803603810190610d9f9190617be4565b614473565b604051610db19190617ae6565b60405180910390f35b610dd46004803603810190610dcf9190617e34565b614485565b005b610df06004803603810190610deb9190617be4565b614531565b604051610dfd919061815a565b60405180910390f35b5f805b601580549050811015610ea357610e85610e3e60158381548110610e3057610e2f6188ea565b5b905f5260205f200154614551565b307f000000000000000000000000000000000000000000000000000000000000000073ffffffffffffffffffffffffffffffffffffffff166145f89092919063ffffffff16565b82610e909190618944565b915080610e9c90618977565b9050610e09565b5090565b606060038054610eb6906189eb565b80601f0160208091040260200160405190810160405280929190818152602001828054610ee2906189eb565b8015610f2d5780601f10610f0457610100808354040283529160200191610f2d565b820191905f5260205f20905b815481529060010190602001808311610f1057829003601f168201915b5050505050905090565b5f610f42825f614667565b9050919050565b5f80610f5361469e565b9050610f608185856146a5565b600191505092915050565b5f610f778260016146b7565b9050919050565b600c5f9054906101000a900473ffffffffffffffffffffffffffffffffffffffff1673ffffffffffffffffffffffffffffffffffffffff16610fbe61469e565b73ffffffffffffffffffffffffffffffffffffffff16141580156110365750600a5f9054906101000a900473ffffffffffffffffffffffffffffffffffffffff1673ffffffffffffffffffffffffffffffffffffffff1661101d61469e565b73ffffffffffffffffffffffffffffffffffffffff1614155b801561107c5750611045613459565b73ffffffffffffffffffffffffffffffffffffffff1661106361469e565b73ffffffffffffffffffffffffffffffffffffffff1614155b156110b3576040517fd080fa3100000000000000000000000000000000000000000000000000000000815260040160405180910390fd5b60105f8281526020019081526020015f205f8082015f6101000a81549077ffffffffffffffffffffffffffffffffffffffffffffffff02191690555f820160186101000a81549067ffffffffffffffff021916905550508061111361469e565b73ffffffffffffffffffffffffffffffffffffffff167f1026ceca5ed3747eb5edec555732d4a6f901ce1a875ecf981064628cadde112060405160405180910390a350565b5f600254905090565b611169613459565b73ffffffffffffffffffffffffffffffffffffffff1661118761469e565b73ffffffffffffffffffffffffffffffffffffffff16141580156111ff5750600c5f9054906101000a900473ffffffffffffffffffffffffffffffffffffffff1673ffffffffffffffffffffffffffffffffffffffff166111e661469e565b73ffffffffffffffffffffffffffffffffffffffff1614155b15611236576040517ff9f2fc9a00000000000000000000000000000000000000000000000000000000815260040160405180910390fd5b600f5f8082015f6101000a81549073ffffffffffffffffffffffffffffffffffffffff02191690555f820160146101000a81549067ffffffffffffffff0219169055505061128261469e565b73ffffffffffffffffffffffffffffffffffffffff167fc40a085ccfa20f5fd518ade5c3a77a7ecbdfbb4c75efcdca6146a8e3c841d66360405160405180910390a2565b5f806112d061469e565b90506112dd8582856146ee565b6112e8858585614780565b60019150509392505050565b5f6112fd61469e565b9050600b5f8273ffffffffffffffffffffffffffffffffffffffff1673ffffffffffffffffffffffffffffffffffffffff1681526020019081526020015f205f9054906101000a900460ff161580156113a35750600a5f9054906101000a900473ffffffffffffffffffffffffffffffffffffffff1673ffffffffffffffffffffffffffffffffffffffff168173ffffffffffffffffffffffffffffffffffffffff1614155b80156113e257506113b2613459565b73ffffffffffffffffffffffffffffffffffffffff168173ffffffffffffffffffffffffffffffffffffffff1614155b15611419576040517ff7137c0f00000000000000000000000000000000000000000000000000000000815260040160405180910390fd5b5f838390509050601e81111561145b576040517f80f2f7ae00000000000000000000000000000000000000000000000000000000815260040160405180910390fd5b5f5b8181101561153a575f600d5f87878581811061147c5761147b6188ea565b5b9050602002013581526020019081526020015f205f015f9054906101000a900476ffffffffffffffffffffffffffffffffffffffffffffff1676ffffffffffffffffffffffffffffffffffffffffffffff1603611529578484828181106114e6576114e56188ea565b5b905060200201356040517f67f0a250000000000000000000000000000000000000000000000000000000008152600401611520919061815a565b60405180910390fd5b8061153390618977565b905061145d565b5083836014919061154c9291906178ff565b5061155561469e565b73ffffffffffffffffffffffffffffffffffffffff167f6ce31538fc7fba95714ddc8a275a09252b4b1fb8f33d2550aa58a5f62ad934de858560405161159c929190618ad7565b60405180910390a250505050565b6115b2614870565b60135f9054906101000a900473ffffffffffffffffffffffffffffffffffffffff1673ffffffffffffffffffffffffffffffffffffffff168173ffffffffffffffffffffffffffffffffffffffff1603611638576040517fa741a04500000000000000000000000000000000000000000000000000000000815260040160405180910390fd5b8060135f6101000a81548173ffffffffffffffffffffffffffffffffffffffff021916908373ffffffffffffffffffffffffffffffffffffffff1602179055508073ffffffffffffffffffffffffffffffffffffffff167f2e7908865670e21b9779422cadf5f1cba271a62bb95c71eaaf615c0a1c48ebee60405160405180910390a250565b5f6116c76148f7565b905090565b5f601580549050905090565b5f6116e1614930565b905090565b60135f9054906101000a900473ffffffffffffffffffffffffffffffffffffffff1681565b5f7f0000000000000000000000000000000000000000000000000000000000000000905090565b7f000000000000000000000000000000000000000000000000000000000000000081565b5f61175f61469e565b9050600a5f9054906101000a900473ffffffffffffffffffffffffffffffffffffffff1673ffffffffffffffffffffffffffffffffffffffff168173ffffffffffffffffffffffffffffffffffffffff16141580156117f157506117c1613459565b73ffffffffffffffffffffffffffffffffffffffff168173ffffffffffffffffffffffffffffffffffffffff1614155b15611828576040517fca899cec00000000000000000000000000000000000000000000000000000000815260040160405180910390fd5b5f611832846149e6565b905061183c61170b565b73ffffffffffffffffffffffffffffffffffffffff16845f015173ffffffffffffffffffffffffffffffffffffffff16146118ae57806040517fcf2ff49c0000000000000000000000000000000000000000000000000000000081526004016118a5919061815a565b60405180910390fd5b5f6118f8827f000000000000000000000000000000000000000000000000000000000000000073ffffffffffffffffffffffffffffffffffffffff166149f290919063ffffffff16565b0361192f576040517f96e1352900000000000000000000000000000000000000000000000000000000815260040160405180910390fd5b5f60105f8381526020019081526020015f205f0160189054906101000a900467ffffffffffffffff1667ffffffffffffffff1614611999576040517f49b204ce00000000000000000000000000000000000000000000000000000000815260040160405180910390fd5b5f600d5f8381526020019081526020015f205f0160189054906101000a900467ffffffffffffffff1667ffffffffffffffff1614611a03576040517f4bec014600000000000000000000000000000000000000000000000000000000815260040160405180910390fd5b5f600d5f8381526020019081526020015f205f015f9054906101000a900476ffffffffffffffffffffffffffffffffffffffffffffff1676ffffffffffffffffffffffffffffffffffffffffffffff169050808403611a8e576040517fa741a04500000000000000000000000000000000000000000000000000000000815260040160405180910390fd5b80841015611aae57611aa98583611aa487614ab9565b614b23565b611b34565b611add611aba85614ab9565b600e5460105f8681526020019081526020015f20614dc49092919063ffffffff16565b81611ae661469e565b73ffffffffffffffffffffffffffffffffffffffff167fe851bb5856808a50efd748be463b8f35bcfb5ec74c5bfde776fe0a4d2a26db2786604051611b2b9190617ae6565b60405180910390a35b5050505050565b5f611b44614e60565b9050919050565b5f611b5461469e565b9050600b5f8273ffffffffffffffffffffffffffffffffffffffff1673ffffffffffffffffffffffffffffffffffffffff1681526020019081526020015f205f9054906101000a900460ff16158015611bfa5750600a5f9054906101000a900473ffffffffffffffffffffffffffffffffffffffff1673ffffffffffffffffffffffffffffffffffffffff168173ffffffffffffffffffffffffffffffffffffffff1614155b8015611c395750611c09613459565b73ffffffffffffffffffffffffffffffffffffffff168173ffffffffffffffffffffffffffffffffffffffff1614155b15611c70576040517ff7137c0f00000000000000000000000000000000000000000000000000000000815260040160405180910390fd5b5f8383905090505f60158054905090505f8167ffffffffffffffff811115611c9b57611c9a617f5b565b5b604051908082528060200260200182016040528015611cc95781602001602082028036833780820191505090505b5090505f8367ffffffffffffffff811115611ce757611ce6617f5b565b5b604051908082528060200260200182016040528015611d155781602001602082028036833780820191505090505b5090505f5b84811015611e16575f888883818110611d3657611d356188ea565b5b9050602002013590505f60158281548110611d5457611d536188ea565b5b905f5260205f2001549050848281518110611d7257611d716188ea565b5b602002602001015115611dbc57806040517f92a726c3000000000000000000000000000000000000000000000000000000008152600401611db3919061815a565b60405180910390fd5b6001858381518110611dd157611dd06188ea565b5b60200260200101901515908115158152505080848481518110611df757611df66188ea565b5b602002602001018181525050505080611e0f90618977565b9050611d1a565b505f5b8381101561212057828181518110611e3457611e336188ea565b5b602002602001015161210f575f60158281548110611e5557611e546188ea565b5b905f5260205f20015490505f600d5f8381526020019081526020015f205f015f9054906101000a900476ffffffffffffffffffffffffffffffffffffffffffffff1676ffffffffffffffffffffffffffffffffffffffffffffff1614611ef257806040517f803b07b2000000000000000000000000000000000000000000000000000000008152600401611ee9919061815a565b60405180910390fd5b5f60105f8381526020019081526020015f205f0160189054906101000a900467ffffffffffffffff1667ffffffffffffffff1614611f6757806040517f463af300000000000000000000000000000000000000000000000000000000008152600401611f5e919061815a565b60405180910390fd5b5f611fb382307f000000000000000000000000000000000000000000000000000000000000000073ffffffffffffffffffffffffffffffffffffffff16614feb9092919063ffffffff16565b146120a4575f600d5f8381526020019081526020015f205f0160189054906101000a900467ffffffffffffffff1667ffffffffffffffff160361202d57806040517faf8ae287000000000000000000000000000000000000000000000000000000008152600401612024919061815a565b60405180910390fd5b600d5f8281526020019081526020015f205f0160189054906101000a900467ffffffffffffffff1667ffffffffffffffff164210156120a357806040517fb354466400000000000000000000000000000000000000000000000000000000815260040161209a919061815a565b60405180910390fd5b5b600d5f8281526020019081526020015f205f8082015f6101000a81549076ffffffffffffffffffffffffffffffffffffffffffffff02191690555f820160176101000a81549060ff02191690555f820160186101000a81549067ffffffffffffffff02191690555050505b8061211990618977565b9050611e19565b50806015908051906020019061213792919061794a565b5061214061469e565b73ffffffffffffffffffffffffffffffffffffffff167fe0c2db6b54586be6d7d49943139fccf0dd315ba63e55364a76c73cd8fdba724d826040516121859190618b7a565b60405180910390a250505050505050565b600c5f9054906101000a900473ffffffffffffffffffffffffffffffffffffffff1681565b6012600c9054906101000a900473ffffffffffffffffffffffffffffffffffffffff1681565b600c5f9054906101000a900473ffffffffffffffffffffffffffffffffffffffff1673ffffffffffffffffffffffffffffffffffffffff1661222161469e565b73ffffffffffffffffffffffffffffffffffffffff16141580156122995750600a5f9054906101000a900473ffffffffffffffffffffffffffffffffffffffff1673ffffffffffffffffffffffffffffffffffffffff1661228061469e565b73ffffffffffffffffffffffffffffffffffffffff1614155b80156122df57506122a8613459565b73ffffffffffffffffffffffffffffffffffffffff166122c661469e565b73ffffffffffffffffffffffffffffffffffffffff1614155b15612316576040517fd080fa3100000000000000000000000000000000000000000000000000000000815260040160405180910390fd5b600d5f8281526020019081526020015f205f0160186101000a81549067ffffffffffffffff02191690558061234961469e565b73ffffffffffffffffffffffffffffffffffffffff167fcbeb8ecdaa5a3c133e62219b63bfc35bce3fda13065d2bed32e3b7dde60a59f460405160405180910390a350565b5f612399825f614667565b9050919050565b600b602052805f5260405f205f915054906101000a900460ff1681565b60165481565b601581815481106123d2575f80fd5b905f5260205f20015f915090505481565b6123eb614870565b60125f9054906101000a90046bffffffffffffffffffffffff166bffffffffffffffffffffffff16810361244b576040517fa741a04500000000000000000000000000000000000000000000000000000000815260040160405180910390fd5b6706f05b59d3b2000081111561248d576040517ff4df6ae500000000000000000000000000000000000000000000000000000000815260040160405180910390fd5b5f81141580156124ea57505f73ffffffffffffffffffffffffffffffffffffffff166012600c9054906101000a900473ffffffffffffffffffffffffffffffffffffffff1673ffffffffffffffffffffffffffffffffffffffff16145b15612521576040517fcff9f19400000000000000000000000000000000000000000000000000000000815260040160405180910390fd5b61253161252c6150a2565b615125565b8060125f6101000a8154816bffffffffffffffffffffffff02191690836bffffffffffffffffffffffff16021790555061256961469e565b73ffffffffffffffffffffffffffffffffffffffff167f01fe2943baee27f47add82886c2200f910c749c461c9b63c5fe83901a53bdb4960125f9054906101000a90046bffffffffffffffffffffffff166040516125c79190618bca565b60405180910390a250565b5f806125dc6150a2565b9050806016819055506125f8846125f1611158565b835f615166565b915061260d61260561469e565b8486856151b2565b5092915050565b60105f612620836149e6565b81526020019081526020015f205f0160189054906101000a900467ffffffffffffffff1667ffffffffffffffff165f8103612687576040517fe5f408a500000000000000000000000000000000000000000000000000000000815260040160405180910390fd5b804210156126c1576040517f6677a59600000000000000000000000000000000000000000000000000000000815260040160405180910390fd5b5f6126cb836149e6565b905061270e838260105f8581526020019081526020015f205f015f9054906101000a900477ffffffffffffffffffffffffffffffffffffffffffffffff16614b23565b505050565b5f805f8373ffffffffffffffffffffffffffffffffffffffff1673ffffffffffffffffffffffffffffffffffffffff1681526020019081526020015f20549050919050565b612760614870565b6127695f6151e3565b565b612773614870565b600e5481036127ae576040517fa741a04500000000000000000000000000000000000000000000000000000000815260040160405180910390fd5b5f60115f0160189054906101000a900467ffffffffffffffff1667ffffffffffffffff1614612809576040517f49b204ce00000000000000000000000000000000000000000000000000000000815260040160405180910390fd5b61281281615213565b600e5481111561282a5761282581615290565b61287a565b61284281600e546011614dc49092919063ffffffff16565b7fb3aa0ade2442acf51d06713c2d1a5a3ec0373cce969d42b53f4689f97bccf380816040516128719190617ae6565b60405180910390a15b50565b5f61288661469e565b9050600b5f8273ffffffffffffffffffffffffffffffffffffffff1673ffffffffffffffffffffffffffffffffffffffff1681526020019081526020015f205f9054906101000a900460ff1615801561292c5750600a5f9054906101000a900473ffffffffffffffffffffffffffffffffffffffff1673ffffffffffffffffffffffffffffffffffffffff168173ffffffffffffffffffffffffffffffffffffffff1614155b801561296b575061293b613459565b73ffffffffffffffffffffffffffffffffffffffff168173ffffffffffffffffffffffffffffffffffffffff1614155b156129a2576040517ff7137c0f00000000000000000000000000000000000000000000000000000000815260040160405180910390fd5b5f805f5b85859050811015612e2a575f8686838181106129c5576129c46188ea565b5b905060c002018036038101906129db9190618c30565b90505f6129ea825f01516149e6565b90505f806129fb845f015184615337565b50915091505f612a188560200151846154f790919063ffffffff16565b90505f811115612bae57600d5f8581526020019081526020015f205f0160179054906101000a900460ff16612a8457836040517f6113d8c7000000000000000000000000000000000000000000000000000000008152600401612a7b919061815a565b60405180910390fd5b5f80866020015103612a97578290505f91505b5f807f000000000000000000000000000000000000000000000000000000000000000073ffffffffffffffffffffffffffffffffffffffff16635c2bea49895f0151868630306040518663ffffffff1660e01b8152600401612afd959493929190618cd0565b60408051808303815f875af1158015612b18573d5f803e3d5ffd5b505050506040513d601f19601f82011682018060405250810190612b3c9190618d37565b9150915086612b4961469e565b73ffffffffffffffffffffffffffffffffffffffff167fdd8bf5226dff861316e0fa7863fdb7dc7b87c614eb29a135f524eb79d5a1189a8484604051612b90929190618d75565b60405180910390a3818a612ba49190618944565b9950505050612e13565b5f7fffffffffffffffffffffffffffffffffffffffffffffffffffffffffffffffff866020015114612bf657612bf18487602001516154f790919063ffffffff16565b612c0a565b612c0989896154f790919063ffffffff16565b5b90505f8103612c1e57505050505050612e19565b5f600d5f8781526020019081526020015f205f015f9054906101000a900476ffffffffffffffffffffffffffffffffffffffffffffff1676ffffffffffffffffffffffffffffffffffffffffffffff1690505f8103612cb457856040517f67f0a250000000000000000000000000000000000000000000000000000000008152600401612cab919061815a565b60405180910390fd5b808286612cc19190618944565b1115612d0457856040517f5e25afa5000000000000000000000000000000000000000000000000000000008152600401612cfb919061815a565b60405180910390fd5b5f7f000000000000000000000000000000000000000000000000000000000000000073ffffffffffffffffffffffffffffffffffffffff1663a99aad89895f0151855f306040518563ffffffff1660e01b8152600401612d679493929190618e08565b60408051808303815f875af1158015612d82573d5f803e3d5ffd5b505050506040513d601f19601f82011682018060405250810190612da69190618d37565b91505086612db261469e565b73ffffffffffffffffffffffffffffffffffffffff167f89bf199df65bf65155e3e0a8abc4ad4a1be606220c8295840dba2ab5656c1f6d8584604051612df9929190618d75565b60405180910390a3828b612e0d9190618944565b9a505050505b50505050505b80612e2390618977565b90506129a6565b50818114612e64576040517f9e36b89000000000000000000000000000000000000000000000000000000000815260040160405180910390fd5b5050505050565b600f805f015f9054906101000a900473ffffffffffffffffffffffffffffffffffffffff1690805f0160149054906101000a900467ffffffffffffffff16905082565b5f612eb761469e565b90508073ffffffffffffffffffffffffffffffffffffffff16612ed8614153565b73ffffffffffffffffffffffffffffffffffffffff1614612f3057806040517f118cdaa7000000000000000000000000000000000000000000000000000000008152600401612f279190617eca565b60405180910390fd5b612f39816151e3565b50565b6011805f015f9054906101000a900477ffffffffffffffffffffffffffffffffffffffffffffffff1690805f0160189054906101000a900467ffffffffffffffff16905082565b5f612f8d82615507565b9050919050565b5f612f9d61469e565b9050600a5f9054906101000a900473ffffffffffffffffffffffffffffffffffffffff1673ffffffffffffffffffffffffffffffffffffffff168173ffffffffffffffffffffffffffffffffffffffff161415801561302f5750612fff613459565b73ffffffffffffffffffffffffffffffffffffffff168173ffffffffffffffffffffffffffffffffffffffff1614155b15613066576040517fca899cec00000000000000000000000000000000000000000000000000000000815260040160405180910390fd5b5f613070836149e6565b90505f600d5f8381526020019081526020015f205f0160189054906101000a900467ffffffffffffffff1667ffffffffffffffff16146130dc576040517f49b204ce00000000000000000000000000000000000000000000000000000000815260040160405180910390fd5b5f600d5f8381526020019081526020015f205f015f9054906101000a900476ffffffffffffffffffffffffffffffffffffffffffffff1676ffffffffffffffffffffffffffffffffffffffffffffff1614613163576040517fc48e317200000000000000000000000000000000000000000000000000000000815260040160405180910390fd5b600d5f8281526020019081526020015f205f0160179054906101000a900460ff166131c557806040517f6113d8c70000000000000000000000000000000000000000000000000000000081526004016131bc919061815a565b60405180910390fd5b5f60105f8381526020019081526020015f205f0160189054906101000a900467ffffffffffffffff1667ffffffffffffffff161461323a57806040517f463af300000000000000000000000000000000000000000000000000000000008152600401613231919061815a565b60405180910390fd5b600e54426132489190618944565b600d5f8381526020019081526020015f205f0160186101000a81548167ffffffffffffffff021916908367ffffffffffffffff1602179055508061328a61469e565b73ffffffffffffffffffffffffffffffffffffffff167f3240fc70754c5a2b4dab10bf7081a00024bfc8491581ee3d355360ec0dd91f1660405160405180910390a3505050565b5f6060805f805f60606132e261554d565b6132ea615588565b46305f801b5f67ffffffffffffffff81111561330957613308617f5b565b5b6040519080825280602002602001820160405280156133375781602001602082028036833780820191505090505b507f0f00000000000000000000000000000000000000000000000000000000000000959493929190965096509650965096509650965090919293949596565b60115f0160189054906101000a900467ffffffffffffffff1667ffffffffffffffff165f81036133d2576040517fe5f408a500000000000000000000000000000000000000000000000000000000815260040160405180910390fd5b8042101561340c576040517f6677a59600000000000000000000000000000000000000000000000000000000815260040160405180910390fd5b61345660115f015f9054906101000a900477ffffffffffffffffffffffffffffffffffffffffffffffff1677ffffffffffffffffffffffffffffffffffffffffffffffff16615290565b50565b5f60085f9054906101000a900473ffffffffffffffffffffffffffffffffffffffff16905090565b5f8061348b6150a2565b9050806016819055506134a8846134a0611158565b8360016155c3565b91506134bd6134b561469e565b8484876151b2565b5092915050565b6060600480546134d3906189eb565b80601f01602080910402602001604051908101604052809291908181526020018280546134ff906189eb565b801561354a5780601f106135215761010080835404028352916020019161354a565b820191905f5260205f20905b81548152906001019060200180831161352d57829003601f168201915b5050505050905090565b61355c614870565b600c5f9054906101000a900473ffffffffffffffffffffffffffffffffffffffff1673ffffffffffffffffffffffffffffffffffffffff168173ffffffffffffffffffffffffffffffffffffffff16036135e2576040517fa741a04500000000000000000000000000000000000000000000000000000000815260040160405180910390fd5b5f600f5f0160149054906101000a900467ffffffffffffffff1667ffffffffffffffff161461363d576040517f49b204ce00000000000000000000000000000000000000000000000000000000815260040160405180910390fd5b5f73ffffffffffffffffffffffffffffffffffffffff16600c5f9054906101000a900473ffffffffffffffffffffffffffffffffffffffff1673ffffffffffffffffffffffffffffffffffffffff160361369f5761369a8161560f565b6136fb565b6136b781600e54600f6156f79092919063ffffffff16565b8073ffffffffffffffffffffffffffffffffffffffff167f7633313af54753bce8a149927263b1a55eba857ba4ef1d13c6aee25d384d3c4b60405160405180910390a25b50565b5f601480549050905090565b6010602052805f5260405f205f91509050805f015f9054906101000a900477ffffffffffffffffffffffffffffffffffffffffffffffff1690805f0160189054906101000a900467ffffffffffffffff16905082565b600f5f0160149054906101000a900467ffffffffffffffff1667ffffffffffffffff165f81036137bc576040517fe5f408a500000000000000000000000000000000000000000000000000000000815260040160405180910390fd5b804210156137f6576040517f6677a59600000000000000000000000000000000000000000000000000000000815260040160405180910390fd5b613822600f5f015f9054906101000a900473ffffffffffffffffffffffffffffffffffffffff1661560f565b50565b5f8061382f61469e565b905061383c818585614780565b600191505092915050565b60608282905067ffffffffffffffff81111561386657613865617f5b565b5b60405190808252806020026020018201604052801561389957816020015b60608152602001906001900390816138845790505b5090505f5b8383905081101561394a57613919308585848181106138c0576138bf6188ea565b5b90506020028101906138d29190618e6c565b8080601f0160208091040260200160405190810160405280939291908181526020018383808284375f81840152601f19601f82011690508083019250505050505050615772565b82828151811061392c5761392b6188ea565b5b6020026020010181905250808061394290618977565b91505061389e565b5092915050565b7f000000000000000000000000000000000000000000000000000000000000000081565b61397d614870565b801515600b5f8473ffffffffffffffffffffffffffffffffffffffff1673ffffffffffffffffffffffffffffffffffffffff1681526020019081526020015f205f9054906101000a900460ff16151503613a03576040517fa741a04500000000000000000000000000000000000000000000000000000000815260040160405180910390fd5b80600b5f8473ffffffffffffffffffffffffffffffffffffffff1673ffffffffffffffffffffffffffffffffffffffff1681526020019081526020015f205f6101000a81548160ff0219169083151502179055508173ffffffffffffffffffffffffffffffffffffffff167f74dc60cbc81a9472d04ad1d20e151d369c41104d655ed3f2f3091166a502cd8d82604051613a9d9190617cc1565b60405180910390a25050565b5f613ab5826001614667565b9050919050565b5f80613ac66150a2565b9050613adc85613ad4611158565b836001615166565b9150613af9613af486836154f790919063ffffffff16565b615125565b613b0d613b0461469e565b858588866157f2565b509392505050565b5f80613b1f6150a2565b9050613b3485613b2d611158565b835f6155c3565b9150613b51613b4c83836154f790919063ffffffff16565b615125565b613b65613b5c61469e565b858585896157f2565b509392505050565b5f73ffffffffffffffffffffffffffffffffffffffff1660135f9054906101000a900473ffffffffffffffffffffffffffffffffffffffff1673ffffffffffffffffffffffffffffffffffffffff1603613bf3576040517fd92e233d00000000000000000000000000000000000000000000000000000000815260040160405180910390fd5b5f8173ffffffffffffffffffffffffffffffffffffffff166370a08231306040518263ffffffff1660e01b8152600401613c2d9190617eca565b602060405180830381865afa158015613c48573d5f803e3d5ffd5b505050506040513d601f19601f82011682018060405250810190613c6c9190618ece565b9050613cba60135f9054906101000a900473ffffffffffffffffffffffffffffffffffffffff16828473ffffffffffffffffffffffffffffffffffffffff1661580f9092919063ffffffff16565b8173ffffffffffffffffffffffffffffffffffffffff16613cd961469e565b73ffffffffffffffffffffffffffffffffffffffff167f2ae72b44f59d038340fca5739135a1d51fc5ab720bb02d983e4c5ff4119ca7b883604051613d1e9190617ae6565b60405180910390a35050565b5f80613d34614e60565b9050613d40815f6146b7565b915050919050565b5f613d53825f6146b7565b9050919050565b613d62613459565b73ffffffffffffffffffffffffffffffffffffffff16613d8061469e565b73ffffffffffffffffffffffffffffffffffffffff1614158015613df85750600c5f9054906101000a900473ffffffffffffffffffffffffffffffffffffffff1673ffffffffffffffffffffffffffffffffffffffff16613ddf61469e565b73ffffffffffffffffffffffffffffffffffffffff1614155b15613e2f576040517ff9f2fc9a00000000000000000000000000000000000000000000000000000000815260040160405180910390fd5b60115f8082015f6101000a81549077ffffffffffffffffffffffffffffffffffffffffffffffff02191690555f820160186101000a81549067ffffffffffffffff02191690555050613e7f61469e565b73ffffffffffffffffffffffffffffffffffffffff167f921828337692c347c634c5d2aacbc7b756014674bd236f3cc2058d8e284a951b60405160405180910390a2565b600d602052805f5260405f205f91509050805f015f9054906101000a900476ffffffffffffffffffffffffffffffffffffffffffffff1690805f0160179054906101000a900460ff1690805f0160189054906101000a900467ffffffffffffffff16905083565b5f613f348261588e565b90505080915050919050565b600e5481565b83421115613f8b57836040517f62791302000000000000000000000000000000000000000000000000000000008152600401613f829190617ae6565b60405180910390fd5b5f7f6e71edae12b1b97f4d1f60370fef10105fa2faae0126114a169c64845d6126c9888888613fb98c6158eb565b89604051602001613fcf96959493929190618ef9565b6040516020818303038152906040528051906020012090505f613ff18261593e565b90505f61400082878787615957565b90508973ffffffffffffffffffffffffffffffffffffffff168173ffffffffffffffffffffffffffffffffffffffff161461407457808a6040517f4b800e4600000000000000000000000000000000000000000000000000000000815260040161406b929190618f58565b60405180910390fd5b61407f8a8a8a6146a5565b50505050505050505050565b5f805f806140988561588e565b9250925092506140aa8383835f615166565b9350505050919050565b5f60015f8473ffffffffffffffffffffffffffffffffffffffff1673ffffffffffffffffffffffffffffffffffffffff1681526020019081526020015f205f8373ffffffffffffffffffffffffffffffffffffffff1673ffffffffffffffffffffffffffffffffffffffff1681526020019081526020015f2054905092915050565b60125f9054906101000a90046bffffffffffffffffffffffff1681565b5f60095f9054906101000a900473ffffffffffffffffffffffffffffffffffffffff16905090565b600a5f9054906101000a900473ffffffffffffffffffffffffffffffffffffffff1681565b6141a8614870565b6012600c9054906101000a900473ffffffffffffffffffffffffffffffffffffffff1673ffffffffffffffffffffffffffffffffffffffff168173ffffffffffffffffffffffffffffffffffffffff160361422f576040517fa741a04500000000000000000000000000000000000000000000000000000000815260040160405180910390fd5b5f73ffffffffffffffffffffffffffffffffffffffff168173ffffffffffffffffffffffffffffffffffffffff1614801561429157505f60125f9054906101000a90046bffffffffffffffffffffffff166bffffffffffffffffffffffff1614155b156142c8576040517fcff9f19400000000000000000000000000000000000000000000000000000000815260040160405180910390fd5b6142d86142d36150a2565b615125565b806012600c6101000a81548173ffffffffffffffffffffffffffffffffffffffff021916908373ffffffffffffffffffffffffffffffffffffffff1602179055508073ffffffffffffffffffffffffffffffffffffffff167f2e979f80fe4d43055c584cf4a8467c55875ea36728fc37176c05acd784eb7a7360405160405180910390a250565b614367614870565b600a5f9054906101000a900473ffffffffffffffffffffffffffffffffffffffff1673ffffffffffffffffffffffffffffffffffffffff168173ffffffffffffffffffffffffffffffffffffffff16036143ed576040517fa741a04500000000000000000000000000000000000000000000000000000000815260040160405180910390fd5b80600a5f6101000a81548173ffffffffffffffffffffffffffffffffffffffff021916908373ffffffffffffffffffffffffffffffffffffffff1602179055508073ffffffffffffffffffffffffffffffffffffffff167fbd0a63c12948fbc9194a5839019f99c9d71db924e5c70018265bc778b8f1a50660405160405180910390a250565b5f61447e825f6146b7565b9050919050565b61448d614870565b8060095f6101000a81548173ffffffffffffffffffffffffffffffffffffffff021916908373ffffffffffffffffffffffffffffffffffffffff1602179055508073ffffffffffffffffffffffffffffffffffffffff166144ec613459565b73ffffffffffffffffffffffffffffffffffffffff167f38d16b8cac22d99fc7c124b9cd0de2d3fa1faef420bfe791d8c362d765e2270060405160405180910390a350565b60148181548110614540575f80fd5b905f5260205f20015f915090505481565b614559617995565b7f000000000000000000000000000000000000000000000000000000000000000073ffffffffffffffffffffffffffffffffffffffff16632c3c9157836040518263ffffffff1660e01b81526004016145b2919061815a565b60a060405180830381865afa1580156145cd573d5f803e3d5ffd5b505050506040513d601f19601f820116820180604052508101906145f1919061901c565b9050919050565b5f80614603846149e6565b90505f61463182858873ffffffffffffffffffffffffffffffffffffffff16614feb9092919063ffffffff16565b90505f8061463f8888615985565b50509150915061465a828285615d479092919063ffffffff16565b9450505050509392505050565b5f805f614672615d80565b915091506146948583614683611158565b61468d9190618944565b83876155c3565b9250505092915050565b5f33905090565b6146b28383836001615e4e565b505050565b5f805f6146c2615d80565b915091506146e485836146d3611158565b6146dd9190618944565b8387615166565b9250505092915050565b5f6146f984846140b4565b90507fffffffffffffffffffffffffffffffffffffffffffffffffffffffffffffffff811461477a578181101561476b578281836040517ffb8f41b200000000000000000000000000000000000000000000000000000000815260040161476293929190619047565b60405180910390fd5b61477984848484035f615e4e565b5b50505050565b5f73ffffffffffffffffffffffffffffffffffffffff168373ffffffffffffffffffffffffffffffffffffffff16036147f0575f6040517f96c6fd1e0000000000000000000000000000000000000000000000000000000081526004016147e79190617eca565b60405180910390fd5b5f73ffffffffffffffffffffffffffffffffffffffff168273ffffffffffffffffffffffffffffffffffffffff1603614860575f6040517fec442f050000000000000000000000000000000000000000000000000000000081526004016148579190617eca565b60405180910390fd5b61486b83838361601d565b505050565b61487861469e565b73ffffffffffffffffffffffffffffffffffffffff16614896613459565b73ffffffffffffffffffffffffffffffffffffffff16146148f5576148b961469e565b6040517f118cdaa70000000000000000000000000000000000000000000000000000000081526004016148ec9190617eca565b60405180910390fd5b565b5f614900616236565b7f000000000000000000000000000000000000000000000000000000000000000061492b919061907c565b905090565b5f7f000000000000000000000000000000000000000000000000000000000000000073ffffffffffffffffffffffffffffffffffffffff163073ffffffffffffffffffffffffffffffffffffffff161480156149ab57507f000000000000000000000000000000000000000000000000000000000000000046145b156149d8577f000000000000000000000000000000000000000000000000000000000000000090506149e3565b6149e061625d565b90505b90565b5f60a082209050919050565b5f80614a05614a00846162f2565b616334565b90508373ffffffffffffffffffffffffffffffffffffffff16637784c685826040518263ffffffff1660e01b8152600401614a409190619157565b5f60405180830381865afa158015614a5a573d5f803e3d5ffd5b505050506040513d5f823e3d601f19601f82011682018060405250810190614a82919061924b565b5f81518110614a9457614a936188ea565b5b60200260200101515f1c6fffffffffffffffffffffffffffffffff1691505092915050565b5f76ffffffffffffffffffffffffffffffffffffffffffffff8016821115614b1b5760b8826040517f6dfcc650000000000000000000000000000000000000000000000000000000008152600401614b129291906192cb565b60405180910390fd5b819050919050565b5f600d5f8481526020019081526020015f2090505f8276ffffffffffffffffffffffffffffffffffffffffffffff161115614cca57805f0160179054906101000a900460ff16614c9f57601583908060018154018082558091505060019003905f5260205f20015f9091909190915055601e6015805490501115614bd3576040517f80f2f7ae00000000000000000000000000000000000000000000000000000000815260040160405180910390fd5b6001815f0160176101000a81548160ff021916908315150217905550614c4f614c3d85307f000000000000000000000000000000000000000000000000000000000000000073ffffffffffffffffffffffffffffffffffffffff166145f89092919063ffffffff16565b601654614c4a9190618944565b615125565b3373ffffffffffffffffffffffffffffffffffffffff167fe0c2db6b54586be6d7d49943139fccf0dd315ba63e55364a76c73cd8fdba724d6015604051614c9691906193bc565b60405180910390a25b5f815f0160186101000a81548167ffffffffffffffff021916908367ffffffffffffffff1602179055505b81815f015f6101000a81548176ffffffffffffffffffffffffffffffffffffffffffffff021916908376ffffffffffffffffffffffffffffffffffffffffffffff16021790555082614d1a61469e565b73ffffffffffffffffffffffffffffffffffffffff167fe86b6d3313d3098f4c5f689c935de8fde876a597c185def2cedab85efedac68684604051614d5f919061940c565b60405180910390a360105f8481526020019081526020015f205f8082015f6101000a81549077ffffffffffffffffffffffffffffffffffffffffffffffff02191690555f820160186101000a81549067ffffffffffffffff0219169055505050505050565b8176ffffffffffffffffffffffffffffffffffffffffffffff16835f015f6101000a81548177ffffffffffffffffffffffffffffffffffffffffffffffff021916908377ffffffffffffffffffffffffffffffffffffffffffffffff1602179055508042614e329190618944565b835f0160186101000a81548167ffffffffffffffff021916908367ffffffffffffffff160217905550505050565b5f805b601480549050811015614fe7575f60148281548110614e8557614e846188ea565b5b905f5260205f20015490505f600d5f8381526020019081526020015f205f015f9054906101000a900476ffffffffffffffffffffffffffffffffffffffffffffff1676ffffffffffffffffffffffffffffffffffffffffffffff1690505f8103614ef0575050614fd6565b5f614f3c83307f000000000000000000000000000000000000000000000000000000000000000073ffffffffffffffffffffffffffffffffffffffff16614feb9092919063ffffffff16565b90505f80614f91614f4c86614551565b7f000000000000000000000000000000000000000000000000000000000000000073ffffffffffffffffffffffffffffffffffffffff1661598590919063ffffffff16565b5050915091505f614fad8383866163ac9092919063ffffffff16565b9050614fc281866154f790919063ffffffff16565b88614fcd9190618944565b97505050505050505b80614fe090618977565b9050614e63565b5090565b5f80614fff614ffa85856163e5565b616334565b90508473ffffffffffffffffffffffffffffffffffffffff16637784c685826040518263ffffffff1660e01b815260040161503a9190619157565b5f60405180830381865afa158015615054573d5f803e3d5ffd5b505050506040513d5f823e3d601f19601f8201168201806040525081019061507c919061924b565b5f8151811061508e5761508d6188ea565b5b60200260200101515f1c9150509392505050565b5f806150ac615d80565b80935081925050505f81146150e8576150e76012600c9054906101000a900473ffffffffffffffffffffffffffffffffffffffff168261644f565b5b7ff66f28b40975dbb933913542c7e6a0f50a1d0f20aa74ea6e0efe65ab616323ec8282604051615119929190618d75565b60405180910390a15090565b806016819055507f15c027cc4fd826d986cad358803439f7326d3aa4ed969ff90dbee4bc150f68e98160405161515b9190617ae6565b60405180910390a150565b5f6151a8615172616236565b600a61517e9190619554565b856151899190618944565b6001856151969190618944565b84886164ce909392919063ffffffff16565b9050949350505050565b6151be84848484616523565b6151c7826165c6565b6151dd826016546151d89190618944565b615125565b50505050565b60095f6101000a81549073ffffffffffffffffffffffffffffffffffffffff021916905561521081616955565b50565b62127500811115615250576040517f46fedb5700000000000000000000000000000000000000000000000000000000815260040160405180910390fd5b6201518081101561528d576040517f342b27be00000000000000000000000000000000000000000000000000000000815260040160405180910390fd5b50565b80600e8190555061529f61469e565b73ffffffffffffffffffffffffffffffffffffffff167fd28e9b90ee9b37c5936ff84392d71f29ff18117d7e76bcee60615262a90a3f75826040516152e49190617ae6565b60405180910390a260115f8082015f6101000a81549077ffffffffffffffffffffffffffffffffffffffffffffffff02191690555f820160186101000a81549067ffffffffffffffff0219169055505050565b5f80615341617a17565b7f000000000000000000000000000000000000000000000000000000000000000073ffffffffffffffffffffffffffffffffffffffff1663151c1ade866040518263ffffffff1660e01b815260040161539a919061959e565b5f604051808303815f87803b1580156153b1575f80fd5b505af11580156153c3573d5f803e3d5ffd5b505050507f000000000000000000000000000000000000000000000000000000000000000073ffffffffffffffffffffffffffffffffffffffff16635c60e39a856040518263ffffffff1660e01b8152600401615420919061815a565b60c060405180830381865afa15801561543b573d5f803e3d5ffd5b505050506040513d601f19601f8201168201806040525081019061545f9190619699565b90506154ac84307f000000000000000000000000000000000000000000000000000000000000000073ffffffffffffffffffffffffffffffffffffffff16614feb9092919063ffffffff16565b91506154ee815f01516fffffffffffffffffffffffffffffffff1682602001516fffffffffffffffffffffffffffffffff1684615d479092919063ffffffff16565b92509250925092565b5f81830382841102905092915050565b5f60075f8373ffffffffffffffffffffffffffffffffffffffff1673ffffffffffffffffffffffffffffffffffffffff1681526020019081526020015f20549050919050565b606061558360057f0000000000000000000000000000000000000000000000000000000000000000616a1890919063ffffffff16565b905090565b60606155be60067f0000000000000000000000000000000000000000000000000000000000000000616a1890919063ffffffff16565b905090565b5f6156056001846155d49190618944565b6155dc616236565b600a6155e89190619554565b866155f39190618944565b84886164ce909392919063ffffffff16565b9050949350505050565b80600c5f6101000a81548173ffffffffffffffffffffffffffffffffffffffff021916908373ffffffffffffffffffffffffffffffffffffffff1602179055508073ffffffffffffffffffffffffffffffffffffffff1661566e61469e565b73ffffffffffffffffffffffffffffffffffffffff167fcb11cc8aade2f5a556749d1b2380d108a16fac3431e6a5d5ce12ef9de0bd76e360405160405180910390a3600f5f8082015f6101000a81549073ffffffffffffffffffffffffffffffffffffffff02191690555f820160146101000a81549067ffffffffffffffff0219169055505050565b81835f015f6101000a81548173ffffffffffffffffffffffffffffffffffffffff021916908373ffffffffffffffffffffffffffffffffffffffff16021790555080426157449190618944565b835f0160146101000a81548167ffffffffffffffff021916908367ffffffffffffffff160217905550505050565b60605f808473ffffffffffffffffffffffffffffffffffffffff168460405161579b91906196fe565b5f60405180830381855af49150503d805f81146157d3576040519150601f19603f3d011682016040523d82523d5f602084013e6157d8565b606091505b50915091506157e8858383616ac5565b9250505092915050565b6157fb82616b52565b6158088585858585616d01565b5050505050565b615889838473ffffffffffffffffffffffffffffffffffffffff1663a9059cbb8585604051602401615842929190619714565b604051602081830303815290604052915060e01b6020820180517bffffffffffffffffffffffffffffffffffffffffffffffffffffffff8381831617835250505050616dfa565b505050565b5f805f8061589a615d80565b8093508192505050806158ab611158565b6158b59190618944565b92506158cb6158c386612713565b84845f6155c3565b93506158d684616e8f565b846158e1919061973b565b9350509193909250565b5f60075f8373ffffffffffffffffffffffffffffffffffffffff1673ffffffffffffffffffffffffffffffffffffffff1681526020019081526020015f205f815480929190600101919050559050919050565b5f61595061594a614930565b83616fd2565b9050919050565b5f805f8061596788888888617012565b92509250925061597782826170f9565b829350505050949350505050565b5f805f805f615993866149e6565b90505f8773ffffffffffffffffffffffffffffffffffffffff16635c60e39a836040518263ffffffff1660e01b81526004016159cf919061815a565b60c060405180830381865afa1580156159ea573d5f803e3d5ffd5b505050506040513d601f19601f82011682018060405250810190615a0e9190619699565b90505f81608001516fffffffffffffffffffffffffffffffff1642615a33919061973b565b90505f8114158015615a5b57505f82604001516fffffffffffffffffffffffffffffffff1614155b8015615a9757505f73ffffffffffffffffffffffffffffffffffffffff16886060015173ffffffffffffffffffffffffffffffffffffffff1614155b15615ccc575f886060015173ffffffffffffffffffffffffffffffffffffffff16638c00bf6b8a856040518363ffffffff1660e01b8152600401615adc9291906197f6565b602060405180830381865afa158015615af7573d5f803e3d5ffd5b505050506040513d601f19601f82011682018060405250810190615b1b9190618ece565b90505f615b59615b34848461725b90919063ffffffff16565b85604001516fffffffffffffffffffffffffffffffff166172d190919063ffffffff16565b9050615b64816172ed565b84604001818151615b75919061981e565b9150906fffffffffffffffffffffffffffffffff1690816fffffffffffffffffffffffffffffffff1681525050615bab816172ed565b845f01818151615bbb919061981e565b9150906fffffffffffffffffffffffffffffffff1690816fffffffffffffffffffffffffffffffff16815250505f8460a001516fffffffffffffffffffffffffffffffff1614615cc9575f615c2f8560a001516fffffffffffffffffffffffffffffffff16836172d190919063ffffffff16565b90505f615c7d82875f01516fffffffffffffffffffffffffffffffff16615c56919061973b565b87602001516fffffffffffffffffffffffffffffffff16846173849092919063ffffffff16565b9050615c88816172ed565b86602001818151615c99919061981e565b9150906fffffffffffffffffffffffffffffffff1690816fffffffffffffffffffffffffffffffff168152505050505b50505b815f0151826020015183604001518460600151836fffffffffffffffffffffffffffffffff169350826fffffffffffffffffffffffffffffffff169250816fffffffffffffffffffffffffffffffff169150806fffffffffffffffffffffffffffffffff169050965096509650965050505092959194509250565b5f615d77600184615d589190618944565b620f424084615d679190618944565b866173bd9092919063ffffffff16565b90509392505050565b5f80615d8a610e06565b90505f615da2601654836154f790919063ffffffff16565b90505f8114158015615ddb57505f60125f9054906101000a90046bffffffffffffffffffffffff166bffffffffffffffffffffffff1614155b15615e49575f615e2560125f9054906101000a90046bffffffffffffffffffffffff166bffffffffffffffffffffffff16670de0b6b3a7640000846173de9092919063ffffffff16565b9050615e4581615e33611158565b8386615e3f919061973b565b5f615166565b9350505b509091565b5f73ffffffffffffffffffffffffffffffffffffffff168473ffffffffffffffffffffffffffffffffffffffff1603615ebe575f6040517fe602df05000000000000000000000000000000000000000000000000000000008152600401615eb59190617eca565b60405180910390fd5b5f73ffffffffffffffffffffffffffffffffffffffff168373ffffffffffffffffffffffffffffffffffffffff1603615f2e575f6040517f94280d62000000000000000000000000000000000000000000000000000000008152600401615f259190617eca565b60405180910390fd5b8160015f8673ffffffffffffffffffffffffffffffffffffffff1673ffffffffffffffffffffffffffffffffffffffff1681526020019081526020015f205f8573ffffffffffffffffffffffffffffffffffffffff1673ffffffffffffffffffffffffffffffffffffffff1681526020019081526020015f20819055508015616017578273ffffffffffffffffffffffffffffffffffffffff168473ffffffffffffffffffffffffffffffffffffffff167f8c5be1e5ebec7d5bd14f71427d1e84f3dd0314c0f7b2291e5b200ac8c7c3b9258460405161600e9190617ae6565b60405180910390a35b50505050565b5f73ffffffffffffffffffffffffffffffffffffffff168373ffffffffffffffffffffffffffffffffffffffff160361606d578060025f8282546160619190618944565b9250508190555061613b565b5f805f8573ffffffffffffffffffffffffffffffffffffffff1673ffffffffffffffffffffffffffffffffffffffff1681526020019081526020015f20549050818110156160f6578381836040517fe450d38c0000000000000000000000000000000000000000000000000000000081526004016160ed93929190619047565b60405180910390fd5b8181035f808673ffffffffffffffffffffffffffffffffffffffff1673ffffffffffffffffffffffffffffffffffffffff1681526020019081526020015f2081905550505b5f73ffffffffffffffffffffffffffffffffffffffff168273ffffffffffffffffffffffffffffffffffffffff1603616182578060025f82825403925050819055506161cc565b805f808473ffffffffffffffffffffffffffffffffffffffff1673ffffffffffffffffffffffffffffffffffffffff1681526020019081526020015f205f82825401925050819055505b8173ffffffffffffffffffffffffffffffffffffffff168373ffffffffffffffffffffffffffffffffffffffff167fddf252ad1be2c89b69c2b068fc378daa952ba7f163c4a11628f55a4df523b3ef836040516162299190617ae6565b60405180910390a3505050565b5f7f0000000000000000000000000000000000000000000000000000000000000000905090565b5f7f8b73c3c69bb8fe3d512ecc4cf759cc79239f7b179b0ffacaa9a75d522b39400f7f00000000000000000000000000000000000000000000000000000000000000007f000000000000000000000000000000000000000000000000000000000000000046306040516020016162d7959493929190619861565b60405160208183030381529060405280519060200120905090565b5f60028260036040516020016163099291906198b2565b604051602081830303815290604052805190602001205f1c61632b9190618944565b5f1b9050919050565b60605f600167ffffffffffffffff81111561635257616351617f5b565b5b6040519080825280602002602001820160405280156163805781602001602082028036833780820191505090505b50905082815f81518110616397576163966188ea565b5b60200260200101818152505080915050919050565b5f6163dc6001846163bd9190618944565b620f4240846163cc9190618944565b866174dd9092919063ffffffff16565b90509392505050565b5f80828460026040516020016163fc9291906198b2565b604051602081830303815290604052805190602001206040516020016164239291906198d9565b604051602081830303815290604052805190602001205f1c6164459190618944565b5f1b905092915050565b5f73ffffffffffffffffffffffffffffffffffffffff168273ffffffffffffffffffffffffffffffffffffffff16036164bf575f6040517fec442f050000000000000000000000000000000000000000000000000000000081526004016164b69190617eca565b60405180910390fd5b6164ca5f838361601d565b5050565b5f806164db8686866173de565b90506164e683617515565b801561650257505f84806164fd576164fc619900565b5b868809115b15616517576001816165149190618944565b90505b80915050949350505050565b61654f7f0000000000000000000000000000000000000000000000000000000000000000853085617542565b616559838261644f565b8273ffffffffffffffffffffffffffffffffffffffff168473ffffffffffffffffffffffffffffffffffffffff167fdcbc1c05240f31ff3ad067ef1ee35ce4997762752e3a095284754544f4c709d784846040516165b8929190618d75565b60405180910390a350505050565b5f5b601480549050811015616917575f601482815481106165ea576165e96188ea565b5b905f5260205f20015490505f600d5f8381526020019081526020015f205f015f9054906101000a900476ffffffffffffffffffffffffffffffffffffffffffffff1676ffffffffffffffffffffffffffffffffffffffffffffff1690505f8103616655575050616906565b5f61665f83614551565b90507f000000000000000000000000000000000000000000000000000000000000000073ffffffffffffffffffffffffffffffffffffffff1663151c1ade826040518263ffffffff1660e01b81526004016166ba919061959e565b5f604051808303815f87803b1580156166d1575f80fd5b505af11580156166e3573d5f803e3d5ffd5b505050505f7f000000000000000000000000000000000000000000000000000000000000000073ffffffffffffffffffffffffffffffffffffffff16635c60e39a856040518263ffffffff1660e01b8152600401616741919061815a565b60c060405180830381865afa15801561675c573d5f803e3d5ffd5b505050506040513d601f19601f820116820180604052508101906167809190619699565b90505f6167ce85307f000000000000000000000000000000000000000000000000000000000000000073ffffffffffffffffffffffffffffffffffffffff16614feb9092919063ffffffff16565b90505f616811835f01516fffffffffffffffffffffffffffffffff1684602001516fffffffffffffffffffffffffffffffff16846163ac9092919063ffffffff16565b90505f61683061682a83886154f790919063ffffffff16565b8a6175c4565b90505f8111156168ea577f000000000000000000000000000000000000000000000000000000000000000073ffffffffffffffffffffffffffffffffffffffff1663a99aad8986835f306040518563ffffffff1660e01b81526004016168999493929190618e08565b60408051808303815f875af19250505080156168d357506040513d601f19601f820116820180604052508101906168d09190618d37565b60015b156168e957505080896168e6919061973b565b98505b5b5f89036168fe575050505050505050616952565b505050505050505b8061691090618977565b90506165c8565b505f8114616951576040517fded0652d00000000000000000000000000000000000000000000000000000000815260040160405180910390fd5b5b50565b5f60085f9054906101000a900473ffffffffffffffffffffffffffffffffffffffff1690508160085f6101000a81548173ffffffffffffffffffffffffffffffffffffffff021916908373ffffffffffffffffffffffffffffffffffffffff1602179055508173ffffffffffffffffffffffffffffffffffffffff168173ffffffffffffffffffffffffffffffffffffffff167f8be0079c531659141344cd1fd0a4f28419497f9722a3daafe3b4186f6b6457e060405160405180910390a35050565b606060ff5f1b8314616a3457616a2d836175d6565b9050616abf565b818054616a40906189eb565b80601f0160208091040260200160405190810160405280929190818152602001828054616a6c906189eb565b8015616ab75780601f10616a8e57610100808354040283529160200191616ab7565b820191905f5260205f20905b815481529060010190602001808311616a9a57829003601f168201915b505050505090505b92915050565b606082616ada57616ad582617648565b616b4a565b5f8251148015616b0057505f8473ffffffffffffffffffffffffffffffffffffffff163b145b15616b4257836040517f9996b315000000000000000000000000000000000000000000000000000000008152600401616b399190617eca565b60405180910390fd5b819050616b4b565b5b9392505050565b5f5b601580549050811015616cc3575f60158281548110616b7657616b756188ea565b5b905f5260205f20015490505f616b8b82614551565b90505f80616b998385615337565b92505091505f616bdf616bd985845f01516fffffffffffffffffffffffffffffffff1685604001516fffffffffffffffffffffffffffffffff168761768c565b886175c4565b90505f811115616c9b577f000000000000000000000000000000000000000000000000000000000000000073ffffffffffffffffffffffffffffffffffffffff16635c2bea4985835f30306040518663ffffffff1660e01b8152600401616c4a95949392919061992d565b60408051808303815f875af1925050508015616c8457506040513d601f19601f82011682018060405250810190616c819190618d37565b60015b15616c9a5750508087616c97919061973b565b96505b5b5f8703616cad57505050505050616cfe565b505050505080616cbc90618977565b9050616b54565b505f8114616cfd576040517f4323a55500000000000000000000000000000000000000000000000000000000815260040160405180910390fd5b5b50565b8273ffffffffffffffffffffffffffffffffffffffff168573ffffffffffffffffffffffffffffffffffffffff1614616d4057616d3f8386836146ee565b5b616d4a8382617754565b616d757f0000000000000000000000000000000000000000000000000000000000000000858461580f565b8273ffffffffffffffffffffffffffffffffffffffff168473ffffffffffffffffffffffffffffffffffffffff168673ffffffffffffffffffffffffffffffffffffffff167ffbde797d201c681b91056529119e0b02407c7bb96a4a2c75c01fc9667232c8db8585604051616deb929190618d75565b60405180910390a45050505050565b5f616e24828473ffffffffffffffffffffffffffffffffffffffff166177d390919063ffffffff16565b90505f815114158015616e48575080806020019051810190616e469190619994565b155b15616e8a57826040517f5274afe7000000000000000000000000000000000000000000000000000000008152600401616e819190617eca565b60405180910390fd5b505050565b5f805b601580549050811015616fc9575f60158281548110616eb457616eb36188ea565b5b905f5260205f20015490505f616ec982614551565b90505f616f1783307f000000000000000000000000000000000000000000000000000000000000000073ffffffffffffffffffffffffffffffffffffffff16614feb9092919063ffffffff16565b90505f805f616f65857f000000000000000000000000000000000000000000000000000000000000000073ffffffffffffffffffffffffffffffffffffffff1661598590919063ffffffff16565b50925092509250616f9e616f8f868584616f8a88888b615d479092919063ffffffff16565b61768c565b8a6154f790919063ffffffff16565b98505f8903616fb257505050505050616fc9565b50505050505080616fc290618977565b9050616e92565b50819050919050565b5f6040517f190100000000000000000000000000000000000000000000000000000000000081528360028201528260228201526042812091505092915050565b5f805f7f7fffffffffffffffffffffffffffffff5d576e7357a4501ddfe92f46681b20a0845f1c111561704e575f6003859250925092506170ef565b5f6001888888886040515f815260200160405260405161707194939291906199bf565b6020604051602081039080840390855afa158015617091573d5f803e3d5ffd5b5050506020604051035190505f73ffffffffffffffffffffffffffffffffffffffff168173ffffffffffffffffffffffffffffffffffffffff16036170e2575f60015f801b935093509350506170ef565b805f805f1b935093509350505b9450945094915050565b5f600381111561710c5761710b619a02565b5b82600381111561711f5761711e619a02565b5b0315617257576001600381111561713957617138619a02565b5b82600381111561714c5761714b619a02565b5b03617183576040517ff645eedf00000000000000000000000000000000000000000000000000000000815260040160405180910390fd5b6002600381111561719757617196619a02565b5b8260038111156171aa576171a9619a02565b5b036171ee57805f1c6040517ffce698f70000000000000000000000000000000000000000000000000000000081526004016171e59190617ae6565b60405180910390fd5b60038081111561720157617200619a02565b5b82600381111561721457617213619a02565b5b0361725657806040517fd78bce0c00000000000000000000000000000000000000000000000000000000815260040161724d9190617ea2565b60405180910390fd5b5b5050565b5f8082846172699190619a2f565b90505f61728b8283670de0b6b3a764000060026172869190619a2f565b6173bd565b90505f6172ad8284670de0b6b3a764000060036172a89190619a2f565b6173bd565b90508082846172bc9190618944565b6172c69190618944565b935050505092915050565b5f6172e58383670de0b6b3a76400006173bd565b905092915050565b5f6fffffffffffffffffffffffffffffffff80168211156040518060400160405280601481526020017f6d61782075696e743132382065786365656465640000000000000000000000008152509061737b576040517f08c379a00000000000000000000000000000000000000000000000000000000081526004016173729190617b89565b60405180910390fd5b50819050919050565b5f6173b4620f4240836173979190618944565b6001856173a49190618944565b866173bd9092919063ffffffff16565b90509392505050565b5f8183856173cb9190619a2f565b6173d59190619a70565b90509392505050565b5f8083850290505f8019858709828110838203039150505f81036174165783828161740c5761740b619900565b5b04925050506174d6565b80841161744f576040517f227bc15300000000000000000000000000000000000000000000000000000000815260040160405180910390fd5b5f8486880990508281118203915080830392505f855f038616905080860495508084049350600181825f0304019050808302841793505f600287600302189050808702600203810290508087026002038102905080870260020381029050808702600203810290508087026002038102905080870260020381029050808502955050505050505b9392505050565b5f816001836174ec919061973b565b84866174f89190619a2f565b6175029190618944565b61750c9190619a70565b90509392505050565b5f6001600283600381111561752d5761752c619a02565b5b6175379190619aa0565b60ff16149050919050565b6175be848573ffffffffffffffffffffffffffffffffffffffff166323b872dd86868660405160240161757793929190619ad0565b604051602081830303815290604052915060e01b6020820180517bffffffffffffffffffffffffffffffffffffffffffffffffffffffff8381831617835250505050616dfa565b50505050565b5f828210828418028318905092915050565b60605f6175e2836177e8565b90505f602067ffffffffffffffff811115617600576175ff617f5b565b5b6040519080825280601f01601f1916602001820160405280156176325781602001600182028036833780820191505090505b5090508181528360208201528092505050919050565b5f8151111561765a5780518082602001fd5b6040517f1425ea4200000000000000000000000000000000000000000000000000000000815260040160405180910390fd5b5f8061773d848661769d919061973b565b875f015173ffffffffffffffffffffffffffffffffffffffff166370a082317f00000000000000000000000000000000000000000000000000000000000000006040518263ffffffff1660e01b81526004016176f99190617eca565b602060405180830381865afa158015617714573d5f803e3d5ffd5b505050506040513d601f19601f820116820180604052508101906177389190618ece565b6175c4565b905061774983826175c4565b915050949350505050565b5f73ffffffffffffffffffffffffffffffffffffffff168273ffffffffffffffffffffffffffffffffffffffff16036177c4575f6040517f96c6fd1e0000000000000000000000000000000000000000000000000000000081526004016177bb9190617eca565b60405180910390fd5b6177cf825f8361601d565b5050565b60606177e083835f617836565b905092915050565b5f8060ff835f1c169050601f81111561782d576040517fb3512b0c00000000000000000000000000000000000000000000000000000000815260040160405180910390fd5b80915050919050565b60608147101561787d57306040517fcd7860590000000000000000000000000000000000000000000000000000000081526004016178749190617eca565b60405180910390fd5b5f808573ffffffffffffffffffffffffffffffffffffffff1684866040516178a591906196fe565b5f6040518083038185875af1925050503d805f81146178df576040519150601f19603f3d011682016040523d82523d5f602084013e6178e4565b606091505b50915091506178f4868383616ac5565b925050509392505050565b828054828255905f5260205f20908101928215617939579160200282015b8281111561793857823582559160200191906001019061791d565b5b5090506179469190617ab3565b5090565b828054828255905f5260205f20908101928215617984579160200282015b82811115617983578251825591602001919060010190617968565b5b5090506179919190617ab3565b5090565b6040518060a001604052805f73ffffffffffffffffffffffffffffffffffffffff1681526020015f73ffffffffffffffffffffffffffffffffffffffff1681526020015f73ffffffffffffffffffffffffffffffffffffffff1681526020015f73ffffffffffffffffffffffffffffffffffffffff1681526020015f81525090565b6040518060c001604052805f6fffffffffffffffffffffffffffffffff1681526020015f6fffffffffffffffffffffffffffffffff1681526020015f6fffffffffffffffffffffffffffffffff1681526020015f6fffffffffffffffffffffffffffffffff1681526020015f6fffffffffffffffffffffffffffffffff1681526020015f6fffffffffffffffffffffffffffffffff1681525090565b5b80821115617aca575f815f905550600101617ab4565b5090565b5f819050919050565b617ae081617ace565b82525050565b5f602082019050617af95f830184617ad7565b92915050565b5f81519050919050565b5f82825260208201905092915050565b5f5b83811015617b36578082015181840152602081019050617b1b565b5f8484015250505050565b5f601f19601f8301169050919050565b5f617b5b82617aff565b617b658185617b09565b9350617b75818560208601617b19565b617b7e81617b41565b840191505092915050565b5f6020820190508181035f830152617ba18184617b51565b905092915050565b5f604051905090565b5f80fd5b5f80fd5b617bc381617ace565b8114617bcd575f80fd5b50565b5f81359050617bde81617bba565b92915050565b5f60208284031215617bf957617bf8617bb2565b5b5f617c0684828501617bd0565b91505092915050565b5f73ffffffffffffffffffffffffffffffffffffffff82169050919050565b5f617c3882617c0f565b9050919050565b617c4881617c2e565b8114617c52575f80fd5b50565b5f81359050617c6381617c3f565b92915050565b5f8060408385031215617c7f57617c7e617bb2565b5b5f617c8c85828601617c55565b9250506020617c9d85828601617bd0565b9150509250929050565b5f8115159050919050565b617cbb81617ca7565b82525050565b5f602082019050617cd45f830184617cb2565b92915050565b5f819050919050565b617cec81617cda565b8114617cf6575f80fd5b50565b5f81359050617d0781617ce3565b92915050565b5f60208284031215617d2257617d21617bb2565b5b5f617d2f84828501617cf9565b91505092915050565b5f805f60608486031215617d4f57617d4e617bb2565b5b5f617d5c86828701617c55565b9350506020617d6d86828701617c55565b9250506040617d7e86828701617bd0565b9150509250925092565b5f80fd5b5f80fd5b5f80fd5b5f8083601f840112617da957617da8617d88565b5b8235905067ffffffffffffffff811115617dc657617dc5617d8c565b5b602083019150836020820283011115617de257617de1617d90565b5b9250929050565b5f8060208385031215617dff57617dfe617bb2565b5b5f83013567ffffffffffffffff811115617e1c57617e1b617bb6565b5b617e2885828601617d94565b92509250509250929050565b5f60208284031215617e4957617e48617bb2565b5b5f617e5684828501617c55565b91505092915050565b5f60ff82169050919050565b617e7481617e5f565b82525050565b5f602082019050617e8d5f830184617e6b565b92915050565b617e9c81617cda565b82525050565b5f602082019050617eb55f830184617e93565b92915050565b617ec481617c2e565b82525050565b5f602082019050617edd5f830184617ebb565b92915050565b5f819050919050565b5f617f06617f01617efc84617c0f565b617ee3565b617c0f565b9050919050565b5f617f1782617eec565b9050919050565b5f617f2882617f0d565b9050919050565b617f3881617f1e565b82525050565b5f602082019050617f515f830184617f2f565b92915050565b5f80fd5b7f4e487b71000000000000000000000000000000000000000000000000000000005f52604160045260245ffd5b617f9182617b41565b810181811067ffffffffffffffff82111715617fb057617faf617f5b565b5b80604052505050565b5f617fc2617ba9565b9050617fce8282617f88565b919050565b5f60a08284031215617fe857617fe7617f57565b5b617ff260a0617fb9565b90505f61800184828501617c55565b5f83015250602061801484828501617c55565b602083015250604061802884828501617c55565b604083015250606061803c84828501617c55565b606083015250608061805084828501617bd0565b60808301525092915050565b5f8060c0838503121561807257618071617bb2565b5b5f61807f85828601617fd3565b92505060a061809085828601617bd0565b9150509250929050565b5f8083601f8401126180af576180ae617d88565b5b8235905067ffffffffffffffff8111156180cc576180cb617d8c565b5b6020830191508360208202830111156180e8576180e7617d90565b5b9250929050565b5f806020838503121561810557618104617bb2565b5b5f83013567ffffffffffffffff81111561812257618121617bb6565b5b61812e8582860161809a565b92509250509250929050565b5f61814482617cda565b9050919050565b6181548161813a565b82525050565b5f60208201905061816d5f83018461814b565b92915050565b5f806040838503121561818957618188617bb2565b5b5f61819685828601617bd0565b92505060206181a785828601617c55565b9150509250929050565b5f60a082840312156181c6576181c5617bb2565b5b5f6181d384828501617fd3565b91505092915050565b5f8083601f8401126181f1576181f0617d88565b5b8235905067ffffffffffffffff81111561820e5761820d617d8c565b5b6020830191508360c082028301111561822a57618229617d90565b5b9250929050565b5f806020838503121561824757618246617bb2565b5b5f83013567ffffffffffffffff81111561826457618263617bb6565b5b618270858286016181dc565b92509250509250929050565b5f67ffffffffffffffff82169050919050565b6182988161827c565b82525050565b5f6040820190506182b15f830185617ebb565b6182be602083018461828f565b9392505050565b5f77ffffffffffffffffffffffffffffffffffffffffffffffff82169050919050565b6182f1816182c5565b82525050565b5f60408201905061830a5f8301856182e8565b618317602083018461828f565b9392505050565b5f7fff0000000000000000000000000000000000000000000000000000000000000082169050919050565b6183528161831e565b82525050565b5f81519050919050565b5f82825260208201905092915050565b5f819050602082019050919050565b61838a81617ace565b82525050565b5f61839b8383618381565b60208301905092915050565b5f602082019050919050565b5f6183bd82618358565b6183c78185618362565b93506183d283618372565b805f5b838110156184025781516183e98882618390565b97506183f4836183a7565b9250506001810190506183d5565b5085935050505092915050565b5f60e0820190506184225f83018a618349565b81810360208301526184348189617b51565b905081810360408301526184488188617b51565b90506184576060830187617ad7565b6184646080830186617ebb565b61847160a0830185617e93565b81810360c083015261848381846183b3565b905098975050505050505050565b5f8083601f8401126184a6576184a5617d88565b5b8235905067ffffffffffffffff8111156184c3576184c2617d8c565b5b6020830191508360208202830111156184df576184de617d90565b5b9250929050565b5f80602083850312156184fc576184fb617bb2565b5b5f83013567ffffffffffffffff81111561851957618518617bb6565b5b61852585828601618491565b92509250509250929050565b5f81519050919050565b5f82825260208201905092915050565b5f819050602082019050919050565b5f81519050919050565b5f82825260208201905092915050565b5f61857e8261855a565b6185888185618564565b9350618598818560208601617b19565b6185a181617b41565b840191505092915050565b5f6185b78383618574565b905092915050565b5f602082019050919050565b5f6185d582618531565b6185df818561853b565b9350836020820285016185f18561854b565b805f5b8581101561862c578484038952815161860d85826185ac565b9450618618836185bf565b925060208a019950506001810190506185f4565b50829750879550505050505092915050565b5f6020820190508181035f83015261865681846185cb565b905092915050565b61866781617ca7565b8114618671575f80fd5b50565b5f813590506186828161865e565b92915050565b5f806040838503121561869e5761869d617bb2565b5b5f6186ab85828601617c55565b92505060206186bc85828601618674565b9150509250929050565b5f805f606084860312156186dd576186dc617bb2565b5b5f6186ea86828701617bd0565b93505060206186fb86828701617c55565b925050604061870c86828701617c55565b9150509250925092565b5f76ffffffffffffffffffffffffffffffffffffffffffffff82169050919050565b61874181618716565b82525050565b5f60608201905061875a5f830186618738565b6187676020830185617cb2565b618774604083018461828f565b949350505050565b61878581617e5f565b811461878f575f80fd5b50565b5f813590506187a08161877c565b92915050565b6187af81617cda565b81146187b9575f80fd5b50565b5f813590506187ca816187a6565b92915050565b5f805f805f805f60e0888a0312156187eb576187ea617bb2565b5b5f6187f88a828b01617c55565b97505060206188098a828b01617c55565b965050604061881a8a828b01617bd0565b955050606061882b8a828b01617bd0565b945050608061883c8a828b01618792565b93505060a061884d8a828b016187bc565b92505060c061885e8a828b016187bc565b91505092959891949750929550565b5f806040838503121561888357618882617bb2565b5b5f61889085828601617c55565b92505060206188a185828601617c55565b9150509250929050565b5f6bffffffffffffffffffffffff82169050919050565b6188cb816188ab565b82525050565b5f6020820190506188e45f8301846188c2565b92915050565b7f4e487b71000000000000000000000000000000000000000000000000000000005f52603260045260245ffd5b7f4e487b71000000000000000000000000000000000000000000000000000000005f52601160045260245ffd5b5f61894e82617ace565b915061895983617ace565b925082820190508082111561897157618970618917565b5b92915050565b5f61898182617ace565b91507fffffffffffffffffffffffffffffffffffffffffffffffffffffffffffffffff82036189b3576189b2618917565b5b600182019050919050565b7f4e487b71000000000000000000000000000000000000000000000000000000005f52602260045260245ffd5b5f6002820490506001821680618a0257607f821691505b602082108103618a1557618a146189be565b5b50919050565b5f82825260208201905092915050565b5f819050919050565b618a3d8161813a565b82525050565b5f618a4e8383618a34565b60208301905092915050565b5f618a686020840184617cf9565b905092915050565b5f602082019050919050565b5f618a878385618a1b565b9350618a9282618a2b565b805f5b85811015618aca57618aa78284618a5a565b618ab18882618a43565b9750618abc83618a70565b925050600181019050618a95565b5085925050509392505050565b5f6020820190508181035f830152618af0818486618a7c565b90509392505050565b5f81519050919050565b5f819050602082019050919050565b5f602082019050919050565b5f618b2882618af9565b618b328185618a1b565b9350618b3d83618b03565b805f5b83811015618b6d578151618b548882618a43565b9750618b5f83618b12565b925050600181019050618b40565b5085935050505092915050565b5f6020820190508181035f830152618b928184618b1e565b905092915050565b5f618bb4618baf618baa846188ab565b617ee3565b617ace565b9050919050565b618bc481618b9a565b82525050565b5f602082019050618bdd5f830184618bbb565b92915050565b5f60c08284031215618bf857618bf7617f57565b5b618c026040617fb9565b90505f618c1184828501617fd3565b5f8301525060a0618c2484828501617bd0565b60208301525092915050565b5f60c08284031215618c4557618c44617bb2565b5b5f618c5284828501618be3565b91505092915050565b618c6481617c2e565b82525050565b60a082015f820151618c7e5f850182618c5b565b506020820151618c916020850182618c5b565b506040820151618ca46040850182618c5b565b506060820151618cb76060850182618c5b565b506080820151618cca6080850182618381565b50505050565b5f61012082019050618ce45f830188618c6a565b618cf160a0830187617ad7565b618cfe60c0830186617ad7565b618d0b60e0830185617ebb565b618d19610100830184617ebb565b9695505050505050565b5f81519050618d3181617bba565b92915050565b5f8060408385031215618d4d57618d4c617bb2565b5b5f618d5a85828601618d23565b9250506020618d6b85828601618d23565b9150509250929050565b5f604082019050618d885f830185617ad7565b618d956020830184617ad7565b9392505050565b5f819050919050565b5f618dbf618dba618db584618d9c565b617ee3565b617ace565b9050919050565b618dcf81618da5565b82525050565b5f82825260208201905092915050565b50565b5f618df35f83618dd5565b9150618dfe82618de5565b5f82019050919050565b5f61012082019050618e1c5f830187618c6a565b618e2960a0830186617ad7565b618e3660c0830185618dc6565b618e4360e0830184617ebb565b818103610100830152618e5581618de8565b905095945050505050565b5f80fd5b5f80fd5b5f80fd5b5f8083356001602003843603038112618e8857618e87618e60565b5b80840192508235915067ffffffffffffffff821115618eaa57618ea9618e64565b5b602083019250600182023603831315618ec657618ec5618e68565b5b509250929050565b5f60208284031215618ee357618ee2617bb2565b5b5f618ef084828501618d23565b91505092915050565b5f60c082019050618f0c5f830189617e93565b618f196020830188617ebb565b618f266040830187617ebb565b618f336060830186617ad7565b618f406080830185617ad7565b618f4d60a0830184617ad7565b979650505050505050565b5f604082019050618f6b5f830185617ebb565b618f786020830184617ebb565b9392505050565b5f81519050618f8d81617c3f565b92915050565b5f60a08284031215618fa857618fa7617f57565b5b618fb260a0617fb9565b90505f618fc184828501618f7f565b5f830152506020618fd484828501618f7f565b6020830152506040618fe884828501618f7f565b6040830152506060618ffc84828501618f7f565b606083015250608061901084828501618d23565b60808301525092915050565b5f60a0828403121561903157619030617bb2565b5b5f61903e84828501618f93565b91505092915050565b5f60608201905061905a5f830186617ebb565b6190676020830185617ad7565b6190746040830184617ad7565b949350505050565b5f61908682617e5f565b915061909183617e5f565b9250828201905060ff8111156190aa576190a9618917565b5b92915050565b5f81519050919050565b5f819050602082019050919050565b6190d281617cda565b82525050565b5f6190e383836190c9565b60208301905092915050565b5f602082019050919050565b5f619105826190b0565b61910f8185618a1b565b935061911a836190ba565b805f5b8381101561914a57815161913188826190d8565b975061913c836190ef565b92505060018101905061911d565b5085935050505092915050565b5f6020820190508181035f83015261916f81846190fb565b905092915050565b5f67ffffffffffffffff82111561919157619190617f5b565b5b602082029050602081019050919050565b5f815190506191b0816187a6565b92915050565b5f6191c86191c384619177565b617fb9565b905080838252602082019050602084028301858111156191eb576191ea617d90565b5b835b81811015619214578061920088826191a2565b8452602084019350506020810190506191ed565b5050509392505050565b5f82601f83011261923257619231617d88565b5b81516192428482602086016191b6565b91505092915050565b5f602082840312156192605761925f617bb2565b5b5f82015167ffffffffffffffff81111561927d5761927c617bb6565b5b6192898482850161921e565b91505092915050565b5f819050919050565b5f6192b56192b06192ab84619292565b617ee3565b617e5f565b9050919050565b6192c58161929b565b82525050565b5f6040820190506192de5f8301856192bc565b6192eb6020830184617ad7565b9392505050565b5f81549050919050565b5f819050815f5260205f209050919050565b5f815f1c9050919050565b5f819050919050565b5f61933461932f8361930e565b619319565b9050919050565b5f6193468254619322565b9050919050565b5f600182019050919050565b5f619363826192f2565b61936d8185618a1b565b9350619378836192fc565b805f5b838110156193af5761938c8261933b565b6193968882618a43565b97506193a18361934d565b92505060018101905061937b565b5085935050505092915050565b5f6020820190508181035f8301526193d48184619359565b905092915050565b5f6193f66193f16193ec84618716565b617ee3565b617ace565b9050919050565b619406816193dc565b82525050565b5f60208201905061941f5f8301846193fd565b92915050565b5f8160011c9050919050565b5f808291508390505b600185111561947a5780860481111561945657619455618917565b5b60018516156194655780820291505b808102905061947385619425565b945061943a565b94509492505050565b5f82619492576001905061954d565b8161949f575f905061954d565b81600181146194b557600281146194bf576194ee565b600191505061954d565b60ff8411156194d1576194d0618917565b5b8360020a9150848211156194e8576194e7618917565b5b5061954d565b5060208310610133831016604e8410600b84101617156195235782820a90508381111561951e5761951d618917565b5b61954d565b6195308484846001619431565b9250905081840481111561954757619546618917565b5b81810290505b9392505050565b5f61955e82617ace565b915061956983617e5f565b92506195967fffffffffffffffffffffffffffffffffffffffffffffffffffffffffffffffff8484619483565b905092915050565b5f60a0820190506195b15f830184618c6a565b92915050565b5f6fffffffffffffffffffffffffffffffff82169050919050565b6195db816195b7565b81146195e5575f80fd5b50565b5f815190506195f6816195d2565b92915050565b5f60c0828403121561961157619610617f57565b5b61961b60c0617fb9565b90505f61962a848285016195e8565b5f83015250602061963d848285016195e8565b6020830152506040619651848285016195e8565b6040830152506060619665848285016195e8565b6060830152506080619679848285016195e8565b60808301525060a061968d848285016195e8565b60a08301525092915050565b5f60c082840312156196ae576196ad617bb2565b5b5f6196bb848285016195fc565b91505092915050565b5f81905092915050565b5f6196d88261855a565b6196e281856196c4565b93506196f2818560208601617b19565b80840191505092915050565b5f61970982846196ce565b915081905092915050565b5f6040820190506197275f830185617ebb565b6197346020830184617ad7565b9392505050565b5f61974582617ace565b915061975083617ace565b925082820390508181111561976857619767618917565b5b92915050565b619777816195b7565b82525050565b60c082015f8201516197915f85018261976e565b5060208201516197a4602085018261976e565b5060408201516197b7604085018261976e565b5060608201516197ca606085018261976e565b5060808201516197dd608085018261976e565b5060a08201516197f060a085018261976e565b50505050565b5f6101608201905061980a5f830185618c6a565b61981760a083018461977d565b9392505050565b5f619828826195b7565b9150619833836195b7565b925082820190506fffffffffffffffffffffffffffffffff81111561985b5761985a618917565b5b92915050565b5f60a0820190506198745f830188617e93565b6198816020830187617e93565b61988e6040830186617e93565b61989b6060830185617ad7565b6198a86080830184617ebb565b9695505050505050565b5f6040820190506198c55f83018561814b565b6198d26020830184617ad7565b9392505050565b5f6040820190506198ec5f830185617ebb565b6198f96020830184617e93565b9392505050565b7f4e487b71000000000000000000000000000000000000000000000000000000005f52601260045260245ffd5b5f610120820190506199415f830188618c6a565b61994e60a0830187617ad7565b61995b60c0830186618dc6565b61996860e0830185617ebb565b619976610100830184617ebb565b9695505050505050565b5f8151905061998e8161865e565b92915050565b5f602082840312156199a9576199a8617bb2565b5b5f6199b684828501619980565b91505092915050565b5f6080820190506199d25f830187617e93565b6199df6020830186617e6b565b6199ec6040830185617e93565b6199f96060830184617e93565b95945050505050565b7f4e487b71000000000000000000000000000000000000000000000000000000005f52602160045260245ffd5b5f619a3982617ace565b9150619a4483617ace565b9250828202619a5281617ace565b91508282048414831517619a6957619a68618917565b5b5092915050565b5f619a7a82617ace565b9150619a8583617ace565b925082619a9557619a94619900565b5b828204905092915050565b5f619aaa82617e5f565b9150619ab583617e5f565b925082619ac557619ac4619900565b5b828206905092915050565b5f606082019050619ae35f830186617ebb565b619af06020830185617ebb565b619afd6040830184617ad7565b94935050505056fea26469706673582212208f38cead40024c2a9bac3aa63326bdad3da78ab27589ffd1f5b283d800f3c14c64736f6c63430008150033","linkReferences":{}},"methodIdentifiers":{"DECIMALS_OFFSET()":"aea70acc","DOMAIN_SEPARATOR()":"3644e515","MORPHO()":"3acb5624","acceptCap((address,address,address,address,uint256))":"6fda3868","acceptGuardian()":"a5f31d61","acceptOwnership()":"79ba5097","acceptTimelock()":"8a2c7b39","allowance(address,address)":"dd62ed3e","approve(address,uint256)":"095ea7b3","asset()":"38d52e0f","balanceOf(address)":"70a08231","config(bytes32)":"cc718f76","convertToAssets(uint256)":"07a2d13a","convertToShares(uint256)":"c6e6f592","curator()":"e66f53b7","decimals()":"313ce567","deposit(uint256,address)":"6e553f65","eip712Domain()":"84b0196e","fee()":"ddca3f43","feeRecipient()":"46904840","guardian()":"452a9320","isAllocator(address)":"4dedf20e","lastTotalAssets()":"568efc07","maxDeposit(address)":"402d267d","maxMint(address)":"c63d75b6","maxRedeem(address)":"d905777e","maxWithdraw(address)":"ce96cb77","mint(uint256,address)":"94bf804d","multicall(bytes[])":"ac9650d8","name()":"06fdde03","nonces(address)":"7ecebe00","owner()":"8da5cb5b","pendingCap(bytes32)":"a31be5d6","pendingGuardian()":"762c31ba","pendingOwner()":"e30c3978","pendingTimelock()":"7cc4d9a1","permit(address,address,uint256,uint256,uint8,bytes32,bytes32)":"d505accf","previewDeposit(uint256)":"ef8b30f7","previewMint(uint256)":"b3d7f6b9","previewRedeem(uint256)":"4cdad506","previewWithdraw(uint256)":"0a28a477","reallocate(((address,address,address,address,uint256),uint256)[])":"7299aa31","redeem(uint256,address,address)":"ba087652","renounceOwnership()":"715018a6","revokePendingCap(bytes32)":"102f7b6c","revokePendingGuardian()":"1ecca77c","revokePendingMarketRemoval(bytes32)":"4b998de5","revokePendingTimelock()":"c9649aa9","setCurator(address)":"e90956cf","setFee(uint256)":"69fe0e2d","setFeeRecipient(address)":"e74b981b","setIsAllocator(address,bool)":"b192a84a","setSkimRecipient(address)":"2b30997b","setSupplyQueue(bytes32[])":"2acc56f9","skim(address)":"bc25cf77","skimRecipient()":"388af5b5","submitCap((address,address,address,address,uint256),uint256)":"3b24c2bf","submitGuardian(address)":"9d6b4a45","submitMarketRemoval((address,address,address,address,uint256))":"84755b5f","submitTimelock(uint256)":"7224a512","supplyQueue(uint256)":"f7d18521","supplyQueueLength()":"a17b3130","symbol()":"95d89b41","timelock()":"d33219b4","totalAssets()":"01e1d114","totalSupply()":"18160ddd","transfer(address,uint256)":"a9059cbb","transferFrom(address,address,uint256)":"23b872dd","transferOwnership(address)":"f2fde38b","updateWithdrawQueue(uint256[])":"41b67833","withdraw(uint256,address,address)":"b460af94","withdrawQueue(uint256)":"62518ddf","withdrawQueueLength()":"33f91ebb"},"id":56}