{"abi":[{"type":"constructor","inputs":[{"name":"owner","type":"address","internalType":"address"},{"name":"morpho","type":"address","internalType":"address"},{"name":"initialTimelock","type":"uint256","internalType":"uint256"},{"name":"_asset","type":"address","internalType":"address"},{"name":"_name","type":"string","internalType":"string"},{"name":"_symbol","type":"string","internalType":"string"}],"stateMutability":"nonpayable"},{"type":"function","name":"DECIMALS_OFFSET","inputs":[],"outputs":[{"name":"","type":"uint8","internalType":"uint8"}],"stateMutability":"view"},{"type":"function","name":"DOMAIN_SEPARATOR","inputs":[],"outputs":[{"name":"","type":"bytes32","internalType":"bytes32"}],"stateMutability":"view"},{"type":"function","name":"MORPHO","inputs":[],"outputs":[{"name":"","type":"address","internalType":"contract IMorpho"}],"stateMutability":"view"},{"type":"function","name":"acceptCap","inputs":[{"name":"marketParams","type":"tuple","internalType":"struct MarketParams","components":[{"name":"loanToken","type":"address","internalType":"address"},{"name":"collateralToken","type":"address","internalType":"address"},{"name":"oracle","type":"address","internalType":"address"},{"name":"irm","type":"address","internalType":"address"},{"name":"lltv","type":"uint256","internalType":"uint256"}]}],"outputs":[],"stateMutability":"nonpayable"},{"type":"function","name":"acceptGuardian","inputs":[],"outputs":[],"stateMutability":"nonpayable"},{"type":"function","name":"acceptOwnership","inputs":[],"outputs":[],"stateMutability":"nonpayable"},{"type":"function","name":"acceptTimelock","inputs":[],"outputs":[],"stateMutability":"nonpayable"},{"type":"function","name":"allowance","inputs":[{"name":"owner","type":"address","internalType":"address"},{"name":"spender","type":"address","internalType":"address"}],"outputs":[{"name":"","type":"uint256","internalType":"uint256"}],"stateMutability":"view"},{"type":"function","name":"approve","inputs":[{"name":"spender","type":"address","internalType":"address"},{"name":"value","type":"uint256","internalType":"uint256"}],"outputs":[{"name":"","type":"bool","internalType":"bool"}],"stateMutability":"nonpayable"},{"type":"function","name":"asset","inputs":[],"outputs":[{"name":"","type":"address","internalType":"address"}],"stateMutability":"view"},{"type":"function","name":"balanceOf","inputs":[{"name":"account","type":"address","internalType":"address"}],"outputs":[{"name":"","type":"uint256","internalType":"uint256"}],"stateMutability":"view"},{"type":"function","name":"config","inputs":[{"name":"","type":"bytes32","internalType":"Id"}],"outputs":[{"name":"cap","type":"uint184","internalType":"uint184"},{"name":"enabled","type":"bool","internalType":"bool"},{"name":"removableAt","type":"uint64","internalType":"uint64"}],"stateMutability":"view"},{"type":"function","name":"convertToAssets","inputs":[{"name":"shares","type":"uint256","internalType":"uint256"}],"outputs":[{"name":"","type":"uint256","internalType":"uint256"}],"stateMutability":"view"},{"type":"function","name":"convertToShares","inputs":[{"name":"assets","type":"uint256","internalType":"uint256"}],"outputs":[{"name":"","type":"uint256","internalType":"uint256"}],"stateMutability":"view"},{"type":"function","name":"curator","inputs":[],"outputs":[{"name":"","type":"address","internalType":"address"}],"stateMutability":"view"},{"type":"function","name":"decimals","inputs":[],"outputs":[{"name":"","type":"uint8","internalType":"uint8"}],"stateMutability":"view"},{"type":"function","name":"deposit","inputs":[{"name":"assets","type":"uint256","internalType":"uint256"},{"name":"receiver","type":"address","internalType":"address"}],"outputs":[{"name":"shares","type":"uint256","internalType":"uint256"}],"stateMutability":"nonpayable"},{"type":"function","name":"eip712Domain","inputs":[],"outputs":[{"name":"fields","type":"bytes1","internalType":"bytes1"},{"name":"name","type":"string","internalType":"string"},{"name":"version","type":"string","internalType":"string"},{"name":"chainId","type":"uint256","internalType":"uint256"},{"name":"verifyingContract","type":"address","internalType":"address"},{"name":"salt","type":"bytes32","internalType":"bytes32"},{"name":"extensions","type":"uint256[]","internalType":"uint256[]"}],"stateMutability":"view"},{"type":"function","name":"fee","inputs":[],"outputs":[{"name":"","type":"uint96","internalType":"uint96"}],"stateMutability":"view"},{"type":"function","name":"feeRecipient","inputs":[],"outputs":[{"name":"","type":"address","internalType":"address"}],"stateMutability":"view"},{"type":"function","name":"guardian","inputs":[],"outputs":[{"name":"","type":"address","internalType":"address"}],"stateMutability":"view"},{"type":"function","name":"isAllocator","inputs":[{"name":"","type":"address","internalType":"address"}],"outputs":[{"name":"","type":"bool","internalType":"bool"}],"stateMutability":"view"},{"type":"function","name":"lastTotalAssets","inputs":[],"outputs":[{"name":"","type":"uint256","internalType":"uint256"}],"stateMutability":"view"},{"type":"function","name":"maxDeposit","inputs":[{"name":"","type":"address","internalType":"address"}],"outputs":[{"name":"","type":"uint256","internalType":"uint256"}],"stateMutability":"view"},{"type":"function","name":"maxMint","inputs":[{"name":"","type":"address","internalType":"address"}],"outputs":[{"name":"","type":"uint256","internalType":"uint256"}],"stateMutability":"view"},{"type":"function","name":"maxRedeem","inputs":[{"name":"owner","type":"address","internalType":"address"}],"outputs":[{"name":"","type":"uint256","internalType":"uint256"}],"stateMutability":"view"},{"type":"function","name":"maxWithdraw","inputs":[{"name":"owner","type":"address","internalType":"address"}],"outputs":[{"name":"assets","type":"uint256","internalType":"uint256"}],"stateMutability":"view"},{"type":"function","name":"mint","inputs":[{"name":"shares","type":"uint256","internalType":"uint256"},{"name":"receiver","type":"address","internalType":"address"}],"outputs":[{"name":"assets","type":"uint256","internalType":"uint256"}],"stateMutability":"nonpayable"},{"type":"function","name":"multicall","inputs":[{"name":"data","type":"bytes[]","internalType":"bytes[]"}],"outputs":[{"name":"results","type":"bytes[]","internalType":"bytes[]"}],"stateMutability":"nonpayable"},{"type":"function","name":"name","inputs":[],"outputs":[{"name":"","type":"string","internalType":"string"}],"stateMutability":"view"},{"type":"function","name":"nonces","inputs":[{"name":"owner","type":"address","internalType":"address"}],"outputs":[{"name":"","type":"uint256","internalType":"uint256"}],"stateMutability":"view"},{"type":"function","name":"owner","inputs":[],"outputs":[{"name":"","type":"address","internalType":"address"}],"stateMutability":"view"},{"type":"function","name":"pendingCap","inputs":[{"name":"","type":"bytes32","internalType":"Id"}],"outputs":[{"name":"value","type":"uint192","internalType":"uint192"},{"name":"validAt","type":"uint64","internalType":"uint64"}],"stateMutability":"view"},{"type":"function","name":"pendingGuardian","inputs":[],"outputs":[{"name":"value","type":"address","internalType":"address"},{"name":"validAt","type":"uint64","internalType":"uint64"}],"stateMutability":"view"},{"type":"function","name":"pendingOwner","inputs":[],"outputs":[{"name":"","type":"address","internalType":"address"}],"stateMutability":"view"},{"type":"function","name":"pendingTimelock","inputs":[],"outputs":[{"name":"value","type":"uint192","internalType":"uint192"},{"name":"validAt","type":"uint64","internalType":"uint64"}],"stateMutability":"view"},{"type":"function","name":"permit","inputs":[{"name":"owner","type":"address","internalType":"address"},{"name":"spender","type":"address","internalType":"address"},{"name":"value","type":"uint256","internalType":"uint256"},{"name":"deadline","type":"uint256","internalType":"uint256"},{"name":"v","type":"uint8","internalType":"uint8"},{"name":"r","type":"bytes32","internalType":"bytes32"},{"name":"s","type":"bytes32","internalType":"bytes32"}],"outputs":[],"stateMutability":"nonpayable"},{"type":"function","name":"previewDeposit","inputs":[{"name":"assets","type":"uint256","internalType":"uint256"}],"outputs":[{"name":"","type":"uint256","internalType":"uint256"}],"stateMutability":"view"},{"type":"function","name":"previewMint","inputs":[{"name":"shares","type":"uint256","internalType":"uint256"}],"outputs":[{"name":"","type":"uint256","internalType":"uint256"}],"stateMutability":"view"},{"type":"function","name":"previewRedeem","inputs":[{"name":"shares","type":"uint256","internalType":"uint256"}],"outputs":[{"name":"","type":"uint256","internalType":"uint256"}],"stateMutability":"view"},{"type":"function","name":"previewWithdraw","inputs":[{"name":"assets","type":"uint256","internalType":"uint256"}],"outputs":[{"name":"","type":"uint256","internalType":"uint256"}],"stateMutability":"view"},{"type":"function","name":"reallocate","inputs":[{"name":"allocations","type":"tuple[]","internalType":"struct MarketAllocation[]","components":[{"name":"marketParams","type":"tuple","internalType":"struct MarketParams","components":[{"name":"loanToken","type":"address","internalType":"address"},{"name":"collateralToken","type":"address","internalType":"address"},{"name":"oracle","type":"address","internalType":"address"},{"name":"irm","type":"address","internalType":"address"},{"name":"lltv","type":"uint256","internalType":"uint256"}]},{"name":"assets","type":"uint256","internalType":"uint256"}]}],"outputs":[],"stateMutability":"nonpayable"},{"type":"function","name":"redeem","inputs":[{"name":"shares","type":"uint256","internalType":"uint256"},{"name":"receiver","type":"address","internalType":"address"},{"name":"owner","type":"address","internalType":"address"}],"outputs":[{"name":"assets","type":"uint256","internalType":"uint256"}],"stateMutability":"nonpayable"},{"type":"function","name":"renounceOwnership","inputs":[],"outputs":[],"stateMutability":"nonpayable"},{"type":"function","name":"revokePendingCap","inputs":[{"name":"id","type":"bytes32","internalType":"Id"}],"outputs":[],"stateMutability":"nonpayable"},{"type":"function","name":"revokePendingGuardian","inputs":[],"outputs":[],"stateMutability":"nonpayable"},{"type":"function","name":"revokePendingMarketRemoval","inputs":[{"name":"id","type":"bytes32","internalType":"Id"}],"outputs":[],"stateMutability":"nonpayable"},{"type":"function","name":"revokePendingTimelock","inputs":[],"outputs":[],"stateMutability":"nonpayable"},{"type":"function","name":"setCurator","inputs":[{"name":"newCurator","type":"address","internalType":"address"}],"outputs":[],"stateMutability":"nonpayable"},{"type":"function","name":"setFee","inputs":[{"name":"newFee","type":"uint256","internalType":"uint256"}],"outputs":[],"stateMutability":"nonpayable"},{"type":"function","name":"setFeeRecipient","inputs":[{"name":"newFeeRecipient","type":"address","internalType":"address"}],"outputs":[],"stateMutability":"nonpayable"},{"type":"function","name":"setIsAllocator","inputs":[{"name":"newAllocator","type":"address","internalType":"address"},{"name":"newIsAllocator","type":"bool","internalType":"bool"}],"outputs":[],"stateMutability":"nonpayable"},{"type":"function","name":"setSkimRecipient","inputs":[{"name":"newSkimRecipient","type":"address","internalType":"address"}],"outputs":[],"stateMutability":"nonpayable"},{"type":"function","name":"setSupplyQueue","inputs":[{"name":"newSupplyQueue","type":"bytes32[]","internalType":"Id[]"}],"outputs":[],"stateMutability":"nonpayable"},{"type":"function","name":"skim","inputs":[{"name":"token","type":"address","internalType":"address"}],"outputs":[],"stateMutability":"nonpayable"},{"type":"function","name":"skimRecipient","inputs":[],"outputs":[{"name":"","type":"address","internalType":"address"}],"stateMutability":"view"},{"type":"function","name":"submitCap","inputs":[{"name":"marketParams","type":"tuple","internalType":"struct MarketParams","components":[{"name":"loanToken","type":"address","internalType":"address"},{"name":"collateralToken","type":"address","internalType":"address"},{"name":"oracle","type":"address","internalType":"address"},{"name":"irm","type":"address","internalType":"address"},{"name":"lltv","type":"uint256","internalType":"uint256"}]},{"name":"newSupplyCap","type":"uint256","internalType":"uint256"}],"outputs":[],"stateMutability":"nonpayable"},{"type":"function","name":"submitGuardian","inputs":[{"name":"newGuardian","type":"address","internalType":"address"}],"outputs":[],"stateMutability":"nonpayable"},{"type":"function","name":"submitMarketRemoval","inputs":[{"name":"marketParams","type":"tuple","internalType":"struct MarketParams","components":[{"name":"loanToken","type":"address","internalType":"address"},{"name":"collateralToken","type":"address","internalType":"address"},{"name":"oracle","type":"address","internalType":"address"},{"name":"irm","type":"address","internalType":"address"},{"name":"lltv","type":"uint256","internalType":"uint256"}]}],"outputs":[],"stateMutability":"nonpayable"},{"type":"function","name":"submitTimelock","inputs":[{"name":"newTimelock","type":"uint256","internalType":"uint256"}],"outputs":[],"stateMutability":"nonpayable"},{"type":"function","name":"supplyQueue","inputs":[{"name":"","type":"uint256","internalType":"uint256"}],"outputs":[{"name":"","type":"bytes32","internalType":"Id"}],"stateMutability":"view"},{"type":"function","name":"supplyQueueLength","inputs":[],"outputs":[{"name":"","type":"uint256","internalType":"uint256"}],"stateMutability":"view"},{"type":"function","name":"symbol","inputs":[],"outputs":[{"name":"","type":"string","internalType":"string"}],"stateMutability":"view"},{"type":"function","name":"timelock","inputs":[],"outputs":[{"name":"","type":"uint256","internalType":"uint256"}],"stateMutability":"view"},{"type":"function","name":"totalAssets","inputs":[],"outputs":[{"name":"assets","type":"uint256","internalType":"uint256"}],"stateMutability":"view"},{"type":"function","name":"totalSupply","inputs":[],"outputs":[{"name":"","type":"uint256","internalType":"uint256"}],"stateMutability":"view"},{"type":"function","name":"transfer","inputs":[{"name":"to","type":"address","internalType":"address"},{"name":"value","type":"uint256","internalType":"uint256"}],"outputs":[{"name":"","type":"bool","internalType":"bool"}],"stateMutability":"nonpayable"},{"type":"function","name":"transferFrom","inputs":[{"name":"from","type":"address","internalType":"address"},{"name":"to","type":"address","internalType":"address"},{"name":"value","type":"uint256","internalType":"uint256"}],"outputs":[{"name":"","type":"bool","internalType":"bool"}],"stateMutability":"nonpayable"},{"type":"function","name":"transferOwnership","inputs":[{"name":"newOwner","type":"address","internalType":"address"}],"outputs":[],"stateMutability":"nonpayable"},{"type":"function","name":"updateWithdrawQueue","inputs":[{"name":"indexes","type":"uint256[]","internalType":"uint256[]"}],"outputs":[],"stateMutability":"nonpayable"},{"type":"function","name":"withdraw","inputs":[{"name":"assets","type":"uint256","internalType":"uint256"},{"name":"receiver","type":"address","internalType":"address"},{"name":"owner","type":"address","internalType":"address"}],"outputs":[{"name":"shares","type":"uint256","internalType":"uint256"}],"stateMutability":"nonpayable"},{"type":"function","name":"withdrawQueue","inputs":[{"name":"","type":"uint256","internalType":"uint256"}],"outputs":[{"name":"","type":"bytes32","internalType":"Id"}],"stateMutability":"view"},{"type":"function","name":"withdrawQueueLength","inputs":[],"outputs":[{"name":"","type":"uint256","internalType":"uint256"}],"stateMutability":"view"},{"type":"event","name":"AccrueInterest","inputs":[{"name":"newTotalAssets","type":"uint256","indexed":false,"internalType":"uint256"},{"name":"feeShares","type":"uint256","indexed":false,"internalType":"uint256"}],"anonymous":false},{"type":"event","name":"Approval","inputs":[{"name":"owner","type":"address","indexed":true,"internalType":"address"},{"name":"spender","type":"address","indexed":true,"internalType":"address"},{"name":"value","type":"uint256","indexed":false,"internalType":"uint256"}],"anonymous":false},{"type":"event","name":"Deposit","inputs":[{"name":"sender","type":"address","indexed":true,"internalType":"address"},{"name":"owner","type":"address","indexed":true,"internalType":"address"},{"name":"assets","type":"uint256","indexed":false,"internalType":"uint256"},{"name":"shares","type":"uint256","indexed":false,"internalType":"uint256"}],"anonymous":false},{"type":"event","name":"EIP712DomainChanged","inputs":[],"anonymous":false},{"type":"event","name":"OwnershipTransferStarted","inputs":[{"name":"previousOwner","type":"address","indexed":true,"internalType":"address"},{"name":"newOwner","type":"address","indexed":true,"internalType":"address"}],"anonymous":false},{"type":"event","name":"OwnershipTransferred","inputs":[{"name":"previousOwner","type":"address","indexed":true,"internalType":"address"},{"name":"newOwner","type":"address","indexed":true,"internalType":"address"}],"anonymous":false},{"type":"event","name":"ReallocateSupply","inputs":[{"name":"caller","type":"address","indexed":true,"internalType":"address"},{"name":"id","type":"bytes32","indexed":true,"internalType":"Id"},{"name":"suppliedAssets","type":"uint256","indexed":false,"internalType":"uint256"},{"name":"suppliedShares","type":"uint256","indexed":false,"internalType":"uint256"}],"anonymous":false},{"type":"event","name":"ReallocateWithdraw","inputs":[{"name":"caller","type":"address","indexed":true,"internalType":"address"},{"name":"id","type":"bytes32","indexed":true,"internalType":"Id"},{"name":"withdrawnAssets","type":"uint256","indexed":false,"internalType":"uint256"},{"name":"withdrawnShares","type":"uint256","indexed":false,"internalType":"uint256"}],"anonymous":false},{"type":"event","name":"RevokePendingCap","inputs":[{"name":"caller","type":"address","indexed":true,"internalType":"address"},{"name":"id","type":"bytes32","indexed":true,"internalType":"Id"}],"anonymous":false},{"type":"event","name":"RevokePendingGuardian","inputs":[{"name":"caller","type":"address","indexed":true,"internalType":"address"}],"anonymous":false},{"type":"event","name":"RevokePendingMarketRemoval","inputs":[{"name":"caller","type":"address","indexed":true,"internalType":"address"},{"name":"id","type":"bytes32","indexed":true,"internalType":"Id"}],"anonymous":false},{"type":"event","name":"RevokePendingTimelock","inputs":[{"name":"caller","type":"address","indexed":true,"internalType":"address"}],"anonymous":false},{"type":"event","name":"SetCap","inputs":[{"name":"caller","type":"address","indexed":true,"internalType":"address"},{"name":"id","type":"bytes32","indexed":true,"internalType":"Id"},{"name":"cap","type":"uint256","indexed":false,"internalType":"uint256"}],"anonymous":false},{"type":"event","name":"SetCurator","inputs":[{"name":"newCurator","type":"address","indexed":true,"internalType":"address"}],"anonymous":false},{"type":"event","name":"SetFee","inputs":[{"name":"caller","type":"address","indexed":true,"internalType":"address"},{"name":"newFee","type":"uint256","indexed":false,"internalType":"uint256"}],"anonymous":false},{"type":"event","name":"SetFeeRecipient","inputs":[{"name":"newFeeRecipient","type":"address","indexed":true,"internalType":"address"}],"anonymous":false},{"type":"event","name":"SetGuardian","inputs":[{"name":"caller","type":"address","indexed":true,"internalType":"address"},{"name":"guardian","type":"address","indexed":true,"internalType":"address"}],"anonymous":false},{"type":"event","name":"SetIsAllocator","inputs":[{"name":"allocator","type":"address","indexed":true,"internalType":"address"},{"name":"isAllocator","type":"bool","indexed":false,"internalType":"bool"}],"anonymous":false},{"type":"event","name":"SetSkimRecipient","inputs":[{"name":"newSkimRecipient","type":"address","indexed":true,"internalType":"address"}],"anonymous":false},{"type":"event","name":"SetSupplyQueue","inputs":[{"name":"caller","type":"address","indexed":true,"internalType":"address"},{"name":"newSupplyQueue","type":"bytes32[]","indexed":false,"internalType":"Id[]"}],"anonymous":false},{"type":"event","name":"SetTimelock","inputs":[{"name":"caller","type":"address","indexed":true,"internalType":"address"},{"name":"newTimelock","type":"uint256","indexed":false,"internalType":"uint256"}],"anonymous":false},{"type":"event","name":"SetWithdrawQueue","inputs":[{"name":"caller","type":"address","indexed":true,"internalType":"address"},{"name":"newWithdrawQueue","type":"bytes32[]","indexed":false,"internalType":"Id[]"}],"anonymous":false},{"type":"event","name":"Skim","inputs":[{"name":"caller","type":"address","indexed":true,"internalType":"address"},{"name":"token","type":"address","indexed":true,"internalType":"address"},{"name":"amount","type":"uint256","indexed":false,"internalType":"uint256"}],"anonymous":false},{"type":"event","name":"SubmitCap","inputs":[{"name":"caller","type":"address","indexed":true,"internalType":"address"},{"name":"id","type":"bytes32","indexed":true,"internalType":"Id"},{"name":"cap","type":"uint256","indexed":false,"internalType":"uint256"}],"anonymous":false},{"type":"event","name":"SubmitGuardian","inputs":[{"name":"newGuardian","type":"address","indexed":true,"internalType":"address"}],"anonymous":false},{"type":"event","name":"SubmitMarketRemoval","inputs":[{"name":"caller","type":"address","indexed":true,"internalType":"address"},{"name":"id","type":"bytes32","indexed":true,"internalType":"Id"}],"anonymous":false},{"type":"event","name":"SubmitTimelock","inputs":[{"name":"newTimelock","type":"uint256","indexed":false,"internalType":"uint256"}],"anonymous":false},{"type":"event","name":"Transfer","inputs":[{"name":"from","type":"address","indexed":true,"internalType":"address"},{"name":"to","type":"address","indexed":true,"internalType":"address"},{"name":"value","type":"uint256","indexed":false,"internalType":"uint256"}],"anonymous":false},{"type":"event","name":"UpdateLastTotalAssets","inputs":[{"name":"updatedTotalAssets","type":"uint256","indexed":false,"internalType":"uint256"}],"anonymous":false},{"type":"event","name":"Withdraw","inputs":[{"name":"sender","type":"address","indexed":true,"internalType":"address"},{"name":"receiver","type":"address","indexed":true,"internalType":"address"},{"name":"owner","type":"address","indexed":true,"internalType":"address"},{"name":"assets","type":"uint256","indexed":false,"internalType":"uint256"},{"name":"shares","type":"uint256","indexed":false,"internalType":"uint256"}],"anonymous":false},{"type":"error","name":"AboveMaxTimelock","inputs":[]},{"type":"error","name":"AddressEmptyCode","inputs":[{"name":"target","type":"address","internalType":"address"}]},{"type":"error","name":"AddressInsufficientBalance","inputs":[{"name":"account","type":"address","internalType":"address"}]},{"type":"error","name":"AllCapsReached","inputs":[]},{"type":"error","name":"AlreadyPending","inputs":[]},{"type":"error","name":"AlreadySet","inputs":[]},{"type":"error","name":"BelowMinTimelock","inputs":[]},{"type":"error","name":"DuplicateMarket","inputs":[{"name":"id","type":"bytes32","internalType":"Id"}]},{"type":"error","name":"ECDSAInvalidSignature","inputs":[]},{"type":"error","name":"ECDSAInvalidSignatureLength","inputs":[{"name":"length","type":"uint256","internalType":"uint256"}]},{"type":"error","name":"ECDSAInvalidSignatureS","inputs":[{"name":"s","type":"bytes32","internalType":"bytes32"}]},{"type":"error","name":"ERC20InsufficientAllowance","inputs":[{"name":"spender","type":"address","internalType":"address"},{"name":"allowance","type":"uint256","internalType":"uint256"},{"name":"needed","type":"uint256","internalType":"uint256"}]},{"type":"error","name":"ERC20InsufficientBalance","inputs":[{"name":"sender","type":"address","internalType":"address"},{"name":"balance","type":"uint256","internalType":"uint256"},{"name":"needed","type":"uint256","internalType":"uint256"}]},{"type":"error","name":"ERC20InvalidApprover","inputs":[{"name":"approver","type":"address","internalType":"address"}]},{"type":"error","name":"ERC20InvalidReceiver","inputs":[{"name":"receiver","type":"address","internalType":"address"}]},{"type":"error","name":"ERC20InvalidSender","inputs":[{"name":"sender","type":"address","internalType":"address"}]},{"type":"error","name":"ERC20InvalidSpender","inputs":[{"name":"spender","type":"address","internalType":"address"}]},{"type":"error","name":"ERC2612ExpiredSignature","inputs":[{"name":"deadline","type":"uint256","internalType":"uint256"}]},{"type":"error","name":"ERC2612InvalidSigner","inputs":[{"name":"signer","type":"address","internalType":"address"},{"name":"owner","type":"address","internalType":"address"}]},{"type":"error","name":"ERC4626ExceededMaxDeposit","inputs":[{"name":"receiver","type":"address","internalType":"address"},{"name":"assets","type":"uint256","internalType":"uint256"},{"name":"max","type":"uint256","internalType":"uint256"}]},{"type":"error","name":"ERC4626ExceededMaxMint","inputs":[{"name":"receiver","type":"address","internalType":"address"},{"name":"shares","type":"uint256","internalType":"uint256"},{"name":"max","type":"uint256","internalType":"uint256"}]},{"type":"error","name":"ERC4626ExceededMaxRedeem","inputs":[{"name":"owner","type":"address","internalType":"address"},{"name":"shares","type":"uint256","internalType":"uint256"},{"name":"max","type":"uint256","internalType":"uint256"}]},{"type":"error","name":"ERC4626ExceededMaxWithdraw","inputs":[{"name":"owner","type":"address","internalType":"address"},{"name":"assets","type":"uint256","internalType":"uint256"},{"name":"max","type":"uint256","internalType":"uint256"}]},{"type":"error","name":"FailedInnerCall","inputs":[]},{"type":"error","name":"InconsistentAsset","inputs":[{"name":"id","type":"bytes32","internalType":"Id"}]},{"type":"error","name":"InconsistentReallocation","inputs":[]},{"type":"error","name":"InvalidAccountNonce","inputs":[{"name":"account","type":"address","internalType":"address"},{"name":"currentNonce","type":"uint256","internalType":"uint256"}]},{"type":"error","name":"InvalidMarketRemovalNonZeroCap","inputs":[{"name":"id","type":"bytes32","internalType":"Id"}]},{"type":"error","name":"InvalidMarketRemovalNonZeroSupply","inputs":[{"name":"id","type":"bytes32","internalType":"Id"}]},{"type":"error","name":"InvalidMarketRemovalTimelockNotElapsed","inputs":[{"name":"id","type":"bytes32","internalType":"Id"}]},{"type":"error","name":"InvalidShortString","inputs":[]},{"type":"error","name":"MarketNotCreated","inputs":[]},{"type":"error","name":"MarketNotEnabled","inputs":[{"name":"id","type":"bytes32","internalType":"Id"}]},{"type":"error","name":"MathOverflowedMulDiv","inputs":[]},{"type":"error","name":"MaxFeeExceeded","inputs":[]},{"type":"error","name":"MaxQueueLengthExceeded","inputs":[]},{"type":"error","name":"NoPendingValue","inputs":[]},{"type":"error","name":"NonZeroCap","inputs":[]},{"type":"error","name":"NotAllocatorRole","inputs":[]},{"type":"error","name":"NotCuratorNorGuardianRole","inputs":[]},{"type":"error","name":"NotCuratorRole","inputs":[]},{"type":"error","name":"NotEnoughLiquidity","inputs":[]},{"type":"error","name":"NotGuardianRole","inputs":[]},{"type":"error","name":"OwnableInvalidOwner","inputs":[{"name":"owner","type":"address","internalType":"address"}]},{"type":"error","name":"OwnableUnauthorizedAccount","inputs":[{"name":"account","type":"address","internalType":"address"}]},{"type":"error","name":"PendingCap","inputs":[{"name":"id","type":"bytes32","internalType":"Id"}]},{"type":"error","name":"PendingRemoval","inputs":[]},{"type":"error","name":"SafeCastOverflowedUintDowncast","inputs":[{"name":"bits","type":"uint8","internalType":"uint8"},{"name":"value","type":"uint256","internalType":"uint256"}]},{"type":"error","name":"SafeERC20FailedOperation","inputs":[{"name":"token","type":"address","internalType":"address"}]},{"type":"error","name":"StringTooLong","inputs":[{"name":"str","type":"string","internalType":"string"}]},{"type":"error","name":"SupplyCapExceeded","inputs":[{"name":"id","type":"bytes32","internalType":"Id"}]},{"type":"error","name":"TimelockNotElapsed","inputs":[]},{"type":"error","name":"UnauthorizedMarket","inputs":[{"name":"id","type":"bytes32","internalType":"Id"}]},{"type":"error","name":"ZeroAddress","inputs":[]},{"type":"error","name":"ZeroFeeRecipient","inputs":[]}],"bytecode":{"object":"0x6101e060405234801562000011575f80fd5b506040516200656a3803806200656a8339810160408190526200003491620008f1565b858280604051806040016040528060018152602001603160f81b815250868686816003908162000065919062000a21565b50600462000074828262000a21565b5050505f806200008a836200029e60201b60201c565b91509150816200009c5760126200009e565b805b60ff1660a05250506001600160a01b0316608052620000bf8260056200037d565b61016052620000d08160066200037d565b61018052815160208084019190912061012052815190820120610140524660e0526200015f6101205161014051604080517f8b73c3c69bb8fe3d512ecc4cf759cc79239f7b179b0ffacaa9a75d522b39400f60208201529081019290925260608201524660808201523060a08201525f9060c00160405160208183030381529060405280519060200120905090565b60c05250503061010052506001600160a01b0381166200019957604051631e4fbdf760e01b81525f60048201526024015b60405180910390fd5b620001a481620003b5565b506001600160a01b038516620001cd5760405163d92e233d60e01b815260040160405180910390fd5b846001600160a01b03166101a0816001600160a01b0316815250506200025e836001600160a01b031663313ce5676040518163ffffffff1660e01b8152600401602060405180830381865afa15801562000229573d5f803e3d5ffd5b505050506040513d601f19601f820116820180604052508101906200024f919062000ae9565b60129060ff1680821191030290565b60ff166101c0526200027084620003d3565b6200027b846200041d565b620002926001600160a01b038416865f196200045e565b50505050505062000bb9565b60408051600481526024810182526020810180516001600160e01b031663313ce56760e01b17905290515f918291829182916001600160a01b03871691620002e69162000b0b565b5f60405180830381855afa9150503d805f811462000320576040519150601f19603f3d011682016040523d82523d5f602084013e62000325565b606091505b50915091508180156200033a57506020815110155b1562000371575f8180602001905181019062000357919062000b28565b905060ff81116200036f576001969095509350505050565b505b505f9485945092505050565b5f6020835110156200039c57620003948362000529565b9050620003af565b81620003a9848262000a21565b5060ff90505b92915050565b600980546001600160a01b0319169055620003d0816200056b565b50565b62127500811115620003f8576040516346fedb5760e01b815260040160405180910390fd5b62015180811015620003d057604051631a1593df60e11b815260040160405180910390fd5b600e81905560405181815233907fd28e9b90ee9b37c5936ff84392d71f29ff18117d7e76bcee60615262a90a3f759060200160405180910390a2505f601155565b604080516001600160a01b038416602482015260448082018490528251808303909101815260649091019091526020810180516001600160e01b0390811663095ea7b360e01b17909152620004b89085908390620005bc16565b6200052357604080516001600160a01b03851660248201525f6044808301919091528251808303909101815260649091019091526020810180516001600160e01b0390811663095ea7b360e01b17909152620005179186916200066616565b62000523848262000666565b50505050565b5f80829050601f8151111562000556578260405163305a27a960e01b815260040162000190919062000b40565b8051620005638262000b74565b179392505050565b600880546001600160a01b038381166001600160a01b0319831681179093556040519116919082907f8be0079c531659141344cd1fd0a4f28419497f9722a3daafe3b4186f6b6457e0905f90a35050565b5f805f846001600160a01b031684604051620005d9919062000b0b565b5f604051808303815f865af19150503d805f811462000614576040519150601f19603f3d011682016040523d82523d5f602084013e62000619565b606091505b5091509150818015620006475750805115806200064757508080602001905181019062000647919062000b98565b80156200065d57505f856001600160a01b03163b115b95945050505050565b5f6200067c6001600160a01b03841683620006d3565b905080515f14158015620006a3575080806020019051810190620006a1919062000b98565b155b15620006ce57604051635274afe760e01b81526001600160a01b038416600482015260240162000190565b505050565b6060620006e283835f620006e9565b9392505050565b606081471015620007105760405163cd78605960e01b815230600482015260240162000190565b5f80856001600160a01b031684866040516200072d919062000b0b565b5f6040518083038185875af1925050503d805f811462000769576040519150601f19603f3d011682016040523d82523d5f602084013e6200076e565b606091505b509092509050620007818683836200078b565b9695505050505050565b606082620007a4576200079e82620007ef565b620006e2565b8151158015620007bc57506001600160a01b0384163b155b15620007e757604051639996b31560e01b81526001600160a01b038516600482015260240162000190565b5080620006e2565b805115620008005780518082602001fd5b604051630a12f52160e11b815260040160405180910390fd5b80516001600160a01b038116811462000830575f80fd5b919050565b634e487b7160e01b5f52604160045260245ffd5b5f5b83811015620008655781810151838201526020016200084b565b50505f910152565b5f82601f8301126200087d575f80fd5b81516001600160401b03808211156200089a576200089a62000835565b604051601f8301601f19908116603f01168101908282118183101715620008c557620008c562000835565b81604052838152866020858801011115620008de575f80fd5b6200078184602083016020890162000849565b5f805f805f8060c0878903121562000907575f80fd5b620009128762000819565b9550620009226020880162000819565b945060408701519350620009396060880162000819565b60808801519093506001600160401b038082111562000956575f80fd5b620009648a838b016200086d565b935060a08901519150808211156200097a575f80fd5b506200098989828a016200086d565b9150509295509295509295565b600181811c90821680620009ab57607f821691505b602082108103620009ca57634e487b7160e01b5f52602260045260245ffd5b50919050565b601f821115620006ce575f81815260208120601f850160051c81016020861015620009f85750805b601f850160051c820191505b8181101562000a195782815560010162000a04565b505050505050565b81516001600160401b0381111562000a3d5762000a3d62000835565b62000a558162000a4e845462000996565b84620009d0565b602080601f83116001811462000a8b575f841562000a735750858301515b5f19600386901b1c1916600185901b17855562000a19565b5f85815260208120601f198616915b8281101562000abb5788860151825594840194600190910190840162000a9a565b508582101562000ad957878501515f19600388901b60f8161c191681555b5050505050600190811b01905550565b5f6020828403121562000afa575f80fd5b815160ff81168114620006e2575f80fd5b5f825162000b1e81846020870162000849565b9190910192915050565b5f6020828403121562000b39575f80fd5b5051919050565b602081525f825180602084015262000b6081604085016020870162000849565b601f01601f19169190910160400192915050565b80516020808301519190811015620009ca575f1960209190910360031b1b16919050565b5f6020828403121562000ba9575f80fd5b81518015158114620006e2575f80fd5b60805160a05160c05160e05161010051610120516101405161016051610180516101a0516101c05161588162000ce95f395f818161088f01528181612a9601528181613117015261342d01525f818161057d01528181610b04015281816110260152818161144101528181611a2f01528181611bd20152818161286801528181612d8901528181612f2101528181612f620152818161326c015281816132e20152818161336401528181613e7901528181613ef201528181613f7401528181613ffc015281816142c0015281816144f8015281816145310152614a0001525f6133f301525f6133c601525f612bb401525f612b8c01525f612ae701525f612b1101525f612b3b01525f612ab701525f818161055401528181610fc301528181613d8101526143c401526158815ff3fe608060405234801561000f575f80fd5b5060043610610422575f3560e01c80637cc4d9a11161022c578063ba08765211610135578063d905777e116100bf578063e74b981b11610084578063e74b981b14610a7a578063e90956cf14610a8d578063ef8b30f714610923578063f2fde38b14610aa0578063f7d1852114610ab3575f80fd5b8063d905777e146109e0578063dd62ed3e146109f3578063ddca3f4314610a2b578063e30c397814610a56578063e66f53b714610a67575f80fd5b8063c9649aa911610105578063c9649aa914610936578063cc718f761461093e578063ce96cb77146109b1578063d33219b4146109c4578063d505accf146109cd575f80fd5b8063ba087652146108ea578063bc25cf77146108fd578063c63d75b614610910578063c6e6f59214610923575f80fd5b8063a17b3130116101b6578063ac9650d811610186578063ac9650d81461086a578063aea70acc1461088a578063b192a84a146108b1578063b3d7f6b9146108c4578063b460af94146108d7575f80fd5b8063a17b31301461080d578063a31be5d614610815578063a5f31d611461084f578063a9059cbb14610857575f80fd5b80638a2c7b39116101fc5780638a2c7b39146107c65780638da5cb5b146107ce57806394bf804d146107df57806395d89b41146107f25780639d6b4a45146107fa575f80fd5b80637cc4d9a1146107395780637ecebe001461078557806384755b5f1461079857806384b0196e146107ab575f80fd5b8063402d267d1161032e57806369fe0e2d116102b8578063715018a611610288578063715018a6146106b75780637224a512146106bf5780637299aa31146106d2578063762c31ba146106e557806379ba509714610731575f80fd5b806369fe0e2d146106565780636e553f65146106695780636fda38681461067c57806370a082311461068f575f80fd5b80634b998de5116102fe5780634b998de5146106055780634cdad506146104565780634dedf20e14610618578063568efc071461063a57806362518ddf14610643575f80fd5b8063402d267d146105b257806341b67833146105c5578063452a9320146105d857806346904840146105eb575f80fd5b80632acc56f9116103af5780633644e5151161037f5780633644e5151461051f578063388af5b51461052757806338d52e0f146105525780633acb5624146105785780633b24c2bf1461059f575f80fd5b80632acc56f9146104d75780632b30997b146104ea578063313ce567146104fd57806333f91ebb14610517575f80fd5b80630a28a477116103f55780630a28a4771461048c578063102f7b6c1461049f57806318160ddd146104b45780631ecca77c146104bc57806323b872dd146104c4575f80fd5b806301e1d1141461042657806306fdde031461044157806307a2d13a14610456578063095ea7b314610469575b5f80fd5b61042e610ac6565b6040519081526020015b60405180910390f35b610449610b4b565b6040516104389190614c66565b61042e610464366004614c78565b610bdb565b61047c610477366004614ca3565b610bec565b6040519015158152602001610438565b61042e61049a366004614c78565b610c03565b6104b26104ad366004614c78565b610c0f565b005b60025461042e565b6104b2610cb9565b61047c6104d2366004614ccd565b610d42565b6104b26104e5366004614d52565b610d67565b6104b26104f8366004614d90565b610edd565b610505610f5d565b60405160ff9091168152602001610438565b60155461042e565b61042e610f6b565b60135461053a906001600160a01b031681565b6040516001600160a01b039091168152602001610438565b7f000000000000000000000000000000000000000000000000000000000000000061053a565b61053a7f000000000000000000000000000000000000000000000000000000000000000081565b6104b26105ad366004614e89565b610f74565b61042e6105c0366004614d90565b61119c565b6104b26105d3366004614d52565b6111a5565b600c5461053a906001600160a01b031681565b60125461053a90600160601b90046001600160a01b031681565b6104b2610613366004614c78565b61156c565b61047c610626366004614d90565b600b6020525f908152604090205460ff1681565b61042e60165481565b61042e610651366004614c78565b611620565b6104b2610664366004614c78565b61163f565b61042e610677366004614eb2565b611744565b6104b261068a366004614ee0565b61177e565b61042e61069d366004614d90565b6001600160a01b03165f9081526020819052604090205490565b6104b261181d565b6104b26106cd366004614c78565b611830565b6104b26106e0366004614efa565b6118f2565b600f5461070a906001600160a01b03811690600160a01b90046001600160401b031682565b604080516001600160a01b0390931683526001600160401b03909116602083015201610438565b6104b2611ce7565b60115461075e906001600160c01b03811690600160c01b90046001600160401b031682565b604080516001600160c01b0390931683526001600160401b03909116602083015201610438565b61042e610793366004614d90565b611d28565b6104b26107a6366004614ee0565b611d45565b6107b3611efa565b6040516104389796959493929190614f68565b6104b2611f3c565b6008546001600160a01b031661053a565b61042e6107ed366004614eb2565b611fa6565b610449611fda565b6104b2610808366004614d90565b611fe9565b60145461042e565b61075e610823366004614c78565b60106020525f90815260409020546001600160c01b03811690600160c01b90046001600160401b031682565b6104b26120b1565b61047c610865366004614ca3565b61211b565b61087d610878366004614d52565b612128565b6040516104389190614ffc565b6105057f000000000000000000000000000000000000000000000000000000000000000081565b6104b26108bf366004615069565b612213565b61042e6108d2366004614c78565b6122b9565b61042e6108e5366004615095565b6122c5565b61042e6108f8366004615095565b61230c565b6104b261090b366004614d90565b61234a565b61042e61091e366004614d90565b61243c565b61042e610931366004614c78565b612452565b6104b261245d565b61098361094c366004614c78565b600d6020525f90815260409020546001600160b81b03811690600160b81b810460ff1690600160c01b90046001600160401b031683565b604080516001600160b81b03909416845291151560208401526001600160401b031690820152606001610438565b61042e6109bf366004614d90565b6124da565b61042e600e5481565b6104b26109db3660046150d4565b6124ed565b61042e6109ee366004614d90565b612623565b61042e610a01366004615145565b6001600160a01b039182165f90815260016020908152604080832093909416825291909152205490565b601254610a3e906001600160601b031681565b6040516001600160601b039091168152602001610438565b6009546001600160a01b031661053a565b600a5461053a906001600160a01b031681565b6104b2610a88366004614d90565b61264b565b6104b2610a9b366004614d90565b612724565b6104b2610aae366004614d90565b6127a4565b61042e610ac1366004614c78565b612815565b5f805b601554811015610b4757610b2b610afa60158381548110610aec57610aec615171565b905f5260205f200154612824565b6001600160a01b037f00000000000000000000000000000000000000000000000000000000000000001690306128d1565b610b359083615199565b9150610b40816151ac565b9050610ac9565b5090565b606060038054610b5a906151c4565b80601f0160208091040260200160405190810160405280929190818152602001828054610b86906151c4565b8015610bd15780601f10610ba857610100808354040283529160200191610bd1565b820191905f5260205f20905b815481529060010190602001808311610bb457829003601f168201915b5050505050905090565b5f610be6825f612922565b92915050565b5f33610bf9818585612950565b5060019392505050565b5f610be682600161295d565b600c546001600160a01b0316336001600160a01b031614158015610c475750600a546001600160a01b0316336001600160a01b031614155b8015610c5e57506008546001600160a01b03163314155b15610c7c5760405163d080fa3160e01b815260040160405180910390fd5b5f8181526010602052604080822082905551829133917f1026ceca5ed3747eb5edec555732d4a6f901ce1a875ecf981064628cadde11209190a350565b6008546001600160a01b03163314801590610ce85750600c546001600160a01b0316336001600160a01b031614155b15610d0657604051637cf97e4d60e11b815260040160405180910390fd5b600f80546001600160e01b031916905560405133907fc40a085ccfa20f5fd518ade5c3a77a7ecbdfbb4c75efcdca6146a8e3c841d663905f90a2565b5f33610d4f85828561298b565b610d5a858585612a06565b60019150505b9392505050565b335f818152600b602052604090205460ff16158015610d945750600a546001600160a01b03828116911614155b8015610dae57506008546001600160a01b03828116911614155b15610dcc5760405163f7137c0f60e01b815260040160405180910390fd5b81601e811115610def576040516340797bd760e11b815260040160405180910390fd5b5f5b81811015610e8657600d5f868684818110610e0e57610e0e615171565b602090810292909201358352508101919091526040015f908120546001600160b81b03169003610e7657848482818110610e4a57610e4a615171565b9050602002013560405163067f0a2560e41b8152600401610e6d91815260200190565b60405180910390fd5b610e7f816151ac565b9050610df1565b50610e9360148585614b87565b50336001600160a01b03167f6ce31538fc7fba95714ddc8a275a09252b4b1fb8f33d2550aa58a5f62ad934de8585604051610ecf9291906151fc565b60405180910390a250505050565b610ee5612a63565b6013546001600160a01b0390811690821603610f145760405163a741a04560e01b815260040160405180910390fd5b601380546001600160a01b0319166001600160a01b0383169081179091556040517f2e7908865670e21b9779422cadf5f1cba271a62bb95c71eaaf615c0a1c48ebee905f90a250565b5f610f66612a90565b905090565b5f610f66612adb565b600a5433906001600160a01b03168114801590610f9f57506008546001600160a01b03828116911614155b15610fbd576040516332a2673b60e21b815260040160405180910390fd5b60a083207f00000000000000000000000000000000000000000000000000000000000000006001600160a01b0316845f01516001600160a01b031614611019576040516333cbfd2760e21b815260048101829052602401610e6d565b61104c6001600160a01b037f00000000000000000000000000000000000000000000000000000000000000001682612c04565b5f0361106b576040516396e1352960e01b815260040160405180910390fd5b5f81815260106020526040902054600160c01b90046001600160401b0316156110a7576040516324d9026760e11b815260040160405180910390fd5b5f818152600d6020526040902054600160c01b90046001600160401b0316156110e3576040516325f600a360e11b815260040160405180910390fd5b5f818152600d60205260409020546001600160b81b031680840361111a5760405163a741a04560e01b815260040160405180910390fd5b8084101561113a57611135858361113087612cb4565b612ce7565b611195565b61115d61114685612cb4565b600e545f8581526010602052604090209190612e73565b604051848152829033907fe851bb5856808a50efd748be463b8f35bcfb5ec74c5bfde776fe0a4d2a26db279060200160405180910390a35b5050505050565b5f610be6612ebd565b335f818152600b602052604090205460ff161580156111d25750600a546001600160a01b03828116911614155b80156111ec57506008546001600160a01b03828116911614155b1561120a5760405163f7137c0f60e01b815260040160405180910390fd5b60155482905f816001600160401b0381111561122857611228614dab565b604051908082528060200260200182016040528015611251578160200160208202803683370190505b5090505f836001600160401b0381111561126d5761126d614dab565b604051908082528060200260200182016040528015611296578160200160208202803683370190505b5090505f5b84811015611371575f8888838181106112b6576112b6615171565b9050602002013590505f601582815481106112d3576112d3615171565b905f5260205f20015490508482815181106112f0576112f0615171565b602002602001015115611319576040516392a726c360e01b815260048101829052602401610e6d565b600185838151811061132d5761132d615171565b6020026020010190151590811515815250508084848151811061135257611352615171565b60200260200101818152505050508061136a906151ac565b905061129b565b505f5b8381101561150d5782818151811061138e5761138e615171565b60200260200101516114fd575f601582815481106113ae576113ae615171565b5f918252602080832090910154808352600d9091526040909120549091506001600160b81b0316156113f65760405163401d83d960e11b815260048101829052602401610e6d565b5f81815260106020526040902054600160c01b90046001600160401b0316156114345760405162463af360e81b815260048101829052602401610e6d565b6114686001600160a01b037f0000000000000000000000000000000000000000000000000000000000000000168230612fc7565b156114ee575f818152600d6020526040812054600160c01b90046001600160401b031690036114ad5760405163af8ae28760e01b815260048101829052602401610e6d565b5f818152600d6020526040902054600160c01b90046001600160401b03164210156114ee57604051632cd5119960e21b815260048101829052602401610e6d565b5f908152600d60205260408120555b611506816151ac565b9050611374565b508051611521906015906020840190614bcc565b50336001600160a01b03167fe0c2db6b54586be6d7d49943139fccf0dd315ba63e55364a76c73cd8fdba724d8260405161155b9190615237565b60405180910390a250505050505050565b600c546001600160a01b0316336001600160a01b0316141580156115a45750600a546001600160a01b0316336001600160a01b031614155b80156115bb57506008546001600160a01b03163314155b156115d95760405163d080fa3160e01b815260040160405180910390fd5b5f818152600d602052604080822080546001600160c01b0316905551829133917fcbeb8ecdaa5a3c133e62219b63bfc35bce3fda13065d2bed32e3b7dde60a59f49190a350565b6015818154811061162f575f80fd5b5f91825260209091200154905081565b611647612a63565b6012546001600160601b031681036116725760405163a741a04560e01b815260040160405180910390fd5b6706f05b59d3b2000081111561169b5760405163f4df6ae560e01b815260040160405180910390fd5b80158015906116ba5750601254600160601b90046001600160a01b0316155b156116d8576040516333fe7c6560e21b815260040160405180910390fd5b6116e86116e361306b565b6130d9565b601280546001600160601b0383166bffffffffffffffffffffffff199091168117909155604080519182525133917f01fe2943baee27f47add82886c2200f910c749c461c9b63c5fe83901a53bdb49919081900360200190a250565b5f8061174e61306b565b601681905590506117698461176260025490565b835f61310e565b91506117773384868561315b565b5092915050565b60105f61178c8360a0902090565b815260208101919091526040015f90812054600160c01b90046001600160401b0316908190036117cf5760405163e5f408a560e01b815260040160405180910390fd5b804210156117f05760405163333bd2cb60e11b815260040160405180910390fd5b60a082205f8181526010602052604090205461181890849083906001600160c01b0316612ce7565b505050565b611825612a63565b61182e5f613181565b565b611838612a63565b600e54810361185a5760405163a741a04560e01b815260040160405180910390fd5b601154600160c01b90046001600160401b03161561188b576040516324d9026760e11b815260040160405180910390fd5b6118948161319a565b600e548111156118aa576118a7816131e2565b50565b600e546118bb906011908390612e73565b6040518181527fb3aa0ade2442acf51d06713c2d1a5a3ec0373cce969d42b53f4689f97bccf380906020015b60405180910390a150565b335f818152600b602052604090205460ff1615801561191f5750600a546001600160a01b03828116911614155b801561193957506008546001600160a01b03828116911614155b156119575760405163f7137c0f60e01b815260040160405180910390fd5b5f805f5b84811015611cc6575f86868381811061197657611976615171565b905060c0020180360381019061198c919061526e565b805160a081209192505f9081906119a39084613223565b50915091505f6119c08560200151846133b690919063ffffffff16565b90508015611b15575f848152600d6020526040902054600160b81b900460ff16611a0057604051636113d8c760e01b815260048101859052602401610e6d565b5f85602001515f03611a1257505f9050815b8551604051635c2bea4960e01b81525f9182916001600160a01b037f00000000000000000000000000000000000000000000000000000000000000001691635c2bea4991611a6b91908890889030908190600401615300565b60408051808303815f875af1158015611a86573d5f803e3d5ffd5b505050506040513d601f19601f82011682018060405250810190611aaa919061533c565b9150915086611ab63390565b6001600160a01b03167fdd8bf5226dff861316e0fa7863fdb7dc7b87c614eb29a135f524eb79d5a1189a8484604051611af9929190918252602082015260400190565b60405180910390a3611b0b828b615199565b9950505050611cb0565b5f5f19866020015114611b3357602086015184810390851002611b3b565b888803898911025b9050805f03611b4f57505050505050611cb6565b5f858152600d60205260408120546001600160b81b031690819003611b8a5760405163067f0a2560e41b815260048101879052602401610e6d565b80611b958387615199565b1115611bb757604051635e25afa560e01b815260048101879052602401610e6d565b865160405163a99aad8960e01b81525f916001600160a01b037f0000000000000000000000000000000000000000000000000000000000000000169163a99aad8991611c0b9187908690309060040161535e565b60408051808303815f875af1158015611c26573d5f803e3d5ffd5b505050506040513d601f19601f82011682018060405250810190611c4a919061533c565b91505086611c553390565b6001600160a01b03167f89bf199df65bf65155e3e0a8abc4ad4a1be606220c8295840dba2ab5656c1f6d8584604051611c98929190918252602082015260400190565b60405180910390a3611caa838c615199565b9a505050505b50505050505b611cbf816151ac565b905061195b565b50818114611195576040516309e36b8960e41b815260040160405180910390fd5b60095433906001600160a01b03168114611d1f5760405163118cdaa760e01b81526001600160a01b0382166004820152602401610e6d565b6118a781613181565b6001600160a01b0381165f90815260076020526040812054610be6565b600a5433906001600160a01b03168114801590611d7057506008546001600160a01b03828116911614155b15611d8e576040516332a2673b60e21b815260040160405180910390fd5b60a082205f818152600d6020526040902054600160c01b90046001600160401b031615611dce576040516324d9026760e11b815260040160405180910390fd5b5f818152600d60205260409020546001600160b81b031615611e035760405163624718b960e11b815260040160405180910390fd5b5f818152600d6020526040902054600160b81b900460ff16611e3b57604051636113d8c760e01b815260048101829052602401610e6d565b5f81815260106020526040902054600160c01b90046001600160401b031615611e795760405162463af360e81b815260048101829052602401610e6d565b600e54611e869042615199565b5f828152600d6020526040902080546001600160401b0392909216600160c01b026001600160c01b0390921691909117905580611ec03390565b6001600160a01b03167f3240fc70754c5a2b4dab10bf7081a00024bfc8491581ee3d355360ec0dd91f1660405160405180910390a3505050565b5f6060805f805f6060611f0b6133bf565b611f136133ec565b604080515f80825260208201909252600f60f81b9b939a50919850469750309650945092509050565b601154600160c01b90046001600160401b03165f819003611f705760405163e5f408a560e01b815260040160405180910390fd5b80421015611f915760405163333bd2cb60e11b815260040160405180910390fd5b6011546118a7906001600160c01b03166131e2565b5f80611fb061306b565b60168190559050611fcc84611fc460025490565b836001613419565b91506117773384848761315b565b606060048054610b5a906151c4565b611ff1612a63565b600c546001600160a01b03908116908216036120205760405163a741a04560e01b815260040160405180910390fd5b600f54600160a01b90046001600160401b031615612051576040516324d9026760e11b815260040160405180910390fd5b600c546001600160a01b031661206a576118a78161345d565b600e5461207b90600f9083906134b8565b6040516001600160a01b038216907f7633313af54753bce8a149927263b1a55eba857ba4ef1d13c6aee25d384d3c4b905f90a250565b600f54600160a01b90046001600160401b03165f8190036120e55760405163e5f408a560e01b815260040160405180910390fd5b804210156121065760405163333bd2cb60e11b815260040160405180910390fd5b600f546118a7906001600160a01b031661345d565b5f33610bf9818585612a06565b6060816001600160401b0381111561214257612142614dab565b60405190808252806020026020018201604052801561217557816020015b60608152602001906001900390816121605790505b5090505f5b82811015611777576121e33085858481811061219857612198615171565b90506020028101906121aa91906153a4565b8080601f0160208091040260200160405190810160405280939291908181526020018383808284375f9201919091525061350792505050565b8282815181106121f5576121f5615171565b6020026020010181905250808061220b906151ac565b91505061217a565b61221b612a63565b6001600160a01b0382165f908152600b602052604090205481151560ff90911615150361225b5760405163a741a04560e01b815260040160405180910390fd5b6001600160a01b0382165f818152600b6020908152604091829020805460ff191685151590811790915591519182527f74dc60cbc81a9472d04ad1d20e151d369c41104d655ed3f2f3091166a502cd8d910160405180910390a25050565b5f610be6826001612922565b5f806122cf61306b565b90506122e6856122de60025490565b83600161310e565b91506122f7858203868311026130d9565b6123043385858886613570565b509392505050565b5f8061231661306b565b905061232c8561232560025490565b835f613419565b915061233d828203838311026130d9565b6123043385858589613570565b6013546001600160a01b03166123735760405163d92e233d60e01b815260040160405180910390fd5b6040516370a0823160e01b81523060048201525f906001600160a01b038316906370a0823190602401602060405180830381865afa1580156123b7573d5f803e3d5ffd5b505050506040513d601f19601f820116820180604052508101906123db91906153e6565b6013549091506123f8906001600160a01b03848116911683613586565b6040518181526001600160a01b0383169033907f2ae72b44f59d038340fca5739135a1d51fc5ab720bb02d983e4c5ff4119ca7b89060200160405180910390a35050565b5f80612446612ebd565b9050610d60815f61295d565b5f610be6825f61295d565b6008546001600160a01b0316331480159061248c5750600c546001600160a01b0316336001600160a01b031614155b156124aa57604051637cf97e4d60e11b815260040160405180910390fd5b5f601181905560405133917f921828337692c347c634c5d2aacbc7b756014674bd236f3cc2058d8e284a951b91a2565b5f6124e4826135e5565b50909392505050565b834211156125115760405163313c898160e11b815260048101859052602401610e6d565b5f7f6e71edae12b1b97f4d1f60370fef10105fa2faae0126114a169c64845d6126c988888861255c8c6001600160a01b03165f90815260076020526040902080546001810190915590565b6040805160208101969096526001600160a01b0394851690860152929091166060840152608083015260a082015260c0810186905260e0016040516020818303038152906040528051906020012090505f6125b682613653565b90505f6125c58287878761367f565b9050896001600160a01b0316816001600160a01b03161461260c576040516325c0072360e11b81526001600160a01b0380831660048301528b166024820152604401610e6d565b6126178a8a8a612950565b50505050505050505050565b5f805f80612630856135e5565b9250925092506126428383835f61310e565b95945050505050565b612653612a63565b6012546001600160a01b03600160601b9091048116908216036126895760405163a741a04560e01b815260040160405180910390fd5b6001600160a01b0381161580156126aa57506012546001600160601b031615155b156126c8576040516333fe7c6560e21b815260040160405180910390fd5b6126d36116e361306b565b601280546001600160601b0316600160601b6001600160a01b038416908102919091179091556040517f2e979f80fe4d43055c584cf4a8467c55875ea36728fc37176c05acd784eb7a73905f90a250565b61272c612a63565b600a546001600160a01b039081169082160361275b5760405163a741a04560e01b815260040160405180910390fd5b600a80546001600160a01b0319166001600160a01b0383169081179091556040517fbd0a63c12948fbc9194a5839019f99c9d71db924e5c70018265bc778b8f1a506905f90a250565b6127ac612a63565b600980546001600160a01b0383166001600160a01b031990911681179091556127dd6008546001600160a01b031690565b6001600160a01b03167f38d16b8cac22d99fc7c124b9cd0de2d3fa1faef420bfe791d8c362d765e2270060405160405180910390a350565b6014818154811061162f575f80fd5b6040805160a0810182525f808252602082018190528183018190526060820181905260808201529051632c3c915760e01b8152600481018390526001600160a01b037f00000000000000000000000000000000000000000000000000000000000000001690632c3c91579060240160a060405180830381865afa1580156128ad573d5f803e3d5ffd5b505050506040513d601f19601f82011682018060405250810190610be691906153fd565b5f806128de8460a0902090565b90505f6128f56001600160a01b0387168386612fc7565b90505f8061290388886136ab565b5091935091506129169050838383613926565b98975050505050505050565b5f805f61292d613952565b91509150612642858361293f60025490565b6129499190615199565b8387613419565b61181883838360016139de565b5f805f612968613952565b91509150612642858361297a60025490565b6129849190615199565b838761310e565b6001600160a01b038381165f908152600160209081526040808320938616835292905220545f198114612a0057818110156129f257604051637dc7a0d960e11b81526001600160a01b03841660048201526024810182905260448101839052606401610e6d565b612a0084848484035f6139de565b50505050565b6001600160a01b038316612a2f57604051634b637e8f60e11b81525f6004820152602401610e6d565b6001600160a01b038216612a585760405163ec442f0560e01b81525f6004820152602401610e6d565b611818838383613ab0565b6008546001600160a01b0316331461182e5760405163118cdaa760e01b8152336004820152602401610e6d565b5f610f667f00000000000000000000000000000000000000000000000000000000000000007f000000000000000000000000000000000000000000000000000000000000000061546e565b5f306001600160a01b037f000000000000000000000000000000000000000000000000000000000000000016148015612b3357507f000000000000000000000000000000000000000000000000000000000000000046145b15612b5d57507f000000000000000000000000000000000000000000000000000000000000000090565b610f66604080517f8b73c3c69bb8fe3d512ecc4cf759cc79239f7b179b0ffacaa9a75d522b39400f60208201527f0000000000000000000000000000000000000000000000000000000000000000918101919091527f000000000000000000000000000000000000000000000000000000000000000060608201524660808201523060a08201525f9060c00160405160208183030381529060405280519060200120905090565b5f80612c17612c1284613bd6565b613c18565b604051637784c68560e01b81529091506001600160a01b03851690637784c68590612c46908490600401615237565b5f60405180830381865afa158015612c60573d5f803e3d5ffd5b505050506040513d5f823e601f3d908101601f19168201604052612c879190810190615487565b5f81518110612c9857612c98615171565b60200260200101515f1c6001600160801b031691505092915050565b5f6001600160b81b03821115610b47576040516306dfcc6560e41b815260b8600482015260248101839052604401610e6d565b5f828152600d602052604090206001600160b81b03821615612e0e578054600160b81b900460ff16612e0057601580546001810182555f8290527f55f448fdea98c4d29eb340757ef0a66cd03dbb9538908a6a81d96026b71ec4750184905554601e1015612d68576040516340797bd760e11b815260040160405180910390fd5b805460ff60b81b1916600160b81b178155612dbd612db06001600160a01b037f00000000000000000000000000000000000000000000000000000000000000001686306128d1565b6016546116e39190615199565b336001600160a01b03167fe0c2db6b54586be6d7d49943139fccf0dd315ba63e55364a76c73cd8fdba724d6015604051612df7919061551b565b60405180910390a25b80546001600160c01b031681555b80546001600160b81b0383166001600160b81b0319909116811782556040805191825251849133917fe86b6d3313d3098f4c5f689c935de8fde876a597c185def2cedab85efedac6869181900360200190a350505f9081526010602052604081205550565b82546001600160c01b0319166001600160b81b038316178355612e968142615199565b83546001600160401b0391909116600160c01b026001600160c01b03909116179092555050565b5f805b601454811015610b47575f60148281548110612ede57612ede615171565b5f918252602080832090910154808352600d90915260408220549092506001600160b81b031690819003612f13575050612fb7565b5f612f486001600160a01b037f0000000000000000000000000000000000000000000000000000000000000000168430612fc7565b90505f80612f88612f5886612824565b6001600160a01b037f000000000000000000000000000000000000000000000000000000000000000016906136ab565b5091935091505f9050612f9c848484613c61565b9050612fae8186118287030289615199565b97505050505050505b612fc0816151ac565b9050612ec0565b5f80612fd6612c128585613c85565b604051637784c68560e01b81529091506001600160a01b03861690637784c68590613005908490600401615237565b5f60405180830381865afa15801561301f573d5f803e3d5ffd5b505050506040513d5f823e601f3d908101601f191682016040526130469190810190615487565b5f8151811061305757613057615171565b60200260200101515f1c9150509392505050565b5f80613075613952565b92509050801561309c5760125461309c90600160601b90046001600160a01b031682613cf7565b60408051838152602081018390527ff66f28b40975dbb933913542c7e6a0f50a1d0f20aa74ea6e0efe65ab616323ec910160405180910390a15090565b60168190556040518181527f15c027cc4fd826d986cad358803439f7326d3aa4ed969ff90dbee4bc150f68e9906020016118e7565b5f61264261313d7f0000000000000000000000000000000000000000000000000000000000000000600a615635565b6131479086615199565b613152856001615199565b87919085613d2f565b61316784848484613d7c565b61317082613e00565b612a00826016546116e39190615199565b600980546001600160a01b03191690556118a7816140cf565b621275008111156131be576040516346fedb5760e01b815260040160405180910390fd5b620151808110156118a757604051631a1593df60e11b815260040160405180910390fd5b600e81905560405181815233907fd28e9b90ee9b37c5936ff84392d71f29ff18117d7e76bcee60615262a90a3f759060200160405180910390a2505f601155565b6040805160c0810182525f80825260208201819052918101829052606081018290526080810182905260a081018290528190604051630a8e0d6f60e11b81526001600160a01b037f0000000000000000000000000000000000000000000000000000000000000000169063151c1ade906132a1908890600401615643565b5f604051808303815f87803b1580156132b8575f80fd5b505af11580156132ca573d5f803e3d5ffd5b5050604051632e3071cd60e11b8152600481018790527f00000000000000000000000000000000000000000000000000000000000000006001600160a01b03169250635c60e39a915060240160c060405180830381865afa158015613331573d5f803e3d5ffd5b505050506040513d601f19601f82011682018060405250810190613355919061566c565b905061338b6001600160a01b037f0000000000000000000000000000000000000000000000000000000000000000168530612fc7565b815160208301519193506133ad9184916001600160801b039081169116613926565b92509250925092565b80821191030290565b6060610f667f00000000000000000000000000000000000000000000000000000000000000006005614120565b6060610f667f00000000000000000000000000000000000000000000000000000000000000006006614120565b5f612642613428846001615199565b6134537f0000000000000000000000000000000000000000000000000000000000000000600a615635565b6131529087615199565b600c80546001600160a01b0319166001600160a01b03831690811790915560405133907fcb11cc8aade2f5a556749d1b2380d108a16fac3431e6a5d5ce12ef9de0bd76e3905f90a350600f80546001600160e01b0319169055565b82546001600160a01b0319166001600160a01b0383161783556134db8142615199565b83546001600160401b0391909116600160a01b0267ffffffffffffffff60a01b19909116179092555050565b60605f80846001600160a01b0316846040516135239190615708565b5f60405180830381855af49150503d805f811461355b576040519150601f19603f3d011682016040523d82523d5f602084013e613560565b606091505b50915091506126428583836141c9565b61357982614225565b6111958585858585614391565b6040516001600160a01b0383811660248301526044820183905261181891859182169063a9059cbb906064015b604051602081830303815290604052915060e01b6020820180516001600160e01b038381831617835250505050614451565b5f805f806135f1613952565b92509050806135ff60025490565b6136099190615199565b925061363461362c866001600160a01b03165f9081526020819052604090205490565b84845f613419565b935061363f846144b2565b6136499085615723565b9350509193909250565b5f610be661365f612adb565b8360405161190160f01b8152600281019290925260228201526042902090565b5f805f8061368f888888886145b4565b92509250925061369f828261467c565b50909695505050505050565b5f805f805f6136bb8660a0902090565b604051632e3071cd60e11b8152600481018290529091505f906001600160a01b03891690635c60e39a9060240160c060405180830381865afa158015613703573d5f803e3d5ffd5b505050506040513d601f19601f82011682018060405250810190613727919061566c565b90505f81608001516001600160801b0316426137439190615723565b90508015801590613760575060408201516001600160801b031615155b8015613778575060608801516001600160a01b031615155b156138f2576060880151604051638c00bf6b60e01b81525f916001600160a01b031690638c00bf6b906137b1908c908790600401615736565b602060405180830381865afa1580156137cc573d5f803e3d5ffd5b505050506040513d601f19601f820116820180604052508101906137f091906153e6565b90505f6138146138008385614734565b60408601516001600160801b031690614792565b905061381f816147a6565b84604001818151613830919061579d565b6001600160801b0316905250613845816147a6565b8451859061385490839061579d565b6001600160801b0390811690915260a0860151161590506138ef575f6138908560a001516001600160801b03168361479290919063ffffffff16565b90505f6138c482875f01516001600160801b03166138ae9190615723565b60208801518491906001600160801b03166147fb565b90506138cf816147a6565b866020018181516138e0919061579d565b6001600160801b031690525050505b50505b508051602082015160408301516060909301516001600160801b039283169b9183169a509282169850911695509350505050565b5f61394a613935600185615199565b613942620f424085615199565b869190614817565b949350505050565b5f8061395c610ac6565b90505f613974601654836133b690919063ffffffff16565b9050801580159061398f57506012546001600160601b031615155b156139d9576012545f906139b69083906001600160601b0316670de0b6b3a764000061482d565b90506139d5816139c560025490565b6139cf8487615723565b5f61310e565b9350505b509091565b6001600160a01b038416613a075760405163e602df0560e01b81525f6004820152602401610e6d565b6001600160a01b038316613a3057604051634a1406b160e11b81525f6004820152602401610e6d565b6001600160a01b038085165f9081526001602090815260408083209387168352929052208290558015612a0057826001600160a01b0316846001600160a01b03167f8c5be1e5ebec7d5bd14f71427d1e84f3dd0314c0f7b2291e5b200ac8c7c3b92584604051613aa291815260200190565b60405180910390a350505050565b6001600160a01b038316613ada578060025f828254613acf9190615199565b90915550613b4a9050565b6001600160a01b0383165f9081526020819052604090205481811015613b2c5760405163391434e360e21b81526001600160a01b03851660048201526024810182905260448101839052606401610e6d565b6001600160a01b0384165f9081526020819052604090209082900390555b6001600160a01b038216613b6657600280548290039055613b84565b6001600160a01b0382165f9081526020819052604090208054820190555b816001600160a01b0316836001600160a01b03167fddf252ad1be2c89b69c2b068fc378daa952ba7f163c4a11628f55a4df523b3ef83604051613bc991815260200190565b60405180910390a3505050565b5f6002826003604051602001613bf6929190918252602082015260400190565b604051602081830303815290604052805190602001205f1c610be69190615199565b6040805160018082528183019092526060915f91906020808301908036833701905050905082815f81518110613c5057613c50615171565b602090810291909101015292915050565b5f61394a613c70600185615199565b613c7d620f424085615199565b8691906148ec565b5f8082846002604051602001613ca5929190918252602082015260400190565b60408051601f1981840301815282825280516020918201206001600160a01b0390941690830152810191909152606001604051602081830303815290604052805190602001205f1c610d609190615199565b6001600160a01b038216613d205760405163ec442f0560e01b81525f6004820152602401610e6d565b613d2b5f8383613ab0565b5050565b5f80613d3c86868661482d565b9050613d478361490d565b8015613d6257505f8480613d5d57613d5d6157bd565b868809115b1561264257613d72600182615199565b9695505050505050565b613da87f0000000000000000000000000000000000000000000000000000000000000000853085614939565b613db28382613cf7565b826001600160a01b0316846001600160a01b03167fdcbc1c05240f31ff3ad067ef1ee35ce4997762752e3a095284754544f4c709d78484604051613aa2929190918252602082015260400190565b5f5b6014548110156140af575f60148281548110613e2057613e20615171565b5f918252602080832090910154808352600d90915260408220549092506001600160b81b031690819003613e5557505061409f565b5f613e5f83612824565b604051630a8e0d6f60e11b81529091506001600160a01b037f0000000000000000000000000000000000000000000000000000000000000000169063151c1ade90613eae908490600401615643565b5f604051808303815f87803b158015613ec5575f80fd5b505af1158015613ed7573d5f803e3d5ffd5b5050604051632e3071cd60e11b8152600481018690525f92507f00000000000000000000000000000000000000000000000000000000000000006001600160a01b03169150635c60e39a9060240160c060405180830381865afa158015613f40573d5f803e3d5ffd5b505050506040513d601f19601f82011682018060405250810190613f64919061566c565b90505f613f9b6001600160a01b037f0000000000000000000000000000000000000000000000000000000000000000168630612fc7565b90505f613fcc835f01516001600160801b031684602001516001600160801b031684613c619092919063ffffffff16565b9050808503818611028881118982180280821891146140855760405163a99aad8960e01b81526001600160a01b037f0000000000000000000000000000000000000000000000000000000000000000169063a99aad899061403790889085905f90309060040161535e565b60408051808303815f875af1925050508015614070575060408051601f3d908101601f1916820190925261406d9181019061533c565b60015b1561408557506140829050818a615723565b98505b885f0361409757505050505050505050565b505050505050505b6140a8816151ac565b9050613e02565b5080156118a75760405163ded0652d60e01b815260040160405180910390fd5b600880546001600160a01b038381166001600160a01b0319831681179093556040519116919082907f8be0079c531659141344cd1fd0a4f28419497f9722a3daafe3b4186f6b6457e0905f90a35050565b606060ff831461413a5761413383614972565b9050610be6565b818054614146906151c4565b80601f0160208091040260200160405190810160405280929190818152602001828054614172906151c4565b80156141bd5780601f10614194576101008083540402835291602001916141bd565b820191905f5260205f20905b8154815290600101906020018083116141a057829003601f168201915b50505050509050610be6565b6060826141de576141d9826149af565b610d60565b81511580156141f557506001600160a01b0384163b155b1561421e57604051639996b31560e01b81526001600160a01b0385166004820152602401610e6d565b5080610d60565b5f5b601554811015614371575f6015828154811061424557614245615171565b905f5260205f20015490505f61425a82612824565b90505f806142688385613223565b92505091505f6142a161429685845f01516001600160801b031685604001516001600160801b0316876149d8565b888111818a18021890565b9050801561434b57604051635c2bea4960e01b81526001600160a01b037f00000000000000000000000000000000000000000000000000000000000000001690635c2bea49906142fd90879085905f9030908190600401615300565b60408051808303815f875af1925050508015614336575060408051601f3d908101601f191682019092526143339181019061533c565b60015b1561434b575061434890508188615723565b96505b865f0361435b5750505050505050565b50505050508061436a906151ac565b9050614227565b5080156118a757604051634323a55560e01b815260040160405180910390fd5b826001600160a01b0316856001600160a01b0316146143b5576143b583868361298b565b6143bf8382614a90565b6143ea7f00000000000000000000000000000000000000000000000000000000000000008584613586565b826001600160a01b0316846001600160a01b0316866001600160a01b03167ffbde797d201c681b91056529119e0b02407c7bb96a4a2c75c01fc9667232c8db8585604051614442929190918252602082015260400190565b60405180910390a45050505050565b5f6144656001600160a01b03841683614ac4565b905080515f1415801561448957508080602001905181019061448791906157d1565b155b1561181857604051635274afe760e01b81526001600160a01b0384166004820152602401610e6d565b5f805b6015548110156145ad575f601582815481106144d3576144d3615171565b905f5260205f20015490505f6144e882612824565b90505f61451f6001600160a01b037f0000000000000000000000000000000000000000000000000000000000000000168430612fc7565b90505f80806145576001600160a01b037f000000000000000000000000000000000000000000000000000000000000000016866136ab565b5091945092509050614582614578868584614573898389613926565b6149d8565b808b03908b110290565b9850885f03614596575050505050506145ad565b505050505050806145a6906151ac565b90506144b5565b5090919050565b5f80807f7fffffffffffffffffffffffffffffff5d576e7357a4501ddfe92f46681b20a08411156145ed57505f91506003905082614672565b604080515f808252602082018084528a905260ff891692820192909252606081018790526080810186905260019060a0016020604051602081039080840390855afa15801561463e573d5f803e3d5ffd5b5050604051601f1901519150506001600160a01b03811661466957505f925060019150829050614672565b92505f91508190505b9450945094915050565b5f82600381111561468f5761468f6157ec565b03614698575050565b60018260038111156146ac576146ac6157ec565b036146ca5760405163f645eedf60e01b815260040160405180910390fd5b60028260038111156146de576146de6157ec565b036146ff5760405163fce698f760e01b815260048101829052602401610e6d565b6003826003811115614713576147136157ec565b03613d2b576040516335e2f38360e21b815260048101829052602401610e6d565b5f806147408385615800565b90505f614760828061475b670de0b6b3a76400006002615800565b614817565b90505f61477b828461475b670de0b6b3a76400006003615800565b9050806147888385615199565b613d729190615199565b5f610d608383670de0b6b3a7640000614817565b6040805180820190915260148152731b585e081d5a5b9d0c4c8e08195e18d95959195960621b60208201525f906001600160801b038311156145ad5760405162461bcd60e51b8152600401610e6d9190614c66565b5f61394a61480c620f424084615199565b613942600186615199565b5f816148238486615800565b61394a9190615817565b5f838302815f1985870982811083820303915050805f0361486157838281614857576148576157bd565b0492505050610d60565b8084116148815760405163227bc15360e01b815260040160405180910390fd5b5f848688095f868103871696879004966002600389028118808a02820302808a02820302808a02820302808a02820302808a02820302808a02909103029181900381900460010186841190950394909402919094039290920491909117919091029150509392505050565b5f816148f9600182615723565b6149038587615800565b6148239190615199565b5f6002826003811115614922576149226157ec565b61492c919061582a565b60ff166001149050919050565b6040516001600160a01b038481166024830152838116604483015260648201839052612a009186918216906323b872dd906084016135b3565b60605f61497e83614ad1565b6040805160208082528183019092529192505f91906020820181803683375050509182525060208101929092525090565b8051156149bf5780518082602001fd5b604051630a12f52160e11b815260040160405180910390fd5b5f80614a7d6149e78587615723565b87516040516370a0823160e01b81526001600160a01b037f000000000000000000000000000000000000000000000000000000000000000081166004830152909116906370a0823190602401602060405180830381865afa158015614a4e573d5f803e3d5ffd5b505050506040513d601f19601f82011682018060405250810190614a7291906153e6565b808218908211021890565b8381189084110290921895945050505050565b6001600160a01b038216614ab957604051634b637e8f60e11b81525f6004820152602401610e6d565b613d2b825f83613ab0565b6060610d6083835f614af8565b5f60ff8216601f811115610be657604051632cd44ac360e21b815260040160405180910390fd5b606081471015614b1d5760405163cd78605960e01b8152306004820152602401610e6d565b5f80856001600160a01b03168486604051614b389190615708565b5f6040518083038185875af1925050503d805f8114614b72576040519150601f19603f3d011682016040523d82523d5f602084013e614b77565b606091505b5091509150613d728683836141c9565b828054828255905f5260205f20908101928215614bc0579160200282015b82811115614bc0578235825591602001919060010190614ba5565b50610b47929150614c05565b828054828255905f5260205f20908101928215614bc0579160200282015b82811115614bc0578251825591602001919060010190614bea565b5b80821115610b47575f8155600101614c06565b5f5b83811015614c33578181015183820152602001614c1b565b50505f910152565b5f8151808452614c52816020860160208601614c19565b601f01601f19169290920160200192915050565b602081525f610d606020830184614c3b565b5f60208284031215614c88575f80fd5b5035919050565b6001600160a01b03811681146118a7575f80fd5b5f8060408385031215614cb4575f80fd5b8235614cbf81614c8f565b946020939093013593505050565b5f805f60608486031215614cdf575f80fd5b8335614cea81614c8f565b92506020840135614cfa81614c8f565b929592945050506040919091013590565b5f8083601f840112614d1b575f80fd5b5081356001600160401b03811115614d31575f80fd5b6020830191508360208260051b8501011115614d4b575f80fd5b9250929050565b5f8060208385031215614d63575f80fd5b82356001600160401b03811115614d78575f80fd5b614d8485828601614d0b565b90969095509350505050565b5f60208284031215614da0575f80fd5b8135610d6081614c8f565b634e487b7160e01b5f52604160045260245ffd5b60405160a081016001600160401b0381118282101715614de157614de1614dab565b60405290565b604051601f8201601f191681016001600160401b0381118282101715614e0f57614e0f614dab565b604052919050565b5f60a08284031215614e27575f80fd5b614e2f614dbf565b90508135614e3c81614c8f565b81526020820135614e4c81614c8f565b60208201526040820135614e5f81614c8f565b60408201526060820135614e7281614c8f565b806060830152506080820135608082015292915050565b5f8060c08385031215614e9a575f80fd5b614ea48484614e17565b9460a0939093013593505050565b5f8060408385031215614ec3575f80fd5b823591506020830135614ed581614c8f565b809150509250929050565b5f60a08284031215614ef0575f80fd5b610d608383614e17565b5f8060208385031215614f0b575f80fd5b82356001600160401b0380821115614f21575f80fd5b818501915085601f830112614f34575f80fd5b813581811115614f42575f80fd5b86602060c083028501011115614f56575f80fd5b60209290920196919550909350505050565b60ff60f81b881681525f602060e081840152614f8760e084018a614c3b565b8381036040850152614f99818a614c3b565b606085018990526001600160a01b038816608086015260a0850187905284810360c086015285518082528387019250908301905f5b81811015614fea57835183529284019291840191600101614fce565b50909c9b505050505050505050505050565b5f602080830181845280855180835260408601915060408160051b87010192508387015f5b8281101561504f57603f1988860301845261503d858351614c3b565b94509285019290850190600101615021565b5092979650505050505050565b80151581146118a7575f80fd5b5f806040838503121561507a575f80fd5b823561508581614c8f565b91506020830135614ed58161505c565b5f805f606084860312156150a7575f80fd5b8335925060208401356150b981614c8f565b915060408401356150c981614c8f565b809150509250925092565b5f805f805f805f60e0888a0312156150ea575f80fd5b87356150f581614c8f565b9650602088013561510581614c8f565b95506040880135945060608801359350608088013560ff81168114615128575f80fd5b9699959850939692959460a0840135945060c09093013592915050565b5f8060408385031215615156575f80fd5b823561516181614c8f565b91506020830135614ed581614c8f565b634e487b7160e01b5f52603260045260245ffd5b634e487b7160e01b5f52601160045260245ffd5b80820180821115610be657610be6615185565b5f600182016151bd576151bd615185565b5060010190565b600181811c908216806151d857607f821691505b6020821081036151f657634e487b7160e01b5f52602260045260245ffd5b50919050565b60208082528181018390525f908460408401835b8681101561522c57823582529183019190830190600101615210565b509695505050505050565b602080825282518282018190525f9190848201906040850190845b8181101561369f57835183529284019291840191600101615252565b5f60c0828403121561527e575f80fd5b604051604081018181106001600160401b03821117156152a0576152a0614dab565b6040526152ad8484614e17565b815260a09290920135602083015250919050565b80516001600160a01b03908116835260208083015182169084015260408083015182169084015260608083015190911690830152608090810151910152565b610120810161530f82886152c1565b60a082019590955260c08101939093526001600160a01b0391821660e08401521661010090910152919050565b5f806040838503121561534d575f80fd5b505080516020909101519092909150565b5f61012061536c83886152c1565b60a08301959095525060c08101929092526001600160a01b031660e082015261010081018290525f9181019190915261014001919050565b5f808335601e198436030181126153b9575f80fd5b8301803591506001600160401b038211156153d2575f80fd5b602001915036819003821315614d4b575f80fd5b5f602082840312156153f6575f80fd5b5051919050565b5f60a0828403121561540d575f80fd5b615415614dbf565b825161542081614c8f565b8152602083015161543081614c8f565b6020820152604083015161544381614c8f565b6040820152606083015161545681614c8f565b60608201526080928301519281019290925250919050565b60ff8181168382160190811115610be657610be6615185565b5f6020808385031215615498575f80fd5b82516001600160401b03808211156154ae575f80fd5b818501915085601f8301126154c1575f80fd5b8151818111156154d3576154d3614dab565b8060051b91506154e4848301614de7565b81815291830184019184810190888411156154fd575f80fd5b938501935b8385101561291657845182529385019390850190615502565b602080825282548282018190525f8481528281209092916040850190845b8181101561369f57835483526001938401939285019201615539565b600181815b8085111561558f57815f190482111561557557615575615185565b8085161561558257918102915b93841c939080029061555a565b509250929050565b5f826155a557506001610be6565b816155b157505f610be6565b81600181146155c757600281146155d1576155ed565b6001915050610be6565b60ff8411156155e2576155e2615185565b50506001821b610be6565b5060208310610133831016604e8410600b8410161715615610575081810a610be6565b61561a8383615555565b805f190482111561562d5761562d615185565b029392505050565b5f610d6060ff841683615597565b60a08101610be682846152c1565b80516001600160801b0381168114615667575f80fd5b919050565b5f60c0828403121561567c575f80fd5b60405160c081018181106001600160401b038211171561569e5761569e614dab565b6040526156aa83615651565b81526156b860208401615651565b60208201526156c960408401615651565b60408201526156da60608401615651565b60608201526156eb60808401615651565b60808201526156fc60a08401615651565b60a08201529392505050565b5f8251615719818460208701614c19565b9190910192915050565b81810381811115610be657610be6615185565b610160810161574582856152c1565b6001600160801b038084511660a08401528060208501511660c08401528060408501511660e084015280606085015116610100840152806080850151166101208401528060a085015116610140840152509392505050565b6001600160801b0381811683821601908082111561177757611777615185565b634e487b7160e01b5f52601260045260245ffd5b5f602082840312156157e1575f80fd5b8151610d608161505c565b634e487b7160e01b5f52602160045260245ffd5b8082028115828204841417610be657610be6615185565b5f82615825576158256157bd565b500490565b5f60ff83168061583c5761583c6157bd565b8060ff8416069150509291505056fea2646970667358221220b98acaf0683444ef0e2b12ec65f9a12d2346710e803f454ef15fa30e1ccdd5c364736f6c63430008150033","linkReferences":{}},"methodIdentifiers":{"DECIMALS_OFFSET()":"aea70acc","DOMAIN_SEPARATOR()":"3644e515","MORPHO()":"3acb5624","acceptCap((address,address,address,address,uint256))":"6fda3868","acceptGuardian()":"a5f31d61","acceptOwnership()":"79ba5097","acceptTimelock()":"8a2c7b39","allowance(address,address)":"dd62ed3e","approve(address,uint256)":"095ea7b3","asset()":"38d52e0f","balanceOf(address)":"70a08231","config(bytes32)":"cc718f76","convertToAssets(uint256)":"07a2d13a","convertToShares(uint256)":"c6e6f592","curator()":"e66f53b7","decimals()":"313ce567","deposit(uint256,address)":"6e553f65","eip712Domain()":"84b0196e","fee()":"ddca3f43","feeRecipient()":"46904840","guardian()":"452a9320","isAllocator(address)":"4dedf20e","lastTotalAssets()":"568efc07","maxDeposit(address)":"402d267d","maxMint(address)":"c63d75b6","maxRedeem(address)":"d905777e","maxWithdraw(address)":"ce96cb77","mint(uint256,address)":"94bf804d","multicall(bytes[])":"ac9650d8","name()":"06fdde03","nonces(address)":"7ecebe00","owner()":"8da5cb5b","pendingCap(bytes32)":"a31be5d6","pendingGuardian()":"762c31ba","pendingOwner()":"e30c3978","pendingTimelock()":"7cc4d9a1","permit(address,address,uint256,uint256,uint8,bytes32,bytes32)":"d505accf","previewDeposit(uint256)":"ef8b30f7","previewMint(uint256)":"b3d7f6b9","previewRedeem(uint256)":"4cdad506","previewWithdraw(uint256)":"0a28a477","reallocate(((address,address,address,address,uint256),uint256)[])":"7299aa31","redeem(uint256,address,address)":"ba087652","renounceOwnership()":"715018a6","revokePendingCap(bytes32)":"102f7b6c","revokePendingGuardian()":"1ecca77c","revokePendingMarketRemoval(bytes32)":"4b998de5","revokePendingTimelock()":"c9649aa9","setCurator(address)":"e90956cf","setFee(uint256)":"69fe0e2d","setFeeRecipient(address)":"e74b981b","setIsAllocator(address,bool)":"b192a84a","setSkimRecipient(address)":"2b30997b","setSupplyQueue(bytes32[])":"2acc56f9","skim(address)":"bc25cf77","skimRecipient()":"388af5b5","submitCap((address,address,address,address,uint256),uint256)":"3b24c2bf","submitGuardian(address)":"9d6b4a45","submitMarketRemoval((address,address,address,address,uint256))":"84755b5f","submitTimelock(uint256)":"7224a512","supplyQueue(uint256)":"f7d18521","supplyQueueLength()":"a17b3130","symbol()":"95d89b41","timelock()":"d33219b4","totalAssets()":"01e1d114","totalSupply()":"18160ddd","transfer(address,uint256)":"a9059cbb","transferFrom(address,address,uint256)":"23b872dd","transferOwnership(address)":"f2fde38b","updateWithdrawQueue(uint256[])":"41b67833","withdraw(uint256,address,address)":"b460af94","withdrawQueue(uint256)":"62518ddf","withdrawQueueLength()":"33f91ebb"},"id":79}