{"abi":[{"type":"constructor","inputs":[{"name":"_affiliate","type":"address","internalType":"address"},{"name":"_splitConfig","type":"address","internalType":"address"},{"name":"_payVault","type":"address","internalType":"address"},{"name":"_platformVault","type":"address","internalType":"address"}],"stateMutability":"nonpayable"},{"type":"function","name":"affiliate","inputs":[],"outputs":[{"name":"","type":"address","internalType":"address"}],"stateMutability":"view"},{"type":"function","name":"pay","inputs":[{"name":"vault","type":"address","internalType":"contract IERC4626"}],"outputs":[],"stateMutability":"nonpayable"},{"type":"function","name":"payVault","inputs":[],"outputs":[{"name":"","type":"address","internalType":"contract IERC4626"}],"stateMutability":"view"},{"type":"function","name":"payWithAmount","inputs":[{"name":"vault","type":"address","internalType":"contract IERC4626"},{"name":"amount","type":"uint256","internalType":"uint256"}],"outputs":[],"stateMutability":"nonpayable"},{"type":"function","name":"platformVault","inputs":[],"outputs":[{"name":"","type":"address","internalType":"contract IERC4626"}],"stateMutability":"view"},{"type":"function","name":"setPayVault","inputs":[{"name":"vault","type":"address","internalType":"address"}],"outputs":[],"stateMutability":"nonpayable"},{"type":"function","name":"splitConfig","inputs":[],"outputs":[{"name":"","type":"address","internalType":"contract IPartnerSplitConfig"}],"stateMutability":"view"},{"type":"event","name":"AffiliatePay","inputs":[{"name":"caller","type":"address","indexed":true,"internalType":"address"},{"name":"vault","type":"address","indexed":true,"internalType":"address"},{"name":"asset","type":"address","indexed":true,"internalType":"address"},{"name":"amount","type":"uint256","indexed":false,"internalType":"uint256"},{"name":"platformSplit","type":"uint256","indexed":false,"internalType":"uint256"},{"name":"affiliateSplit","type":"uint256","indexed":false,"internalType":"uint256"}],"anonymous":false},{"type":"event","name":"SetPayVault","inputs":[{"name":"payVault","type":"address","indexed":false,"internalType":"address"}],"anonymous":false},{"type":"error","name":"AlreadySet","inputs":[]},{"type":"error","name":"AssetMismatch","inputs":[]},{"type":"error","name":"SafeERC20FailedOperation","inputs":[{"name":"token","type":"address","internalType":"address"}]},{"type":"error","name":"UnauthorizedAffiliate","inputs":[]},{"type":"error","name":"ZeroAddress","inputs":[]},{"type":"error","name":"ZeroAmount","inputs":[]}],"bytecode":{"object":"0x60e060405234801562000010575f80fd5b506040516200112838038062001128833981016040819052620000339162000481565b6001600160a01b0384166200005b5760405163d92e233d60e01b815260040160405180910390fd5b6001600160a01b038316620000835760405163d92e233d60e01b815260040160405180910390fd5b6001600160a01b038216620000ab5760405163d92e233d60e01b815260040160405180910390fd5b6001600160a01b038116620000d35760405163d92e233d60e01b815260040160405180910390fd5b6001600160a01b0380851660a0528316608052620000f18262000205565b6001600160a01b0380821660c0525f54604080516338d52e0f60e01b8152905191909216916338d52e0f9160048083019260209291908290030181865afa1580156200013f573d5f803e3d5ffd5b505050506040513d601f19601f82011682018060405250810190620001659190620004db565b6001600160a01b031660c0516001600160a01b03166338d52e0f6040518163ffffffff1660e01b8152600401602060405180830381865afa158015620001ad573d5f803e3d5ffd5b505050506040513d601f19601f82011682018060405250810190620001d39190620004db565b6001600160a01b031614620001fb576040516341e0808560e11b815260040160405180910390fd5b50505050620004fe565b5f80546001600160a01b0319166001600160a01b0383169081178255604080516338d52e0f60e01b815290516338d52e0f916004808201926020929091908290030181865afa1580156200025b573d5f803e3d5ffd5b505050506040513d601f19601f82011682018060405250810190620002819190620004db565b90506200029a6001600160a01b038216835f19620002da565b6040516001600160a01b03831681527ffd1fcbc1570662ef31c0592a7fd355558238e52e81d22cd3395aa3fdd680aec59060200160405180910390a15050565b604080516001600160a01b038416602482015260448082018490528251808303909101815260649091019091526020810180516001600160e01b0390811663095ea7b360e01b17909152620003349085908390620003a516565b6200039f57604080516001600160a01b03851660248201525f6044808301919091528251808303909101815260649091019091526020810180516001600160e01b0390811663095ea7b360e01b1790915262000393918691620003f116565b6200039f8482620003f1565b50505050565b5f805f8060205f8651602088015f8a5af192503d91505f519050828015620003e757508115620003d95780600114620003e7565b5f866001600160a01b03163b115b9695505050505050565b5f8060205f8451602086015f885af18062000411576040513d5f823e3d81fd5b50505f513d915081156200042a57806001141562000437565b6001600160a01b0384163b155b156200039f57604051635274afe760e01b81526001600160a01b038516600482015260240160405180910390fd5b80516001600160a01b03811681146200047c575f80fd5b919050565b5f805f806080858703121562000495575f80fd5b620004a08562000465565b9350620004b06020860162000465565b9250620004c06040860162000465565b9150620004d06060860162000465565b905092959194509250565b5f60208284031215620004ec575f80fd5b620004f78262000465565b9392505050565b60805160a05160c051610bde6200054a5f395f818160db015261042d01525f818161010201528181610569015261064401525f818160980152818161036d015261045d0152610bde5ff3fe608060405234801561000f575f80fd5b506004361061007a575f3560e01c806345e05f431161005857806345e05f43146100fd578063a0b43d7a14610124578063a4ac019614610137578063ede6a80d1461014a575f80fd5b80630c11dedd1461007e57806316a1614b1461009357806320f094f8146100d6575b5f80fd5b61009161008c366004610afe565b61015c565b005b6100ba7f000000000000000000000000000000000000000000000000000000000000000081565b6040516001600160a01b03909116815260200160405180910390f35b6100ba7f000000000000000000000000000000000000000000000000000000000000000081565b6100ba7f000000000000000000000000000000000000000000000000000000000000000081565b610091610132366004610b19565b6101cb565b610091610145366004610afe565b610639565b5f546100ba906001600160a01b031681565b604051636c82bbbf60e11b81523060048201526101c89082906001600160a01b0382169063d905777e90602401602060405180830381865afa1580156101a4573d5f803e3d5ffd5b505050506040513d601f19601f820116820180604052508101906101329190610b43565b50565b5f826001600160a01b03166338d52e0f6040518163ffffffff1660e01b8152600401602060405180830381865afa158015610208573d5f803e3d5ffd5b505050506040513d601f19601f8201168201806040525081019061022c9190610b5a565b90505f8054906101000a90046001600160a01b03166001600160a01b03166338d52e0f6040518163ffffffff1660e01b8152600401602060405180830381865afa15801561027c573d5f803e3d5ffd5b505050506040513d601f19601f820116820180604052508101906102a09190610b5a565b6001600160a01b0316816001600160a01b0316146102d1576040516341e0808560e11b815260040160405180910390fd5b815f036102f157604051631f2a200560e01b815260040160405180910390fd5b604051635d043b2960e11b815260048101839052306024820181905260448201525f906001600160a01b0385169063ba087652906064016020604051808303815f875af1158015610344573d5f803e3d5ffd5b505050506040513d601f19601f820116820180604052508101906103689190610b43565b90505f7f00000000000000000000000000000000000000000000000000000000000000006001600160a01b031663f76541766040518163ffffffff1660e01b8152600401602060405180830381865afa1580156103c7573d5f803e3d5ffd5b505050506040513d601f19601f820116820180604052508101906103eb9190610b43565b90505f6104018383670de0b6b3a76400006107de565b90505f61042961041984670de0b6b3a7640000610b75565b8590670de0b6b3a76400006107de565b90507f00000000000000000000000000000000000000000000000000000000000000006001600160a01b0316636e553f65837f00000000000000000000000000000000000000000000000000000000000000006001600160a01b0316634bde38c86040518163ffffffff1660e01b8152600401602060405180830381865afa1580156104b7573d5f803e3d5ffd5b505050506040513d601f19601f820116820180604052508101906104db9190610b5a565b6040516001600160e01b031960e085901b16815260048101929092526001600160a01b031660248201526044016020604051808303815f875af1158015610524573d5f803e3d5ffd5b505050506040513d601f19601f820116820180604052508101906105489190610b43565b505f54604051636e553f6560e01b8152600481018390526001600160a01b037f00000000000000000000000000000000000000000000000000000000000000008116602483015290911690636e553f65906044016020604051808303815f875af11580156105b8573d5f803e3d5ffd5b505050506040513d601f19601f820116820180604052508101906105dc9190610b43565b5060408051858152602081018490529081018290526001600160a01b03808716919089169033907fc4ce54c1320cadbd601d3a3e05fb803403da08142478a2b48085658aa1bda47f9060600160405180910390a450505050505050565b336001600160a01b037f0000000000000000000000000000000000000000000000000000000000000000161461068257604051637e6c704d60e01b815260040160405180910390fd5b6001600160a01b0381166106a95760405163d92e233d60e01b815260040160405180910390fd5b5f546001600160a01b03908116908216036106d75760405163a741a04560e01b815260040160405180910390fd5b5f54604080516338d52e0f60e01b8152905183926001600160a01b0316916338d52e0f9160048083019260209291908290030181865afa15801561071d573d5f803e3d5ffd5b505050506040513d601f19601f820116820180604052508101906107419190610b5a565b6001600160a01b0316816001600160a01b03166338d52e0f6040518163ffffffff1660e01b8152600401602060405180830381865afa158015610786573d5f803e3d5ffd5b505050506040513d601f19601f820116820180604052508101906107aa9190610b5a565b6001600160a01b0316146107d1576040516341e0808560e11b815260040160405180910390fd5b6107da82610895565b5050565b5f838302815f1985870982811083820303915050805f036108125783828161080857610808610b94565b049250505061088e565b808411610829576108296003851502601118610965565b5f848688095f868103871696879004966002600389028118808a02820302808a02820302808a02820302808a02820302808a02820302808a02909103029181900381900460010186841190950394909402919094039290920491909117919091029150505b9392505050565b5f80546001600160a01b0319166001600160a01b0383169081178255604080516338d52e0f60e01b815290516338d52e0f916004808201926020929091908290030181865afa1580156108ea573d5f803e3d5ffd5b505050506040513d601f19601f8201168201806040525081019061090e9190610b5a565b90506109256001600160a01b038216835f19610976565b6040516001600160a01b03831681527ffd1fcbc1570662ef31c0592a7fd355558238e52e81d22cd3395aa3fdd680aec59060200160405180910390a15050565b634e487b715f52806020526024601cfd5b604080516001600160a01b038416602482015260448082018490528251808303909101815260649091019091526020810180516001600160e01b031663095ea7b360e01b1790526109c78482610a2f565b610a2957604080516001600160a01b03851660248201525f6044808301919091528251808303909101815260649091019091526020810180516001600160e01b031663095ea7b360e01b179052610a1f908590610a7a565b610a298482610a7a565b50505050565b5f805f8060205f8651602088015f8a5af192503d91505f519050828015610a6e57508115610a605780600114610a6e565b5f866001600160a01b03163b115b93505050505b92915050565b5f8060205f8451602086015f885af180610a99576040513d5f823e3d81fd5b50505f513d91508115610ab0578060011415610abd565b6001600160a01b0384163b155b15610a2957604051635274afe760e01b81526001600160a01b038516600482015260240160405180910390fd5b6001600160a01b03811681146101c8575f80fd5b5f60208284031215610b0e575f80fd5b813561088e81610aea565b5f8060408385031215610b2a575f80fd5b8235610b3581610aea565b946020939093013593505050565b5f60208284031215610b53575f80fd5b5051919050565b5f60208284031215610b6a575f80fd5b815161088e81610aea565b81810381811115610a7457634e487b7160e01b5f52601160045260245ffd5b634e487b7160e01b5f52601260045260245ffdfea264697066735822122073e90d19cd5566ba2f32615cdc7f51538f1290b945f7d1ee8584903c52c8ef7164736f6c63430008150033","linkReferences":{}},"methodIdentifiers":{"affiliate()":"45e05f43","pay(address)":"0c11dedd","payVault()":"ede6a80d","payWithAmount(address,uint256)":"a0b43d7a","platformVault()":"20f094f8","setPayVault(address)":"a4ac0196","splitConfig()":"16a1614b"},"id":125}