{"abi":[{"type":"constructor","inputs":[{"name":"_affiliate","type":"address","internalType":"address"},{"name":"_splitConfig","type":"address","internalType":"address"},{"name":"_payVault","type":"address","internalType":"address"},{"name":"_platformVault","type":"address","internalType":"address"}],"stateMutability":"nonpayable"},{"type":"function","name":"affiliate","inputs":[],"outputs":[{"name":"","type":"address","internalType":"address"}],"stateMutability":"view"},{"type":"function","name":"pay","inputs":[{"name":"vault","type":"address","internalType":"contract IERC4626"}],"outputs":[],"stateMutability":"nonpayable"},{"type":"function","name":"payVault","inputs":[],"outputs":[{"name":"","type":"address","internalType":"contract IERC4626"}],"stateMutability":"view"},{"type":"function","name":"platformVault","inputs":[],"outputs":[{"name":"","type":"address","internalType":"contract IERC4626"}],"stateMutability":"view"},{"type":"function","name":"setPayVault","inputs":[{"name":"vault","type":"address","internalType":"address"}],"outputs":[],"stateMutability":"nonpayable"},{"type":"function","name":"splitConfig","inputs":[],"outputs":[{"name":"","type":"address","internalType":"contract IPartnerSplitConfig"}],"stateMutability":"view"},{"type":"event","name":"AffiliatePay","inputs":[{"name":"caller","type":"address","indexed":true,"internalType":"address"},{"name":"vault","type":"address","indexed":true,"internalType":"address"},{"name":"asset","type":"address","indexed":true,"internalType":"address"},{"name":"amount","type":"uint256","indexed":false,"internalType":"uint256"},{"name":"platformSplit","type":"uint256","indexed":false,"internalType":"uint256"},{"name":"affiliateSplit","type":"uint256","indexed":false,"internalType":"uint256"}],"anonymous":false},{"type":"event","name":"SetPayVault","inputs":[{"name":"payVault","type":"address","indexed":false,"internalType":"address"}],"anonymous":false},{"type":"error","name":"AlreadySet","inputs":[]},{"type":"error","name":"AssetMismatch","inputs":[]},{"type":"error","name":"SafeERC20FailedOperation","inputs":[{"name":"token","type":"address","internalType":"address"}]},{"type":"error","name":"UnauthorizedAffiliate","inputs":[]},{"type":"error","name":"ZeroAddress","inputs":[]},{"type":"error","name":"ZeroAmount","inputs":[]}],"bytecode":{"object":"0x60e060405234801562000010575f80fd5b50604051620010ce380380620010ce833981016040819052620000339162000481565b6001600160a01b0384166200005b5760405163d92e233d60e01b815260040160405180910390fd5b6001600160a01b038316620000835760405163d92e233d60e01b815260040160405180910390fd5b6001600160a01b038216620000ab5760405163d92e233d60e01b815260040160405180910390fd5b6001600160a01b038116620000d35760405163d92e233d60e01b815260040160405180910390fd5b6001600160a01b0380851660a0528316608052620000f18262000205565b6001600160a01b0380821660c0525f54604080516338d52e0f60e01b8152905191909216916338d52e0f9160048083019260209291908290030181865afa1580156200013f573d5f803e3d5ffd5b505050506040513d601f19601f82011682018060405250810190620001659190620004db565b6001600160a01b031660c0516001600160a01b03166338d52e0f6040518163ffffffff1660e01b8152600401602060405180830381865afa158015620001ad573d5f803e3d5ffd5b505050506040513d601f19601f82011682018060405250810190620001d39190620004db565b6001600160a01b031614620001fb576040516341e0808560e11b815260040160405180910390fd5b50505050620004fe565b5f80546001600160a01b0319166001600160a01b0383169081178255604080516338d52e0f60e01b815290516338d52e0f916004808201926020929091908290030181865afa1580156200025b573d5f803e3d5ffd5b505050506040513d601f19601f82011682018060405250810190620002819190620004db565b90506200029a6001600160a01b038216835f19620002da565b6040516001600160a01b03831681527ffd1fcbc1570662ef31c0592a7fd355558238e52e81d22cd3395aa3fdd680aec59060200160405180910390a15050565b604080516001600160a01b038416602482015260448082018490528251808303909101815260649091019091526020810180516001600160e01b0390811663095ea7b360e01b17909152620003349085908390620003a516565b6200039f57604080516001600160a01b03851660248201525f6044808301919091528251808303909101815260649091019091526020810180516001600160e01b0390811663095ea7b360e01b1790915262000393918691620003f116565b6200039f8482620003f1565b50505050565b5f805f8060205f8651602088015f8a5af192503d91505f519050828015620003e757508115620003d95780600114620003e7565b5f866001600160a01b03163b115b9695505050505050565b5f8060205f8451602086015f885af18062000411576040513d5f823e3d81fd5b50505f513d915081156200042a57806001141562000437565b6001600160a01b0384163b155b156200039f57604051635274afe760e01b81526001600160a01b038516600482015260240160405180910390fd5b80516001600160a01b03811681146200047c575f80fd5b919050565b5f805f806080858703121562000495575f80fd5b620004a08562000465565b9350620004b06020860162000465565b9250620004c06040860162000465565b9150620004d06060860162000465565b905092959194509250565b5f60208284031215620004ec575f80fd5b620004f78262000465565b9392505050565b60805160a05160c051610b85620005495f395f818160c101526103fb01525f818160e801528181610537015261061201525f8181607e0152818161033b015261042b0152610b855ff3fe608060405234801561000f575f80fd5b5060043610610060575f3560e01c80630c11dedd1461006457806316a1614b1461007957806320f094f8146100bc57806345e05f43146100e3578063a4ac01961461010a578063ede6a80d1461011d575b5f80fd5b610077610072366004610acf565b61012f565b005b6100a07f000000000000000000000000000000000000000000000000000000000000000081565b6040516001600160a01b03909116815260200160405180910390f35b6100a07f000000000000000000000000000000000000000000000000000000000000000081565b6100a07f000000000000000000000000000000000000000000000000000000000000000081565b610077610118366004610acf565b610607565b5f546100a0906001600160a01b031681565b5f816001600160a01b03166338d52e0f6040518163ffffffff1660e01b8152600401602060405180830381865afa15801561016c573d5f803e3d5ffd5b505050506040513d601f19601f820116820180604052508101906101909190610aea565b90505f8054906101000a90046001600160a01b03166001600160a01b03166338d52e0f6040518163ffffffff1660e01b8152600401602060405180830381865afa1580156101e0573d5f803e3d5ffd5b505050506040513d601f19601f820116820180604052508101906102049190610aea565b6001600160a01b0316816001600160a01b031614610235576040516341e0808560e11b815260040160405180910390fd5b6040516370a0823160e01b81523060048201525f906001600160a01b038416906370a0823190602401602060405180830381865afa158015610279573d5f803e3d5ffd5b505050506040513d601f19601f8201168201806040525081019061029d9190610b05565b9050805f036102bf57604051631f2a200560e01b815260040160405180910390fd5b604051635d043b2960e11b815260048101829052306024820181905260448201525f906001600160a01b0385169063ba087652906064016020604051808303815f875af1158015610312573d5f803e3d5ffd5b505050506040513d601f19601f820116820180604052508101906103369190610b05565b90505f7f00000000000000000000000000000000000000000000000000000000000000006001600160a01b031663f76541766040518163ffffffff1660e01b8152600401602060405180830381865afa158015610395573d5f803e3d5ffd5b505050506040513d601f19601f820116820180604052508101906103b99190610b05565b90505f6103cf8383670de0b6b3a76400006107ac565b90505f6103f76103e784670de0b6b3a7640000610b1c565b8590670de0b6b3a76400006107ac565b90507f00000000000000000000000000000000000000000000000000000000000000006001600160a01b0316636e553f65837f00000000000000000000000000000000000000000000000000000000000000006001600160a01b0316634bde38c86040518163ffffffff1660e01b8152600401602060405180830381865afa158015610485573d5f803e3d5ffd5b505050506040513d601f19601f820116820180604052508101906104a99190610aea565b6040516001600160e01b031960e085901b16815260048101929092526001600160a01b031660248201526044016020604051808303815f875af11580156104f2573d5f803e3d5ffd5b505050506040513d601f19601f820116820180604052508101906105169190610b05565b505f54604051636e553f6560e01b8152600481018390526001600160a01b037f00000000000000000000000000000000000000000000000000000000000000008116602483015290911690636e553f65906044016020604051808303815f875af1158015610586573d5f803e3d5ffd5b505050506040513d601f19601f820116820180604052508101906105aa9190610b05565b5060408051858152602081018490529081018290526001600160a01b03808816919089169033907fc4ce54c1320cadbd601d3a3e05fb803403da08142478a2b48085658aa1bda47f9060600160405180910390a450505050505050565b336001600160a01b037f0000000000000000000000000000000000000000000000000000000000000000161461065057604051637e6c704d60e01b815260040160405180910390fd5b6001600160a01b0381166106775760405163d92e233d60e01b815260040160405180910390fd5b5f546001600160a01b03908116908216036106a55760405163a741a04560e01b815260040160405180910390fd5b5f54604080516338d52e0f60e01b8152905183926001600160a01b0316916338d52e0f9160048083019260209291908290030181865afa1580156106eb573d5f803e3d5ffd5b505050506040513d601f19601f8201168201806040525081019061070f9190610aea565b6001600160a01b0316816001600160a01b03166338d52e0f6040518163ffffffff1660e01b8152600401602060405180830381865afa158015610754573d5f803e3d5ffd5b505050506040513d601f19601f820116820180604052508101906107789190610aea565b6001600160a01b03161461079f576040516341e0808560e11b815260040160405180910390fd5b6107a882610863565b5050565b5f838302815f1985870982811083820303915050805f036107e0578382816107d6576107d6610b3b565b049250505061085c565b8084116107f7576107f76003851502601118610933565b5f848688095f868103871696879004966002600389028118808a02820302808a02820302808a02820302808a02820302808a02820302808a02909103029181900381900460010186841190950394909402919094039290920491909117919091029150505b9392505050565b5f80546001600160a01b0319166001600160a01b0383169081178255604080516338d52e0f60e01b815290516338d52e0f916004808201926020929091908290030181865afa1580156108b8573d5f803e3d5ffd5b505050506040513d601f19601f820116820180604052508101906108dc9190610aea565b90506108f36001600160a01b038216835f19610944565b6040516001600160a01b03831681527ffd1fcbc1570662ef31c0592a7fd355558238e52e81d22cd3395aa3fdd680aec59060200160405180910390a15050565b634e487b715f52806020526024601cfd5b604080516001600160a01b038416602482015260448082018490528251808303909101815260649091019091526020810180516001600160e01b031663095ea7b360e01b17905261099584826109fd565b6109f757604080516001600160a01b03851660248201525f6044808301919091528251808303909101815260649091019091526020810180516001600160e01b031663095ea7b360e01b1790526109ed908590610a48565b6109f78482610a48565b50505050565b5f805f8060205f8651602088015f8a5af192503d91505f519050828015610a3c57508115610a2e5780600114610a3c565b5f866001600160a01b03163b115b93505050505b92915050565b5f8060205f8451602086015f885af180610a67576040513d5f823e3d81fd5b50505f513d91508115610a7e578060011415610a8b565b6001600160a01b0384163b155b156109f757604051635274afe760e01b81526001600160a01b038516600482015260240160405180910390fd5b6001600160a01b0381168114610acc575f80fd5b50565b5f60208284031215610adf575f80fd5b813561085c81610ab8565b5f60208284031215610afa575f80fd5b815161085c81610ab8565b5f60208284031215610b15575f80fd5b5051919050565b81810381811115610a4257634e487b7160e01b5f52601160045260245ffd5b634e487b7160e01b5f52601260045260245ffdfea26469706673582212206e3ba99877e4b47c9d824a4318e35783de50456eba96d384d67377ef7217848264736f6c63430008150033","linkReferences":{}},"methodIdentifiers":{"affiliate()":"45e05f43","pay(address)":"0c11dedd","payVault()":"ede6a80d","platformVault()":"20f094f8","setPayVault(address)":"a4ac0196","splitConfig()":"16a1614b"},"id":99}