{"abi":[{"type":"constructor","inputs":[{"name":"_affiliate","type":"address","internalType":"address"},{"name":"_splitConfig","type":"address","internalType":"address"},{"name":"_payVault","type":"address","internalType":"address"}],"stateMutability":"nonpayable"},{"type":"function","name":"affiliate","inputs":[],"outputs":[{"name":"","type":"address","internalType":"address"}],"stateMutability":"view"},{"type":"function","name":"pay","inputs":[{"name":"vault","type":"address","internalType":"contract IERC4626"}],"outputs":[],"stateMutability":"nonpayable"},{"type":"function","name":"payVault","inputs":[],"outputs":[{"name":"","type":"address","internalType":"contract IERC4626"}],"stateMutability":"view"},{"type":"function","name":"splitConfig","inputs":[],"outputs":[{"name":"","type":"address","internalType":"contract IPartnerSplitConfig"}],"stateMutability":"view"},{"type":"event","name":"AffiliatePay","inputs":[{"name":"caller","type":"address","indexed":true,"internalType":"address"},{"name":"vault","type":"address","indexed":true,"internalType":"address"},{"name":"asset","type":"address","indexed":true,"internalType":"address"},{"name":"amount","type":"uint256","indexed":false,"internalType":"uint256"},{"name":"platformSplit","type":"uint256","indexed":false,"internalType":"uint256"},{"name":"affiliateSplit","type":"uint256","indexed":false,"internalType":"uint256"}],"anonymous":false},{"type":"error","name":"AssetMismatch","inputs":[]},{"type":"error","name":"SafeERC20FailedOperation","inputs":[{"name":"token","type":"address","internalType":"address"}]},{"type":"error","name":"ZeroAddress","inputs":[]},{"type":"error","name":"ZeroAmount","inputs":[]}],"bytecode":{"object":"0x60e060405234801562000010575f80fd5b50604051620012d4380380620012d483398181016040528101906200003691906200055c565b5f73ffffffffffffffffffffffffffffffffffffffff168373ffffffffffffffffffffffffffffffffffffffff16036200009c576040517fd92e233d00000000000000000000000000000000000000000000000000000000815260040160405180910390fd5b5f73ffffffffffffffffffffffffffffffffffffffff168273ffffffffffffffffffffffffffffffffffffffff160362000102576040517fd92e233d00000000000000000000000000000000000000000000000000000000815260040160405180910390fd5b5f73ffffffffffffffffffffffffffffffffffffffff168173ffffffffffffffffffffffffffffffffffffffff160362000168576040517fd92e233d00000000000000000000000000000000000000000000000000000000815260040160405180910390fd5b8273ffffffffffffffffffffffffffffffffffffffff1660a08173ffffffffffffffffffffffffffffffffffffffff16815250508173ffffffffffffffffffffffffffffffffffffffff1660808173ffffffffffffffffffffffffffffffffffffffff16815250508073ffffffffffffffffffffffffffffffffffffffff1660c08173ffffffffffffffffffffffffffffffffffffffff16815250505f60c05173ffffffffffffffffffffffffffffffffffffffff166338d52e0f6040518163ffffffff1660e01b8152600401602060405180830381865afa15801562000251573d5f803e3d5ffd5b505050506040513d601f19601f82011682018060405250810190620002779190620005b5565b9050620002c6827fffffffffffffffffffffffffffffffffffffffffffffffffffffffffffffffff8373ffffffffffffffffffffffffffffffffffffffff16620002d060201b9092919060201c565b50505050620006cb565b5f8373ffffffffffffffffffffffffffffffffffffffff1663095ea7b384846040516024016200030292919062000610565b604051602081830303815290604052915060e01b6020820180517bffffffffffffffffffffffffffffffffffffffffffffffffffffffff83818316178352505050509050620003588482620003fa60201b60201c565b620003f457620003e1848573ffffffffffffffffffffffffffffffffffffffff1663095ea7b3865f6040516024016200039392919062000685565b604051602081830303815290604052915060e01b6020820180517bffffffffffffffffffffffffffffffffffffffffffffffffffffffff83818316178352505050506200045660201b60201c565b620003f384826200045660201b60201c565b5b50505050565b5f805f8060205f8651602088015f8a5af192503d91505f5190508280156200044b57505f82146200042f57600181146200044a565b5f8673ffffffffffffffffffffffffffffffffffffffff163b115b5b935050505092915050565b5f8060205f8451602086015f885af18062000476576040513d5f823e3d81fd5b3d92505f519150505f821462000491576001811415620004ac565b5f8473ffffffffffffffffffffffffffffffffffffffff163b145b15620004f157836040517f5274afe7000000000000000000000000000000000000000000000000000000008152600401620004e89190620006b0565b60405180910390fd5b50505050565b5f80fd5b5f73ffffffffffffffffffffffffffffffffffffffff82169050919050565b5f6200052682620004fb565b9050919050565b62000538816200051a565b811462000543575f80fd5b50565b5f8151905062000556816200052d565b92915050565b5f805f60608486031215620005765762000575620004f7565b5b5f620005858682870162000546565b9350506020620005988682870162000546565b9250506040620005ab8682870162000546565b9150509250925092565b5f60208284031215620005cd57620005cc620004f7565b5b5f620005dc8482850162000546565b91505092915050565b620005f0816200051a565b82525050565b5f819050919050565b6200060a81620005f6565b82525050565b5f604082019050620006255f830185620005e5565b620006346020830184620005ff565b9392505050565b5f819050919050565b5f819050919050565b5f6200066d6200066762000661846200063b565b62000644565b620005f6565b9050919050565b6200067f816200064d565b82525050565b5f6040820190506200069a5f830185620005e5565b620006a9602083018462000674565b9392505050565b5f602082019050620006c55f830184620005e5565b92915050565b60805160a05160c051610bb4620007205f395f81816101360152818161043e0152818161056601526106f301525f81816105a301526106cf01525f818161035c0152818161047b01526106ab0152610bb45ff3fe608060405234801561000f575f80fd5b506004361061004a575f3560e01c80630c11dedd1461004e57806316a1614b1461006a57806345e05f4314610088578063ede6a80d146100a6575b5f80fd5b6100686004803603810190610063919061089e565b6100c4565b005b6100726106a9565b60405161007f9190610924565b60405180910390f35b6100906106cd565b60405161009d919061094c565b60405180910390f35b6100ae6106f1565b6040516100bb9190610985565b60405180910390f35b5f8173ffffffffffffffffffffffffffffffffffffffff166338d52e0f6040518163ffffffff1660e01b8152600401602060405180830381865afa15801561010e573d5f803e3d5ffd5b505050506040513d601f19601f8201168201806040525081019061013291906109c8565b90507f000000000000000000000000000000000000000000000000000000000000000073ffffffffffffffffffffffffffffffffffffffff166338d52e0f6040518163ffffffff1660e01b8152600401602060405180830381865afa15801561019d573d5f803e3d5ffd5b505050506040513d601f19601f820116820180604052508101906101c191906109c8565b73ffffffffffffffffffffffffffffffffffffffff168173ffffffffffffffffffffffffffffffffffffffff1614610225576040517f83c1010a00000000000000000000000000000000000000000000000000000000815260040160405180910390fd5b5f8273ffffffffffffffffffffffffffffffffffffffff166370a08231306040518263ffffffff1660e01b815260040161025f919061094c565b602060405180830381865afa15801561027a573d5f803e3d5ffd5b505050506040513d601f19601f8201168201806040525081019061029e9190610a26565b90505f81036102d9576040517f1f2a200500000000000000000000000000000000000000000000000000000000815260040160405180910390fd5b5f8373ffffffffffffffffffffffffffffffffffffffff1663ba0876528330306040518463ffffffff1660e01b815260040161031793929190610a60565b6020604051808303815f875af1158015610333573d5f803e3d5ffd5b505050506040513d601f19601f820116820180604052508101906103579190610a26565b90505f7f000000000000000000000000000000000000000000000000000000000000000073ffffffffffffffffffffffffffffffffffffffff1663f76541766040518163ffffffff1660e01b8152600401602060405180830381865afa1580156103c3573d5f803e3d5ffd5b505050506040513d601f19601f820116820180604052508101906103e79190610a26565b90505f61040782670de0b6b3a7640000856107159092919063ffffffff16565b90505f61043a83670de0b6b3a76400006104219190610ac2565b670de0b6b3a7640000866107159092919063ffffffff16565b90507f000000000000000000000000000000000000000000000000000000000000000073ffffffffffffffffffffffffffffffffffffffff16636e553f65837f000000000000000000000000000000000000000000000000000000000000000073ffffffffffffffffffffffffffffffffffffffff16634bde38c86040518163ffffffff1660e01b8152600401602060405180830381865afa1580156104e2573d5f803e3d5ffd5b505050506040513d601f19601f8201168201806040525081019061050691906109c8565b6040518363ffffffff1660e01b8152600401610523929190610af5565b6020604051808303815f875af115801561053f573d5f803e3d5ffd5b505050506040513d601f19601f820116820180604052508101906105639190610a26565b507f000000000000000000000000000000000000000000000000000000000000000073ffffffffffffffffffffffffffffffffffffffff16636e553f65827f00000000000000000000000000000000000000000000000000000000000000006040518363ffffffff1660e01b81526004016105df929190610af5565b6020604051808303815f875af11580156105fb573d5f803e3d5ffd5b505050506040513d601f19601f8201168201806040525081019061061f9190610a26565b508573ffffffffffffffffffffffffffffffffffffffff168773ffffffffffffffffffffffffffffffffffffffff163373ffffffffffffffffffffffffffffffffffffffff167fc4ce54c1320cadbd601d3a3e05fb803403da08142478a2b48085658aa1bda47f87868660405161069893929190610b1c565b60405180910390a450505050505050565b7f000000000000000000000000000000000000000000000000000000000000000081565b7f000000000000000000000000000000000000000000000000000000000000000081565b7f000000000000000000000000000000000000000000000000000000000000000081565b5f8083850290505f8019858709828110838203039150505f810361074d5783828161074357610742610b51565b5b04925050506107f3565b80841161076c5761076b6107665f8614601260116107fa565b610813565b5b5f8486880990508281118203915080830392505f855f038616905080860495508084049350600181825f0304019050808302841793505f600287600302189050808702600203810290508087026002038102905080870260020381029050808702600203810290508087026002038102905080870260020381029050808502955050505050505b9392505050565b5f61080484610824565b82841802821890509392505050565b634e487b715f52806020526024601cfd5b5f8115159050919050565b5f80fd5b5f73ffffffffffffffffffffffffffffffffffffffff82169050919050565b5f61085c82610833565b9050919050565b5f61086d82610852565b9050919050565b61087d81610863565b8114610887575f80fd5b50565b5f8135905061089881610874565b92915050565b5f602082840312156108b3576108b261082f565b5b5f6108c08482850161088a565b91505092915050565b5f819050919050565b5f6108ec6108e76108e284610833565b6108c9565b610833565b9050919050565b5f6108fd826108d2565b9050919050565b5f61090e826108f3565b9050919050565b61091e81610904565b82525050565b5f6020820190506109375f830184610915565b92915050565b61094681610852565b82525050565b5f60208201905061095f5f83018461093d565b92915050565b5f61096f826108f3565b9050919050565b61097f81610965565b82525050565b5f6020820190506109985f830184610976565b92915050565b6109a781610852565b81146109b1575f80fd5b50565b5f815190506109c28161099e565b92915050565b5f602082840312156109dd576109dc61082f565b5b5f6109ea848285016109b4565b91505092915050565b5f819050919050565b610a05816109f3565b8114610a0f575f80fd5b50565b5f81519050610a20816109fc565b92915050565b5f60208284031215610a3b57610a3a61082f565b5b5f610a4884828501610a12565b91505092915050565b610a5a816109f3565b82525050565b5f606082019050610a735f830186610a51565b610a80602083018561093d565b610a8d604083018461093d565b949350505050565b7f4e487b71000000000000000000000000000000000000000000000000000000005f52601160045260245ffd5b5f610acc826109f3565b9150610ad7836109f3565b9250828203905081811115610aef57610aee610a95565b5b92915050565b5f604082019050610b085f830185610a51565b610b15602083018461093d565b9392505050565b5f606082019050610b2f5f830186610a51565b610b3c6020830185610a51565b610b496040830184610a51565b949350505050565b7f4e487b71000000000000000000000000000000000000000000000000000000005f52601260045260245ffdfea26469706673582212204f93751db319dadc68f9d68f789515621a4df1594ef636e701a6ddff2ab7f8fc64736f6c63430008150033","linkReferences":{}},"methodIdentifiers":{"affiliate()":"45e05f43","pay(address)":"0c11dedd","payVault()":"ede6a80d","splitConfig()":"16a1614b"},"id":124}