{"abi":[{"type":"constructor","inputs":[{"name":"_affiliate","type":"address","internalType":"address"},{"name":"_splitConfig","type":"address","internalType":"address"},{"name":"_payVault","type":"address","internalType":"address"}],"stateMutability":"nonpayable"},{"type":"function","name":"affiliate","inputs":[],"outputs":[{"name":"","type":"address","internalType":"address"}],"stateMutability":"view"},{"type":"function","name":"pay","inputs":[{"name":"vault","type":"address","internalType":"contract IERC4626"}],"outputs":[],"stateMutability":"nonpayable"},{"type":"function","name":"payVault","inputs":[],"outputs":[{"name":"","type":"address","internalType":"contract IERC4626"}],"stateMutability":"view"},{"type":"function","name":"setPayVault","inputs":[{"name":"vault","type":"address","internalType":"address"}],"outputs":[],"stateMutability":"nonpayable"},{"type":"function","name":"splitConfig","inputs":[],"outputs":[{"name":"","type":"address","internalType":"contract IPartnerSplitConfig"}],"stateMutability":"view"},{"type":"event","name":"AffiliatePay","inputs":[{"name":"caller","type":"address","indexed":true,"internalType":"address"},{"name":"vault","type":"address","indexed":true,"internalType":"address"},{"name":"asset","type":"address","indexed":true,"internalType":"address"},{"name":"amount","type":"uint256","indexed":false,"internalType":"uint256"},{"name":"platformSplit","type":"uint256","indexed":false,"internalType":"uint256"},{"name":"affiliateSplit","type":"uint256","indexed":false,"internalType":"uint256"}],"anonymous":false},{"type":"event","name":"SetPayVault","inputs":[{"name":"payVault","type":"address","indexed":false,"internalType":"address"}],"anonymous":false},{"type":"error","name":"AlreadySet","inputs":[]},{"type":"error","name":"AssetMismatch","inputs":[]},{"type":"error","name":"SafeERC20FailedOperation","inputs":[{"name":"token","type":"address","internalType":"address"}]},{"type":"error","name":"UnauthorizedAffiliate","inputs":[]},{"type":"error","name":"ZeroAddress","inputs":[]},{"type":"error","name":"ZeroAmount","inputs":[]}],"bytecode":{"object":"0x60c060405234801562000010575f80fd5b5060405162000f3938038062000f3983398101604081905262000033916200034e565b6001600160a01b0383166200005b5760405163d92e233d60e01b815260040160405180910390fd5b6001600160a01b038216620000835760405163d92e233d60e01b815260040160405180910390fd5b6001600160a01b038116620000ab5760405163d92e233d60e01b815260040160405180910390fd5b6001600160a01b0380841660a0528216608052620000c981620000d2565b505050620003b8565b5f80546001600160a01b0319166001600160a01b0383169081178255604080516338d52e0f60e01b815290516338d52e0f916004808201926020929091908290030181865afa15801562000128573d5f803e3d5ffd5b505050506040513d601f19601f820116820180604052508101906200014e919062000395565b9050620001676001600160a01b038216835f19620001a7565b6040516001600160a01b03831681527ffd1fcbc1570662ef31c0592a7fd355558238e52e81d22cd3395aa3fdd680aec59060200160405180910390a15050565b604080516001600160a01b038416602482015260448082018490528251808303909101815260649091019091526020810180516001600160e01b0390811663095ea7b360e01b179091526200020190859083906200027216565b6200026c57604080516001600160a01b03851660248201525f6044808301919091528251808303909101815260649091019091526020810180516001600160e01b0390811663095ea7b360e01b1790915262000260918691620002be16565b6200026c8482620002be565b50505050565b5f805f8060205f8651602088015f8a5af192503d91505f519050828015620002b457508115620002a65780600114620002b4565b5f866001600160a01b03163b115b9695505050505050565b5f8060205f8451602086015f885af180620002de576040513d5f823e3d81fd5b50505f513d91508115620002f757806001141562000304565b6001600160a01b0384163b155b156200026c57604051635274afe760e01b81526001600160a01b038516600482015260240160405180910390fd5b80516001600160a01b038116811462000349575f80fd5b919050565b5f805f6060848603121562000361575f80fd5b6200036c8462000332565b92506200037c6020850162000332565b91506200038c6040850162000332565b90509250925092565b5f60208284031215620003a6575f80fd5b620003b18262000332565b9392505050565b60805160a051610b45620003f45f395f818160b6015281816104f701526105d201525f818160730152818161030901526103eb0152610b455ff3fe608060405234801561000f575f80fd5b5060043610610055575f3560e01c80630c11dedd1461005957806316a1614b1461006e57806345e05f43146100b1578063a4ac0196146100d8578063ede6a80d146100eb575b5f80fd5b61006c610067366004610a8f565b6100fd565b005b6100957f000000000000000000000000000000000000000000000000000000000000000081565b6040516001600160a01b03909116815260200160405180910390f35b6100957f000000000000000000000000000000000000000000000000000000000000000081565b61006c6100e6366004610a8f565b6105c7565b5f54610095906001600160a01b031681565b5f816001600160a01b03166338d52e0f6040518163ffffffff1660e01b8152600401602060405180830381865afa15801561013a573d5f803e3d5ffd5b505050506040513d601f19601f8201168201806040525081019061015e9190610aaa565b90505f8054906101000a90046001600160a01b03166001600160a01b03166338d52e0f6040518163ffffffff1660e01b8152600401602060405180830381865afa1580156101ae573d5f803e3d5ffd5b505050506040513d601f19601f820116820180604052508101906101d29190610aaa565b6001600160a01b0316816001600160a01b031614610203576040516341e0808560e11b815260040160405180910390fd5b6040516370a0823160e01b81523060048201525f906001600160a01b038416906370a0823190602401602060405180830381865afa158015610247573d5f803e3d5ffd5b505050506040513d601f19601f8201168201806040525081019061026b9190610ac5565b9050805f0361028d57604051631f2a200560e01b815260040160405180910390fd5b604051635d043b2960e11b815260048101829052306024820181905260448201525f906001600160a01b0385169063ba087652906064016020604051808303815f875af11580156102e0573d5f803e3d5ffd5b505050506040513d601f19601f820116820180604052508101906103049190610ac5565b90505f7f00000000000000000000000000000000000000000000000000000000000000006001600160a01b031663f76541766040518163ffffffff1660e01b8152600401602060405180830381865afa158015610363573d5f803e3d5ffd5b505050506040513d601f19601f820116820180604052508101906103879190610ac5565b90505f61039d8383670de0b6b3a764000061076c565b90505f6103c56103b584670de0b6b3a7640000610adc565b8590670de0b6b3a764000061076c565b90505f8054906101000a90046001600160a01b03166001600160a01b0316636e553f65837f00000000000000000000000000000000000000000000000000000000000000006001600160a01b0316634bde38c86040518163ffffffff1660e01b8152600401602060405180830381865afa158015610445573d5f803e3d5ffd5b505050506040513d601f19601f820116820180604052508101906104699190610aaa565b6040516001600160e01b031960e085901b16815260048101929092526001600160a01b031660248201526044016020604051808303815f875af11580156104b2573d5f803e3d5ffd5b505050506040513d601f19601f820116820180604052508101906104d69190610ac5565b505f54604051636e553f6560e01b8152600481018390526001600160a01b037f00000000000000000000000000000000000000000000000000000000000000008116602483015290911690636e553f65906044016020604051808303815f875af1158015610546573d5f803e3d5ffd5b505050506040513d601f19601f8201168201806040525081019061056a9190610ac5565b5060408051858152602081018490529081018290526001600160a01b03808816919089169033907fc4ce54c1320cadbd601d3a3e05fb803403da08142478a2b48085658aa1bda47f9060600160405180910390a450505050505050565b336001600160a01b037f0000000000000000000000000000000000000000000000000000000000000000161461061057604051637e6c704d60e01b815260040160405180910390fd5b6001600160a01b0381166106375760405163d92e233d60e01b815260040160405180910390fd5b5f546001600160a01b03908116908216036106655760405163a741a04560e01b815260040160405180910390fd5b5f54604080516338d52e0f60e01b8152905183926001600160a01b0316916338d52e0f9160048083019260209291908290030181865afa1580156106ab573d5f803e3d5ffd5b505050506040513d601f19601f820116820180604052508101906106cf9190610aaa565b6001600160a01b0316816001600160a01b03166338d52e0f6040518163ffffffff1660e01b8152600401602060405180830381865afa158015610714573d5f803e3d5ffd5b505050506040513d601f19601f820116820180604052508101906107389190610aaa565b6001600160a01b03161461075f576040516341e0808560e11b815260040160405180910390fd5b61076882610823565b5050565b5f838302815f1985870982811083820303915050805f036107a05783828161079657610796610afb565b049250505061081c565b8084116107b7576107b760038515026011186108f3565b5f848688095f868103871696879004966002600389028118808a02820302808a02820302808a02820302808a02820302808a02820302808a02909103029181900381900460010186841190950394909402919094039290920491909117919091029150505b9392505050565b5f80546001600160a01b0319166001600160a01b0383169081178255604080516338d52e0f60e01b815290516338d52e0f916004808201926020929091908290030181865afa158015610878573d5f803e3d5ffd5b505050506040513d601f19601f8201168201806040525081019061089c9190610aaa565b90506108b36001600160a01b038216835f19610904565b6040516001600160a01b03831681527ffd1fcbc1570662ef31c0592a7fd355558238e52e81d22cd3395aa3fdd680aec59060200160405180910390a15050565b634e487b715f52806020526024601cfd5b604080516001600160a01b038416602482015260448082018490528251808303909101815260649091019091526020810180516001600160e01b031663095ea7b360e01b17905261095584826109bd565b6109b757604080516001600160a01b03851660248201525f6044808301919091528251808303909101815260649091019091526020810180516001600160e01b031663095ea7b360e01b1790526109ad908590610a08565b6109b78482610a08565b50505050565b5f805f8060205f8651602088015f8a5af192503d91505f5190508280156109fc575081156109ee57806001146109fc565b5f866001600160a01b03163b115b93505050505b92915050565b5f8060205f8451602086015f885af180610a27576040513d5f823e3d81fd5b50505f513d91508115610a3e578060011415610a4b565b6001600160a01b0384163b155b156109b757604051635274afe760e01b81526001600160a01b038516600482015260240160405180910390fd5b6001600160a01b0381168114610a8c575f80fd5b50565b5f60208284031215610a9f575f80fd5b813561081c81610a78565b5f60208284031215610aba575f80fd5b815161081c81610a78565b5f60208284031215610ad5575f80fd5b5051919050565b81810381811115610a0257634e487b7160e01b5f52601160045260245ffd5b634e487b7160e01b5f52601260045260245ffdfea2646970667358221220b2cb0830e5dba8a4fda5aecfce161e9ee8fdae87da8ade1dbb691da82857db2164736f6c63430008150033","linkReferences":{}},"methodIdentifiers":{"affiliate()":"45e05f43","pay(address)":"0c11dedd","payVault()":"ede6a80d","setPayVault(address)":"a4ac0196","splitConfig()":"16a1614b"},"id":99}