{"abi":[{"type":"constructor","inputs":[{"name":"_affiliate","type":"address","internalType":"address"},{"name":"_splitConfig","type":"address","internalType":"address"},{"name":"_payVault","type":"address","internalType":"address"}],"stateMutability":"nonpayable"},{"type":"function","name":"affiliate","inputs":[],"outputs":[{"name":"","type":"address","internalType":"address"}],"stateMutability":"view"},{"type":"function","name":"pay","inputs":[{"name":"vault","type":"address","internalType":"contract IERC4626"}],"outputs":[],"stateMutability":"nonpayable"},{"type":"function","name":"payVault","inputs":[],"outputs":[{"name":"","type":"address","internalType":"contract IERC4626"}],"stateMutability":"view"},{"type":"function","name":"splitConfig","inputs":[],"outputs":[{"name":"","type":"address","internalType":"contract IPartnerSplitConfig"}],"stateMutability":"view"},{"type":"event","name":"AffiliatePay","inputs":[{"name":"caller","type":"address","indexed":true,"internalType":"address"},{"name":"vault","type":"address","indexed":true,"internalType":"address"},{"name":"asset","type":"address","indexed":true,"internalType":"address"},{"name":"amount","type":"uint256","indexed":false,"internalType":"uint256"},{"name":"platformSplit","type":"uint256","indexed":false,"internalType":"uint256"},{"name":"affiliateSplit","type":"uint256","indexed":false,"internalType":"uint256"}],"anonymous":false},{"type":"error","name":"AssetMismatch","inputs":[]},{"type":"error","name":"SafeERC20FailedOperation","inputs":[{"name":"token","type":"address","internalType":"address"}]},{"type":"error","name":"ZeroAddress","inputs":[]},{"type":"error","name":"ZeroAmount","inputs":[]}],"bytecode":{"object":"0x60e060405234801562000010575f80fd5b5060405162000b4038038062000b408339810160408190526200003391620002f2565b6001600160a01b0383166200005b5760405163d92e233d60e01b815260040160405180910390fd5b6001600160a01b038216620000835760405163d92e233d60e01b815260040160405180910390fd5b6001600160a01b038116620000ab5760405163d92e233d60e01b815260040160405180910390fd5b6001600160a01b0380841660a052828116608052811660c0819052604080516338d52e0f60e01b815290515f92916338d52e0f9160048083019260209291908290030181865afa15801562000102573d5f803e3d5ffd5b505050506040513d601f19601f8201168201806040525081019062000128919062000339565b9050620001416001600160a01b038216835f196200014b565b505050506200035c565b604080516001600160a01b038416602482015260448082018490528251808303909101815260649091019091526020810180516001600160e01b0390811663095ea7b360e01b17909152620001a590859083906200021616565b6200021057604080516001600160a01b03851660248201525f6044808301919091528251808303909101815260649091019091526020810180516001600160e01b0390811663095ea7b360e01b17909152620002049186916200026216565b62000210848262000262565b50505050565b5f805f8060205f8651602088015f8a5af192503d91505f51905082801562000258575081156200024a578060011462000258565b5f866001600160a01b03163b115b9695505050505050565b5f8060205f8451602086015f885af18062000282576040513d5f823e3d81fd5b50505f513d915081156200029b578060011415620002a8565b6001600160a01b0384163b155b156200021057604051635274afe760e01b81526001600160a01b038516600482015260240160405180910390fd5b80516001600160a01b0381168114620002ed575f80fd5b919050565b5f805f6060848603121562000305575f80fd5b6200031084620002d6565b92506200032060208501620002d6565b91506200033060408501620002d6565b90509250925092565b5f602082840312156200034a575f80fd5b6200035582620002d6565b9392505050565b60805160a05160c051610792620003ae5f395f818160d201528181610159015281816103ce015261053001525f818160ab015261050801525f818160680152818161030e01526103fe01526107925ff3fe608060405234801561000f575f80fd5b506004361061004a575f3560e01c80630c11dedd1461004e57806316a1614b1461006357806345e05f43146100a6578063ede6a80d146100cd575b5f80fd5b61006161005c3660046106d6565b6100f4565b005b61008a7f000000000000000000000000000000000000000000000000000000000000000081565b6040516001600160a01b03909116815260200160405180910390f35b61008a7f000000000000000000000000000000000000000000000000000000000000000081565b61008a7f000000000000000000000000000000000000000000000000000000000000000081565b5f816001600160a01b03166338d52e0f6040518163ffffffff1660e01b8152600401602060405180830381865afa158015610131573d5f803e3d5ffd5b505050506040513d601f19601f8201168201806040525081019061015591906106f1565b90507f00000000000000000000000000000000000000000000000000000000000000006001600160a01b03166338d52e0f6040518163ffffffff1660e01b8152600401602060405180830381865afa1580156101b3573d5f803e3d5ffd5b505050506040513d601f19601f820116820180604052508101906101d791906106f1565b6001600160a01b0316816001600160a01b031614610208576040516341e0808560e11b815260040160405180910390fd5b6040516370a0823160e01b81523060048201525f906001600160a01b038416906370a0823190602401602060405180830381865afa15801561024c573d5f803e3d5ffd5b505050506040513d601f19601f82011682018060405250810190610270919061070c565b9050805f0361029257604051631f2a200560e01b815260040160405180910390fd5b604051635d043b2960e11b815260048101829052306024820181905260448201525f906001600160a01b0385169063ba087652906064016020604051808303815f875af11580156102e5573d5f803e3d5ffd5b505050506040513d601f19601f82011682018060405250810190610309919061070c565b90505f7f00000000000000000000000000000000000000000000000000000000000000006001600160a01b031663f76541766040518163ffffffff1660e01b8152600401602060405180830381865afa158015610368573d5f803e3d5ffd5b505050506040513d601f19601f8201168201806040525081019061038c919061070c565b90505f6103a28383670de0b6b3a76400006105f7565b90505f6103ca6103ba84670de0b6b3a7640000610723565b8590670de0b6b3a76400006105f7565b90507f00000000000000000000000000000000000000000000000000000000000000006001600160a01b0316636e553f65837f00000000000000000000000000000000000000000000000000000000000000006001600160a01b0316634bde38c86040518163ffffffff1660e01b8152600401602060405180830381865afa158015610458573d5f803e3d5ffd5b505050506040513d601f19601f8201168201806040525081019061047c91906106f1565b6040516001600160e01b031960e085901b16815260048101929092526001600160a01b031660248201526044016020604051808303815f875af11580156104c5573d5f803e3d5ffd5b505050506040513d601f19601f820116820180604052508101906104e9919061070c565b50604051636e553f6560e01b8152600481018290526001600160a01b037f0000000000000000000000000000000000000000000000000000000000000000811660248301527f00000000000000000000000000000000000000000000000000000000000000001690636e553f65906044016020604051808303815f875af1158015610576573d5f803e3d5ffd5b505050506040513d601f19601f8201168201806040525081019061059a919061070c565b5060408051858152602081018490529081018290526001600160a01b03808816919089169033907fc4ce54c1320cadbd601d3a3e05fb803403da08142478a2b48085658aa1bda47f9060600160405180910390a450505050505050565b5f838302815f1985870982811083820303915050805f0361062b5783828161062157610621610748565b04925050506106a7565b8084116106425761064260038515026011186106ae565b5f848688095f868103871696879004966002600389028118808a02820302808a02820302808a02820302808a02820302808a02820302808a02909103029181900381900460010186841190950394909402919094039290920491909117919091029150505b9392505050565b634e487b715f52806020526024601cfd5b6001600160a01b03811681146106d3575f80fd5b50565b5f602082840312156106e6575f80fd5b81356106a7816106bf565b5f60208284031215610701575f80fd5b81516106a7816106bf565b5f6020828403121561071c575f80fd5b5051919050565b8181038181111561074257634e487b7160e01b5f52601160045260245ffd5b92915050565b634e487b7160e01b5f52601260045260245ffdfea2646970667358221220d2d64300f3020b33aa87efe5a5df57f6aa77c32ce04f0268b6dd6f700d00efa464736f6c63430008150033","linkReferences":{}},"methodIdentifiers":{"affiliate()":"45e05f43","pay(address)":"0c11dedd","payVault()":"ede6a80d","splitConfig()":"16a1614b"},"id":123}