{"abi":[{"type":"constructor","inputs":[{"name":"owner","type":"address","internalType":"address"},{"name":"vault","type":"address","internalType":"address"},{"name":"_platform","type":"address","internalType":"address"},{"name":"_fee","type":"uint96","internalType":"uint96"},{"name":"_split","type":"uint256","internalType":"uint256"},{"name":"salt","type":"bytes32","internalType":"bytes32"}],"stateMutability":"nonpayable"},{"type":"function","name":"SEND_EARN","inputs":[],"outputs":[{"name":"","type":"address","internalType":"address"}],"stateMutability":"view"},{"type":"function","name":"VAULT","inputs":[],"outputs":[{"name":"","type":"address","internalType":"address"}],"stateMutability":"view"},{"type":"function","name":"acceptOwnership","inputs":[],"outputs":[],"stateMutability":"nonpayable"},{"type":"function","name":"affiliates","inputs":[{"name":"","type":"address","internalType":"address"}],"outputs":[{"name":"","type":"address","internalType":"address"}],"stateMutability":"view"},{"type":"function","name":"createSendEarn","inputs":[{"name":"referrer","type":"address","internalType":"address"},{"name":"salt","type":"bytes32","internalType":"bytes32"}],"outputs":[{"name":"sendEarn","type":"address","internalType":"contract ISendEarn"}],"stateMutability":"nonpayable"},{"type":"function","name":"fee","inputs":[],"outputs":[{"name":"","type":"uint96","internalType":"uint96"}],"stateMutability":"view"},{"type":"function","name":"isSendEarn","inputs":[{"name":"","type":"address","internalType":"address"}],"outputs":[{"name":"","type":"bool","internalType":"bool"}],"stateMutability":"view"},{"type":"function","name":"owner","inputs":[],"outputs":[{"name":"","type":"address","internalType":"address"}],"stateMutability":"view"},{"type":"function","name":"pendingOwner","inputs":[],"outputs":[{"name":"","type":"address","internalType":"address"}],"stateMutability":"view"},{"type":"function","name":"platform","inputs":[],"outputs":[{"name":"","type":"address","internalType":"address"}],"stateMutability":"view"},{"type":"function","name":"renounceOwnership","inputs":[],"outputs":[],"stateMutability":"nonpayable"},{"type":"function","name":"setFee","inputs":[{"name":"newFee","type":"uint256","internalType":"uint256"}],"outputs":[],"stateMutability":"nonpayable"},{"type":"function","name":"setPlatform","inputs":[{"name":"newPlatform","type":"address","internalType":"address"}],"outputs":[],"stateMutability":"nonpayable"},{"type":"function","name":"setSplit","inputs":[{"name":"newSplit","type":"uint256","internalType":"uint256"}],"outputs":[],"stateMutability":"nonpayable"},{"type":"function","name":"split","inputs":[],"outputs":[{"name":"","type":"uint256","internalType":"uint256"}],"stateMutability":"view"},{"type":"function","name":"transferOwnership","inputs":[{"name":"newOwner","type":"address","internalType":"address"}],"outputs":[],"stateMutability":"nonpayable"},{"type":"event","name":"CreateSendEarn","inputs":[{"name":"sendEarn","type":"address","indexed":true,"internalType":"address"},{"name":"caller","type":"address","indexed":true,"internalType":"address"},{"name":"initialOwner","type":"address","indexed":false,"internalType":"address"},{"name":"vault","type":"address","indexed":true,"internalType":"address"},{"name":"feeRecipient","type":"address","indexed":false,"internalType":"address"},{"name":"collections","type":"address","indexed":false,"internalType":"address"},{"name":"fee","type":"uint96","indexed":false,"internalType":"uint96"},{"name":"salt","type":"bytes32","indexed":false,"internalType":"bytes32"}],"anonymous":false},{"type":"event","name":"NewAffiliate","inputs":[{"name":"affiliate","type":"address","indexed":false,"internalType":"address"},{"name":"sea","type":"address","indexed":false,"internalType":"address"}],"anonymous":false},{"type":"event","name":"OwnershipTransferStarted","inputs":[{"name":"previousOwner","type":"address","indexed":true,"internalType":"address"},{"name":"newOwner","type":"address","indexed":true,"internalType":"address"}],"anonymous":false},{"type":"event","name":"OwnershipTransferStarted","inputs":[{"name":"previousOwner","type":"address","indexed":true,"internalType":"address"},{"name":"newOwner","type":"address","indexed":true,"internalType":"address"}],"anonymous":false},{"type":"event","name":"OwnershipTransferred","inputs":[{"name":"previousOwner","type":"address","indexed":true,"internalType":"address"},{"name":"newOwner","type":"address","indexed":true,"internalType":"address"}],"anonymous":false},{"type":"event","name":"SetFee","inputs":[{"name":"caller","type":"address","indexed":true,"internalType":"address"},{"name":"newFee","type":"uint256","indexed":false,"internalType":"uint256"}],"anonymous":false},{"type":"event","name":"SetPlatform","inputs":[{"name":"newPlatform","type":"address","indexed":true,"internalType":"address"}],"anonymous":false},{"type":"event","name":"SetSplit","inputs":[{"name":"newSplit","type":"uint256","indexed":false,"internalType":"uint256"}],"anonymous":false},{"type":"error","name":"AlreadySet","inputs":[]},{"type":"error","name":"MaxFeeExceeded","inputs":[]},{"type":"error","name":"MaxSplitExceeded","inputs":[]},{"type":"error","name":"OwnableInvalidOwner","inputs":[{"name":"owner","type":"address","internalType":"address"}]},{"type":"error","name":"OwnableUnauthorizedAccount","inputs":[{"name":"account","type":"address","internalType":"address"}]},{"type":"error","name":"UnauthorizedPlatform","inputs":[]},{"type":"error","name":"ZeroAddress","inputs":[]},{"type":"error","name":"ZeroFeeRecipient","inputs":[]}],"bytecode":{"object":"0x60c060405234801562000010575f80fd5b506040516200f7853803806200f785833981810160405281019062000036919062000d41565b855f73ffffffffffffffffffffffffffffffffffffffff168173ffffffffffffffffffffffffffffffffffffffff1603620000aa575f6040517f1e4fbdf7000000000000000000000000000000000000000000000000000000008152600401620000a1919062000dea565b60405180910390fd5b620000bb816200034560201b60201c565b505f73ffffffffffffffffffffffffffffffffffffffff168573ffffffffffffffffffffffffffffffffffffffff160362000122576040517fd92e233d00000000000000000000000000000000000000000000000000000000815260040160405180910390fd5b5f73ffffffffffffffffffffffffffffffffffffffff168473ffffffffffffffffffffffffffffffffffffffff160362000188576040517fd92e233d00000000000000000000000000000000000000000000000000000000815260040160405180910390fd5b8473ffffffffffffffffffffffffffffffffffffffff1660808173ffffffffffffffffffffffffffffffffffffffff1681525050620001cd846200037d60201b60201c565b620001ec836bffffffffffffffffffffffff16620004f260201b60201c565b620001fd82620006d760201b60201c565b5f620002326005600c9054906101000a900473ffffffffffffffffffffffffffffffffffffffff16836200079960201b60201c565b9050600160035f8373ffffffffffffffffffffffffffffffffffffffff1673ffffffffffffffffffffffffffffffffffffffff1681526020019081526020015f205f6101000a81548160ff0219169083151502179055508060045f8073ffffffffffffffffffffffffffffffffffffffff1673ffffffffffffffffffffffffffffffffffffffff1681526020019081526020015f205f6101000a81548173ffffffffffffffffffffffffffffffffffffffff021916908373ffffffffffffffffffffffffffffffffffffffff1602179055508073ffffffffffffffffffffffffffffffffffffffff1660a08173ffffffffffffffffffffffffffffffffffffffff168152505050505050505050620012cf565b60015f6101000a81549073ffffffffffffffffffffffffffffffffffffffff02191690556200037a8162000b1360201b60201c565b50565b6005600c9054906101000a900473ffffffffffffffffffffffffffffffffffffffff1673ffffffffffffffffffffffffffffffffffffffff168173ffffffffffffffffffffffffffffffffffffffff160362000405576040517fa741a04500000000000000000000000000000000000000000000000000000000815260040160405180910390fd5b5f73ffffffffffffffffffffffffffffffffffffffff168173ffffffffffffffffffffffffffffffffffffffff16036200046b576040517fd92e233d00000000000000000000000000000000000000000000000000000000815260040160405180910390fd5b806005600c6101000a81548173ffffffffffffffffffffffffffffffffffffffff021916908373ffffffffffffffffffffffffffffffffffffffff1602179055508073ffffffffffffffffffffffffffffffffffffffff167fe43176ad83b85c7f6487987d0f13cbdc9e4a7010bfbf3148a181d1247e12067f60405160405180910390a250565b60055f9054906101000a90046bffffffffffffffffffffffff166bffffffffffffffffffffffff16810362000553576040517fa741a04500000000000000000000000000000000000000000000000000000000815260040160405180910390fd5b6706f05b59d3b2000081111562000596576040517ff4df6ae500000000000000000000000000000000000000000000000000000000815260040160405180910390fd5b5f8114158015620005f457505f73ffffffffffffffffffffffffffffffffffffffff166005600c9054906101000a900473ffffffffffffffffffffffffffffffffffffffff1673ffffffffffffffffffffffffffffffffffffffff16145b156200062c576040517fcff9f19400000000000000000000000000000000000000000000000000000000815260040160405180910390fd5b8060055f6101000a8154816bffffffffffffffffffffffff02191690836bffffffffffffffffffffffff1602179055506200066c62000bd460201b60201c565b73ffffffffffffffffffffffffffffffffffffffff167f01fe2943baee27f47add82886c2200f910c749c461c9b63c5fe83901a53bdb4960055f9054906101000a90046bffffffffffffffffffffffff16604051620006cc919062000e46565b60405180910390a250565b600654810362000713576040517fa741a04500000000000000000000000000000000000000000000000000000000815260040160405180910390fd5b670de0b6b3a764000081111562000756576040517fb776b4a800000000000000000000000000000000000000000000000000000000815260040160405180910390fd5b806006819055507f5be34322cfabe5fcd91b5b07bd988fb7651f4405d3081fa3e7c599e2cd8a3065816040516200078e919062000e72565b60405180910390a150565b5f81620007ab62000bdb60201b60201c565b620007bb62000c0260201b60201c565b60805173ffffffffffffffffffffffffffffffffffffffff166338d52e0f6040518163ffffffff1660e01b8152600401602060405180830381865afa15801562000807573d5f803e3d5ffd5b505050506040513d601f19601f820116820180604052508101906200082d919062000e8d565b60805173ffffffffffffffffffffffffffffffffffffffff166306fdde036040518163ffffffff1660e01b81526004015f60405180830381865afa15801562000878573d5f803e3d5ffd5b505050506040513d5f823e3d601f19601f82011682018060405250810190620008a2919062001031565b604051602001620008b49190620010f0565b60405160208183030381529060405260805173ffffffffffffffffffffffffffffffffffffffff166395d89b416040518163ffffffff1660e01b81526004015f60405180830381865afa1580156200090e573d5f803e3d5ffd5b505050506040513d5f823e3d601f19601f8201168201806040525081019062000938919062001031565b6040516020016200094a91906200113f565b604051602081830303815290604052886005600c9054906101000a900473ffffffffffffffffffffffffffffffffffffffff1660055f9054906101000a90046bffffffffffffffffffffffff16604051620009a59062000c0b565b620009b8989796959493929190620011c9565b8190604051809103905ff5905080158015620009d6573d5f803e3d5ffd5b509050600160035f8373ffffffffffffffffffffffffffffffffffffffff1673ffffffffffffffffffffffffffffffffffffffff1681526020019081526020015f205f6101000a81548160ff02191690831515021790555062000a3e62000c0260201b60201c565b73ffffffffffffffffffffffffffffffffffffffff163373ffffffffffffffffffffffffffffffffffffffff168273ffffffffffffffffffffffffffffffffffffffff167f16fd1abf080c4e4033aa07b9abf7edf2baed124de11f1b57782f10f9f623f86562000ab362000bdb60201b60201c565b876005600c9054906101000a900473ffffffffffffffffffffffffffffffffffffffff1660055f9054906101000a90046bffffffffffffffffffffffff168960405162000b0595949392919062001274565b60405180910390a492915050565b5f805f9054906101000a900473ffffffffffffffffffffffffffffffffffffffff169050815f806101000a81548173ffffffffffffffffffffffffffffffffffffffff021916908373ffffffffffffffffffffffffffffffffffffffff1602179055508173ffffffffffffffffffffffffffffffffffffffff168173ffffffffffffffffffffffffffffffffffffffff167f8be0079c531659141344cd1fd0a4f28419497f9722a3daafe3b4186f6b6457e060405160405180910390a35050565b5f33905090565b5f805f9054906101000a900473ffffffffffffffffffffffffffffffffffffffff16905090565b5f608051905090565b615b558062009c3083390190565b5f604051905090565b5f80fd5b5f80fd5b5f73ffffffffffffffffffffffffffffffffffffffff82169050919050565b5f62000c558262000c2a565b9050919050565b62000c678162000c49565b811462000c72575f80fd5b50565b5f8151905062000c858162000c5c565b92915050565b5f6bffffffffffffffffffffffff82169050919050565b62000cad8162000c8b565b811462000cb8575f80fd5b50565b5f8151905062000ccb8162000ca2565b92915050565b5f819050919050565b62000ce58162000cd1565b811462000cf0575f80fd5b50565b5f8151905062000d038162000cda565b92915050565b5f819050919050565b62000d1d8162000d09565b811462000d28575f80fd5b50565b5f8151905062000d3b8162000d12565b92915050565b5f805f805f8060c0878903121562000d5e5762000d5d62000c22565b5b5f62000d6d89828a0162000c75565b965050602062000d8089828a0162000c75565b955050604062000d9389828a0162000c75565b945050606062000da689828a0162000cbb565b935050608062000db989828a0162000cf3565b92505060a062000dcc89828a0162000d2b565b9150509295509295509295565b62000de48162000c49565b82525050565b5f60208201905062000dff5f83018462000dd9565b92915050565b5f819050919050565b5f62000e2e62000e2862000e228462000c8b565b62000e05565b62000cd1565b9050919050565b62000e408162000e0e565b82525050565b5f60208201905062000e5b5f83018462000e35565b92915050565b62000e6c8162000cd1565b82525050565b5f60208201905062000e875f83018462000e61565b92915050565b5f6020828403121562000ea55762000ea462000c22565b5b5f62000eb48482850162000c75565b91505092915050565b5f80fd5b5f80fd5b5f601f19601f8301169050919050565b7f4e487b71000000000000000000000000000000000000000000000000000000005f52604160045260245ffd5b62000f0d8262000ec5565b810181811067ffffffffffffffff8211171562000f2f5762000f2e62000ed5565b5b80604052505050565b5f62000f4362000c19565b905062000f51828262000f02565b919050565b5f67ffffffffffffffff82111562000f735762000f7262000ed5565b5b62000f7e8262000ec5565b9050602081019050919050565b5f5b8381101562000faa57808201518184015260208101905062000f8d565b5f8484015250505050565b5f62000fcb62000fc58462000f56565b62000f38565b90508281526020810184848401111562000fea5762000fe962000ec1565b5b62000ff784828562000f8b565b509392505050565b5f82601f83011262001016576200101562000ebd565b5b81516200102884826020860162000fb5565b91505092915050565b5f6020828403121562001049576200104862000c22565b5b5f82015167ffffffffffffffff81111562001069576200106862000c26565b5b620010778482850162000fff565b91505092915050565b7f53656e64204561726e3a20000000000000000000000000000000000000000000815250565b5f81519050919050565b5f81905092915050565b5f620010c682620010a6565b620010d28185620010b0565b9350620010e481856020860162000f8b565b80840191505092915050565b5f620010fc8262001080565b600b820191506200110e8284620010ba565b915081905092915050565b7f7365000000000000000000000000000000000000000000000000000000000000815250565b5f6200114b8262001119565b6002820191506200115d8284620010ba565b915081905092915050565b5f82825260208201905092915050565b5f6200118482620010a6565b62001190818562001168565b9350620011a281856020860162000f8b565b620011ad8162000ec5565b840191505092915050565b620011c38162000c8b565b82525050565b5f61010082019050620011df5f83018b62000dd9565b620011ee602083018a62000dd9565b620011fd604083018962000dd9565b818103606083015262001211818862001178565b9050818103608083015262001227818762001178565b90506200123860a083018662000dd9565b6200124760c083018562000dd9565b6200125660e0830184620011b8565b9998505050505050505050565b6200126e8162000d09565b82525050565b5f60a082019050620012895f83018862000dd9565b62001298602083018762000dd9565b620012a7604083018662000dd9565b620012b66060830185620011b8565b620012c5608083018462001263565b9695505050505050565b60805160a0516189236200130d5f395f81816103d901526107a401525f81816105690152818161098901528181610a190152610acd01526189235ff3fe608060405234801562000010575f80fd5b506004361062000116575f3560e01c8063715018a611620000a3578063ddca3f43116200006d578063ddca3f4314620002bc578063e30c397814620002de578063f2fde38b1462000300578063f765417614620003205762000116565b8063715018a6146200026057806379ba5097146200026c5780637e9ae0d114620002785780638da5cb5b146200029a5762000116565b80634f51e29411620000e55780634f51e29414620001ca578063674e694f14620002005780636945c5ea146200022057806369fe0e2d14620002405762000116565b80633e6f4022146200011a578063411557d11462000150578063464d225a14620001725780634bde38c814620001a8575b5f80fd5b62000138600480360381019062000132919062001393565b62000342565b6040516200014791906200143f565b60405180910390f35b6200015a62000566565b6040516200016991906200146b565b60405180910390f35b6200019060048036038101906200018a919062001486565b6200058d565b6040516200019f9190620014d2565b60405180910390f35b620001b2620005aa565b604051620001c191906200146b565b60405180910390f35b620001e86004803603810190620001e2919062001486565b620005d0565b604051620001f791906200146b565b60405180910390f35b6200021e600480360381019062000218919062001525565b62000600565b005b6200023e600480360381019062000238919062001486565b62000618565b005b6200025e600480360381019062000258919062001525565b620006b7565b005b6200026a620006cf565b005b62000276620006e6565b005b62000282620007a1565b6040516200029191906200146b565b60405180910390f35b620002a4620007c8565b604051620002b391906200146b565b60405180910390f35b620002c6620007ef565b604051620002d591906200157d565b60405180910390f35b620002e86200080c565b604051620002f791906200146b565b60405180910390f35b6200031e600480360381019062000318919062001486565b62000834565b005b6200032a6200096b565b604051620003399190620015a9565b60405180910390f35b5f8073ffffffffffffffffffffffffffffffffffffffff1660045f8573ffffffffffffffffffffffffffffffffffffffff1673ffffffffffffffffffffffffffffffffffffffff1681526020019081526020015f205f9054906101000a900473ffffffffffffffffffffffffffffffffffffffff1673ffffffffffffffffffffffffffffffffffffffff160362000500575f8284307f00000000000000000000000000000000000000000000000000000000000000006040516200040690620012cd565b6200041493929190620015c4565b8190604051809103905ff590508015801562000432573d5f803e3d5ffd5b5090507f74c65d7a8c9fdc2fea6eb644bb38e1c8ed16c4bd79de5f4c8a5bfbdb9675cd6f848260405162000468929190620015ff565b60405180910390a16200047c818462000971565b91508160045f8673ffffffffffffffffffffffffffffffffffffffff1673ffffffffffffffffffffffffffffffffffffffff1681526020019081526020015f205f6101000a81548173ffffffffffffffffffffffffffffffffffffffff021916908373ffffffffffffffffffffffffffffffffffffffff1602179055505062000560565b60045f8473ffffffffffffffffffffffffffffffffffffffff1673ffffffffffffffffffffffffffffffffffffffff1681526020019081526020015f205f9054906101000a900473ffffffffffffffffffffffffffffffffffffffff1690505b92915050565b5f7f0000000000000000000000000000000000000000000000000000000000000000905090565b6003602052805f5260405f205f915054906101000a900460ff1681565b6005600c9054906101000a900473ffffffffffffffffffffffffffffffffffffffff1681565b6004602052805f5260405f205f915054906101000a900473ffffffffffffffffffffffffffffffffffffffff1681565b6200060a62000d2d565b620006158162000dbd565b50565b6005600c9054906101000a900473ffffffffffffffffffffffffffffffffffffffff1673ffffffffffffffffffffffffffffffffffffffff166200065b62000e7f565b73ffffffffffffffffffffffffffffffffffffffff1614620006a9576040517f5f06a31e00000000000000000000000000000000000000000000000000000000815260040160405180910390fd5b620006b48162000e86565b50565b620006c162000d2d565b620006cc8162000ffb565b50565b620006d962000d2d565b620006e45f620011da565b565b5f620006f162000e7f565b90508073ffffffffffffffffffffffffffffffffffffffff16620007146200080c565b73ffffffffffffffffffffffffffffffffffffffff16146200076f57806040517f118cdaa70000000000000000000000000000000000000000000000000000000081526004016200076691906200146b565b60405180910390fd5b60025f6101000a81549073ffffffffffffffffffffffffffffffffffffffff02191690556200079e81620011da565b50565b5f7f0000000000000000000000000000000000000000000000000000000000000000905090565b5f805f9054906101000a900473ffffffffffffffffffffffffffffffffffffffff16905090565b60055f9054906101000a90046bffffffffffffffffffffffff1681565b5f60025f9054906101000a900473ffffffffffffffffffffffffffffffffffffffff16905090565b6005600c9054906101000a900473ffffffffffffffffffffffffffffffffffffffff1673ffffffffffffffffffffffffffffffffffffffff166200087762000e7f565b73ffffffffffffffffffffffffffffffffffffffff1614620008c5576040517f5f06a31e00000000000000000000000000000000000000000000000000000000815260040160405180910390fd5b8060025f6101000a81548173ffffffffffffffffffffffffffffffffffffffff021916908373ffffffffffffffffffffffffffffffffffffffff1602179055508073ffffffffffffffffffffffffffffffffffffffff1662000926620007c8565b73ffffffffffffffffffffffffffffffffffffffff167f38d16b8cac22d99fc7c124b9cd0de2d3fa1faef420bfe791d8c362d765e2270060405160405180910390a350565b60065481565b5f816200097d620007c8565b6200098762000566565b7f000000000000000000000000000000000000000000000000000000000000000073ffffffffffffffffffffffffffffffffffffffff166338d52e0f6040518163ffffffff1660e01b8152600401602060405180830381865afa158015620009f1573d5f803e3d5ffd5b505050506040513d601f19601f8201168201806040525081019062000a17919062001640565b7f000000000000000000000000000000000000000000000000000000000000000073ffffffffffffffffffffffffffffffffffffffff166306fdde036040518163ffffffff1660e01b81526004015f60405180830381865afa15801562000a80573d5f803e3d5ffd5b505050506040513d5f823e3d601f19601f8201168201806040525081019062000aaa9190620017e4565b60405160200162000abc9190620018a3565b6040516020818303038152906040527f000000000000000000000000000000000000000000000000000000000000000073ffffffffffffffffffffffffffffffffffffffff166395d89b416040518163ffffffff1660e01b81526004015f60405180830381865afa15801562000b34573d5f803e3d5ffd5b505050506040513d5f823e3d601f19601f8201168201806040525081019062000b5e9190620017e4565b60405160200162000b709190620018f2565b604051602081830303815290604052886005600c9054906101000a900473ffffffffffffffffffffffffffffffffffffffff1660055f9054906101000a90046bffffffffffffffffffffffff1660405162000bcb90620012db565b62000bde9897969594939291906200196b565b8190604051809103905ff590508015801562000bfc573d5f803e3d5ffd5b509050600160035f8373ffffffffffffffffffffffffffffffffffffffff1673ffffffffffffffffffffffffffffffffffffffff1681526020019081526020015f205f6101000a81548160ff02191690831515021790555062000c5e62000566565b73ffffffffffffffffffffffffffffffffffffffff163373ffffffffffffffffffffffffffffffffffffffff168273ffffffffffffffffffffffffffffffffffffffff167f16fd1abf080c4e4033aa07b9abf7edf2baed124de11f1b57782f10f9f623f86562000ccd620007c8565b876005600c9054906101000a900473ffffffffffffffffffffffffffffffffffffffff1660055f9054906101000a90046bffffffffffffffffffffffff168960405162000d1f95949392919062001a16565b60405180910390a492915050565b62000d3762000e7f565b73ffffffffffffffffffffffffffffffffffffffff1662000d57620007c8565b73ffffffffffffffffffffffffffffffffffffffff161462000dbb5762000d7d62000e7f565b6040517f118cdaa700000000000000000000000000000000000000000000000000000000815260040162000db291906200146b565b60405180910390fd5b565b600654810362000df9576040517fa741a04500000000000000000000000000000000000000000000000000000000815260040160405180910390fd5b670de0b6b3a764000081111562000e3c576040517fb776b4a800000000000000000000000000000000000000000000000000000000815260040160405180910390fd5b806006819055507f5be34322cfabe5fcd91b5b07bd988fb7651f4405d3081fa3e7c599e2cd8a30658160405162000e749190620015a9565b60405180910390a150565b5f33905090565b6005600c9054906101000a900473ffffffffffffffffffffffffffffffffffffffff1673ffffffffffffffffffffffffffffffffffffffff168173ffffffffffffffffffffffffffffffffffffffff160362000f0e576040517fa741a04500000000000000000000000000000000000000000000000000000000815260040160405180910390fd5b5f73ffffffffffffffffffffffffffffffffffffffff168173ffffffffffffffffffffffffffffffffffffffff160362000f74576040517fd92e233d00000000000000000000000000000000000000000000000000000000815260040160405180910390fd5b806005600c6101000a81548173ffffffffffffffffffffffffffffffffffffffff021916908373ffffffffffffffffffffffffffffffffffffffff1602179055508073ffffffffffffffffffffffffffffffffffffffff167fe43176ad83b85c7f6487987d0f13cbdc9e4a7010bfbf3148a181d1247e12067f60405160405180910390a250565b60055f9054906101000a90046bffffffffffffffffffffffff166bffffffffffffffffffffffff1681036200105c576040517fa741a04500000000000000000000000000000000000000000000000000000000815260040160405180910390fd5b6706f05b59d3b200008111156200109f576040517ff4df6ae500000000000000000000000000000000000000000000000000000000815260040160405180910390fd5b5f8114158015620010fd57505f73ffffffffffffffffffffffffffffffffffffffff166005600c9054906101000a900473ffffffffffffffffffffffffffffffffffffffff1673ffffffffffffffffffffffffffffffffffffffff16145b1562001135576040517fcff9f19400000000000000000000000000000000000000000000000000000000815260040160405180910390fd5b8060055f6101000a8154816bffffffffffffffffffffffff02191690836bffffffffffffffffffffffff1602179055506200116f62000e7f565b73ffffffffffffffffffffffffffffffffffffffff167f01fe2943baee27f47add82886c2200f910c749c461c9b63c5fe83901a53bdb4960055f9054906101000a90046bffffffffffffffffffffffff16604051620011cf919062001aa9565b60405180910390a250565b60015f6101000a81549073ffffffffffffffffffffffffffffffffffffffff021916905562001209816200120c565b50565b5f805f9054906101000a900473ffffffffffffffffffffffffffffffffffffffff169050815f806101000a81548173ffffffffffffffffffffffffffffffffffffffff021916908373ffffffffffffffffffffffffffffffffffffffff1602179055508173ffffffffffffffffffffffffffffffffffffffff168173ffffffffffffffffffffffffffffffffffffffff167f8be0079c531659141344cd1fd0a4f28419497f9722a3daafe3b4186f6b6457e060405160405180910390a35050565b6112d48062001ac583390190565b615b558062002d9983390190565b5f604051905090565b5f80fd5b5f80fd5b5f73ffffffffffffffffffffffffffffffffffffffff82169050919050565b5f6200132582620012fa565b9050919050565b620013378162001319565b811462001342575f80fd5b50565b5f8135905062001355816200132c565b92915050565b5f819050919050565b6200136f816200135b565b81146200137a575f80fd5b50565b5f813590506200138d8162001364565b92915050565b5f8060408385031215620013ac57620013ab620012f2565b5b5f620013bb8582860162001345565b9250506020620013ce858286016200137d565b9150509250929050565b5f819050919050565b5f62001401620013fb620013f584620012fa565b620013d8565b620012fa565b9050919050565b5f6200141482620013e1565b9050919050565b5f620014278262001408565b9050919050565b62001439816200141b565b82525050565b5f602082019050620014545f8301846200142e565b92915050565b620014658162001319565b82525050565b5f602082019050620014805f8301846200145a565b92915050565b5f602082840312156200149e576200149d620012f2565b5b5f620014ad8482850162001345565b91505092915050565b5f8115159050919050565b620014cc81620014b6565b82525050565b5f602082019050620014e75f830184620014c1565b92915050565b5f819050919050565b6200150181620014ed565b81146200150c575f80fd5b50565b5f813590506200151f81620014f6565b92915050565b5f602082840312156200153d576200153c620012f2565b5b5f6200154c848285016200150f565b91505092915050565b5f6bffffffffffffffffffffffff82169050919050565b620015778162001555565b82525050565b5f602082019050620015925f8301846200156c565b92915050565b620015a381620014ed565b82525050565b5f602082019050620015be5f83018462001598565b92915050565b5f606082019050620015d95f8301866200145a565b620015e860208301856200145a565b620015f760408301846200145a565b949350505050565b5f604082019050620016145f8301856200145a565b6200162360208301846200145a565b9392505050565b5f815190506200163a816200132c565b92915050565b5f60208284031215620016585762001657620012f2565b5b5f62001667848285016200162a565b91505092915050565b5f80fd5b5f80fd5b5f601f19601f8301169050919050565b7f4e487b71000000000000000000000000000000000000000000000000000000005f52604160045260245ffd5b620016c08262001678565b810181811067ffffffffffffffff82111715620016e257620016e162001688565b5b80604052505050565b5f620016f6620012e9565b9050620017048282620016b5565b919050565b5f67ffffffffffffffff82111562001726576200172562001688565b5b620017318262001678565b9050602081019050919050565b5f5b838110156200175d57808201518184015260208101905062001740565b5f8484015250505050565b5f6200177e620017788462001709565b620016eb565b9050828152602081018484840111156200179d576200179c62001674565b5b620017aa8482856200173e565b509392505050565b5f82601f830112620017c957620017c862001670565b5b8151620017db84826020860162001768565b91505092915050565b5f60208284031215620017fc57620017fb620012f2565b5b5f82015167ffffffffffffffff8111156200181c576200181b620012f6565b5b6200182a84828501620017b2565b91505092915050565b7f53656e64204561726e3a20000000000000000000000000000000000000000000815250565b5f81519050919050565b5f81905092915050565b5f620018798262001859565b62001885818562001863565b9350620018978185602086016200173e565b80840191505092915050565b5f620018af8262001833565b600b82019150620018c182846200186d565b915081905092915050565b7f7365000000000000000000000000000000000000000000000000000000000000815250565b5f620018fe82620018cc565b6002820191506200191082846200186d565b915081905092915050565b5f82825260208201905092915050565b5f620019378262001859565b6200194381856200191b565b9350620019558185602086016200173e565b620019608162001678565b840191505092915050565b5f61010082019050620019815f83018b6200145a565b62001990602083018a6200145a565b6200199f60408301896200145a565b8181036060830152620019b381886200192b565b90508181036080830152620019c981876200192b565b9050620019da60a08301866200145a565b620019e960c08301856200145a565b620019f860e08301846200156c565b9998505050505050505050565b62001a10816200135b565b82525050565b5f60a08201905062001a2b5f8301886200145a565b62001a3a60208301876200145a565b62001a4960408301866200145a565b62001a5860608301856200156c565b62001a67608083018462001a05565b9695505050505050565b5f62001a9162001a8b62001a858462001555565b620013d8565b620014ed565b9050919050565b62001aa38162001a71565b82525050565b5f60208201905062001abe5f83018462001a98565b9291505056fe60e060405234801562000010575f80fd5b50604051620012d4380380620012d483398181016040528101906200003691906200055c565b5f73ffffffffffffffffffffffffffffffffffffffff168373ffffffffffffffffffffffffffffffffffffffff16036200009c576040517fd92e233d00000000000000000000000000000000000000000000000000000000815260040160405180910390fd5b5f73ffffffffffffffffffffffffffffffffffffffff168273ffffffffffffffffffffffffffffffffffffffff160362000102576040517fd92e233d00000000000000000000000000000000000000000000000000000000815260040160405180910390fd5b5f73ffffffffffffffffffffffffffffffffffffffff168173ffffffffffffffffffffffffffffffffffffffff160362000168576040517fd92e233d00000000000000000000000000000000000000000000000000000000815260040160405180910390fd5b8273ffffffffffffffffffffffffffffffffffffffff1660a08173ffffffffffffffffffffffffffffffffffffffff16815250508173ffffffffffffffffffffffffffffffffffffffff1660808173ffffffffffffffffffffffffffffffffffffffff16815250508073ffffffffffffffffffffffffffffffffffffffff1660c08173ffffffffffffffffffffffffffffffffffffffff16815250505f60c05173ffffffffffffffffffffffffffffffffffffffff166338d52e0f6040518163ffffffff1660e01b8152600401602060405180830381865afa15801562000251573d5f803e3d5ffd5b505050506040513d601f19601f82011682018060405250810190620002779190620005b5565b9050620002c6827fffffffffffffffffffffffffffffffffffffffffffffffffffffffffffffffff8373ffffffffffffffffffffffffffffffffffffffff16620002d060201b9092919060201c565b50505050620006cb565b5f8373ffffffffffffffffffffffffffffffffffffffff1663095ea7b384846040516024016200030292919062000610565b604051602081830303815290604052915060e01b6020820180517bffffffffffffffffffffffffffffffffffffffffffffffffffffffff83818316178352505050509050620003588482620003fa60201b60201c565b620003f457620003e1848573ffffffffffffffffffffffffffffffffffffffff1663095ea7b3865f6040516024016200039392919062000685565b604051602081830303815290604052915060e01b6020820180517bffffffffffffffffffffffffffffffffffffffffffffffffffffffff83818316178352505050506200045660201b60201c565b620003f384826200045660201b60201c565b5b50505050565b5f805f8060205f8651602088015f8a5af192503d91505f5190508280156200044b57505f82146200042f57600181146200044a565b5f8673ffffffffffffffffffffffffffffffffffffffff163b115b5b935050505092915050565b5f8060205f8451602086015f885af18062000476576040513d5f823e3d81fd5b3d92505f519150505f821462000491576001811415620004ac565b5f8473ffffffffffffffffffffffffffffffffffffffff163b145b15620004f157836040517f5274afe7000000000000000000000000000000000000000000000000000000008152600401620004e89190620006b0565b60405180910390fd5b50505050565b5f80fd5b5f73ffffffffffffffffffffffffffffffffffffffff82169050919050565b5f6200052682620004fb565b9050919050565b62000538816200051a565b811462000543575f80fd5b50565b5f8151905062000556816200052d565b92915050565b5f805f60608486031215620005765762000575620004f7565b5b5f620005858682870162000546565b9350506020620005988682870162000546565b9250506040620005ab8682870162000546565b9150509250925092565b5f60208284031215620005cd57620005cc620004f7565b5b5f620005dc8482850162000546565b91505092915050565b620005f0816200051a565b82525050565b5f819050919050565b6200060a81620005f6565b82525050565b5f604082019050620006255f830185620005e5565b620006346020830184620005ff565b9392505050565b5f819050919050565b5f819050919050565b5f6200066d6200066762000661846200063b565b62000644565b620005f6565b9050919050565b6200067f816200064d565b82525050565b5f6040820190506200069a5f830185620005e5565b620006a9602083018462000674565b9392505050565b5f602082019050620006c55f830184620005e5565b92915050565b60805160a05160c051610bb4620007205f395f81816101360152818161043e0152818161056601526106f301525f81816105a301526106cf01525f818161035c0152818161047b01526106ab0152610bb45ff3fe608060405234801561000f575f80fd5b506004361061004a575f3560e01c80630c11dedd1461004e57806316a1614b1461006a57806345e05f4314610088578063ede6a80d146100a6575b5f80fd5b6100686004803603810190610063919061089e565b6100c4565b005b6100726106a9565b60405161007f9190610924565b60405180910390f35b6100906106cd565b60405161009d919061094c565b60405180910390f35b6100ae6106f1565b6040516100bb9190610985565b60405180910390f35b5f8173ffffffffffffffffffffffffffffffffffffffff166338d52e0f6040518163ffffffff1660e01b8152600401602060405180830381865afa15801561010e573d5f803e3d5ffd5b505050506040513d601f19601f8201168201806040525081019061013291906109c8565b90507f000000000000000000000000000000000000000000000000000000000000000073ffffffffffffffffffffffffffffffffffffffff166338d52e0f6040518163ffffffff1660e01b8152600401602060405180830381865afa15801561019d573d5f803e3d5ffd5b505050506040513d601f19601f820116820180604052508101906101c191906109c8565b73ffffffffffffffffffffffffffffffffffffffff168173ffffffffffffffffffffffffffffffffffffffff1614610225576040517f83c1010a00000000000000000000000000000000000000000000000000000000815260040160405180910390fd5b5f8273ffffffffffffffffffffffffffffffffffffffff166370a08231306040518263ffffffff1660e01b815260040161025f919061094c565b602060405180830381865afa15801561027a573d5f803e3d5ffd5b505050506040513d601f19601f8201168201806040525081019061029e9190610a26565b90505f81036102d9576040517f1f2a200500000000000000000000000000000000000000000000000000000000815260040160405180910390fd5b5f8373ffffffffffffffffffffffffffffffffffffffff1663ba0876528330306040518463ffffffff1660e01b815260040161031793929190610a60565b6020604051808303815f875af1158015610333573d5f803e3d5ffd5b505050506040513d601f19601f820116820180604052508101906103579190610a26565b90505f7f000000000000000000000000000000000000000000000000000000000000000073ffffffffffffffffffffffffffffffffffffffff1663f76541766040518163ffffffff1660e01b8152600401602060405180830381865afa1580156103c3573d5f803e3d5ffd5b505050506040513d601f19601f820116820180604052508101906103e79190610a26565b90505f61040782670de0b6b3a7640000856107159092919063ffffffff16565b90505f61043a83670de0b6b3a76400006104219190610ac2565b670de0b6b3a7640000866107159092919063ffffffff16565b90507f000000000000000000000000000000000000000000000000000000000000000073ffffffffffffffffffffffffffffffffffffffff16636e553f65837f000000000000000000000000000000000000000000000000000000000000000073ffffffffffffffffffffffffffffffffffffffff16634bde38c86040518163ffffffff1660e01b8152600401602060405180830381865afa1580156104e2573d5f803e3d5ffd5b505050506040513d601f19601f8201168201806040525081019061050691906109c8565b6040518363ffffffff1660e01b8152600401610523929190610af5565b6020604051808303815f875af115801561053f573d5f803e3d5ffd5b505050506040513d601f19601f820116820180604052508101906105639190610a26565b507f000000000000000000000000000000000000000000000000000000000000000073ffffffffffffffffffffffffffffffffffffffff16636e553f65827f00000000000000000000000000000000000000000000000000000000000000006040518363ffffffff1660e01b81526004016105df929190610af5565b6020604051808303815f875af11580156105fb573d5f803e3d5ffd5b505050506040513d601f19601f8201168201806040525081019061061f9190610a26565b508573ffffffffffffffffffffffffffffffffffffffff168773ffffffffffffffffffffffffffffffffffffffff163373ffffffffffffffffffffffffffffffffffffffff167fc4ce54c1320cadbd601d3a3e05fb803403da08142478a2b48085658aa1bda47f87868660405161069893929190610b1c565b60405180910390a450505050505050565b7f000000000000000000000000000000000000000000000000000000000000000081565b7f000000000000000000000000000000000000000000000000000000000000000081565b7f000000000000000000000000000000000000000000000000000000000000000081565b5f8083850290505f8019858709828110838203039150505f810361074d5783828161074357610742610b51565b5b04925050506107f3565b80841161076c5761076b6107665f8614601260116107fa565b610813565b5b5f8486880990508281118203915080830392505f855f038616905080860495508084049350600181825f0304019050808302841793505f600287600302189050808702600203810290508087026002038102905080870260020381029050808702600203810290508087026002038102905080870260020381029050808502955050505050505b9392505050565b5f61080484610824565b82841802821890509392505050565b634e487b715f52806020526024601cfd5b5f8115159050919050565b5f80fd5b5f73ffffffffffffffffffffffffffffffffffffffff82169050919050565b5f61085c82610833565b9050919050565b5f61086d82610852565b9050919050565b61087d81610863565b8114610887575f80fd5b50565b5f8135905061089881610874565b92915050565b5f602082840312156108b3576108b261082f565b5b5f6108c08482850161088a565b91505092915050565b5f819050919050565b5f6108ec6108e76108e284610833565b6108c9565b610833565b9050919050565b5f6108fd826108d2565b9050919050565b5f61090e826108f3565b9050919050565b61091e81610904565b82525050565b5f6020820190506109375f830184610915565b92915050565b61094681610852565b82525050565b5f60208201905061095f5f83018461093d565b92915050565b5f61096f826108f3565b9050919050565b61097f81610965565b82525050565b5f6020820190506109985f830184610976565b92915050565b6109a781610852565b81146109b1575f80fd5b50565b5f815190506109c28161099e565b92915050565b5f602082840312156109dd576109dc61082f565b5b5f6109ea848285016109b4565b91505092915050565b5f819050919050565b610a05816109f3565b8114610a0f575f80fd5b50565b5f81519050610a20816109fc565b92915050565b5f60208284031215610a3b57610a3a61082f565b5b5f610a4884828501610a12565b91505092915050565b610a5a816109f3565b82525050565b5f606082019050610a735f830186610a51565b610a80602083018561093d565b610a8d604083018461093d565b949350505050565b7f4e487b71000000000000000000000000000000000000000000000000000000005f52601160045260245ffd5b5f610acc826109f3565b9150610ad7836109f3565b9250828203905081811115610aef57610aee610a95565b5b92915050565b5f604082019050610b085f830185610a51565b610b15602083018461093d565b9392505050565b5f606082019050610b2f5f830186610a51565b610b3c6020830185610a51565b610b496040830184610a51565b949350505050565b7f4e487b71000000000000000000000000000000000000000000000000000000005f52601260045260245ffdfea2646970667358221220233d8489baba1ddd2a0e59b15e038686347225fe85f9786ef3bf848f5fc3034964736f6c634300081500336101e060405234801562000011575f80fd5b5060405162005b5538038062005b55833981810160405281019062000037919062000d4c565b8785806040518060400160405280600181526020017f3100000000000000000000000000000000000000000000000000000000000000815250898989816003908162000084919062001085565b50806004908162000096919062001085565b5050505f80620000ac83620005b660201b60201c565b9150915081620000be576012620000c0565b805b60ff1660a08160ff16815250508273ffffffffffffffffffffffffffffffffffffffff1660808173ffffffffffffffffffffffffffffffffffffffff16815250505050506200011a600583620006c960201b90919060201c565b610160818152505062000138600682620006c960201b90919060201c565b610180818152505081805190602001206101208181525050808051906020012061014081815250504660e08181525050620001786200071e60201b60201c565b60c081815250503073ffffffffffffffffffffffffffffffffffffffff166101008173ffffffffffffffffffffffffffffffffffffffff16815250505050505f73ffffffffffffffffffffffffffffffffffffffff168173ffffffffffffffffffffffffffffffffffffffff16036200022a575f6040517f1e4fbdf70000000000000000000000000000000000000000000000000000000081526004016200022191906200117a565b60405180910390fd5b6200023b816200077b60201b60201c565b505f73ffffffffffffffffffffffffffffffffffffffff168773ffffffffffffffffffffffffffffffffffffffff1603620002a2576040517fd92e233d00000000000000000000000000000000000000000000000000000000815260040160405180910390fd5b5f73ffffffffffffffffffffffffffffffffffffffff168373ffffffffffffffffffffffffffffffffffffffff1614620003175782600a5f6101000a81548173ffffffffffffffffffffffffffffffffffffffff021916908373ffffffffffffffffffffffffffffffffffffffff1602179055505b5f73ffffffffffffffffffffffffffffffffffffffff168273ffffffffffffffffffffffffffffffffffffffff16146200038c5781600b5f6101000a81548173ffffffffffffffffffffffffffffffffffffffff021916908373ffffffffffffffffffffffffffffffffffffffff1602179055505b6706f05b59d3b20000816bffffffffffffffffffffffff161115620003dd576040517ff4df6ae500000000000000000000000000000000000000000000000000000000815260040160405180910390fd5b5f816bffffffffffffffffffffffff16141580156200042757505f73ffffffffffffffffffffffffffffffffffffffff168373ffffffffffffffffffffffffffffffffffffffff16145b156200045f576040517fcff9f19400000000000000000000000000000000000000000000000000000000815260040160405180910390fd5b80600960146101000a8154816bffffffffffffffffffffffff02191690836bffffffffffffffffffffffff1602179055508673ffffffffffffffffffffffffffffffffffffffff166101a08173ffffffffffffffffffffffffffffffffffffffff16815250506200054d8673ffffffffffffffffffffffffffffffffffffffff1663313ce5676040518163ffffffff1660e01b8152600401602060405180830381865afa15801562000513573d5f803e3d5ffd5b505050506040513d601f19601f82011682018060405250810190620005399190620011d0565b60ff166012620007b360201b90919060201c565b60ff166101c08160ff1681525050620005a8877fffffffffffffffffffffffffffffffffffffffffffffffffffffffffffffffff8873ffffffffffffffffffffffffffffffffffffffff16620007c360201b9092919060201c565b5050505050505050620014e4565b5f805f808473ffffffffffffffffffffffffffffffffffffffff1660405160240160405160208183030381529060405263313ce56760e01b6020820180517bffffffffffffffffffffffffffffffffffffffffffffffffffffffff83818316178352505050506040516200062b91906200124a565b5f60405180830381855afa9150503d805f811462000665576040519150601f19603f3d011682016040523d82523d5f602084013e6200066a565b606091505b50915091508180156200067f57506020815110155b15620006bb575f818060200190518101906200069c919062001291565b905060ff80168111620006b95760018194509450505050620006c4565b505b5f809350935050505b915091565b5f602083511015620006ee57620006e683620008ed60201b60201c565b905062000718565b8262000700836200095760201b60201c565b5f01908162000710919062001085565b5060ff5f1b90505b92915050565b5f7f8b73c3c69bb8fe3d512ecc4cf759cc79239f7b179b0ffacaa9a75d522b39400f6101205161014051463060405160200162000760959493929190620012ec565b60405160208183030381529060405280519060200120905090565b60095f6101000a81549073ffffffffffffffffffffffffffffffffffffffff0219169055620007b0816200096060201b60201c565b50565b5f81830382841102905092915050565b5f8373ffffffffffffffffffffffffffffffffffffffff1663095ea7b38484604051602401620007f592919062001347565b604051602081830303815290604052915060e01b6020820180517bffffffffffffffffffffffffffffffffffffffffffffffffffffffff838183161783525050505090506200084b848262000a2360201b60201c565b620008e757620008d4848573ffffffffffffffffffffffffffffffffffffffff1663095ea7b3865f60405160240162000886929190620013b3565b604051602081830303815290604052915060e01b6020820180517bffffffffffffffffffffffffffffffffffffffffffffffffffffffff838183161783525050505062000a7f60201b60201c565b620008e6848262000a7f60201b60201c565b5b50505050565b5f80829050601f815111156200093c57826040517f305a27a90000000000000000000000000000000000000000000000000000000081526004016200093391906200142e565b60405180910390fd5b8051816200094a9062001475565b5f1c175f1b915050919050565b5f819050919050565b5f60085f9054906101000a900473ffffffffffffffffffffffffffffffffffffffff1690508160085f6101000a81548173ffffffffffffffffffffffffffffffffffffffff021916908373ffffffffffffffffffffffffffffffffffffffff1602179055508173ffffffffffffffffffffffffffffffffffffffff168173ffffffffffffffffffffffffffffffffffffffff167f8be0079c531659141344cd1fd0a4f28419497f9722a3daafe3b4186f6b6457e060405160405180910390a35050565b5f805f8060205f8651602088015f8a5af192503d91505f51905082801562000a7457505f821462000a58576001811462000a73565b5f8673ffffffffffffffffffffffffffffffffffffffff163b115b5b935050505092915050565b5f8060205f8451602086015f885af18062000a9f576040513d5f823e3d81fd5b3d92505f519150505f821462000aba57600181141562000ad5565b5f8473ffffffffffffffffffffffffffffffffffffffff163b145b1562000b1a57836040517f5274afe700000000000000000000000000000000000000000000000000000000815260040162000b1191906200117a565b60405180910390fd5b50505050565b5f604051905090565b5f80fd5b5f80fd5b5f73ffffffffffffffffffffffffffffffffffffffff82169050919050565b5f62000b5c8262000b31565b9050919050565b62000b6e8162000b50565b811462000b79575f80fd5b50565b5f8151905062000b8c8162000b63565b92915050565b5f80fd5b5f80fd5b5f601f19601f8301169050919050565b7f4e487b71000000000000000000000000000000000000000000000000000000005f52604160045260245ffd5b62000be28262000b9a565b810181811067ffffffffffffffff8211171562000c045762000c0362000baa565b5b80604052505050565b5f62000c1862000b20565b905062000c26828262000bd7565b919050565b5f67ffffffffffffffff82111562000c485762000c4762000baa565b5b62000c538262000b9a565b9050602081019050919050565b5f5b8381101562000c7f57808201518184015260208101905062000c62565b5f8484015250505050565b5f62000ca062000c9a8462000c2b565b62000c0d565b90508281526020810184848401111562000cbf5762000cbe62000b96565b5b62000ccc84828562000c60565b509392505050565b5f82601f83011262000ceb5762000cea62000b92565b5b815162000cfd84826020860162000c8a565b91505092915050565b5f6bffffffffffffffffffffffff82169050919050565b62000d288162000d06565b811462000d33575f80fd5b50565b5f8151905062000d468162000d1d565b92915050565b5f805f805f805f80610100898b03121562000d6c5762000d6b62000b29565b5b5f62000d7b8b828c0162000b7c565b985050602062000d8e8b828c0162000b7c565b975050604062000da18b828c0162000b7c565b965050606089015167ffffffffffffffff81111562000dc55762000dc462000b2d565b5b62000dd38b828c0162000cd4565b955050608089015167ffffffffffffffff81111562000df75762000df662000b2d565b5b62000e058b828c0162000cd4565b94505060a062000e188b828c0162000b7c565b93505060c062000e2b8b828c0162000b7c565b92505060e062000e3e8b828c0162000d36565b9150509295985092959890939650565b5f81519050919050565b7f4e487b71000000000000000000000000000000000000000000000000000000005f52602260045260245ffd5b5f600282049050600182168062000e9d57607f821691505b60208210810362000eb35762000eb262000e58565b5b50919050565b5f819050815f5260205f209050919050565b5f6020601f8301049050919050565b5f82821b905092915050565b5f6008830262000f177fffffffffffffffffffffffffffffffffffffffffffffffffffffffffffffffff8262000eda565b62000f23868362000eda565b95508019841693508086168417925050509392505050565b5f819050919050565b5f819050919050565b5f62000f6d62000f6762000f618462000f3b565b62000f44565b62000f3b565b9050919050565b5f819050919050565b62000f888362000f4d565b62000fa062000f978262000f74565b84845462000ee6565b825550505050565b5f90565b62000fb662000fa8565b62000fc381848462000f7d565b505050565b5b8181101562000fea5762000fde5f8262000fac565b60018101905062000fc9565b5050565b601f8211156200103957620010038162000eb9565b6200100e8462000ecb565b810160208510156200101e578190505b620010366200102d8562000ecb565b83018262000fc8565b50505b505050565b5f82821c905092915050565b5f6200105b5f19846008026200103e565b1980831691505092915050565b5f6200107583836200104a565b9150826002028217905092915050565b620010908262000e4e565b67ffffffffffffffff811115620010ac57620010ab62000baa565b5b620010b8825462000e85565b620010c582828562000fee565b5f60209050601f831160018114620010fb575f8415620010e6578287015190505b620010f2858262001068565b86555062001161565b601f1984166200110b8662000eb9565b5f5b8281101562001134578489015182556001820191506020850194506020810190506200110d565b8683101562001154578489015162001150601f8916826200104a565b8355505b6001600288020188555050505b505050505050565b620011748162000b50565b82525050565b5f6020820190506200118f5f83018462001169565b92915050565b5f60ff82169050919050565b620011ac8162001195565b8114620011b7575f80fd5b50565b5f81519050620011ca81620011a1565b92915050565b5f60208284031215620011e857620011e762000b29565b5b5f620011f784828501620011ba565b91505092915050565b5f81519050919050565b5f81905092915050565b5f620012208262001200565b6200122c81856200120a565b93506200123e81856020860162000c60565b80840191505092915050565b5f62001257828462001214565b915081905092915050565b6200126d8162000f3b565b811462001278575f80fd5b50565b5f815190506200128b8162001262565b92915050565b5f60208284031215620012a957620012a862000b29565b5b5f620012b8848285016200127b565b91505092915050565b5f819050919050565b620012d581620012c1565b82525050565b620012e68162000f3b565b82525050565b5f60a082019050620013015f830188620012ca565b620013106020830187620012ca565b6200131f6040830186620012ca565b6200132e6060830185620012db565b6200133d608083018462001169565b9695505050505050565b5f6040820190506200135c5f83018562001169565b6200136b6020830184620012db565b9392505050565b5f819050919050565b5f6200139b620013956200138f8462001372565b62000f44565b62000f3b565b9050919050565b620013ad816200137b565b82525050565b5f604082019050620013c85f83018562001169565b620013d76020830184620013a2565b9392505050565b5f82825260208201905092915050565b5f620013fa8262000e4e565b620014068185620013de565b93506200141881856020860162000c60565b620014238162000b9a565b840191505092915050565b5f6020820190508181035f830152620014488184620013ee565b905092915050565b5f819050602082019050919050565b5f6200146c8251620012c1565b80915050919050565b5f620014818262001200565b826200148d8462001450565b90506200149a816200145f565b92506020821015620014dd57620014d87fffffffffffffffffffffffffffffffffffffffffffffffffffffffffffffffff8360200360080262000eda565b831692505b5050919050565b60805160a05160c05160e05161010051610120516101405161016051610180516101a0516101c0516145b86200159d5f395f81816114a601526129e101525f818161092b0152818161096701528181610d7d01528181611d9401528181611f9201528181612257015261234c01525f61210201525f6120c701525f612a4a01525f612a2901525f611cde01525f611d3401525f611d5d01525f611cad01525f8181610d4701528181612b6b0152612e5401526145b85ff3fe608060405234801561000f575f80fd5b5060043610610288575f3560e01c80638da5cb5b1161015a578063c6e6f592116100cc578063e30c397811610085578063e30c397814610868578063e562dfd614610886578063e74b981b146108a4578063ef8b30f7146108c0578063f07cef3e146108f0578063f2fde38b1461090c57610288565b8063c6e6f5921461076e578063ce96cb771461079e578063d505accf146107ce578063d905777e146107ea578063dd62ed3e1461081a578063ddca3f431461084a57610288565b8063aea70acc1161011e578063aea70acc14610686578063b26cc394146106a4578063b3d7f6b9146106ae578063b460af94146106de578063ba0876521461070e578063c63d75b61461073e57610288565b80638da5cb5b146105ba57806394bf804d146105d857806395d89b4114610608578063a9059cbb14610626578063ac9650d81461065657610288565b8063402d267d116101fe5780636e553f65116101b75780636e553f65146104f257806370a0823114610522578063715018a61461055257806379ba50971461055c5780637ecebe001461056657806384b0196e1461059657610288565b8063402d267d1461041c578063411557d11461044c578063469048401461046a5780634cdad50614610488578063568efc07146104b857806369fe0e2d146104d657610288565b80630a28a477116102505780630a28a4771461034457806318160ddd1461037457806323b872dd14610392578063313ce567146103c25780633644e515146103e057806338d52e0f146103fe57610288565b806301e1d1141461028c57806306ec16f8146102aa57806306fdde03146102c657806307a2d13a146102e4578063095ea7b314610314575b5f80fd5b610294610928565b6040516102a191906134fe565b60405180910390f35b6102c460048036038101906102bf9190613579565b610a5d565b005b6102ce610c1a565b6040516102db919061362e565b60405180910390f35b6102fe60048036038101906102f99190613678565b610caa565b60405161030b91906134fe565b60405180910390f35b61032e600480360381019061032991906136a3565b610cbc565b60405161033b91906136fb565b60405180910390f35b61035e60048036038101906103599190613678565b610cde565b60405161036b91906134fe565b60405180910390f35b61037c610cf1565b60405161038991906134fe565b60405180910390f35b6103ac60048036038101906103a79190613714565b610cfa565b6040516103b991906136fb565b60405180910390f35b6103ca610d28565b6040516103d7919061377f565b60405180910390f35b6103e8610d36565b6040516103f591906137b0565b60405180910390f35b610406610d44565b60405161041391906137d8565b60405180910390f35b61043660048036038101906104319190613579565b610d6b565b60405161044391906134fe565b60405180910390f35b610454610d7b565b604051610461919061384c565b60405180910390f35b610472610d9f565b60405161047f91906137d8565b60405180910390f35b6104a2600480360381019061049d9190613678565b610dc4565b6040516104af91906134fe565b60405180910390f35b6104c0610dd6565b6040516104cd91906134fe565b60405180910390f35b6104f060048036038101906104eb9190613678565b610ddc565b005b61050c60048036038101906105079190613865565b610fc5565b60405161051991906134fe565b60405180910390f35b61053c60048036038101906105379190613579565b611007565b60405161054991906134fe565b60405180910390f35b61055a61104c565b005b61056461105f565b005b610580600480360381019061057b9190613579565b6110ed565b60405161058d91906134fe565b60405180910390f35b61059e6110fe565b6040516105b19796959493929190613994565b60405180910390f35b6105c26111a3565b6040516105cf91906137d8565b60405180910390f35b6105f260048036038101906105ed9190613865565b6111cb565b6040516105ff91906134fe565b60405180910390f35b61061061120e565b60405161061d919061362e565b60405180910390f35b610640600480360381019061063b91906136a3565b61129e565b60405161064d91906136fb565b60405180910390f35b610670600480360381019061066b9190613a77565b6112c0565b60405161067d9190613bcf565b60405180910390f35b61068e6114a4565b60405161069b919061377f565b60405180910390f35b6106ac6114c8565b005b6106c860048036038101906106c39190613678565b6114da565b6040516106d591906134fe565b60405180910390f35b6106f860048036038101906106f39190613bef565b6114ed565b60405161070591906134fe565b60405180910390f35b61072860048036038101906107239190613bef565b611546565b60405161073591906134fe565b60405180910390f35b61075860048036038101906107539190613579565b61159e565b60405161076591906134fe565b60405180910390f35b61078860048036038101906107839190613678565b6115bc565b60405161079591906134fe565b60405180910390f35b6107b860048036038101906107b39190613579565b6115ce565b6040516107c591906134fe565b60405180910390f35b6107e860048036038101906107e39190613c93565b6115e4565b005b61080460048036038101906107ff9190613579565b611729565b60405161081191906134fe565b60405180910390f35b610834600480360381019061082f9190613d30565b611752565b60405161084191906134fe565b60405180910390f35b6108526117d4565b60405161085f9190613d94565b60405180910390f35b6108706117f2565b60405161087d91906137d8565b60405180910390f35b61088e61181a565b60405161089b91906137d8565b60405180910390f35b6108be60048036038101906108b99190613579565b61183f565b005b6108da60048036038101906108d59190613678565b6118cd565b6040516108e791906134fe565b60405180910390f35b61090a60048036038101906109059190613579565b6118df565b005b61092660048036038101906109219190613579565b61196d565b005b5f7f000000000000000000000000000000000000000000000000000000000000000073ffffffffffffffffffffffffffffffffffffffff166307a2d13a7f000000000000000000000000000000000000000000000000000000000000000073ffffffffffffffffffffffffffffffffffffffff166370a08231306040518263ffffffff1660e01b81526004016109be91906137d8565b602060405180830381865afa1580156109d9573d5f803e3d5ffd5b505050506040513d601f19601f820116820180604052508101906109fd9190613dc1565b6040518263ffffffff1660e01b8152600401610a1991906134fe565b602060405180830381865afa158015610a34573d5f803e3d5ffd5b505050506040513d601f19601f82011682018060405250810190610a589190613dc1565b905090565b5f73ffffffffffffffffffffffffffffffffffffffff16600b5f9054906101000a900473ffffffffffffffffffffffffffffffffffffffff1673ffffffffffffffffffffffffffffffffffffffff1603610ae3576040517fd92e233d00000000000000000000000000000000000000000000000000000000815260040160405180910390fd5b5f8173ffffffffffffffffffffffffffffffffffffffff166370a08231306040518263ffffffff1660e01b8152600401610b1d91906137d8565b602060405180830381865afa158015610b38573d5f803e3d5ffd5b505050506040513d601f19601f82011682018060405250810190610b5c9190613dc1565b9050610baa600b5f9054906101000a900473ffffffffffffffffffffffffffffffffffffffff16828473ffffffffffffffffffffffffffffffffffffffff16611a199092919063ffffffff16565b8173ffffffffffffffffffffffffffffffffffffffff16610bc9611a98565b73ffffffffffffffffffffffffffffffffffffffff167f1314fd112a381beea61539dbd21ec04afcff2662ac7d1b83273aade1f53d1b9783604051610c0e91906134fe565b60405180910390a35050565b606060038054610c2990613e19565b80601f0160208091040260200160405190810160405280929190818152602001828054610c5590613e19565b8015610ca05780601f10610c7757610100808354040283529160200191610ca0565b820191905f5260205f20905b815481529060010190602001808311610c8357829003601f168201915b5050505050905090565b5f610cb5825f611a9f565b9050919050565b5f80610cc6611a98565b9050610cd3818585611ad6565b600191505092915050565b5f610cea826001611ae8565b9050919050565b5f600254905090565b5f80610d04611a98565b9050610d11858285611b1f565b610d1c858585611bb2565b60019150509392505050565b5f610d31611ca2565b905090565b5f610d3f611cdb565b905090565b5f7f0000000000000000000000000000000000000000000000000000000000000000905090565b5f610d74611d91565b9050919050565b7f000000000000000000000000000000000000000000000000000000000000000081565b600a5f9054906101000a900473ffffffffffffffffffffffffffffffffffffffff1681565b5f610dcf825f611a9f565b9050919050565b600c5481565b610de4611e2f565b600960149054906101000a90046bffffffffffffffffffffffff166bffffffffffffffffffffffff168103610e45576040517fa741a04500000000000000000000000000000000000000000000000000000000815260040160405180910390fd5b6706f05b59d3b20000811115610e87576040517ff4df6ae500000000000000000000000000000000000000000000000000000000815260040160405180910390fd5b5f8114158015610ee357505f73ffffffffffffffffffffffffffffffffffffffff16600a5f9054906101000a900473ffffffffffffffffffffffffffffffffffffffff1673ffffffffffffffffffffffffffffffffffffffff16145b15610f1a576040517fcff9f19400000000000000000000000000000000000000000000000000000000815260040160405180910390fd5b610f226114c8565b80600960146101000a8154816bffffffffffffffffffffffff02191690836bffffffffffffffffffffffff160217905550610f5b611a98565b73ffffffffffffffffffffffffffffffffffffffff167f01fe2943baee27f47add82886c2200f910c749c461c9b63c5fe83901a53bdb49600960149054906101000a90046bffffffffffffffffffffffff16604051610fba9190613e79565b60405180910390a250565b5f80610fcf611eb6565b905080600c81905550610feb84610fe4610cf1565b835f611f38565b9150611000610ff8611a98565b848685611f84565b5092915050565b5f805f8373ffffffffffffffffffffffffffffffffffffffff1673ffffffffffffffffffffffffffffffffffffffff1681526020019081526020015f20549050919050565b611054611e2f565b61105d5f612048565b565b5f611068611a98565b90508073ffffffffffffffffffffffffffffffffffffffff166110896117f2565b73ffffffffffffffffffffffffffffffffffffffff16146110e157806040517f118cdaa70000000000000000000000000000000000000000000000000000000081526004016110d891906137d8565b60405180910390fd5b6110ea81612048565b50565b5f6110f782612078565b9050919050565b5f6060805f805f606061110f6120be565b6111176120f9565b46305f801b5f67ffffffffffffffff81111561113657611135613e92565b5b6040519080825280602002602001820160405280156111645781602001602082028036833780820191505090505b507f0f00000000000000000000000000000000000000000000000000000000000000959493929190965096509650965096509650965090919293949596565b5f60085f9054906101000a900473ffffffffffffffffffffffffffffffffffffffff16905090565b5f806111d5611eb6565b905080600c819055506111f2846111ea610cf1565b836001612134565b91506112076111ff611a98565b848487611f84565b5092915050565b60606004805461121d90613e19565b80601f016020809104026020016040519081016040528092919081815260200182805461124990613e19565b80156112945780601f1061126b57610100808354040283529160200191611294565b820191905f5260205f20905b81548152906001019060200180831161127757829003601f168201915b5050505050905090565b5f806112a8611a98565b90506112b5818585611bb2565b600191505092915050565b60605f6112cb611a98565b73ffffffffffffffffffffffffffffffffffffffff163373ffffffffffffffffffffffffffffffffffffffff161461136b575f36611307612180565b5f3690506113159190613eec565b90809261132493929190613f27565b8080601f0160208091040260200160405190810160405280939291908181526020018383808284375f81840152601f19601f820116905080830192505050505050506113b9565b5f67ffffffffffffffff81111561138557611384613e92565b5b6040519080825280601f01601f1916602001820160405280156113b75781602001600182028036833780820191505090505b505b90508383905067ffffffffffffffff8111156113d8576113d7613e92565b5b60405190808252806020026020018201604052801561140b57816020015b60608152602001906001900390816113f65790505b5091505f5b8484905081101561149c5761146b3086868481811061143257611431613f61565b5b90506020028101906114449190613f9a565b8560405160200161145793929190614068565b604051602081830303815290604052612184565b83828151811061147e5761147d613f61565b5b602002602001018190525080806114949061408d565b915050611410565b505092915050565b7f000000000000000000000000000000000000000000000000000000000000000081565b6114d86114d3611eb6565b612204565b565b5f6114e6826001611a9f565b9050919050565b5f806114f7611eb6565b905061150d85611505610cf1565b836001611f38565b915061152a611525868361224590919063ffffffff16565b612204565b61153e611535611a98565b85858886612255565b509392505050565b5f80611550611eb6565b90506115658561155e610cf1565b835f612134565b915061158261157d838361224590919063ffffffff16565b612204565b61159661158d611a98565b85858589612255565b509392505050565b5f806115a8611d91565b90506115b4815f611ae8565b915050919050565b5f6115c7825f611ae8565b9050919050565b5f6115d882612307565b90505080915050919050565b8342111561162957836040517f6279130200000000000000000000000000000000000000000000000000000000815260040161162091906134fe565b60405180910390fd5b5f7f6e71edae12b1b97f4d1f60370fef10105fa2faae0126114a169c64845d6126c98888886116578c6123f1565b8960405160200161166d969594939291906140d4565b6040516020818303038152906040528051906020012090505f61168f82612444565b90505f61169e8287878761245d565b90508973ffffffffffffffffffffffffffffffffffffffff168173ffffffffffffffffffffffffffffffffffffffff161461171257808a6040517f4b800e46000000000000000000000000000000000000000000000000000000008152600401611709929190614133565b60405180910390fd5b61171d8a8a8a611ad6565b50505050505050505050565b5f805f8061173685612307565b9250925092506117488383835f611f38565b9350505050919050565b5f60015f8473ffffffffffffffffffffffffffffffffffffffff1673ffffffffffffffffffffffffffffffffffffffff1681526020019081526020015f205f8373ffffffffffffffffffffffffffffffffffffffff1673ffffffffffffffffffffffffffffffffffffffff1681526020019081526020015f2054905092915050565b600960149054906101000a90046bffffffffffffffffffffffff1681565b5f60095f9054906101000a900473ffffffffffffffffffffffffffffffffffffffff16905090565b600b5f9054906101000a900473ffffffffffffffffffffffffffffffffffffffff1681565b611847611e2f565b80600a5f6101000a81548173ffffffffffffffffffffffffffffffffffffffff021916908373ffffffffffffffffffffffffffffffffffffffff1602179055508073ffffffffffffffffffffffffffffffffffffffff167f2e979f80fe4d43055c584cf4a8467c55875ea36728fc37176c05acd784eb7a7360405160405180910390a250565b5f6118d8825f611ae8565b9050919050565b6118e7611e2f565b80600b5f6101000a81548173ffffffffffffffffffffffffffffffffffffffff021916908373ffffffffffffffffffffffffffffffffffffffff1602179055508073ffffffffffffffffffffffffffffffffffffffff167fbf4da31489bf7d607626c05856478443f1ecd2ca7b005fe2f83a45fbd9fe1ee760405160405180910390a250565b611975611e2f565b8060095f6101000a81548173ffffffffffffffffffffffffffffffffffffffff021916908373ffffffffffffffffffffffffffffffffffffffff1602179055508073ffffffffffffffffffffffffffffffffffffffff166119d46111a3565b73ffffffffffffffffffffffffffffffffffffffff167f38d16b8cac22d99fc7c124b9cd0de2d3fa1faef420bfe791d8c362d765e2270060405160405180910390a350565b611a93838473ffffffffffffffffffffffffffffffffffffffff1663a9059cbb8585604051602401611a4c92919061415a565b604051602081830303815290604052915060e01b6020820180517bffffffffffffffffffffffffffffffffffffffffffffffffffffffff838183161783525050505061248b565b505050565b5f33905090565b5f805f611aaa612526565b91509150611acc8583611abb610cf1565b611ac59190614181565b8387612134565b9250505092915050565b611ae383838360016125f6565b505050565b5f805f611af3612526565b91509150611b158583611b04610cf1565b611b0e9190614181565b8387611f38565b9250505092915050565b5f611b2a8484611752565b90507fffffffffffffffffffffffffffffffffffffffffffffffffffffffffffffffff811015611bac5781811015611b9d578281836040517ffb8f41b2000000000000000000000000000000000000000000000000000000008152600401611b94939291906141b4565b60405180910390fd5b611bab84848484035f6125f6565b5b50505050565b5f73ffffffffffffffffffffffffffffffffffffffff168373ffffffffffffffffffffffffffffffffffffffff1603611c22575f6040517f96c6fd1e000000000000000000000000000000000000000000000000000000008152600401611c1991906137d8565b60405180910390fd5b5f73ffffffffffffffffffffffffffffffffffffffff168273ffffffffffffffffffffffffffffffffffffffff1603611c92575f6040517fec442f05000000000000000000000000000000000000000000000000000000008152600401611c8991906137d8565b60405180910390fd5b611c9d8383836127c5565b505050565b5f611cab6129de565b7f0000000000000000000000000000000000000000000000000000000000000000611cd691906141e9565b905090565b5f7f000000000000000000000000000000000000000000000000000000000000000073ffffffffffffffffffffffffffffffffffffffff163073ffffffffffffffffffffffffffffffffffffffff16148015611d5657507f000000000000000000000000000000000000000000000000000000000000000046145b15611d83577f00000000000000000000000000000000000000000000000000000000000000009050611d8e565b611d8b612a05565b90505b90565b5f7f000000000000000000000000000000000000000000000000000000000000000073ffffffffffffffffffffffffffffffffffffffff1663402d267d306040518263ffffffff1660e01b8152600401611deb91906137d8565b602060405180830381865afa158015611e06573d5f803e3d5ffd5b505050506040513d601f19601f82011682018060405250810190611e2a9190613dc1565b905090565b611e37611a98565b73ffffffffffffffffffffffffffffffffffffffff16611e556111a3565b73ffffffffffffffffffffffffffffffffffffffff1614611eb457611e78611a98565b6040517f118cdaa7000000000000000000000000000000000000000000000000000000008152600401611eab91906137d8565b60405180910390fd5b565b5f80611ec0612526565b80935081925050505f8114611efb57611efa600a5f9054906101000a900473ffffffffffffffffffffffffffffffffffffffff1682612a9a565b5b7ff66f28b40975dbb933913542c7e6a0f50a1d0f20aa74ea6e0efe65ab616323ec8282604051611f2c92919061421d565b60405180910390a15090565b5f611f7a611f446129de565b600a611f509190614373565b85611f5b9190614181565b600185611f689190614181565b8488612b19909392919063ffffffff16565b9050949350505050565b611f9084848484612b66565b7f000000000000000000000000000000000000000000000000000000000000000073ffffffffffffffffffffffffffffffffffffffff16636e553f6583306040518363ffffffff1660e01b8152600401611feb9291906143bd565b6020604051808303815f875af1158015612007573d5f803e3d5ffd5b505050506040513d601f19601f8201168201806040525081019061202b9190613dc1565b5061204282600c5461203d9190614181565b612204565b50505050565b60095f6101000a81549073ffffffffffffffffffffffffffffffffffffffff021916905561207581612c09565b50565b5f60075f8373ffffffffffffffffffffffffffffffffffffffff1673ffffffffffffffffffffffffffffffffffffffff1681526020019081526020015f20549050919050565b60606120f460057f0000000000000000000000000000000000000000000000000000000000000000612ccc90919063ffffffff16565b905090565b606061212f60067f0000000000000000000000000000000000000000000000000000000000000000612ccc90919063ffffffff16565b905090565b5f6121766001846121459190614181565b61214d6129de565b600a6121599190614373565b866121649190614181565b8488612b19909392919063ffffffff16565b9050949350505050565b5f90565b60605f808473ffffffffffffffffffffffffffffffffffffffff16846040516121ad91906143e4565b5f60405180830381855af49150503d805f81146121e5576040519150601f19603f3d011682016040523d82523d5f602084013e6121ea565b606091505b50915091506121fa858383612d79565b9250505092915050565b80600c819055507f15c027cc4fd826d986cad358803439f7326d3aa4ed969ff90dbee4bc150f68e98160405161223a91906134fe565b60405180910390a150565b5f81830382841102905092915050565b7f000000000000000000000000000000000000000000000000000000000000000073ffffffffffffffffffffffffffffffffffffffff1663b460af948330306040518463ffffffff1660e01b81526004016122b2939291906143fa565b6020604051808303815f875af11580156122ce573d5f803e3d5ffd5b505050506040513d601f19601f820116820180604052508101906122f29190613dc1565b506123008585858585612e06565b5050505050565b5f805f80612313612526565b809350819250505080612324610cf1565b61232e9190614181565b925061234461233c86611007565b84845f612134565b93506123e7847f000000000000000000000000000000000000000000000000000000000000000073ffffffffffffffffffffffffffffffffffffffff1663ce96cb77306040518263ffffffff1660e01b81526004016123a391906137d8565b602060405180830381865afa1580156123be573d5f803e3d5ffd5b505050506040513d601f19601f820116820180604052508101906123e29190613dc1565b612eff565b9350509193909250565b5f60075f8373ffffffffffffffffffffffffffffffffffffffff1673ffffffffffffffffffffffffffffffffffffffff1681526020019081526020015f205f815480929190600101919050559050919050565b5f612456612450611cdb565b83612f11565b9050919050565b5f805f8061246d88888888612f51565b92509250925061247d8282613038565b829350505050949350505050565b5f8060205f8451602086015f885af1806124aa576040513d5f823e3d81fd5b3d92505f519150505f82146124c35760018114156124de565b5f8473ffffffffffffffffffffffffffffffffffffffff163b145b1561252057836040517f5274afe700000000000000000000000000000000000000000000000000000000815260040161251791906137d8565b60405180910390fd5b50505050565b5f80612530610928565b90505f612548600c548361224590919063ffffffff16565b90505f811415801561258257505f600960149054906101000a90046bffffffffffffffffffffffff166bffffffffffffffffffffffff1614155b156125f1575f6125cd600960149054906101000a90046bffffffffffffffffffffffff166bffffffffffffffffffffffff16670de0b6b3a76400008461319a9092919063ffffffff16565b90506125ed816125db610cf1565b83866125e79190613eec565b5f611f38565b9350505b509091565b5f73ffffffffffffffffffffffffffffffffffffffff168473ffffffffffffffffffffffffffffffffffffffff1603612666575f6040517fe602df0500000000000000000000000000000000000000000000000000000000815260040161265d91906137d8565b60405180910390fd5b5f73ffffffffffffffffffffffffffffffffffffffff168373ffffffffffffffffffffffffffffffffffffffff16036126d6575f6040517f94280d620000000000000000000000000000000000000000000000000000000081526004016126cd91906137d8565b60405180910390fd5b8160015f8673ffffffffffffffffffffffffffffffffffffffff1673ffffffffffffffffffffffffffffffffffffffff1681526020019081526020015f205f8573ffffffffffffffffffffffffffffffffffffffff1673ffffffffffffffffffffffffffffffffffffffff1681526020019081526020015f208190555080156127bf578273ffffffffffffffffffffffffffffffffffffffff168473ffffffffffffffffffffffffffffffffffffffff167f8c5be1e5ebec7d5bd14f71427d1e84f3dd0314c0f7b2291e5b200ac8c7c3b925846040516127b691906134fe565b60405180910390a35b50505050565b5f73ffffffffffffffffffffffffffffffffffffffff168373ffffffffffffffffffffffffffffffffffffffff1603612815578060025f8282546128099190614181565b925050819055506128e3565b5f805f8573ffffffffffffffffffffffffffffffffffffffff1673ffffffffffffffffffffffffffffffffffffffff1681526020019081526020015f205490508181101561289e578381836040517fe450d38c000000000000000000000000000000000000000000000000000000008152600401612895939291906141b4565b60405180910390fd5b8181035f808673ffffffffffffffffffffffffffffffffffffffff1673ffffffffffffffffffffffffffffffffffffffff1681526020019081526020015f2081905550505b5f73ffffffffffffffffffffffffffffffffffffffff168273ffffffffffffffffffffffffffffffffffffffff160361292a578060025f8282540392505081905550612974565b805f808473ffffffffffffffffffffffffffffffffffffffff1673ffffffffffffffffffffffffffffffffffffffff1681526020019081526020015f205f82825401925050819055505b8173ffffffffffffffffffffffffffffffffffffffff168373ffffffffffffffffffffffffffffffffffffffff167fddf252ad1be2c89b69c2b068fc378daa952ba7f163c4a11628f55a4df523b3ef836040516129d191906134fe565b60405180910390a3505050565b5f7f0000000000000000000000000000000000000000000000000000000000000000905090565b5f7f8b73c3c69bb8fe3d512ecc4cf759cc79239f7b179b0ffacaa9a75d522b39400f7f00000000000000000000000000000000000000000000000000000000000000007f00000000000000000000000000000000000000000000000000000000000000004630604051602001612a7f95949392919061442f565b60405160208183030381529060405280519060200120905090565b5f73ffffffffffffffffffffffffffffffffffffffff168273ffffffffffffffffffffffffffffffffffffffff1603612b0a575f6040517fec442f05000000000000000000000000000000000000000000000000000000008152600401612b0191906137d8565b60405180910390fd5b612b155f83836127c5565b5050565b5f612b47612b268361327f565b8015612b4257505f8480612b3d57612b3c614480565b5b868809115b6132ac565b612b5286868661319a565b612b5c9190614181565b9050949350505050565b612b927f00000000000000000000000000000000000000000000000000000000000000008530856132b7565b612b9c8382612a9a565b8273ffffffffffffffffffffffffffffffffffffffff168473ffffffffffffffffffffffffffffffffffffffff167fdcbc1c05240f31ff3ad067ef1ee35ce4997762752e3a095284754544f4c709d78484604051612bfb92919061421d565b60405180910390a350505050565b5f60085f9054906101000a900473ffffffffffffffffffffffffffffffffffffffff1690508160085f6101000a81548173ffffffffffffffffffffffffffffffffffffffff021916908373ffffffffffffffffffffffffffffffffffffffff1602179055508173ffffffffffffffffffffffffffffffffffffffff168173ffffffffffffffffffffffffffffffffffffffff167f8be0079c531659141344cd1fd0a4f28419497f9722a3daafe3b4186f6b6457e060405160405180910390a35050565b606060ff5f1b8314612ce857612ce183613339565b9050612d73565b818054612cf490613e19565b80601f0160208091040260200160405190810160405280929190818152602001828054612d2090613e19565b8015612d6b5780601f10612d4257610100808354040283529160200191612d6b565b820191905f5260205f20905b815481529060010190602001808311612d4e57829003601f168201915b505050505090505b92915050565b606082612d8e57612d89826133ab565b612dfe565b5f8251148015612db457505f8473ffffffffffffffffffffffffffffffffffffffff163b145b15612df657836040517f9996b315000000000000000000000000000000000000000000000000000000008152600401612ded91906137d8565b60405180910390fd5b819050612dff565b5b9392505050565b8273ffffffffffffffffffffffffffffffffffffffff168573ffffffffffffffffffffffffffffffffffffffff1614612e4557612e44838683611b1f565b5b612e4f83826133ef565b612e7a7f00000000000000000000000000000000000000000000000000000000000000008584611a19565b8273ffffffffffffffffffffffffffffffffffffffff168473ffffffffffffffffffffffffffffffffffffffff168673ffffffffffffffffffffffffffffffffffffffff167ffbde797d201c681b91056529119e0b02407c7bb96a4a2c75c01fc9667232c8db8585604051612ef092919061421d565b60405180910390a45050505050565b5f828210828418028318905092915050565b5f6040517f190100000000000000000000000000000000000000000000000000000000000081528360028201528260228201526042812091505092915050565b5f805f7f7fffffffffffffffffffffffffffffff5d576e7357a4501ddfe92f46681b20a0845f1c1115612f8d575f60038592509250925061302e565b5f6001888888886040515f8152602001604052604051612fb094939291906144ad565b6020604051602081039080840390855afa158015612fd0573d5f803e3d5ffd5b5050506020604051035190505f73ffffffffffffffffffffffffffffffffffffffff168173ffffffffffffffffffffffffffffffffffffffff1603613021575f60015f801b9350935093505061302e565b805f805f1b935093509350505b9450945094915050565b5f600381111561304b5761304a6144f0565b5b82600381111561305e5761305d6144f0565b5b03156131965760016003811115613078576130776144f0565b5b82600381111561308b5761308a6144f0565b5b036130c2576040517ff645eedf00000000000000000000000000000000000000000000000000000000815260040160405180910390fd5b600260038111156130d6576130d56144f0565b5b8260038111156130e9576130e86144f0565b5b0361312d57805f1c6040517ffce698f700000000000000000000000000000000000000000000000000000000815260040161312491906134fe565b60405180910390fd5b6003808111156131405761313f6144f0565b5b826003811115613153576131526144f0565b5b0361319557806040517fd78bce0c00000000000000000000000000000000000000000000000000000000815260040161318c91906137b0565b60405180910390fd5b5b5050565b5f8083850290505f8019858709828110838203039150505f81036131d2578382816131c8576131c7614480565b5b0492505050613278565b8084116131f1576131f06131eb5f86146012601161346e565b613487565b5b5f8486880990508281118203915080830392505f855f038616905080860495508084049350600181825f0304019050808302841793505f600287600302189050808702600203810290508087026002038102905080870260020381029050808702600203810290508087026002038102905080870260020381029050808502955050505050505b9392505050565b5f60016002836003811115613297576132966144f0565b5b6132a1919061451d565b60ff16149050919050565b5f8115159050919050565b613333848573ffffffffffffffffffffffffffffffffffffffff166323b872dd8686866040516024016132ec9392919061454d565b604051602081830303815290604052915060e01b6020820180517bffffffffffffffffffffffffffffffffffffffffffffffffffffffff838183161783525050505061248b565b50505050565b60605f61334583613498565b90505f602067ffffffffffffffff81111561336357613362613e92565b5b6040519080825280601f01601f1916602001820160405280156133955781602001600182028036833780820191505090505b5090508181528360208201528092505050919050565b5f815111156133bd5780518082602001fd5b6040517fd6bda27500000000000000000000000000000000000000000000000000000000815260040160405180910390fd5b5f73ffffffffffffffffffffffffffffffffffffffff168273ffffffffffffffffffffffffffffffffffffffff160361345f575f6040517f96c6fd1e00000000000000000000000000000000000000000000000000000000815260040161345691906137d8565b60405180910390fd5b61346a825f836127c5565b5050565b5f613478846132ac565b82841802821890509392505050565b634e487b715f52806020526024601cfd5b5f8060ff835f1c169050601f8111156134dd576040517fb3512b0c00000000000000000000000000000000000000000000000000000000815260040160405180910390fd5b80915050919050565b5f819050919050565b6134f8816134e6565b82525050565b5f6020820190506135115f8301846134ef565b92915050565b5f80fd5b5f80fd5b5f73ffffffffffffffffffffffffffffffffffffffff82169050919050565b5f6135488261351f565b9050919050565b6135588161353e565b8114613562575f80fd5b50565b5f813590506135738161354f565b92915050565b5f6020828403121561358e5761358d613517565b5b5f61359b84828501613565565b91505092915050565b5f81519050919050565b5f82825260208201905092915050565b5f5b838110156135db5780820151818401526020810190506135c0565b5f8484015250505050565b5f601f19601f8301169050919050565b5f613600826135a4565b61360a81856135ae565b935061361a8185602086016135be565b613623816135e6565b840191505092915050565b5f6020820190508181035f83015261364681846135f6565b905092915050565b613657816134e6565b8114613661575f80fd5b50565b5f813590506136728161364e565b92915050565b5f6020828403121561368d5761368c613517565b5b5f61369a84828501613664565b91505092915050565b5f80604083850312156136b9576136b8613517565b5b5f6136c685828601613565565b92505060206136d785828601613664565b9150509250929050565b5f8115159050919050565b6136f5816136e1565b82525050565b5f60208201905061370e5f8301846136ec565b92915050565b5f805f6060848603121561372b5761372a613517565b5b5f61373886828701613565565b935050602061374986828701613565565b925050604061375a86828701613664565b9150509250925092565b5f60ff82169050919050565b61377981613764565b82525050565b5f6020820190506137925f830184613770565b92915050565b5f819050919050565b6137aa81613798565b82525050565b5f6020820190506137c35f8301846137a1565b92915050565b6137d28161353e565b82525050565b5f6020820190506137eb5f8301846137c9565b92915050565b5f819050919050565b5f61381461380f61380a8461351f565b6137f1565b61351f565b9050919050565b5f613825826137fa565b9050919050565b5f6138368261381b565b9050919050565b6138468161382c565b82525050565b5f60208201905061385f5f83018461383d565b92915050565b5f806040838503121561387b5761387a613517565b5b5f61388885828601613664565b925050602061389985828601613565565b9150509250929050565b5f7fff0000000000000000000000000000000000000000000000000000000000000082169050919050565b6138d7816138a3565b82525050565b5f81519050919050565b5f82825260208201905092915050565b5f819050602082019050919050565b61390f816134e6565b82525050565b5f6139208383613906565b60208301905092915050565b5f602082019050919050565b5f613942826138dd565b61394c81856138e7565b9350613957836138f7565b805f5b8381101561398757815161396e8882613915565b97506139798361392c565b92505060018101905061395a565b5085935050505092915050565b5f60e0820190506139a75f83018a6138ce565b81810360208301526139b981896135f6565b905081810360408301526139cd81886135f6565b90506139dc60608301876134ef565b6139e960808301866137c9565b6139f660a08301856137a1565b81810360c0830152613a088184613938565b905098975050505050505050565b5f80fd5b5f80fd5b5f80fd5b5f8083601f840112613a3757613a36613a16565b5b8235905067ffffffffffffffff811115613a5457613a53613a1a565b5b602083019150836020820283011115613a7057613a6f613a1e565b5b9250929050565b5f8060208385031215613a8d57613a8c613517565b5b5f83013567ffffffffffffffff811115613aaa57613aa961351b565b5b613ab685828601613a22565b92509250509250929050565b5f81519050919050565b5f82825260208201905092915050565b5f819050602082019050919050565b5f81519050919050565b5f82825260208201905092915050565b5f613b0f82613aeb565b613b198185613af5565b9350613b298185602086016135be565b613b32816135e6565b840191505092915050565b5f613b488383613b05565b905092915050565b5f602082019050919050565b5f613b6682613ac2565b613b708185613acc565b935083602082028501613b8285613adc565b805f5b85811015613bbd5784840389528151613b9e8582613b3d565b9450613ba983613b50565b925060208a01995050600181019050613b85565b50829750879550505050505092915050565b5f6020820190508181035f830152613be78184613b5c565b905092915050565b5f805f60608486031215613c0657613c05613517565b5b5f613c1386828701613664565b9350506020613c2486828701613565565b9250506040613c3586828701613565565b9150509250925092565b613c4881613764565b8114613c52575f80fd5b50565b5f81359050613c6381613c3f565b92915050565b613c7281613798565b8114613c7c575f80fd5b50565b5f81359050613c8d81613c69565b92915050565b5f805f805f805f60e0888a031215613cae57613cad613517565b5b5f613cbb8a828b01613565565b9750506020613ccc8a828b01613565565b9650506040613cdd8a828b01613664565b9550506060613cee8a828b01613664565b9450506080613cff8a828b01613c55565b93505060a0613d108a828b01613c7f565b92505060c0613d218a828b01613c7f565b91505092959891949750929550565b5f8060408385031215613d4657613d45613517565b5b5f613d5385828601613565565b9250506020613d6485828601613565565b9150509250929050565b5f6bffffffffffffffffffffffff82169050919050565b613d8e81613d6e565b82525050565b5f602082019050613da75f830184613d85565b92915050565b5f81519050613dbb8161364e565b92915050565b5f60208284031215613dd657613dd5613517565b5b5f613de384828501613dad565b91505092915050565b7f4e487b71000000000000000000000000000000000000000000000000000000005f52602260045260245ffd5b5f6002820490506001821680613e3057607f821691505b602082108103613e4357613e42613dec565b5b50919050565b5f613e63613e5e613e5984613d6e565b6137f1565b6134e6565b9050919050565b613e7381613e49565b82525050565b5f602082019050613e8c5f830184613e6a565b92915050565b7f4e487b71000000000000000000000000000000000000000000000000000000005f52604160045260245ffd5b7f4e487b71000000000000000000000000000000000000000000000000000000005f52601160045260245ffd5b5f613ef6826134e6565b9150613f01836134e6565b9250828203905081811115613f1957613f18613ebf565b5b92915050565b5f80fd5b5f80fd5b5f8085851115613f3a57613f39613f1f565b5b83861115613f4b57613f4a613f23565b5b6001850283019150848603905094509492505050565b7f4e487b71000000000000000000000000000000000000000000000000000000005f52603260045260245ffd5b5f80fd5b5f80fd5b5f80fd5b5f8083356001602003843603038112613fb657613fb5613f8e565b5b80840192508235915067ffffffffffffffff821115613fd857613fd7613f92565b5b602083019250600182023603831315613ff457613ff3613f96565b5b509250929050565b5f81905092915050565b828183375f83830152505050565b5f61401f8385613ffc565b935061402c838584614006565b82840190509392505050565b5f61404282613aeb565b61404c8185613ffc565b935061405c8185602086016135be565b80840191505092915050565b5f614074828587614014565b91506140808284614038565b9150819050949350505050565b5f614097826134e6565b91507fffffffffffffffffffffffffffffffffffffffffffffffffffffffffffffffff82036140c9576140c8613ebf565b5b600182019050919050565b5f60c0820190506140e75f8301896137a1565b6140f460208301886137c9565b61410160408301876137c9565b61410e60608301866134ef565b61411b60808301856134ef565b61412860a08301846134ef565b979650505050505050565b5f6040820190506141465f8301856137c9565b61415360208301846137c9565b9392505050565b5f60408201905061416d5f8301856137c9565b61417a60208301846134ef565b9392505050565b5f61418b826134e6565b9150614196836134e6565b92508282019050808211156141ae576141ad613ebf565b5b92915050565b5f6060820190506141c75f8301866137c9565b6141d460208301856134ef565b6141e160408301846134ef565b949350505050565b5f6141f382613764565b91506141fe83613764565b9250828201905060ff81111561421757614216613ebf565b5b92915050565b5f6040820190506142305f8301856134ef565b61423d60208301846134ef565b9392505050565b5f8160011c9050919050565b5f808291508390505b60018511156142995780860481111561427557614274613ebf565b5b60018516156142845780820291505b808102905061429285614244565b9450614259565b94509492505050565b5f826142b1576001905061436c565b816142be575f905061436c565b81600181146142d457600281146142de5761430d565b600191505061436c565b60ff8411156142f0576142ef613ebf565b5b8360020a91508482111561430757614306613ebf565b5b5061436c565b5060208310610133831016604e8410600b84101617156143425782820a90508381111561433d5761433c613ebf565b5b61436c565b61434f8484846001614250565b9250905081840481111561436657614365613ebf565b5b81810290505b9392505050565b5f61437d826134e6565b915061438883613764565b92506143b57fffffffffffffffffffffffffffffffffffffffffffffffffffffffffffffffff84846142a2565b905092915050565b5f6040820190506143d05f8301856134ef565b6143dd60208301846137c9565b9392505050565b5f6143ef8284614038565b915081905092915050565b5f60608201905061440d5f8301866134ef565b61441a60208301856137c9565b61442760408301846137c9565b949350505050565b5f60a0820190506144425f8301886137a1565b61444f60208301876137a1565b61445c60408301866137a1565b61446960608301856134ef565b61447660808301846137c9565b9695505050505050565b7f4e487b71000000000000000000000000000000000000000000000000000000005f52601260045260245ffd5b5f6080820190506144c05f8301876137a1565b6144cd6020830186613770565b6144da60408301856137a1565b6144e760608301846137a1565b95945050505050565b7f4e487b71000000000000000000000000000000000000000000000000000000005f52602160045260245ffd5b5f61452782613764565b915061453283613764565b92508261454257614541614480565b5b828206905092915050565b5f6060820190506145605f8301866137c9565b61456d60208301856137c9565b61457a60408301846134ef565b94935050505056fea26469706673582212208e3ba491fcc28c6433963e19e37f5bf7a7acc01f496de699bc90a4216481eb9964736f6c63430008150033a2646970667358221220af5e2aacd2dc66eabda6e0e0b562f5b8419f3927b12082ed7f328b0dff794d7564736f6c634300081500336101e060405234801562000011575f80fd5b5060405162005b5538038062005b55833981810160405281019062000037919062000d4c565b8785806040518060400160405280600181526020017f3100000000000000000000000000000000000000000000000000000000000000815250898989816003908162000084919062001085565b50806004908162000096919062001085565b5050505f80620000ac83620005b660201b60201c565b9150915081620000be576012620000c0565b805b60ff1660a08160ff16815250508273ffffffffffffffffffffffffffffffffffffffff1660808173ffffffffffffffffffffffffffffffffffffffff16815250505050506200011a600583620006c960201b90919060201c565b610160818152505062000138600682620006c960201b90919060201c565b610180818152505081805190602001206101208181525050808051906020012061014081815250504660e08181525050620001786200071e60201b60201c565b60c081815250503073ffffffffffffffffffffffffffffffffffffffff166101008173ffffffffffffffffffffffffffffffffffffffff16815250505050505f73ffffffffffffffffffffffffffffffffffffffff168173ffffffffffffffffffffffffffffffffffffffff16036200022a575f6040517f1e4fbdf70000000000000000000000000000000000000000000000000000000081526004016200022191906200117a565b60405180910390fd5b6200023b816200077b60201b60201c565b505f73ffffffffffffffffffffffffffffffffffffffff168773ffffffffffffffffffffffffffffffffffffffff1603620002a2576040517fd92e233d00000000000000000000000000000000000000000000000000000000815260040160405180910390fd5b5f73ffffffffffffffffffffffffffffffffffffffff168373ffffffffffffffffffffffffffffffffffffffff1614620003175782600a5f6101000a81548173ffffffffffffffffffffffffffffffffffffffff021916908373ffffffffffffffffffffffffffffffffffffffff1602179055505b5f73ffffffffffffffffffffffffffffffffffffffff168273ffffffffffffffffffffffffffffffffffffffff16146200038c5781600b5f6101000a81548173ffffffffffffffffffffffffffffffffffffffff021916908373ffffffffffffffffffffffffffffffffffffffff1602179055505b6706f05b59d3b20000816bffffffffffffffffffffffff161115620003dd576040517ff4df6ae500000000000000000000000000000000000000000000000000000000815260040160405180910390fd5b5f816bffffffffffffffffffffffff16141580156200042757505f73ffffffffffffffffffffffffffffffffffffffff168373ffffffffffffffffffffffffffffffffffffffff16145b156200045f576040517fcff9f19400000000000000000000000000000000000000000000000000000000815260040160405180910390fd5b80600960146101000a8154816bffffffffffffffffffffffff02191690836bffffffffffffffffffffffff1602179055508673ffffffffffffffffffffffffffffffffffffffff166101a08173ffffffffffffffffffffffffffffffffffffffff16815250506200054d8673ffffffffffffffffffffffffffffffffffffffff1663313ce5676040518163ffffffff1660e01b8152600401602060405180830381865afa15801562000513573d5f803e3d5ffd5b505050506040513d601f19601f82011682018060405250810190620005399190620011d0565b60ff166012620007b360201b90919060201c565b60ff166101c08160ff1681525050620005a8877fffffffffffffffffffffffffffffffffffffffffffffffffffffffffffffffff8873ffffffffffffffffffffffffffffffffffffffff16620007c360201b9092919060201c565b5050505050505050620014e4565b5f805f808473ffffffffffffffffffffffffffffffffffffffff1660405160240160405160208183030381529060405263313ce56760e01b6020820180517bffffffffffffffffffffffffffffffffffffffffffffffffffffffff83818316178352505050506040516200062b91906200124a565b5f60405180830381855afa9150503d805f811462000665576040519150601f19603f3d011682016040523d82523d5f602084013e6200066a565b606091505b50915091508180156200067f57506020815110155b15620006bb575f818060200190518101906200069c919062001291565b905060ff80168111620006b95760018194509450505050620006c4565b505b5f809350935050505b915091565b5f602083511015620006ee57620006e683620008ed60201b60201c565b905062000718565b8262000700836200095760201b60201c565b5f01908162000710919062001085565b5060ff5f1b90505b92915050565b5f7f8b73c3c69bb8fe3d512ecc4cf759cc79239f7b179b0ffacaa9a75d522b39400f6101205161014051463060405160200162000760959493929190620012ec565b60405160208183030381529060405280519060200120905090565b60095f6101000a81549073ffffffffffffffffffffffffffffffffffffffff0219169055620007b0816200096060201b60201c565b50565b5f81830382841102905092915050565b5f8373ffffffffffffffffffffffffffffffffffffffff1663095ea7b38484604051602401620007f592919062001347565b604051602081830303815290604052915060e01b6020820180517bffffffffffffffffffffffffffffffffffffffffffffffffffffffff838183161783525050505090506200084b848262000a2360201b60201c565b620008e757620008d4848573ffffffffffffffffffffffffffffffffffffffff1663095ea7b3865f60405160240162000886929190620013b3565b604051602081830303815290604052915060e01b6020820180517bffffffffffffffffffffffffffffffffffffffffffffffffffffffff838183161783525050505062000a7f60201b60201c565b620008e6848262000a7f60201b60201c565b5b50505050565b5f80829050601f815111156200093c57826040517f305a27a90000000000000000000000000000000000000000000000000000000081526004016200093391906200142e565b60405180910390fd5b8051816200094a9062001475565b5f1c175f1b915050919050565b5f819050919050565b5f60085f9054906101000a900473ffffffffffffffffffffffffffffffffffffffff1690508160085f6101000a81548173ffffffffffffffffffffffffffffffffffffffff021916908373ffffffffffffffffffffffffffffffffffffffff1602179055508173ffffffffffffffffffffffffffffffffffffffff168173ffffffffffffffffffffffffffffffffffffffff167f8be0079c531659141344cd1fd0a4f28419497f9722a3daafe3b4186f6b6457e060405160405180910390a35050565b5f805f8060205f8651602088015f8a5af192503d91505f51905082801562000a7457505f821462000a58576001811462000a73565b5f8673ffffffffffffffffffffffffffffffffffffffff163b115b5b935050505092915050565b5f8060205f8451602086015f885af18062000a9f576040513d5f823e3d81fd5b3d92505f519150505f821462000aba57600181141562000ad5565b5f8473ffffffffffffffffffffffffffffffffffffffff163b145b1562000b1a57836040517f5274afe700000000000000000000000000000000000000000000000000000000815260040162000b1191906200117a565b60405180910390fd5b50505050565b5f604051905090565b5f80fd5b5f80fd5b5f73ffffffffffffffffffffffffffffffffffffffff82169050919050565b5f62000b5c8262000b31565b9050919050565b62000b6e8162000b50565b811462000b79575f80fd5b50565b5f8151905062000b8c8162000b63565b92915050565b5f80fd5b5f80fd5b5f601f19601f8301169050919050565b7f4e487b71000000000000000000000000000000000000000000000000000000005f52604160045260245ffd5b62000be28262000b9a565b810181811067ffffffffffffffff8211171562000c045762000c0362000baa565b5b80604052505050565b5f62000c1862000b20565b905062000c26828262000bd7565b919050565b5f67ffffffffffffffff82111562000c485762000c4762000baa565b5b62000c538262000b9a565b9050602081019050919050565b5f5b8381101562000c7f57808201518184015260208101905062000c62565b5f8484015250505050565b5f62000ca062000c9a8462000c2b565b62000c0d565b90508281526020810184848401111562000cbf5762000cbe62000b96565b5b62000ccc84828562000c60565b509392505050565b5f82601f83011262000ceb5762000cea62000b92565b5b815162000cfd84826020860162000c8a565b91505092915050565b5f6bffffffffffffffffffffffff82169050919050565b62000d288162000d06565b811462000d33575f80fd5b50565b5f8151905062000d468162000d1d565b92915050565b5f805f805f805f80610100898b03121562000d6c5762000d6b62000b29565b5b5f62000d7b8b828c0162000b7c565b985050602062000d8e8b828c0162000b7c565b975050604062000da18b828c0162000b7c565b965050606089015167ffffffffffffffff81111562000dc55762000dc462000b2d565b5b62000dd38b828c0162000cd4565b955050608089015167ffffffffffffffff81111562000df75762000df662000b2d565b5b62000e058b828c0162000cd4565b94505060a062000e188b828c0162000b7c565b93505060c062000e2b8b828c0162000b7c565b92505060e062000e3e8b828c0162000d36565b9150509295985092959890939650565b5f81519050919050565b7f4e487b71000000000000000000000000000000000000000000000000000000005f52602260045260245ffd5b5f600282049050600182168062000e9d57607f821691505b60208210810362000eb35762000eb262000e58565b5b50919050565b5f819050815f5260205f209050919050565b5f6020601f8301049050919050565b5f82821b905092915050565b5f6008830262000f177fffffffffffffffffffffffffffffffffffffffffffffffffffffffffffffffff8262000eda565b62000f23868362000eda565b95508019841693508086168417925050509392505050565b5f819050919050565b5f819050919050565b5f62000f6d62000f6762000f618462000f3b565b62000f44565b62000f3b565b9050919050565b5f819050919050565b62000f888362000f4d565b62000fa062000f978262000f74565b84845462000ee6565b825550505050565b5f90565b62000fb662000fa8565b62000fc381848462000f7d565b505050565b5b8181101562000fea5762000fde5f8262000fac565b60018101905062000fc9565b5050565b601f8211156200103957620010038162000eb9565b6200100e8462000ecb565b810160208510156200101e578190505b620010366200102d8562000ecb565b83018262000fc8565b50505b505050565b5f82821c905092915050565b5f6200105b5f19846008026200103e565b1980831691505092915050565b5f6200107583836200104a565b9150826002028217905092915050565b620010908262000e4e565b67ffffffffffffffff811115620010ac57620010ab62000baa565b5b620010b8825462000e85565b620010c582828562000fee565b5f60209050601f831160018114620010fb575f8415620010e6578287015190505b620010f2858262001068565b86555062001161565b601f1984166200110b8662000eb9565b5f5b8281101562001134578489015182556001820191506020850194506020810190506200110d565b8683101562001154578489015162001150601f8916826200104a565b8355505b6001600288020188555050505b505050505050565b620011748162000b50565b82525050565b5f6020820190506200118f5f83018462001169565b92915050565b5f60ff82169050919050565b620011ac8162001195565b8114620011b7575f80fd5b50565b5f81519050620011ca81620011a1565b92915050565b5f60208284031215620011e857620011e762000b29565b5b5f620011f784828501620011ba565b91505092915050565b5f81519050919050565b5f81905092915050565b5f620012208262001200565b6200122c81856200120a565b93506200123e81856020860162000c60565b80840191505092915050565b5f62001257828462001214565b915081905092915050565b6200126d8162000f3b565b811462001278575f80fd5b50565b5f815190506200128b8162001262565b92915050565b5f60208284031215620012a957620012a862000b29565b5b5f620012b8848285016200127b565b91505092915050565b5f819050919050565b620012d581620012c1565b82525050565b620012e68162000f3b565b82525050565b5f60a082019050620013015f830188620012ca565b620013106020830187620012ca565b6200131f6040830186620012ca565b6200132e6060830185620012db565b6200133d608083018462001169565b9695505050505050565b5f6040820190506200135c5f83018562001169565b6200136b6020830184620012db565b9392505050565b5f819050919050565b5f6200139b620013956200138f8462001372565b62000f44565b62000f3b565b9050919050565b620013ad816200137b565b82525050565b5f604082019050620013c85f83018562001169565b620013d76020830184620013a2565b9392505050565b5f82825260208201905092915050565b5f620013fa8262000e4e565b620014068185620013de565b93506200141881856020860162000c60565b620014238162000b9a565b840191505092915050565b5f6020820190508181035f830152620014488184620013ee565b905092915050565b5f819050602082019050919050565b5f6200146c8251620012c1565b80915050919050565b5f620014818262001200565b826200148d8462001450565b90506200149a816200145f565b92506020821015620014dd57620014d87fffffffffffffffffffffffffffffffffffffffffffffffffffffffffffffffff8360200360080262000eda565b831692505b5050919050565b60805160a05160c05160e05161010051610120516101405161016051610180516101a0516101c0516145b86200159d5f395f81816114a601526129e101525f818161092b0152818161096701528181610d7d01528181611d9401528181611f9201528181612257015261234c01525f61210201525f6120c701525f612a4a01525f612a2901525f611cde01525f611d3401525f611d5d01525f611cad01525f8181610d4701528181612b6b0152612e5401526145b85ff3fe608060405234801561000f575f80fd5b5060043610610288575f3560e01c80638da5cb5b1161015a578063c6e6f592116100cc578063e30c397811610085578063e30c397814610868578063e562dfd614610886578063e74b981b146108a4578063ef8b30f7146108c0578063f07cef3e146108f0578063f2fde38b1461090c57610288565b8063c6e6f5921461076e578063ce96cb771461079e578063d505accf146107ce578063d905777e146107ea578063dd62ed3e1461081a578063ddca3f431461084a57610288565b8063aea70acc1161011e578063aea70acc14610686578063b26cc394146106a4578063b3d7f6b9146106ae578063b460af94146106de578063ba0876521461070e578063c63d75b61461073e57610288565b80638da5cb5b146105ba57806394bf804d146105d857806395d89b4114610608578063a9059cbb14610626578063ac9650d81461065657610288565b8063402d267d116101fe5780636e553f65116101b75780636e553f65146104f257806370a0823114610522578063715018a61461055257806379ba50971461055c5780637ecebe001461056657806384b0196e1461059657610288565b8063402d267d1461041c578063411557d11461044c578063469048401461046a5780634cdad50614610488578063568efc07146104b857806369fe0e2d146104d657610288565b80630a28a477116102505780630a28a4771461034457806318160ddd1461037457806323b872dd14610392578063313ce567146103c25780633644e515146103e057806338d52e0f146103fe57610288565b806301e1d1141461028c57806306ec16f8146102aa57806306fdde03146102c657806307a2d13a146102e4578063095ea7b314610314575b5f80fd5b610294610928565b6040516102a191906134fe565b60405180910390f35b6102c460048036038101906102bf9190613579565b610a5d565b005b6102ce610c1a565b6040516102db919061362e565b60405180910390f35b6102fe60048036038101906102f99190613678565b610caa565b60405161030b91906134fe565b60405180910390f35b61032e600480360381019061032991906136a3565b610cbc565b60405161033b91906136fb565b60405180910390f35b61035e60048036038101906103599190613678565b610cde565b60405161036b91906134fe565b60405180910390f35b61037c610cf1565b60405161038991906134fe565b60405180910390f35b6103ac60048036038101906103a79190613714565b610cfa565b6040516103b991906136fb565b60405180910390f35b6103ca610d28565b6040516103d7919061377f565b60405180910390f35b6103e8610d36565b6040516103f591906137b0565b60405180910390f35b610406610d44565b60405161041391906137d8565b60405180910390f35b61043660048036038101906104319190613579565b610d6b565b60405161044391906134fe565b60405180910390f35b610454610d7b565b604051610461919061384c565b60405180910390f35b610472610d9f565b60405161047f91906137d8565b60405180910390f35b6104a2600480360381019061049d9190613678565b610dc4565b6040516104af91906134fe565b60405180910390f35b6104c0610dd6565b6040516104cd91906134fe565b60405180910390f35b6104f060048036038101906104eb9190613678565b610ddc565b005b61050c60048036038101906105079190613865565b610fc5565b60405161051991906134fe565b60405180910390f35b61053c60048036038101906105379190613579565b611007565b60405161054991906134fe565b60405180910390f35b61055a61104c565b005b61056461105f565b005b610580600480360381019061057b9190613579565b6110ed565b60405161058d91906134fe565b60405180910390f35b61059e6110fe565b6040516105b19796959493929190613994565b60405180910390f35b6105c26111a3565b6040516105cf91906137d8565b60405180910390f35b6105f260048036038101906105ed9190613865565b6111cb565b6040516105ff91906134fe565b60405180910390f35b61061061120e565b60405161061d919061362e565b60405180910390f35b610640600480360381019061063b91906136a3565b61129e565b60405161064d91906136fb565b60405180910390f35b610670600480360381019061066b9190613a77565b6112c0565b60405161067d9190613bcf565b60405180910390f35b61068e6114a4565b60405161069b919061377f565b60405180910390f35b6106ac6114c8565b005b6106c860048036038101906106c39190613678565b6114da565b6040516106d591906134fe565b60405180910390f35b6106f860048036038101906106f39190613bef565b6114ed565b60405161070591906134fe565b60405180910390f35b61072860048036038101906107239190613bef565b611546565b60405161073591906134fe565b60405180910390f35b61075860048036038101906107539190613579565b61159e565b60405161076591906134fe565b60405180910390f35b61078860048036038101906107839190613678565b6115bc565b60405161079591906134fe565b60405180910390f35b6107b860048036038101906107b39190613579565b6115ce565b6040516107c591906134fe565b60405180910390f35b6107e860048036038101906107e39190613c93565b6115e4565b005b61080460048036038101906107ff9190613579565b611729565b60405161081191906134fe565b60405180910390f35b610834600480360381019061082f9190613d30565b611752565b60405161084191906134fe565b60405180910390f35b6108526117d4565b60405161085f9190613d94565b60405180910390f35b6108706117f2565b60405161087d91906137d8565b60405180910390f35b61088e61181a565b60405161089b91906137d8565b60405180910390f35b6108be60048036038101906108b99190613579565b61183f565b005b6108da60048036038101906108d59190613678565b6118cd565b6040516108e791906134fe565b60405180910390f35b61090a60048036038101906109059190613579565b6118df565b005b61092660048036038101906109219190613579565b61196d565b005b5f7f000000000000000000000000000000000000000000000000000000000000000073ffffffffffffffffffffffffffffffffffffffff166307a2d13a7f000000000000000000000000000000000000000000000000000000000000000073ffffffffffffffffffffffffffffffffffffffff166370a08231306040518263ffffffff1660e01b81526004016109be91906137d8565b602060405180830381865afa1580156109d9573d5f803e3d5ffd5b505050506040513d601f19601f820116820180604052508101906109fd9190613dc1565b6040518263ffffffff1660e01b8152600401610a1991906134fe565b602060405180830381865afa158015610a34573d5f803e3d5ffd5b505050506040513d601f19601f82011682018060405250810190610a589190613dc1565b905090565b5f73ffffffffffffffffffffffffffffffffffffffff16600b5f9054906101000a900473ffffffffffffffffffffffffffffffffffffffff1673ffffffffffffffffffffffffffffffffffffffff1603610ae3576040517fd92e233d00000000000000000000000000000000000000000000000000000000815260040160405180910390fd5b5f8173ffffffffffffffffffffffffffffffffffffffff166370a08231306040518263ffffffff1660e01b8152600401610b1d91906137d8565b602060405180830381865afa158015610b38573d5f803e3d5ffd5b505050506040513d601f19601f82011682018060405250810190610b5c9190613dc1565b9050610baa600b5f9054906101000a900473ffffffffffffffffffffffffffffffffffffffff16828473ffffffffffffffffffffffffffffffffffffffff16611a199092919063ffffffff16565b8173ffffffffffffffffffffffffffffffffffffffff16610bc9611a98565b73ffffffffffffffffffffffffffffffffffffffff167f1314fd112a381beea61539dbd21ec04afcff2662ac7d1b83273aade1f53d1b9783604051610c0e91906134fe565b60405180910390a35050565b606060038054610c2990613e19565b80601f0160208091040260200160405190810160405280929190818152602001828054610c5590613e19565b8015610ca05780601f10610c7757610100808354040283529160200191610ca0565b820191905f5260205f20905b815481529060010190602001808311610c8357829003601f168201915b5050505050905090565b5f610cb5825f611a9f565b9050919050565b5f80610cc6611a98565b9050610cd3818585611ad6565b600191505092915050565b5f610cea826001611ae8565b9050919050565b5f600254905090565b5f80610d04611a98565b9050610d11858285611b1f565b610d1c858585611bb2565b60019150509392505050565b5f610d31611ca2565b905090565b5f610d3f611cdb565b905090565b5f7f0000000000000000000000000000000000000000000000000000000000000000905090565b5f610d74611d91565b9050919050565b7f000000000000000000000000000000000000000000000000000000000000000081565b600a5f9054906101000a900473ffffffffffffffffffffffffffffffffffffffff1681565b5f610dcf825f611a9f565b9050919050565b600c5481565b610de4611e2f565b600960149054906101000a90046bffffffffffffffffffffffff166bffffffffffffffffffffffff168103610e45576040517fa741a04500000000000000000000000000000000000000000000000000000000815260040160405180910390fd5b6706f05b59d3b20000811115610e87576040517ff4df6ae500000000000000000000000000000000000000000000000000000000815260040160405180910390fd5b5f8114158015610ee357505f73ffffffffffffffffffffffffffffffffffffffff16600a5f9054906101000a900473ffffffffffffffffffffffffffffffffffffffff1673ffffffffffffffffffffffffffffffffffffffff16145b15610f1a576040517fcff9f19400000000000000000000000000000000000000000000000000000000815260040160405180910390fd5b610f226114c8565b80600960146101000a8154816bffffffffffffffffffffffff02191690836bffffffffffffffffffffffff160217905550610f5b611a98565b73ffffffffffffffffffffffffffffffffffffffff167f01fe2943baee27f47add82886c2200f910c749c461c9b63c5fe83901a53bdb49600960149054906101000a90046bffffffffffffffffffffffff16604051610fba9190613e79565b60405180910390a250565b5f80610fcf611eb6565b905080600c81905550610feb84610fe4610cf1565b835f611f38565b9150611000610ff8611a98565b848685611f84565b5092915050565b5f805f8373ffffffffffffffffffffffffffffffffffffffff1673ffffffffffffffffffffffffffffffffffffffff1681526020019081526020015f20549050919050565b611054611e2f565b61105d5f612048565b565b5f611068611a98565b90508073ffffffffffffffffffffffffffffffffffffffff166110896117f2565b73ffffffffffffffffffffffffffffffffffffffff16146110e157806040517f118cdaa70000000000000000000000000000000000000000000000000000000081526004016110d891906137d8565b60405180910390fd5b6110ea81612048565b50565b5f6110f782612078565b9050919050565b5f6060805f805f606061110f6120be565b6111176120f9565b46305f801b5f67ffffffffffffffff81111561113657611135613e92565b5b6040519080825280602002602001820160405280156111645781602001602082028036833780820191505090505b507f0f00000000000000000000000000000000000000000000000000000000000000959493929190965096509650965096509650965090919293949596565b5f60085f9054906101000a900473ffffffffffffffffffffffffffffffffffffffff16905090565b5f806111d5611eb6565b905080600c819055506111f2846111ea610cf1565b836001612134565b91506112076111ff611a98565b848487611f84565b5092915050565b60606004805461121d90613e19565b80601f016020809104026020016040519081016040528092919081815260200182805461124990613e19565b80156112945780601f1061126b57610100808354040283529160200191611294565b820191905f5260205f20905b81548152906001019060200180831161127757829003601f168201915b5050505050905090565b5f806112a8611a98565b90506112b5818585611bb2565b600191505092915050565b60605f6112cb611a98565b73ffffffffffffffffffffffffffffffffffffffff163373ffffffffffffffffffffffffffffffffffffffff161461136b575f36611307612180565b5f3690506113159190613eec565b90809261132493929190613f27565b8080601f0160208091040260200160405190810160405280939291908181526020018383808284375f81840152601f19601f820116905080830192505050505050506113b9565b5f67ffffffffffffffff81111561138557611384613e92565b5b6040519080825280601f01601f1916602001820160405280156113b75781602001600182028036833780820191505090505b505b90508383905067ffffffffffffffff8111156113d8576113d7613e92565b5b60405190808252806020026020018201604052801561140b57816020015b60608152602001906001900390816113f65790505b5091505f5b8484905081101561149c5761146b3086868481811061143257611431613f61565b5b90506020028101906114449190613f9a565b8560405160200161145793929190614068565b604051602081830303815290604052612184565b83828151811061147e5761147d613f61565b5b602002602001018190525080806114949061408d565b915050611410565b505092915050565b7f000000000000000000000000000000000000000000000000000000000000000081565b6114d86114d3611eb6565b612204565b565b5f6114e6826001611a9f565b9050919050565b5f806114f7611eb6565b905061150d85611505610cf1565b836001611f38565b915061152a611525868361224590919063ffffffff16565b612204565b61153e611535611a98565b85858886612255565b509392505050565b5f80611550611eb6565b90506115658561155e610cf1565b835f612134565b915061158261157d838361224590919063ffffffff16565b612204565b61159661158d611a98565b85858589612255565b509392505050565b5f806115a8611d91565b90506115b4815f611ae8565b915050919050565b5f6115c7825f611ae8565b9050919050565b5f6115d882612307565b90505080915050919050565b8342111561162957836040517f6279130200000000000000000000000000000000000000000000000000000000815260040161162091906134fe565b60405180910390fd5b5f7f6e71edae12b1b97f4d1f60370fef10105fa2faae0126114a169c64845d6126c98888886116578c6123f1565b8960405160200161166d969594939291906140d4565b6040516020818303038152906040528051906020012090505f61168f82612444565b90505f61169e8287878761245d565b90508973ffffffffffffffffffffffffffffffffffffffff168173ffffffffffffffffffffffffffffffffffffffff161461171257808a6040517f4b800e46000000000000000000000000000000000000000000000000000000008152600401611709929190614133565b60405180910390fd5b61171d8a8a8a611ad6565b50505050505050505050565b5f805f8061173685612307565b9250925092506117488383835f611f38565b9350505050919050565b5f60015f8473ffffffffffffffffffffffffffffffffffffffff1673ffffffffffffffffffffffffffffffffffffffff1681526020019081526020015f205f8373ffffffffffffffffffffffffffffffffffffffff1673ffffffffffffffffffffffffffffffffffffffff1681526020019081526020015f2054905092915050565b600960149054906101000a90046bffffffffffffffffffffffff1681565b5f60095f9054906101000a900473ffffffffffffffffffffffffffffffffffffffff16905090565b600b5f9054906101000a900473ffffffffffffffffffffffffffffffffffffffff1681565b611847611e2f565b80600a5f6101000a81548173ffffffffffffffffffffffffffffffffffffffff021916908373ffffffffffffffffffffffffffffffffffffffff1602179055508073ffffffffffffffffffffffffffffffffffffffff167f2e979f80fe4d43055c584cf4a8467c55875ea36728fc37176c05acd784eb7a7360405160405180910390a250565b5f6118d8825f611ae8565b9050919050565b6118e7611e2f565b80600b5f6101000a81548173ffffffffffffffffffffffffffffffffffffffff021916908373ffffffffffffffffffffffffffffffffffffffff1602179055508073ffffffffffffffffffffffffffffffffffffffff167fbf4da31489bf7d607626c05856478443f1ecd2ca7b005fe2f83a45fbd9fe1ee760405160405180910390a250565b611975611e2f565b8060095f6101000a81548173ffffffffffffffffffffffffffffffffffffffff021916908373ffffffffffffffffffffffffffffffffffffffff1602179055508073ffffffffffffffffffffffffffffffffffffffff166119d46111a3565b73ffffffffffffffffffffffffffffffffffffffff167f38d16b8cac22d99fc7c124b9cd0de2d3fa1faef420bfe791d8c362d765e2270060405160405180910390a350565b611a93838473ffffffffffffffffffffffffffffffffffffffff1663a9059cbb8585604051602401611a4c92919061415a565b604051602081830303815290604052915060e01b6020820180517bffffffffffffffffffffffffffffffffffffffffffffffffffffffff838183161783525050505061248b565b505050565b5f33905090565b5f805f611aaa612526565b91509150611acc8583611abb610cf1565b611ac59190614181565b8387612134565b9250505092915050565b611ae383838360016125f6565b505050565b5f805f611af3612526565b91509150611b158583611b04610cf1565b611b0e9190614181565b8387611f38565b9250505092915050565b5f611b2a8484611752565b90507fffffffffffffffffffffffffffffffffffffffffffffffffffffffffffffffff811015611bac5781811015611b9d578281836040517ffb8f41b2000000000000000000000000000000000000000000000000000000008152600401611b94939291906141b4565b60405180910390fd5b611bab84848484035f6125f6565b5b50505050565b5f73ffffffffffffffffffffffffffffffffffffffff168373ffffffffffffffffffffffffffffffffffffffff1603611c22575f6040517f96c6fd1e000000000000000000000000000000000000000000000000000000008152600401611c1991906137d8565b60405180910390fd5b5f73ffffffffffffffffffffffffffffffffffffffff168273ffffffffffffffffffffffffffffffffffffffff1603611c92575f6040517fec442f05000000000000000000000000000000000000000000000000000000008152600401611c8991906137d8565b60405180910390fd5b611c9d8383836127c5565b505050565b5f611cab6129de565b7f0000000000000000000000000000000000000000000000000000000000000000611cd691906141e9565b905090565b5f7f000000000000000000000000000000000000000000000000000000000000000073ffffffffffffffffffffffffffffffffffffffff163073ffffffffffffffffffffffffffffffffffffffff16148015611d5657507f000000000000000000000000000000000000000000000000000000000000000046145b15611d83577f00000000000000000000000000000000000000000000000000000000000000009050611d8e565b611d8b612a05565b90505b90565b5f7f000000000000000000000000000000000000000000000000000000000000000073ffffffffffffffffffffffffffffffffffffffff1663402d267d306040518263ffffffff1660e01b8152600401611deb91906137d8565b602060405180830381865afa158015611e06573d5f803e3d5ffd5b505050506040513d601f19601f82011682018060405250810190611e2a9190613dc1565b905090565b611e37611a98565b73ffffffffffffffffffffffffffffffffffffffff16611e556111a3565b73ffffffffffffffffffffffffffffffffffffffff1614611eb457611e78611a98565b6040517f118cdaa7000000000000000000000000000000000000000000000000000000008152600401611eab91906137d8565b60405180910390fd5b565b5f80611ec0612526565b80935081925050505f8114611efb57611efa600a5f9054906101000a900473ffffffffffffffffffffffffffffffffffffffff1682612a9a565b5b7ff66f28b40975dbb933913542c7e6a0f50a1d0f20aa74ea6e0efe65ab616323ec8282604051611f2c92919061421d565b60405180910390a15090565b5f611f7a611f446129de565b600a611f509190614373565b85611f5b9190614181565b600185611f689190614181565b8488612b19909392919063ffffffff16565b9050949350505050565b611f9084848484612b66565b7f000000000000000000000000000000000000000000000000000000000000000073ffffffffffffffffffffffffffffffffffffffff16636e553f6583306040518363ffffffff1660e01b8152600401611feb9291906143bd565b6020604051808303815f875af1158015612007573d5f803e3d5ffd5b505050506040513d601f19601f8201168201806040525081019061202b9190613dc1565b5061204282600c5461203d9190614181565b612204565b50505050565b60095f6101000a81549073ffffffffffffffffffffffffffffffffffffffff021916905561207581612c09565b50565b5f60075f8373ffffffffffffffffffffffffffffffffffffffff1673ffffffffffffffffffffffffffffffffffffffff1681526020019081526020015f20549050919050565b60606120f460057f0000000000000000000000000000000000000000000000000000000000000000612ccc90919063ffffffff16565b905090565b606061212f60067f0000000000000000000000000000000000000000000000000000000000000000612ccc90919063ffffffff16565b905090565b5f6121766001846121459190614181565b61214d6129de565b600a6121599190614373565b866121649190614181565b8488612b19909392919063ffffffff16565b9050949350505050565b5f90565b60605f808473ffffffffffffffffffffffffffffffffffffffff16846040516121ad91906143e4565b5f60405180830381855af49150503d805f81146121e5576040519150601f19603f3d011682016040523d82523d5f602084013e6121ea565b606091505b50915091506121fa858383612d79565b9250505092915050565b80600c819055507f15c027cc4fd826d986cad358803439f7326d3aa4ed969ff90dbee4bc150f68e98160405161223a91906134fe565b60405180910390a150565b5f81830382841102905092915050565b7f000000000000000000000000000000000000000000000000000000000000000073ffffffffffffffffffffffffffffffffffffffff1663b460af948330306040518463ffffffff1660e01b81526004016122b2939291906143fa565b6020604051808303815f875af11580156122ce573d5f803e3d5ffd5b505050506040513d601f19601f820116820180604052508101906122f29190613dc1565b506123008585858585612e06565b5050505050565b5f805f80612313612526565b809350819250505080612324610cf1565b61232e9190614181565b925061234461233c86611007565b84845f612134565b93506123e7847f000000000000000000000000000000000000000000000000000000000000000073ffffffffffffffffffffffffffffffffffffffff1663ce96cb77306040518263ffffffff1660e01b81526004016123a391906137d8565b602060405180830381865afa1580156123be573d5f803e3d5ffd5b505050506040513d601f19601f820116820180604052508101906123e29190613dc1565b612eff565b9350509193909250565b5f60075f8373ffffffffffffffffffffffffffffffffffffffff1673ffffffffffffffffffffffffffffffffffffffff1681526020019081526020015f205f815480929190600101919050559050919050565b5f612456612450611cdb565b83612f11565b9050919050565b5f805f8061246d88888888612f51565b92509250925061247d8282613038565b829350505050949350505050565b5f8060205f8451602086015f885af1806124aa576040513d5f823e3d81fd5b3d92505f519150505f82146124c35760018114156124de565b5f8473ffffffffffffffffffffffffffffffffffffffff163b145b1561252057836040517f5274afe700000000000000000000000000000000000000000000000000000000815260040161251791906137d8565b60405180910390fd5b50505050565b5f80612530610928565b90505f612548600c548361224590919063ffffffff16565b90505f811415801561258257505f600960149054906101000a90046bffffffffffffffffffffffff166bffffffffffffffffffffffff1614155b156125f1575f6125cd600960149054906101000a90046bffffffffffffffffffffffff166bffffffffffffffffffffffff16670de0b6b3a76400008461319a9092919063ffffffff16565b90506125ed816125db610cf1565b83866125e79190613eec565b5f611f38565b9350505b509091565b5f73ffffffffffffffffffffffffffffffffffffffff168473ffffffffffffffffffffffffffffffffffffffff1603612666575f6040517fe602df0500000000000000000000000000000000000000000000000000000000815260040161265d91906137d8565b60405180910390fd5b5f73ffffffffffffffffffffffffffffffffffffffff168373ffffffffffffffffffffffffffffffffffffffff16036126d6575f6040517f94280d620000000000000000000000000000000000000000000000000000000081526004016126cd91906137d8565b60405180910390fd5b8160015f8673ffffffffffffffffffffffffffffffffffffffff1673ffffffffffffffffffffffffffffffffffffffff1681526020019081526020015f205f8573ffffffffffffffffffffffffffffffffffffffff1673ffffffffffffffffffffffffffffffffffffffff1681526020019081526020015f208190555080156127bf578273ffffffffffffffffffffffffffffffffffffffff168473ffffffffffffffffffffffffffffffffffffffff167f8c5be1e5ebec7d5bd14f71427d1e84f3dd0314c0f7b2291e5b200ac8c7c3b925846040516127b691906134fe565b60405180910390a35b50505050565b5f73ffffffffffffffffffffffffffffffffffffffff168373ffffffffffffffffffffffffffffffffffffffff1603612815578060025f8282546128099190614181565b925050819055506128e3565b5f805f8573ffffffffffffffffffffffffffffffffffffffff1673ffffffffffffffffffffffffffffffffffffffff1681526020019081526020015f205490508181101561289e578381836040517fe450d38c000000000000000000000000000000000000000000000000000000008152600401612895939291906141b4565b60405180910390fd5b8181035f808673ffffffffffffffffffffffffffffffffffffffff1673ffffffffffffffffffffffffffffffffffffffff1681526020019081526020015f2081905550505b5f73ffffffffffffffffffffffffffffffffffffffff168273ffffffffffffffffffffffffffffffffffffffff160361292a578060025f8282540392505081905550612974565b805f808473ffffffffffffffffffffffffffffffffffffffff1673ffffffffffffffffffffffffffffffffffffffff1681526020019081526020015f205f82825401925050819055505b8173ffffffffffffffffffffffffffffffffffffffff168373ffffffffffffffffffffffffffffffffffffffff167fddf252ad1be2c89b69c2b068fc378daa952ba7f163c4a11628f55a4df523b3ef836040516129d191906134fe565b60405180910390a3505050565b5f7f0000000000000000000000000000000000000000000000000000000000000000905090565b5f7f8b73c3c69bb8fe3d512ecc4cf759cc79239f7b179b0ffacaa9a75d522b39400f7f00000000000000000000000000000000000000000000000000000000000000007f00000000000000000000000000000000000000000000000000000000000000004630604051602001612a7f95949392919061442f565b60405160208183030381529060405280519060200120905090565b5f73ffffffffffffffffffffffffffffffffffffffff168273ffffffffffffffffffffffffffffffffffffffff1603612b0a575f6040517fec442f05000000000000000000000000000000000000000000000000000000008152600401612b0191906137d8565b60405180910390fd5b612b155f83836127c5565b5050565b5f612b47612b268361327f565b8015612b4257505f8480612b3d57612b3c614480565b5b868809115b6132ac565b612b5286868661319a565b612b5c9190614181565b9050949350505050565b612b927f00000000000000000000000000000000000000000000000000000000000000008530856132b7565b612b9c8382612a9a565b8273ffffffffffffffffffffffffffffffffffffffff168473ffffffffffffffffffffffffffffffffffffffff167fdcbc1c05240f31ff3ad067ef1ee35ce4997762752e3a095284754544f4c709d78484604051612bfb92919061421d565b60405180910390a350505050565b5f60085f9054906101000a900473ffffffffffffffffffffffffffffffffffffffff1690508160085f6101000a81548173ffffffffffffffffffffffffffffffffffffffff021916908373ffffffffffffffffffffffffffffffffffffffff1602179055508173ffffffffffffffffffffffffffffffffffffffff168173ffffffffffffffffffffffffffffffffffffffff167f8be0079c531659141344cd1fd0a4f28419497f9722a3daafe3b4186f6b6457e060405160405180910390a35050565b606060ff5f1b8314612ce857612ce183613339565b9050612d73565b818054612cf490613e19565b80601f0160208091040260200160405190810160405280929190818152602001828054612d2090613e19565b8015612d6b5780601f10612d4257610100808354040283529160200191612d6b565b820191905f5260205f20905b815481529060010190602001808311612d4e57829003601f168201915b505050505090505b92915050565b606082612d8e57612d89826133ab565b612dfe565b5f8251148015612db457505f8473ffffffffffffffffffffffffffffffffffffffff163b145b15612df657836040517f9996b315000000000000000000000000000000000000000000000000000000008152600401612ded91906137d8565b60405180910390fd5b819050612dff565b5b9392505050565b8273ffffffffffffffffffffffffffffffffffffffff168573ffffffffffffffffffffffffffffffffffffffff1614612e4557612e44838683611b1f565b5b612e4f83826133ef565b612e7a7f00000000000000000000000000000000000000000000000000000000000000008584611a19565b8273ffffffffffffffffffffffffffffffffffffffff168473ffffffffffffffffffffffffffffffffffffffff168673ffffffffffffffffffffffffffffffffffffffff167ffbde797d201c681b91056529119e0b02407c7bb96a4a2c75c01fc9667232c8db8585604051612ef092919061421d565b60405180910390a45050505050565b5f828210828418028318905092915050565b5f6040517f190100000000000000000000000000000000000000000000000000000000000081528360028201528260228201526042812091505092915050565b5f805f7f7fffffffffffffffffffffffffffffff5d576e7357a4501ddfe92f46681b20a0845f1c1115612f8d575f60038592509250925061302e565b5f6001888888886040515f8152602001604052604051612fb094939291906144ad565b6020604051602081039080840390855afa158015612fd0573d5f803e3d5ffd5b5050506020604051035190505f73ffffffffffffffffffffffffffffffffffffffff168173ffffffffffffffffffffffffffffffffffffffff1603613021575f60015f801b9350935093505061302e565b805f805f1b935093509350505b9450945094915050565b5f600381111561304b5761304a6144f0565b5b82600381111561305e5761305d6144f0565b5b03156131965760016003811115613078576130776144f0565b5b82600381111561308b5761308a6144f0565b5b036130c2576040517ff645eedf00000000000000000000000000000000000000000000000000000000815260040160405180910390fd5b600260038111156130d6576130d56144f0565b5b8260038111156130e9576130e86144f0565b5b0361312d57805f1c6040517ffce698f700000000000000000000000000000000000000000000000000000000815260040161312491906134fe565b60405180910390fd5b6003808111156131405761313f6144f0565b5b826003811115613153576131526144f0565b5b0361319557806040517fd78bce0c00000000000000000000000000000000000000000000000000000000815260040161318c91906137b0565b60405180910390fd5b5b5050565b5f8083850290505f8019858709828110838203039150505f81036131d2578382816131c8576131c7614480565b5b0492505050613278565b8084116131f1576131f06131eb5f86146012601161346e565b613487565b5b5f8486880990508281118203915080830392505f855f038616905080860495508084049350600181825f0304019050808302841793505f600287600302189050808702600203810290508087026002038102905080870260020381029050808702600203810290508087026002038102905080870260020381029050808502955050505050505b9392505050565b5f60016002836003811115613297576132966144f0565b5b6132a1919061451d565b60ff16149050919050565b5f8115159050919050565b613333848573ffffffffffffffffffffffffffffffffffffffff166323b872dd8686866040516024016132ec9392919061454d565b604051602081830303815290604052915060e01b6020820180517bffffffffffffffffffffffffffffffffffffffffffffffffffffffff838183161783525050505061248b565b50505050565b60605f61334583613498565b90505f602067ffffffffffffffff81111561336357613362613e92565b5b6040519080825280601f01601f1916602001820160405280156133955781602001600182028036833780820191505090505b5090508181528360208201528092505050919050565b5f815111156133bd5780518082602001fd5b6040517fd6bda27500000000000000000000000000000000000000000000000000000000815260040160405180910390fd5b5f73ffffffffffffffffffffffffffffffffffffffff168273ffffffffffffffffffffffffffffffffffffffff160361345f575f6040517f96c6fd1e00000000000000000000000000000000000000000000000000000000815260040161345691906137d8565b60405180910390fd5b61346a825f836127c5565b5050565b5f613478846132ac565b82841802821890509392505050565b634e487b715f52806020526024601cfd5b5f8060ff835f1c169050601f8111156134dd576040517fb3512b0c00000000000000000000000000000000000000000000000000000000815260040160405180910390fd5b80915050919050565b5f819050919050565b6134f8816134e6565b82525050565b5f6020820190506135115f8301846134ef565b92915050565b5f80fd5b5f80fd5b5f73ffffffffffffffffffffffffffffffffffffffff82169050919050565b5f6135488261351f565b9050919050565b6135588161353e565b8114613562575f80fd5b50565b5f813590506135738161354f565b92915050565b5f6020828403121561358e5761358d613517565b5b5f61359b84828501613565565b91505092915050565b5f81519050919050565b5f82825260208201905092915050565b5f5b838110156135db5780820151818401526020810190506135c0565b5f8484015250505050565b5f601f19601f8301169050919050565b5f613600826135a4565b61360a81856135ae565b935061361a8185602086016135be565b613623816135e6565b840191505092915050565b5f6020820190508181035f83015261364681846135f6565b905092915050565b613657816134e6565b8114613661575f80fd5b50565b5f813590506136728161364e565b92915050565b5f6020828403121561368d5761368c613517565b5b5f61369a84828501613664565b91505092915050565b5f80604083850312156136b9576136b8613517565b5b5f6136c685828601613565565b92505060206136d785828601613664565b9150509250929050565b5f8115159050919050565b6136f5816136e1565b82525050565b5f60208201905061370e5f8301846136ec565b92915050565b5f805f6060848603121561372b5761372a613517565b5b5f61373886828701613565565b935050602061374986828701613565565b925050604061375a86828701613664565b9150509250925092565b5f60ff82169050919050565b61377981613764565b82525050565b5f6020820190506137925f830184613770565b92915050565b5f819050919050565b6137aa81613798565b82525050565b5f6020820190506137c35f8301846137a1565b92915050565b6137d28161353e565b82525050565b5f6020820190506137eb5f8301846137c9565b92915050565b5f819050919050565b5f61381461380f61380a8461351f565b6137f1565b61351f565b9050919050565b5f613825826137fa565b9050919050565b5f6138368261381b565b9050919050565b6138468161382c565b82525050565b5f60208201905061385f5f83018461383d565b92915050565b5f806040838503121561387b5761387a613517565b5b5f61388885828601613664565b925050602061389985828601613565565b9150509250929050565b5f7fff0000000000000000000000000000000000000000000000000000000000000082169050919050565b6138d7816138a3565b82525050565b5f81519050919050565b5f82825260208201905092915050565b5f819050602082019050919050565b61390f816134e6565b82525050565b5f6139208383613906565b60208301905092915050565b5f602082019050919050565b5f613942826138dd565b61394c81856138e7565b9350613957836138f7565b805f5b8381101561398757815161396e8882613915565b97506139798361392c565b92505060018101905061395a565b5085935050505092915050565b5f60e0820190506139a75f83018a6138ce565b81810360208301526139b981896135f6565b905081810360408301526139cd81886135f6565b90506139dc60608301876134ef565b6139e960808301866137c9565b6139f660a08301856137a1565b81810360c0830152613a088184613938565b905098975050505050505050565b5f80fd5b5f80fd5b5f80fd5b5f8083601f840112613a3757613a36613a16565b5b8235905067ffffffffffffffff811115613a5457613a53613a1a565b5b602083019150836020820283011115613a7057613a6f613a1e565b5b9250929050565b5f8060208385031215613a8d57613a8c613517565b5b5f83013567ffffffffffffffff811115613aaa57613aa961351b565b5b613ab685828601613a22565b92509250509250929050565b5f81519050919050565b5f82825260208201905092915050565b5f819050602082019050919050565b5f81519050919050565b5f82825260208201905092915050565b5f613b0f82613aeb565b613b198185613af5565b9350613b298185602086016135be565b613b32816135e6565b840191505092915050565b5f613b488383613b05565b905092915050565b5f602082019050919050565b5f613b6682613ac2565b613b708185613acc565b935083602082028501613b8285613adc565b805f5b85811015613bbd5784840389528151613b9e8582613b3d565b9450613ba983613b50565b925060208a01995050600181019050613b85565b50829750879550505050505092915050565b5f6020820190508181035f830152613be78184613b5c565b905092915050565b5f805f60608486031215613c0657613c05613517565b5b5f613c1386828701613664565b9350506020613c2486828701613565565b9250506040613c3586828701613565565b9150509250925092565b613c4881613764565b8114613c52575f80fd5b50565b5f81359050613c6381613c3f565b92915050565b613c7281613798565b8114613c7c575f80fd5b50565b5f81359050613c8d81613c69565b92915050565b5f805f805f805f60e0888a031215613cae57613cad613517565b5b5f613cbb8a828b01613565565b9750506020613ccc8a828b01613565565b9650506040613cdd8a828b01613664565b9550506060613cee8a828b01613664565b9450506080613cff8a828b01613c55565b93505060a0613d108a828b01613c7f565b92505060c0613d218a828b01613c7f565b91505092959891949750929550565b5f8060408385031215613d4657613d45613517565b5b5f613d5385828601613565565b9250506020613d6485828601613565565b9150509250929050565b5f6bffffffffffffffffffffffff82169050919050565b613d8e81613d6e565b82525050565b5f602082019050613da75f830184613d85565b92915050565b5f81519050613dbb8161364e565b92915050565b5f60208284031215613dd657613dd5613517565b5b5f613de384828501613dad565b91505092915050565b7f4e487b71000000000000000000000000000000000000000000000000000000005f52602260045260245ffd5b5f6002820490506001821680613e3057607f821691505b602082108103613e4357613e42613dec565b5b50919050565b5f613e63613e5e613e5984613d6e565b6137f1565b6134e6565b9050919050565b613e7381613e49565b82525050565b5f602082019050613e8c5f830184613e6a565b92915050565b7f4e487b71000000000000000000000000000000000000000000000000000000005f52604160045260245ffd5b7f4e487b71000000000000000000000000000000000000000000000000000000005f52601160045260245ffd5b5f613ef6826134e6565b9150613f01836134e6565b9250828203905081811115613f1957613f18613ebf565b5b92915050565b5f80fd5b5f80fd5b5f8085851115613f3a57613f39613f1f565b5b83861115613f4b57613f4a613f23565b5b6001850283019150848603905094509492505050565b7f4e487b71000000000000000000000000000000000000000000000000000000005f52603260045260245ffd5b5f80fd5b5f80fd5b5f80fd5b5f8083356001602003843603038112613fb657613fb5613f8e565b5b80840192508235915067ffffffffffffffff821115613fd857613fd7613f92565b5b602083019250600182023603831315613ff457613ff3613f96565b5b509250929050565b5f81905092915050565b828183375f83830152505050565b5f61401f8385613ffc565b935061402c838584614006565b82840190509392505050565b5f61404282613aeb565b61404c8185613ffc565b935061405c8185602086016135be565b80840191505092915050565b5f614074828587614014565b91506140808284614038565b9150819050949350505050565b5f614097826134e6565b91507fffffffffffffffffffffffffffffffffffffffffffffffffffffffffffffffff82036140c9576140c8613ebf565b5b600182019050919050565b5f60c0820190506140e75f8301896137a1565b6140f460208301886137c9565b61410160408301876137c9565b61410e60608301866134ef565b61411b60808301856134ef565b61412860a08301846134ef565b979650505050505050565b5f6040820190506141465f8301856137c9565b61415360208301846137c9565b9392505050565b5f60408201905061416d5f8301856137c9565b61417a60208301846134ef565b9392505050565b5f61418b826134e6565b9150614196836134e6565b92508282019050808211156141ae576141ad613ebf565b5b92915050565b5f6060820190506141c75f8301866137c9565b6141d460208301856134ef565b6141e160408301846134ef565b949350505050565b5f6141f382613764565b91506141fe83613764565b9250828201905060ff81111561421757614216613ebf565b5b92915050565b5f6040820190506142305f8301856134ef565b61423d60208301846134ef565b9392505050565b5f8160011c9050919050565b5f808291508390505b60018511156142995780860481111561427557614274613ebf565b5b60018516156142845780820291505b808102905061429285614244565b9450614259565b94509492505050565b5f826142b1576001905061436c565b816142be575f905061436c565b81600181146142d457600281146142de5761430d565b600191505061436c565b60ff8411156142f0576142ef613ebf565b5b8360020a91508482111561430757614306613ebf565b5b5061436c565b5060208310610133831016604e8410600b84101617156143425782820a90508381111561433d5761433c613ebf565b5b61436c565b61434f8484846001614250565b9250905081840481111561436657614365613ebf565b5b81810290505b9392505050565b5f61437d826134e6565b915061438883613764565b92506143b57fffffffffffffffffffffffffffffffffffffffffffffffffffffffffffffffff84846142a2565b905092915050565b5f6040820190506143d05f8301856134ef565b6143dd60208301846137c9565b9392505050565b5f6143ef8284614038565b915081905092915050565b5f60608201905061440d5f8301866134ef565b61441a60208301856137c9565b61442760408301846137c9565b949350505050565b5f60a0820190506144425f8301886137a1565b61444f60208301876137a1565b61445c60408301866137a1565b61446960608301856134ef565b61447660808301846137c9565b9695505050505050565b7f4e487b71000000000000000000000000000000000000000000000000000000005f52601260045260245ffd5b5f6080820190506144c05f8301876137a1565b6144cd6020830186613770565b6144da60408301856137a1565b6144e760608301846137a1565b95945050505050565b7f4e487b71000000000000000000000000000000000000000000000000000000005f52602160045260245ffd5b5f61452782613764565b915061453283613764565b92508261454257614541614480565b5b828206905092915050565b5f6060820190506145605f8301866137c9565b61456d60208301856137c9565b61457a60408301846134ef565b94935050505056fea26469706673582212208e3ba491fcc28c6433963e19e37f5bf7a7acc01f496de699bc90a4216481eb9964736f6c63430008150033","linkReferences":{}},"methodIdentifiers":{"SEND_EARN()":"7e9ae0d1","VAULT()":"411557d1","acceptOwnership()":"79ba5097","affiliates(address)":"4f51e294","createSendEarn(address,bytes32)":"3e6f4022","fee()":"ddca3f43","isSendEarn(address)":"464d225a","owner()":"8da5cb5b","pendingOwner()":"e30c3978","platform()":"4bde38c8","renounceOwnership()":"715018a6","setFee(uint256)":"69fe0e2d","setPlatform(address)":"6945c5ea","setSplit(uint256)":"674e694f","split()":"f7654176","transferOwnership(address)":"f2fde38b"},"id":101}