{"abi":[{"type":"constructor","inputs":[{"name":"owner","type":"address","internalType":"address"},{"name":"vault","type":"address","internalType":"address"},{"name":"_platform","type":"address","internalType":"address"},{"name":"_fee","type":"uint96","internalType":"uint96"},{"name":"_split","type":"uint256","internalType":"uint256"},{"name":"salt","type":"bytes32","internalType":"bytes32"},{"name":"_initialBurn","type":"uint256","internalType":"uint256"}],"stateMutability":"nonpayable"},{"type":"function","name":"SEND_EARN","inputs":[],"outputs":[{"name":"","type":"address","internalType":"address"}],"stateMutability":"view"},{"type":"function","name":"VAULT","inputs":[],"outputs":[{"name":"","type":"address","internalType":"address"}],"stateMutability":"view"},{"type":"function","name":"acceptOwnership","inputs":[],"outputs":[],"stateMutability":"nonpayable"},{"type":"function","name":"affiliates","inputs":[{"name":"","type":"address","internalType":"address"}],"outputs":[{"name":"","type":"address","internalType":"address"}],"stateMutability":"view"},{"type":"function","name":"createAndDeposit","inputs":[{"name":"referrer","type":"address","internalType":"address"},{"name":"salt","type":"bytes32","internalType":"bytes32"},{"name":"assets","type":"uint256","internalType":"uint256"}],"outputs":[{"name":"sendEarn","type":"address","internalType":"contract ISendEarn"},{"name":"shares","type":"uint256","internalType":"uint256"}],"stateMutability":"nonpayable"},{"type":"function","name":"createSendEarn","inputs":[{"name":"referrer","type":"address","internalType":"address"},{"name":"salt","type":"bytes32","internalType":"bytes32"}],"outputs":[{"name":"sendEarn","type":"address","internalType":"contract ISendEarn"}],"stateMutability":"nonpayable"},{"type":"function","name":"deposits","inputs":[{"name":"","type":"address","internalType":"address"}],"outputs":[{"name":"","type":"address","internalType":"address"}],"stateMutability":"view"},{"type":"function","name":"fee","inputs":[],"outputs":[{"name":"","type":"uint96","internalType":"uint96"}],"stateMutability":"view"},{"type":"function","name":"initialBurn","inputs":[],"outputs":[{"name":"","type":"uint256","internalType":"uint256"}],"stateMutability":"view"},{"type":"function","name":"isSendEarn","inputs":[{"name":"","type":"address","internalType":"address"}],"outputs":[{"name":"","type":"bool","internalType":"bool"}],"stateMutability":"view"},{"type":"function","name":"owner","inputs":[],"outputs":[{"name":"","type":"address","internalType":"address"}],"stateMutability":"view"},{"type":"function","name":"pendingOwner","inputs":[],"outputs":[{"name":"","type":"address","internalType":"address"}],"stateMutability":"view"},{"type":"function","name":"platform","inputs":[],"outputs":[{"name":"","type":"address","internalType":"address"}],"stateMutability":"view"},{"type":"function","name":"renounceOwnership","inputs":[],"outputs":[],"stateMutability":"nonpayable"},{"type":"function","name":"setDeposit","inputs":[{"name":"vault","type":"address","internalType":"address"}],"outputs":[],"stateMutability":"nonpayable"},{"type":"function","name":"setFee","inputs":[{"name":"newFee","type":"uint256","internalType":"uint256"}],"outputs":[],"stateMutability":"nonpayable"},{"type":"function","name":"setInitialBurn","inputs":[{"name":"_amount","type":"uint256","internalType":"uint256"}],"outputs":[],"stateMutability":"nonpayable"},{"type":"function","name":"setPlatform","inputs":[{"name":"newPlatform","type":"address","internalType":"address"}],"outputs":[],"stateMutability":"nonpayable"},{"type":"function","name":"setSplit","inputs":[{"name":"newSplit","type":"uint256","internalType":"uint256"}],"outputs":[],"stateMutability":"nonpayable"},{"type":"function","name":"split","inputs":[],"outputs":[{"name":"","type":"uint256","internalType":"uint256"}],"stateMutability":"view"},{"type":"function","name":"transferOwnership","inputs":[{"name":"newOwner","type":"address","internalType":"address"}],"outputs":[],"stateMutability":"nonpayable"},{"type":"function","name":"withdrawPrefund","inputs":[{"name":"to","type":"address","internalType":"address"},{"name":"amount","type":"uint256","internalType":"uint256"}],"outputs":[],"stateMutability":"nonpayable"},{"type":"event","name":"CreateSendEarn","inputs":[{"name":"sendEarn","type":"address","indexed":true,"internalType":"address"},{"name":"caller","type":"address","indexed":true,"internalType":"address"},{"name":"initialOwner","type":"address","indexed":false,"internalType":"address"},{"name":"vault","type":"address","indexed":true,"internalType":"address"},{"name":"feeRecipient","type":"address","indexed":false,"internalType":"address"},{"name":"collections","type":"address","indexed":false,"internalType":"address"},{"name":"fee","type":"uint96","indexed":false,"internalType":"uint96"},{"name":"salt","type":"bytes32","indexed":false,"internalType":"bytes32"}],"anonymous":false},{"type":"event","name":"NewAffiliate","inputs":[{"name":"affiliate","type":"address","indexed":false,"internalType":"address"},{"name":"sea","type":"address","indexed":false,"internalType":"address"}],"anonymous":false},{"type":"event","name":"OwnershipTransferStarted","inputs":[{"name":"previousOwner","type":"address","indexed":true,"internalType":"address"},{"name":"newOwner","type":"address","indexed":true,"internalType":"address"}],"anonymous":false},{"type":"event","name":"OwnershipTransferred","inputs":[{"name":"previousOwner","type":"address","indexed":true,"internalType":"address"},{"name":"newOwner","type":"address","indexed":true,"internalType":"address"}],"anonymous":false},{"type":"event","name":"SetDeposit","inputs":[{"name":"newDeposit","type":"address","indexed":true,"internalType":"address"}],"anonymous":false},{"type":"event","name":"SetFee","inputs":[{"name":"caller","type":"address","indexed":true,"internalType":"address"},{"name":"newFee","type":"uint256","indexed":false,"internalType":"uint256"}],"anonymous":false},{"type":"event","name":"SetPlatform","inputs":[{"name":"newPlatform","type":"address","indexed":true,"internalType":"address"}],"anonymous":false},{"type":"event","name":"SetSplit","inputs":[{"name":"newSplit","type":"uint256","indexed":false,"internalType":"uint256"}],"anonymous":false},{"type":"error","name":"AlreadySet","inputs":[]},{"type":"error","name":"MaxFeeExceeded","inputs":[]},{"type":"error","name":"MaxSplitExceeded","inputs":[]},{"type":"error","name":"NotSendEarnVault","inputs":[]},{"type":"error","name":"OwnableInvalidOwner","inputs":[{"name":"owner","type":"address","internalType":"address"}]},{"type":"error","name":"OwnableUnauthorizedAccount","inputs":[{"name":"account","type":"address","internalType":"address"}]},{"type":"error","name":"SafeERC20FailedOperation","inputs":[{"name":"token","type":"address","internalType":"address"}]},{"type":"error","name":"UnauthorizedPlatform","inputs":[]},{"type":"error","name":"ZeroAddress","inputs":[]},{"type":"error","name":"ZeroAmount","inputs":[]},{"type":"error","name":"ZeroFeeRecipient","inputs":[]},{"type":"error","name":"ZeroSharesMinted","inputs":[]}],"bytecode":{"object":"0x60c060405234801562000010575f80fd5b506040516200a0eb3803806200a0eb833981016040819052620000339162000a2e565b84876001600160a01b0381166200006457604051631e4fbdf760e01b81525f60048201526024015b60405180910390fd5b6200006f81620001ca565b506001600160a01b038116620000985760405163d92e233d60e01b815260040160405180910390fd5b620000a38162000219565b506001600160a01b038616620000cc5760405163d92e233d60e01b815260040160405180910390fd5b6001600160a01b038516620000f45760405163d92e233d60e01b815260040160405180910390fd5b6001600160a01b0387166200011c5760405163d92e233d60e01b815260040160405180910390fd5b6001600160a01b0386166080526200013d6001600160601b038516620002c8565b6200014883620003da565b620001538162000462565b5f620001726200016b6002546001600160a01b031690565b846200048a565b5f805260046020527f17ef568e3e12ab5b9c7254a8d58478811de00f9e6eb34345acd53bf8fd09d3ec80546001600160a01b039092166001600160a01b03199092168217905560a0525062000ce99650505050505050565b5f80546001600160a01b038381166001600160a01b0319831681178455604051919092169283917f8be0079c531659141344cd1fd0a4f28419497f9722a3daafe3b4186f6b6457e09190a35050565b6002546001600160a01b03166001600160a01b0316816001600160a01b031603620002575760405163a741a04560e01b815260040160405180910390fd5b6001600160a01b0381166200027f5760405163d92e233d60e01b815260040160405180910390fd5b600280546001600160a01b0319166001600160a01b0383169081179091556040517fe43176ad83b85c7f6487987d0f13cbdc9e4a7010bfbf3148a181d1247e12067f905f90a250565b6006546001600160601b03168103620002f45760405163a741a04560e01b815260040160405180910390fd5b6706f05b59d3b200008111156200031e5760405163f4df6ae560e01b815260040160405180910390fd5b80158015906200034857505f6200033d6002546001600160a01b031690565b6001600160a01b0316145b1562000367576040516333fe7c6560e21b815260040160405180910390fd5b600680546001600160601b0319166001600160601b0383161790556200038a3390565b6006546040516001600160601b0390911681526001600160a01b0391909116907f01fe2943baee27f47add82886c2200f910c749c461c9b63c5fe83901a53bdb499060200160405180910390a250565b6007548103620003fd5760405163a741a04560e01b815260040160405180910390fd5b670de0b6b3a764000081111562000427576040516316eed69560e31b815260040160405180910390fd5b60078190556040518181527f5be34322cfabe5fcd91b5b07bd988fb7651f4405d3081fa3e7c599e2cd8a30659060200160405180910390a150565b6008548103620004855760405163a741a04560e01b815260040160405180910390fd5b600855565b5f816200049f6002546001600160a01b031690565b5f546001600160a01b03166080516080516001600160a01b03166338d52e0f6040518163ffffffff1660e01b8152600401602060405180830381865afa158015620004ec573d5f803e3d5ffd5b505050506040513d601f19601f8201168201806040525081019062000512919062000ab2565b6080516001600160a01b03166306fdde036040518163ffffffff1660e01b81526004015f60405180830381865afa15801562000550573d5f803e3d5ffd5b505050506040513d5f823e601f3d908101601f1916820160405262000579919081019062000b0d565b6040516020016200058b919062000bc0565b6040516020818303038152906040526080516001600160a01b03166395d89b416040518163ffffffff1660e01b81526004015f60405180830381865afa158015620005d8573d5f803e3d5ffd5b505050506040513d5f823e601f3d908101601f1916820160405262000601919081019062000b0d565b60405160200162000613919062000bf4565b60408051601f1981840301815291905289620006376002546001600160a01b031690565b6006546040516001600160601b0390911690620006549062000a04565b620006689998979695949392919062000c4c565b8190604051809103905ff590508015801562000686573d5f803e3d5ffd5b506001600160a01b0381165f908152600360205260409020805460ff1916600117905560085490915015620007d6575f6080516001600160a01b03166338d52e0f6040518163ffffffff1660e01b8152600401602060405180830381865afa158015620006f5573d5f803e3d5ffd5b505050506040513d601f19601f820116820180604052508101906200071b919062000ab2565b60085490915062000739906001600160a01b0383169084906200087c565b600854604051636e553f6560e01b815260048101919091523060248201525f906001600160a01b03841690636e553f65906044016020604051808303815f875af11580156200078a573d5f803e3d5ffd5b505050506040513d601f19601f82011682018060405250810190620007b0919062000cd1565b9050805f03620007d35760405163d6a0a04160e01b815260040160405180910390fd5b50505b6080516001600160a01b0390811690339083167f16fd1abf080c4e4033aa07b9abf7edf2baed124de11f1b57782f10f9f623f8656200081c5f546001600160a01b031690565b87620008306002546001600160a01b031690565b600654604080516001600160a01b039586168152938516602085015291909316908201526001600160601b0390911660608201526080810187905260a00160405180910390a492915050565b604080516001600160a01b038416602482015260448082018490528251808303909101815260649091019091526020810180516001600160e01b0390811663095ea7b360e01b17909152620008d690859083906200094716565b6200094157604080516001600160a01b03851660248201525f6044808301919091528251808303909101815260649091019091526020810180516001600160e01b0390811663095ea7b360e01b17909152620009359186916200099316565b62000941848262000993565b50505050565b5f805f8060205f8651602088015f8a5af192503d91505f51905082801562000989575081156200097b578060011462000989565b5f866001600160a01b03163b115b9695505050505050565b5f8060205f8451602086015f885af180620009b3576040513d5f823e3d81fd5b50505f513d91508115620009cc578060011415620009d9565b6001600160a01b0384163b155b156200094157604051635274afe760e01b81526001600160a01b03851660048201526024016200005b565b6135be8062006b2d83390190565b80516001600160a01b038116811462000a29575f80fd5b919050565b5f805f805f805f60e0888a03121562000a45575f80fd5b62000a508862000a12565b965062000a606020890162000a12565b955062000a706040890162000a12565b60608901519095506001600160601b038116811462000a8d575f80fd5b809450506080880151925060a0880151915060c0880151905092959891949750929550565b5f6020828403121562000ac3575f80fd5b62000ace8262000a12565b9392505050565b634e487b7160e01b5f52604160045260245ffd5b5f5b8381101562000b0557818101518382015260200162000aeb565b50505f910152565b5f6020828403121562000b1e575f80fd5b81516001600160401b038082111562000b35575f80fd5b818401915084601f83011262000b49575f80fd5b81518181111562000b5e5762000b5e62000ad5565b604051601f8201601f19908116603f0116810190838211818310171562000b895762000b8962000ad5565b8160405282815287602084870101111562000ba2575f80fd5b62000bb583602083016020880162000ae9565b979650505050505050565b6a029b2b7321022b0b9371d160ad1b81525f825162000be781600b85016020870162000ae9565b91909101600b0192915050565b61736560f01b81525f825162000c1281600285016020870162000ae9565b9190910160020192915050565b5f815180845262000c3881602086016020860162000ae9565b601f01601f19169290920160200192915050565b6001600160a01b038a81168252898116602083015288811660408301528781166060830152610120608083018190525f9162000c8b8483018a62000c1f565b915083820360a085015262000ca1828962000c1f565b96811660c08501529490941660e0830152506001600160601b039190911661010090910152509695505050505050565b5f6020828403121562000ce2575f80fd5b5051919050565b60805160a051615de362000d4a5f395f81816102b501528181610521015261056a01525f81816101c20152818161043801528181610af101528181610b1201528181610b9501528181610c3b01528181610d740152610eb80152615de35ff3fe608060405234801562000010575f80fd5b506004361062000158575f3560e01c806379ba509711620000c3578063ddca3f431162000083578063ddca3f43146200033b578063e30c39781462000368578063f2fde38b146200037a578063f76541761462000391578063fc7e286d146200039b578063fd21cab214620003c6575f80fd5b806379ba509714620002a95780637e9ae0d114620002b35780638da5cb5b14620002da57806394fc32a014620002eb578063b473b00b1462000304575f80fd5b80634bde38c8116200011b5780634bde38c8146200021d5780634f51e294146200022f578063674e694f146200025a5780636945c5ea146200027157806369fe0e2d1462000288578063715018a6146200029f575f80fd5b8063190cb71c146200015c5780633b80938e14620001755780633e6f4022146200018c578063411557d114620001c0578063464d225a14620001e7575b5f80fd5b620001736200016d366004620013f5565b620003dd565b005b620001736200018636600462001422565b620004ce565b620001a36200019d366004620013f5565b620004dd565b6040516001600160a01b0390911681526020015b60405180910390f35b7f0000000000000000000000000000000000000000000000000000000000000000620001a3565b6200020c620001f836600462001422565b60036020525f908152604090205460ff1681565b6040519015158152602001620001b7565b6002546001600160a01b0316620001a3565b620001a36200024036600462001422565b60046020525f90815260409020546001600160a01b031681565b620001736200026b36600462001447565b6200068a565b620001736200028236600462001422565b6200069f565b620001736200029936600462001447565b620006d6565b62000173620006eb565b6200017362000702565b7f0000000000000000000000000000000000000000000000000000000000000000620001a3565b5f546001600160a01b0316620001a3565b620002f560085481565b604051908152602001620001b7565b6200031b620003153660046200145f565b6200075b565b604080516001600160a01b039093168352602083019190915201620001b7565b6006546200034f906001600160601b031681565b6040516001600160601b039091168152602001620001b7565b6001546001600160a01b0316620001a3565b620001736200038b36600462001422565b62000888565b620002f560075481565b620001a3620003ac36600462001422565b60056020525f90815260409020546001600160a01b031681565b62000173620003d736600462001447565b6200095a565b620003e76200096f565b6001600160a01b0382166200040f5760405163d92e233d60e01b815260040160405180910390fd5b805f036200043057604051631f2a200560e01b815260040160405180910390fd5b620004ca82827f00000000000000000000000000000000000000000000000000000000000000006001600160a01b03166338d52e0f6040518163ffffffff1660e01b8152600401602060405180830381865afa15801562000493573d5f803e3d5ffd5b505050506040513d601f19601f82011682018060405250810190620004b9919062001494565b6001600160a01b031691906200099d565b5050565b620004da338262000a03565b50565b6001600160a01b038281165f9081526004602052604081205490911662000668576001600160a01b038381165f9081526005602052604081205490911662000546577f000000000000000000000000000000000000000000000000000000000000000062000561565b6001600160a01b038085165f90815260056020526040902054165b90505f838530847f00000000000000000000000000000000000000000000000000000000000000006040516200059790620013c4565b6001600160a01b0394851681529284166020840152908316604083015290911660608201526080018190604051809103905ff5905080158015620005dd573d5f803e3d5ffd5b50604080516001600160a01b038089168252831660208201529192507f74c65d7a8c9fdc2fea6eb644bb38e1c8ed16c4bd79de5f4c8a5bfbdb9675cd6f910160405180910390a162000630818562000acf565b6001600160a01b038681165f90815260046020526040902080546001600160a01b031916918316919091179055925062000684915050565b506001600160a01b038083165f90815260046020526040902054165b92915050565b620006946200096f565b620004da8162000f87565b6002546001600160a01b03163314620006cb57604051632f83518f60e11b815260040160405180910390fd5b620004da816200100f565b620006e06200096f565b620004da81620010be565b620006f56200096f565b620007005f620011b9565b565b60015433906001600160a01b03168114620007405760405163118cdaa760e01b81526001600160a01b03821660048201526024015b60405180910390fd5b600180546001600160a01b0319169055620004da81620011b9565b5f80620007698585620004dd565b91505f826001600160a01b03166338d52e0f6040518163ffffffff1660e01b8152600401602060405180830381865afa158015620007a9573d5f803e3d5ffd5b505050506040513d601f19601f82011682018060405250810190620007cf919062001494565b905080620007e96001600160a01b03821633308862001208565b620007ff6001600160a01b038216858762001249565b604051636e553f6560e01b8152600481018690523360248201526001600160a01b03851690636e553f65906044016020604051808303815f875af11580156200084a573d5f803e3d5ffd5b505050506040513d601f19601f82011682018060405250810190620008709190620014b2565b92506200087e338562000a03565b5050935093915050565b6002546001600160a01b03163314620008b457604051632f83518f60e11b815260040160405180910390fd5b5f546001600160a01b03166001600160a01b0316816001600160a01b031603620008f15760405163a741a04560e01b815260040160405180910390fd5b600180546001600160a01b0383166001600160a01b03199091168117909155620009225f546001600160a01b031690565b6001600160a01b03167f38d16b8cac22d99fc7c124b9cd0de2d3fa1faef420bfe791d8c362d765e2270060405160405180910390a350565b620009646200096f565b620004da81620012df565b5f546001600160a01b03163314620007005760405163118cdaa760e01b815233600482015260240162000737565b6040516001600160a01b03838116602483015260448201839052620009fe91859182169063a9059cbb906064015b604051602081830303815290604052915060e01b6020820180516001600160e01b03838183161783525050505062001307565b505050565b6001600160a01b0381165f9081526003602052604090205460ff1662000a3c576040516311da05e960e31b815260040160405180910390fd5b6001600160a01b038281165f9081526005602052604090205481831691160362000a795760405163a741a04560e01b815260040160405180910390fd5b6001600160a01b038281165f9081526005602052604080822080546001600160a01b0319169385169384179055517f918b905b9996c622fe73259e624b212bc4cf8ee216850d35429a4502a0482f049190a25050565b5f8162000ae46002546001600160a01b031690565b5f546001600160a01b03167f00000000000000000000000000000000000000000000000000000000000000007f00000000000000000000000000000000000000000000000000000000000000006001600160a01b03166338d52e0f6040518163ffffffff1660e01b8152600401602060405180830381865afa15801562000b6d573d5f803e3d5ffd5b505050506040513d601f19601f8201168201806040525081019062000b93919062001494565b7f00000000000000000000000000000000000000000000000000000000000000006001600160a01b03166306fdde036040518163ffffffff1660e01b81526004015f60405180830381865afa15801562000bef573d5f803e3d5ffd5b505050506040513d5f823e601f3d908101601f1916820160405262000c18919081019062001502565b60405160200162000c2a9190620015b6565b6040516020818303038152906040527f00000000000000000000000000000000000000000000000000000000000000006001600160a01b03166395d89b416040518163ffffffff1660e01b81526004015f60405180830381865afa15801562000c95573d5f803e3d5ffd5b505050506040513d5f823e601f3d908101601f1916820160405262000cbe919081019062001502565b60405160200162000cd09190620015ea565b6040516020818303038152906040528962000cf36002546001600160a01b031690565b6006546040516001600160601b039091169062000d1090620013d2565b62000d249998979695949392919062001642565b8190604051809103905ff590508015801562000d42573d5f803e3d5ffd5b506001600160a01b0381165f908152600360205260409020805460ff191660011790556008549091501562000eb6575f7f00000000000000000000000000000000000000000000000000000000000000006001600160a01b03166338d52e0f6040518163ffffffff1660e01b8152600401602060405180830381865afa15801562000dcf573d5f803e3d5ffd5b505050506040513d601f19601f8201168201806040525081019062000df5919062001494565b905062000e1982600854836001600160a01b0316620012499092919063ffffffff16565b600854604051636e553f6560e01b815260048101919091523060248201525f906001600160a01b03841690636e553f65906044016020604051808303815f875af115801562000e6a573d5f803e3d5ffd5b505050506040513d601f19601f8201168201806040525081019062000e909190620014b2565b9050805f0362000eb35760405163d6a0a04160e01b815260040160405180910390fd5b50505b7f00000000000000000000000000000000000000000000000000000000000000006001600160a01b0316336001600160a01b0316826001600160a01b03167f16fd1abf080c4e4033aa07b9abf7edf2baed124de11f1b57782f10f9f623f86562000f275f546001600160a01b031690565b8762000f3b6002546001600160a01b031690565b600654604080516001600160a01b039586168152938516602085015291909316908201526001600160601b0390911660608201526080810187905260a00160405180910390a492915050565b600754810362000faa5760405163a741a04560e01b815260040160405180910390fd5b670de0b6b3a764000081111562000fd4576040516316eed69560e31b815260040160405180910390fd5b60078190556040518181527f5be34322cfabe5fcd91b5b07bd988fb7651f4405d3081fa3e7c599e2cd8a30659060200160405180910390a150565b6002546001600160a01b03166001600160a01b0316816001600160a01b0316036200104d5760405163a741a04560e01b815260040160405180910390fd5b6001600160a01b038116620010755760405163d92e233d60e01b815260040160405180910390fd5b600280546001600160a01b0319166001600160a01b0383169081179091556040517fe43176ad83b85c7f6487987d0f13cbdc9e4a7010bfbf3148a181d1247e12067f905f90a250565b6006546001600160601b03168103620010ea5760405163a741a04560e01b815260040160405180910390fd5b6706f05b59d3b20000811115620011145760405163f4df6ae560e01b815260040160405180910390fd5b80158015906200113e57505f620011336002546001600160a01b031690565b6001600160a01b0316145b156200115d576040516333fe7c6560e21b815260040160405180910390fd5b600680546001600160601b0383166bffffffffffffffffffffffff199091168117909155604080519182525133917f01fe2943baee27f47add82886c2200f910c749c461c9b63c5fe83901a53bdb49919081900360200190a250565b5f80546001600160a01b038381166001600160a01b0319831681178455604051919092169283917f8be0079c531659141344cd1fd0a4f28419497f9722a3daafe3b4186f6b6457e09190a35050565b6040516001600160a01b038481166024830152838116604483015260648201839052620012439186918216906323b872dd90608401620009cb565b50505050565b604080516001600160a01b038416602482015260448082018490528251808303909101815260649091019091526020810180516001600160e01b031663095ea7b360e01b1790526200129c848262001378565b62001243576040516001600160a01b0384811660248301525f6044830152620012d391869182169063095ea7b390606401620009cb565b62001243848262001307565b6008548103620013025760405163a741a04560e01b815260040160405180910390fd5b600855565b5f8060205f8451602086015f885af18062001327576040513d5f823e3d81fd5b50505f513d91508115620013405780600114156200134d565b6001600160a01b0384163b155b156200124357604051635274afe760e01b81526001600160a01b038516600482015260240162000737565b5f805f8060205f8651602088015f8a5af192503d91505f519050828015620013ba57508115620013ac5780600114620013ba565b5f866001600160a01b03163b115b9695505050505050565b61112880620016c883390190565b6135be80620027f083390190565b6001600160a01b0381168114620004da575f80fd5b5f806040838503121562001407575f80fd5b82356200141481620013e0565b946020939093013593505050565b5f6020828403121562001433575f80fd5b81356200144081620013e0565b9392505050565b5f6020828403121562001458575f80fd5b5035919050565b5f805f6060848603121562001472575f80fd5b83356200147f81620013e0565b95602085013595506040909401359392505050565b5f60208284031215620014a5575f80fd5b81516200144081620013e0565b5f60208284031215620014c3575f80fd5b5051919050565b634e487b7160e01b5f52604160045260245ffd5b5f5b83811015620014fa578181015183820152602001620014e0565b50505f910152565b5f6020828403121562001513575f80fd5b815167ffffffffffffffff808211156200152b575f80fd5b818401915084601f8301126200153f575f80fd5b815181811115620015545762001554620014ca565b604051601f8201601f19908116603f011681019083821181831017156200157f576200157f620014ca565b8160405282815287602084870101111562001598575f80fd5b620015ab836020830160208801620014de565b979650505050505050565b6a029b2b7321022b0b9371d160ad1b81525f8251620015dd81600b850160208701620014de565b91909101600b0192915050565b61736560f01b81525f825162001608816002850160208701620014de565b9190910160020192915050565b5f81518084526200162e816020860160208601620014de565b601f01601f19169290920160200192915050565b6001600160a01b038a81168252898116602083015288811660408301528781166060830152610120608083018190525f91620016818483018a62001615565b915083820360a085015262001697828962001615565b96811660c08501529490941660e0830152506001600160601b03919091166101009091015250969550505050505056fe60e060405234801562000010575f80fd5b506040516200112838038062001128833981016040819052620000339162000481565b6001600160a01b0384166200005b5760405163d92e233d60e01b815260040160405180910390fd5b6001600160a01b038316620000835760405163d92e233d60e01b815260040160405180910390fd5b6001600160a01b038216620000ab5760405163d92e233d60e01b815260040160405180910390fd5b6001600160a01b038116620000d35760405163d92e233d60e01b815260040160405180910390fd5b6001600160a01b0380851660a0528316608052620000f18262000205565b6001600160a01b0380821660c0525f54604080516338d52e0f60e01b8152905191909216916338d52e0f9160048083019260209291908290030181865afa1580156200013f573d5f803e3d5ffd5b505050506040513d601f19601f82011682018060405250810190620001659190620004db565b6001600160a01b031660c0516001600160a01b03166338d52e0f6040518163ffffffff1660e01b8152600401602060405180830381865afa158015620001ad573d5f803e3d5ffd5b505050506040513d601f19601f82011682018060405250810190620001d39190620004db565b6001600160a01b031614620001fb576040516341e0808560e11b815260040160405180910390fd5b50505050620004fe565b5f80546001600160a01b0319166001600160a01b0383169081178255604080516338d52e0f60e01b815290516338d52e0f916004808201926020929091908290030181865afa1580156200025b573d5f803e3d5ffd5b505050506040513d601f19601f82011682018060405250810190620002819190620004db565b90506200029a6001600160a01b038216835f19620002da565b6040516001600160a01b03831681527ffd1fcbc1570662ef31c0592a7fd355558238e52e81d22cd3395aa3fdd680aec59060200160405180910390a15050565b604080516001600160a01b038416602482015260448082018490528251808303909101815260649091019091526020810180516001600160e01b0390811663095ea7b360e01b17909152620003349085908390620003a516565b6200039f57604080516001600160a01b03851660248201525f6044808301919091528251808303909101815260649091019091526020810180516001600160e01b0390811663095ea7b360e01b1790915262000393918691620003f116565b6200039f8482620003f1565b50505050565b5f805f8060205f8651602088015f8a5af192503d91505f519050828015620003e757508115620003d95780600114620003e7565b5f866001600160a01b03163b115b9695505050505050565b5f8060205f8451602086015f885af18062000411576040513d5f823e3d81fd5b50505f513d915081156200042a57806001141562000437565b6001600160a01b0384163b155b156200039f57604051635274afe760e01b81526001600160a01b038516600482015260240160405180910390fd5b80516001600160a01b03811681146200047c575f80fd5b919050565b5f805f806080858703121562000495575f80fd5b620004a08562000465565b9350620004b06020860162000465565b9250620004c06040860162000465565b9150620004d06060860162000465565b905092959194509250565b5f60208284031215620004ec575f80fd5b620004f78262000465565b9392505050565b60805160a05160c051610bde6200054a5f395f818160db015261042d01525f818161010201528181610569015261064401525f818160980152818161036d015261045d0152610bde5ff3fe608060405234801561000f575f80fd5b506004361061007a575f3560e01c806345e05f431161005857806345e05f43146100fd578063a0b43d7a14610124578063a4ac019614610137578063ede6a80d1461014a575f80fd5b80630c11dedd1461007e57806316a1614b1461009357806320f094f8146100d6575b5f80fd5b61009161008c366004610afe565b61015c565b005b6100ba7f000000000000000000000000000000000000000000000000000000000000000081565b6040516001600160a01b03909116815260200160405180910390f35b6100ba7f000000000000000000000000000000000000000000000000000000000000000081565b6100ba7f000000000000000000000000000000000000000000000000000000000000000081565b610091610132366004610b19565b6101cb565b610091610145366004610afe565b610639565b5f546100ba906001600160a01b031681565b604051636c82bbbf60e11b81523060048201526101c89082906001600160a01b0382169063d905777e90602401602060405180830381865afa1580156101a4573d5f803e3d5ffd5b505050506040513d601f19601f820116820180604052508101906101329190610b43565b50565b5f826001600160a01b03166338d52e0f6040518163ffffffff1660e01b8152600401602060405180830381865afa158015610208573d5f803e3d5ffd5b505050506040513d601f19601f8201168201806040525081019061022c9190610b5a565b90505f8054906101000a90046001600160a01b03166001600160a01b03166338d52e0f6040518163ffffffff1660e01b8152600401602060405180830381865afa15801561027c573d5f803e3d5ffd5b505050506040513d601f19601f820116820180604052508101906102a09190610b5a565b6001600160a01b0316816001600160a01b0316146102d1576040516341e0808560e11b815260040160405180910390fd5b815f036102f157604051631f2a200560e01b815260040160405180910390fd5b604051635d043b2960e11b815260048101839052306024820181905260448201525f906001600160a01b0385169063ba087652906064016020604051808303815f875af1158015610344573d5f803e3d5ffd5b505050506040513d601f19601f820116820180604052508101906103689190610b43565b90505f7f00000000000000000000000000000000000000000000000000000000000000006001600160a01b031663f76541766040518163ffffffff1660e01b8152600401602060405180830381865afa1580156103c7573d5f803e3d5ffd5b505050506040513d601f19601f820116820180604052508101906103eb9190610b43565b90505f6104018383670de0b6b3a76400006107de565b90505f61042961041984670de0b6b3a7640000610b75565b8590670de0b6b3a76400006107de565b90507f00000000000000000000000000000000000000000000000000000000000000006001600160a01b0316636e553f65837f00000000000000000000000000000000000000000000000000000000000000006001600160a01b0316634bde38c86040518163ffffffff1660e01b8152600401602060405180830381865afa1580156104b7573d5f803e3d5ffd5b505050506040513d601f19601f820116820180604052508101906104db9190610b5a565b6040516001600160e01b031960e085901b16815260048101929092526001600160a01b031660248201526044016020604051808303815f875af1158015610524573d5f803e3d5ffd5b505050506040513d601f19601f820116820180604052508101906105489190610b43565b505f54604051636e553f6560e01b8152600481018390526001600160a01b037f00000000000000000000000000000000000000000000000000000000000000008116602483015290911690636e553f65906044016020604051808303815f875af11580156105b8573d5f803e3d5ffd5b505050506040513d601f19601f820116820180604052508101906105dc9190610b43565b5060408051858152602081018490529081018290526001600160a01b03808716919089169033907fc4ce54c1320cadbd601d3a3e05fb803403da08142478a2b48085658aa1bda47f9060600160405180910390a450505050505050565b336001600160a01b037f0000000000000000000000000000000000000000000000000000000000000000161461068257604051637e6c704d60e01b815260040160405180910390fd5b6001600160a01b0381166106a95760405163d92e233d60e01b815260040160405180910390fd5b5f546001600160a01b03908116908216036106d75760405163a741a04560e01b815260040160405180910390fd5b5f54604080516338d52e0f60e01b8152905183926001600160a01b0316916338d52e0f9160048083019260209291908290030181865afa15801561071d573d5f803e3d5ffd5b505050506040513d601f19601f820116820180604052508101906107419190610b5a565b6001600160a01b0316816001600160a01b03166338d52e0f6040518163ffffffff1660e01b8152600401602060405180830381865afa158015610786573d5f803e3d5ffd5b505050506040513d601f19601f820116820180604052508101906107aa9190610b5a565b6001600160a01b0316146107d1576040516341e0808560e11b815260040160405180910390fd5b6107da82610895565b5050565b5f838302815f1985870982811083820303915050805f036108125783828161080857610808610b94565b049250505061088e565b808411610829576108296003851502601118610965565b5f848688095f868103871696879004966002600389028118808a02820302808a02820302808a02820302808a02820302808a02820302808a02909103029181900381900460010186841190950394909402919094039290920491909117919091029150505b9392505050565b5f80546001600160a01b0319166001600160a01b0383169081178255604080516338d52e0f60e01b815290516338d52e0f916004808201926020929091908290030181865afa1580156108ea573d5f803e3d5ffd5b505050506040513d601f19601f8201168201806040525081019061090e9190610b5a565b90506109256001600160a01b038216835f19610976565b6040516001600160a01b03831681527ffd1fcbc1570662ef31c0592a7fd355558238e52e81d22cd3395aa3fdd680aec59060200160405180910390a15050565b634e487b715f52806020526024601cfd5b604080516001600160a01b038416602482015260448082018490528251808303909101815260649091019091526020810180516001600160e01b031663095ea7b360e01b1790526109c78482610a2f565b610a2957604080516001600160a01b03851660248201525f6044808301919091528251808303909101815260649091019091526020810180516001600160e01b031663095ea7b360e01b179052610a1f908590610a7a565b610a298482610a7a565b50505050565b5f805f8060205f8651602088015f8a5af192503d91505f519050828015610a6e57508115610a605780600114610a6e565b5f866001600160a01b03163b115b93505050505b92915050565b5f8060205f8451602086015f885af180610a99576040513d5f823e3d81fd5b50505f513d91508115610ab0578060011415610abd565b6001600160a01b0384163b155b15610a2957604051635274afe760e01b81526001600160a01b038516600482015260240160405180910390fd5b6001600160a01b03811681146101c8575f80fd5b5f60208284031215610b0e575f80fd5b813561088e81610aea565b5f8060408385031215610b2a575f80fd5b8235610b3581610aea565b946020939093013593505050565b5f60208284031215610b53575f80fd5b5051919050565b5f60208284031215610b6a575f80fd5b815161088e81610aea565b81810381811115610a7457634e487b7160e01b5f52601160045260245ffd5b634e487b7160e01b5f52601260045260245ffdfea264697066735822122073e90d19cd5566ba2f32615cdc7f51538f1290b945f7d1ee8584903c52c8ef7164736f6c634300081500336101e060405234801562000011575f80fd5b50604051620035be380380620035be833981016040819052620000349162000852565b88888680604051806040016040528060018152602001603160f81b8152508a8a8a8160039081620000669190620009d3565b506004620000758282620009d3565b5050505f806200008b836200039960201b60201c565b91509150816200009d5760126200009f565b805b60ff1660a05250506001600160a01b0316608052620000c082600562000478565b61016052620000d181600662000478565b61018052815160208084019190912061012052815190820120610140524660e052620001606101205161014051604080517f8b73c3c69bb8fe3d512ecc4cf759cc79239f7b179b0ffacaa9a75d522b39400f60208201529081019290925260608201524660808201523060a08201525f9060c00160405160208183030381529060405280519060200120905090565b60c05250503061010052506001600160a01b0381166200019a57604051631e4fbdf760e01b81525f60048201526024015b60405180910390fd5b620001a581620004b0565b506001600160a01b038116620001ce5760405163d92e233d60e01b815260040160405180910390fd5b620001d98162000501565b506001600160a01b038716620002025760405163d92e233d60e01b815260040160405180910390fd5b6001600160a01b038316156200022e57600b80546001600160a01b0319166001600160a01b0385161790555b6001600160a01b038216156200025a57600c80546001600160a01b0319166001600160a01b0384161790555b6706f05b59d3b20000816001600160601b031611156200028d5760405163f4df6ae560e01b815260040160405180910390fd5b6001600160601b03811615801590620002ad57506001600160a01b038316155b15620002cc576040516333fe7c6560e21b815260040160405180910390fd5b600a80546001600160601b038316600160a01b026001600160a01b03918216179091558781166101a0526040805163313ce56760e01b815290516200036c9289169163313ce5679160048083019260209291908290030181865afa15801562000337573d5f803e3d5ffd5b505050506040513d601f19601f820116820180604052508101906200035d919062000a9b565b60129060ff1680821191030290565b60ff166101c0526200038a6001600160a01b038716885f19620005b0565b50505050505050505062000b51565b60408051600481526024810182526020810180516001600160e01b031663313ce56760e01b17905290515f918291829182916001600160a01b03871691620003e19162000ac4565b5f60405180830381855afa9150503d805f81146200041b576040519150601f19603f3d011682016040523d82523d5f602084013e62000420565b606091505b50915091508180156200043557506020815110155b156200046c575f8180602001905181019062000452919062000ae1565b905060ff81116200046a576001969095509350505050565b505b505f9485945092505050565b5f60208351101562000497576200048f836200067b565b9050620004aa565b81620004a48482620009d3565b5060ff90505b92915050565b600880546001600160a01b038381166001600160a01b0319831681179093556040519116919082907f8be0079c531659141344cd1fd0a4f28419497f9722a3daafe3b4186f6b6457e0905f90a35050565b600a546001600160a01b03166001600160a01b0316816001600160a01b0316036200053f5760405163a741a04560e01b815260040160405180910390fd5b6001600160a01b038116620005675760405163d92e233d60e01b815260040160405180910390fd5b600a80546001600160a01b0319166001600160a01b0383169081179091556040517fe43176ad83b85c7f6487987d0f13cbdc9e4a7010bfbf3148a181d1247e12067f905f90a250565b604080516001600160a01b038416602482015260448082018490528251808303909101815260649091019091526020810180516001600160e01b0390811663095ea7b360e01b179091526200060a9085908390620006bd16565b6200067557604080516001600160a01b03851660248201525f6044808301919091528251808303909101815260649091019091526020810180516001600160e01b0390811663095ea7b360e01b17909152620006699186916200070916565b62000675848262000709565b50505050565b5f80829050601f81511115620006a8578260405163305a27a960e01b815260040162000191919062000af9565b8051620006b58262000b2d565b179392505050565b5f805f8060205f8651602088015f8a5af192503d91505f519050828015620006ff57508115620006f15780600114620006ff565b5f866001600160a01b03163b115b9695505050505050565b5f8060205f8451602086015f885af18062000729576040513d5f823e3d81fd5b50505f513d91508115620007425780600114156200074f565b6001600160a01b0384163b155b156200067557604051635274afe760e01b81526001600160a01b038516600482015260240162000191565b80516001600160a01b038116811462000791575f80fd5b919050565b634e487b7160e01b5f52604160045260245ffd5b5f5b83811015620007c6578181015183820152602001620007ac565b50505f910152565b5f82601f830112620007de575f80fd5b81516001600160401b0380821115620007fb57620007fb62000796565b604051601f8301601f19908116603f0116810190828211818310171562000826576200082662000796565b816040528381528660208588010111156200083f575f80fd5b620006ff846020830160208901620007aa565b5f805f805f805f805f6101208a8c0312156200086c575f80fd5b620008778a6200077a565b98506200088760208b016200077a565b97506200089760408b016200077a565b9650620008a760608b016200077a565b60808b01519096506001600160401b0380821115620008c4575f80fd5b620008d28d838e01620007ce565b965060a08c0151915080821115620008e8575f80fd5b50620008f78c828d01620007ce565b9450506200090860c08b016200077a565b92506200091860e08b016200077a565b6101008b01519092506001600160601b038116811462000936575f80fd5b809150509295985092959850929598565b600181811c908216806200095c57607f821691505b6020821081036200097b57634e487b7160e01b5f52602260045260245ffd5b50919050565b601f821115620009ce575f81815260208120601f850160051c81016020861015620009a95750805b601f850160051c820191505b81811015620009ca57828155600101620009b5565b5050505b505050565b81516001600160401b03811115620009ef57620009ef62000796565b62000a078162000a00845462000947565b8462000981565b602080601f83116001811462000a3d575f841562000a255750858301515b5f19600386901b1c1916600185901b178555620009ca565b5f85815260208120601f198616915b8281101562000a6d5788860151825594840194600190910190840162000a4c565b508582101562000a8b57878501515f19600388901b60f8161c191681555b5050505050600190811b01905550565b5f6020828403121562000aac575f80fd5b815160ff8116811462000abd575f80fd5b9392505050565b5f825162000ad7818460208701620007aa565b9190910192915050565b5f6020828403121562000af2575f80fd5b5051919050565b602081525f825180602084015262000b19816040850160208701620007aa565b601f01601f19169190910160400192915050565b805160208083015191908110156200097b575f1960209190910360031b1b16919050565b60805160a05160c05160e05161010051610120516101405161016051610180516101a0516101c0516129ad62000c115f395f818161050a015281816112ad015281816115b3015261176201525f81816103b8015281816106aa015281816114320152818161161f01528181611862015261195e01525f61172801525f6116fb01525f6113cb01525f6113a301525f6112fe01525f61132801525f61135201525f6112ce01525f818161036801528181611db10152611f6801526129ad5ff3fe608060405234801561000f575f80fd5b5060043610610297575f3560e01c806384b0196e11610161578063c6e6f592116100ca578063e30c397811610084578063e30c397814610636578063e562dfd614610647578063e74b981b1461065a578063ef8b30f714610580578063f07cef3e1461066d578063f2fde38b14610680575f80fd5b8063c6e6f59214610580578063ce96cb7714610593578063d505accf146105a6578063d905777e146105b9578063dd62ed3e146105cc578063ddca3f4314610604575f80fd5b8063aea70acc1161011b578063aea70acc14610505578063b26cc3941461052c578063b3d7f6b914610534578063b460af9414610547578063ba0876521461055a578063c63d75b61461056d575f80fd5b806384b0196e1461048b5780638da5cb5b146104a657806394bf804d146104b757806395d89b41146104ca578063a9059cbb146104d2578063ac9650d8146104e5575f80fd5b8063411557d11161020357806369fe0e2d116101bd57806369fe0e2d1461041a5780636e553f651461042d57806370a0823114610440578063715018a61461046857806379ba5097146104705780637ecebe0014610478575f80fd5b8063411557d1146103b357806346904840146103da5780634bde38c8146103ed5780634cdad506146102e0578063568efc07146103fe5780636945c5ea14610407575f80fd5b806318160ddd1161025457806318160ddd1461032957806323b872dd14610331578063313ce567146103445780633644e5151461035e57806338d52e0f14610366578063402d267d146103a0575f80fd5b806301e1d1141461029b57806306ec16f8146102b657806306fdde03146102cb57806307a2d13a146102e0578063095ea7b3146102f35780630a28a47714610316575b5f80fd5b6102a3610693565b6040519081526020015b60405180910390f35b6102c96102c436600461237d565b610785565b005b6102d3610877565b6040516102ad91906123e3565b6102a36102ee3660046123f5565b610907565b61030661030136600461240c565b610918565b60405190151581526020016102ad565b6102a36103243660046123f5565b61092f565b6002546102a3565b61030661033f366004612434565b61093b565b61034c610960565b60405160ff90911681526020016102ad565b6102a3610969565b7f00000000000000000000000000000000000000000000000000000000000000005b6040516001600160a01b0390911681526020016102ad565b6102a36103ae36600461237d565b610972565b6103887f000000000000000000000000000000000000000000000000000000000000000081565b600b54610388906001600160a01b031681565b600a546001600160a01b0316610388565b6102a3600d5481565b6102c961041536600461237d565b61097b565b6102c96104283660046123f5565b6109b2565b6102a361043b36600461246d565b610aca565b6102a361044e36600461237d565b6001600160a01b03165f9081526020819052604090205490565b6102c9610b04565b6102c9610b17565b6102a361048636600461237d565b610b6d565b610493610b8a565b6040516102ad9796959493929190612497565b6008546001600160a01b0316610388565b6102a36104c536600461246d565b610bcc565b6102d3610c00565b6103066104e036600461240c565b610c0f565b6104f86104f336600461252b565b610c1c565b6040516102ad919061259a565b61034c7f000000000000000000000000000000000000000000000000000000000000000081565b6102c9610d0d565b6102a36105423660046123f5565b610d1d565b6102a36105553660046125fa565b610d29565b6102a36105683660046125fa565b610d70565b6102a361057b36600461237d565b610dae565b6102a361058e3660046123f5565b610dc4565b6102a36105a136600461237d565b610dcf565b6102c96105b4366004612633565b610de2565b6102a36105c736600461237d565b610f18565b6102a36105da3660046126a0565b6001600160a01b039182165f90815260016020908152604080832093909416825291909152205490565b600a5461061e90600160a01b90046001600160601b031681565b6040516001600160601b0390911681526020016102ad565b6009546001600160a01b0316610388565b600c54610388906001600160a01b031681565b6102c961066836600461237d565b610f40565b6102c961067b36600461237d565b610fb8565b6102c961068e36600461237d565b611030565b6040516370a0823160e01b81523060048201525f907f00000000000000000000000000000000000000000000000000000000000000006001600160a01b0316906307a2d13a9082906370a0823190602401602060405180830381865afa1580156106ff573d5f803e3d5ffd5b505050506040513d601f19601f8201168201806040525081019061072391906126c8565b6040518263ffffffff1660e01b815260040161074191815260200190565b602060405180830381865afa15801561075c573d5f803e3d5ffd5b505050506040513d601f19601f8201168201806040525081019061078091906126c8565b905090565b600c546001600160a01b03166107ae5760405163d92e233d60e01b815260040160405180910390fd5b6040516370a0823160e01b81523060048201525f906001600160a01b038316906370a0823190602401602060405180830381865afa1580156107f2573d5f803e3d5ffd5b505050506040513d601f19601f8201168201806040525081019061081691906126c8565b600c54909150610833906001600160a01b03848116911683611101565b6040518181526001600160a01b0383169033907f1314fd112a381beea61539dbd21ec04afcff2662ac7d1b83273aade1f53d1b979060200160405180910390a35050565b606060038054610886906126df565b80601f01602080910402602001604051908101604052809291908181526020018280546108b2906126df565b80156108fd5780601f106108d4576101008083540402835291602001916108fd565b820191905f5260205f20905b8154815290600101906020018083116108e057829003601f168201915b5050505050905090565b5f610912825f611165565b92915050565b5f33610925818585611193565b5060019392505050565b5f6109128260016111a0565b5f336109488582856111ce565b61095385858561124a565b60019150505b9392505050565b5f6107806112a7565b5f6107806112f2565b5f61091261141b565b600a546001600160a01b031633146109a657604051632f83518f60e11b815260040160405180910390fd5b6109af81611469565b50565b6109ba611516565b600a54600160a01b90046001600160601b031681036109ec5760405163a741a04560e01b815260040160405180910390fd5b6706f05b59d3b20000811115610a155760405163f4df6ae560e01b815260040160405180910390fd5b8015801590610a2d5750600b546001600160a01b0316155b15610a4b576040516333fe7c6560e21b815260040160405180910390fd5b610a53610d0d565b600a80546001600160a01b0316600160a01b6001600160601b0384160217905533600a54604051600160a01b9091046001600160601b031681526001600160a01b0391909116907f01fe2943baee27f47add82886c2200f910c749c461c9b63c5fe83901a53bdb499060200160405180910390a250565b5f80610ad4611543565b600d8190559050610aef84610ae860025490565b835f6115aa565b9150610afd338486856115f7565b5092915050565b610b0c611516565b610b155f6116a3565b565b60095433906001600160a01b03168114610b545760405163118cdaa760e01b81526001600160a01b03821660048201526024015b60405180910390fd5b600980546001600160a01b03191690556109af816116a3565b6001600160a01b0381165f90815260076020526040812054610912565b5f6060805f805f6060610b9b6116f4565b610ba3611721565b604080515f80825260208201909252600f60f81b9b939a50919850469750309650945092509050565b5f80610bd6611543565b600d8190559050610bf284610bea60025490565b83600161174e565b9150610afd338484876115f7565b606060048054610886906126df565b5f3361092581858561124a565b604080515f8152602081019091526060908267ffffffffffffffff811115610c4657610c46612717565b604051908082528060200260200182016040528015610c7957816020015b6060815260200190600190039081610c645790505b5091505f5b83811015610d0557610cd530868684818110610c9c57610c9c612752565b9050602002810190610cae9190612766565b85604051602001610cc1939291906127b0565b604051602081830303815290604052611792565b838281518110610ce757610ce7612752565b60200260200101819052508080610cfd906127d5565b915050610c7e565b505092915050565b610b15610d18611543565b6117fb565b5f610912826001611165565b5f80610d33611543565b9050610d4a85610d4260025490565b8360016115aa565b9150610d5b858203868311026117fb565b610d68338585888661183f565b509392505050565b5f80610d7a611543565b9050610d9085610d8960025490565b835f61174e565b9150610da1828203838311026117fb565b610d68338585858961183f565b5f80610db861141b565b9050610959815f6111a0565b5f610912825f6111a0565b5f610dd9826118e9565b50909392505050565b83421115610e065760405163313c898160e11b815260048101859052602401610b4b565b5f7f6e71edae12b1b97f4d1f60370fef10105fa2faae0126114a169c64845d6126c9888888610e518c6001600160a01b03165f90815260076020526040902080546001810190915590565b6040805160208101969096526001600160a01b0394851690860152929091166060840152608083015260a082015260c0810186905260e0016040516020818303038152906040528051906020012090505f610eab826119dc565b90505f610eba82878787611a08565b9050896001600160a01b0316816001600160a01b031614610f01576040516325c0072360e11b81526001600160a01b0380831660048301528b166024820152604401610b4b565b610f0c8a8a8a611193565b50505050505050505050565b5f805f80610f25856118e9565b925092509250610f378383835f6115aa565b95945050505050565b610f48611516565b6001600160a01b038116610f6f5760405163d92e233d60e01b815260040160405180910390fd5b600b80546001600160a01b0319166001600160a01b0383169081179091556040517f2e979f80fe4d43055c584cf4a8467c55875ea36728fc37176c05acd784eb7a73905f90a250565b610fc0611516565b6001600160a01b038116610fe75760405163d92e233d60e01b815260040160405180910390fd5b600c80546001600160a01b0319166001600160a01b0383169081179091556040517fbf4da31489bf7d607626c05856478443f1ecd2ca7b005fe2f83a45fbd9fe1ee7905f90a250565b600a546001600160a01b0316331461105b57604051632f83518f60e11b815260040160405180910390fd5b6008546001600160a01b03166001600160a01b0316816001600160a01b0316036110985760405163a741a04560e01b815260040160405180910390fd5b600980546001600160a01b0383166001600160a01b031990911681179091556110c96008546001600160a01b031690565b6001600160a01b03167f38d16b8cac22d99fc7c124b9cd0de2d3fa1faef420bfe791d8c362d765e2270060405160405180910390a350565b6040516001600160a01b0383811660248301526044820183905261116091859182169063a9059cbb906064015b604051602081830303815290604052915060e01b6020820180516001600160e01b038381831617835250505050611a34565b505050565b5f805f611170611aa0565b91509150610f37858361118260025490565b61118c91906127ed565b838761174e565b6111608383836001611b3a565b5f805f6111ab611aa0565b91509150610f3785836111bd60025490565b6111c791906127ed565b83876115aa565b6001600160a01b038381165f908152600160209081526040808320938616835292905220545f19811015611244578181101561123657604051637dc7a0d960e11b81526001600160a01b03841660048201526024810182905260448101839052606401610b4b565b61124484848484035f611b3a565b50505050565b6001600160a01b03831661127357604051634b637e8f60e11b81525f6004820152602401610b4b565b6001600160a01b03821661129c5760405163ec442f0560e01b81525f6004820152602401610b4b565b611160838383611c0c565b5f6107807f00000000000000000000000000000000000000000000000000000000000000007f0000000000000000000000000000000000000000000000000000000000000000612800565b5f306001600160a01b037f00000000000000000000000000000000000000000000000000000000000000001614801561134a57507f000000000000000000000000000000000000000000000000000000000000000046145b1561137457507f000000000000000000000000000000000000000000000000000000000000000090565b610780604080517f8b73c3c69bb8fe3d512ecc4cf759cc79239f7b179b0ffacaa9a75d522b39400f60208201527f0000000000000000000000000000000000000000000000000000000000000000918101919091527f000000000000000000000000000000000000000000000000000000000000000060608201524660808201523060a08201525f9060c00160405160208183030381529060405280519060200120905090565b60405163402d267d60e01b81523060048201525f907f00000000000000000000000000000000000000000000000000000000000000006001600160a01b03169063402d267d90602401610741565b600a546001600160a01b03166001600160a01b0316816001600160a01b0316036114a65760405163a741a04560e01b815260040160405180910390fd5b6001600160a01b0381166114cd5760405163d92e233d60e01b815260040160405180910390fd5b600a80546001600160a01b0319166001600160a01b0383169081179091556040517fe43176ad83b85c7f6487987d0f13cbdc9e4a7010bfbf3148a181d1247e12067f905f90a250565b6008546001600160a01b03163314610b155760405163118cdaa760e01b8152336004820152602401610b4b565b5f8061154d611aa0565b92509050801561156d57600b5461156d906001600160a01b031682611d32565b60408051838152602081018390527ff66f28b40975dbb933913542c7e6a0f50a1d0f20aa74ea6e0efe65ab616323ec910160405180910390a15090565b5f610f376115d97f0000000000000000000000000000000000000000000000000000000000000000600a6128f9565b6115e390866127ed565b6115ee8560016127ed565b87919085611d6a565b61160384848484611dac565b604051636e553f6560e01b8152600481018390523060248201527f00000000000000000000000000000000000000000000000000000000000000006001600160a01b031690636e553f65906044016020604051808303815f875af115801561166d573d5f803e3d5ffd5b505050506040513d601f19601f8201168201806040525081019061169191906126c8565b5061124482600d54610d1891906127ed565b600880546001600160a01b038381166001600160a01b0319831681179093556040519116919082907f8be0079c531659141344cd1fd0a4f28419497f9722a3daafe3b4186f6b6457e0905f90a35050565b60606107807f00000000000000000000000000000000000000000000000000000000000000006005611e30565b60606107807f00000000000000000000000000000000000000000000000000000000000000006006611e30565b5f610f3761175d8460016127ed565b6117887f0000000000000000000000000000000000000000000000000000000000000000600a6128f9565b6115ee90876127ed565b60605f80846001600160a01b0316846040516117ae9190612907565b5f60405180830381855af49150503d805f81146117e6576040519150601f19603f3d011682016040523d82523d5f602084013e6117eb565b606091505b5091509150610f37858383611ed9565b600d8190556040518181527f15c027cc4fd826d986cad358803439f7326d3aa4ed969ff90dbee4bc150f68e99060200160405180910390a150565b80821191030290565b604051632d182be560e21b815260048101839052306024820181905260448201527f00000000000000000000000000000000000000000000000000000000000000006001600160a01b03169063b460af94906064016020604051808303815f875af11580156118b0573d5f803e3d5ffd5b505050506040513d601f19601f820116820180604052508101906118d491906126c8565b506118e28585858585611f35565b5050505050565b5f805f806118f5611aa0565b925090508061190360025490565b61190d91906127ed565b9250611938611930866001600160a01b03165f9081526020819052604090205490565b84845f61174e565b60405163ce96cb7760e01b81523060048201529094506119d29085906001600160a01b037f0000000000000000000000000000000000000000000000000000000000000000169063ce96cb7790602401602060405180830381865afa1580156119a3573d5f803e3d5ffd5b505050506040513d601f19601f820116820180604052508101906119c791906126c8565b808218908211021890565b9350509193909250565b5f6109126119e86112f2565b8360405161190160f01b8152600281019290925260228201526042902090565b5f805f80611a1888888888611ff5565b925092509250611a2882826120bd565b50909695505050505050565b5f8060205f8451602086015f885af180611a53576040513d5f823e3d81fd5b50505f513d91508115611a6a578060011415611a77565b6001600160a01b0384163b155b1561124457604051635274afe760e01b81526001600160a01b0385166004820152602401610b4b565b5f80611aaa610693565b90505f611ac2600d548361183690919063ffffffff16565b90508015801590611ae45750600a54600160a01b90046001600160601b031615155b15611b3557600a545f90611b12908390600160a01b90046001600160601b0316670de0b6b3a7640000612175565b9050611b3181611b2160025490565b611b2b848761273f565b5f6115aa565b9350505b509091565b6001600160a01b038416611b635760405163e602df0560e01b81525f6004820152602401610b4b565b6001600160a01b038316611b8c57604051634a1406b160e11b81525f6004820152602401610b4b565b6001600160a01b038085165f908152600160209081526040808320938716835292905220829055801561124457826001600160a01b0316846001600160a01b03167f8c5be1e5ebec7d5bd14f71427d1e84f3dd0314c0f7b2291e5b200ac8c7c3b92584604051611bfe91815260200190565b60405180910390a350505050565b6001600160a01b038316611c36578060025f828254611c2b91906127ed565b90915550611ca69050565b6001600160a01b0383165f9081526020819052604090205481811015611c885760405163391434e360e21b81526001600160a01b03851660048201526024810182905260448101839052606401610b4b565b6001600160a01b0384165f9081526020819052604090209082900390555b6001600160a01b038216611cc257600280548290039055611ce0565b6001600160a01b0382165f9081526020819052604090208054820190555b816001600160a01b0316836001600160a01b03167fddf252ad1be2c89b69c2b068fc378daa952ba7f163c4a11628f55a4df523b3ef83604051611d2591815260200190565b60405180910390a3505050565b6001600160a01b038216611d5b5760405163ec442f0560e01b81525f6004820152602401610b4b565b611d665f8383611c0c565b5050565b5f611d97611d778361222b565b8015611d9257505f8480611d8d57611d8d612922565b868809115b151590565b611da2868686612175565b610f3791906127ed565b611dd87f0000000000000000000000000000000000000000000000000000000000000000853085612257565b611de28382611d32565b826001600160a01b0316846001600160a01b03167fdcbc1c05240f31ff3ad067ef1ee35ce4997762752e3a095284754544f4c709d78484604051611bfe929190918252602082015260400190565b606060ff8314611e4a57611e4383612290565b9050610912565b818054611e56906126df565b80601f0160208091040260200160405190810160405280929190818152602001828054611e82906126df565b8015611ecd5780601f10611ea457610100808354040283529160200191611ecd565b820191905f5260205f20905b815481529060010190602001808311611eb057829003601f168201915b50505050509050610912565b606082611eee57611ee9826122cd565b610959565b8151158015611f0557506001600160a01b0384163b155b15611f2e57604051639996b31560e01b81526001600160a01b0385166004820152602401610b4b565b5080610959565b826001600160a01b0316856001600160a01b031614611f5957611f598386836111ce565b611f6383826122f6565b611f8e7f00000000000000000000000000000000000000000000000000000000000000008584611101565b826001600160a01b0316846001600160a01b0316866001600160a01b03167ffbde797d201c681b91056529119e0b02407c7bb96a4a2c75c01fc9667232c8db8585604051611fe6929190918252602082015260400190565b60405180910390a45050505050565b5f80807f7fffffffffffffffffffffffffffffff5d576e7357a4501ddfe92f46681b20a084111561202e57505f915060039050826120b3565b604080515f808252602082018084528a905260ff891692820192909252606081018790526080810186905260019060a0016020604051602081039080840390855afa15801561207f573d5f803e3d5ffd5b5050604051601f1901519150506001600160a01b0381166120aa57505f9250600191508290506120b3565b92505f91508190505b9450945094915050565b5f8260038111156120d0576120d0612936565b036120d9575050565b60018260038111156120ed576120ed612936565b0361210b5760405163f645eedf60e01b815260040160405180910390fd5b600282600381111561211f5761211f612936565b036121405760405163fce698f760e01b815260048101829052602401610b4b565b600382600381111561215457612154612936565b03611d66576040516335e2f38360e21b815260048101829052602401610b4b565b5f838302815f1985870982811083820303915050805f036121a95783828161219f5761219f612922565b0492505050610959565b8084116121c0576121c0600385150260111861232a565b5f848688095f868103871696879004966002600389028118808a02820302808a02820302808a02820302808a02820302808a02820302808a02909103029181900381900460010186841190950394909402919094039290920491909117919091029150509392505050565b5f600282600381111561224057612240612936565b61224a919061294a565b60ff166001149050919050565b6040516001600160a01b0384811660248301528381166044830152606482018390526112449186918216906323b872dd9060840161112e565b60605f61229c8361233b565b6040805160208082528183019092529192505f91906020820181803683375050509182525060208101929092525090565b8051156122dd5780518082602001fd5b60405163d6bda27560e01b815260040160405180910390fd5b6001600160a01b03821661231f57604051634b637e8f60e11b81525f6004820152602401610b4b565b611d66825f83611c0c565b634e487b715f52806020526024601cfd5b5f60ff8216601f81111561091257604051632cd44ac360e21b815260040160405180910390fd5b80356001600160a01b0381168114612378575f80fd5b919050565b5f6020828403121561238d575f80fd5b61095982612362565b5f5b838110156123b0578181015183820152602001612398565b50505f910152565b5f81518084526123cf816020860160208601612396565b601f01601f19169290920160200192915050565b602081525f61095960208301846123b8565b5f60208284031215612405575f80fd5b5035919050565b5f806040838503121561241d575f80fd5b61242683612362565b946020939093013593505050565b5f805f60608486031215612446575f80fd5b61244f84612362565b925061245d60208501612362565b9150604084013590509250925092565b5f806040838503121561247e575f80fd5b8235915061248e60208401612362565b90509250929050565b60ff60f81b881681525f602060e0818401526124b660e084018a6123b8565b83810360408501526124c8818a6123b8565b606085018990526001600160a01b038816608086015260a0850187905284810360c086015285518082528387019250908301905f5b81811015612519578351835292840192918401916001016124fd565b50909c9b505050505050505050505050565b5f806020838503121561253c575f80fd5b823567ffffffffffffffff80821115612553575f80fd5b818501915085601f830112612566575f80fd5b813581811115612574575f80fd5b8660208260051b8501011115612588575f80fd5b60209290920196919550909350505050565b5f602080830181845280855180835260408601915060408160051b87010192508387015f5b828110156125ed57603f198886030184526125db8583516123b8565b945092850192908501906001016125bf565b5092979650505050505050565b5f805f6060848603121561260c575f80fd5b8335925061261c60208501612362565b915061262a60408501612362565b90509250925092565b5f805f805f805f60e0888a031215612649575f80fd5b61265288612362565b965061266060208901612362565b95506040880135945060608801359350608088013560ff81168114612683575f80fd5b9699959850939692959460a0840135945060c09093013592915050565b5f80604083850312156126b1575f80fd5b6126ba83612362565b915061248e60208401612362565b5f602082840312156126d8575f80fd5b5051919050565b600181811c908216806126f357607f821691505b60208210810361271157634e487b7160e01b5f52602260045260245ffd5b50919050565b634e487b7160e01b5f52604160045260245ffd5b634e487b7160e01b5f52601160045260245ffd5b818103818111156109125761091261272b565b634e487b7160e01b5f52603260045260245ffd5b5f808335601e1984360301811261277b575f80fd5b83018035915067ffffffffffffffff821115612795575f80fd5b6020019150368190038213156127a9575f80fd5b9250929050565b828482375f8382015f815283516127cb818360208801612396565b0195945050505050565b5f600182016127e6576127e661272b565b5060010190565b808201808211156109125761091261272b565b60ff81811683821601908111156109125761091261272b565b600181815b8085111561285357815f19048211156128395761283961272b565b8085161561284657918102915b93841c939080029061281e565b509250929050565b5f8261286957506001610912565b8161287557505f610912565b816001811461288b5760028114612895576128b1565b6001915050610912565b60ff8411156128a6576128a661272b565b50506001821b610912565b5060208310610133831016604e8410600b84101617156128d4575081810a610912565b6128de8383612819565b805f19048211156128f1576128f161272b565b029392505050565b5f61095960ff84168361285b565b5f8251612918818460208701612396565b9190910192915050565b634e487b7160e01b5f52601260045260245ffd5b634e487b7160e01b5f52602160045260245ffd5b5f60ff83168061296857634e487b7160e01b5f52601260045260245ffd5b8060ff8416069150509291505056fea2646970667358221220f10b958b68c0a43a92625364a3eca20fa4d7079f0e33ffcc47d01a11058a1ff264736f6c63430008150033a26469706673582212205fcafd3e4326ca63cbab00e0dceddc305802c1eeba7d8c2427c9f6aa41cba7ba64736f6c634300081500336101e060405234801562000011575f80fd5b50604051620035be380380620035be833981016040819052620000349162000852565b88888680604051806040016040528060018152602001603160f81b8152508a8a8a8160039081620000669190620009d3565b506004620000758282620009d3565b5050505f806200008b836200039960201b60201c565b91509150816200009d5760126200009f565b805b60ff1660a05250506001600160a01b0316608052620000c082600562000478565b61016052620000d181600662000478565b61018052815160208084019190912061012052815190820120610140524660e052620001606101205161014051604080517f8b73c3c69bb8fe3d512ecc4cf759cc79239f7b179b0ffacaa9a75d522b39400f60208201529081019290925260608201524660808201523060a08201525f9060c00160405160208183030381529060405280519060200120905090565b60c05250503061010052506001600160a01b0381166200019a57604051631e4fbdf760e01b81525f60048201526024015b60405180910390fd5b620001a581620004b0565b506001600160a01b038116620001ce5760405163d92e233d60e01b815260040160405180910390fd5b620001d98162000501565b506001600160a01b038716620002025760405163d92e233d60e01b815260040160405180910390fd5b6001600160a01b038316156200022e57600b80546001600160a01b0319166001600160a01b0385161790555b6001600160a01b038216156200025a57600c80546001600160a01b0319166001600160a01b0384161790555b6706f05b59d3b20000816001600160601b031611156200028d5760405163f4df6ae560e01b815260040160405180910390fd5b6001600160601b03811615801590620002ad57506001600160a01b038316155b15620002cc576040516333fe7c6560e21b815260040160405180910390fd5b600a80546001600160601b038316600160a01b026001600160a01b03918216179091558781166101a0526040805163313ce56760e01b815290516200036c9289169163313ce5679160048083019260209291908290030181865afa15801562000337573d5f803e3d5ffd5b505050506040513d601f19601f820116820180604052508101906200035d919062000a9b565b60129060ff1680821191030290565b60ff166101c0526200038a6001600160a01b038716885f19620005b0565b50505050505050505062000b51565b60408051600481526024810182526020810180516001600160e01b031663313ce56760e01b17905290515f918291829182916001600160a01b03871691620003e19162000ac4565b5f60405180830381855afa9150503d805f81146200041b576040519150601f19603f3d011682016040523d82523d5f602084013e62000420565b606091505b50915091508180156200043557506020815110155b156200046c575f8180602001905181019062000452919062000ae1565b905060ff81116200046a576001969095509350505050565b505b505f9485945092505050565b5f60208351101562000497576200048f836200067b565b9050620004aa565b81620004a48482620009d3565b5060ff90505b92915050565b600880546001600160a01b038381166001600160a01b0319831681179093556040519116919082907f8be0079c531659141344cd1fd0a4f28419497f9722a3daafe3b4186f6b6457e0905f90a35050565b600a546001600160a01b03166001600160a01b0316816001600160a01b0316036200053f5760405163a741a04560e01b815260040160405180910390fd5b6001600160a01b038116620005675760405163d92e233d60e01b815260040160405180910390fd5b600a80546001600160a01b0319166001600160a01b0383169081179091556040517fe43176ad83b85c7f6487987d0f13cbdc9e4a7010bfbf3148a181d1247e12067f905f90a250565b604080516001600160a01b038416602482015260448082018490528251808303909101815260649091019091526020810180516001600160e01b0390811663095ea7b360e01b179091526200060a9085908390620006bd16565b6200067557604080516001600160a01b03851660248201525f6044808301919091528251808303909101815260649091019091526020810180516001600160e01b0390811663095ea7b360e01b17909152620006699186916200070916565b62000675848262000709565b50505050565b5f80829050601f81511115620006a8578260405163305a27a960e01b815260040162000191919062000af9565b8051620006b58262000b2d565b179392505050565b5f805f8060205f8651602088015f8a5af192503d91505f519050828015620006ff57508115620006f15780600114620006ff565b5f866001600160a01b03163b115b9695505050505050565b5f8060205f8451602086015f885af18062000729576040513d5f823e3d81fd5b50505f513d91508115620007425780600114156200074f565b6001600160a01b0384163b155b156200067557604051635274afe760e01b81526001600160a01b038516600482015260240162000191565b80516001600160a01b038116811462000791575f80fd5b919050565b634e487b7160e01b5f52604160045260245ffd5b5f5b83811015620007c6578181015183820152602001620007ac565b50505f910152565b5f82601f830112620007de575f80fd5b81516001600160401b0380821115620007fb57620007fb62000796565b604051601f8301601f19908116603f0116810190828211818310171562000826576200082662000796565b816040528381528660208588010111156200083f575f80fd5b620006ff846020830160208901620007aa565b5f805f805f805f805f6101208a8c0312156200086c575f80fd5b620008778a6200077a565b98506200088760208b016200077a565b97506200089760408b016200077a565b9650620008a760608b016200077a565b60808b01519096506001600160401b0380821115620008c4575f80fd5b620008d28d838e01620007ce565b965060a08c0151915080821115620008e8575f80fd5b50620008f78c828d01620007ce565b9450506200090860c08b016200077a565b92506200091860e08b016200077a565b6101008b01519092506001600160601b038116811462000936575f80fd5b809150509295985092959850929598565b600181811c908216806200095c57607f821691505b6020821081036200097b57634e487b7160e01b5f52602260045260245ffd5b50919050565b601f821115620009ce575f81815260208120601f850160051c81016020861015620009a95750805b601f850160051c820191505b81811015620009ca57828155600101620009b5565b5050505b505050565b81516001600160401b03811115620009ef57620009ef62000796565b62000a078162000a00845462000947565b8462000981565b602080601f83116001811462000a3d575f841562000a255750858301515b5f19600386901b1c1916600185901b178555620009ca565b5f85815260208120601f198616915b8281101562000a6d5788860151825594840194600190910190840162000a4c565b508582101562000a8b57878501515f19600388901b60f8161c191681555b5050505050600190811b01905550565b5f6020828403121562000aac575f80fd5b815160ff8116811462000abd575f80fd5b9392505050565b5f825162000ad7818460208701620007aa565b9190910192915050565b5f6020828403121562000af2575f80fd5b5051919050565b602081525f825180602084015262000b19816040850160208701620007aa565b601f01601f19169190910160400192915050565b805160208083015191908110156200097b575f1960209190910360031b1b16919050565b60805160a05160c05160e05161010051610120516101405161016051610180516101a0516101c0516129ad62000c115f395f818161050a015281816112ad015281816115b3015261176201525f81816103b8015281816106aa015281816114320152818161161f01528181611862015261195e01525f61172801525f6116fb01525f6113cb01525f6113a301525f6112fe01525f61132801525f61135201525f6112ce01525f818161036801528181611db10152611f6801526129ad5ff3fe608060405234801561000f575f80fd5b5060043610610297575f3560e01c806384b0196e11610161578063c6e6f592116100ca578063e30c397811610084578063e30c397814610636578063e562dfd614610647578063e74b981b1461065a578063ef8b30f714610580578063f07cef3e1461066d578063f2fde38b14610680575f80fd5b8063c6e6f59214610580578063ce96cb7714610593578063d505accf146105a6578063d905777e146105b9578063dd62ed3e146105cc578063ddca3f4314610604575f80fd5b8063aea70acc1161011b578063aea70acc14610505578063b26cc3941461052c578063b3d7f6b914610534578063b460af9414610547578063ba0876521461055a578063c63d75b61461056d575f80fd5b806384b0196e1461048b5780638da5cb5b146104a657806394bf804d146104b757806395d89b41146104ca578063a9059cbb146104d2578063ac9650d8146104e5575f80fd5b8063411557d11161020357806369fe0e2d116101bd57806369fe0e2d1461041a5780636e553f651461042d57806370a0823114610440578063715018a61461046857806379ba5097146104705780637ecebe0014610478575f80fd5b8063411557d1146103b357806346904840146103da5780634bde38c8146103ed5780634cdad506146102e0578063568efc07146103fe5780636945c5ea14610407575f80fd5b806318160ddd1161025457806318160ddd1461032957806323b872dd14610331578063313ce567146103445780633644e5151461035e57806338d52e0f14610366578063402d267d146103a0575f80fd5b806301e1d1141461029b57806306ec16f8146102b657806306fdde03146102cb57806307a2d13a146102e0578063095ea7b3146102f35780630a28a47714610316575b5f80fd5b6102a3610693565b6040519081526020015b60405180910390f35b6102c96102c436600461237d565b610785565b005b6102d3610877565b6040516102ad91906123e3565b6102a36102ee3660046123f5565b610907565b61030661030136600461240c565b610918565b60405190151581526020016102ad565b6102a36103243660046123f5565b61092f565b6002546102a3565b61030661033f366004612434565b61093b565b61034c610960565b60405160ff90911681526020016102ad565b6102a3610969565b7f00000000000000000000000000000000000000000000000000000000000000005b6040516001600160a01b0390911681526020016102ad565b6102a36103ae36600461237d565b610972565b6103887f000000000000000000000000000000000000000000000000000000000000000081565b600b54610388906001600160a01b031681565b600a546001600160a01b0316610388565b6102a3600d5481565b6102c961041536600461237d565b61097b565b6102c96104283660046123f5565b6109b2565b6102a361043b36600461246d565b610aca565b6102a361044e36600461237d565b6001600160a01b03165f9081526020819052604090205490565b6102c9610b04565b6102c9610b17565b6102a361048636600461237d565b610b6d565b610493610b8a565b6040516102ad9796959493929190612497565b6008546001600160a01b0316610388565b6102a36104c536600461246d565b610bcc565b6102d3610c00565b6103066104e036600461240c565b610c0f565b6104f86104f336600461252b565b610c1c565b6040516102ad919061259a565b61034c7f000000000000000000000000000000000000000000000000000000000000000081565b6102c9610d0d565b6102a36105423660046123f5565b610d1d565b6102a36105553660046125fa565b610d29565b6102a36105683660046125fa565b610d70565b6102a361057b36600461237d565b610dae565b6102a361058e3660046123f5565b610dc4565b6102a36105a136600461237d565b610dcf565b6102c96105b4366004612633565b610de2565b6102a36105c736600461237d565b610f18565b6102a36105da3660046126a0565b6001600160a01b039182165f90815260016020908152604080832093909416825291909152205490565b600a5461061e90600160a01b90046001600160601b031681565b6040516001600160601b0390911681526020016102ad565b6009546001600160a01b0316610388565b600c54610388906001600160a01b031681565b6102c961066836600461237d565b610f40565b6102c961067b36600461237d565b610fb8565b6102c961068e36600461237d565b611030565b6040516370a0823160e01b81523060048201525f907f00000000000000000000000000000000000000000000000000000000000000006001600160a01b0316906307a2d13a9082906370a0823190602401602060405180830381865afa1580156106ff573d5f803e3d5ffd5b505050506040513d601f19601f8201168201806040525081019061072391906126c8565b6040518263ffffffff1660e01b815260040161074191815260200190565b602060405180830381865afa15801561075c573d5f803e3d5ffd5b505050506040513d601f19601f8201168201806040525081019061078091906126c8565b905090565b600c546001600160a01b03166107ae5760405163d92e233d60e01b815260040160405180910390fd5b6040516370a0823160e01b81523060048201525f906001600160a01b038316906370a0823190602401602060405180830381865afa1580156107f2573d5f803e3d5ffd5b505050506040513d601f19601f8201168201806040525081019061081691906126c8565b600c54909150610833906001600160a01b03848116911683611101565b6040518181526001600160a01b0383169033907f1314fd112a381beea61539dbd21ec04afcff2662ac7d1b83273aade1f53d1b979060200160405180910390a35050565b606060038054610886906126df565b80601f01602080910402602001604051908101604052809291908181526020018280546108b2906126df565b80156108fd5780601f106108d4576101008083540402835291602001916108fd565b820191905f5260205f20905b8154815290600101906020018083116108e057829003601f168201915b5050505050905090565b5f610912825f611165565b92915050565b5f33610925818585611193565b5060019392505050565b5f6109128260016111a0565b5f336109488582856111ce565b61095385858561124a565b60019150505b9392505050565b5f6107806112a7565b5f6107806112f2565b5f61091261141b565b600a546001600160a01b031633146109a657604051632f83518f60e11b815260040160405180910390fd5b6109af81611469565b50565b6109ba611516565b600a54600160a01b90046001600160601b031681036109ec5760405163a741a04560e01b815260040160405180910390fd5b6706f05b59d3b20000811115610a155760405163f4df6ae560e01b815260040160405180910390fd5b8015801590610a2d5750600b546001600160a01b0316155b15610a4b576040516333fe7c6560e21b815260040160405180910390fd5b610a53610d0d565b600a80546001600160a01b0316600160a01b6001600160601b0384160217905533600a54604051600160a01b9091046001600160601b031681526001600160a01b0391909116907f01fe2943baee27f47add82886c2200f910c749c461c9b63c5fe83901a53bdb499060200160405180910390a250565b5f80610ad4611543565b600d8190559050610aef84610ae860025490565b835f6115aa565b9150610afd338486856115f7565b5092915050565b610b0c611516565b610b155f6116a3565b565b60095433906001600160a01b03168114610b545760405163118cdaa760e01b81526001600160a01b03821660048201526024015b60405180910390fd5b600980546001600160a01b03191690556109af816116a3565b6001600160a01b0381165f90815260076020526040812054610912565b5f6060805f805f6060610b9b6116f4565b610ba3611721565b604080515f80825260208201909252600f60f81b9b939a50919850469750309650945092509050565b5f80610bd6611543565b600d8190559050610bf284610bea60025490565b83600161174e565b9150610afd338484876115f7565b606060048054610886906126df565b5f3361092581858561124a565b604080515f8152602081019091526060908267ffffffffffffffff811115610c4657610c46612717565b604051908082528060200260200182016040528015610c7957816020015b6060815260200190600190039081610c645790505b5091505f5b83811015610d0557610cd530868684818110610c9c57610c9c612752565b9050602002810190610cae9190612766565b85604051602001610cc1939291906127b0565b604051602081830303815290604052611792565b838281518110610ce757610ce7612752565b60200260200101819052508080610cfd906127d5565b915050610c7e565b505092915050565b610b15610d18611543565b6117fb565b5f610912826001611165565b5f80610d33611543565b9050610d4a85610d4260025490565b8360016115aa565b9150610d5b858203868311026117fb565b610d68338585888661183f565b509392505050565b5f80610d7a611543565b9050610d9085610d8960025490565b835f61174e565b9150610da1828203838311026117fb565b610d68338585858961183f565b5f80610db861141b565b9050610959815f6111a0565b5f610912825f6111a0565b5f610dd9826118e9565b50909392505050565b83421115610e065760405163313c898160e11b815260048101859052602401610b4b565b5f7f6e71edae12b1b97f4d1f60370fef10105fa2faae0126114a169c64845d6126c9888888610e518c6001600160a01b03165f90815260076020526040902080546001810190915590565b6040805160208101969096526001600160a01b0394851690860152929091166060840152608083015260a082015260c0810186905260e0016040516020818303038152906040528051906020012090505f610eab826119dc565b90505f610eba82878787611a08565b9050896001600160a01b0316816001600160a01b031614610f01576040516325c0072360e11b81526001600160a01b0380831660048301528b166024820152604401610b4b565b610f0c8a8a8a611193565b50505050505050505050565b5f805f80610f25856118e9565b925092509250610f378383835f6115aa565b95945050505050565b610f48611516565b6001600160a01b038116610f6f5760405163d92e233d60e01b815260040160405180910390fd5b600b80546001600160a01b0319166001600160a01b0383169081179091556040517f2e979f80fe4d43055c584cf4a8467c55875ea36728fc37176c05acd784eb7a73905f90a250565b610fc0611516565b6001600160a01b038116610fe75760405163d92e233d60e01b815260040160405180910390fd5b600c80546001600160a01b0319166001600160a01b0383169081179091556040517fbf4da31489bf7d607626c05856478443f1ecd2ca7b005fe2f83a45fbd9fe1ee7905f90a250565b600a546001600160a01b0316331461105b57604051632f83518f60e11b815260040160405180910390fd5b6008546001600160a01b03166001600160a01b0316816001600160a01b0316036110985760405163a741a04560e01b815260040160405180910390fd5b600980546001600160a01b0383166001600160a01b031990911681179091556110c96008546001600160a01b031690565b6001600160a01b03167f38d16b8cac22d99fc7c124b9cd0de2d3fa1faef420bfe791d8c362d765e2270060405160405180910390a350565b6040516001600160a01b0383811660248301526044820183905261116091859182169063a9059cbb906064015b604051602081830303815290604052915060e01b6020820180516001600160e01b038381831617835250505050611a34565b505050565b5f805f611170611aa0565b91509150610f37858361118260025490565b61118c91906127ed565b838761174e565b6111608383836001611b3a565b5f805f6111ab611aa0565b91509150610f3785836111bd60025490565b6111c791906127ed565b83876115aa565b6001600160a01b038381165f908152600160209081526040808320938616835292905220545f19811015611244578181101561123657604051637dc7a0d960e11b81526001600160a01b03841660048201526024810182905260448101839052606401610b4b565b61124484848484035f611b3a565b50505050565b6001600160a01b03831661127357604051634b637e8f60e11b81525f6004820152602401610b4b565b6001600160a01b03821661129c5760405163ec442f0560e01b81525f6004820152602401610b4b565b611160838383611c0c565b5f6107807f00000000000000000000000000000000000000000000000000000000000000007f0000000000000000000000000000000000000000000000000000000000000000612800565b5f306001600160a01b037f00000000000000000000000000000000000000000000000000000000000000001614801561134a57507f000000000000000000000000000000000000000000000000000000000000000046145b1561137457507f000000000000000000000000000000000000000000000000000000000000000090565b610780604080517f8b73c3c69bb8fe3d512ecc4cf759cc79239f7b179b0ffacaa9a75d522b39400f60208201527f0000000000000000000000000000000000000000000000000000000000000000918101919091527f000000000000000000000000000000000000000000000000000000000000000060608201524660808201523060a08201525f9060c00160405160208183030381529060405280519060200120905090565b60405163402d267d60e01b81523060048201525f907f00000000000000000000000000000000000000000000000000000000000000006001600160a01b03169063402d267d90602401610741565b600a546001600160a01b03166001600160a01b0316816001600160a01b0316036114a65760405163a741a04560e01b815260040160405180910390fd5b6001600160a01b0381166114cd5760405163d92e233d60e01b815260040160405180910390fd5b600a80546001600160a01b0319166001600160a01b0383169081179091556040517fe43176ad83b85c7f6487987d0f13cbdc9e4a7010bfbf3148a181d1247e12067f905f90a250565b6008546001600160a01b03163314610b155760405163118cdaa760e01b8152336004820152602401610b4b565b5f8061154d611aa0565b92509050801561156d57600b5461156d906001600160a01b031682611d32565b60408051838152602081018390527ff66f28b40975dbb933913542c7e6a0f50a1d0f20aa74ea6e0efe65ab616323ec910160405180910390a15090565b5f610f376115d97f0000000000000000000000000000000000000000000000000000000000000000600a6128f9565b6115e390866127ed565b6115ee8560016127ed565b87919085611d6a565b61160384848484611dac565b604051636e553f6560e01b8152600481018390523060248201527f00000000000000000000000000000000000000000000000000000000000000006001600160a01b031690636e553f65906044016020604051808303815f875af115801561166d573d5f803e3d5ffd5b505050506040513d601f19601f8201168201806040525081019061169191906126c8565b5061124482600d54610d1891906127ed565b600880546001600160a01b038381166001600160a01b0319831681179093556040519116919082907f8be0079c531659141344cd1fd0a4f28419497f9722a3daafe3b4186f6b6457e0905f90a35050565b60606107807f00000000000000000000000000000000000000000000000000000000000000006005611e30565b60606107807f00000000000000000000000000000000000000000000000000000000000000006006611e30565b5f610f3761175d8460016127ed565b6117887f0000000000000000000000000000000000000000000000000000000000000000600a6128f9565b6115ee90876127ed565b60605f80846001600160a01b0316846040516117ae9190612907565b5f60405180830381855af49150503d805f81146117e6576040519150601f19603f3d011682016040523d82523d5f602084013e6117eb565b606091505b5091509150610f37858383611ed9565b600d8190556040518181527f15c027cc4fd826d986cad358803439f7326d3aa4ed969ff90dbee4bc150f68e99060200160405180910390a150565b80821191030290565b604051632d182be560e21b815260048101839052306024820181905260448201527f00000000000000000000000000000000000000000000000000000000000000006001600160a01b03169063b460af94906064016020604051808303815f875af11580156118b0573d5f803e3d5ffd5b505050506040513d601f19601f820116820180604052508101906118d491906126c8565b506118e28585858585611f35565b5050505050565b5f805f806118f5611aa0565b925090508061190360025490565b61190d91906127ed565b9250611938611930866001600160a01b03165f9081526020819052604090205490565b84845f61174e565b60405163ce96cb7760e01b81523060048201529094506119d29085906001600160a01b037f0000000000000000000000000000000000000000000000000000000000000000169063ce96cb7790602401602060405180830381865afa1580156119a3573d5f803e3d5ffd5b505050506040513d601f19601f820116820180604052508101906119c791906126c8565b808218908211021890565b9350509193909250565b5f6109126119e86112f2565b8360405161190160f01b8152600281019290925260228201526042902090565b5f805f80611a1888888888611ff5565b925092509250611a2882826120bd565b50909695505050505050565b5f8060205f8451602086015f885af180611a53576040513d5f823e3d81fd5b50505f513d91508115611a6a578060011415611a77565b6001600160a01b0384163b155b1561124457604051635274afe760e01b81526001600160a01b0385166004820152602401610b4b565b5f80611aaa610693565b90505f611ac2600d548361183690919063ffffffff16565b90508015801590611ae45750600a54600160a01b90046001600160601b031615155b15611b3557600a545f90611b12908390600160a01b90046001600160601b0316670de0b6b3a7640000612175565b9050611b3181611b2160025490565b611b2b848761273f565b5f6115aa565b9350505b509091565b6001600160a01b038416611b635760405163e602df0560e01b81525f6004820152602401610b4b565b6001600160a01b038316611b8c57604051634a1406b160e11b81525f6004820152602401610b4b565b6001600160a01b038085165f908152600160209081526040808320938716835292905220829055801561124457826001600160a01b0316846001600160a01b03167f8c5be1e5ebec7d5bd14f71427d1e84f3dd0314c0f7b2291e5b200ac8c7c3b92584604051611bfe91815260200190565b60405180910390a350505050565b6001600160a01b038316611c36578060025f828254611c2b91906127ed565b90915550611ca69050565b6001600160a01b0383165f9081526020819052604090205481811015611c885760405163391434e360e21b81526001600160a01b03851660048201526024810182905260448101839052606401610b4b565b6001600160a01b0384165f9081526020819052604090209082900390555b6001600160a01b038216611cc257600280548290039055611ce0565b6001600160a01b0382165f9081526020819052604090208054820190555b816001600160a01b0316836001600160a01b03167fddf252ad1be2c89b69c2b068fc378daa952ba7f163c4a11628f55a4df523b3ef83604051611d2591815260200190565b60405180910390a3505050565b6001600160a01b038216611d5b5760405163ec442f0560e01b81525f6004820152602401610b4b565b611d665f8383611c0c565b5050565b5f611d97611d778361222b565b8015611d9257505f8480611d8d57611d8d612922565b868809115b151590565b611da2868686612175565b610f3791906127ed565b611dd87f0000000000000000000000000000000000000000000000000000000000000000853085612257565b611de28382611d32565b826001600160a01b0316846001600160a01b03167fdcbc1c05240f31ff3ad067ef1ee35ce4997762752e3a095284754544f4c709d78484604051611bfe929190918252602082015260400190565b606060ff8314611e4a57611e4383612290565b9050610912565b818054611e56906126df565b80601f0160208091040260200160405190810160405280929190818152602001828054611e82906126df565b8015611ecd5780601f10611ea457610100808354040283529160200191611ecd565b820191905f5260205f20905b815481529060010190602001808311611eb057829003601f168201915b50505050509050610912565b606082611eee57611ee9826122cd565b610959565b8151158015611f0557506001600160a01b0384163b155b15611f2e57604051639996b31560e01b81526001600160a01b0385166004820152602401610b4b565b5080610959565b826001600160a01b0316856001600160a01b031614611f5957611f598386836111ce565b611f6383826122f6565b611f8e7f00000000000000000000000000000000000000000000000000000000000000008584611101565b826001600160a01b0316846001600160a01b0316866001600160a01b03167ffbde797d201c681b91056529119e0b02407c7bb96a4a2c75c01fc9667232c8db8585604051611fe6929190918252602082015260400190565b60405180910390a45050505050565b5f80807f7fffffffffffffffffffffffffffffff5d576e7357a4501ddfe92f46681b20a084111561202e57505f915060039050826120b3565b604080515f808252602082018084528a905260ff891692820192909252606081018790526080810186905260019060a0016020604051602081039080840390855afa15801561207f573d5f803e3d5ffd5b5050604051601f1901519150506001600160a01b0381166120aa57505f9250600191508290506120b3565b92505f91508190505b9450945094915050565b5f8260038111156120d0576120d0612936565b036120d9575050565b60018260038111156120ed576120ed612936565b0361210b5760405163f645eedf60e01b815260040160405180910390fd5b600282600381111561211f5761211f612936565b036121405760405163fce698f760e01b815260048101829052602401610b4b565b600382600381111561215457612154612936565b03611d66576040516335e2f38360e21b815260048101829052602401610b4b565b5f838302815f1985870982811083820303915050805f036121a95783828161219f5761219f612922565b0492505050610959565b8084116121c0576121c0600385150260111861232a565b5f848688095f868103871696879004966002600389028118808a02820302808a02820302808a02820302808a02820302808a02820302808a02909103029181900381900460010186841190950394909402919094039290920491909117919091029150509392505050565b5f600282600381111561224057612240612936565b61224a919061294a565b60ff166001149050919050565b6040516001600160a01b0384811660248301528381166044830152606482018390526112449186918216906323b872dd9060840161112e565b60605f61229c8361233b565b6040805160208082528183019092529192505f91906020820181803683375050509182525060208101929092525090565b8051156122dd5780518082602001fd5b60405163d6bda27560e01b815260040160405180910390fd5b6001600160a01b03821661231f57604051634b637e8f60e11b81525f6004820152602401610b4b565b611d66825f83611c0c565b634e487b715f52806020526024601cfd5b5f60ff8216601f81111561091257604051632cd44ac360e21b815260040160405180910390fd5b80356001600160a01b0381168114612378575f80fd5b919050565b5f6020828403121561238d575f80fd5b61095982612362565b5f5b838110156123b0578181015183820152602001612398565b50505f910152565b5f81518084526123cf816020860160208601612396565b601f01601f19169290920160200192915050565b602081525f61095960208301846123b8565b5f60208284031215612405575f80fd5b5035919050565b5f806040838503121561241d575f80fd5b61242683612362565b946020939093013593505050565b5f805f60608486031215612446575f80fd5b61244f84612362565b925061245d60208501612362565b9150604084013590509250925092565b5f806040838503121561247e575f80fd5b8235915061248e60208401612362565b90509250929050565b60ff60f81b881681525f602060e0818401526124b660e084018a6123b8565b83810360408501526124c8818a6123b8565b606085018990526001600160a01b038816608086015260a0850187905284810360c086015285518082528387019250908301905f5b81811015612519578351835292840192918401916001016124fd565b50909c9b505050505050505050505050565b5f806020838503121561253c575f80fd5b823567ffffffffffffffff80821115612553575f80fd5b818501915085601f830112612566575f80fd5b813581811115612574575f80fd5b8660208260051b8501011115612588575f80fd5b60209290920196919550909350505050565b5f602080830181845280855180835260408601915060408160051b87010192508387015f5b828110156125ed57603f198886030184526125db8583516123b8565b945092850192908501906001016125bf565b5092979650505050505050565b5f805f6060848603121561260c575f80fd5b8335925061261c60208501612362565b915061262a60408501612362565b90509250925092565b5f805f805f805f60e0888a031215612649575f80fd5b61265288612362565b965061266060208901612362565b95506040880135945060608801359350608088013560ff81168114612683575f80fd5b9699959850939692959460a0840135945060c09093013592915050565b5f80604083850312156126b1575f80fd5b6126ba83612362565b915061248e60208401612362565b5f602082840312156126d8575f80fd5b5051919050565b600181811c908216806126f357607f821691505b60208210810361271157634e487b7160e01b5f52602260045260245ffd5b50919050565b634e487b7160e01b5f52604160045260245ffd5b634e487b7160e01b5f52601160045260245ffd5b818103818111156109125761091261272b565b634e487b7160e01b5f52603260045260245ffd5b5f808335601e1984360301811261277b575f80fd5b83018035915067ffffffffffffffff821115612795575f80fd5b6020019150368190038213156127a9575f80fd5b9250929050565b828482375f8382015f815283516127cb818360208801612396565b0195945050505050565b5f600182016127e6576127e661272b565b5060010190565b808201808211156109125761091261272b565b60ff81811683821601908111156109125761091261272b565b600181815b8085111561285357815f19048211156128395761283961272b565b8085161561284657918102915b93841c939080029061281e565b509250929050565b5f8261286957506001610912565b8161287557505f610912565b816001811461288b5760028114612895576128b1565b6001915050610912565b60ff8411156128a6576128a661272b565b50506001821b610912565b5060208310610133831016604e8410600b84101617156128d4575081810a610912565b6128de8383612819565b805f19048211156128f1576128f161272b565b029392505050565b5f61095960ff84168361285b565b5f8251612918818460208701612396565b9190910192915050565b634e487b7160e01b5f52601260045260245ffd5b634e487b7160e01b5f52602160045260245ffd5b5f60ff83168061296857634e487b7160e01b5f52601260045260245ffd5b8060ff8416069150509291505056fea2646970667358221220f10b958b68c0a43a92625364a3eca20fa4d7079f0e33ffcc47d01a11058a1ff264736f6c63430008150033","linkReferences":{}},"methodIdentifiers":{"SEND_EARN()":"7e9ae0d1","VAULT()":"411557d1","acceptOwnership()":"79ba5097","affiliates(address)":"4f51e294","createAndDeposit(address,bytes32,uint256)":"b473b00b","createSendEarn(address,bytes32)":"3e6f4022","deposits(address)":"fc7e286d","fee()":"ddca3f43","initialBurn()":"94fc32a0","isSendEarn(address)":"464d225a","owner()":"8da5cb5b","pendingOwner()":"e30c3978","platform()":"4bde38c8","renounceOwnership()":"715018a6","setDeposit(address)":"3b80938e","setFee(uint256)":"69fe0e2d","setInitialBurn(uint256)":"fd21cab2","setPlatform(address)":"6945c5ea","setSplit(uint256)":"674e694f","split()":"f7654176","transferOwnership(address)":"f2fde38b","withdrawPrefund(address,uint256)":"190cb71c"},"id":126}