{"abi":[{"type":"constructor","inputs":[{"name":"owner","type":"address","internalType":"address"},{"name":"vault","type":"address","internalType":"address"},{"name":"_platform","type":"address","internalType":"address"},{"name":"_fee","type":"uint96","internalType":"uint96"},{"name":"_split","type":"uint256","internalType":"uint256"},{"name":"salt","type":"bytes32","internalType":"bytes32"}],"stateMutability":"nonpayable"},{"type":"function","name":"SEND_EARN","inputs":[],"outputs":[{"name":"","type":"address","internalType":"address"}],"stateMutability":"view"},{"type":"function","name":"VAULT","inputs":[],"outputs":[{"name":"","type":"address","internalType":"address"}],"stateMutability":"view"},{"type":"function","name":"acceptOwnership","inputs":[],"outputs":[],"stateMutability":"nonpayable"},{"type":"function","name":"affiliates","inputs":[{"name":"","type":"address","internalType":"address"}],"outputs":[{"name":"","type":"address","internalType":"address"}],"stateMutability":"view"},{"type":"function","name":"createAndDeposit","inputs":[{"name":"referrer","type":"address","internalType":"address"},{"name":"salt","type":"bytes32","internalType":"bytes32"},{"name":"assets","type":"uint256","internalType":"uint256"}],"outputs":[{"name":"sendEarn","type":"address","internalType":"contract ISendEarn"},{"name":"shares","type":"uint256","internalType":"uint256"}],"stateMutability":"nonpayable"},{"type":"function","name":"createSendEarn","inputs":[{"name":"referrer","type":"address","internalType":"address"},{"name":"salt","type":"bytes32","internalType":"bytes32"}],"outputs":[{"name":"sendEarn","type":"address","internalType":"contract ISendEarn"}],"stateMutability":"nonpayable"},{"type":"function","name":"deposits","inputs":[{"name":"","type":"address","internalType":"address"}],"outputs":[{"name":"","type":"address","internalType":"address"}],"stateMutability":"view"},{"type":"function","name":"fee","inputs":[],"outputs":[{"name":"","type":"uint96","internalType":"uint96"}],"stateMutability":"view"},{"type":"function","name":"isSendEarn","inputs":[{"name":"","type":"address","internalType":"address"}],"outputs":[{"name":"","type":"bool","internalType":"bool"}],"stateMutability":"view"},{"type":"function","name":"owner","inputs":[],"outputs":[{"name":"","type":"address","internalType":"address"}],"stateMutability":"view"},{"type":"function","name":"pendingOwner","inputs":[],"outputs":[{"name":"","type":"address","internalType":"address"}],"stateMutability":"view"},{"type":"function","name":"platform","inputs":[],"outputs":[{"name":"","type":"address","internalType":"address"}],"stateMutability":"view"},{"type":"function","name":"renounceOwnership","inputs":[],"outputs":[],"stateMutability":"nonpayable"},{"type":"function","name":"setDeposit","inputs":[{"name":"vault","type":"address","internalType":"address"}],"outputs":[],"stateMutability":"nonpayable"},{"type":"function","name":"setFee","inputs":[{"name":"newFee","type":"uint256","internalType":"uint256"}],"outputs":[],"stateMutability":"nonpayable"},{"type":"function","name":"setPlatform","inputs":[{"name":"newPlatform","type":"address","internalType":"address"}],"outputs":[],"stateMutability":"nonpayable"},{"type":"function","name":"setSplit","inputs":[{"name":"newSplit","type":"uint256","internalType":"uint256"}],"outputs":[],"stateMutability":"nonpayable"},{"type":"function","name":"split","inputs":[],"outputs":[{"name":"","type":"uint256","internalType":"uint256"}],"stateMutability":"view"},{"type":"function","name":"transferOwnership","inputs":[{"name":"newOwner","type":"address","internalType":"address"}],"outputs":[],"stateMutability":"nonpayable"},{"type":"event","name":"CreateSendEarn","inputs":[{"name":"sendEarn","type":"address","indexed":true,"internalType":"address"},{"name":"caller","type":"address","indexed":true,"internalType":"address"},{"name":"initialOwner","type":"address","indexed":false,"internalType":"address"},{"name":"vault","type":"address","indexed":true,"internalType":"address"},{"name":"feeRecipient","type":"address","indexed":false,"internalType":"address"},{"name":"collections","type":"address","indexed":false,"internalType":"address"},{"name":"fee","type":"uint96","indexed":false,"internalType":"uint96"},{"name":"salt","type":"bytes32","indexed":false,"internalType":"bytes32"}],"anonymous":false},{"type":"event","name":"NewAffiliate","inputs":[{"name":"affiliate","type":"address","indexed":false,"internalType":"address"},{"name":"sea","type":"address","indexed":false,"internalType":"address"}],"anonymous":false},{"type":"event","name":"OwnershipTransferStarted","inputs":[{"name":"previousOwner","type":"address","indexed":true,"internalType":"address"},{"name":"newOwner","type":"address","indexed":true,"internalType":"address"}],"anonymous":false},{"type":"event","name":"OwnershipTransferred","inputs":[{"name":"previousOwner","type":"address","indexed":true,"internalType":"address"},{"name":"newOwner","type":"address","indexed":true,"internalType":"address"}],"anonymous":false},{"type":"event","name":"SetDeposit","inputs":[{"name":"newDeposit","type":"address","indexed":true,"internalType":"address"}],"anonymous":false},{"type":"event","name":"SetFee","inputs":[{"name":"caller","type":"address","indexed":true,"internalType":"address"},{"name":"newFee","type":"uint256","indexed":false,"internalType":"uint256"}],"anonymous":false},{"type":"event","name":"SetPlatform","inputs":[{"name":"newPlatform","type":"address","indexed":true,"internalType":"address"}],"anonymous":false},{"type":"event","name":"SetSplit","inputs":[{"name":"newSplit","type":"uint256","indexed":false,"internalType":"uint256"}],"anonymous":false},{"type":"error","name":"AlreadySet","inputs":[]},{"type":"error","name":"MaxFeeExceeded","inputs":[]},{"type":"error","name":"MaxSplitExceeded","inputs":[]},{"type":"error","name":"NotSendEarnVault","inputs":[]},{"type":"error","name":"OwnableInvalidOwner","inputs":[{"name":"owner","type":"address","internalType":"address"}]},{"type":"error","name":"OwnableUnauthorizedAccount","inputs":[{"name":"account","type":"address","internalType":"address"}]},{"type":"error","name":"UnauthorizedPlatform","inputs":[]},{"type":"error","name":"ZeroAddress","inputs":[]},{"type":"error","name":"ZeroFeeRecipient","inputs":[]}],"bytecode":{"object":"0x60c060405234801562000010575f80fd5b50604051620099513803806200995183398101604081905262000033916200074d565b83866001600160a01b0381166200006357604051631e4fbdf760e01b81525f600482015260240160405180910390fd5b6200006e81620001bd565b506001600160a01b038116620000975760405163d92e233d60e01b815260040160405180910390fd5b620000a2816200020c565b506001600160a01b038516620000cb5760405163d92e233d60e01b815260040160405180910390fd5b6001600160a01b038416620000f35760405163d92e233d60e01b815260040160405180910390fd5b6001600160a01b0386166200011b5760405163d92e233d60e01b815260040160405180910390fd5b6001600160a01b0385166080526200013c6001600160601b038416620002bb565b6200014782620003cd565b5f620001666200015f6002546001600160a01b031690565b8362000455565b5f805260046020527f17ef568e3e12ab5b9c7254a8d58478811de00f9e6eb34345acd53bf8fd09d3ec80546001600160a01b039092166001600160a01b03199092168217905560a05250620009e695505050505050565b5f80546001600160a01b038381166001600160a01b0319831681178455604051919092169283917f8be0079c531659141344cd1fd0a4f28419497f9722a3daafe3b4186f6b6457e09190a35050565b6002546001600160a01b03166001600160a01b0316816001600160a01b0316036200024a5760405163a741a04560e01b815260040160405180910390fd5b6001600160a01b038116620002725760405163d92e233d60e01b815260040160405180910390fd5b600280546001600160a01b0319166001600160a01b0383169081179091556040517fe43176ad83b85c7f6487987d0f13cbdc9e4a7010bfbf3148a181d1247e12067f905f90a250565b6006546001600160601b03168103620002e75760405163a741a04560e01b815260040160405180910390fd5b6706f05b59d3b20000811115620003115760405163f4df6ae560e01b815260040160405180910390fd5b80158015906200033b57505f620003306002546001600160a01b031690565b6001600160a01b0316145b156200035a576040516333fe7c6560e21b815260040160405180910390fd5b600680546001600160601b0319166001600160601b0383161790556200037d3390565b6006546040516001600160601b0390911681526001600160a01b0391909116907f01fe2943baee27f47add82886c2200f910c749c461c9b63c5fe83901a53bdb499060200160405180910390a250565b6007548103620003f05760405163a741a04560e01b815260040160405180910390fd5b670de0b6b3a76400008111156200041a576040516316eed69560e31b815260040160405180910390fd5b60078190556040518181527f5be34322cfabe5fcd91b5b07bd988fb7651f4405d3081fa3e7c599e2cd8a30659060200160405180910390a150565b5f816200046a6002546001600160a01b031690565b5f546001600160a01b03166080516080516001600160a01b03166338d52e0f6040518163ffffffff1660e01b8152600401602060405180830381865afa158015620004b7573d5f803e3d5ffd5b505050506040513d601f19601f82011682018060405250810190620004dd9190620007c7565b6080516001600160a01b03166306fdde036040518163ffffffff1660e01b81526004015f60405180830381865afa1580156200051b573d5f803e3d5ffd5b505050506040513d5f823e601f3d908101601f1916820160405262000544919081019062000822565b604051602001620005569190620008d5565b6040516020818303038152906040526080516001600160a01b03166395d89b416040518163ffffffff1660e01b81526004015f60405180830381865afa158015620005a3573d5f803e3d5ffd5b505050506040513d5f823e601f3d908101601f19168201604052620005cc919081019062000822565b604051602001620005de919062000909565b60408051601f1981840301815291905289620006026002546001600160a01b031690565b6006546040516001600160601b03909116906200061f9062000723565b620006339998979695949392919062000961565b8190604051809103905ff590508015801562000651573d5f803e3d5ffd5b506001600160a01b0381165f908152600360205260409020805460ff1916600117905590506200068060805190565b6001600160a01b0390811690339083167f16fd1abf080c4e4033aa07b9abf7edf2baed124de11f1b57782f10f9f623f865620006c35f546001600160a01b031690565b87620006d76002546001600160a01b031690565b600654604080516001600160a01b039586168152938516602085015291909316908201526001600160601b0390911660608201526080810187905260a00160405180910390a492915050565b61357080620063e183390190565b80516001600160a01b038116811462000748575f80fd5b919050565b5f805f805f8060c0878903121562000763575f80fd5b6200076e8762000731565b95506200077e6020880162000731565b94506200078e6040880162000731565b60608801519094506001600160601b0381168114620007ab575f80fd5b809350506080870151915060a087015190509295509295509295565b5f60208284031215620007d8575f80fd5b620007e38262000731565b9392505050565b634e487b7160e01b5f52604160045260245ffd5b5f5b838110156200081a57818101518382015260200162000800565b50505f910152565b5f6020828403121562000833575f80fd5b81516001600160401b03808211156200084a575f80fd5b818401915084601f8301126200085e575f80fd5b815181811115620008735762000873620007ea565b604051601f8201601f19908116603f011681019083821181831017156200089e576200089e620007ea565b81604052828152876020848701011115620008b7575f80fd5b620008ca836020830160208801620007fe565b979650505050505050565b6a029b2b7321022b0b9371d160ad1b81525f8251620008fc81600b850160208701620007fe565b91909101600b0192915050565b61736560f01b81525f825162000927816002850160208701620007fe565b9190910160020192915050565b5f81518084526200094d816020860160208601620007fe565b601f01601f19169290920160200192915050565b6001600160a01b038a81168252898116602083015288811660408301528781166060830152610120608083018190525f91620009a08483018a62000934565b915083820360a0850152620009b6828962000934565b96811660c08501529490941660e0830152506001600160601b039190911661010090910152509695505050505050565b60805160a0516159a862000a395f395f818161027a015281816103d4015261041d01525f8181610187015281816109b9015281816109da01528181610a5d01528181610b030152610c3501526159a85ff3fe608060405234801562000010575f80fd5b506004361062000134575f3560e01c8063715018a611620000b7578063ddca3f431162000077578063ddca3f4314620002e7578063e30c39781462000314578063f2fde38b1462000326578063f7654176146200033d578063fc7e286d1462000356575f80fd5b8063715018a6146200026457806379ba5097146200026e5780637e9ae0d114620002785780638da5cb5b146200029f578063b473b00b14620002b0575f80fd5b80634bde38c811620001035780634bde38c814620001e25780634f51e29414620001f4578063674e694f146200021f5780636945c5ea146200023657806369fe0e2d146200024d575f80fd5b80633b80938e14620001385780633e6f40221462000151578063411557d11462000185578063464d225a14620001ac575b5f80fd5b6200014f6200014936600462000fe7565b62000381565b005b62000168620001623660046200100c565b62000390565b6040516001600160a01b0390911681526020015b60405180910390f35b7f000000000000000000000000000000000000000000000000000000000000000062000168565b620001d1620001bd36600462000fe7565b60036020525f908152604090205460ff1681565b60405190151581526020016200017c565b6002546001600160a01b031662000168565b620001686200020536600462000fe7565b60046020525f90815260409020546001600160a01b031681565b6200014f6200023036600462001039565b6200053d565b6200014f6200024736600462000fe7565b62000552565b6200014f6200025e36600462001039565b62000589565b6200014f6200059e565b6200014f620005b5565b7f000000000000000000000000000000000000000000000000000000000000000062000168565b5f546001600160a01b031662000168565b620002c7620002c136600462001051565b6200060e565b604080516001600160a01b0390931683526020830191909152016200017c565b600654620002fb906001600160601b031681565b6040516001600160601b0390911681526020016200017c565b6001546001600160a01b031662000168565b6200014f6200033736600462000fe7565b620007f9565b6200034760075481565b6040519081526020016200017c565b620001686200036736600462000fe7565b60056020525f90815260409020546001600160a01b031681565b6200038d3382620008cb565b50565b6001600160a01b038281165f908152600460205260408120549091166200051b576001600160a01b038381165f90815260056020526040812054909116620003f9577f000000000000000000000000000000000000000000000000000000000000000062000414565b6001600160a01b038085165f90815260056020526040902054165b90505f838530847f00000000000000000000000000000000000000000000000000000000000000006040516200044a9062000fb6565b6001600160a01b0394851681529284166020840152908316604083015290911660608201526080018190604051809103905ff590508015801562000490573d5f803e3d5ffd5b50604080516001600160a01b038089168252831660208201529192507f74c65d7a8c9fdc2fea6eb644bb38e1c8ed16c4bd79de5f4c8a5bfbdb9675cd6f910160405180910390a1620004e3818562000997565b6001600160a01b038681165f90815260046020526040902080546001600160a01b031916918316919091179055925062000537915050565b506001600160a01b038083165f90815260046020526040902054165b92915050565b6200054762000d07565b6200038d8162000d35565b6002546001600160a01b031633146200057e57604051632f83518f60e11b815260040160405180910390fd5b6200038d8162000dbd565b6200059362000d07565b6200038d8162000e6c565b620005a862000d07565b620005b35f62000f67565b565b60015433906001600160a01b03168114620005f35760405163118cdaa760e01b81526001600160a01b03821660048201526024015b60405180910390fd5b600180546001600160a01b03191690556200038d8162000f67565b5f806200061c858562000390565b91505f826001600160a01b03166338d52e0f6040518163ffffffff1660e01b8152600401602060405180830381865afa1580156200065c573d5f803e3d5ffd5b505050506040513d601f19601f8201168201806040525081019062000682919062001086565b6040516323b872dd60e01b8152336004820152306024820152604481018690529091506001600160a01b038216906323b872dd906064016020604051808303815f875af1158015620006d6573d5f803e3d5ffd5b505050506040513d601f19601f82011682018060405250810190620006fc9190620010a4565b5060405163095ea7b360e01b81526001600160a01b0384811660048301526024820186905282169063095ea7b3906044016020604051808303815f875af11580156200074a573d5f803e3d5ffd5b505050506040513d601f19601f82011682018060405250810190620007709190620010a4565b50604051636e553f6560e01b8152600481018590523360248201526001600160a01b03841690636e553f65906044016020604051808303815f875af1158015620007bc573d5f803e3d5ffd5b505050506040513d601f19601f82011682018060405250810190620007e29190620010c5565b9150620007f03384620008cb565b50935093915050565b6002546001600160a01b031633146200082557604051632f83518f60e11b815260040160405180910390fd5b5f546001600160a01b03166001600160a01b0316816001600160a01b031603620008625760405163a741a04560e01b815260040160405180910390fd5b600180546001600160a01b0383166001600160a01b03199091168117909155620008935f546001600160a01b031690565b6001600160a01b03167f38d16b8cac22d99fc7c124b9cd0de2d3fa1faef420bfe791d8c362d765e2270060405160405180910390a350565b6001600160a01b0381165f9081526003602052604090205460ff1662000904576040516311da05e960e31b815260040160405180910390fd5b6001600160a01b038281165f90815260056020526040902054818316911603620009415760405163a741a04560e01b815260040160405180910390fd5b6001600160a01b038281165f9081526005602052604080822080546001600160a01b0319169385169384179055517f918b905b9996c622fe73259e624b212bc4cf8ee216850d35429a4502a0482f049190a25050565b5f81620009ac6002546001600160a01b031690565b5f546001600160a01b03167f00000000000000000000000000000000000000000000000000000000000000007f00000000000000000000000000000000000000000000000000000000000000006001600160a01b03166338d52e0f6040518163ffffffff1660e01b8152600401602060405180830381865afa15801562000a35573d5f803e3d5ffd5b505050506040513d601f19601f8201168201806040525081019062000a5b919062001086565b7f00000000000000000000000000000000000000000000000000000000000000006001600160a01b03166306fdde036040518163ffffffff1660e01b81526004015f60405180830381865afa15801562000ab7573d5f803e3d5ffd5b505050506040513d5f823e601f3d908101601f1916820160405262000ae0919081019062001115565b60405160200162000af29190620011c9565b6040516020818303038152906040527f00000000000000000000000000000000000000000000000000000000000000006001600160a01b03166395d89b416040518163ffffffff1660e01b81526004015f60405180830381865afa15801562000b5d573d5f803e3d5ffd5b505050506040513d5f823e601f3d908101601f1916820160405262000b86919081019062001115565b60405160200162000b989190620011fd565b6040516020818303038152906040528962000bbb6002546001600160a01b031690565b6006546040516001600160601b039091169062000bd89062000fc4565b62000bec9998979695949392919062001255565b8190604051809103905ff590508015801562000c0a573d5f803e3d5ffd5b506001600160a01b0381165f908152600360205260409020805460ff19166001179055905062000c577f000000000000000000000000000000000000000000000000000000000000000090565b6001600160a01b0316336001600160a01b0316826001600160a01b03167f16fd1abf080c4e4033aa07b9abf7edf2baed124de11f1b57782f10f9f623f86562000ca75f546001600160a01b031690565b8762000cbb6002546001600160a01b031690565b600654604080516001600160a01b039586168152938516602085015291909316908201526001600160601b0390911660608201526080810187905260a00160405180910390a492915050565b5f546001600160a01b03163314620005b35760405163118cdaa760e01b8152336004820152602401620005ea565b600754810362000d585760405163a741a04560e01b815260040160405180910390fd5b670de0b6b3a764000081111562000d82576040516316eed69560e31b815260040160405180910390fd5b60078190556040518181527f5be34322cfabe5fcd91b5b07bd988fb7651f4405d3081fa3e7c599e2cd8a30659060200160405180910390a150565b6002546001600160a01b03166001600160a01b0316816001600160a01b03160362000dfb5760405163a741a04560e01b815260040160405180910390fd5b6001600160a01b03811662000e235760405163d92e233d60e01b815260040160405180910390fd5b600280546001600160a01b0319166001600160a01b0383169081179091556040517fe43176ad83b85c7f6487987d0f13cbdc9e4a7010bfbf3148a181d1247e12067f905f90a250565b6006546001600160601b0316810362000e985760405163a741a04560e01b815260040160405180910390fd5b6706f05b59d3b2000081111562000ec25760405163f4df6ae560e01b815260040160405180910390fd5b801580159062000eec57505f62000ee16002546001600160a01b031690565b6001600160a01b0316145b1562000f0b576040516333fe7c6560e21b815260040160405180910390fd5b600680546001600160601b0383166bffffffffffffffffffffffff199091168117909155604080519182525133917f01fe2943baee27f47add82886c2200f910c749c461c9b63c5fe83901a53bdb49919081900360200190a250565b5f80546001600160a01b038381166001600160a01b0319831681178455604051919092169283917f8be0079c531659141344cd1fd0a4f28419497f9722a3daafe3b4186f6b6457e09190a35050565b61112880620012db83390190565b613570806200240383390190565b6001600160a01b03811681146200038d575f80fd5b5f6020828403121562000ff8575f80fd5b8135620010058162000fd2565b9392505050565b5f80604083850312156200101e575f80fd5b82356200102b8162000fd2565b946020939093013593505050565b5f602082840312156200104a575f80fd5b5035919050565b5f805f6060848603121562001064575f80fd5b8335620010718162000fd2565b95602085013595506040909401359392505050565b5f6020828403121562001097575f80fd5b8151620010058162000fd2565b5f60208284031215620010b5575f80fd5b8151801515811462001005575f80fd5b5f60208284031215620010d6575f80fd5b5051919050565b634e487b7160e01b5f52604160045260245ffd5b5f5b838110156200110d578181015183820152602001620010f3565b50505f910152565b5f6020828403121562001126575f80fd5b815167ffffffffffffffff808211156200113e575f80fd5b818401915084601f83011262001152575f80fd5b815181811115620011675762001167620010dd565b604051601f8201601f19908116603f01168101908382118183101715620011925762001192620010dd565b81604052828152876020848701011115620011ab575f80fd5b620011be836020830160208801620010f1565b979650505050505050565b6a029b2b7321022b0b9371d160ad1b81525f8251620011f081600b850160208701620010f1565b91909101600b0192915050565b61736560f01b81525f82516200121b816002850160208701620010f1565b9190910160020192915050565b5f815180845262001241816020860160208601620010f1565b601f01601f19169290920160200192915050565b6001600160a01b038a81168252898116602083015288811660408301528781166060830152610120608083018190525f91620012948483018a62001228565b915083820360a0850152620012aa828962001228565b96811660c08501529490941660e0830152506001600160601b03919091166101009091015250969550505050505056fe60e060405234801562000010575f80fd5b506040516200112838038062001128833981016040819052620000339162000481565b6001600160a01b0384166200005b5760405163d92e233d60e01b815260040160405180910390fd5b6001600160a01b038316620000835760405163d92e233d60e01b815260040160405180910390fd5b6001600160a01b038216620000ab5760405163d92e233d60e01b815260040160405180910390fd5b6001600160a01b038116620000d35760405163d92e233d60e01b815260040160405180910390fd5b6001600160a01b0380851660a0528316608052620000f18262000205565b6001600160a01b0380821660c0525f54604080516338d52e0f60e01b8152905191909216916338d52e0f9160048083019260209291908290030181865afa1580156200013f573d5f803e3d5ffd5b505050506040513d601f19601f82011682018060405250810190620001659190620004db565b6001600160a01b031660c0516001600160a01b03166338d52e0f6040518163ffffffff1660e01b8152600401602060405180830381865afa158015620001ad573d5f803e3d5ffd5b505050506040513d601f19601f82011682018060405250810190620001d39190620004db565b6001600160a01b031614620001fb576040516341e0808560e11b815260040160405180910390fd5b50505050620004fe565b5f80546001600160a01b0319166001600160a01b0383169081178255604080516338d52e0f60e01b815290516338d52e0f916004808201926020929091908290030181865afa1580156200025b573d5f803e3d5ffd5b505050506040513d601f19601f82011682018060405250810190620002819190620004db565b90506200029a6001600160a01b038216835f19620002da565b6040516001600160a01b03831681527ffd1fcbc1570662ef31c0592a7fd355558238e52e81d22cd3395aa3fdd680aec59060200160405180910390a15050565b604080516001600160a01b038416602482015260448082018490528251808303909101815260649091019091526020810180516001600160e01b0390811663095ea7b360e01b17909152620003349085908390620003a516565b6200039f57604080516001600160a01b03851660248201525f6044808301919091528251808303909101815260649091019091526020810180516001600160e01b0390811663095ea7b360e01b1790915262000393918691620003f116565b6200039f8482620003f1565b50505050565b5f805f8060205f8651602088015f8a5af192503d91505f519050828015620003e757508115620003d95780600114620003e7565b5f866001600160a01b03163b115b9695505050505050565b5f8060205f8451602086015f885af18062000411576040513d5f823e3d81fd5b50505f513d915081156200042a57806001141562000437565b6001600160a01b0384163b155b156200039f57604051635274afe760e01b81526001600160a01b038516600482015260240160405180910390fd5b80516001600160a01b03811681146200047c575f80fd5b919050565b5f805f806080858703121562000495575f80fd5b620004a08562000465565b9350620004b06020860162000465565b9250620004c06040860162000465565b9150620004d06060860162000465565b905092959194509250565b5f60208284031215620004ec575f80fd5b620004f78262000465565b9392505050565b60805160a05160c051610bde6200054a5f395f818160db015261042d01525f818161010201528181610569015261064401525f818160980152818161036d015261045d0152610bde5ff3fe608060405234801561000f575f80fd5b506004361061007a575f3560e01c806345e05f431161005857806345e05f43146100fd578063a0b43d7a14610124578063a4ac019614610137578063ede6a80d1461014a575f80fd5b80630c11dedd1461007e57806316a1614b1461009357806320f094f8146100d6575b5f80fd5b61009161008c366004610afe565b61015c565b005b6100ba7f000000000000000000000000000000000000000000000000000000000000000081565b6040516001600160a01b03909116815260200160405180910390f35b6100ba7f000000000000000000000000000000000000000000000000000000000000000081565b6100ba7f000000000000000000000000000000000000000000000000000000000000000081565b610091610132366004610b19565b6101cb565b610091610145366004610afe565b610639565b5f546100ba906001600160a01b031681565b604051636c82bbbf60e11b81523060048201526101c89082906001600160a01b0382169063d905777e90602401602060405180830381865afa1580156101a4573d5f803e3d5ffd5b505050506040513d601f19601f820116820180604052508101906101329190610b43565b50565b5f826001600160a01b03166338d52e0f6040518163ffffffff1660e01b8152600401602060405180830381865afa158015610208573d5f803e3d5ffd5b505050506040513d601f19601f8201168201806040525081019061022c9190610b5a565b90505f8054906101000a90046001600160a01b03166001600160a01b03166338d52e0f6040518163ffffffff1660e01b8152600401602060405180830381865afa15801561027c573d5f803e3d5ffd5b505050506040513d601f19601f820116820180604052508101906102a09190610b5a565b6001600160a01b0316816001600160a01b0316146102d1576040516341e0808560e11b815260040160405180910390fd5b815f036102f157604051631f2a200560e01b815260040160405180910390fd5b604051635d043b2960e11b815260048101839052306024820181905260448201525f906001600160a01b0385169063ba087652906064016020604051808303815f875af1158015610344573d5f803e3d5ffd5b505050506040513d601f19601f820116820180604052508101906103689190610b43565b90505f7f00000000000000000000000000000000000000000000000000000000000000006001600160a01b031663f76541766040518163ffffffff1660e01b8152600401602060405180830381865afa1580156103c7573d5f803e3d5ffd5b505050506040513d601f19601f820116820180604052508101906103eb9190610b43565b90505f6104018383670de0b6b3a76400006107de565b90505f61042961041984670de0b6b3a7640000610b75565b8590670de0b6b3a76400006107de565b90507f00000000000000000000000000000000000000000000000000000000000000006001600160a01b0316636e553f65837f00000000000000000000000000000000000000000000000000000000000000006001600160a01b0316634bde38c86040518163ffffffff1660e01b8152600401602060405180830381865afa1580156104b7573d5f803e3d5ffd5b505050506040513d601f19601f820116820180604052508101906104db9190610b5a565b6040516001600160e01b031960e085901b16815260048101929092526001600160a01b031660248201526044016020604051808303815f875af1158015610524573d5f803e3d5ffd5b505050506040513d601f19601f820116820180604052508101906105489190610b43565b505f54604051636e553f6560e01b8152600481018390526001600160a01b037f00000000000000000000000000000000000000000000000000000000000000008116602483015290911690636e553f65906044016020604051808303815f875af11580156105b8573d5f803e3d5ffd5b505050506040513d601f19601f820116820180604052508101906105dc9190610b43565b5060408051858152602081018490529081018290526001600160a01b03808716919089169033907fc4ce54c1320cadbd601d3a3e05fb803403da08142478a2b48085658aa1bda47f9060600160405180910390a450505050505050565b336001600160a01b037f0000000000000000000000000000000000000000000000000000000000000000161461068257604051637e6c704d60e01b815260040160405180910390fd5b6001600160a01b0381166106a95760405163d92e233d60e01b815260040160405180910390fd5b5f546001600160a01b03908116908216036106d75760405163a741a04560e01b815260040160405180910390fd5b5f54604080516338d52e0f60e01b8152905183926001600160a01b0316916338d52e0f9160048083019260209291908290030181865afa15801561071d573d5f803e3d5ffd5b505050506040513d601f19601f820116820180604052508101906107419190610b5a565b6001600160a01b0316816001600160a01b03166338d52e0f6040518163ffffffff1660e01b8152600401602060405180830381865afa158015610786573d5f803e3d5ffd5b505050506040513d601f19601f820116820180604052508101906107aa9190610b5a565b6001600160a01b0316146107d1576040516341e0808560e11b815260040160405180910390fd5b6107da82610895565b5050565b5f838302815f1985870982811083820303915050805f036108125783828161080857610808610b94565b049250505061088e565b808411610829576108296003851502601118610965565b5f848688095f868103871696879004966002600389028118808a02820302808a02820302808a02820302808a02820302808a02820302808a02909103029181900381900460010186841190950394909402919094039290920491909117919091029150505b9392505050565b5f80546001600160a01b0319166001600160a01b0383169081178255604080516338d52e0f60e01b815290516338d52e0f916004808201926020929091908290030181865afa1580156108ea573d5f803e3d5ffd5b505050506040513d601f19601f8201168201806040525081019061090e9190610b5a565b90506109256001600160a01b038216835f19610976565b6040516001600160a01b03831681527ffd1fcbc1570662ef31c0592a7fd355558238e52e81d22cd3395aa3fdd680aec59060200160405180910390a15050565b634e487b715f52806020526024601cfd5b604080516001600160a01b038416602482015260448082018490528251808303909101815260649091019091526020810180516001600160e01b031663095ea7b360e01b1790526109c78482610a2f565b610a2957604080516001600160a01b03851660248201525f6044808301919091528251808303909101815260649091019091526020810180516001600160e01b031663095ea7b360e01b179052610a1f908590610a7a565b610a298482610a7a565b50505050565b5f805f8060205f8651602088015f8a5af192503d91505f519050828015610a6e57508115610a605780600114610a6e565b5f866001600160a01b03163b115b93505050505b92915050565b5f8060205f8451602086015f885af180610a99576040513d5f823e3d81fd5b50505f513d91508115610ab0578060011415610abd565b6001600160a01b0384163b155b15610a2957604051635274afe760e01b81526001600160a01b038516600482015260240160405180910390fd5b6001600160a01b03811681146101c8575f80fd5b5f60208284031215610b0e575f80fd5b813561088e81610aea565b5f8060408385031215610b2a575f80fd5b8235610b3581610aea565b946020939093013593505050565b5f60208284031215610b53575f80fd5b5051919050565b5f60208284031215610b6a575f80fd5b815161088e81610aea565b81810381811115610a7457634e487b7160e01b5f52601160045260245ffd5b634e487b7160e01b5f52601260045260245ffdfea26469706673582212201b5c2142270c20fcdb53e647a80a4c45d03e274922762619a83220e5458d259b64736f6c634300081500336101e060405234801562000011575f80fd5b506040516200357038038062003570833981016040819052620000349162000852565b88888680604051806040016040528060018152602001603160f81b8152508a8a8a8160039081620000669190620009d3565b506004620000758282620009d3565b5050505f806200008b836200039960201b60201c565b91509150816200009d5760126200009f565b805b60ff1660a05250506001600160a01b0316608052620000c082600562000478565b61016052620000d181600662000478565b61018052815160208084019190912061012052815190820120610140524660e052620001606101205161014051604080517f8b73c3c69bb8fe3d512ecc4cf759cc79239f7b179b0ffacaa9a75d522b39400f60208201529081019290925260608201524660808201523060a08201525f9060c00160405160208183030381529060405280519060200120905090565b60c05250503061010052506001600160a01b0381166200019a57604051631e4fbdf760e01b81525f60048201526024015b60405180910390fd5b620001a581620004b0565b506001600160a01b038116620001ce5760405163d92e233d60e01b815260040160405180910390fd5b620001d98162000501565b506001600160a01b038716620002025760405163d92e233d60e01b815260040160405180910390fd5b6001600160a01b038316156200022e57600b80546001600160a01b0319166001600160a01b0385161790555b6001600160a01b038216156200025a57600c80546001600160a01b0319166001600160a01b0384161790555b6706f05b59d3b20000816001600160601b031611156200028d5760405163f4df6ae560e01b815260040160405180910390fd5b6001600160601b03811615801590620002ad57506001600160a01b038316155b15620002cc576040516333fe7c6560e21b815260040160405180910390fd5b600a80546001600160601b038316600160a01b026001600160a01b03918216179091558781166101a0526040805163313ce56760e01b815290516200036c9289169163313ce5679160048083019260209291908290030181865afa15801562000337573d5f803e3d5ffd5b505050506040513d601f19601f820116820180604052508101906200035d919062000a9b565b60129060ff1680821191030290565b60ff166101c0526200038a6001600160a01b038716885f19620005b0565b50505050505050505062000b51565b60408051600481526024810182526020810180516001600160e01b031663313ce56760e01b17905290515f918291829182916001600160a01b03871691620003e19162000ac4565b5f60405180830381855afa9150503d805f81146200041b576040519150601f19603f3d011682016040523d82523d5f602084013e62000420565b606091505b50915091508180156200043557506020815110155b156200046c575f8180602001905181019062000452919062000ae1565b905060ff81116200046a576001969095509350505050565b505b505f9485945092505050565b5f60208351101562000497576200048f836200067b565b9050620004aa565b81620004a48482620009d3565b5060ff90505b92915050565b600880546001600160a01b038381166001600160a01b0319831681179093556040519116919082907f8be0079c531659141344cd1fd0a4f28419497f9722a3daafe3b4186f6b6457e0905f90a35050565b600a546001600160a01b03166001600160a01b0316816001600160a01b0316036200053f5760405163a741a04560e01b815260040160405180910390fd5b6001600160a01b038116620005675760405163d92e233d60e01b815260040160405180910390fd5b600a80546001600160a01b0319166001600160a01b0383169081179091556040517fe43176ad83b85c7f6487987d0f13cbdc9e4a7010bfbf3148a181d1247e12067f905f90a250565b604080516001600160a01b038416602482015260448082018490528251808303909101815260649091019091526020810180516001600160e01b0390811663095ea7b360e01b179091526200060a9085908390620006bd16565b6200067557604080516001600160a01b03851660248201525f6044808301919091528251808303909101815260649091019091526020810180516001600160e01b0390811663095ea7b360e01b17909152620006699186916200070916565b62000675848262000709565b50505050565b5f80829050601f81511115620006a8578260405163305a27a960e01b815260040162000191919062000af9565b8051620006b58262000b2d565b179392505050565b5f805f8060205f8651602088015f8a5af192503d91505f519050828015620006ff57508115620006f15780600114620006ff565b5f866001600160a01b03163b115b9695505050505050565b5f8060205f8451602086015f885af18062000729576040513d5f823e3d81fd5b50505f513d91508115620007425780600114156200074f565b6001600160a01b0384163b155b156200067557604051635274afe760e01b81526001600160a01b038516600482015260240162000191565b80516001600160a01b038116811462000791575f80fd5b919050565b634e487b7160e01b5f52604160045260245ffd5b5f5b83811015620007c6578181015183820152602001620007ac565b50505f910152565b5f82601f830112620007de575f80fd5b81516001600160401b0380821115620007fb57620007fb62000796565b604051601f8301601f19908116603f0116810190828211818310171562000826576200082662000796565b816040528381528660208588010111156200083f575f80fd5b620006ff846020830160208901620007aa565b5f805f805f805f805f6101208a8c0312156200086c575f80fd5b620008778a6200077a565b98506200088760208b016200077a565b97506200089760408b016200077a565b9650620008a760608b016200077a565b60808b01519096506001600160401b0380821115620008c4575f80fd5b620008d28d838e01620007ce565b965060a08c0151915080821115620008e8575f80fd5b50620008f78c828d01620007ce565b9450506200090860c08b016200077a565b92506200091860e08b016200077a565b6101008b01519092506001600160601b038116811462000936575f80fd5b809150509295985092959850929598565b600181811c908216806200095c57607f821691505b6020821081036200097b57634e487b7160e01b5f52602260045260245ffd5b50919050565b601f821115620009ce575f81815260208120601f850160051c81016020861015620009a95750805b601f850160051c820191505b81811015620009ca57828155600101620009b5565b5050505b505050565b81516001600160401b03811115620009ef57620009ef62000796565b62000a078162000a00845462000947565b8462000981565b602080601f83116001811462000a3d575f841562000a255750858301515b5f19600386901b1c1916600185901b178555620009ca565b5f85815260208120601f198616915b8281101562000a6d5788860151825594840194600190910190840162000a4c565b508582101562000a8b57878501515f19600388901b60f8161c191681555b5050505050600190811b01905550565b5f6020828403121562000aac575f80fd5b815160ff8116811462000abd575f80fd5b9392505050565b5f825162000ad7818460208701620007aa565b9190910192915050565b5f6020828403121562000af2575f80fd5b5051919050565b602081525f825180602084015262000b19816040850160208701620007aa565b601f01601f19169190910160400192915050565b805160208083015191908110156200097b575f1960209190910360031b1b16919050565b60805160a05160c05160e05161010051610120516101405161016051610180516101a0516101c05161295f62000c115f395f818161050a0152818161125f01528181611565015261171401525f81816103b8015281816106aa015281816113e4015281816115d101528181611814015261191001525f6116da01525f6116ad01525f61137d01525f61135501525f6112b001525f6112da01525f61130401525f61128001525f818161036801528181611d630152611f1a015261295f5ff3fe608060405234801561000f575f80fd5b5060043610610297575f3560e01c806384b0196e11610161578063c6e6f592116100ca578063e30c397811610084578063e30c397814610636578063e562dfd614610647578063e74b981b1461065a578063ef8b30f714610580578063f07cef3e1461066d578063f2fde38b14610680575f80fd5b8063c6e6f59214610580578063ce96cb7714610593578063d505accf146105a6578063d905777e146105b9578063dd62ed3e146105cc578063ddca3f4314610604575f80fd5b8063aea70acc1161011b578063aea70acc14610505578063b26cc3941461052c578063b3d7f6b914610534578063b460af9414610547578063ba0876521461055a578063c63d75b61461056d575f80fd5b806384b0196e1461048b5780638da5cb5b146104a657806394bf804d146104b757806395d89b41146104ca578063a9059cbb146104d2578063ac9650d8146104e5575f80fd5b8063411557d11161020357806369fe0e2d116101bd57806369fe0e2d1461041a5780636e553f651461042d57806370a0823114610440578063715018a61461046857806379ba5097146104705780637ecebe0014610478575f80fd5b8063411557d1146103b357806346904840146103da5780634bde38c8146103ed5780634cdad506146102e0578063568efc07146103fe5780636945c5ea14610407575f80fd5b806318160ddd1161025457806318160ddd1461032957806323b872dd14610331578063313ce567146103445780633644e5151461035e57806338d52e0f14610366578063402d267d146103a0575f80fd5b806301e1d1141461029b57806306ec16f8146102b657806306fdde03146102cb57806307a2d13a146102e0578063095ea7b3146102f35780630a28a47714610316575b5f80fd5b6102a3610693565b6040519081526020015b60405180910390f35b6102c96102c436600461232f565b610785565b005b6102d3610877565b6040516102ad9190612395565b6102a36102ee3660046123a7565b610907565b6103066103013660046123be565b610918565b60405190151581526020016102ad565b6102a36103243660046123a7565b61092f565b6002546102a3565b61030661033f3660046123e6565b61093b565b61034c610960565b60405160ff90911681526020016102ad565b6102a3610969565b7f00000000000000000000000000000000000000000000000000000000000000005b6040516001600160a01b0390911681526020016102ad565b6102a36103ae36600461232f565b610972565b6103887f000000000000000000000000000000000000000000000000000000000000000081565b600b54610388906001600160a01b031681565b600a546001600160a01b0316610388565b6102a3600d5481565b6102c961041536600461232f565b61097b565b6102c96104283660046123a7565b6109b2565b6102a361043b36600461241f565b610aca565b6102a361044e36600461232f565b6001600160a01b03165f9081526020819052604090205490565b6102c9610b04565b6102c9610b17565b6102a361048636600461232f565b610b6d565b610493610b8a565b6040516102ad9796959493929190612449565b6008546001600160a01b0316610388565b6102a36104c536600461241f565b610bcc565b6102d3610c00565b6103066104e03660046123be565b610c0f565b6104f86104f33660046124dd565b610c1c565b6040516102ad919061254c565b61034c7f000000000000000000000000000000000000000000000000000000000000000081565b6102c9610d0d565b6102a36105423660046123a7565b610d1d565b6102a36105553660046125ac565b610d29565b6102a36105683660046125ac565b610d70565b6102a361057b36600461232f565b610dae565b6102a361058e3660046123a7565b610dc4565b6102a36105a136600461232f565b610dcf565b6102c96105b43660046125e5565b610de2565b6102a36105c736600461232f565b610f18565b6102a36105da366004612652565b6001600160a01b039182165f90815260016020908152604080832093909416825291909152205490565b600a5461061e90600160a01b90046001600160601b031681565b6040516001600160601b0390911681526020016102ad565b6009546001600160a01b0316610388565b600c54610388906001600160a01b031681565b6102c961066836600461232f565b610f40565b6102c961067b36600461232f565b610f91565b6102c961068e36600461232f565b610fe2565b6040516370a0823160e01b81523060048201525f907f00000000000000000000000000000000000000000000000000000000000000006001600160a01b0316906307a2d13a9082906370a0823190602401602060405180830381865afa1580156106ff573d5f803e3d5ffd5b505050506040513d601f19601f82011682018060405250810190610723919061267a565b6040518263ffffffff1660e01b815260040161074191815260200190565b602060405180830381865afa15801561075c573d5f803e3d5ffd5b505050506040513d601f19601f82011682018060405250810190610780919061267a565b905090565b600c546001600160a01b03166107ae5760405163d92e233d60e01b815260040160405180910390fd5b6040516370a0823160e01b81523060048201525f906001600160a01b038316906370a0823190602401602060405180830381865afa1580156107f2573d5f803e3d5ffd5b505050506040513d601f19601f82011682018060405250810190610816919061267a565b600c54909150610833906001600160a01b038481169116836110b3565b6040518181526001600160a01b0383169033907f1314fd112a381beea61539dbd21ec04afcff2662ac7d1b83273aade1f53d1b979060200160405180910390a35050565b60606003805461088690612691565b80601f01602080910402602001604051908101604052809291908181526020018280546108b290612691565b80156108fd5780601f106108d4576101008083540402835291602001916108fd565b820191905f5260205f20905b8154815290600101906020018083116108e057829003601f168201915b5050505050905090565b5f610912825f611117565b92915050565b5f33610925818585611145565b5060019392505050565b5f610912826001611152565b5f33610948858285611180565b6109538585856111fc565b60019150505b9392505050565b5f610780611259565b5f6107806112a4565b5f6109126113cd565b600a546001600160a01b031633146109a657604051632f83518f60e11b815260040160405180910390fd5b6109af8161141b565b50565b6109ba6114c8565b600a54600160a01b90046001600160601b031681036109ec5760405163a741a04560e01b815260040160405180910390fd5b6706f05b59d3b20000811115610a155760405163f4df6ae560e01b815260040160405180910390fd5b8015801590610a2d5750600b546001600160a01b0316155b15610a4b576040516333fe7c6560e21b815260040160405180910390fd5b610a53610d0d565b600a80546001600160a01b0316600160a01b6001600160601b0384160217905533600a54604051600160a01b9091046001600160601b031681526001600160a01b0391909116907f01fe2943baee27f47add82886c2200f910c749c461c9b63c5fe83901a53bdb499060200160405180910390a250565b5f80610ad46114f5565b600d8190559050610aef84610ae860025490565b835f61155c565b9150610afd338486856115a9565b5092915050565b610b0c6114c8565b610b155f611655565b565b60095433906001600160a01b03168114610b545760405163118cdaa760e01b81526001600160a01b03821660048201526024015b60405180910390fd5b600980546001600160a01b03191690556109af81611655565b6001600160a01b0381165f90815260076020526040812054610912565b5f6060805f805f6060610b9b6116a6565b610ba36116d3565b604080515f80825260208201909252600f60f81b9b939a50919850469750309650945092509050565b5f80610bd66114f5565b600d8190559050610bf284610bea60025490565b836001611700565b9150610afd338484876115a9565b60606004805461088690612691565b5f336109258185856111fc565b604080515f8152602081019091526060908267ffffffffffffffff811115610c4657610c466126c9565b604051908082528060200260200182016040528015610c7957816020015b6060815260200190600190039081610c645790505b5091505f5b83811015610d0557610cd530868684818110610c9c57610c9c612704565b9050602002810190610cae9190612718565b85604051602001610cc193929190612762565b604051602081830303815290604052611744565b838281518110610ce757610ce7612704565b60200260200101819052508080610cfd90612787565b915050610c7e565b505092915050565b610b15610d186114f5565b6117ad565b5f610912826001611117565b5f80610d336114f5565b9050610d4a85610d4260025490565b83600161155c565b9150610d5b858203868311026117ad565b610d6833858588866117f1565b509392505050565b5f80610d7a6114f5565b9050610d9085610d8960025490565b835f611700565b9150610da1828203838311026117ad565b610d6833858585896117f1565b5f80610db86113cd565b9050610959815f611152565b5f610912825f611152565b5f610dd98261189b565b50909392505050565b83421115610e065760405163313c898160e11b815260048101859052602401610b4b565b5f7f6e71edae12b1b97f4d1f60370fef10105fa2faae0126114a169c64845d6126c9888888610e518c6001600160a01b03165f90815260076020526040902080546001810190915590565b6040805160208101969096526001600160a01b0394851690860152929091166060840152608083015260a082015260c0810186905260e0016040516020818303038152906040528051906020012090505f610eab8261198e565b90505f610eba828787876119ba565b9050896001600160a01b0316816001600160a01b031614610f01576040516325c0072360e11b81526001600160a01b0380831660048301528b166024820152604401610b4b565b610f0c8a8a8a611145565b50505050505050505050565b5f805f80610f258561189b565b925092509250610f378383835f61155c565b95945050505050565b610f486114c8565b600b80546001600160a01b0319166001600160a01b0383169081179091556040517f2e979f80fe4d43055c584cf4a8467c55875ea36728fc37176c05acd784eb7a73905f90a250565b610f996114c8565b600c80546001600160a01b0319166001600160a01b0383169081179091556040517fbf4da31489bf7d607626c05856478443f1ecd2ca7b005fe2f83a45fbd9fe1ee7905f90a250565b600a546001600160a01b0316331461100d57604051632f83518f60e11b815260040160405180910390fd5b6008546001600160a01b03166001600160a01b0316816001600160a01b03160361104a5760405163a741a04560e01b815260040160405180910390fd5b600980546001600160a01b0383166001600160a01b0319909116811790915561107b6008546001600160a01b031690565b6001600160a01b03167f38d16b8cac22d99fc7c124b9cd0de2d3fa1faef420bfe791d8c362d765e2270060405160405180910390a350565b6040516001600160a01b0383811660248301526044820183905261111291859182169063a9059cbb906064015b604051602081830303815290604052915060e01b6020820180516001600160e01b0383818316178352505050506119e6565b505050565b5f805f611122611a52565b91509150610f37858361113460025490565b61113e919061279f565b8387611700565b6111128383836001611aec565b5f805f61115d611a52565b91509150610f37858361116f60025490565b611179919061279f565b838761155c565b6001600160a01b038381165f908152600160209081526040808320938616835292905220545f198110156111f657818110156111e857604051637dc7a0d960e11b81526001600160a01b03841660048201526024810182905260448101839052606401610b4b565b6111f684848484035f611aec565b50505050565b6001600160a01b03831661122557604051634b637e8f60e11b81525f6004820152602401610b4b565b6001600160a01b03821661124e5760405163ec442f0560e01b81525f6004820152602401610b4b565b611112838383611bbe565b5f6107807f00000000000000000000000000000000000000000000000000000000000000007f00000000000000000000000000000000000000000000000000000000000000006127b2565b5f306001600160a01b037f0000000000000000000000000000000000000000000000000000000000000000161480156112fc57507f000000000000000000000000000000000000000000000000000000000000000046145b1561132657507f000000000000000000000000000000000000000000000000000000000000000090565b610780604080517f8b73c3c69bb8fe3d512ecc4cf759cc79239f7b179b0ffacaa9a75d522b39400f60208201527f0000000000000000000000000000000000000000000000000000000000000000918101919091527f000000000000000000000000000000000000000000000000000000000000000060608201524660808201523060a08201525f9060c00160405160208183030381529060405280519060200120905090565b60405163402d267d60e01b81523060048201525f907f00000000000000000000000000000000000000000000000000000000000000006001600160a01b03169063402d267d90602401610741565b600a546001600160a01b03166001600160a01b0316816001600160a01b0316036114585760405163a741a04560e01b815260040160405180910390fd5b6001600160a01b03811661147f5760405163d92e233d60e01b815260040160405180910390fd5b600a80546001600160a01b0319166001600160a01b0383169081179091556040517fe43176ad83b85c7f6487987d0f13cbdc9e4a7010bfbf3148a181d1247e12067f905f90a250565b6008546001600160a01b03163314610b155760405163118cdaa760e01b8152336004820152602401610b4b565b5f806114ff611a52565b92509050801561151f57600b5461151f906001600160a01b031682611ce4565b60408051838152602081018390527ff66f28b40975dbb933913542c7e6a0f50a1d0f20aa74ea6e0efe65ab616323ec910160405180910390a15090565b5f610f3761158b7f0000000000000000000000000000000000000000000000000000000000000000600a6128ab565b611595908661279f565b6115a085600161279f565b87919085611d1c565b6115b584848484611d5e565b604051636e553f6560e01b8152600481018390523060248201527f00000000000000000000000000000000000000000000000000000000000000006001600160a01b031690636e553f65906044016020604051808303815f875af115801561161f573d5f803e3d5ffd5b505050506040513d601f19601f82011682018060405250810190611643919061267a565b506111f682600d54610d18919061279f565b600880546001600160a01b038381166001600160a01b0319831681179093556040519116919082907f8be0079c531659141344cd1fd0a4f28419497f9722a3daafe3b4186f6b6457e0905f90a35050565b60606107807f00000000000000000000000000000000000000000000000000000000000000006005611de2565b60606107807f00000000000000000000000000000000000000000000000000000000000000006006611de2565b5f610f3761170f84600161279f565b61173a7f0000000000000000000000000000000000000000000000000000000000000000600a6128ab565b6115a0908761279f565b60605f80846001600160a01b03168460405161176091906128b9565b5f60405180830381855af49150503d805f8114611798576040519150601f19603f3d011682016040523d82523d5f602084013e61179d565b606091505b5091509150610f37858383611e8b565b600d8190556040518181527f15c027cc4fd826d986cad358803439f7326d3aa4ed969ff90dbee4bc150f68e99060200160405180910390a150565b80821191030290565b604051632d182be560e21b815260048101839052306024820181905260448201527f00000000000000000000000000000000000000000000000000000000000000006001600160a01b03169063b460af94906064016020604051808303815f875af1158015611862573d5f803e3d5ffd5b505050506040513d601f19601f82011682018060405250810190611886919061267a565b506118948585858585611ee7565b5050505050565b5f805f806118a7611a52565b92509050806118b560025490565b6118bf919061279f565b92506118ea6118e2866001600160a01b03165f9081526020819052604090205490565b84845f611700565b60405163ce96cb7760e01b81523060048201529094506119849085906001600160a01b037f0000000000000000000000000000000000000000000000000000000000000000169063ce96cb7790602401602060405180830381865afa158015611955573d5f803e3d5ffd5b505050506040513d601f19601f82011682018060405250810190611979919061267a565b808218908211021890565b9350509193909250565b5f61091261199a6112a4565b8360405161190160f01b8152600281019290925260228201526042902090565b5f805f806119ca88888888611fa7565b9250925092506119da828261206f565b50909695505050505050565b5f8060205f8451602086015f885af180611a05576040513d5f823e3d81fd5b50505f513d91508115611a1c578060011415611a29565b6001600160a01b0384163b155b156111f657604051635274afe760e01b81526001600160a01b0385166004820152602401610b4b565b5f80611a5c610693565b90505f611a74600d54836117e890919063ffffffff16565b90508015801590611a965750600a54600160a01b90046001600160601b031615155b15611ae757600a545f90611ac4908390600160a01b90046001600160601b0316670de0b6b3a7640000612127565b9050611ae381611ad360025490565b611add84876126f1565b5f61155c565b9350505b509091565b6001600160a01b038416611b155760405163e602df0560e01b81525f6004820152602401610b4b565b6001600160a01b038316611b3e57604051634a1406b160e11b81525f6004820152602401610b4b565b6001600160a01b038085165f90815260016020908152604080832093871683529290522082905580156111f657826001600160a01b0316846001600160a01b03167f8c5be1e5ebec7d5bd14f71427d1e84f3dd0314c0f7b2291e5b200ac8c7c3b92584604051611bb091815260200190565b60405180910390a350505050565b6001600160a01b038316611be8578060025f828254611bdd919061279f565b90915550611c589050565b6001600160a01b0383165f9081526020819052604090205481811015611c3a5760405163391434e360e21b81526001600160a01b03851660048201526024810182905260448101839052606401610b4b565b6001600160a01b0384165f9081526020819052604090209082900390555b6001600160a01b038216611c7457600280548290039055611c92565b6001600160a01b0382165f9081526020819052604090208054820190555b816001600160a01b0316836001600160a01b03167fddf252ad1be2c89b69c2b068fc378daa952ba7f163c4a11628f55a4df523b3ef83604051611cd791815260200190565b60405180910390a3505050565b6001600160a01b038216611d0d5760405163ec442f0560e01b81525f6004820152602401610b4b565b611d185f8383611bbe565b5050565b5f611d49611d29836121dd565b8015611d4457505f8480611d3f57611d3f6128d4565b868809115b151590565b611d54868686612127565b610f37919061279f565b611d8a7f0000000000000000000000000000000000000000000000000000000000000000853085612209565b611d948382611ce4565b826001600160a01b0316846001600160a01b03167fdcbc1c05240f31ff3ad067ef1ee35ce4997762752e3a095284754544f4c709d78484604051611bb0929190918252602082015260400190565b606060ff8314611dfc57611df583612242565b9050610912565b818054611e0890612691565b80601f0160208091040260200160405190810160405280929190818152602001828054611e3490612691565b8015611e7f5780601f10611e5657610100808354040283529160200191611e7f565b820191905f5260205f20905b815481529060010190602001808311611e6257829003601f168201915b50505050509050610912565b606082611ea057611e9b8261227f565b610959565b8151158015611eb757506001600160a01b0384163b155b15611ee057604051639996b31560e01b81526001600160a01b0385166004820152602401610b4b565b5080610959565b826001600160a01b0316856001600160a01b031614611f0b57611f0b838683611180565b611f1583826122a8565b611f407f000000000000000000000000000000000000000000000000000000000000000085846110b3565b826001600160a01b0316846001600160a01b0316866001600160a01b03167ffbde797d201c681b91056529119e0b02407c7bb96a4a2c75c01fc9667232c8db8585604051611f98929190918252602082015260400190565b60405180910390a45050505050565b5f80807f7fffffffffffffffffffffffffffffff5d576e7357a4501ddfe92f46681b20a0841115611fe057505f91506003905082612065565b604080515f808252602082018084528a905260ff891692820192909252606081018790526080810186905260019060a0016020604051602081039080840390855afa158015612031573d5f803e3d5ffd5b5050604051601f1901519150506001600160a01b03811661205c57505f925060019150829050612065565b92505f91508190505b9450945094915050565b5f826003811115612082576120826128e8565b0361208b575050565b600182600381111561209f5761209f6128e8565b036120bd5760405163f645eedf60e01b815260040160405180910390fd5b60028260038111156120d1576120d16128e8565b036120f25760405163fce698f760e01b815260048101829052602401610b4b565b6003826003811115612106576121066128e8565b03611d18576040516335e2f38360e21b815260048101829052602401610b4b565b5f838302815f1985870982811083820303915050805f0361215b57838281612151576121516128d4565b0492505050610959565b8084116121725761217260038515026011186122dc565b5f848688095f868103871696879004966002600389028118808a02820302808a02820302808a02820302808a02820302808a02820302808a02909103029181900381900460010186841190950394909402919094039290920491909117919091029150509392505050565b5f60028260038111156121f2576121f26128e8565b6121fc91906128fc565b60ff166001149050919050565b6040516001600160a01b0384811660248301528381166044830152606482018390526111f69186918216906323b872dd906084016110e0565b60605f61224e836122ed565b6040805160208082528183019092529192505f91906020820181803683375050509182525060208101929092525090565b80511561228f5780518082602001fd5b60405163d6bda27560e01b815260040160405180910390fd5b6001600160a01b0382166122d157604051634b637e8f60e11b81525f6004820152602401610b4b565b611d18825f83611bbe565b634e487b715f52806020526024601cfd5b5f60ff8216601f81111561091257604051632cd44ac360e21b815260040160405180910390fd5b80356001600160a01b038116811461232a575f80fd5b919050565b5f6020828403121561233f575f80fd5b61095982612314565b5f5b8381101561236257818101518382015260200161234a565b50505f910152565b5f8151808452612381816020860160208601612348565b601f01601f19169290920160200192915050565b602081525f610959602083018461236a565b5f602082840312156123b7575f80fd5b5035919050565b5f80604083850312156123cf575f80fd5b6123d883612314565b946020939093013593505050565b5f805f606084860312156123f8575f80fd5b61240184612314565b925061240f60208501612314565b9150604084013590509250925092565b5f8060408385031215612430575f80fd5b8235915061244060208401612314565b90509250929050565b60ff60f81b881681525f602060e08184015261246860e084018a61236a565b838103604085015261247a818a61236a565b606085018990526001600160a01b038816608086015260a0850187905284810360c086015285518082528387019250908301905f5b818110156124cb578351835292840192918401916001016124af565b50909c9b505050505050505050505050565b5f80602083850312156124ee575f80fd5b823567ffffffffffffffff80821115612505575f80fd5b818501915085601f830112612518575f80fd5b813581811115612526575f80fd5b8660208260051b850101111561253a575f80fd5b60209290920196919550909350505050565b5f602080830181845280855180835260408601915060408160051b87010192508387015f5b8281101561259f57603f1988860301845261258d85835161236a565b94509285019290850190600101612571565b5092979650505050505050565b5f805f606084860312156125be575f80fd5b833592506125ce60208501612314565b91506125dc60408501612314565b90509250925092565b5f805f805f805f60e0888a0312156125fb575f80fd5b61260488612314565b965061261260208901612314565b95506040880135945060608801359350608088013560ff81168114612635575f80fd5b9699959850939692959460a0840135945060c09093013592915050565b5f8060408385031215612663575f80fd5b61266c83612314565b915061244060208401612314565b5f6020828403121561268a575f80fd5b5051919050565b600181811c908216806126a557607f821691505b6020821081036126c357634e487b7160e01b5f52602260045260245ffd5b50919050565b634e487b7160e01b5f52604160045260245ffd5b634e487b7160e01b5f52601160045260245ffd5b81810381811115610912576109126126dd565b634e487b7160e01b5f52603260045260245ffd5b5f808335601e1984360301811261272d575f80fd5b83018035915067ffffffffffffffff821115612747575f80fd5b60200191503681900382131561275b575f80fd5b9250929050565b828482375f8382015f8152835161277d818360208801612348565b0195945050505050565b5f60018201612798576127986126dd565b5060010190565b80820180821115610912576109126126dd565b60ff8181168382160190811115610912576109126126dd565b600181815b8085111561280557815f19048211156127eb576127eb6126dd565b808516156127f857918102915b93841c93908002906127d0565b509250929050565b5f8261281b57506001610912565b8161282757505f610912565b816001811461283d576002811461284757612863565b6001915050610912565b60ff841115612858576128586126dd565b50506001821b610912565b5060208310610133831016604e8410600b8410161715612886575081810a610912565b61289083836127cb565b805f19048211156128a3576128a36126dd565b029392505050565b5f61095960ff84168361280d565b5f82516128ca818460208701612348565b9190910192915050565b634e487b7160e01b5f52601260045260245ffd5b634e487b7160e01b5f52602160045260245ffd5b5f60ff83168061291a57634e487b7160e01b5f52601260045260245ffd5b8060ff8416069150509291505056fea2646970667358221220ca02299a089cc1848cb41a054d102123bb2ca38cd49c6647eb3ae690b82458e664736f6c63430008150033a26469706673582212204835070416fc0a7afbe5fc49b62eeb96cba91539b691f961313252d5752e9a6364736f6c634300081500336101e060405234801562000011575f80fd5b506040516200357038038062003570833981016040819052620000349162000852565b88888680604051806040016040528060018152602001603160f81b8152508a8a8a8160039081620000669190620009d3565b506004620000758282620009d3565b5050505f806200008b836200039960201b60201c565b91509150816200009d5760126200009f565b805b60ff1660a05250506001600160a01b0316608052620000c082600562000478565b61016052620000d181600662000478565b61018052815160208084019190912061012052815190820120610140524660e052620001606101205161014051604080517f8b73c3c69bb8fe3d512ecc4cf759cc79239f7b179b0ffacaa9a75d522b39400f60208201529081019290925260608201524660808201523060a08201525f9060c00160405160208183030381529060405280519060200120905090565b60c05250503061010052506001600160a01b0381166200019a57604051631e4fbdf760e01b81525f60048201526024015b60405180910390fd5b620001a581620004b0565b506001600160a01b038116620001ce5760405163d92e233d60e01b815260040160405180910390fd5b620001d98162000501565b506001600160a01b038716620002025760405163d92e233d60e01b815260040160405180910390fd5b6001600160a01b038316156200022e57600b80546001600160a01b0319166001600160a01b0385161790555b6001600160a01b038216156200025a57600c80546001600160a01b0319166001600160a01b0384161790555b6706f05b59d3b20000816001600160601b031611156200028d5760405163f4df6ae560e01b815260040160405180910390fd5b6001600160601b03811615801590620002ad57506001600160a01b038316155b15620002cc576040516333fe7c6560e21b815260040160405180910390fd5b600a80546001600160601b038316600160a01b026001600160a01b03918216179091558781166101a0526040805163313ce56760e01b815290516200036c9289169163313ce5679160048083019260209291908290030181865afa15801562000337573d5f803e3d5ffd5b505050506040513d601f19601f820116820180604052508101906200035d919062000a9b565b60129060ff1680821191030290565b60ff166101c0526200038a6001600160a01b038716885f19620005b0565b50505050505050505062000b51565b60408051600481526024810182526020810180516001600160e01b031663313ce56760e01b17905290515f918291829182916001600160a01b03871691620003e19162000ac4565b5f60405180830381855afa9150503d805f81146200041b576040519150601f19603f3d011682016040523d82523d5f602084013e62000420565b606091505b50915091508180156200043557506020815110155b156200046c575f8180602001905181019062000452919062000ae1565b905060ff81116200046a576001969095509350505050565b505b505f9485945092505050565b5f60208351101562000497576200048f836200067b565b9050620004aa565b81620004a48482620009d3565b5060ff90505b92915050565b600880546001600160a01b038381166001600160a01b0319831681179093556040519116919082907f8be0079c531659141344cd1fd0a4f28419497f9722a3daafe3b4186f6b6457e0905f90a35050565b600a546001600160a01b03166001600160a01b0316816001600160a01b0316036200053f5760405163a741a04560e01b815260040160405180910390fd5b6001600160a01b038116620005675760405163d92e233d60e01b815260040160405180910390fd5b600a80546001600160a01b0319166001600160a01b0383169081179091556040517fe43176ad83b85c7f6487987d0f13cbdc9e4a7010bfbf3148a181d1247e12067f905f90a250565b604080516001600160a01b038416602482015260448082018490528251808303909101815260649091019091526020810180516001600160e01b0390811663095ea7b360e01b179091526200060a9085908390620006bd16565b6200067557604080516001600160a01b03851660248201525f6044808301919091528251808303909101815260649091019091526020810180516001600160e01b0390811663095ea7b360e01b17909152620006699186916200070916565b62000675848262000709565b50505050565b5f80829050601f81511115620006a8578260405163305a27a960e01b815260040162000191919062000af9565b8051620006b58262000b2d565b179392505050565b5f805f8060205f8651602088015f8a5af192503d91505f519050828015620006ff57508115620006f15780600114620006ff565b5f866001600160a01b03163b115b9695505050505050565b5f8060205f8451602086015f885af18062000729576040513d5f823e3d81fd5b50505f513d91508115620007425780600114156200074f565b6001600160a01b0384163b155b156200067557604051635274afe760e01b81526001600160a01b038516600482015260240162000191565b80516001600160a01b038116811462000791575f80fd5b919050565b634e487b7160e01b5f52604160045260245ffd5b5f5b83811015620007c6578181015183820152602001620007ac565b50505f910152565b5f82601f830112620007de575f80fd5b81516001600160401b0380821115620007fb57620007fb62000796565b604051601f8301601f19908116603f0116810190828211818310171562000826576200082662000796565b816040528381528660208588010111156200083f575f80fd5b620006ff846020830160208901620007aa565b5f805f805f805f805f6101208a8c0312156200086c575f80fd5b620008778a6200077a565b98506200088760208b016200077a565b97506200089760408b016200077a565b9650620008a760608b016200077a565b60808b01519096506001600160401b0380821115620008c4575f80fd5b620008d28d838e01620007ce565b965060a08c0151915080821115620008e8575f80fd5b50620008f78c828d01620007ce565b9450506200090860c08b016200077a565b92506200091860e08b016200077a565b6101008b01519092506001600160601b038116811462000936575f80fd5b809150509295985092959850929598565b600181811c908216806200095c57607f821691505b6020821081036200097b57634e487b7160e01b5f52602260045260245ffd5b50919050565b601f821115620009ce575f81815260208120601f850160051c81016020861015620009a95750805b601f850160051c820191505b81811015620009ca57828155600101620009b5565b5050505b505050565b81516001600160401b03811115620009ef57620009ef62000796565b62000a078162000a00845462000947565b8462000981565b602080601f83116001811462000a3d575f841562000a255750858301515b5f19600386901b1c1916600185901b178555620009ca565b5f85815260208120601f198616915b8281101562000a6d5788860151825594840194600190910190840162000a4c565b508582101562000a8b57878501515f19600388901b60f8161c191681555b5050505050600190811b01905550565b5f6020828403121562000aac575f80fd5b815160ff8116811462000abd575f80fd5b9392505050565b5f825162000ad7818460208701620007aa565b9190910192915050565b5f6020828403121562000af2575f80fd5b5051919050565b602081525f825180602084015262000b19816040850160208701620007aa565b601f01601f19169190910160400192915050565b805160208083015191908110156200097b575f1960209190910360031b1b16919050565b60805160a05160c05160e05161010051610120516101405161016051610180516101a0516101c05161295f62000c115f395f818161050a0152818161125f01528181611565015261171401525f81816103b8015281816106aa015281816113e4015281816115d101528181611814015261191001525f6116da01525f6116ad01525f61137d01525f61135501525f6112b001525f6112da01525f61130401525f61128001525f818161036801528181611d630152611f1a015261295f5ff3fe608060405234801561000f575f80fd5b5060043610610297575f3560e01c806384b0196e11610161578063c6e6f592116100ca578063e30c397811610084578063e30c397814610636578063e562dfd614610647578063e74b981b1461065a578063ef8b30f714610580578063f07cef3e1461066d578063f2fde38b14610680575f80fd5b8063c6e6f59214610580578063ce96cb7714610593578063d505accf146105a6578063d905777e146105b9578063dd62ed3e146105cc578063ddca3f4314610604575f80fd5b8063aea70acc1161011b578063aea70acc14610505578063b26cc3941461052c578063b3d7f6b914610534578063b460af9414610547578063ba0876521461055a578063c63d75b61461056d575f80fd5b806384b0196e1461048b5780638da5cb5b146104a657806394bf804d146104b757806395d89b41146104ca578063a9059cbb146104d2578063ac9650d8146104e5575f80fd5b8063411557d11161020357806369fe0e2d116101bd57806369fe0e2d1461041a5780636e553f651461042d57806370a0823114610440578063715018a61461046857806379ba5097146104705780637ecebe0014610478575f80fd5b8063411557d1146103b357806346904840146103da5780634bde38c8146103ed5780634cdad506146102e0578063568efc07146103fe5780636945c5ea14610407575f80fd5b806318160ddd1161025457806318160ddd1461032957806323b872dd14610331578063313ce567146103445780633644e5151461035e57806338d52e0f14610366578063402d267d146103a0575f80fd5b806301e1d1141461029b57806306ec16f8146102b657806306fdde03146102cb57806307a2d13a146102e0578063095ea7b3146102f35780630a28a47714610316575b5f80fd5b6102a3610693565b6040519081526020015b60405180910390f35b6102c96102c436600461232f565b610785565b005b6102d3610877565b6040516102ad9190612395565b6102a36102ee3660046123a7565b610907565b6103066103013660046123be565b610918565b60405190151581526020016102ad565b6102a36103243660046123a7565b61092f565b6002546102a3565b61030661033f3660046123e6565b61093b565b61034c610960565b60405160ff90911681526020016102ad565b6102a3610969565b7f00000000000000000000000000000000000000000000000000000000000000005b6040516001600160a01b0390911681526020016102ad565b6102a36103ae36600461232f565b610972565b6103887f000000000000000000000000000000000000000000000000000000000000000081565b600b54610388906001600160a01b031681565b600a546001600160a01b0316610388565b6102a3600d5481565b6102c961041536600461232f565b61097b565b6102c96104283660046123a7565b6109b2565b6102a361043b36600461241f565b610aca565b6102a361044e36600461232f565b6001600160a01b03165f9081526020819052604090205490565b6102c9610b04565b6102c9610b17565b6102a361048636600461232f565b610b6d565b610493610b8a565b6040516102ad9796959493929190612449565b6008546001600160a01b0316610388565b6102a36104c536600461241f565b610bcc565b6102d3610c00565b6103066104e03660046123be565b610c0f565b6104f86104f33660046124dd565b610c1c565b6040516102ad919061254c565b61034c7f000000000000000000000000000000000000000000000000000000000000000081565b6102c9610d0d565b6102a36105423660046123a7565b610d1d565b6102a36105553660046125ac565b610d29565b6102a36105683660046125ac565b610d70565b6102a361057b36600461232f565b610dae565b6102a361058e3660046123a7565b610dc4565b6102a36105a136600461232f565b610dcf565b6102c96105b43660046125e5565b610de2565b6102a36105c736600461232f565b610f18565b6102a36105da366004612652565b6001600160a01b039182165f90815260016020908152604080832093909416825291909152205490565b600a5461061e90600160a01b90046001600160601b031681565b6040516001600160601b0390911681526020016102ad565b6009546001600160a01b0316610388565b600c54610388906001600160a01b031681565b6102c961066836600461232f565b610f40565b6102c961067b36600461232f565b610f91565b6102c961068e36600461232f565b610fe2565b6040516370a0823160e01b81523060048201525f907f00000000000000000000000000000000000000000000000000000000000000006001600160a01b0316906307a2d13a9082906370a0823190602401602060405180830381865afa1580156106ff573d5f803e3d5ffd5b505050506040513d601f19601f82011682018060405250810190610723919061267a565b6040518263ffffffff1660e01b815260040161074191815260200190565b602060405180830381865afa15801561075c573d5f803e3d5ffd5b505050506040513d601f19601f82011682018060405250810190610780919061267a565b905090565b600c546001600160a01b03166107ae5760405163d92e233d60e01b815260040160405180910390fd5b6040516370a0823160e01b81523060048201525f906001600160a01b038316906370a0823190602401602060405180830381865afa1580156107f2573d5f803e3d5ffd5b505050506040513d601f19601f82011682018060405250810190610816919061267a565b600c54909150610833906001600160a01b038481169116836110b3565b6040518181526001600160a01b0383169033907f1314fd112a381beea61539dbd21ec04afcff2662ac7d1b83273aade1f53d1b979060200160405180910390a35050565b60606003805461088690612691565b80601f01602080910402602001604051908101604052809291908181526020018280546108b290612691565b80156108fd5780601f106108d4576101008083540402835291602001916108fd565b820191905f5260205f20905b8154815290600101906020018083116108e057829003601f168201915b5050505050905090565b5f610912825f611117565b92915050565b5f33610925818585611145565b5060019392505050565b5f610912826001611152565b5f33610948858285611180565b6109538585856111fc565b60019150505b9392505050565b5f610780611259565b5f6107806112a4565b5f6109126113cd565b600a546001600160a01b031633146109a657604051632f83518f60e11b815260040160405180910390fd5b6109af8161141b565b50565b6109ba6114c8565b600a54600160a01b90046001600160601b031681036109ec5760405163a741a04560e01b815260040160405180910390fd5b6706f05b59d3b20000811115610a155760405163f4df6ae560e01b815260040160405180910390fd5b8015801590610a2d5750600b546001600160a01b0316155b15610a4b576040516333fe7c6560e21b815260040160405180910390fd5b610a53610d0d565b600a80546001600160a01b0316600160a01b6001600160601b0384160217905533600a54604051600160a01b9091046001600160601b031681526001600160a01b0391909116907f01fe2943baee27f47add82886c2200f910c749c461c9b63c5fe83901a53bdb499060200160405180910390a250565b5f80610ad46114f5565b600d8190559050610aef84610ae860025490565b835f61155c565b9150610afd338486856115a9565b5092915050565b610b0c6114c8565b610b155f611655565b565b60095433906001600160a01b03168114610b545760405163118cdaa760e01b81526001600160a01b03821660048201526024015b60405180910390fd5b600980546001600160a01b03191690556109af81611655565b6001600160a01b0381165f90815260076020526040812054610912565b5f6060805f805f6060610b9b6116a6565b610ba36116d3565b604080515f80825260208201909252600f60f81b9b939a50919850469750309650945092509050565b5f80610bd66114f5565b600d8190559050610bf284610bea60025490565b836001611700565b9150610afd338484876115a9565b60606004805461088690612691565b5f336109258185856111fc565b604080515f8152602081019091526060908267ffffffffffffffff811115610c4657610c466126c9565b604051908082528060200260200182016040528015610c7957816020015b6060815260200190600190039081610c645790505b5091505f5b83811015610d0557610cd530868684818110610c9c57610c9c612704565b9050602002810190610cae9190612718565b85604051602001610cc193929190612762565b604051602081830303815290604052611744565b838281518110610ce757610ce7612704565b60200260200101819052508080610cfd90612787565b915050610c7e565b505092915050565b610b15610d186114f5565b6117ad565b5f610912826001611117565b5f80610d336114f5565b9050610d4a85610d4260025490565b83600161155c565b9150610d5b858203868311026117ad565b610d6833858588866117f1565b509392505050565b5f80610d7a6114f5565b9050610d9085610d8960025490565b835f611700565b9150610da1828203838311026117ad565b610d6833858585896117f1565b5f80610db86113cd565b9050610959815f611152565b5f610912825f611152565b5f610dd98261189b565b50909392505050565b83421115610e065760405163313c898160e11b815260048101859052602401610b4b565b5f7f6e71edae12b1b97f4d1f60370fef10105fa2faae0126114a169c64845d6126c9888888610e518c6001600160a01b03165f90815260076020526040902080546001810190915590565b6040805160208101969096526001600160a01b0394851690860152929091166060840152608083015260a082015260c0810186905260e0016040516020818303038152906040528051906020012090505f610eab8261198e565b90505f610eba828787876119ba565b9050896001600160a01b0316816001600160a01b031614610f01576040516325c0072360e11b81526001600160a01b0380831660048301528b166024820152604401610b4b565b610f0c8a8a8a611145565b50505050505050505050565b5f805f80610f258561189b565b925092509250610f378383835f61155c565b95945050505050565b610f486114c8565b600b80546001600160a01b0319166001600160a01b0383169081179091556040517f2e979f80fe4d43055c584cf4a8467c55875ea36728fc37176c05acd784eb7a73905f90a250565b610f996114c8565b600c80546001600160a01b0319166001600160a01b0383169081179091556040517fbf4da31489bf7d607626c05856478443f1ecd2ca7b005fe2f83a45fbd9fe1ee7905f90a250565b600a546001600160a01b0316331461100d57604051632f83518f60e11b815260040160405180910390fd5b6008546001600160a01b03166001600160a01b0316816001600160a01b03160361104a5760405163a741a04560e01b815260040160405180910390fd5b600980546001600160a01b0383166001600160a01b0319909116811790915561107b6008546001600160a01b031690565b6001600160a01b03167f38d16b8cac22d99fc7c124b9cd0de2d3fa1faef420bfe791d8c362d765e2270060405160405180910390a350565b6040516001600160a01b0383811660248301526044820183905261111291859182169063a9059cbb906064015b604051602081830303815290604052915060e01b6020820180516001600160e01b0383818316178352505050506119e6565b505050565b5f805f611122611a52565b91509150610f37858361113460025490565b61113e919061279f565b8387611700565b6111128383836001611aec565b5f805f61115d611a52565b91509150610f37858361116f60025490565b611179919061279f565b838761155c565b6001600160a01b038381165f908152600160209081526040808320938616835292905220545f198110156111f657818110156111e857604051637dc7a0d960e11b81526001600160a01b03841660048201526024810182905260448101839052606401610b4b565b6111f684848484035f611aec565b50505050565b6001600160a01b03831661122557604051634b637e8f60e11b81525f6004820152602401610b4b565b6001600160a01b03821661124e5760405163ec442f0560e01b81525f6004820152602401610b4b565b611112838383611bbe565b5f6107807f00000000000000000000000000000000000000000000000000000000000000007f00000000000000000000000000000000000000000000000000000000000000006127b2565b5f306001600160a01b037f0000000000000000000000000000000000000000000000000000000000000000161480156112fc57507f000000000000000000000000000000000000000000000000000000000000000046145b1561132657507f000000000000000000000000000000000000000000000000000000000000000090565b610780604080517f8b73c3c69bb8fe3d512ecc4cf759cc79239f7b179b0ffacaa9a75d522b39400f60208201527f0000000000000000000000000000000000000000000000000000000000000000918101919091527f000000000000000000000000000000000000000000000000000000000000000060608201524660808201523060a08201525f9060c00160405160208183030381529060405280519060200120905090565b60405163402d267d60e01b81523060048201525f907f00000000000000000000000000000000000000000000000000000000000000006001600160a01b03169063402d267d90602401610741565b600a546001600160a01b03166001600160a01b0316816001600160a01b0316036114585760405163a741a04560e01b815260040160405180910390fd5b6001600160a01b03811661147f5760405163d92e233d60e01b815260040160405180910390fd5b600a80546001600160a01b0319166001600160a01b0383169081179091556040517fe43176ad83b85c7f6487987d0f13cbdc9e4a7010bfbf3148a181d1247e12067f905f90a250565b6008546001600160a01b03163314610b155760405163118cdaa760e01b8152336004820152602401610b4b565b5f806114ff611a52565b92509050801561151f57600b5461151f906001600160a01b031682611ce4565b60408051838152602081018390527ff66f28b40975dbb933913542c7e6a0f50a1d0f20aa74ea6e0efe65ab616323ec910160405180910390a15090565b5f610f3761158b7f0000000000000000000000000000000000000000000000000000000000000000600a6128ab565b611595908661279f565b6115a085600161279f565b87919085611d1c565b6115b584848484611d5e565b604051636e553f6560e01b8152600481018390523060248201527f00000000000000000000000000000000000000000000000000000000000000006001600160a01b031690636e553f65906044016020604051808303815f875af115801561161f573d5f803e3d5ffd5b505050506040513d601f19601f82011682018060405250810190611643919061267a565b506111f682600d54610d18919061279f565b600880546001600160a01b038381166001600160a01b0319831681179093556040519116919082907f8be0079c531659141344cd1fd0a4f28419497f9722a3daafe3b4186f6b6457e0905f90a35050565b60606107807f00000000000000000000000000000000000000000000000000000000000000006005611de2565b60606107807f00000000000000000000000000000000000000000000000000000000000000006006611de2565b5f610f3761170f84600161279f565b61173a7f0000000000000000000000000000000000000000000000000000000000000000600a6128ab565b6115a0908761279f565b60605f80846001600160a01b03168460405161176091906128b9565b5f60405180830381855af49150503d805f8114611798576040519150601f19603f3d011682016040523d82523d5f602084013e61179d565b606091505b5091509150610f37858383611e8b565b600d8190556040518181527f15c027cc4fd826d986cad358803439f7326d3aa4ed969ff90dbee4bc150f68e99060200160405180910390a150565b80821191030290565b604051632d182be560e21b815260048101839052306024820181905260448201527f00000000000000000000000000000000000000000000000000000000000000006001600160a01b03169063b460af94906064016020604051808303815f875af1158015611862573d5f803e3d5ffd5b505050506040513d601f19601f82011682018060405250810190611886919061267a565b506118948585858585611ee7565b5050505050565b5f805f806118a7611a52565b92509050806118b560025490565b6118bf919061279f565b92506118ea6118e2866001600160a01b03165f9081526020819052604090205490565b84845f611700565b60405163ce96cb7760e01b81523060048201529094506119849085906001600160a01b037f0000000000000000000000000000000000000000000000000000000000000000169063ce96cb7790602401602060405180830381865afa158015611955573d5f803e3d5ffd5b505050506040513d601f19601f82011682018060405250810190611979919061267a565b808218908211021890565b9350509193909250565b5f61091261199a6112a4565b8360405161190160f01b8152600281019290925260228201526042902090565b5f805f806119ca88888888611fa7565b9250925092506119da828261206f565b50909695505050505050565b5f8060205f8451602086015f885af180611a05576040513d5f823e3d81fd5b50505f513d91508115611a1c578060011415611a29565b6001600160a01b0384163b155b156111f657604051635274afe760e01b81526001600160a01b0385166004820152602401610b4b565b5f80611a5c610693565b90505f611a74600d54836117e890919063ffffffff16565b90508015801590611a965750600a54600160a01b90046001600160601b031615155b15611ae757600a545f90611ac4908390600160a01b90046001600160601b0316670de0b6b3a7640000612127565b9050611ae381611ad360025490565b611add84876126f1565b5f61155c565b9350505b509091565b6001600160a01b038416611b155760405163e602df0560e01b81525f6004820152602401610b4b565b6001600160a01b038316611b3e57604051634a1406b160e11b81525f6004820152602401610b4b565b6001600160a01b038085165f90815260016020908152604080832093871683529290522082905580156111f657826001600160a01b0316846001600160a01b03167f8c5be1e5ebec7d5bd14f71427d1e84f3dd0314c0f7b2291e5b200ac8c7c3b92584604051611bb091815260200190565b60405180910390a350505050565b6001600160a01b038316611be8578060025f828254611bdd919061279f565b90915550611c589050565b6001600160a01b0383165f9081526020819052604090205481811015611c3a5760405163391434e360e21b81526001600160a01b03851660048201526024810182905260448101839052606401610b4b565b6001600160a01b0384165f9081526020819052604090209082900390555b6001600160a01b038216611c7457600280548290039055611c92565b6001600160a01b0382165f9081526020819052604090208054820190555b816001600160a01b0316836001600160a01b03167fddf252ad1be2c89b69c2b068fc378daa952ba7f163c4a11628f55a4df523b3ef83604051611cd791815260200190565b60405180910390a3505050565b6001600160a01b038216611d0d5760405163ec442f0560e01b81525f6004820152602401610b4b565b611d185f8383611bbe565b5050565b5f611d49611d29836121dd565b8015611d4457505f8480611d3f57611d3f6128d4565b868809115b151590565b611d54868686612127565b610f37919061279f565b611d8a7f0000000000000000000000000000000000000000000000000000000000000000853085612209565b611d948382611ce4565b826001600160a01b0316846001600160a01b03167fdcbc1c05240f31ff3ad067ef1ee35ce4997762752e3a095284754544f4c709d78484604051611bb0929190918252602082015260400190565b606060ff8314611dfc57611df583612242565b9050610912565b818054611e0890612691565b80601f0160208091040260200160405190810160405280929190818152602001828054611e3490612691565b8015611e7f5780601f10611e5657610100808354040283529160200191611e7f565b820191905f5260205f20905b815481529060010190602001808311611e6257829003601f168201915b50505050509050610912565b606082611ea057611e9b8261227f565b610959565b8151158015611eb757506001600160a01b0384163b155b15611ee057604051639996b31560e01b81526001600160a01b0385166004820152602401610b4b565b5080610959565b826001600160a01b0316856001600160a01b031614611f0b57611f0b838683611180565b611f1583826122a8565b611f407f000000000000000000000000000000000000000000000000000000000000000085846110b3565b826001600160a01b0316846001600160a01b0316866001600160a01b03167ffbde797d201c681b91056529119e0b02407c7bb96a4a2c75c01fc9667232c8db8585604051611f98929190918252602082015260400190565b60405180910390a45050505050565b5f80807f7fffffffffffffffffffffffffffffff5d576e7357a4501ddfe92f46681b20a0841115611fe057505f91506003905082612065565b604080515f808252602082018084528a905260ff891692820192909252606081018790526080810186905260019060a0016020604051602081039080840390855afa158015612031573d5f803e3d5ffd5b5050604051601f1901519150506001600160a01b03811661205c57505f925060019150829050612065565b92505f91508190505b9450945094915050565b5f826003811115612082576120826128e8565b0361208b575050565b600182600381111561209f5761209f6128e8565b036120bd5760405163f645eedf60e01b815260040160405180910390fd5b60028260038111156120d1576120d16128e8565b036120f25760405163fce698f760e01b815260048101829052602401610b4b565b6003826003811115612106576121066128e8565b03611d18576040516335e2f38360e21b815260048101829052602401610b4b565b5f838302815f1985870982811083820303915050805f0361215b57838281612151576121516128d4565b0492505050610959565b8084116121725761217260038515026011186122dc565b5f848688095f868103871696879004966002600389028118808a02820302808a02820302808a02820302808a02820302808a02820302808a02909103029181900381900460010186841190950394909402919094039290920491909117919091029150509392505050565b5f60028260038111156121f2576121f26128e8565b6121fc91906128fc565b60ff166001149050919050565b6040516001600160a01b0384811660248301528381166044830152606482018390526111f69186918216906323b872dd906084016110e0565b60605f61224e836122ed565b6040805160208082528183019092529192505f91906020820181803683375050509182525060208101929092525090565b80511561228f5780518082602001fd5b60405163d6bda27560e01b815260040160405180910390fd5b6001600160a01b0382166122d157604051634b637e8f60e11b81525f6004820152602401610b4b565b611d18825f83611bbe565b634e487b715f52806020526024601cfd5b5f60ff8216601f81111561091257604051632cd44ac360e21b815260040160405180910390fd5b80356001600160a01b038116811461232a575f80fd5b919050565b5f6020828403121561233f575f80fd5b61095982612314565b5f5b8381101561236257818101518382015260200161234a565b50505f910152565b5f8151808452612381816020860160208601612348565b601f01601f19169290920160200192915050565b602081525f610959602083018461236a565b5f602082840312156123b7575f80fd5b5035919050565b5f80604083850312156123cf575f80fd5b6123d883612314565b946020939093013593505050565b5f805f606084860312156123f8575f80fd5b61240184612314565b925061240f60208501612314565b9150604084013590509250925092565b5f8060408385031215612430575f80fd5b8235915061244060208401612314565b90509250929050565b60ff60f81b881681525f602060e08184015261246860e084018a61236a565b838103604085015261247a818a61236a565b606085018990526001600160a01b038816608086015260a0850187905284810360c086015285518082528387019250908301905f5b818110156124cb578351835292840192918401916001016124af565b50909c9b505050505050505050505050565b5f80602083850312156124ee575f80fd5b823567ffffffffffffffff80821115612505575f80fd5b818501915085601f830112612518575f80fd5b813581811115612526575f80fd5b8660208260051b850101111561253a575f80fd5b60209290920196919550909350505050565b5f602080830181845280855180835260408601915060408160051b87010192508387015f5b8281101561259f57603f1988860301845261258d85835161236a565b94509285019290850190600101612571565b5092979650505050505050565b5f805f606084860312156125be575f80fd5b833592506125ce60208501612314565b91506125dc60408501612314565b90509250925092565b5f805f805f805f60e0888a0312156125fb575f80fd5b61260488612314565b965061261260208901612314565b95506040880135945060608801359350608088013560ff81168114612635575f80fd5b9699959850939692959460a0840135945060c09093013592915050565b5f8060408385031215612663575f80fd5b61266c83612314565b915061244060208401612314565b5f6020828403121561268a575f80fd5b5051919050565b600181811c908216806126a557607f821691505b6020821081036126c357634e487b7160e01b5f52602260045260245ffd5b50919050565b634e487b7160e01b5f52604160045260245ffd5b634e487b7160e01b5f52601160045260245ffd5b81810381811115610912576109126126dd565b634e487b7160e01b5f52603260045260245ffd5b5f808335601e1984360301811261272d575f80fd5b83018035915067ffffffffffffffff821115612747575f80fd5b60200191503681900382131561275b575f80fd5b9250929050565b828482375f8382015f8152835161277d818360208801612348565b0195945050505050565b5f60018201612798576127986126dd565b5060010190565b80820180821115610912576109126126dd565b60ff8181168382160190811115610912576109126126dd565b600181815b8085111561280557815f19048211156127eb576127eb6126dd565b808516156127f857918102915b93841c93908002906127d0565b509250929050565b5f8261281b57506001610912565b8161282757505f610912565b816001811461283d576002811461284757612863565b6001915050610912565b60ff841115612858576128586126dd565b50506001821b610912565b5060208310610133831016604e8410600b8410161715612886575081810a610912565b61289083836127cb565b805f19048211156128a3576128a36126dd565b029392505050565b5f61095960ff84168361280d565b5f82516128ca818460208701612348565b9190910192915050565b634e487b7160e01b5f52601260045260245ffd5b634e487b7160e01b5f52602160045260245ffd5b5f60ff83168061291a57634e487b7160e01b5f52601260045260245ffd5b8060ff8416069150509291505056fea2646970667358221220ca02299a089cc1848cb41a054d102123bb2ca38cd49c6647eb3ae690b82458e664736f6c63430008150033","linkReferences":{}},"methodIdentifiers":{"SEND_EARN()":"7e9ae0d1","VAULT()":"411557d1","acceptOwnership()":"79ba5097","affiliates(address)":"4f51e294","createAndDeposit(address,bytes32,uint256)":"b473b00b","createSendEarn(address,bytes32)":"3e6f4022","deposits(address)":"fc7e286d","fee()":"ddca3f43","isSendEarn(address)":"464d225a","owner()":"8da5cb5b","pendingOwner()":"e30c3978","platform()":"4bde38c8","renounceOwnership()":"715018a6","setDeposit(address)":"3b80938e","setFee(uint256)":"69fe0e2d","setPlatform(address)":"6945c5ea","setSplit(uint256)":"674e694f","split()":"f7654176","transferOwnership(address)":"f2fde38b"},"id":100}