{"abi":[{"type":"constructor","inputs":[{"name":"initialPlatform","type":"address","internalType":"address"},{"name":"initialOwner","type":"address","internalType":"address"}],"stateMutability":"nonpayable"},{"type":"function","name":"acceptOwnership","inputs":[],"outputs":[],"stateMutability":"nonpayable"},{"type":"function","name":"owner","inputs":[],"outputs":[{"name":"","type":"address","internalType":"address"}],"stateMutability":"view"},{"type":"function","name":"ownerFunction","inputs":[],"outputs":[],"stateMutability":"nonpayable"},{"type":"function","name":"pendingOwner","inputs":[],"outputs":[{"name":"","type":"address","internalType":"address"}],"stateMutability":"view"},{"type":"function","name":"platform","inputs":[],"outputs":[{"name":"","type":"address","internalType":"address"}],"stateMutability":"view"},{"type":"function","name":"platformFunction","inputs":[],"outputs":[],"stateMutability":"nonpayable"},{"type":"function","name":"renounceOwnership","inputs":[],"outputs":[],"stateMutability":"nonpayable"},{"type":"function","name":"setPlatform","inputs":[{"name":"newPlatform","type":"address","internalType":"address"}],"outputs":[],"stateMutability":"nonpayable"},{"type":"function","name":"transferOwnership","inputs":[{"name":"newOwner","type":"address","internalType":"address"}],"outputs":[],"stateMutability":"nonpayable"},{"type":"event","name":"OwnershipTransferStarted","inputs":[{"name":"previousOwner","type":"address","indexed":true,"internalType":"address"},{"name":"newOwner","type":"address","indexed":true,"internalType":"address"}],"anonymous":false},{"type":"event","name":"OwnershipTransferred","inputs":[{"name":"previousOwner","type":"address","indexed":true,"internalType":"address"},{"name":"newOwner","type":"address","indexed":true,"internalType":"address"}],"anonymous":false},{"type":"event","name":"SetPlatform","inputs":[{"name":"newPlatform","type":"address","indexed":true,"internalType":"address"}],"anonymous":false},{"type":"error","name":"AlreadySet","inputs":[]},{"type":"error","name":"OwnableInvalidOwner","inputs":[{"name":"owner","type":"address","internalType":"address"}]},{"type":"error","name":"OwnableUnauthorizedAccount","inputs":[{"name":"account","type":"address","internalType":"address"}]},{"type":"error","name":"UnauthorizedPlatform","inputs":[]},{"type":"error","name":"ZeroAddress","inputs":[]}],"bytecode":{"object":"0x608060405234801561000f575f80fd5b5060405161064738038061064783398101604081905261002e916101b6565b81816001600160a01b03811661005d57604051631e4fbdf760e01b81525f600482015260240160405180910390fd5b6100668161009f565b506001600160a01b03811661008e5760405163d92e233d60e01b815260040160405180910390fd5b610097816100ee565b5050506101e7565b5f80546001600160a01b038381166001600160a01b0319831681178455604051919092169283917f8be0079c531659141344cd1fd0a4f28419497f9722a3daafe3b4186f6b6457e09190a35050565b6002546001600160a01b03166001600160a01b0316816001600160a01b03160361012b5760405163a741a04560e01b815260040160405180910390fd5b6001600160a01b0381166101525760405163d92e233d60e01b815260040160405180910390fd5b600280546001600160a01b0319166001600160a01b0383169081179091556040517fe43176ad83b85c7f6487987d0f13cbdc9e4a7010bfbf3148a181d1247e12067f905f90a250565b80516001600160a01b03811681146101b1575f80fd5b919050565b5f80604083850312156101c7575f80fd5b6101d08361019b565b91506101de6020840161019b565b90509250929050565b610453806101f45f395ff3fe608060405234801561000f575f80fd5b5060043610610090575f3560e01c80638da5cb5b116100635780638da5cb5b146100e2578063bd9de99b146100f2578063e30c3978146100fa578063f2fde38b1461010b578063fae7da5f1461011e575f80fd5b80634bde38c8146100945780636945c5ea146100bd578063715018a6146100d257806379ba5097146100da575b5f80fd5b6002546001600160a01b03165b6040516001600160a01b03909116815260200160405180910390f35b6100d06100cb3660046103f0565b610126565b005b6100d061015d565b6100d0610170565b5f546001600160a01b03166100a1565b6100d06101c6565b6001546001600160a01b03166100a1565b6100d06101193660046103f0565b6101ce565b6100d061029d565b6002546001600160a01b0316331461015157604051632f83518f60e11b815260040160405180910390fd5b61015a816102c8565b50565b610165610375565b61016e5f6103a1565b565b60015433906001600160a01b031681146101ad5760405163118cdaa760e01b81526001600160a01b03821660048201526024015b60405180910390fd5b600180546001600160a01b031916905561015a816103a1565b61016e610375565b6002546001600160a01b031633146101f957604051632f83518f60e11b815260040160405180910390fd5b5f546001600160a01b03166001600160a01b0316816001600160a01b0316036102355760405163a741a04560e01b815260040160405180910390fd5b600180546001600160a01b0383166001600160a01b031990911681179091556102655f546001600160a01b031690565b6001600160a01b03167f38d16b8cac22d99fc7c124b9cd0de2d3fa1faef420bfe791d8c362d765e2270060405160405180910390a350565b6002546001600160a01b0316331461016e57604051632f83518f60e11b815260040160405180910390fd5b6002546001600160a01b03166001600160a01b0316816001600160a01b0316036103055760405163a741a04560e01b815260040160405180910390fd5b6001600160a01b03811661032c5760405163d92e233d60e01b815260040160405180910390fd5b600280546001600160a01b0319166001600160a01b0383169081179091556040517fe43176ad83b85c7f6487987d0f13cbdc9e4a7010bfbf3148a181d1247e12067f905f90a250565b5f546001600160a01b0316331461016e5760405163118cdaa760e01b81523360048201526024016101a4565b5f80546001600160a01b038381166001600160a01b0319831681178455604051919092169283917f8be0079c531659141344cd1fd0a4f28419497f9722a3daafe3b4186f6b6457e09190a35050565b5f60208284031215610400575f80fd5b81356001600160a01b0381168114610416575f80fd5b939250505056fea26469706673582212209cef8eaed7a5eeab7eb819750545e78692de678f805ac524ba5856d7768d9eab64736f6c63430008150033","linkReferences":{}},"methodIdentifiers":{"acceptOwnership()":"79ba5097","owner()":"8da5cb5b","ownerFunction()":"bd9de99b","pendingOwner()":"e30c3978","platform()":"4bde38c8","platformFunction()":"fae7da5f","renounceOwnership()":"715018a6","setPlatform(address)":"6945c5ea","transferOwnership(address)":"f2fde38b"},"id":145}