{"abi":[{"type":"constructor","inputs":[{"name":"initialPlatform","type":"address","internalType":"address"},{"name":"initialOwner","type":"address","internalType":"address"}],"stateMutability":"nonpayable"},{"type":"function","name":"acceptOwnership","inputs":[],"outputs":[],"stateMutability":"nonpayable"},{"type":"function","name":"owner","inputs":[],"outputs":[{"name":"","type":"address","internalType":"address"}],"stateMutability":"view"},{"type":"function","name":"ownerFunction","inputs":[],"outputs":[],"stateMutability":"nonpayable"},{"type":"function","name":"pendingOwner","inputs":[],"outputs":[{"name":"","type":"address","internalType":"address"}],"stateMutability":"view"},{"type":"function","name":"platform","inputs":[],"outputs":[{"name":"","type":"address","internalType":"address"}],"stateMutability":"view"},{"type":"function","name":"platformFunction","inputs":[],"outputs":[],"stateMutability":"nonpayable"},{"type":"function","name":"renounceOwnership","inputs":[],"outputs":[],"stateMutability":"nonpayable"},{"type":"function","name":"setPlatform","inputs":[{"name":"newPlatform","type":"address","internalType":"address"}],"outputs":[],"stateMutability":"nonpayable"},{"type":"function","name":"transferOwnership","inputs":[{"name":"newOwner","type":"address","internalType":"address"}],"outputs":[],"stateMutability":"nonpayable"},{"type":"event","name":"OwnershipTransferStarted","inputs":[{"name":"previousOwner","type":"address","indexed":true,"internalType":"address"},{"name":"newOwner","type":"address","indexed":true,"internalType":"address"}],"anonymous":false},{"type":"event","name":"OwnershipTransferred","inputs":[{"name":"previousOwner","type":"address","indexed":true,"internalType":"address"},{"name":"newOwner","type":"address","indexed":true,"internalType":"address"}],"anonymous":false},{"type":"event","name":"SetPlatform","inputs":[{"name":"newPlatform","type":"address","indexed":true,"internalType":"address"}],"anonymous":false},{"type":"error","name":"AlreadySet","inputs":[]},{"type":"error","name":"OwnableInvalidOwner","inputs":[{"name":"owner","type":"address","internalType":"address"}]},{"type":"error","name":"OwnableUnauthorizedAccount","inputs":[{"name":"account","type":"address","internalType":"address"}]},{"type":"error","name":"UnauthorizedPlatform","inputs":[]},{"type":"error","name":"ZeroAddress","inputs":[]}],"bytecode":{"object":"0x608060405234801562000010575f80fd5b5060405162000db338038062000db38339818101604052810190620000369190620003ec565b81815f73ffffffffffffffffffffffffffffffffffffffff168173ffffffffffffffffffffffffffffffffffffffff1603620000ab575f6040517f1e4fbdf7000000000000000000000000000000000000000000000000000000008152600401620000a2919062000442565b60405180910390fd5b620000bc816200013d60201b60201c565b505f73ffffffffffffffffffffffffffffffffffffffff168173ffffffffffffffffffffffffffffffffffffffff160362000123576040517fd92e233d00000000000000000000000000000000000000000000000000000000815260040160405180910390fd5b6200013481620001fe60201b60201c565b5050506200045d565b5f805f9054906101000a900473ffffffffffffffffffffffffffffffffffffffff169050815f806101000a81548173ffffffffffffffffffffffffffffffffffffffff021916908373ffffffffffffffffffffffffffffffffffffffff1602179055508173ffffffffffffffffffffffffffffffffffffffff168173ffffffffffffffffffffffffffffffffffffffff167f8be0079c531659141344cd1fd0a4f28419497f9722a3daafe3b4186f6b6457e060405160405180910390a35050565b6200020e6200035f60201b60201c565b73ffffffffffffffffffffffffffffffffffffffff168173ffffffffffffffffffffffffffffffffffffffff160362000273576040517fa741a04500000000000000000000000000000000000000000000000000000000815260040160405180910390fd5b5f73ffffffffffffffffffffffffffffffffffffffff168173ffffffffffffffffffffffffffffffffffffffff1603620002d9576040517fd92e233d00000000000000000000000000000000000000000000000000000000815260040160405180910390fd5b8060025f6101000a81548173ffffffffffffffffffffffffffffffffffffffff021916908373ffffffffffffffffffffffffffffffffffffffff1602179055508073ffffffffffffffffffffffffffffffffffffffff167fe43176ad83b85c7f6487987d0f13cbdc9e4a7010bfbf3148a181d1247e12067f60405160405180910390a250565b5f60025f9054906101000a900473ffffffffffffffffffffffffffffffffffffffff16905090565b5f80fd5b5f73ffffffffffffffffffffffffffffffffffffffff82169050919050565b5f620003b6826200038b565b9050919050565b620003c881620003aa565b8114620003d3575f80fd5b50565b5f81519050620003e681620003bd565b92915050565b5f806040838503121562000405576200040462000387565b5b5f6200041485828601620003d6565b92505060206200042785828601620003d6565b9150509250929050565b6200043c81620003aa565b82525050565b5f602082019050620004575f83018462000431565b92915050565b610948806200046b5f395ff3fe608060405234801561000f575f80fd5b5060043610610091575f3560e01c80638da5cb5b116100645780638da5cb5b146100e3578063bd9de99b14610101578063e30c39781461010b578063f2fde38b14610129578063fae7da5f1461014557610091565b80634bde38c8146100955780636945c5ea146100b3578063715018a6146100cf57806379ba5097146100d9575b5f80fd5b61009d61014f565b6040516100aa91906108a0565b60405180910390f35b6100cd60048036038101906100c891906108e7565b610177565b005b6100d76102a5565b005b6100e16102b8565b005b6100eb61036a565b6040516100f891906108a0565b60405180910390f35b610109610391565b005b61011361039b565b60405161012091906108a0565b60405180910390f35b610143600480360381019061013e91906108e7565b6103c3565b005b61014d610546565b005b5f60025f9054906101000a900473ffffffffffffffffffffffffffffffffffffffff16905090565b61017f61014f565b73ffffffffffffffffffffffffffffffffffffffff1661019d6105bb565b73ffffffffffffffffffffffffffffffffffffffff16146101ea576040517f5f06a31e00000000000000000000000000000000000000000000000000000000815260040160405180910390fd5b6101f261014f565b73ffffffffffffffffffffffffffffffffffffffff168173ffffffffffffffffffffffffffffffffffffffff1603610256576040517fa741a04500000000000000000000000000000000000000000000000000000000815260040160405180910390fd5b61025f816105c2565b8073ffffffffffffffffffffffffffffffffffffffff167fe43176ad83b85c7f6487987d0f13cbdc9e4a7010bfbf3148a181d1247e12067f60405160405180910390a250565b6102ad610719565b6102b65f6107a0565b565b5f6102c16105bb565b90508073ffffffffffffffffffffffffffffffffffffffff166102e261039b565b73ffffffffffffffffffffffffffffffffffffffff161461033a57806040517f118cdaa700000000000000000000000000000000000000000000000000000000815260040161033191906108a0565b60405180910390fd5b60015f6101000a81549073ffffffffffffffffffffffffffffffffffffffff0219169055610367816107a0565b50565b5f805f9054906101000a900473ffffffffffffffffffffffffffffffffffffffff16905090565b610399610719565b565b5f60015f9054906101000a900473ffffffffffffffffffffffffffffffffffffffff16905090565b6103cb61014f565b73ffffffffffffffffffffffffffffffffffffffff166103e96105bb565b73ffffffffffffffffffffffffffffffffffffffff1614610436576040517f5f06a31e00000000000000000000000000000000000000000000000000000000815260040160405180910390fd5b61043e61036a565b73ffffffffffffffffffffffffffffffffffffffff168173ffffffffffffffffffffffffffffffffffffffff16036104a2576040517fa741a04500000000000000000000000000000000000000000000000000000000815260040160405180910390fd5b8060015f6101000a81548173ffffffffffffffffffffffffffffffffffffffff021916908373ffffffffffffffffffffffffffffffffffffffff1602179055508073ffffffffffffffffffffffffffffffffffffffff1661050161036a565b73ffffffffffffffffffffffffffffffffffffffff167f38d16b8cac22d99fc7c124b9cd0de2d3fa1faef420bfe791d8c362d765e2270060405160405180910390a350565b61054e61014f565b73ffffffffffffffffffffffffffffffffffffffff1661056c6105bb565b73ffffffffffffffffffffffffffffffffffffffff16146105b9576040517f5f06a31e00000000000000000000000000000000000000000000000000000000815260040160405180910390fd5b565b5f33905090565b6105ca61014f565b73ffffffffffffffffffffffffffffffffffffffff168173ffffffffffffffffffffffffffffffffffffffff160361062e576040517fa741a04500000000000000000000000000000000000000000000000000000000815260040160405180910390fd5b5f73ffffffffffffffffffffffffffffffffffffffff168173ffffffffffffffffffffffffffffffffffffffff1603610693576040517fd92e233d00000000000000000000000000000000000000000000000000000000815260040160405180910390fd5b8060025f6101000a81548173ffffffffffffffffffffffffffffffffffffffff021916908373ffffffffffffffffffffffffffffffffffffffff1602179055508073ffffffffffffffffffffffffffffffffffffffff167fe43176ad83b85c7f6487987d0f13cbdc9e4a7010bfbf3148a181d1247e12067f60405160405180910390a250565b6107216105bb565b73ffffffffffffffffffffffffffffffffffffffff1661073f61036a565b73ffffffffffffffffffffffffffffffffffffffff161461079e576107626105bb565b6040517f118cdaa700000000000000000000000000000000000000000000000000000000815260040161079591906108a0565b60405180910390fd5b565b5f805f9054906101000a900473ffffffffffffffffffffffffffffffffffffffff169050815f806101000a81548173ffffffffffffffffffffffffffffffffffffffff021916908373ffffffffffffffffffffffffffffffffffffffff1602179055508173ffffffffffffffffffffffffffffffffffffffff168173ffffffffffffffffffffffffffffffffffffffff167f8be0079c531659141344cd1fd0a4f28419497f9722a3daafe3b4186f6b6457e060405160405180910390a35050565b5f73ffffffffffffffffffffffffffffffffffffffff82169050919050565b5f61088a82610861565b9050919050565b61089a81610880565b82525050565b5f6020820190506108b35f830184610891565b92915050565b5f80fd5b6108c681610880565b81146108d0575f80fd5b50565b5f813590506108e1816108bd565b92915050565b5f602082840312156108fc576108fb6108b9565b5b5f610909848285016108d3565b9150509291505056fea264697066735822122030ba69f1466fb6371d09e0b85009d3c6d256d1cc33e0e4fcead1cabbf3c3c78b64736f6c63430008150033","linkReferences":{}},"methodIdentifiers":{"acceptOwnership()":"79ba5097","owner()":"8da5cb5b","ownerFunction()":"bd9de99b","pendingOwner()":"e30c3978","platform()":"4bde38c8","platformFunction()":"fae7da5f","renounceOwnership()":"715018a6","setPlatform(address)":"6945c5ea","transferOwnership(address)":"f2fde38b"},"id":144}